{
  "_format": "hh-sol-artifact-1",
  "contractName": "GemBotsBattleRecorder",
  "sourceName": "contracts/GemBotsBattleRecorder.sol",
  "abi": [
    {
      "inputs": [
        {
          "internalType": "address",
          "name": "_nfaContract",
          "type": "address"
        },
        {
          "internalType": "address",
          "name": "_resolver",
          "type": "address"
        }
      ],
      "stateMutability": "nonpayable",
      "type": "constructor"
    },
    {
      "inputs": [],
      "name": "BattleAlreadyRecorded",
      "type": "error"
    },
    {
      "inputs": [],
      "name": "InvalidNfaId",
      "type": "error"
    },
    {
      "inputs": [],
      "name": "OnlyResolver",
      "type": "error"
    },
    {
      "inputs": [
        {
          "internalType": "address",
          "name": "owner",
          "type": "address"
        }
      ],
      "name": "OwnableInvalidOwner",
      "type": "error"
    },
    {
      "inputs": [
        {
          "internalType": "address",
          "name": "account",
          "type": "address"
        }
      ],
      "name": "OwnableUnauthorizedAccount",
      "type": "error"
    },
    {
      "inputs": [],
      "name": "SameNfaIds",
      "type": "error"
    },
    {
      "anonymous": false,
      "inputs": [
        {
          "indexed": true,
          "internalType": "bytes32",
          "name": "battleHash",
          "type": "bytes32"
        },
        {
          "indexed": true,
          "internalType": "uint256",
          "name": "winnerNfaId",
          "type": "uint256"
        },
        {
          "indexed": true,
          "internalType": "uint256",
          "name": "loserNfaId",
          "type": "uint256"
        },
        {
          "indexed": false,
          "internalType": "string",
          "name": "battleId",
          "type": "string"
        },
        {
          "indexed": false,
          "internalType": "string",
          "name": "token",
          "type": "string"
        },
        {
          "indexed": false,
          "internalType": "uint64",
          "name": "winnerAccuracy",
          "type": "uint64"
        },
        {
          "indexed": false,
          "internalType": "uint64",
          "name": "loserAccuracy",
          "type": "uint64"
        },
        {
          "indexed": false,
          "internalType": "uint64",
          "name": "damage",
          "type": "uint64"
        },
        {
          "indexed": false,
          "internalType": "uint32",
          "name": "winnerNewElo",
          "type": "uint32"
        },
        {
          "indexed": false,
          "internalType": "uint32",
          "name": "loserNewElo",
          "type": "uint32"
        }
      ],
      "name": "BattleRecorded",
      "type": "event"
    },
    {
      "anonymous": false,
      "inputs": [
        {
          "indexed": false,
          "internalType": "address",
          "name": "oldContract",
          "type": "address"
        },
        {
          "indexed": false,
          "internalType": "address",
          "name": "newContract",
          "type": "address"
        }
      ],
      "name": "NFAContractUpdated",
      "type": "event"
    },
    {
      "anonymous": false,
      "inputs": [
        {
          "indexed": true,
          "internalType": "address",
          "name": "previousOwner",
          "type": "address"
        },
        {
          "indexed": true,
          "internalType": "address",
          "name": "newOwner",
          "type": "address"
        }
      ],
      "name": "OwnershipTransferred",
      "type": "event"
    },
    {
      "anonymous": false,
      "inputs": [
        {
          "indexed": false,
          "internalType": "address",
          "name": "oldResolver",
          "type": "address"
        },
        {
          "indexed": false,
          "internalType": "address",
          "name": "newResolver",
          "type": "address"
        }
      ],
      "name": "ResolverUpdated",
      "type": "event"
    },
    {
      "inputs": [],
      "name": "DEFAULT_ELO",
      "outputs": [
        {
          "internalType": "uint32",
          "name": "",
          "type": "uint32"
        }
      ],
      "stateMutability": "view",
      "type": "function"
    },
    {
      "inputs": [],
      "name": "ELO_K",
      "outputs": [
        {
          "internalType": "uint32",
          "name": "",
          "type": "uint32"
        }
      ],
      "stateMutability": "view",
      "type": "function"
    },
    {
      "inputs": [
        {
          "internalType": "string[]",
          "name": "battleIds",
          "type": "string[]"
        },
        {
          "internalType": "uint256[]",
          "name": "winnerNfaIds",
          "type": "uint256[]"
        },
        {
          "internalType": "uint256[]",
          "name": "loserNfaIds",
          "type": "uint256[]"
        },
        {
          "internalType": "string[]",
          "name": "tokens",
          "type": "string[]"
        },
        {
          "internalType": "uint64[]",
          "name": "winnerAccuracies",
          "type": "uint64[]"
        },
        {
          "internalType": "uint64[]",
          "name": "loserAccuracies",
          "type": "uint64[]"
        },
        {
          "internalType": "uint64[]",
          "name": "damages",
          "type": "uint64[]"
        }
      ],
      "name": "batchRecordBattles",
      "outputs": [],
      "stateMutability": "nonpayable",
      "type": "function"
    },
    {
      "inputs": [
        {
          "internalType": "bytes32",
          "name": "",
          "type": "bytes32"
        }
      ],
      "name": "battles",
      "outputs": [
        {
          "internalType": "uint256",
          "name": "winnerNfaId",
          "type": "uint256"
        },
        {
          "internalType": "uint256",
          "name": "loserNfaId",
          "type": "uint256"
        },
        {
          "internalType": "string",
          "name": "token",
          "type": "string"
        },
        {
          "internalType": "uint64",
          "name": "winnerAccuracy",
          "type": "uint64"
        },
        {
          "internalType": "uint64",
          "name": "loserAccuracy",
          "type": "uint64"
        },
        {
          "internalType": "uint64",
          "name": "damage",
          "type": "uint64"
        },
        {
          "internalType": "uint64",
          "name": "timestamp",
          "type": "uint64"
        }
      ],
      "stateMutability": "view",
      "type": "function"
    },
    {
      "inputs": [
        {
          "internalType": "uint256",
          "name": "nfaId",
          "type": "uint256"
        }
      ],
      "name": "getBattleCount",
      "outputs": [
        {
          "internalType": "uint256",
          "name": "",
          "type": "uint256"
        }
      ],
      "stateMutability": "view",
      "type": "function"
    },
    {
      "inputs": [
        {
          "internalType": "uint256",
          "name": "nfaId",
          "type": "uint256"
        },
        {
          "internalType": "uint256",
          "name": "offset",
          "type": "uint256"
        },
        {
          "internalType": "uint256",
          "name": "limit",
          "type": "uint256"
        }
      ],
      "name": "getBattleHistory",
      "outputs": [
        {
          "components": [
            {
              "internalType": "uint256",
              "name": "winnerNfaId",
              "type": "uint256"
            },
            {
              "internalType": "uint256",
              "name": "loserNfaId",
              "type": "uint256"
            },
            {
              "internalType": "string",
              "name": "token",
              "type": "string"
            },
            {
              "internalType": "uint64",
              "name": "winnerAccuracy",
              "type": "uint64"
            },
            {
              "internalType": "uint64",
              "name": "loserAccuracy",
              "type": "uint64"
            },
            {
              "internalType": "uint64",
              "name": "damage",
              "type": "uint64"
            },
            {
              "internalType": "uint64",
              "name": "timestamp",
              "type": "uint64"
            }
          ],
          "internalType": "struct GemBotsBattleRecorder.BattleRecord[]",
          "name": "",
          "type": "tuple[]"
        }
      ],
      "stateMutability": "view",
      "type": "function"
    },
    {
      "inputs": [
        {
          "internalType": "uint256",
          "name": "nfaId",
          "type": "uint256"
        }
      ],
      "name": "getStats",
      "outputs": [
        {
          "components": [
            {
              "internalType": "uint64",
              "name": "wins",
              "type": "uint64"
            },
            {
              "internalType": "uint64",
              "name": "losses",
              "type": "uint64"
            },
            {
              "internalType": "uint64",
              "name": "totalBattles",
              "type": "uint64"
            },
            {
              "internalType": "uint32",
              "name": "currentStreak",
              "type": "uint32"
            },
            {
              "internalType": "uint32",
              "name": "bestStreak",
              "type": "uint32"
            },
            {
              "internalType": "uint32",
              "name": "elo",
              "type": "uint32"
            }
          ],
          "internalType": "struct GemBotsBattleRecorder.BattleStats",
          "name": "",
          "type": "tuple"
        }
      ],
      "stateMutability": "view",
      "type": "function"
    },
    {
      "inputs": [
        {
          "internalType": "uint256",
          "name": "nfaId",
          "type": "uint256"
        }
      ],
      "name": "getWinRate",
      "outputs": [
        {
          "internalType": "uint256",
          "name": "",
          "type": "uint256"
        }
      ],
      "stateMutability": "view",
      "type": "function"
    },
    {
      "inputs": [
        {
          "internalType": "uint256",
          "name": "",
          "type": "uint256"
        },
        {
          "internalType": "uint256",
          "name": "",
          "type": "uint256"
        }
      ],
      "name": "nfaBattleHistory",
      "outputs": [
        {
          "internalType": "bytes32",
          "name": "",
          "type": "bytes32"
        }
      ],
      "stateMutability": "view",
      "type": "function"
    },
    {
      "inputs": [],
      "name": "nfaContract",
      "outputs": [
        {
          "internalType": "address",
          "name": "",
          "type": "address"
        }
      ],
      "stateMutability": "view",
      "type": "function"
    },
    {
      "inputs": [
        {
          "internalType": "uint256",
          "name": "",
          "type": "uint256"
        }
      ],
      "name": "nfaStats",
      "outputs": [
        {
          "internalType": "uint64",
          "name": "wins",
          "type": "uint64"
        },
        {
          "internalType": "uint64",
          "name": "losses",
          "type": "uint64"
        },
        {
          "internalType": "uint64",
          "name": "totalBattles",
          "type": "uint64"
        },
        {
          "internalType": "uint32",
          "name": "currentStreak",
          "type": "uint32"
        },
        {
          "internalType": "uint32",
          "name": "bestStreak",
          "type": "uint32"
        },
        {
          "internalType": "uint32",
          "name": "elo",
          "type": "uint32"
        }
      ],
      "stateMutability": "view",
      "type": "function"
    },
    {
      "inputs": [],
      "name": "owner",
      "outputs": [
        {
          "internalType": "address",
          "name": "",
          "type": "address"
        }
      ],
      "stateMutability": "view",
      "type": "function"
    },
    {
      "inputs": [
        {
          "internalType": "string",
          "name": "battleId",
          "type": "string"
        },
        {
          "internalType": "uint256",
          "name": "winnerNfaId",
          "type": "uint256"
        },
        {
          "internalType": "uint256",
          "name": "loserNfaId",
          "type": "uint256"
        },
        {
          "internalType": "string",
          "name": "token",
          "type": "string"
        },
        {
          "internalType": "uint64",
          "name": "winnerAccuracy",
          "type": "uint64"
        },
        {
          "internalType": "uint64",
          "name": "loserAccuracy",
          "type": "uint64"
        },
        {
          "internalType": "uint64",
          "name": "damage",
          "type": "uint64"
        }
      ],
      "name": "recordBattle",
      "outputs": [],
      "stateMutability": "nonpayable",
      "type": "function"
    },
    {
      "inputs": [],
      "name": "renounceOwnership",
      "outputs": [],
      "stateMutability": "nonpayable",
      "type": "function"
    },
    {
      "inputs": [],
      "name": "resolver",
      "outputs": [
        {
          "internalType": "address",
          "name": "",
          "type": "address"
        }
      ],
      "stateMutability": "view",
      "type": "function"
    },
    {
      "inputs": [
        {
          "internalType": "address",
          "name": "_nfaContract",
          "type": "address"
        }
      ],
      "name": "setNFAContract",
      "outputs": [],
      "stateMutability": "nonpayable",
      "type": "function"
    },
    {
      "inputs": [
        {
          "internalType": "address",
          "name": "_resolver",
          "type": "address"
        }
      ],
      "name": "setResolver",
      "outputs": [],
      "stateMutability": "nonpayable",
      "type": "function"
    },
    {
      "inputs": [],
      "name": "totalBattlesRecorded",
      "outputs": [
        {
          "internalType": "uint256",
          "name": "",
          "type": "uint256"
        }
      ],
      "stateMutability": "view",
      "type": "function"
    },
    {
      "inputs": [
        {
          "internalType": "address",
          "name": "newOwner",
          "type": "address"
        }
      ],
      "name": "transferOwnership",
      "outputs": [],
      "stateMutability": "nonpayable",
      "type": "function"
    }
  ],
  "bytecode": "0x6080346100e457601f6200197c38819003918201601f19168301916001600160401b038311848410176100e95780849260409485528339810103126100e457610053602061004c836100ff565b92016100ff565b33156100cb5760008054336001600160a01b0319808316821784556040519590946001600160a01b03949093859391908416907f8be0079c531659141344cd1fd0a4f28419497f9722a3daafe3b4186f6b6457e09080a316836001541617600155169060025416176002556118689081620001148239f35b604051631e4fbdf760e01b815260006004820152602490fd5b600080fd5b634e487b7160e01b600052604160045260246000fd5b51906001600160a01b03821682036100e45756fe61016080604052600436101561001457600080fd5b60003560e01c90816304f3bcec146112095750806305d237b0146111e0578063079ce2ee14610aa25780632dd35302146106c75780634280ff9d146106a95780634e543b26146106265780634efe3e411461060b5780635831e9f5146105ee578063715018a61461059557806378547e6c1461050757806379226fe61461042f5780637b3039651461033d5780638da5cb5b146103145780639e2d0388146102cd5780639e8a0f57146102a7578063d151959b14610235578063d2925a4e14610209578063e4135a86146101865763f2fde38b146100f157600080fd5b34610181576020366003190112610181576004356001600160a01b03818116918290036101815761012061142f565b811561016857600054826bffffffffffffffffffffffff60a01b821617600055167f8be0079c531659141344cd1fd0a4f28419497f9722a3daafe3b4186f6b6457e0600080a3005b604051631e4fbdf760e01b815260006004820152602490fd5b600080fd5b34610181576020366003190112610181576004356001600160a01b0381811691828103610181577fe1005776f2da6426f3aa3cb12f7330ad724536e856e3922dd0650df011c6b060906101d761142f565b600154604080519482166001600160a01b03908116865292909216602085015292a16001600160a01b03191617600155005b346101815760203660031901126101815760043560005260066020526020604060002054604051908152f35b3461018157602036600319011261018157600435600052600360205260c06001604060002080549063ffffffff92839101541690604051926001600160401b038083168552808360401c1660208601528260801c16604085015281851c16606084015260e01c608083015260a0820152f35b346101815760203660031901126101815760206102c5600435611755565b604051908152f35b34610181576040366003190112610181576024356004356000526006602052604060002080548210156101815760209161030691611401565b90546040519160031b1c8152f35b34610181576000366003190112610181576000546040516001600160a01b039091168152602090f35b3461018157602036600319011261018157600060a060405161035e816112df565b8281528260208201528260408201528260608201528260808201520152600435600052600360205260c0604060002060a060405161039b816112df565b600183546001600160401b0394858216958685526020850190808460401c16825260408601818560801c16815281606088019363ffffffff998a809981988f8b84911c16895260808d019a60e01c8b52015416990198808a5215610425575b6040519a8b52511660208a0152511660408801525116606086015251166080840152511660a0820152f35b6104b089526103fa565b34610181576060806003193601126101815761045260443560243560043561157a565b604051906020808301818452825180915260408401918060408360051b8701019401926000965b8388106104865786860387f35b90919293948380600192603f198a82030186528851908151815282820151838201526104c1604083015160e0604084015260e08301906113c1565b916001600160401b038088830151168884015260808181840151169084015260a08181840151169084015260c08092015116910152970193019701969093929193610479565b346101815760203660031901126101815760043560005260046020526040600020805460018201549161056360036105416002840161131b565b920154916040519485948552602085015260e0604085015260e08401906113c1565b906001600160401b038082166060850152808260401c1660808501528160801c1660a084015260c01c60c08301520390f35b34610181576000366003190112610181576105ae61142f565b600080546001600160a01b0319811682556001600160a01b03167f8be0079c531659141344cd1fd0a4f28419497f9722a3daafe3b4186f6b6457e08280a3005b346101815760003660031901126101815760206040516104b08152f35b34610181576000366003190112610181576020604051818152f35b34610181576020366003190112610181576004356001600160a01b0381811691828103610181577f84b83d2b66cac119ccaaca68b476b0dc5371d5f2fd27f697770a910175fd38b69061067761142f565b600254604080519482166001600160a01b03908116865292909216602085015292a16001600160a01b03191617600255005b34610181576000366003190112610181576020600554604051908152f35b346101815760e0366003190112610181576004356001600160401b038111610181576106f790369060040161125a565b9060c0526024356001600160401b0381116101815761071a90369060040161125a565b61012052610140526044356001600160401b0381116101815761074190369060040161125a565b906064356001600160401b0381116101815761076190369060040161125a565b60e0526084356001600160401b0381116101815761078390369060040161125a565b936001600160401b0360a43511610181576107a33660a43560040161125a565b608052916001600160401b0360c43511610181576107c63660c43560040161125a565b6002549098906001600160a01b03163303610a905761012051811480610a87575b80610a7c575b80610a73575b80610a68575b80610a5f575b15610a2257603281116109dd57600060a0525b60a051818110156109db5761085461082f6004928460c0516114dd565b60405192839160209481869283830196873781016000838201520380845201826112fa565b51902060005252888888888888888760036040600020015460c01c6109ce576108db6108ee6108db6108e06108db6108cf6108c061089b6108f99860a0519060c0516114dd565b6101009e919e526108b560a051610120516101405161151e565b359a60a0519161151e565b359a60a0519060e051906114dd565b97909c60a0519161151e565b61152e565b9660a051906080519061151e565b9860a051908c61151e565b90303b1561018157610940976001600160401b0361095c8195829460009b60e49a6040519e8f9d8e9d8e6303ce717760e11b815260e06004820152019061010051906114bc565b9360248d015260448c01526003198b84030160648c01526114bc565b951660848701521660a48501521660c4830152038183305af180156109c257610995575b505b61098d60a0516114ad565b60a052610812565b6001600160401b0381116109ac5760405289610980565b634e487b7160e01b600052604160045260246000fd5b6040513d6000823e3d90fd5b5050505050505050610982565b005b60405162461bcd60e51b815260206004820152601860248201527f4d617820353020626174746c65732070657220626174636800000000000000006044820152606490fd5b60405162461bcd60e51b8152602060048201526015602482015274082e4e4c2f240d8cadccee8d040dad2e6dac2e8c6d605b1b6044820152606490fd5b508881146107ff565b5060805181146107f9565b508781146107f3565b5060e05181146107ed565b508381146107e7565b604051632b910d6d60e11b8152600490fd5b346101815760e0366003190112610181576004356001600160401b03811161018157610ad290369060040161122d565b906064356001600160401b03811161018157610af290369060040161122d565b608435926001600160401b03841684036101815760a4356001600160401b03811681036101815760c435906001600160401b0382168203610181576002546001600160a01b03163303610a9057604435602435146111ce57604051602081019088858337610b706020828b81016000838201520380845201826112fa565b5190209485600052600460205260036040600020015460c01c6111bc5760243560005260036020526001604060002001805463ffffffff8116156111a8575b50506044356000526001604060002001805463ffffffff811615611194575b505060243560005263ffffffff600160406000200154169460443560005263ffffffff6001604060002001541694610c068787611819565b61019080821361118c575b5061018f19808212611184575b5060208160051b058103611140576103209060051b056000811260108281031281169060108381031390151617611140576010036001811261117c575b8080890112600089129080158216911516176111405780610c8281610bb8938b0199611819565b980113611172575b60648612611169575b610bb8871361115f575b60648712611156575b60243560005260036020526040600020610d0c610ce46001600160401b03835481610cd281831661145b565b16908219161780855560801c1661145b565b825467ffffffffffffffff60801b191660809190911b67ffffffffffffffff60801b16178255565b805463ffffffff808260c01c16146111405763ffffffff60c01b600163ffffffff8360c01c160160c01b168063ffffffff60c01b198316178084558060e01c63ffffffff8260c01c1611611119575b505050600163ffffffff881663ffffffff1982840154161791015560443560005260036020526040600020610dcc610d9f6001600160401b03835460401c1661145b565b82546fffffffffffffffff0000000000000000191660409190911b67ffffffffffffffff60401b16178255565b610de5610ce46001600160401b03835460801c1661145b565b805463ffffffff60c01b19168155600101805463ffffffff191663ffffffff8916179055604051610e15816112c4565b602435815260443560208201526001600160401b0383116109ac57604051610e47601f8501601f1916602001826112fa565b8381523684860111610181578385602083013760006020858301015260408201526001600160401b038a1660608201526001600160401b03851660808201526001600160401b03861660a08201526001600160401b03421660c08201528860005260046020526040600020815181556020820151600182015560408201518051906001600160401b0382116109ac57610ee3600284015461128a565b601f81116110d2575b50602090601f831160011461106057600393929160009183611055575b50508160011b9160001990851b1c19161760028201555b606083015160808085015160a086015160c09687015190961b6001600160c01b0319166001600160401b03909316604091821b67ffffffffffffffff60401b161767ffffffffffffffff60801b9690921b9590951617179101556024356000908152600660205220610f93908990611473565b604435600052600660205287604060002090610fae91611473565b600554610fba906114ad565b6005556040519960e08b5260e08b0190610fd3926114bc565b9089820360208b0152610fe5926114bc565b956001600160401b031660408801526001600160401b031660608701526001600160401b0316608086015263ffffffff1660a085015263ffffffff1660c0840152604435928060243593037f0da4d0094aea97573065b2b5b4262a2d3b66d51932fdecbdba980f9265b9a2cb91a4005b015190508f80610f09565b906002840160005260206000209160005b601f19851681106110ba575091839160019360039695601f198116106110a2575b505050811b016002820155610f20565b015160001983871b60f8161c191690558f8080611092565b91926020600181928685015181550194019201611071565b600284016000526020600020601f840160051c810160208510611112575b601f830160051c82018110611106575050610eec565b600081556001016110f0565b50806110f0565b6001600160c01b039092161760209190911b6001600160e01b0319161781558b8080610d5b565b634e487b7160e01b600052601160045260246000fd5b60649650610ca6565b610bb89650610c9d565b60649550610c93565b610bb89550610c8a565b506001610c5b565b90508b610c1e565b90508b610c11565b63ffffffff19166104b01790558880610bce565b63ffffffff19166104b01790558880610baf565b6040516305206c3160e21b8152600490fd5b60405163efb2668160e01b8152600490fd5b34610181576000366003190112610181576001546040516001600160a01b039091168152602090f35b34610181576000366003190112610181576002546001600160a01b03168152602090f35b9181601f84011215610181578235916001600160401b038311610181576020838186019501011161018157565b9181601f84011215610181578235916001600160401b038311610181576020808501948460051b01011161018157565b90600182811c921680156112ba575b60208310146112a457565b634e487b7160e01b600052602260045260246000fd5b91607f1691611299565b60e081019081106001600160401b038211176109ac57604052565b60c081019081106001600160401b038211176109ac57604052565b90601f801991011681019081106001600160401b038211176109ac57604052565b906040519182600082549261132f8461128a565b90818452600194858116908160001461139e575060011461135b575b5050611359925003836112fa565b565b9093915060005260209081600020936000915b8183106113865750506113599350820101388061134b565b8554888401850152948501948794509183019161136e565b91505061135994506020925060ff191682840152151560051b820101388061134b565b919082519283825260005b8481106113ed575050826000602080949584010152601f8019910116010190565b6020818301810151848301820152016113cc565b80548210156114195760005260206000200190600090565b634e487b7160e01b600052603260045260246000fd5b6000546001600160a01b0316330361144357565b60405163118cdaa760e01b8152336004820152602490fd5b6001600160401b038091169081146111405760010190565b8054680100000000000000008110156109ac5761149591600182018155611401565b819291549060031b91821b91600019901b1916179055565b60001981146111405760010190565b908060209392818452848401376000828201840152601f01601f1916010190565b91908110156114195760051b81013590601e19813603018212156101815701908135916001600160401b038311610181576020018236038113610181579190565b91908110156114195760051b0190565b356001600160401b03811681036101815790565b6001600160401b0381116109ac5760051b60200190565b9190820391821161114057565b80518210156114195760209160051b010190565b90600091825260206006815260408084208054958685101561171e57840180851161170a5784878211611702575b6115b191611559565b936115bb85611542565b966115c8845198896112fa565b858852601f196115d787611542565b0185885b8281106116c4575050506000198101908111875b8781106116025750505050505050505090565b816116b057806116276116216116ab9361161c8888611559565b611559565b87611401565b9054600391821b1c8b5260048952878b2090885191611645836112c4565b8054835260018101548b84015261165e6002820161131b565b8a84015201546001600160401b03808216606084015281608082828d1c16818601521c1660a083015260c090811c9082015261169a828d611566565b526116a5818c611566565b506114ad565b6115ef565b634e487b7160e01b89526011600452602489fd5b86516116cf816112c4565b8a81528a838201528a6060808a8401528201528a60808201528a60a08201528a60c082015282828d0101520186906115db565b8791506115a8565b634e487b7160e01b86526011600452602486fd5b50508051945090840191506001600160401b038211848310176117415752815290565b634e487b7160e01b83526041600452602483fd5b600090815260036020526040812060405190611770826112df565b8054906001600160401b039182811693848152838260401c16602082015260a0848360801c16926001604084019585875263ffffffff92838160c01c16606087015260e01c60808601520154169101521561180f57612710928381029381850414901517156117fb5751169182156117e757500490565b634e487b7160e01b81526012600452602490fd5b634e487b7160e01b84526011600452602484fd5b5050505061138890565b818103929160001380158285131691841216176111405756fea26469706673582212206f61843edd3de6a0d82d22b1edfa972d082981e62e96bd90b68719ee739e2c0564736f6c63430008140033",
  "linkReferences": {},
  "deployedLinkReferences": {}
}