{
  "_format": "hh-sol-artifact-1",
  "contractName": "GemBotsNFA",
  "sourceName": "contracts/GemBotsNFA.sol",
  "abi": [
    {
      "inputs": [
        {
          "internalType": "address",
          "name": "_treasury",
          "type": "address"
        },
        {
          "internalType": "address",
          "name": "_battleResolver",
          "type": "address"
        }
      ],
      "stateMutability": "nonpayable",
      "type": "constructor"
    },
    {
      "inputs": [],
      "name": "AlreadyAtMaxTier",
      "type": "error"
    },
    {
      "inputs": [
        {
          "internalType": "address",
          "name": "sender",
          "type": "address"
        },
        {
          "internalType": "uint256",
          "name": "tokenId",
          "type": "uint256"
        },
        {
          "internalType": "address",
          "name": "owner",
          "type": "address"
        }
      ],
      "name": "ERC721IncorrectOwner",
      "type": "error"
    },
    {
      "inputs": [
        {
          "internalType": "address",
          "name": "operator",
          "type": "address"
        },
        {
          "internalType": "uint256",
          "name": "tokenId",
          "type": "uint256"
        }
      ],
      "name": "ERC721InsufficientApproval",
      "type": "error"
    },
    {
      "inputs": [
        {
          "internalType": "address",
          "name": "approver",
          "type": "address"
        }
      ],
      "name": "ERC721InvalidApprover",
      "type": "error"
    },
    {
      "inputs": [
        {
          "internalType": "address",
          "name": "operator",
          "type": "address"
        }
      ],
      "name": "ERC721InvalidOperator",
      "type": "error"
    },
    {
      "inputs": [
        {
          "internalType": "address",
          "name": "owner",
          "type": "address"
        }
      ],
      "name": "ERC721InvalidOwner",
      "type": "error"
    },
    {
      "inputs": [
        {
          "internalType": "address",
          "name": "receiver",
          "type": "address"
        }
      ],
      "name": "ERC721InvalidReceiver",
      "type": "error"
    },
    {
      "inputs": [
        {
          "internalType": "address",
          "name": "sender",
          "type": "address"
        }
      ],
      "name": "ERC721InvalidSender",
      "type": "error"
    },
    {
      "inputs": [
        {
          "internalType": "uint256",
          "name": "tokenId",
          "type": "uint256"
        }
      ],
      "name": "ERC721NonexistentToken",
      "type": "error"
    },
    {
      "inputs": [],
      "name": "EnforcedPause",
      "type": "error"
    },
    {
      "inputs": [],
      "name": "ExpectedPause",
      "type": "error"
    },
    {
      "inputs": [],
      "name": "InsufficientPayment",
      "type": "error"
    },
    {
      "inputs": [],
      "name": "InvalidPrice",
      "type": "error"
    },
    {
      "inputs": [],
      "name": "NFAAlreadyListed",
      "type": "error"
    },
    {
      "inputs": [],
      "name": "NFANotListed",
      "type": "error"
    },
    {
      "inputs": [],
      "name": "NotBattleResolver",
      "type": "error"
    },
    {
      "inputs": [],
      "name": "NotEligibleForEvolution",
      "type": "error"
    },
    {
      "inputs": [],
      "name": "NotMinter",
      "type": "error"
    },
    {
      "inputs": [],
      "name": "NotOwnerOfNFA",
      "type": "error"
    },
    {
      "inputs": [
        {
          "internalType": "address",
          "name": "owner",
          "type": "address"
        }
      ],
      "name": "OwnableInvalidOwner",
      "type": "error"
    },
    {
      "inputs": [
        {
          "internalType": "address",
          "name": "account",
          "type": "address"
        }
      ],
      "name": "OwnableUnauthorizedAccount",
      "type": "error"
    },
    {
      "inputs": [],
      "name": "ReentrancyGuardReentrantCall",
      "type": "error"
    },
    {
      "inputs": [],
      "name": "TransferFailed",
      "type": "error"
    },
    {
      "inputs": [],
      "name": "ZeroAddress",
      "type": "error"
    },
    {
      "anonymous": false,
      "inputs": [
        {
          "indexed": true,
          "internalType": "address",
          "name": "owner",
          "type": "address"
        },
        {
          "indexed": true,
          "internalType": "address",
          "name": "approved",
          "type": "address"
        },
        {
          "indexed": true,
          "internalType": "uint256",
          "name": "tokenId",
          "type": "uint256"
        }
      ],
      "name": "Approval",
      "type": "event"
    },
    {
      "anonymous": false,
      "inputs": [
        {
          "indexed": true,
          "internalType": "address",
          "name": "owner",
          "type": "address"
        },
        {
          "indexed": true,
          "internalType": "address",
          "name": "operator",
          "type": "address"
        },
        {
          "indexed": false,
          "internalType": "bool",
          "name": "approved",
          "type": "bool"
        }
      ],
      "name": "ApprovalForAll",
      "type": "event"
    },
    {
      "anonymous": false,
      "inputs": [
        {
          "indexed": false,
          "internalType": "uint256",
          "name": "_fromTokenId",
          "type": "uint256"
        },
        {
          "indexed": false,
          "internalType": "uint256",
          "name": "_toTokenId",
          "type": "uint256"
        }
      ],
      "name": "BatchMetadataUpdate",
      "type": "event"
    },
    {
      "anonymous": false,
      "inputs": [
        {
          "indexed": true,
          "internalType": "uint256",
          "name": "nfaId",
          "type": "uint256"
        },
        {
          "indexed": false,
          "internalType": "uint256",
          "name": "opponentNfaId",
          "type": "uint256"
        },
        {
          "indexed": false,
          "internalType": "bool",
          "name": "won",
          "type": "bool"
        },
        {
          "indexed": false,
          "internalType": "string",
          "name": "battleId",
          "type": "string"
        }
      ],
      "name": "BattleRecorded",
      "type": "event"
    },
    {
      "anonymous": false,
      "inputs": [
        {
          "indexed": true,
          "internalType": "uint256",
          "name": "nfaId",
          "type": "uint256"
        },
        {
          "indexed": false,
          "internalType": "uint8",
          "name": "newTier",
          "type": "uint8"
        }
      ],
      "name": "Evolved",
      "type": "event"
    },
    {
      "anonymous": false,
      "inputs": [
        {
          "indexed": true,
          "internalType": "uint256",
          "name": "nfaId",
          "type": "uint256"
        },
        {
          "indexed": false,
          "internalType": "uint256",
          "name": "price",
          "type": "uint256"
        }
      ],
      "name": "Listed",
      "type": "event"
    },
    {
      "anonymous": false,
      "inputs": [
        {
          "indexed": true,
          "internalType": "uint256",
          "name": "nfaId",
          "type": "uint256"
        }
      ],
      "name": "ListingCancelled",
      "type": "event"
    },
    {
      "anonymous": false,
      "inputs": [
        {
          "indexed": false,
          "internalType": "uint256",
          "name": "_tokenId",
          "type": "uint256"
        }
      ],
      "name": "MetadataUpdate",
      "type": "event"
    },
    {
      "anonymous": false,
      "inputs": [
        {
          "indexed": true,
          "internalType": "uint256",
          "name": "nfaId",
          "type": "uint256"
        },
        {
          "indexed": true,
          "internalType": "uint256",
          "name": "agentId",
          "type": "uint256"
        },
        {
          "indexed": true,
          "internalType": "address",
          "name": "owner",
          "type": "address"
        },
        {
          "indexed": false,
          "internalType": "bytes32",
          "name": "configHash",
          "type": "bytes32"
        }
      ],
      "name": "NFAMinted",
      "type": "event"
    },
    {
      "anonymous": false,
      "inputs": [
        {
          "indexed": true,
          "internalType": "address",
          "name": "previousOwner",
          "type": "address"
        },
        {
          "indexed": true,
          "internalType": "address",
          "name": "newOwner",
          "type": "address"
        }
      ],
      "name": "OwnershipTransferred",
      "type": "event"
    },
    {
      "anonymous": false,
      "inputs": [
        {
          "indexed": false,
          "internalType": "address",
          "name": "account",
          "type": "address"
        }
      ],
      "name": "Paused",
      "type": "event"
    },
    {
      "anonymous": false,
      "inputs": [
        {
          "indexed": true,
          "internalType": "uint256",
          "name": "nfaId",
          "type": "uint256"
        },
        {
          "indexed": false,
          "internalType": "address",
          "name": "from",
          "type": "address"
        },
        {
          "indexed": false,
          "internalType": "address",
          "name": "to",
          "type": "address"
        },
        {
          "indexed": false,
          "internalType": "uint256",
          "name": "price",
          "type": "uint256"
        }
      ],
      "name": "Sold",
      "type": "event"
    },
    {
      "anonymous": false,
      "inputs": [
        {
          "indexed": true,
          "internalType": "uint256",
          "name": "nfaId",
          "type": "uint256"
        },
        {
          "indexed": false,
          "internalType": "string",
          "name": "modelId",
          "type": "string"
        },
        {
          "indexed": false,
          "internalType": "bytes32",
          "name": "strategyHash",
          "type": "bytes32"
        }
      ],
      "name": "StrategyRegistered",
      "type": "event"
    },
    {
      "anonymous": false,
      "inputs": [
        {
          "indexed": true,
          "internalType": "address",
          "name": "from",
          "type": "address"
        },
        {
          "indexed": true,
          "internalType": "address",
          "name": "to",
          "type": "address"
        },
        {
          "indexed": true,
          "internalType": "uint256",
          "name": "tokenId",
          "type": "uint256"
        }
      ],
      "name": "Transfer",
      "type": "event"
    },
    {
      "anonymous": false,
      "inputs": [
        {
          "indexed": false,
          "internalType": "address",
          "name": "account",
          "type": "address"
        }
      ],
      "name": "Unpaused",
      "type": "event"
    },
    {
      "inputs": [
        {
          "internalType": "address",
          "name": "to",
          "type": "address"
        },
        {
          "internalType": "uint256",
          "name": "tokenId",
          "type": "uint256"
        }
      ],
      "name": "approve",
      "outputs": [],
      "stateMutability": "nonpayable",
      "type": "function"
    },
    {
      "inputs": [
        {
          "internalType": "address",
          "name": "owner",
          "type": "address"
        }
      ],
      "name": "balanceOf",
      "outputs": [
        {
          "internalType": "uint256",
          "name": "",
          "type": "uint256"
        }
      ],
      "stateMutability": "view",
      "type": "function"
    },
    {
      "inputs": [],
      "name": "battleResolver",
      "outputs": [
        {
          "internalType": "address",
          "name": "",
          "type": "address"
        }
      ],
      "stateMutability": "view",
      "type": "function"
    },
    {
      "inputs": [
        {
          "internalType": "uint256",
          "name": "nfaId",
          "type": "uint256"
        }
      ],
      "name": "buyNFA",
      "outputs": [],
      "stateMutability": "payable",
      "type": "function"
    },
    {
      "inputs": [
        {
          "internalType": "uint256",
          "name": "nfaId",
          "type": "uint256"
        }
      ],
      "name": "cancelListing",
      "outputs": [],
      "stateMutability": "nonpayable",
      "type": "function"
    },
    {
      "inputs": [],
      "name": "creatorRoyaltyBps",
      "outputs": [
        {
          "internalType": "uint256",
          "name": "",
          "type": "uint256"
        }
      ],
      "stateMutability": "view",
      "type": "function"
    },
    {
      "inputs": [
        {
          "internalType": "uint256",
          "name": "nfaId",
          "type": "uint256"
        }
      ],
      "name": "evolve",
      "outputs": [],
      "stateMutability": "nonpayable",
      "type": "function"
    },
    {
      "inputs": [
        {
          "internalType": "uint256",
          "name": "tokenId",
          "type": "uint256"
        }
      ],
      "name": "getApproved",
      "outputs": [
        {
          "internalType": "address",
          "name": "",
          "type": "address"
        }
      ],
      "stateMutability": "view",
      "type": "function"
    },
    {
      "inputs": [
        {
          "internalType": "uint256",
          "name": "nfaId",
          "type": "uint256"
        }
      ],
      "name": "getBattleStats",
      "outputs": [
        {
          "components": [
            {
              "internalType": "uint256",
              "name": "wins",
              "type": "uint256"
            },
            {
              "internalType": "uint256",
              "name": "losses",
              "type": "uint256"
            },
            {
              "internalType": "uint256",
              "name": "totalBattles",
              "type": "uint256"
            },
            {
              "internalType": "uint256",
              "name": "currentStreak",
              "type": "uint256"
            },
            {
              "internalType": "uint256",
              "name": "bestStreak",
              "type": "uint256"
            }
          ],
          "internalType": "struct GemBotsNFA.BattleStats",
          "name": "",
          "type": "tuple"
        }
      ],
      "stateMutability": "view",
      "type": "function"
    },
    {
      "inputs": [
        {
          "internalType": "uint256",
          "name": "nfaId",
          "type": "uint256"
        }
      ],
      "name": "getListing",
      "outputs": [
        {
          "components": [
            {
              "internalType": "uint256",
              "name": "price",
              "type": "uint256"
            },
            {
              "internalType": "address",
              "name": "seller",
              "type": "address"
            },
            {
              "internalType": "bool",
              "name": "active",
              "type": "bool"
            }
          ],
          "internalType": "struct GemBotsNFA.Listing",
          "name": "",
          "type": "tuple"
        }
      ],
      "stateMutability": "view",
      "type": "function"
    },
    {
      "inputs": [
        {
          "internalType": "uint256",
          "name": "nfaId",
          "type": "uint256"
        }
      ],
      "name": "getNFA",
      "outputs": [
        {
          "internalType": "uint256",
          "name": "agentId",
          "type": "uint256"
        },
        {
          "internalType": "bytes32",
          "name": "configHash",
          "type": "bytes32"
        },
        {
          "internalType": "string",
          "name": "configURI",
          "type": "string"
        },
        {
          "internalType": "address",
          "name": "originalCreator",
          "type": "address"
        },
        {
          "internalType": "enum GemBotsNFA.Tier",
          "name": "tier",
          "type": "uint8"
        },
        {
          "internalType": "uint256",
          "name": "wins",
          "type": "uint256"
        },
        {
          "internalType": "uint256",
          "name": "losses",
          "type": "uint256"
        },
        {
          "internalType": "uint256",
          "name": "totalBattles",
          "type": "uint256"
        },
        {
          "internalType": "uint256",
          "name": "currentStreak",
          "type": "uint256"
        },
        {
          "internalType": "uint256",
          "name": "bestStreak",
          "type": "uint256"
        },
        {
          "internalType": "string",
          "name": "modelId",
          "type": "string"
        },
        {
          "internalType": "bytes32",
          "name": "strategyHash",
          "type": "bytes32"
        },
        {
          "internalType": "string",
          "name": "strategyURI",
          "type": "string"
        }
      ],
      "stateMutability": "view",
      "type": "function"
    },
    {
      "inputs": [
        {
          "internalType": "bytes32",
          "name": "strategyHash",
          "type": "bytes32"
        }
      ],
      "name": "getNFAsByStrategy",
      "outputs": [
        {
          "internalType": "uint256[]",
          "name": "",
          "type": "uint256[]"
        }
      ],
      "stateMutability": "view",
      "type": "function"
    },
    {
      "inputs": [
        {
          "internalType": "uint256",
          "name": "nfaId",
          "type": "uint256"
        }
      ],
      "name": "getStrategy",
      "outputs": [
        {
          "internalType": "string",
          "name": "modelId",
          "type": "string"
        },
        {
          "internalType": "bytes32",
          "name": "strategyHash",
          "type": "bytes32"
        },
        {
          "internalType": "string",
          "name": "strategyURI",
          "type": "string"
        }
      ],
      "stateMutability": "view",
      "type": "function"
    },
    {
      "inputs": [
        {
          "internalType": "address",
          "name": "owner",
          "type": "address"
        },
        {
          "internalType": "address",
          "name": "operator",
          "type": "address"
        }
      ],
      "name": "isApprovedForAll",
      "outputs": [
        {
          "internalType": "bool",
          "name": "",
          "type": "bool"
        }
      ],
      "stateMutability": "view",
      "type": "function"
    },
    {
      "inputs": [
        {
          "internalType": "uint256",
          "name": "nfaId",
          "type": "uint256"
        },
        {
          "internalType": "uint256",
          "name": "price",
          "type": "uint256"
        }
      ],
      "name": "listForSale",
      "outputs": [],
      "stateMutability": "nonpayable",
      "type": "function"
    },
    {
      "inputs": [
        {
          "internalType": "uint256",
          "name": "",
          "type": "uint256"
        }
      ],
      "name": "listings",
      "outputs": [
        {
          "internalType": "uint256",
          "name": "price",
          "type": "uint256"
        },
        {
          "internalType": "address",
          "name": "seller",
          "type": "address"
        },
        {
          "internalType": "bool",
          "name": "active",
          "type": "bool"
        }
      ],
      "stateMutability": "view",
      "type": "function"
    },
    {
      "inputs": [
        {
          "internalType": "uint256",
          "name": "agentId",
          "type": "uint256"
        },
        {
          "internalType": "bytes32",
          "name": "configHash",
          "type": "bytes32"
        },
        {
          "internalType": "string",
          "name": "configURI",
          "type": "string"
        },
        {
          "internalType": "string",
          "name": "modelId",
          "type": "string"
        },
        {
          "internalType": "bytes32",
          "name": "strategyHash",
          "type": "bytes32"
        },
        {
          "internalType": "string",
          "name": "strategyURI",
          "type": "string"
        }
      ],
      "name": "mint",
      "outputs": [
        {
          "internalType": "uint256",
          "name": "tokenId",
          "type": "uint256"
        }
      ],
      "stateMutability": "nonpayable",
      "type": "function"
    },
    {
      "inputs": [
        {
          "internalType": "address",
          "name": "",
          "type": "address"
        }
      ],
      "name": "minters",
      "outputs": [
        {
          "internalType": "bool",
          "name": "",
          "type": "bool"
        }
      ],
      "stateMutability": "view",
      "type": "function"
    },
    {
      "inputs": [],
      "name": "name",
      "outputs": [
        {
          "internalType": "string",
          "name": "",
          "type": "string"
        }
      ],
      "stateMutability": "view",
      "type": "function"
    },
    {
      "inputs": [
        {
          "internalType": "uint256",
          "name": "",
          "type": "uint256"
        }
      ],
      "name": "nfas",
      "outputs": [
        {
          "internalType": "uint256",
          "name": "agentId",
          "type": "uint256"
        },
        {
          "internalType": "bytes32",
          "name": "configHash",
          "type": "bytes32"
        },
        {
          "internalType": "string",
          "name": "configURI",
          "type": "string"
        },
        {
          "internalType": "address",
          "name": "originalCreator",
          "type": "address"
        },
        {
          "internalType": "enum GemBotsNFA.Tier",
          "name": "tier",
          "type": "uint8"
        },
        {
          "components": [
            {
              "internalType": "uint256",
              "name": "wins",
              "type": "uint256"
            },
            {
              "internalType": "uint256",
              "name": "losses",
              "type": "uint256"
            },
            {
              "internalType": "uint256",
              "name": "totalBattles",
              "type": "uint256"
            },
            {
              "internalType": "uint256",
              "name": "currentStreak",
              "type": "uint256"
            },
            {
              "internalType": "uint256",
              "name": "bestStreak",
              "type": "uint256"
            }
          ],
          "internalType": "struct GemBotsNFA.BattleStats",
          "name": "stats",
          "type": "tuple"
        },
        {
          "internalType": "string",
          "name": "modelId",
          "type": "string"
        },
        {
          "internalType": "bytes32",
          "name": "strategyHash",
          "type": "bytes32"
        },
        {
          "internalType": "string",
          "name": "strategyURI",
          "type": "string"
        }
      ],
      "stateMutability": "view",
      "type": "function"
    },
    {
      "inputs": [],
      "name": "openMinting",
      "outputs": [
        {
          "internalType": "bool",
          "name": "",
          "type": "bool"
        }
      ],
      "stateMutability": "view",
      "type": "function"
    },
    {
      "inputs": [],
      "name": "owner",
      "outputs": [
        {
          "internalType": "address",
          "name": "",
          "type": "address"
        }
      ],
      "stateMutability": "view",
      "type": "function"
    },
    {
      "inputs": [
        {
          "internalType": "uint256",
          "name": "tokenId",
          "type": "uint256"
        }
      ],
      "name": "ownerOf",
      "outputs": [
        {
          "internalType": "address",
          "name": "",
          "type": "address"
        }
      ],
      "stateMutability": "view",
      "type": "function"
    },
    {
      "inputs": [],
      "name": "pause",
      "outputs": [],
      "stateMutability": "nonpayable",
      "type": "function"
    },
    {
      "inputs": [],
      "name": "paused",
      "outputs": [
        {
          "internalType": "bool",
          "name": "",
          "type": "bool"
        }
      ],
      "stateMutability": "view",
      "type": "function"
    },
    {
      "inputs": [],
      "name": "platformFeeBps",
      "outputs": [
        {
          "internalType": "uint256",
          "name": "",
          "type": "uint256"
        }
      ],
      "stateMutability": "view",
      "type": "function"
    },
    {
      "inputs": [
        {
          "internalType": "uint256",
          "name": "nfaId",
          "type": "uint256"
        },
        {
          "internalType": "uint256",
          "name": "opponentNfaId",
          "type": "uint256"
        },
        {
          "internalType": "bool",
          "name": "won",
          "type": "bool"
        },
        {
          "internalType": "string",
          "name": "battleId",
          "type": "string"
        }
      ],
      "name": "recordBattle",
      "outputs": [],
      "stateMutability": "nonpayable",
      "type": "function"
    },
    {
      "inputs": [],
      "name": "renounceOwnership",
      "outputs": [],
      "stateMutability": "nonpayable",
      "type": "function"
    },
    {
      "inputs": [
        {
          "internalType": "address",
          "name": "from",
          "type": "address"
        },
        {
          "internalType": "address",
          "name": "to",
          "type": "address"
        },
        {
          "internalType": "uint256",
          "name": "tokenId",
          "type": "uint256"
        }
      ],
      "name": "safeTransferFrom",
      "outputs": [],
      "stateMutability": "nonpayable",
      "type": "function"
    },
    {
      "inputs": [
        {
          "internalType": "address",
          "name": "from",
          "type": "address"
        },
        {
          "internalType": "address",
          "name": "to",
          "type": "address"
        },
        {
          "internalType": "uint256",
          "name": "tokenId",
          "type": "uint256"
        },
        {
          "internalType": "bytes",
          "name": "data",
          "type": "bytes"
        }
      ],
      "name": "safeTransferFrom",
      "outputs": [],
      "stateMutability": "nonpayable",
      "type": "function"
    },
    {
      "inputs": [
        {
          "internalType": "address",
          "name": "operator",
          "type": "address"
        },
        {
          "internalType": "bool",
          "name": "approved",
          "type": "bool"
        }
      ],
      "name": "setApprovalForAll",
      "outputs": [],
      "stateMutability": "nonpayable",
      "type": "function"
    },
    {
      "inputs": [
        {
          "internalType": "address",
          "name": "_battleResolver",
          "type": "address"
        }
      ],
      "name": "setBattleResolver",
      "outputs": [],
      "stateMutability": "nonpayable",
      "type": "function"
    },
    {
      "inputs": [
        {
          "internalType": "uint256",
          "name": "_royaltyBps",
          "type": "uint256"
        }
      ],
      "name": "setCreatorRoyaltyBps",
      "outputs": [],
      "stateMutability": "nonpayable",
      "type": "function"
    },
    {
      "inputs": [
        {
          "internalType": "address",
          "name": "_minter",
          "type": "address"
        },
        {
          "internalType": "bool",
          "name": "_authorized",
          "type": "bool"
        }
      ],
      "name": "setMinter",
      "outputs": [],
      "stateMutability": "nonpayable",
      "type": "function"
    },
    {
      "inputs": [
        {
          "internalType": "bool",
          "name": "_open",
          "type": "bool"
        }
      ],
      "name": "setOpenMinting",
      "outputs": [],
      "stateMutability": "nonpayable",
      "type": "function"
    },
    {
      "inputs": [
        {
          "internalType": "uint256",
          "name": "_feeBps",
          "type": "uint256"
        }
      ],
      "name": "setPlatformFeeBps",
      "outputs": [],
      "stateMutability": "nonpayable",
      "type": "function"
    },
    {
      "inputs": [
        {
          "internalType": "enum GemBotsNFA.Tier",
          "name": "_tier",
          "type": "uint8"
        },
        {
          "internalType": "string",
          "name": "_baseURI",
          "type": "string"
        }
      ],
      "name": "setTierBaseURI",
      "outputs": [],
      "stateMutability": "nonpayable",
      "type": "function"
    },
    {
      "inputs": [
        {
          "internalType": "uint256",
          "name": "_index",
          "type": "uint256"
        },
        {
          "internalType": "uint256",
          "name": "_threshold",
          "type": "uint256"
        }
      ],
      "name": "setTierThreshold",
      "outputs": [],
      "stateMutability": "nonpayable",
      "type": "function"
    },
    {
      "inputs": [
        {
          "internalType": "address",
          "name": "_treasury",
          "type": "address"
        }
      ],
      "name": "setTreasury",
      "outputs": [],
      "stateMutability": "nonpayable",
      "type": "function"
    },
    {
      "inputs": [
        {
          "internalType": "bytes32",
          "name": "",
          "type": "bytes32"
        },
        {
          "internalType": "uint256",
          "name": "",
          "type": "uint256"
        }
      ],
      "name": "strategyNFAs",
      "outputs": [
        {
          "internalType": "uint256",
          "name": "",
          "type": "uint256"
        }
      ],
      "stateMutability": "view",
      "type": "function"
    },
    {
      "inputs": [
        {
          "internalType": "bytes4",
          "name": "interfaceId",
          "type": "bytes4"
        }
      ],
      "name": "supportsInterface",
      "outputs": [
        {
          "internalType": "bool",
          "name": "",
          "type": "bool"
        }
      ],
      "stateMutability": "view",
      "type": "function"
    },
    {
      "inputs": [],
      "name": "symbol",
      "outputs": [
        {
          "internalType": "string",
          "name": "",
          "type": "string"
        }
      ],
      "stateMutability": "view",
      "type": "function"
    },
    {
      "inputs": [
        {
          "internalType": "enum GemBotsNFA.Tier",
          "name": "",
          "type": "uint8"
        }
      ],
      "name": "tierBaseURIs",
      "outputs": [
        {
          "internalType": "string",
          "name": "",
          "type": "string"
        }
      ],
      "stateMutability": "view",
      "type": "function"
    },
    {
      "inputs": [
        {
          "internalType": "uint256",
          "name": "",
          "type": "uint256"
        }
      ],
      "name": "tierThresholds",
      "outputs": [
        {
          "internalType": "uint256",
          "name": "",
          "type": "uint256"
        }
      ],
      "stateMutability": "view",
      "type": "function"
    },
    {
      "inputs": [
        {
          "internalType": "uint256",
          "name": "tokenId",
          "type": "uint256"
        }
      ],
      "name": "tokenURI",
      "outputs": [
        {
          "internalType": "string",
          "name": "",
          "type": "string"
        }
      ],
      "stateMutability": "view",
      "type": "function"
    },
    {
      "inputs": [],
      "name": "totalSupply",
      "outputs": [
        {
          "internalType": "uint256",
          "name": "",
          "type": "uint256"
        }
      ],
      "stateMutability": "view",
      "type": "function"
    },
    {
      "inputs": [
        {
          "internalType": "address",
          "name": "from",
          "type": "address"
        },
        {
          "internalType": "address",
          "name": "to",
          "type": "address"
        },
        {
          "internalType": "uint256",
          "name": "tokenId",
          "type": "uint256"
        }
      ],
      "name": "transferFrom",
      "outputs": [],
      "stateMutability": "nonpayable",
      "type": "function"
    },
    {
      "inputs": [
        {
          "internalType": "address",
          "name": "newOwner",
          "type": "address"
        }
      ],
      "name": "transferOwnership",
      "outputs": [],
      "stateMutability": "nonpayable",
      "type": "function"
    },
    {
      "inputs": [],
      "name": "treasury",
      "outputs": [
        {
          "internalType": "address",
          "name": "",
          "type": "address"
        }
      ],
      "stateMutability": "view",
      "type": "function"
    },
    {
      "inputs": [],
      "name": "unpause",
      "outputs": [],
      "stateMutability": "nonpayable",
      "type": "function"
    },
    {
      "inputs": [
        {
          "internalType": "uint256",
          "name": "nfaId",
          "type": "uint256"
        },
        {
          "internalType": "string",
          "name": "fullConfig",
          "type": "string"
        }
      ],
      "name": "verifyPrompt",
      "outputs": [
        {
          "internalType": "bool",
          "name": "",
          "type": "bool"
        }
      ],
      "stateMutability": "view",
      "type": "function"
    },
    {
      "inputs": [
        {
          "internalType": "uint256",
          "name": "nfaId",
          "type": "uint256"
        },
        {
          "internalType": "string",
          "name": "fullStrategyJSON",
          "type": "string"
        }
      ],
      "name": "verifyStrategy",
      "outputs": [
        {
          "internalType": "bool",
          "name": "",
          "type": "bool"
        }
      ],
      "stateMutability": "view",
      "type": "function"
    }
  ],
  "bytecode": "0x608034620004565762003052906001600160401b0390601f601f1938859003828101821684019085821185831017620004405780859160409889948552833981010312620004565762000052836200047b565b906200006260208095016200047b565b926200006d6200045b565b91600b83526a47656d426f7473204e464160a81b868401526200008f6200045b565b906005928383526447424e464160d81b8884015284519289841162000440576000938454966001978881811c9116801562000435575b8c821014620004215790818c86859411620003e7575b50508b908583116001146200038457879262000378575b5050600019600383901b1c191690871b1784555b8051928a8411620003645786548781811c9116801562000359575b8b821014620003455790818b8587969594116200030b575b50508a928411600114620002aa575084926200029e575b5050600019600383901b1c191690841b1783555b33156200028757600780546001600160a01b031980821633908117909355986001600160a01b039892909189167f8be0079c531659141344cd1fd0a4f28419497f9722a3daafe3b4186f6b6457e08580a3846008556101f4600d5560fa600e5589519060a08201908282109082111762000273578a52828152600a8282015260328a8201526064606082015260fa608082015287959493929091905b8381106200025a57505050505016801580156200024f575b6200023e5783600b541617600b551690600c541617600c5551612ba89081620004aa8239f35b845163d92e233d60e01b8152600490fd5b508282161562000218565b825160ff16601582015588965091810191840162000200565b634e487b7160e01b84526041600452602484fd5b602490885190631e4fbdf760e01b82526004820152fd5b01519050388062000150565b8786528a862088959093929116865b8c828210620002f45750508411620002da575b505050811b01835562000164565b015160001960f88460031b161c19169055388080620002cc565b8385015186558a97909501949384019301620002b9565b62000333918a895285828a20918189018c1c83019389106200033b575b018a1c019062000490565b388b62000139565b9250819262000328565b634e487b7160e01b86526022600452602486fd5b90607f169062000121565b634e487b7160e01b85526041600452602485fd5b015190503880620000f2565b908c91878b9516898052838a20938a905b828210620003cf5750508411620003b5575b505050811b01845562000106565b015160001960f88460031b161c19169055388080620003a7565b8385015186558d979095019493840193018f62000395565b6200040f9189805287828b20918187018d1c830193871062000417575b018b1c019062000490565b388c620000db565b9250819262000404565b634e487b7160e01b87526022600452602487fd5b90607f1690620000c5565b634e487b7160e01b600052604160045260246000fd5b600080fd5b60408051919082016001600160401b038111838210176200044057604052565b51906001600160a01b03821682036200045657565b8181106200049c575050565b600081556001016200049056fe608080604052600436101561001357600080fd5b60003560e01c90816301ffc9a7146120635750806303a9ebf41461200157806306c8c52514611fd557806306fdde0314611f32578063081812fc14611ef4578063095ea7b314611e0d5780630ccba3e914611dd45780630f96fd7914611d79578063107a274a14611cef57806318160ddd14611cd157806322dcd13e14611cb357806323b872dd14611c9c5780632f6f343a14611c06578063305a67a814611b6957806338446e5f14611a605780633f4ba83a146119f657806342842e0e146119c857806348d34dc31461196e57806357302cd4146119455780635c975abb1461192257806361d027b3146118f95780636352211e146118c957806364cb04ac1461177e5780636963aca8146116725780636ba9fd381461164f57806370a08231146115f6578063715018a6146115995780637bbd9b1e14610feb57806380866d8314610fa45780638456cb5914610f4a5780638a45664e14610ef05780638da5cb5b14610ec757806395d89b4114610de8578063a100d69d14610dbc578063a22cb46514610d11578063b88d4fde14610ca6578063c580c94214610c48578063c87b56dd14610bef578063ca21866a14610ae2578063cf456ae714610a8d578063cfc0cc3414610a14578063d0d7d9c5146109cc578063de74e57b1461097f578063e80d7fec1461086f578063e96c661714610851578063e985e9c5146107fb578063f0f44260146107a1578063f119f5671461063d578063f22f96af14610597578063f2fde38b1461050e578063f46eccc4146104cf5763fa3ec78d1461025b57600080fd5b60203660031901126104ca576004356002600854146104b8576002600855610281612a1c565b806000526012602052604060002060018101805460ff8160a01c16156104a6578254918234106104945760018060a01b0391600083821695556affffffffffffffffffffff60a81b169055612710806102dc600d5485612a7d565b04906102ea600e5485612a7d565b0490856000526011602052826003604060002001541690858214908160001461047b576103178187612a90565b945b3315610462576103298933612606565b8082168061034a57604051637e27328960e01b8152600481018c9052602490fd5b8903610430575060008080938193600b54165af16103666126fd565b50156103f7571580610427575b610409575b5050600080808093865af161038b6126fd565b50156103f7578034116103d7575b7f23f50d55776d8003622a982ade45a6c7f083116c8dbbcd980f59942f440badb1916060916040519182523360208301526040820152a26001600855005b60008080806103e68534612a90565b335af16103f16126fd565b50610399575b6040516312171d8360e31b8152600490fd5b600080809381935af161041a6126fd565b50156103f7573880610378565b50811515610373565b6040516364283d7b60e01b81526001600160a01b038a81166004830152602482018c9052919091166044820152606490fd5b604051633250574960e11b815260006004820152602490fd5b61048e846104898389612a90565b612a90565b94610319565b60405163cd1c886760e01b8152600490fd5b604051630f971cbd60e41b8152600490fd5b604051633ee5aeb560e01b8152600490fd5b600080fd5b346104ca5760203660031901126104ca576001600160a01b036104f061229b565b166000526010602052602060ff604060002054166040519015158152f35b346104ca5760203660031901126104ca5761052761229b565b61052f61244a565b6001600160a01b0390811690811561057e57600754826001600160601b0360a01b821617600755167f8be0079c531659141344cd1fd0a4f28419497f9722a3daafe3b4186f6b6457e0600080a3005b604051631e4fbdf760e01b815260006004820152602490fd5b346104ca576020806003193601126104ca5760043560005260138152604060002060405190818382549182815201908192600052846000209060005b868282106106295786866105e98288038361218c565b604051928392818401908285525180915260408401929160005b82811061061257505050500390f35b835185528695509381019392810192600101610603565b8354855290930192600192830192016105d3565b346104ca576020806003193601126104ca576004359061065b612a1c565b610664826126c2565b508160005260118152604060002090600382019182549260ff8460a01c16916005831015610779576004831461078f5760046106a1910154612a3a565b916005831015610779578211156107675760ff60a01b1990931660a082901b60ff60a01b16179092557fa10b529cca5bc10c80df76c1e97548758a642268270584ae612a37eb0a390c5f916106fd6106f8826120e8565b6121ad565b8051610711575b5060ff60405191168152a2005b6107619061075b8461072288612a9d565b92604051938161073b8693518092868087019101612253565b820161074f82518093868085019101612253565b0103808452018261218c565b856128ea565b84610704565b6040516361c0b9e960e11b8152600490fd5b634e487b7160e01b600052602160045260246000fd5b604051632726a67f60e11b8152600490fd5b346104ca5760203660031901126104ca576107ba61229b565b6107c261244a565b6001600160a01b031680156107e9576001600160601b0360a01b600b541617600b55600080f35b60405163d92e233d60e01b8152600490fd5b346104ca5760403660031901126104ca5761081461229b565b61081c6122b1565b9060018060a01b03809116600052600560205260406000209116600052602052602060ff604060002054166040519015158152f35b346104ca5760003660031901126104ca576020600e54604051908152f35b346104ca5761087d366122d6565b610886826126c2565b6001600160a01b0390339082160361096d576108a0612a1c565b811561095c5782600052601260205260ff60016040600020015460a01c1661094a577f1ea45e30b31292f9d7c5d37d275b2feca555f13f47dce0fdea2f47e8852ecd78916020916040516108f38161213b565b828152838101913383526001604083019281845288600052601287526040600020905181550192511682549160ff60a01b9051151560a01b16916affffffffffffffffffffff60a81b1617179055604051908152a2005b60405163e391255160e01b8152600490fd5b60405162bfc92160e01b8152600490fd5b604051637a50e05760e01b8152600490fd5b346104ca5760203660031901126104ca5760043560005260126020526060604060002060ff6001825492015460405192835260018060a01b038116602084015260a01c1615156040820152f35b346104ca5760203660031901126104ca576109e561229b565b6109ed61244a565b6001600160a01b031680156107e9576001600160601b0360a01b600c541617600c55600080f35b346104ca5760203660031901126104ca57600435610a31816126c2565b506000526011602052610a766040600020610a89600a820154610a62600b610a5b600986016121ad565b94016121ad565b604051948594606086526060860190612276565b9160208501528382036040850152612276565b0390f35b346104ca5760403660031901126104ca57610ae0610aa961229b565b610ab16122c7565b90610aba61244a565b60018060a01b0316600052601060205260406000209060ff801983541691151516179055565b005b346104ca5760203660031901126104ca57600435610aff816126c2565b50600052601160205260406000208054600182015491600381015460048201549160058101549160068201546007830154600884015491600a8501549560028601610b49906121ad565b97610b56600988016121ad565b96600b01610b63906121ad565b986040519b8c9b8c5260208c01526101a08060408d01528b01610b8591612276565b6001600160a01b03871660608c015295610ba99060808c019060a01c60ff1661235d565b60a08a015260c089015260e0880152610100870152610120860152848103610140860152610bd691612276565b90610160840152828103610180840152610a8991612276565b346104ca5760203660031901126104ca57600435610c0c816126c2565b506000526006602052610a89610c2560406000206121ad565b6000604051610c3381612171565b52604051918291602083526020830190612276565b346104ca5760203660031901126104ca57600435610c6461244a565b6103e88111610c7257600d55005b60405162461bcd60e51b815260206004820152600c60248201526b08ccaca40e8dede40d0d2ced60a31b6044820152606490fd5b346104ca5760803660031901126104ca57610cbf61229b565b610cc76122b1565b90604435606435926001600160401b0384116104ca57366023850112156104ca57610cff610ae0943690602481600401359101612413565b92610d0b838383612476565b3361272d565b346104ca5760403660031901126104ca57610d2a61229b565b610d326122c7565b6001600160a01b03909116908115610da357336000526005602052604060002082600052602052610d738160406000209060ff801983541691151516179055565b60405190151581527f17307eab39ab6107e8899845ad3d59bd9653f200f220920489ca2b5937696c3160203392a3005b604051630b61174360e31b815260048101839052602490fd5b346104ca5760203660031901126104ca5760043560058110156104ca5760209060150154604051908152f35b346104ca5760003660031901126104ca5760405160006001805490610e0c82612101565b80855291818116908115610ea05750600114610e47575b610a8984610e338186038261218c565b604051918291602083526020830190612276565b600081815292507fb10e2d527612073b26eecdfd717e6a320cf44b4afac2b0732d9fcbe2b7fa0cf65b828410610e88575050508101602001610e3382610e23565b80546020858701810191909152909301928101610e70565b60ff191660208087019190915292151560051b85019092019250610e339150839050610e23565b346104ca5760003660031901126104ca576007546040516001600160a01b039091168152602090f35b346104ca576020610f0036612397565b610f09836126c2565b50610f2d84604051838194838301968737810160008382015203808452018261218c565b519020906000526011825260016040600020015414604051908152f35b346104ca5760003660031901126104ca57610f6361244a565b610f6b612a1c565b600160ff1960095416176009557f62e78cea01bee320cd4e420270b5ea74000d11b0c9f74754ebdbfc544b05a2586020604051338152a1005b346104ca5760403660031901126104ca576024356004356000526013602052604060002080548210156104ca57602091610fdd916123ca565b90546040519160031b1c8152f35b346104ca5760c03660031901126104ca576044356001600160401b0381116104ca5761101b90369060040161236a565b6064356001600160401b0381116104ca5761103a90369060040161236a565b92909160a4356001600160401b0381116104ca5761105c90369060040161236a565b939060ff600f54161580611580575b8061156b575b6115595761107d612a1c565b600a549461108a86612850565b600a5560405161109981612171565b600081523315610462576001600160a01b036110b58833612606565b1661154057333b611453575b508560005260116020526040600020600435815560243560018201556001600160401b0385116112d557611105856110fc6002840154612101565b60028401612875565b846000601f82116001146113e5576000916113da575b508560011b906000198760031b1c19161760028201555b6003810180546001600160a81b0319163360ff60a01b19161790556001600160401b0388116112d5576111758861116c6009840154612101565b60098401612875565b876000601f821160011461136c57600091611361575b508860011b906000198a60031b1c19161760098201555b608435600a8201556001600160401b0382116112d557600b829101926111d2826111cc8654612101565b86612875565b600090601f83116001146112f6576000926112eb575b50508160011b916000199060031b1c19161790555b6084356000526013602052604060002094855495680100000000000000008710156112d55761075b86957fe94ebda66cc86267dbc220471b245eb48bf72f9861949e412199792eb5e8aeb09561125e8a61127a95600160209d0181556123ca565b81549060031b908a821b91600019901b19161790553691612413565b60405160243581523390857f185852973b7140be2b3183c0cbf9f05be2bdf3d4cd9379625deb18590b65f5388960043593a46112c36040519283926040845260408401916128c9565b608435878301520390a2604051908152f35b634e487b7160e01b600052604160045260246000fd5b0135905088806111e8565b909150601f198316918460005260206000209260005b818110611349575090846001959493921061132f575b505050811b0190556111fd565b0135600019600384901b60f8161c19169055888080611322565b9193602060018192878701358155019501920161130c565b90508401358961118b565b90506009820160005260206000209060005b601f198b1681106113c2575089601f198116106113a8575b5050600188811b0160098201556111a2565b85013560001960038b901b60f8161c191690558880611396565b9091602060018192858a01358155019301910161137e565b90508601358961111b565b9050601f19861690600283016000528660206000209260005b81811061143857501061141e575b5050600185811b016002820155611132565b870135600019600388901b60f8161c19169055888061140c565b8a84013585556001909401936020938401938a9350016113fe565b6040516020818061148d630a85bd0160e11b95868352336004840152600060248401528c6044840152608060648401526084830190612276565b03816000335af1600091816114fc575b506114cf576114aa6126fd565b805190816114ca57604051633250574960e11b8152336004820152602490fd5b602001fd5b6001600160e01b031916036114e457876110c1565b604051633250574960e11b8152336004820152602490fd5b9091506020813d8211611538575b816115176020938361218c565b810103126104ca57516001600160e01b0319811681036104ca57908a61149d565b3d915061150a565b6040516339e3563760e11b815260006004820152602490fd5b604051633e34a41b60e21b8152600490fd5b506007546001600160a01b0316331415611071565b5033600052601060205260ff604060002054161561106b565b346104ca5760003660031901126104ca576115b261244a565b600780546001600160a01b031981169091556000906001600160a01b03167f8be0079c531659141344cd1fd0a4f28419497f9722a3daafe3b4186f6b6457e08280a3005b346104ca5760203660031901126104ca576001600160a01b0361161761229b565b1680156116365760005260036020526020604060002054604051908152f35b6040516322718ad960e21b815260006004820152602490fd5b346104ca5760003660031901126104ca57602060ff600f54166040519015158152f35b346104ca5760403660031901126104ca5760043560058110156104ca576001600160401b036024358181116104ca576116b26116c291369060040161236a565b9190936116bd61244a565b6120e8565b9181116112d5576116dd816116d78454612101565b84612875565b6000601f82116001146117185781929360009261170d575b5050600019600383901b1c191660019190911b179055005b0135905083806116f5565b601f198216938360005260209182600020926000905b87821061176657505083600195961061174c575b505050811b019055005b0135600019600384901b60f8161c19169055838080611742565b8060018496829495870135815501950192019061172e565b346104ca5760803660031901126104ca576004356044358015156024358183036104ca576064356001600160401b0381116104ca576117c190369060040161236a565b600c54909491906001600160a01b031633036118b7577fee6088724bcecc2617103f0482e6237c070827162ab05c426ea5b173785dec989461188d92611805612a1c565b61180e886126c2565b50611818856126c2565b5087600052601160205260406000209060048201906006830161183b8154612850565b90551561189a5761184c8154612850565b90556008600782019161185f8354612850565b8093550180548211611892575b50505b604051948594855260208501526060604085015260608401916128c9565b0390a2005b55878061186c565b506007816005600093016118ae8154612850565b9055015561186f565b604051631d9d6ea960e31b8152600490fd5b346104ca5760203660031901126104ca5760206118e76004356126c2565b6040516001600160a01b039091168152f35b346104ca5760003660031901126104ca57600b546040516001600160a01b039091168152602090f35b346104ca5760003660031901126104ca57602060ff600954166040519015158152f35b346104ca5760003660031901126104ca57600c546040516001600160a01b039091168152602090f35b346104ca57602061197e36612397565b611987836126c2565b506119ab84604051838194838301968737810160008382015203808452018261218c565b5190209060005260118252600a6040600020015414604051908152f35b346104ca57610ae06119d9366122ec565b90604051926119e784612171565b60008452610d0b838383612476565b346104ca5760003660031901126104ca57611a0f61244a565b60095460ff811615611a4e5760ff19166009557f5db9ee0a495bf2e6ff9c91a7834c1ba4fdd244a5e8aa4e537bd38aeae4b073aa6020604051338152a1005b604051638dfc202b60e01b8152600490fd5b346104ca5760203660031901126104ca57600435600052601160205260406000208054610a89600183015492611a98600282016121ad565b611b546003830154611aac60048501612321565b611b46611abb600987016121ad565b91611b14611af4611ad3600b600a8b01549a016121ad565b976040519c8d9c8d5260208d015260408c6101a091829101528c0190612276565b6001600160a01b03861660608c01529460808b019060a01c60ff1661235d565b805160a08a0152602081015160c08a0152604081015160e08a015260608101516101008a015260800151610120890152565b868203610140880152612276565b91610160850152838203610180850152612276565b346104ca5760203660031901126104ca57600435611b86816126c2565b336001600160a01b039091160361096d5780600052601260205260ff60016040600020015460a01c16156104a657806000526012602052604060002060018101906000825491556affffffffffffffffffffff60a81b1690557f411aee90354c51b1b04cd563fcab2617142a9d50da19232d888547c8a1b7fd8a600080a2005b346104ca5760203660031901126104ca5760043560006080604051611c2a81612156565b8281528260208201528260408201528260608201520152611c4a816126c2565b50600052601160205260a0611c656004604060002001612321565b611c9a604051809260808091805184526020810151602085015260408101516040850152606081015160608501520151910152565bf35b346104ca57610ae0611cad366122ec565b91612476565b346104ca5760003660031901126104ca576020600d54604051908152f35b346104ca5760003660031901126104ca576020600a54604051908152f35b346104ca5760203660031901126104ca57600060408051611d0f8161213b565b8281528260208201520152600435600052601260205260606040600020604051611d388161213b565b60018254928383520154906020810160ff604060018060a01b03938486168452019360a01c1615158352604051938452511660208301525115156040820152f35b346104ca57611d87366122d6565b90611d9061244a565b6005811015611d9f5760150155005b60405162461bcd60e51b815260206004820152600d60248201526c092dcecc2d8d2c840d2dcc8caf609b1b6044820152606490fd5b346104ca5760203660031901126104ca576004358015158091036104ca57611dfa61244a565b60ff8019600f5416911617600f55600080f35b346104ca5760403660031901126104ca57611e2661229b565b602435611e32816126c2565b33151580611ee1575b80611eb4575b611e9c576001600160a01b039283169282918491167f8c5be1e5ebec7d5bd14f71427d1e84f3dd0314c0f7b2291e5b200ac8c7c3b925600080a4600090815260046020526040902080546001600160a01b0319169091179055005b60405163a9fbf51f60e01b8152336004820152602490fd5b5060018060a01b038116600052600560205260406000203360005260205260ff6040600020541615611e41565b506001600160a01b038116331415611e3b565b346104ca5760203660031901126104ca57600435611f11816126c2565b506000526004602052602060018060a01b0360406000205416604051908152f35b346104ca5760003660031901126104ca5760405160008054611f5381612101565b80845290600190818116908115610ea05750600114611f7c57610a8984610e338186038261218c565b600080805292507f290decd9548b62a8d60345a988386fc84ba6bc95484008f6362f93160ef3e5635b828410611fbd575050508101602001610e3382610e23565b80546020858701810191909152909301928101611fa5565b346104ca5760203660031901126104ca5760043560058110156104ca57610e336106f8610a89926120e8565b346104ca5760203660031901126104ca5760043561201d61244a565b6103e8811161202b57600e55005b60405162461bcd60e51b815260206004820152601060248201526f0a4def2c2d8e8f240e8dede40d0d2ced60831b6044820152606490fd5b346104ca5760203660031901126104ca576004359063ffffffff60e01b82168092036104ca57602091632483248360e11b81149081156120a5575b5015158152f35b6380ac58cd60e01b8114915081156120d7575b81156120c6575b508361209e565b6301ffc9a760e01b149050836120bf565b635b5e139f60e01b811491506120b8565b6005811015610779576000526014602052604060002090565b90600182811c92168015612131575b602083101461211b57565b634e487b7160e01b600052602260045260246000fd5b91607f1691612110565b606081019081106001600160401b038211176112d557604052565b60a081019081106001600160401b038211176112d557604052565b602081019081106001600160401b038211176112d557604052565b90601f801991011681019081106001600160401b038211176112d557604052565b90604051918260008254926121c184612101565b90818452600194858116908160001461223057506001146121ed575b50506121eb9250038361218c565b565b9093915060005260209081600020936000915b8183106122185750506121eb935082010138806121dd565b85548884018501529485019487945091830191612200565b9150506121eb94506020925060ff191682840152151560051b82010138806121dd565b60005b8381106122665750506000910152565b8181015183820152602001612256565b9060209161228f81518092818552858086019101612253565b601f01601f1916010190565b600435906001600160a01b03821682036104ca57565b602435906001600160a01b03821682036104ca57565b6024359081151582036104ca57565b60409060031901126104ca576004359060243590565b60609060031901126104ca576001600160a01b039060043582811681036104ca579160243590811681036104ca579060443590565b9060405161232e81612156565b608060048294805484526001810154602085015260028101546040850152600381015460608501520154910152565b9060058210156107795752565b9181601f840112156104ca578235916001600160401b0383116104ca57602083818601950101116104ca57565b9060406003198301126104ca5760043591602435906001600160401b0382116104ca576123c69160040161236a565b9091565b80548210156123e25760005260206000200190600090565b634e487b7160e01b600052603260045260246000fd5b6001600160401b0381116112d557601f01601f191660200190565b92919261241f826123f8565b9161242d604051938461218c565b8294818452818301116104ca578281602093846000960137010152565b6007546001600160a01b0316330361245e57565b60405163118cdaa760e01b8152336004820152602490fd5b906001600160a01b03908116801561046257600091848352846020926002845260409383858720541695869133151580612570575b509060027fddf252ad1be2c89b69c2b068fc378daa952ba7f163c4a11628f55a4df523b3ef928461253d575b85835260038152888320805460010190558683525286812080546001600160a01b0319168517905580a48316820361250f5750505050565b516364283d7b60e01b81526001600160a01b0392831660048201526024810193909352166044820152606490fd5b600087815260046020526040902080546001600160a01b03191690558483526003815288832080546000190190556124d7565b919394509150806125c5575b1561258c578792918691386124ab565b8488876125a9576024915190637e27328960e01b82526004820152fd5b604491519063177e802f60e01b82523360048301526024820152fd5b5033861480156125ea575b8061257c575087825260048152338486842054161461257c565b5085825260058152848220338352815260ff85832054166125d0565b6000828152600260205260408120546001600160a01b03908116939284917fddf252ad1be2c89b69c2b068fc378daa952ba7f163c4a11628f55a4df523b3ef918361268d575b169283612675575b84815260026020526040812080546001600160a01b0319168517905580a490565b83815260036020526040812060018154019055612654565b600086815260046020526040902080546001600160a01b0319169055838552600360205260408520805460001901905561264c565b6000818152600260205260409020546001600160a01b03169081156126e5575090565b60249060405190637e27328960e01b82526004820152fd5b3d15612728573d9061270e826123f8565b9161271c604051938461218c565b82523d6000602084013e565b606090565b9293823b61273d575b5050505050565b6127819060018060a01b038094169560405194859481630a85bd0160e11b988988521660048701521660248501526044840152608060648401526084830190612276565b03906020816000938185885af190829082612801575b50506127cf57826127a66126fd565b80519190826127c857604051633250574960e11b815260048101839052602490fd5b6020915001fd5b6001600160e01b031916036127e957503880808080612736565b60249060405190633250574960e11b82526004820152fd5b909192506020813d8211612848575b8161281d6020938361218c565b810103126128445751906001600160e01b0319821682036128415750903880612797565b80fd5b5080fd5b3d9150612810565b600019811461285f5760010190565b634e487b7160e01b600052601160045260246000fd5b90601f811161288357505050565b600091825260208220906020601f850160051c830194106128bf575b601f0160051c01915b8281106128b457505050565b8181556001016128a8565b909250829061289f565b908060209392818452848401376000828201840152601f01601f1916010190565b9190916000908082526020916006835260408120908551906001600160401b038211612a08576129248261291e8554612101565b85612875565b8490601f831160011461298457907ff8e1a15aba9398e019f0b49df1a4fde98ee17ae345cb5f6b5e2c27f5033e8ce7969783612979575b50508160011b916000199060031b1c19161790555b604051908152a1565b01519050388061295b565b9196601f198816848452868420935b8181106129f157509160019391897ff8e1a15aba9398e019f0b49df1a4fde98ee17ae345cb5f6b5e2c27f5033e8ce7999a94106129d8575b505050811b019055612970565b015160001960f88460031b161c191690553880806129cb565b929387600181928786015181550195019301612993565b634e487b7160e01b81526041600452602490fd5b60ff60095416612a2857565b60405163d93c066560e01b8152600490fd5b601954811015612a7757601854811015612a7157601754811015612a6b576016541115612a6657600090565b600190565b50600290565b50600390565b50600490565b8181029291811591840414171561285f57565b9190820391821161285f57565b8015612b4457600081805b612b305750612ab6816123f8565b90612ac4604051928361218c565b808252601f19612ad3826123f8565b013660208401375b80928015612b2957600019820191821161285f578193600a92603090848406820180921161285f57855111156123e25760f81b6001600160f81b03191660001a908401601f01530491612adb565b5050905090565b90612b3c600a91612850565b910480612aa8565b50604051604081018181106001600160401b038211176112d55760405260018152600360fc1b60208201529056fea26469706673582212208a0c6ae71eb4a8f2aa054f82eefdafd7364aa80b7672bbda0ecc9668a9fd452964736f6c63430008140033",
  "linkReferences": {},
  "deployedLinkReferences": {}
}