{
  "_format": "hh-sol-artifact-1",
  "contractName": "GemBotsBetting",
  "sourceName": "contracts/GemBotsBetting.sol",
  "abi": [
    {
      "inputs": [],
      "name": "ReentrancyGuardReentrantCall",
      "type": "error"
    },
    {
      "anonymous": false,
      "inputs": [
        {
          "indexed": true,
          "internalType": "bytes32",
          "name": "poolId",
          "type": "bytes32"
        },
        {
          "indexed": true,
          "internalType": "address",
          "name": "bettor",
          "type": "address"
        },
        {
          "indexed": false,
          "internalType": "enum GemBotsBetting.Side",
          "name": "side",
          "type": "uint8"
        },
        {
          "indexed": false,
          "internalType": "uint256",
          "name": "amount",
          "type": "uint256"
        }
      ],
      "name": "BetPlaced",
      "type": "event"
    },
    {
      "anonymous": false,
      "inputs": [
        {
          "indexed": true,
          "internalType": "bytes32",
          "name": "poolId",
          "type": "bytes32"
        },
        {
          "indexed": true,
          "internalType": "address",
          "name": "bettor",
          "type": "address"
        },
        {
          "indexed": false,
          "internalType": "uint256",
          "name": "payout",
          "type": "uint256"
        }
      ],
      "name": "Claimed",
      "type": "event"
    },
    {
      "anonymous": false,
      "inputs": [
        {
          "indexed": true,
          "internalType": "address",
          "name": "newOwner",
          "type": "address"
        },
        {
          "indexed": true,
          "internalType": "address",
          "name": "newTreasury",
          "type": "address"
        },
        {
          "indexed": false,
          "internalType": "uint16",
          "name": "newFeeBps",
          "type": "uint16"
        }
      ],
      "name": "ConfigUpdated",
      "type": "event"
    },
    {
      "anonymous": false,
      "inputs": [
        {
          "indexed": true,
          "internalType": "bytes32",
          "name": "poolId",
          "type": "bytes32"
        },
        {
          "indexed": true,
          "internalType": "address",
          "name": "treasury",
          "type": "address"
        },
        {
          "indexed": false,
          "internalType": "uint256",
          "name": "amount",
          "type": "uint256"
        }
      ],
      "name": "FeesCollected",
      "type": "event"
    },
    {
      "anonymous": false,
      "inputs": [
        {
          "indexed": true,
          "internalType": "address",
          "name": "owner",
          "type": "address"
        },
        {
          "indexed": true,
          "internalType": "address",
          "name": "treasury",
          "type": "address"
        },
        {
          "indexed": false,
          "internalType": "uint16",
          "name": "feeBps",
          "type": "uint16"
        }
      ],
      "name": "Initialized",
      "type": "event"
    },
    {
      "anonymous": false,
      "inputs": [
        {
          "indexed": true,
          "internalType": "bytes32",
          "name": "poolId",
          "type": "bytes32"
        }
      ],
      "name": "PoolCancelled",
      "type": "event"
    },
    {
      "anonymous": false,
      "inputs": [
        {
          "indexed": true,
          "internalType": "bytes32",
          "name": "poolId",
          "type": "bytes32"
        },
        {
          "indexed": false,
          "internalType": "string",
          "name": "matchId",
          "type": "string"
        },
        {
          "indexed": false,
          "internalType": "string",
          "name": "botAName",
          "type": "string"
        },
        {
          "indexed": false,
          "internalType": "string",
          "name": "botBName",
          "type": "string"
        },
        {
          "indexed": false,
          "internalType": "uint16",
          "name": "feeBps",
          "type": "uint16"
        }
      ],
      "name": "PoolCreated",
      "type": "event"
    },
    {
      "anonymous": false,
      "inputs": [
        {
          "indexed": true,
          "internalType": "bytes32",
          "name": "poolId",
          "type": "bytes32"
        }
      ],
      "name": "PoolLocked",
      "type": "event"
    },
    {
      "anonymous": false,
      "inputs": [
        {
          "indexed": true,
          "internalType": "bytes32",
          "name": "poolId",
          "type": "bytes32"
        },
        {
          "indexed": false,
          "internalType": "enum GemBotsBetting.Side",
          "name": "winner",
          "type": "uint8"
        },
        {
          "indexed": false,
          "internalType": "uint256",
          "name": "poolA",
          "type": "uint256"
        },
        {
          "indexed": false,
          "internalType": "uint256",
          "name": "poolB",
          "type": "uint256"
        }
      ],
      "name": "PoolResolved",
      "type": "event"
    },
    {
      "anonymous": false,
      "inputs": [
        {
          "indexed": true,
          "internalType": "bytes32",
          "name": "poolId",
          "type": "bytes32"
        },
        {
          "indexed": true,
          "internalType": "address",
          "name": "bettor",
          "type": "address"
        },
        {
          "indexed": false,
          "internalType": "uint256",
          "name": "amount",
          "type": "uint256"
        }
      ],
      "name": "RefundClaimed",
      "type": "event"
    },
    {
      "stateMutability": "payable",
      "type": "fallback"
    },
    {
      "inputs": [],
      "name": "MAX_BET",
      "outputs": [
        {
          "internalType": "uint256",
          "name": "",
          "type": "uint256"
        }
      ],
      "stateMutability": "view",
      "type": "function"
    },
    {
      "inputs": [],
      "name": "MAX_FEE_BPS",
      "outputs": [
        {
          "internalType": "uint16",
          "name": "",
          "type": "uint16"
        }
      ],
      "stateMutability": "view",
      "type": "function"
    },
    {
      "inputs": [],
      "name": "MIN_BET",
      "outputs": [
        {
          "internalType": "uint256",
          "name": "",
          "type": "uint256"
        }
      ],
      "stateMutability": "view",
      "type": "function"
    },
    {
      "inputs": [
        {
          "internalType": "bytes32",
          "name": "",
          "type": "bytes32"
        },
        {
          "internalType": "address",
          "name": "",
          "type": "address"
        }
      ],
      "name": "bets",
      "outputs": [
        {
          "internalType": "enum GemBotsBetting.Side",
          "name": "side",
          "type": "uint8"
        },
        {
          "internalType": "uint256",
          "name": "amount",
          "type": "uint256"
        },
        {
          "internalType": "bool",
          "name": "claimed",
          "type": "bool"
        },
        {
          "internalType": "uint256",
          "name": "payout",
          "type": "uint256"
        },
        {
          "internalType": "uint256",
          "name": "timestamp",
          "type": "uint256"
        },
        {
          "internalType": "bool",
          "name": "exists",
          "type": "bool"
        }
      ],
      "stateMutability": "view",
      "type": "function"
    },
    {
      "inputs": [
        {
          "internalType": "bytes32",
          "name": "_poolId",
          "type": "bytes32"
        }
      ],
      "name": "cancel",
      "outputs": [],
      "stateMutability": "nonpayable",
      "type": "function"
    },
    {
      "inputs": [
        {
          "internalType": "bytes32",
          "name": "_poolId",
          "type": "bytes32"
        }
      ],
      "name": "claim",
      "outputs": [],
      "stateMutability": "nonpayable",
      "type": "function"
    },
    {
      "inputs": [
        {
          "internalType": "bytes32",
          "name": "_poolId",
          "type": "bytes32"
        }
      ],
      "name": "claimRefund",
      "outputs": [],
      "stateMutability": "nonpayable",
      "type": "function"
    },
    {
      "inputs": [
        {
          "internalType": "bytes32",
          "name": "_poolId",
          "type": "bytes32"
        }
      ],
      "name": "collectFees",
      "outputs": [],
      "stateMutability": "nonpayable",
      "type": "function"
    },
    {
      "inputs": [
        {
          "internalType": "string",
          "name": "_matchId",
          "type": "string"
        },
        {
          "internalType": "string",
          "name": "_botAName",
          "type": "string"
        },
        {
          "internalType": "string",
          "name": "_botBName",
          "type": "string"
        },
        {
          "internalType": "uint16",
          "name": "_customFeeBps",
          "type": "uint16"
        }
      ],
      "name": "createPool",
      "outputs": [],
      "stateMutability": "nonpayable",
      "type": "function"
    },
    {
      "inputs": [],
      "name": "defaultFeeBps",
      "outputs": [
        {
          "internalType": "uint16",
          "name": "",
          "type": "uint16"
        }
      ],
      "stateMutability": "view",
      "type": "function"
    },
    {
      "inputs": [
        {
          "internalType": "bytes32",
          "name": "_poolId",
          "type": "bytes32"
        },
        {
          "internalType": "address",
          "name": "_bettor",
          "type": "address"
        }
      ],
      "name": "getBet",
      "outputs": [
        {
          "components": [
            {
              "internalType": "enum GemBotsBetting.Side",
              "name": "side",
              "type": "uint8"
            },
            {
              "internalType": "uint256",
              "name": "amount",
              "type": "uint256"
            },
            {
              "internalType": "bool",
              "name": "claimed",
              "type": "bool"
            },
            {
              "internalType": "uint256",
              "name": "payout",
              "type": "uint256"
            },
            {
              "internalType": "uint256",
              "name": "timestamp",
              "type": "uint256"
            },
            {
              "internalType": "bool",
              "name": "exists",
              "type": "bool"
            }
          ],
          "internalType": "struct GemBotsBetting.Bet",
          "name": "",
          "type": "tuple"
        }
      ],
      "stateMutability": "view",
      "type": "function"
    },
    {
      "inputs": [
        {
          "internalType": "bytes32",
          "name": "_poolId",
          "type": "bytes32"
        }
      ],
      "name": "getPool",
      "outputs": [
        {
          "components": [
            {
              "internalType": "address",
              "name": "authority",
              "type": "address"
            },
            {
              "internalType": "string",
              "name": "matchId",
              "type": "string"
            },
            {
              "internalType": "string",
              "name": "botAName",
              "type": "string"
            },
            {
              "internalType": "string",
              "name": "botBName",
              "type": "string"
            },
            {
              "internalType": "uint256",
              "name": "poolA",
              "type": "uint256"
            },
            {
              "internalType": "uint256",
              "name": "poolB",
              "type": "uint256"
            },
            {
              "internalType": "uint32",
              "name": "totalBets",
              "type": "uint32"
            },
            {
              "internalType": "enum GemBotsBetting.PoolStatus",
              "name": "status",
              "type": "uint8"
            },
            {
              "internalType": "enum GemBotsBetting.Side",
              "name": "winner",
              "type": "uint8"
            },
            {
              "internalType": "bool",
              "name": "hasWinner",
              "type": "bool"
            },
            {
              "internalType": "uint16",
              "name": "feeBps",
              "type": "uint16"
            },
            {
              "internalType": "uint256",
              "name": "createdAt",
              "type": "uint256"
            },
            {
              "internalType": "uint256",
              "name": "resolvedAt",
              "type": "uint256"
            },
            {
              "internalType": "bool",
              "name": "feesCollected",
              "type": "bool"
            },
            {
              "internalType": "bool",
              "name": "exists",
              "type": "bool"
            }
          ],
          "internalType": "struct GemBotsBetting.Pool",
          "name": "",
          "type": "tuple"
        }
      ],
      "stateMutability": "view",
      "type": "function"
    },
    {
      "inputs": [],
      "name": "getPoolCount",
      "outputs": [
        {
          "internalType": "uint256",
          "name": "",
          "type": "uint256"
        }
      ],
      "stateMutability": "view",
      "type": "function"
    },
    {
      "inputs": [
        {
          "internalType": "string",
          "name": "_matchId",
          "type": "string"
        }
      ],
      "name": "getPoolId",
      "outputs": [
        {
          "internalType": "bytes32",
          "name": "",
          "type": "bytes32"
        }
      ],
      "stateMutability": "pure",
      "type": "function"
    },
    {
      "inputs": [
        {
          "internalType": "address",
          "name": "_treasury",
          "type": "address"
        },
        {
          "internalType": "uint16",
          "name": "_feeBps",
          "type": "uint16"
        }
      ],
      "name": "initialize",
      "outputs": [],
      "stateMutability": "nonpayable",
      "type": "function"
    },
    {
      "inputs": [],
      "name": "initialized",
      "outputs": [
        {
          "internalType": "bool",
          "name": "",
          "type": "bool"
        }
      ],
      "stateMutability": "view",
      "type": "function"
    },
    {
      "inputs": [
        {
          "internalType": "bytes32",
          "name": "_poolId",
          "type": "bytes32"
        }
      ],
      "name": "lockPool",
      "outputs": [],
      "stateMutability": "nonpayable",
      "type": "function"
    },
    {
      "inputs": [],
      "name": "owner",
      "outputs": [
        {
          "internalType": "address",
          "name": "",
          "type": "address"
        }
      ],
      "stateMutability": "view",
      "type": "function"
    },
    {
      "inputs": [
        {
          "internalType": "bytes32",
          "name": "_poolId",
          "type": "bytes32"
        },
        {
          "internalType": "enum GemBotsBetting.Side",
          "name": "_side",
          "type": "uint8"
        }
      ],
      "name": "placeBet",
      "outputs": [],
      "stateMutability": "payable",
      "type": "function"
    },
    {
      "inputs": [
        {
          "internalType": "uint256",
          "name": "",
          "type": "uint256"
        }
      ],
      "name": "poolIds",
      "outputs": [
        {
          "internalType": "bytes32",
          "name": "",
          "type": "bytes32"
        }
      ],
      "stateMutability": "view",
      "type": "function"
    },
    {
      "inputs": [
        {
          "internalType": "bytes32",
          "name": "",
          "type": "bytes32"
        }
      ],
      "name": "pools",
      "outputs": [
        {
          "internalType": "address",
          "name": "authority",
          "type": "address"
        },
        {
          "internalType": "string",
          "name": "matchId",
          "type": "string"
        },
        {
          "internalType": "string",
          "name": "botAName",
          "type": "string"
        },
        {
          "internalType": "string",
          "name": "botBName",
          "type": "string"
        },
        {
          "internalType": "uint256",
          "name": "poolA",
          "type": "uint256"
        },
        {
          "internalType": "uint256",
          "name": "poolB",
          "type": "uint256"
        },
        {
          "internalType": "uint32",
          "name": "totalBets",
          "type": "uint32"
        },
        {
          "internalType": "enum GemBotsBetting.PoolStatus",
          "name": "status",
          "type": "uint8"
        },
        {
          "internalType": "enum GemBotsBetting.Side",
          "name": "winner",
          "type": "uint8"
        },
        {
          "internalType": "bool",
          "name": "hasWinner",
          "type": "bool"
        },
        {
          "internalType": "uint16",
          "name": "feeBps",
          "type": "uint16"
        },
        {
          "internalType": "uint256",
          "name": "createdAt",
          "type": "uint256"
        },
        {
          "internalType": "uint256",
          "name": "resolvedAt",
          "type": "uint256"
        },
        {
          "internalType": "bool",
          "name": "feesCollected",
          "type": "bool"
        },
        {
          "internalType": "bool",
          "name": "exists",
          "type": "bool"
        }
      ],
      "stateMutability": "view",
      "type": "function"
    },
    {
      "inputs": [
        {
          "internalType": "bytes32",
          "name": "_poolId",
          "type": "bytes32"
        },
        {
          "internalType": "enum GemBotsBetting.Side",
          "name": "_winner",
          "type": "uint8"
        }
      ],
      "name": "resolve",
      "outputs": [],
      "stateMutability": "nonpayable",
      "type": "function"
    },
    {
      "inputs": [],
      "name": "treasury",
      "outputs": [
        {
          "internalType": "address",
          "name": "",
          "type": "address"
        }
      ],
      "stateMutability": "view",
      "type": "function"
    },
    {
      "inputs": [
        {
          "internalType": "address",
          "name": "_newTreasury",
          "type": "address"
        },
        {
          "internalType": "uint16",
          "name": "_newFeeBps",
          "type": "uint16"
        },
        {
          "internalType": "address",
          "name": "_newOwner",
          "type": "address"
        }
      ],
      "name": "updateConfig",
      "outputs": [],
      "stateMutability": "nonpayable",
      "type": "function"
    },
    {
      "stateMutability": "payable",
      "type": "receive"
    }
  ],
  "bytecode": "0x6080806040523461001b5760016000556122d290816100218239f35b600080fdfe6080806040526004361015610090575b5036156100535760405162461bcd60e51b815260206004820152601560248201527411d95b509bdd1cce881a5b9d985b1a590818d85b1b605a1b6044820152606490fd5b60405162461bcd60e51b815260206004820152601560248201527411d95b509bdd1cce881d5cd9481c1b1858d950995d605a1b6044820152606490fd5b60003560e01c908163084c3c5714611c31575080630e52bb4914611a25578063158ef93e146119ff57806328ee2936146118b6578063448c72f61461185557806356233993146111c957806361d027b3146111a05780636540742f1461117e57806369883b4e1461114757806371de2ffc14610f895780637dd4de9f14610e6f5780637e95b52314610e4c578063817db73b14610c7b5780638da5cb5b14610c525780638eec5d7014610c345780638f6e689b14610ba1578063b5217bb414610a6c578063bbca6c24146109b9578063bcae25a414610994578063bd66528a146106c5578063c4d252f5146105c4578063d55be8c6146105a7578063f39e69a4146104625763f6c00927146101a5573861000f565b3461045d57602036600319011261045d5760043560006101c06040516101ca81611ed0565b82815260606020820152606060408201526060808201528260808201528260a08201528260c08201528260e08201528261010082015282610120820152826101408201528261016082015282610180820152826101a0820152015280600052600360205261024560ff60096040600020015460081c166120f4565b600052600360205260406000206040519061025f82611ed0565b80546001600160a01b0316825261027860018201611f0f565b602083015261028960028201611f0f565b604083015261029a60038201611f0f565b606083015260048101546080830152600581015460a0830152600681015463ffffffff811660c0840152600460ff8260201c1610156104475760ff9161ffff828460099460201c1660e08701526102fa858260281c166101008801612290565b848160301c16151561012087015260381c1661014085015260078101546101608501526008810154610180850152015481811615156101a084015260081c1615156101c082015260405180916020825260018060a01b0381511660208301526101c06103ab61037a60208401516101e06040870152610200860190611fb5565b610396604085015191601f199283888303016060890152611fb5565b90606085015190868303016080870152611fb5565b91608081015160a085015260a081015160c085015263ffffffff60c08201511660e08501526103e360e0820151610100860190611ff5565b6103f7610100820151610120860190611dc2565b610120810151151561014085015261ffff610140820151166101608501526101608101516101808501526101808101516101a08501526101a0810151151582850152015115156101e08301520390f35b634e487b7160e01b600052602160045260246000fd5b600080fd5b3461045d57604036600319011261045d5761047b611dac565b610483611e1c565b6002549160ff8360b01c16610562576001600160a01b03169182156105245761ffff8216916104b66107d0841115612002565b336bffffffffffffffffffffffff60a01b600154161760015583600160b01b9268ffffffffffffffffff60b81b16179061ffff60a01b9060a01b1617176002556040519081527f3baf8a7761d4143418f40b428a5dbe9aabd28f403e9928f65795a38d436e8c6c60203392a3005b60405162461bcd60e51b815260206004820152601660248201527547656d426f74733a207a65726f20747265617375727960501b6044820152606490fd5b60405162461bcd60e51b815260206004820152601c60248201527f47656d426f74733a20616c726561647920696e697469616c697a6564000000006044820152606490fd5b3461045d57600036600319011261045d5760206040516107d08152f35b3461045d57602036600319011261045d576004356105ed60018060a01b03600154163314612046565b6105fe60ff60025460b01c16612087565b8060005260036020526006604060002061062160ff600983015460081c166120f4565b01805460ff8160201c1660048110156104475780159081156106ba575b501561067c5764ff0000000019166403000000001790557f0a4fc39c342ef62ceac7bd5b9918bda82e75923c013f016d15aeb028dad999be600080a2005b60405162461bcd60e51b815260206004820152601660248201527511d95b509bdd1cce8818d85b9b9bdd0818d85b98d95b60521b6044820152606490fd5b60019150148461063e565b3461045d5760208060031936011261045d576004356106e261226d565b60ff916106f58360025460b01c16612087565b816000526003815260406000209261071581600986015460081c166120f4565b6006840154938185841c1660048110156104475760026107359114612192565b818560301c161561095657836000526004835260406000203360005283526040600020610767836005830154166121d6565b600281018054938085166109115780835416908860281c169060028210156104475760028110156104475781036108d4576108c3576107c36107b96004850154945b6005600482015491015490612185565b600184015461221a565b61ffff6127109860381c1688038881116108ad576107e09161221a565b928781029781890414901517156108ad578615610897576001966003930496879460ff19161790550155600080808086335af161081b61222d565b5015610853577f0508a8b4117d9a7b3d8f5895f6413e61b4f9a2df35afbfb41e78d0ecfff1843f906040519384523393a36001600055005b6064906040519062461bcd60e51b82526004820152601860248201527f47656d426f74733a207472616e73666572206661696c656400000000000000006044820152fd5b634e487b7160e01b600052601260045260246000fd5b634e487b7160e01b600052601160045260246000fd5b6107c36107b96005850154946107a9565b60405162461bcd60e51b815260048101879052601560248201527423b2b6a137ba399d103737ba1030903bb4b73732b960591b6044820152606490fd5b60405162461bcd60e51b815260048101879052601860248201527f47656d426f74733a20616c726561647920636c61696d656400000000000000006044820152606490fd5b60405162461bcd60e51b815260048101849052601660248201527511d95b509bdd1cce881b9bc81dda5b9b995c881cd95d60521b6044820152606490fd5b3461045d57600036600319011261045d57602061ffff60025460a01c16604051908152f35b3461045d57602036600319011261045d576004356109e260018060a01b03600154163314612046565b6109f360ff60025460b01c16612087565b80600052600360205260066040600020610a1660ff600983015460081c166120f4565b01805460ff8160201c1690600482101561044757610a3a6401000000009215612140565b64ff0000000019161790557f1fc99c0f9e224faa85566966af8ce488343d61c0c27230cf66aca62940308532600080a2005b3461045d57602036600319011261045d57600435600090815260036020526040902080546001600160a01b0316610aa560018301611f0f565b9160ff610ab460028301611f0f565b610ac060038401611f0f565b9260048101549361ffff6005830154600684015490610b26600786015494610b186009600889015498015498610b0a6040519e8f9e8f9081526101e0908160208201520190611fb5565b8d810360408f015290611fb5565b908b820360608d0152611fb5565b9760808a015260a089015263ffffffff811660c0890152610b4f60e08901878360201c16611ff5565b610b626101008901878360281c16611dc2565b858160301c16151561012089015260381c1661014087015261016086015261018085015281811615156101a085015260081c1615156101c08301520390f35b3461045d57604036600319011261045d57610bba611d96565b600435600052600460205260406000209060018060a01b031660005260205260c0604060002060ff8154169060018101549060ff60028201541660038201549060ff600560048501549401541693610c156040518097611dc2565b60208601521515604085015260608401526080830152151560a0820152f35b3461045d57600036600319011261045d576020600554604051908152f35b3461045d57600036600319011261045d576001546040516001600160a01b039091168152602090f35b3461045d5760208060031936011261045d576001546001600160a01b039160043591610caa9084163314612046565b610cb261226d565b610cc360ff60025460b01c16612087565b816000526003815260406000209260098401805494610ce760ff8760081c166120f4565b60068101549060ff82861c166004811015610447576002610d089114612192565b60ff8716610e075760ff8260281c16600281101561044757610df9576004810154600590910154610d399082612185565b9081039081116108ad57610d5a6127109161ffff60019460381c169061221a565b049560ff191617905560008080808785600254165af1610d7861222d565b5015610db457907f27026d0900e26dbc73ba4ebc57706d881408d599ba0f4c021620cdd3371c90dc916002541693604051908152a36001600055005b60405162461bcd60e51b815260048101839052601c60248201527f47656d426f74733a20666565207472616e73666572206661696c6564000000006044820152606490fd5b610d396005820154916107a9565b60405162461bcd60e51b815260048101869052601f60248201527f47656d426f74733a206665657320616c726561647920636f6c6c6563746564006044820152606490fd5b3461045d57600036600319011261045d576020604051678ac7230489e800008152f35b3461045d57606036600319011261045d57610e88611dac565b610e90611e1c565b906001600160a01b0390604435828116919082900361045d5760015490610eba8483163314612046565b8360025491610ece60ff8460b01c16612087565b169081610f74575b505061ffff9384811680610f40575b505081610f2b575b50507f33cdd005b44bd3802be8e931d784be91ea629fd0b06c39309319ba7ca5982d416020826001541692600254604051958160a01c1686521693a3005b6001600160a01b031916176001558280610eed565b6107d0610f4e911115612002565b6002805461ffff60a01b191660a09290921b61ffff60a01b169190911790558480610ee5565b6001600160a01b031916176002558480610ed6565b3461045d5760208060031936011261045d57600435610fa661226d565b610fb760ff60025460b01c16612087565b806000526003825260ff60066040600020610fda83600983015460081c166120f4565b0154831c16600481101561044757600303611109578060005260048252604060002033600052825260406000209161101860ff6005850154166121d6565b600283019283549360ff85166110c4578160039160018060009501549760ff19161790550155600080808086335af161104f61222d565b5015611087577fe950d47bcc1a745a8ef1d8b86486b400a99681910425d126eb1a006d61f341b2906040519384523393a36001600055005b6064906040519062461bcd60e51b82526004820152601660248201527511d95b509bdd1cce881c99599d5b990819985a5b195960521b6044820152fd5b60405162461bcd60e51b815260048101849052601960248201527f47656d426f74733a20616c726561647920726566756e646564000000000000006044820152606490fd5b60405162461bcd60e51b815260048101839052601660248201527511d95b509bdd1cce881b9bdd0818d85b98d95b1b195960521b6044820152606490fd5b3461045d57602036600319011261045d5760043560055481101561045d57611170602091611e2d565b90546040519160031b1c8152f35b3461045d57600036600319011261045d57602060405166038d7ea4c680008152f35b3461045d57600036600319011261045d576002546040516001600160a01b039091168152602090f35b3461045d57608036600319011261045d5760043567ffffffffffffffff811161045d576111fa903690600401611dee565b60243567ffffffffffffffff811161045d5761121a903690600401611dee565b92909160443567ffffffffffffffff811161045d5761123d903690600401611dee565b9461ffff9060643582811680820361045d5761126460018060a01b03600154163314612046565b60025461127660ff8260b01c16612087565b86156118175783156117d257891561178d57849115611781575050925b6112a36107d08486161115612002565b6040516020810190868883376112c9602082898101600083820152038084520182611eed565b5190209788600052600360205260ff60096040600020015460081c1661173c57600089815260036020526040902080546001600160a01b0319163317815567ffffffffffffffff87116114e0576113236001820154611e7a565b601f81116116f5575b50866000601f82116001146116855760009161167a575b508760011b906000198960031b1c19161760018201555b67ffffffffffffffff84116114e0576113766002820154611e7a565b601f8111611633575b50836000601f82116001146115c3576000916115b8575b508460011b906000198660031b1c19161760028201555b67ffffffffffffffff82116114e0576113c96003820154611e7a565b601f8111611571575b5060009082601f8111600114611501576009926000916114f6575b508360011b906000198560031b1c19161760038201555b60068101805468ffff0000ff000000001916603889901b68ffff000000000000001617905542600782015501805461ff001916610100179055600554680100000000000000008110156114e0577f32414abb1ad5a7da84a5f42bfa71f92e5f9473f3358d0a4cb2c5d4c8f0674557986114d4948b61148b8460016114c69601600555611e2d565b819291549060031b91821b91600019901b19161790556114b86040519a8b9a60808c5260808c01916120d3565b9189830360208b01526120d3565b9186830360408801526120d3565b911660608301520390a2005b634e487b7160e01b600052604160045260246000fd5b90508401358c6113ed565b506003810160005260206000206000925b601f1985168410611559576009935084601f1981161061153f575b5050600183811b016003820155611404565b850135600019600386901b60f8161c191690558b8061152d565b85810135825560209384019360019092019101611512565b600382016000526020600020601f840160051c8101602085106115b1575b601f830160051c820181106115a55750506113d2565b6000815560010161158f565b508061158f565b90508901358b611396565b90506002820160005260206000209060005b8b601f198816821061161b57505085601f19811610611601575b5050600184811b0160028201556113ad565b8a0135600019600387901b60f8161c191690558a806115ef565b600183946020939484930135815501930191016115d5565b600282016000526020600020601f860160051c810160208710611673575b601f830160051c8201811061166757505061137f565b60008155600101611651565b5080611651565b90508801358b611343565b90506001820160005260206000209060005b8a601f198b1682106116dd57505088601f198116106116c3575b5050600187811b01600182015561135a565b89013560001960038a901b60f8161c191690558a806116b1565b60018394602093948493013581550193019101611697565b600182016000526020600020601f890160051c810160208a10611735575b601f830160051c8201811061172957505061132c565b60008155600101611713565b5080611713565b60405162461bcd60e51b815260206004820152601c60248201527f47656d426f74733a20706f6f6c20616c726561647920657869737473000000006044820152606490fd5b60a01c16939050611293565b60405162461bcd60e51b815260206004820152601760248201527f47656d426f74733a20656d70747920626f74424e616d650000000000000000006044820152606490fd5b60405162461bcd60e51b815260206004820152601760248201527f47656d426f74733a20656d70747920626f74414e616d650000000000000000006044820152606490fd5b60405162461bcd60e51b815260206004820152601660248201527511d95b509bdd1cce88195b5c1d1e481b585d18da125960521b6044820152606490fd5b3461045d57602036600319011261045d5760043567ffffffffffffffff811161045d576118886020913690600401611dee565b6118ab836040518381948383019687378101600083820152038084520182611eed565b519020604051908152f35b3461045d576118c436611dcf565b6118d960018060a01b03600154163314612046565b6118ea60ff60025460b01c16612087565b816000526003602052604060002061190b60ff600983015460081c166120f4565b600681019182549160ff8360201c1660048110156104475780159081156119f4575b50156119af576002821015610447577fdcd28e1acab90525f060fa9869923c2ff4c46997a980a68fd161f8b69028398193660100020000000060609465ff00000000008560281b169066ffffff0000000019161717905542600882015560056004820154910154906119a26040518094611dc2565b60208301526040820152a2005b60405162461bcd60e51b815260206004820152601760248201527f47656d426f74733a2063616e6e6f74207265736f6c76650000000000000000006044820152606490fd5b60019150148661192d565b3461045d57600036600319011261045d57602060ff60025460b01c166040519015158152f35b611a2e36611dcf565b90611a4060ff60025460b01c16612087565b66038d7ea4c680003410611bf357678ac7230489e800003411611bb557806000526020600381526040600020611a7f60ff600983015460081c166120f4565b600681019060ff8254841c16600481101561044757611a9e9015612140565b836000526004835260406000203360005283526040600020600581019081549060ff8216611b795760028810156104475760019160ff19918281541660ff8b161781553484820155600442910155161790558415600014611b6457600401611b07348254612185565b90555b805463ffffffff6001818316018181116108ad57169063ffffffff1916179055611b376040518094611dc2565b34908301527f22f4c9bb73a93d9507392476fa412371d3d5e19e74d8951567b76a7483dca1a060403393a3005b600501611b72348254612185565b9055611b0a565b60405162461bcd60e51b815260048101879052601460248201527311d95b509bdd1cce88185b1c9958591e4818995d60621b6044820152606490fd5b60405162461bcd60e51b815260206004820152601660248201527511d95b509bdd1cce8818589bdd99481b585e0818995d60521b6044820152606490fd5b60405162461bcd60e51b815260206004820152601660248201527511d95b509bdd1cce8818995b1bddc81b5a5b8818995d60521b6044820152606490fd5b3461045d57604036600319011261045d5760043590611c4e611d96565b611c5782611eb4565b60008252600060a060209382858201528260408201528260608201528260808201520152826000526004825260406000209060018060a01b03169081600052825260ff6005604060002001541615611d585760c09260005260048252604060002090600052815260406000209060405191611cd183611eb4565b611cdf60ff82541684612290565b60018101549180840192835260ff6002830154166040850190151581526003830154916060860192835260ff6005600486015495608089019687520154169460a087019515158652611d35604051809851611dc2565b5190860152511515604085015251606084015251608083015251151560a0820152f35b60405162461bcd60e51b815260048101839052601660248201527511d95b509bdd1cce8818995d081b9bdd08199bdd5b9960521b6044820152606490fd5b602435906001600160a01b038216820361045d57565b600435906001600160a01b038216820361045d57565b9060028210156104475752565b604090600319011261045d5760043590602435600281101561045d5790565b9181601f8401121561045d5782359167ffffffffffffffff831161045d576020838186019501011161045d57565b6024359061ffff8216820361045d57565b600554811015611e645760056000527f036b6384b5eca791c62761152d0c79bb0604c104a5fb6f4eb0703f3154bb3db00190600090565b634e487b7160e01b600052603260045260246000fd5b90600182811c92168015611eaa575b6020831014611e9457565b634e487b7160e01b600052602260045260246000fd5b91607f1691611e89565b60c0810190811067ffffffffffffffff8211176114e057604052565b6101e0810190811067ffffffffffffffff8211176114e057604052565b90601f8019910116810190811067ffffffffffffffff8211176114e057604052565b9060405191826000825492611f2384611e7a565b908184526001948581169081600014611f925750600114611f4f575b5050611f4d92500383611eed565b565b9093915060005260209081600020936000915b818310611f7a575050611f4d93508201013880611f3f565b85548884018501529485019487945091830191611f62565b915050611f4d94506020925060ff191682840152151560051b8201013880611f3f565b919082519283825260005b848110611fe1575050826000602080949584010152601f8019910116010190565b602081830181015184830182015201611fc0565b9060048210156104475752565b1561200957565b60405162461bcd60e51b815260206004820152601560248201527408ecada84dee8e67440cccaca40e8dede40d0d2ced605b1b6044820152606490fd5b1561204d57565b60405162461bcd60e51b815260206004820152601260248201527123b2b6a137ba399d103737ba1037bbb732b960711b6044820152606490fd5b1561208e57565b60405162461bcd60e51b815260206004820152601860248201527f47656d426f74733a206e6f7420696e697469616c697a656400000000000000006044820152606490fd5b908060209392818452848401376000828201840152601f01601f1916010190565b156120fb57565b60405162461bcd60e51b815260206004820152601760248201527f47656d426f74733a20706f6f6c206e6f7420666f756e640000000000000000006044820152606490fd5b1561214757565b60405162461bcd60e51b815260206004820152601660248201527523b2b6a137ba399d103837b7b6103737ba1037b832b760511b6044820152606490fd5b919082018092116108ad57565b1561219957565b60405162461bcd60e51b815260206004820152601560248201527411d95b509bdd1cce881b9bdd081c995cdbdb1d9959605a1b6044820152606490fd5b156121dd57565b60405162461bcd60e51b815260206004820152601560248201527411d95b509bdd1cce881b9bc818995d08199bdd5b99605a1b6044820152606490fd5b818102929181159184041417156108ad57565b3d15612268573d9067ffffffffffffffff82116114e0576040519161225c601f8201601f191660200184611eed565b82523d6000602084013e565b606090565b60026000541461227e576002600055565b604051633ee5aeb560e01b8152600490fd5b6002821015610447575256fea2646970667358221220759745228de31d9be13bdcea511e4012463327ba5a2cf74d4f3fd2dfe96ca7b764736f6c63430008140033",
  "linkReferences": {},
  "deployedLinkReferences": {}
}