{"contracts/GemBotsBetting.sol":{"GemBotsBetting":{"abi":[{"inputs":[{"internalType":"address","name":"_oracle","type":"address"}],"stateMutability":"nonpayable","type":"constructor"},{"inputs":[{"internalType":"address","name":"owner","type":"address"}],"name":"OwnableInvalidOwner","type":"error"},{"inputs":[{"internalType":"address","name":"account","type":"address"}],"name":"OwnableUnauthorizedAccount","type":"error"},{"inputs":[],"name":"ReentrancyGuardReentrantCall","type":"error"},{"anonymous":false,"inputs":[{"indexed":true,"internalType":"uint256","name":"battleId","type":"uint256"},{"indexed":true,"internalType":"address","name":"creator","type":"address"},{"indexed":false,"internalType":"uint256","name":"refundAmount","type":"uint256"}],"name":"BattleCancelled","type":"event"},{"anonymous":false,"inputs":[{"indexed":true,"internalType":"uint256","name":"battleId","type":"uint256"},{"indexed":true,"internalType":"address","name":"creator","type":"address"},{"indexed":false,"internalType":"uint256","name":"entryFee","type":"uint256"}],"name":"BattleCreated","type":"event"},{"anonymous":false,"inputs":[{"indexed":true,"internalType":"uint256","name":"battleId","type":"uint256"},{"indexed":true,"internalType":"address","name":"joiner","type":"address"}],"name":"BattleJoined","type":"event"},{"anonymous":false,"inputs":[{"indexed":true,"internalType":"uint256","name":"battleId","type":"uint256"},{"indexed":true,"internalType":"address","name":"winner","type":"address"},{"indexed":false,"internalType":"uint256","name":"payout","type":"uint256"},{"indexed":false,"internalType":"uint256","name":"platformFee","type":"uint256"}],"name":"BattleResolved","type":"event"},{"anonymous":false,"inputs":[{"indexed":true,"internalType":"address","name":"to","type":"address"},{"indexed":false,"internalType":"uint256","name":"amount","type":"uint256"}],"name":"EmergencyWithdraw","type":"event"},{"anonymous":false,"inputs":[{"indexed":true,"internalType":"address","name":"oldOracle","type":"address"},{"indexed":true,"internalType":"address","name":"newOracle","type":"address"}],"name":"OracleUpdated","type":"event"},{"anonymous":false,"inputs":[{"indexed":true,"internalType":"address","name":"previousOwner","type":"address"},{"indexed":true,"internalType":"address","name":"newOwner","type":"address"}],"name":"OwnershipTransferred","type":"event"},{"anonymous":false,"inputs":[{"indexed":false,"internalType":"uint256","name":"oldFee","type":"uint256"},{"indexed":false,"internalType":"uint256","name":"newFee","type":"uint256"}],"name":"PlatformFeeUpdated","type":"event"},{"stateMutability":"payable","type":"fallback"},{"inputs":[],"name":"MAX_ENTRY_FEE","outputs":[{"internalType":"uint256","name":"","type":"uint256"}],"stateMutability":"view","type":"function"},{"inputs":[],"name":"MAX_PLATFORM_FEE","outputs":[{"internalType":"uint256","name":"","type":"uint256"}],"stateMutability":"view","type":"function"},{"inputs":[],"name":"MIN_ENTRY_FEE","outputs":[{"internalType":"uint256","name":"","type":"uint256"}],"stateMutability":"view","type":"function"},{"inputs":[{"internalType":"uint256","name":"","type":"uint256"}],"name":"battles","outputs":[{"internalType":"uint256","name":"id","type":"uint256"},{"internalType":"address","name":"creator","type":"address"},{"internalType":"address","name":"joiner","type":"address"},{"internalType":"uint256","name":"entryFee","type":"uint256"},{"internalType":"enum GemBotsBetting.BattleStatus","name":"status","type":"uint8"},{"internalType":"address","name":"winner","type":"address"},{"internalType":"uint256","name":"createdAt","type":"uint256"},{"internalType":"uint256","name":"resolvedAt","type":"uint256"}],"stateMutability":"view","type":"function"},{"inputs":[{"internalType":"uint256","name":"_battleId","type":"uint256"}],"name":"cancelBattle","outputs":[],"stateMutability":"nonpayable","type":"function"},{"inputs":[],"name":"createBattle","outputs":[{"internalType":"uint256","name":"battleId","type":"uint256"}],"stateMutability":"payable","type":"function"},{"inputs":[],"name":"emergencyWithdraw","outputs":[],"stateMutability":"nonpayable","type":"function"},{"inputs":[{"internalType":"uint256","name":"_battleId","type":"uint256"}],"name":"getBattle","outputs":[{"components":[{"internalType":"uint256","name":"id","type":"uint256"},{"internalType":"address","name":"creator","type":"address"},{"internalType":"address","name":"joiner","type":"address"},{"internalType":"uint256","name":"entryFee","type":"uint256"},{"internalType":"enum GemBotsBetting.BattleStatus","name":"status","type":"uint8"},{"internalType":"address","name":"winner","type":"address"},{"internalType":"uint256","name":"createdAt","type":"uint256"},{"internalType":"uint256","name":"resolvedAt","type":"uint256"}],"internalType":"struct GemBotsBetting.Battle","name":"","type":"tuple"}],"stateMutability":"view","type":"function"},{"inputs":[],"name":"getBattleCount","outputs":[{"internalType":"uint256","name":"","type":"uint256"}],"stateMutability":"view","type":"function"},{"inputs":[],"name":"getPlatformBalance","outputs":[{"internalType":"uint256","name":"","type":"uint256"}],"stateMutability":"view","type":"function"},{"inputs":[{"internalType":"uint256","name":"_battleId","type":"uint256"}],"name":"joinBattle","outputs":[],"stateMutability":"payable","type":"function"},{"inputs":[],"name":"nextBattleId","outputs":[{"internalType":"uint256","name":"","type":"uint256"}],"stateMutability":"view","type":"function"},{"inputs":[],"name":"oracle","outputs":[{"internalType":"address","name":"","type":"address"}],"stateMutability":"view","type":"function"},{"inputs":[],"name":"owner","outputs":[{"internalType":"address","name":"","type":"address"}],"stateMutability":"view","type":"function"},{"inputs":[],"name":"platformBalance","outputs":[{"internalType":"uint256","name":"","type":"uint256"}],"stateMutability":"view","type":"function"},{"inputs":[],"name":"platformFeeBps","outputs":[{"internalType":"uint256","name":"","type":"uint256"}],"stateMutability":"view","type":"function"},{"inputs":[],"name":"renounceOwnership","outputs":[],"stateMutability":"nonpayable","type":"function"},{"inputs":[{"internalType":"uint256","name":"_battleId","type":"uint256"},{"internalType":"address","name":"_winner","type":"address"}],"name":"resolveBattle","outputs":[],"stateMutability":"nonpayable","type":"function"},{"inputs":[{"internalType":"address","name":"_oracle","type":"address"}],"name":"setOracle","outputs":[],"stateMutability":"nonpayable","type":"function"},{"inputs":[{"internalType":"uint256","name":"_feeBps","type":"uint256"}],"name":"setPlatformFee","outputs":[],"stateMutability":"nonpayable","type":"function"},{"inputs":[{"internalType":"address","name":"newOwner","type":"address"}],"name":"transferOwnership","outputs":[],"stateMutability":"nonpayable","type":"function"},{"inputs":[],"name":"withdrawPlatformFees","outputs":[],"stateMutability":"nonpayable","type":"function"},{"stateMutability":"payable","type":"receive"}],"evm":{"bytecode":{"linkReferences":{},"object":"60803461011b57601f6113cc38819003918201601f19168301916001600160401b038311848410176101205780849260209460405283398101031261011b57516001600160a01b038082169182900361011b573315610102576000549060018060a01b0319913383821617600055604051913391167f8be0079c531659141344cd1fd0a4f28419497f9722a3daafe3b4186f6b6457e0600080a36001805560fa60035582156100c05750600254161760025560405161129590816101378239f35b62461bcd60e51b815260206004820152601f60248201527f47656d426f74733a206f7261636c65206973207a65726f2061646472657373006044820152606490fd5b604051631e4fbdf760e01b815260006004820152602490fd5b600080fd5b634e487b7160e01b600052604160045260246000fdfe6040608081526004803610156100a2575b3615610050576020606492519162461bcd60e51b8352820152601560248201527411d95b509bdd1cce881a5b9d985b1a590818d85b1b605a1b6044820152fd5b6020608492519162461bcd60e51b8352820152602760248201527f47656d426f74733a2075736520637265617465426174746c65206f72206a6f696044820152666e426174746c6560c81b6064820152fd5b600060e08135811c90816312e8e2c31461101357816322dcd13e14610ff457816331a6ff6614610fd55781633998a68114610fb85781634a042f0d14610e635781634c4c447e14610d01578163606d2e9614610c7557816361cb121214610a7c57816362a5dbbc14610a5d5781636dd0ce7a146108d457508063715018a6146108775780637adbf973146107be5780637dc0d1d01461079557806381883759146107735780638da5cb5b1461074b578063ba9bf7571461072c578063d0b7830b1461064e578063db2e21bc1461053a578063e0e7c8c514610275578063f2fde38b146101e9578063f470d5ec146101ca5763f50ab0de146101a35750610010565b82346101c657816003193601126101c6576020905168056bc75e2d631000008152f35b5080fd5b5082346101c657816003193601126101c6576020906005549051908152f35b50919034610271576020366003190112610271576102056110db565b9061020e611210565b6001600160a01b0391821692831561025b57505082546001600160a01b0319811683178455167f8be0079c531659141344cd1fd0a4f28419497f9722a3daafe3b4186f6b6457e08380a380f35b51631e4fbdf760e01b8152908101849052602490fd5b8280fd5b5091346102715780600319360112610271576001600160a01b036024803582811694803594939286830361053657836002541633036104ea576102b661123c565b858852600660205284882084600182015416936102d48515156110f6565b8382019586549560ff8716868110156104d857600103610496578a14908115610486575b5015610436576003820154958660011b96808804600214901517156104245760035480880290888204148815171561041257612710900495868803978811610412576001600160a81b03191660089290921b610100600160a81b0316919091176002179055600642910155815483810180911161040057825587808080878b5af16103816111c5565b50156103be575050825191825260208201527f2688807c04698f616c747ee1209f4045f778e1079296e801b37686ab81e709109190a36001805580f35b90601f606492602087519362461bcd60e51b85528401528201527f47656d426f74733a207061796f7574207472616e73666572206661696c6564006044820152fd5b50634e487b7160e01b88526011825287fd5b634e487b7160e01b8c5260118652848cfd5b634e487b7160e01b8b5260118552838bfd5b865162461bcd60e51b81526020818601526025818501527f47656d426f74733a2077696e6e6572206d7573742062652061207061727469636044820152641a5c185b9d60da1b6064820152608490fd5b90506002830154168914386102f8565b885162461bcd60e51b8152602081880152601d818701527f47656d426f74733a20626174746c65206973206e6f74206163746976650000006044820152606490fd5b634e487b7160e01b8d5260218752858dfd5b906021608492602087519362461bcd60e51b85528401528201527f47656d426f74733a2063616c6c6572206973206e6f7420746865206f7261636c6044820152606560f81b6064820152fd5b8780fd5b50919034610271578260031936011261027157610555611210565b61055d61123c565b4790811561060b5760018060a01b03908480808086868254165af16105806111c5565b50156105bc57507f5fafa99d0643513820be26656b45130b01e1c03062e1266bf36f88cbd3bd9695916020918554169351908152a26001805580f35b608490602085519162461bcd60e51b83528201526024808201527f47656d426f74733a20656d657267656e6379207769746864726177616c2066616044820152631a5b195960e21b6064820152fd5b606490602084519162461bcd60e51b8352820152601c60248201527f47656d426f74733a206e6f7468696e6720746f207769746864726177000000006044820152fd5b509134610271578260031936011261027157610668611210565b61067061123c565b815480156106e957838355835484918291829182916001600160a01b03165af16106986111c5565b50156106a657826001805580f35b906020606492519162461bcd60e51b8352820152601a60248201527f47656d426f74733a207769746864726177616c206661696c65640000000000006044820152fd5b815162461bcd60e51b8152602081850152601c60248201527f47656d426f74733a206e6f206665657320746f207769746864726177000000006044820152606490fd5b5091903461027157826003193601126102715760209250549051908152f35b5082346101c657816003193601126101c657905490516001600160a01b039091168152602090f35b5082346101c657816003193601126101c6576020905166038d7ea4c680008152f35b5082346101c657816003193601126101c65760025490516001600160a01b039091168152602090f35b50919034610271576020366003190112610271576107da6110db565b906107e3611210565b6001600160a01b03918216928315610834575050600254826001600160601b0360a01b821617600255167f078c3b417dadf69374a59793b829c52001247130433427049317bde56607b1b78380a380f35b906020606492519162461bcd60e51b8352820152601f60248201527f47656d426f74733a206f7261636c65206973207a65726f2061646472657373006044820152fd5b50346108d157806003193601126108d157610890611210565b80546001600160a01b03198116825581906001600160a01b03167f8be0079c531659141344cd1fd0a4f28419497f9722a3daafe3b4186f6b6457e08280a380f35b80fd5b90508391346108d1576020806003193601126101c65784359180846108f761118e565b828152828582015282888201528260608201528260808201528260a08201528260c082015201528281526006825260018060a01b039283600187842001541615610a1a578152600682528481209161094d61118e565b95835487528460018501541691808801928352856002860154169082890191825260038601549360608a019485528a8701549660ff881660808c01978d821015610a0757506109f388610100988e988d8f998b998f978b9a8d6006869c878f60a09082978e52019d60081c168d5260c060058201549f019e8f5201549d019c8d5285519e8f905190525116908d01525116908a01525160608901525160808801906110b8565b511660a08501525160c08401525190820152f35b634e487b7160e01b815260218e52602490fd5b855162461bcd60e51b8152808801849052601960248201527f47656d426f74733a20626174746c65206e6f7420666f756e64000000000000006044820152606490fd5b8285853461027157826003193601126102715760209250549051908152f35b8491508260031936011261027157610a9261123c565b66038d7ea4c680003410610c325768056bc75e2d631000003411610bef57600554926000198414610bdc5760018401600555610acc61118e565b9184835260208301913383528484019281845260608501348152608086019280845260a087019181835260c08801954287528801968288528a83526006602052898320985189556001890160018060a01b0380965116906001600160601b0360a01b91828254161790558560028b01925116908254161790555160038801558987019351908a821015610bc95750835491516001600160a81b031990921660ff90911617911660081b610100600160a81b03161790556020955060069190516005840155519101558051348152827fcd51df591e2f9319b98d783b63c675c8ab2e63d44101da9e5a12af2b1fcab479853393a36001805551908152f35b634e487b7160e01b815260218b52602490fd5b634e487b7160e01b815260118552602490fd5b815162461bcd60e51b8152602081860152601b60248201527f47656d426f74733a20656e7472792066656520746f6f206869676800000000006044820152606490fd5b815162461bcd60e51b8152602081860152601a60248201527f47656d426f74733a20656e7472792066656520746f6f206c6f770000000000006044820152606490fd5b8484849234610cfd576020366003190112610cfd5782610100948335815260066020522080549360018060a01b03908160018401541694826002850154166003850154918501549260066005870154960154978151998a5260208a01528801526060870152610cea6080870160ff83166110b8565b60081c1660a085015260c0840152820152f35b8380fd5b8285853461027157602080600319360112610cfd57813591610d2161123c565b828552600682528385206001810180546001600160a01b03939192908416610d4a8115156110f6565b82820180549260ff841685811015610e5057610d669015611142565b823303610e0f578a600397969594819482948a849501549a8b9360ff19161790555af1610d916111c5565b5015610dcc5750907f571a3cd76f8ff2ceae1c97dc5831982b1eea4bdee67ec984a201323729595a3393929154169451908152a36001805580f35b865162461bcd60e51b8152908101859052601f60248201527f47656d426f74733a20726566756e64207472616e73666572206661696c6564006044820152606490fd5b60648589808d519262461bcd60e51b845283015260248201527f47656d426f74733a206f6e6c792063726561746f722063616e2063616e63656c6044820152fd5b634e487b7160e01b8c526021865260248cfd5b505091602060031936011261027157813591610e7d61123c565b828452600660205281842060018101546001600160a01b031691610ea28315156110f6565b8082019384549360ff851683811015610fa557610ebf9015611142565b3314610f625760038301543403610f1f57505090600260019201336001600160601b0360a01b82541617905560ff191617905533907f8c6accc40f0b31b2b4fa26bce8f25592cedbe9e9a6a9323b56188d02eceed53d8380a36001805580f35b906020606492519162461bcd60e51b8352820152601b60248201527f47656d426f74733a20656e74727920666565206d69736d6174636800000000006044820152fd5b906020606492519162461bcd60e51b8352820152601f60248201527f47656d426f74733a2063616e6e6f74206a6f696e206f776e20626174746c65006044820152fd5b634e487b7160e01b895260218452602489fd5b8285346101c657816003193601126101c657602090516103e88152f35b8285346101c657816003193601126101c6576020906005549051908152f35b8285346101c657816003193601126101c6576020906003549051908152f35b8285853461027157602036600319011261027157803590611032611210565b6103e882116110755750907fd347e206f25a89b917fc9482f1a2d294d749baa4dc9bde7fb495ee11fe49164391600354908060035582519182526020820152a180f35b606490602084519162461bcd60e51b8352820152601860248201527f47656d426f74733a2066656520657863656564732031302500000000000000006044820152fd5b9060048210156110c55752565b634e487b7160e01b600052602160045260246000fd5b600435906001600160a01b03821682036110f157565b600080fd5b156110fd57565b60405162461bcd60e51b815260206004820152601e60248201527f47656d426f74733a20626174746c6520646f6573206e6f7420657869737400006044820152606490fd5b1561114957565b60405162461bcd60e51b815260206004820152601b60248201527f47656d426f74733a20626174746c65206973206e6f74206f70656e00000000006044820152606490fd5b60405190610100820182811067ffffffffffffffff8211176111af57604052565b634e487b7160e01b600052604160045260246000fd5b3d1561120b5767ffffffffffffffff903d8281116111af5760405192601f8201601f19908116603f01168401908111848210176111af5760405282523d6000602084013e565b606090565b6000546001600160a01b0316330361122457565b60405163118cdaa760e01b8152336004820152602490fd5b60026001541461124d576002600155565b604051633ee5aeb560e01b8152600490fdfea2646970667358221220f6d3209798fd83354df137c97a60ed67c03deea8cff01b9a98db7be79469d8e464736f6c63430008180033","opcodes":"PUSH1 0x80 CALLVALUE PUSH2 0x11B JUMPI PUSH1 0x1F PUSH2 0x13CC CODESIZE DUP2 SWAP1 SUB SWAP2 DUP3 ADD PUSH1 0x1F NOT AND DUP4 ADD SWAP2 PUSH1 0x1 PUSH1 0x1 PUSH1 0x40 SHL SUB DUP4 GT DUP5 DUP5 LT OR PUSH2 0x120 JUMPI DUP1 DUP5 SWAP3 PUSH1 0x20 SWAP5 PUSH1 0x40 MSTORE DUP4 CODECOPY DUP2 ADD SUB SLT PUSH2 0x11B JUMPI MLOAD PUSH1 0x1 PUSH1 0x1 PUSH1 0xA0 SHL SUB DUP1 DUP3 AND SWAP2 DUP3 SWAP1 SUB PUSH2 0x11B JUMPI CALLER ISZERO PUSH2 0x102 JUMPI PUSH1 0x0 SLOAD SWAP1 PUSH1 0x1 DUP1 PUSH1 0xA0 SHL SUB NOT SWAP2 CALLER DUP4 DUP3 AND OR PUSH1 0x0 SSTORE PUSH1 0x40 MLOAD SWAP2 CALLER SWAP2 AND PUSH32 0x8BE0079C531659141344CD1FD0A4F28419497F9722A3DAAFE3B4186F6B6457E0 PUSH1 0x0 DUP1 LOG3 PUSH1 0x1 DUP1 SSTORE PUSH1 0xFA PUSH1 0x3 SSTORE DUP3 ISZERO PUSH2 0xC0 JUMPI POP PUSH1 0x2 SLOAD AND OR PUSH1 0x2 SSTORE PUSH1 0x40 MLOAD PUSH2 0x1295 SWAP1 DUP2 PUSH2 0x137 DUP3 CODECOPY RETURN JUMPDEST PUSH3 0x461BCD PUSH1 0xE5 SHL DUP2 MSTORE PUSH1 0x20 PUSH1 0x4 DUP3 ADD MSTORE PUSH1 0x1F PUSH1 0x24 DUP3 ADD MSTORE PUSH32 0x47656D426F74733A206F7261636C65206973207A65726F206164647265737300 PUSH1 0x44 DUP3 ADD MSTORE PUSH1 0x64 SWAP1 REVERT JUMPDEST PUSH1 0x40 MLOAD PUSH4 0x1E4FBDF7 PUSH1 0xE0 SHL DUP2 MSTORE PUSH1 0x0 PUSH1 0x4 DUP3 ADD MSTORE PUSH1 0x24 SWAP1 REVERT JUMPDEST PUSH1 0x0 DUP1 REVERT JUMPDEST PUSH4 0x4E487B71 PUSH1 0xE0 SHL PUSH1 0x0 MSTORE PUSH1 0x41 PUSH1 0x4 MSTORE PUSH1 0x24 PUSH1 0x0 REVERT INVALID PUSH1 0x40 PUSH1 0x80 DUP2 MSTORE PUSH1 0x4 DUP1 CALLDATASIZE LT ISZERO PUSH2 0xA2 JUMPI JUMPDEST CALLDATASIZE ISZERO PUSH2 0x50 JUMPI PUSH1 0x20 PUSH1 0x64 SWAP3 MLOAD SWAP2 PUSH3 0x461BCD PUSH1 0xE5 SHL DUP4 MSTORE DUP3 ADD MSTORE PUSH1 0x15 PUSH1 0x24 DUP3 ADD MSTORE PUSH21 0x11D95B509BDD1CCE881A5B9D985B1A590818D85B1B PUSH1 0x5A SHL PUSH1 0x44 DUP3 ADD MSTORE REVERT JUMPDEST PUSH1 0x20 PUSH1 0x84 SWAP3 MLOAD SWAP2 PUSH3 0x461BCD PUSH1 0xE5 SHL DUP4 MSTORE DUP3 ADD MSTORE PUSH1 0x27 PUSH1 0x24 DUP3 ADD MSTORE PUSH32 0x47656D426F74733A2075736520637265617465426174746C65206F72206A6F69 PUSH1 0x44 DUP3 ADD MSTORE PUSH7 0x6E426174746C65 PUSH1 0xC8 SHL PUSH1 0x64 DUP3 ADD MSTORE REVERT JUMPDEST PUSH1 0x0 PUSH1 0xE0 DUP2 CALLDATALOAD DUP2 SHR SWAP1 DUP2 PUSH4 0x12E8E2C3 EQ PUSH2 0x1013 JUMPI DUP2 PUSH4 0x22DCD13E EQ PUSH2 0xFF4 JUMPI DUP2 PUSH4 0x31A6FF66 EQ PUSH2 0xFD5 JUMPI DUP2 PUSH4 0x3998A681 EQ PUSH2 0xFB8 JUMPI DUP2 PUSH4 0x4A042F0D EQ PUSH2 0xE63 JUMPI DUP2 PUSH4 0x4C4C447E EQ PUSH2 0xD01 JUMPI DUP2 PUSH4 0x606D2E96 EQ PUSH2 0xC75 JUMPI DUP2 PUSH4 0x61CB1212 EQ PUSH2 0xA7C JUMPI DUP2 PUSH4 0x62A5DBBC EQ PUSH2 0xA5D JUMPI DUP2 PUSH4 0x6DD0CE7A EQ PUSH2 0x8D4 JUMPI POP DUP1 PUSH4 0x715018A6 EQ PUSH2 0x877 JUMPI DUP1 PUSH4 0x7ADBF973 EQ PUSH2 0x7BE JUMPI DUP1 PUSH4 0x7DC0D1D0 EQ PUSH2 0x795 JUMPI DUP1 PUSH4 0x81883759 EQ PUSH2 0x773 JUMPI DUP1 PUSH4 0x8DA5CB5B EQ PUSH2 0x74B JUMPI DUP1 PUSH4 0xBA9BF757 EQ PUSH2 0x72C JUMPI DUP1 PUSH4 0xD0B7830B EQ PUSH2 0x64E JUMPI DUP1 PUSH4 0xDB2E21BC EQ PUSH2 0x53A JUMPI DUP1 PUSH4 0xE0E7C8C5 EQ PUSH2 0x275 JUMPI DUP1 PUSH4 0xF2FDE38B EQ PUSH2 0x1E9 JUMPI DUP1 PUSH4 0xF470D5EC EQ PUSH2 0x1CA JUMPI PUSH4 0xF50AB0DE EQ PUSH2 0x1A3 JUMPI POP PUSH2 0x10 JUMP JUMPDEST DUP3 CALLVALUE PUSH2 0x1C6 JUMPI DUP2 PUSH1 0x3 NOT CALLDATASIZE ADD SLT PUSH2 0x1C6 JUMPI PUSH1 0x20 SWAP1 MLOAD PUSH9 0x56BC75E2D63100000 DUP2 MSTORE RETURN JUMPDEST POP DUP1 REVERT JUMPDEST POP DUP3 CALLVALUE PUSH2 0x1C6 JUMPI DUP2 PUSH1 0x3 NOT CALLDATASIZE ADD SLT PUSH2 0x1C6 JUMPI PUSH1 0x20 SWAP1 PUSH1 0x5 SLOAD SWAP1 MLOAD SWAP1 DUP2 MSTORE RETURN JUMPDEST POP SWAP2 SWAP1 CALLVALUE PUSH2 0x271 JUMPI PUSH1 0x20 CALLDATASIZE PUSH1 0x3 NOT ADD SLT PUSH2 0x271 JUMPI PUSH2 0x205 PUSH2 0x10DB JUMP JUMPDEST SWAP1 PUSH2 0x20E PUSH2 0x1210 JUMP JUMPDEST PUSH1 0x1 PUSH1 0x1 PUSH1 0xA0 SHL SUB SWAP2 DUP3 AND SWAP3 DUP4 ISZERO PUSH2 0x25B JUMPI POP POP DUP3 SLOAD PUSH1 0x1 PUSH1 0x1 PUSH1 0xA0 SHL SUB NOT DUP2 AND DUP4 OR DUP5 SSTORE AND PUSH32 0x8BE0079C531659141344CD1FD0A4F28419497F9722A3DAAFE3B4186F6B6457E0 DUP4 DUP1 LOG3 DUP1 RETURN JUMPDEST MLOAD PUSH4 0x1E4FBDF7 PUSH1 0xE0 SHL DUP2 MSTORE SWAP1 DUP2 ADD DUP5 SWAP1 MSTORE PUSH1 0x24 SWAP1 REVERT JUMPDEST DUP3 DUP1 REVERT JUMPDEST POP SWAP2 CALLVALUE PUSH2 0x271 JUMPI DUP1 PUSH1 0x3 NOT CALLDATASIZE ADD SLT PUSH2 0x271 JUMPI PUSH1 0x1 PUSH1 0x1 PUSH1 0xA0 SHL SUB PUSH1 0x24 DUP1 CALLDATALOAD DUP3 DUP2 AND SWAP5 DUP1 CALLDATALOAD SWAP5 SWAP4 SWAP3 DUP7 DUP4 SUB PUSH2 0x536 JUMPI DUP4 PUSH1 0x2 SLOAD AND CALLER SUB PUSH2 0x4EA JUMPI PUSH2 0x2B6 PUSH2 0x123C JUMP JUMPDEST DUP6 DUP9 MSTORE PUSH1 0x6 PUSH1 0x20 MSTORE DUP5 DUP9 KECCAK256 DUP5 PUSH1 0x1 DUP3 ADD SLOAD AND SWAP4 PUSH2 0x2D4 DUP6 ISZERO ISZERO PUSH2 0x10F6 JUMP JUMPDEST DUP4 DUP3 ADD SWAP6 DUP7 SLOAD SWAP6 PUSH1 0xFF DUP8 AND DUP7 DUP2 LT ISZERO PUSH2 0x4D8 JUMPI PUSH1 0x1 SUB PUSH2 0x496 JUMPI DUP11 EQ SWAP1 DUP2 ISZERO PUSH2 0x486 JUMPI JUMPDEST POP ISZERO PUSH2 0x436 JUMPI PUSH1 0x3 DUP3 ADD SLOAD SWAP6 DUP7 PUSH1 0x1 SHL SWAP7 DUP1 DUP9 DIV PUSH1 0x2 EQ SWAP1 ISZERO OR ISZERO PUSH2 0x424 JUMPI PUSH1 0x3 SLOAD DUP1 DUP9 MUL SWAP1 DUP9 DUP3 DIV EQ DUP9 ISZERO OR ISZERO PUSH2 0x412 JUMPI PUSH2 0x2710 SWAP1 DIV SWAP6 DUP7 DUP9 SUB SWAP8 DUP9 GT PUSH2 0x412 JUMPI PUSH1 0x1 PUSH1 0x1 PUSH1 0xA8 SHL SUB NOT AND PUSH1 0x8 SWAP3 SWAP1 SWAP3 SHL PUSH2 0x100 PUSH1 0x1 PUSH1 0xA8 SHL SUB AND SWAP2 SWAP1 SWAP2 OR PUSH1 0x2 OR SWAP1 SSTORE PUSH1 0x6 TIMESTAMP SWAP2 ADD SSTORE DUP2 SLOAD DUP4 DUP2 ADD DUP1 SWAP2 GT PUSH2 0x400 JUMPI DUP3 SSTORE DUP8 DUP1 DUP1 DUP1 DUP8 DUP12 GAS CALL PUSH2 0x381 PUSH2 0x11C5 JUMP JUMPDEST POP ISZERO PUSH2 0x3BE JUMPI POP POP DUP3 MLOAD SWAP2 DUP3 MSTORE PUSH1 0x20 DUP3 ADD MSTORE PUSH32 0x2688807C04698F616C747EE1209F4045F778E1079296E801B37686AB81E70910 SWAP2 SWAP1 LOG3 PUSH1 0x1 DUP1 SSTORE DUP1 RETURN JUMPDEST SWAP1 PUSH1 0x1F PUSH1 0x64 SWAP3 PUSH1 0x20 DUP8 MLOAD SWAP4 PUSH3 0x461BCD PUSH1 0xE5 SHL DUP6 MSTORE DUP5 ADD MSTORE DUP3 ADD MSTORE PUSH32 0x47656D426F74733A207061796F7574207472616E73666572206661696C656400 PUSH1 0x44 DUP3 ADD MSTORE REVERT JUMPDEST POP PUSH4 0x4E487B71 PUSH1 0xE0 SHL DUP9 MSTORE PUSH1 0x11 DUP3 MSTORE DUP8 REVERT JUMPDEST PUSH4 0x4E487B71 PUSH1 0xE0 SHL DUP13 MSTORE PUSH1 0x11 DUP7 MSTORE DUP5 DUP13 REVERT JUMPDEST PUSH4 0x4E487B71 PUSH1 0xE0 SHL DUP12 MSTORE PUSH1 0x11 DUP6 MSTORE DUP4 DUP12 REVERT JUMPDEST DUP7 MLOAD PUSH3 0x461BCD PUSH1 0xE5 SHL DUP2 MSTORE PUSH1 0x20 DUP2 DUP7 ADD MSTORE PUSH1 0x25 DUP2 DUP6 ADD MSTORE PUSH32 0x47656D426F74733A2077696E6E6572206D757374206265206120706172746963 PUSH1 0x44 DUP3 ADD MSTORE PUSH5 0x1A5C185B9D PUSH1 0xDA SHL PUSH1 0x64 DUP3 ADD MSTORE PUSH1 0x84 SWAP1 REVERT JUMPDEST SWAP1 POP PUSH1 0x2 DUP4 ADD SLOAD AND DUP10 EQ CODESIZE PUSH2 0x2F8 JUMP JUMPDEST DUP9 MLOAD PUSH3 0x461BCD PUSH1 0xE5 SHL DUP2 MSTORE PUSH1 0x20 DUP2 DUP9 ADD MSTORE PUSH1 0x1D DUP2 DUP8 ADD MSTORE PUSH32 0x47656D426F74733A20626174746C65206973206E6F7420616374697665000000 PUSH1 0x44 DUP3 ADD MSTORE PUSH1 0x64 SWAP1 REVERT JUMPDEST PUSH4 0x4E487B71 PUSH1 0xE0 SHL DUP14 MSTORE PUSH1 0x21 DUP8 MSTORE DUP6 DUP14 REVERT JUMPDEST SWAP1 PUSH1 0x21 PUSH1 0x84 SWAP3 PUSH1 0x20 DUP8 MLOAD SWAP4 PUSH3 0x461BCD PUSH1 0xE5 SHL DUP6 MSTORE DUP5 ADD MSTORE DUP3 ADD MSTORE PUSH32 0x47656D426F74733A2063616C6C6572206973206E6F7420746865206F7261636C PUSH1 0x44 DUP3 ADD MSTORE PUSH1 0x65 PUSH1 0xF8 SHL PUSH1 0x64 DUP3 ADD MSTORE REVERT JUMPDEST DUP8 DUP1 REVERT JUMPDEST POP SWAP2 SWAP1 CALLVALUE PUSH2 0x271 JUMPI DUP3 PUSH1 0x3 NOT CALLDATASIZE ADD SLT PUSH2 0x271 JUMPI PUSH2 0x555 PUSH2 0x1210 JUMP JUMPDEST PUSH2 0x55D PUSH2 0x123C JUMP JUMPDEST SELFBALANCE SWAP1 DUP2 ISZERO PUSH2 0x60B JUMPI PUSH1 0x1 DUP1 PUSH1 0xA0 SHL SUB SWAP1 DUP5 DUP1 DUP1 DUP1 DUP7 DUP7 DUP3 SLOAD AND GAS CALL PUSH2 0x580 PUSH2 0x11C5 JUMP JUMPDEST POP ISZERO PUSH2 0x5BC JUMPI POP PUSH32 0x5FAFA99D0643513820BE26656B45130B01E1C03062E1266BF36F88CBD3BD9695 SWAP2 PUSH1 0x20 SWAP2 DUP6 SLOAD AND SWAP4 MLOAD SWAP1 DUP2 MSTORE LOG2 PUSH1 0x1 DUP1 SSTORE DUP1 RETURN JUMPDEST PUSH1 0x84 SWAP1 PUSH1 0x20 DUP6 MLOAD SWAP2 PUSH3 0x461BCD PUSH1 0xE5 SHL DUP4 MSTORE DUP3 ADD MSTORE PUSH1 0x24 DUP1 DUP3 ADD MSTORE PUSH32 0x47656D426F74733A20656D657267656E6379207769746864726177616C206661 PUSH1 0x44 DUP3 ADD MSTORE PUSH4 0x1A5B1959 PUSH1 0xE2 SHL PUSH1 0x64 DUP3 ADD MSTORE REVERT JUMPDEST PUSH1 0x64 SWAP1 PUSH1 0x20 DUP5 MLOAD SWAP2 PUSH3 0x461BCD PUSH1 0xE5 SHL DUP4 MSTORE DUP3 ADD MSTORE PUSH1 0x1C PUSH1 0x24 DUP3 ADD MSTORE PUSH32 0x47656D426F74733A206E6F7468696E6720746F20776974686472617700000000 PUSH1 0x44 DUP3 ADD MSTORE REVERT JUMPDEST POP SWAP2 CALLVALUE PUSH2 0x271 JUMPI DUP3 PUSH1 0x3 NOT CALLDATASIZE ADD SLT PUSH2 0x271 JUMPI PUSH2 0x668 PUSH2 0x1210 JUMP JUMPDEST PUSH2 0x670 PUSH2 0x123C JUMP JUMPDEST DUP2 SLOAD DUP1 ISZERO PUSH2 0x6E9 JUMPI DUP4 DUP4 SSTORE DUP4 SLOAD DUP5 SWAP2 DUP3 SWAP2 DUP3 SWAP2 DUP3 SWAP2 PUSH1 0x1 PUSH1 0x1 PUSH1 0xA0 SHL SUB AND GAS CALL PUSH2 0x698 PUSH2 0x11C5 JUMP JUMPDEST POP ISZERO PUSH2 0x6A6 JUMPI DUP3 PUSH1 0x1 DUP1 SSTORE DUP1 RETURN JUMPDEST SWAP1 PUSH1 0x20 PUSH1 0x64 SWAP3 MLOAD SWAP2 PUSH3 0x461BCD PUSH1 0xE5 SHL DUP4 MSTORE DUP3 ADD MSTORE PUSH1 0x1A PUSH1 0x24 DUP3 ADD MSTORE PUSH32 0x47656D426F74733A207769746864726177616C206661696C6564000000000000 PUSH1 0x44 DUP3 ADD MSTORE REVERT JUMPDEST DUP2 MLOAD PUSH3 0x461BCD PUSH1 0xE5 SHL DUP2 MSTORE PUSH1 0x20 DUP2 DUP6 ADD MSTORE PUSH1 0x1C PUSH1 0x24 DUP3 ADD MSTORE PUSH32 0x47656D426F74733A206E6F206665657320746F20776974686472617700000000 PUSH1 0x44 DUP3 ADD MSTORE PUSH1 0x64 SWAP1 REVERT JUMPDEST POP SWAP2 SWAP1 CALLVALUE PUSH2 0x271 JUMPI DUP3 PUSH1 0x3 NOT CALLDATASIZE ADD SLT PUSH2 0x271 JUMPI PUSH1 0x20 SWAP3 POP SLOAD SWAP1 MLOAD SWAP1 DUP2 MSTORE RETURN JUMPDEST POP DUP3 CALLVALUE PUSH2 0x1C6 JUMPI DUP2 PUSH1 0x3 NOT CALLDATASIZE ADD SLT PUSH2 0x1C6 JUMPI SWAP1 SLOAD SWAP1 MLOAD PUSH1 0x1 PUSH1 0x1 PUSH1 0xA0 SHL SUB SWAP1 SWAP2 AND DUP2 MSTORE PUSH1 0x20 SWAP1 RETURN JUMPDEST POP DUP3 CALLVALUE PUSH2 0x1C6 JUMPI DUP2 PUSH1 0x3 NOT CALLDATASIZE ADD SLT PUSH2 0x1C6 JUMPI PUSH1 0x20 SWAP1 MLOAD PUSH7 0x38D7EA4C68000 DUP2 MSTORE RETURN JUMPDEST POP DUP3 CALLVALUE PUSH2 0x1C6 JUMPI DUP2 PUSH1 0x3 NOT CALLDATASIZE ADD SLT PUSH2 0x1C6 JUMPI PUSH1 0x2 SLOAD SWAP1 MLOAD PUSH1 0x1 PUSH1 0x1 PUSH1 0xA0 SHL SUB SWAP1 SWAP2 AND DUP2 MSTORE PUSH1 0x20 SWAP1 RETURN JUMPDEST POP SWAP2 SWAP1 CALLVALUE PUSH2 0x271 JUMPI PUSH1 0x20 CALLDATASIZE PUSH1 0x3 NOT ADD SLT PUSH2 0x271 JUMPI PUSH2 0x7DA PUSH2 0x10DB JUMP JUMPDEST SWAP1 PUSH2 0x7E3 PUSH2 0x1210 JUMP JUMPDEST PUSH1 0x1 PUSH1 0x1 PUSH1 0xA0 SHL SUB SWAP2 DUP3 AND SWAP3 DUP4 ISZERO PUSH2 0x834 JUMPI POP POP PUSH1 0x2 SLOAD DUP3 PUSH1 0x1 PUSH1 0x1 PUSH1 0x60 SHL SUB PUSH1 0xA0 SHL DUP3 AND OR PUSH1 0x2 SSTORE AND PUSH32 0x78C3B417DADF69374A59793B829C52001247130433427049317BDE56607B1B7 DUP4 DUP1 LOG3 DUP1 RETURN JUMPDEST SWAP1 PUSH1 0x20 PUSH1 0x64 SWAP3 MLOAD SWAP2 PUSH3 0x461BCD PUSH1 0xE5 SHL DUP4 MSTORE DUP3 ADD MSTORE PUSH1 0x1F PUSH1 0x24 DUP3 ADD MSTORE PUSH32 0x47656D426F74733A206F7261636C65206973207A65726F206164647265737300 PUSH1 0x44 DUP3 ADD MSTORE REVERT JUMPDEST POP CALLVALUE PUSH2 0x8D1 JUMPI DUP1 PUSH1 0x3 NOT CALLDATASIZE ADD SLT PUSH2 0x8D1 JUMPI PUSH2 0x890 PUSH2 0x1210 JUMP JUMPDEST DUP1 SLOAD PUSH1 0x1 PUSH1 0x1 PUSH1 0xA0 SHL SUB NOT DUP2 AND DUP3 SSTORE DUP2 SWAP1 PUSH1 0x1 PUSH1 0x1 PUSH1 0xA0 SHL SUB AND PUSH32 0x8BE0079C531659141344CD1FD0A4F28419497F9722A3DAAFE3B4186F6B6457E0 DUP3 DUP1 LOG3 DUP1 RETURN JUMPDEST DUP1 REVERT JUMPDEST SWAP1 POP DUP4 SWAP2 CALLVALUE PUSH2 0x8D1 JUMPI PUSH1 0x20 DUP1 PUSH1 0x3 NOT CALLDATASIZE ADD SLT PUSH2 0x1C6 JUMPI DUP5 CALLDATALOAD SWAP2 DUP1 DUP5 PUSH2 0x8F7 PUSH2 0x118E JUMP JUMPDEST DUP3 DUP2 MSTORE DUP3 DUP6 DUP3 ADD MSTORE DUP3 DUP9 DUP3 ADD MSTORE DUP3 PUSH1 0x60 DUP3 ADD MSTORE DUP3 PUSH1 0x80 DUP3 ADD MSTORE DUP3 PUSH1 0xA0 DUP3 ADD MSTORE DUP3 PUSH1 0xC0 DUP3 ADD MSTORE ADD MSTORE DUP3 DUP2 MSTORE PUSH1 0x6 DUP3 MSTORE PUSH1 0x1 DUP1 PUSH1 0xA0 SHL SUB SWAP3 DUP4 PUSH1 0x1 DUP8 DUP5 KECCAK256 ADD SLOAD AND ISZERO PUSH2 0xA1A JUMPI DUP2 MSTORE PUSH1 0x6 DUP3 MSTORE DUP5 DUP2 KECCAK256 SWAP2 PUSH2 0x94D PUSH2 0x118E JUMP JUMPDEST SWAP6 DUP4 SLOAD DUP8 MSTORE DUP5 PUSH1 0x1 DUP6 ADD SLOAD AND SWAP2 DUP1 DUP9 ADD SWAP3 DUP4 MSTORE DUP6 PUSH1 0x2 DUP7 ADD SLOAD AND SWAP1 DUP3 DUP10 ADD SWAP2 DUP3 MSTORE PUSH1 0x3 DUP7 ADD SLOAD SWAP4 PUSH1 0x60 DUP11 ADD SWAP5 DUP6 MSTORE DUP11 DUP8 ADD SLOAD SWAP7 PUSH1 0xFF DUP9 AND PUSH1 0x80 DUP13 ADD SWAP8 DUP14 DUP3 LT ISZERO PUSH2 0xA07 JUMPI POP PUSH2 0x9F3 DUP9 PUSH2 0x100 SWAP9 DUP15 SWAP9 DUP14 DUP16 SWAP10 DUP12 SWAP10 DUP16 SWAP8 DUP12 SWAP11 DUP14 PUSH1 0x6 DUP7 SWAP13 DUP8 DUP16 PUSH1 0xA0 SWAP1 DUP3 SWAP8 DUP15 MSTORE ADD SWAP14 PUSH1 0x8 SHR AND DUP14 MSTORE PUSH1 0xC0 PUSH1 0x5 DUP3 ADD SLOAD SWAP16 ADD SWAP15 DUP16 MSTORE ADD SLOAD SWAP14 ADD SWAP13 DUP14 MSTORE DUP6 MLOAD SWAP15 DUP16 SWAP1 MLOAD SWAP1 MSTORE MLOAD AND SWAP1 DUP14 ADD MSTORE MLOAD AND SWAP1 DUP11 ADD MSTORE MLOAD PUSH1 0x60 DUP10 ADD MSTORE MLOAD PUSH1 0x80 DUP9 ADD SWAP1 PUSH2 0x10B8 JUMP JUMPDEST MLOAD AND PUSH1 0xA0 DUP6 ADD MSTORE MLOAD PUSH1 0xC0 DUP5 ADD MSTORE MLOAD SWAP1 DUP3 ADD MSTORE RETURN JUMPDEST PUSH4 0x4E487B71 PUSH1 0xE0 SHL DUP2 MSTORE PUSH1 0x21 DUP15 MSTORE PUSH1 0x24 SWAP1 REVERT JUMPDEST DUP6 MLOAD PUSH3 0x461BCD PUSH1 0xE5 SHL DUP2 MSTORE DUP1 DUP9 ADD DUP5 SWAP1 MSTORE PUSH1 0x19 PUSH1 0x24 DUP3 ADD MSTORE PUSH32 0x47656D426F74733A20626174746C65206E6F7420666F756E6400000000000000 PUSH1 0x44 DUP3 ADD MSTORE PUSH1 0x64 SWAP1 REVERT JUMPDEST DUP3 DUP6 DUP6 CALLVALUE PUSH2 0x271 JUMPI DUP3 PUSH1 0x3 NOT CALLDATASIZE ADD SLT PUSH2 0x271 JUMPI PUSH1 0x20 SWAP3 POP SLOAD SWAP1 MLOAD SWAP1 DUP2 MSTORE RETURN JUMPDEST DUP5 SWAP2 POP DUP3 PUSH1 0x3 NOT CALLDATASIZE ADD SLT PUSH2 0x271 JUMPI PUSH2 0xA92 PUSH2 0x123C JUMP JUMPDEST PUSH7 0x38D7EA4C68000 CALLVALUE LT PUSH2 0xC32 JUMPI PUSH9 0x56BC75E2D63100000 CALLVALUE GT PUSH2 0xBEF JUMPI PUSH1 0x5 SLOAD SWAP3 PUSH1 0x0 NOT DUP5 EQ PUSH2 0xBDC JUMPI PUSH1 0x1 DUP5 ADD PUSH1 0x5 SSTORE PUSH2 0xACC PUSH2 0x118E JUMP JUMPDEST SWAP2 DUP5 DUP4 MSTORE PUSH1 0x20 DUP4 ADD SWAP2 CALLER DUP4 MSTORE DUP5 DUP5 ADD SWAP3 DUP2 DUP5 MSTORE PUSH1 0x60 DUP6 ADD CALLVALUE DUP2 MSTORE PUSH1 0x80 DUP7 ADD SWAP3 DUP1 DUP5 MSTORE PUSH1 0xA0 DUP8 ADD SWAP2 DUP2 DUP4 MSTORE PUSH1 0xC0 DUP9 ADD SWAP6 TIMESTAMP DUP8 MSTORE DUP9 ADD SWAP7 DUP3 DUP9 MSTORE DUP11 DUP4 MSTORE PUSH1 0x6 PUSH1 0x20 MSTORE DUP10 DUP4 KECCAK256 SWAP9 MLOAD DUP10 SSTORE PUSH1 0x1 DUP10 ADD PUSH1 0x1 DUP1 PUSH1 0xA0 SHL SUB DUP1 SWAP7 MLOAD AND SWAP1 PUSH1 0x1 PUSH1 0x1 PUSH1 0x60 SHL SUB PUSH1 0xA0 SHL SWAP2 DUP3 DUP3 SLOAD AND OR SWAP1 SSTORE DUP6 PUSH1 0x2 DUP12 ADD SWAP3 MLOAD AND SWAP1 DUP3 SLOAD AND OR SWAP1 SSTORE MLOAD PUSH1 0x3 DUP9 ADD SSTORE DUP10 DUP8 ADD SWAP4 MLOAD SWAP1 DUP11 DUP3 LT ISZERO PUSH2 0xBC9 JUMPI POP DUP4 SLOAD SWAP2 MLOAD PUSH1 0x1 PUSH1 0x1 PUSH1 0xA8 SHL SUB NOT SWAP1 SWAP3 AND PUSH1 0xFF SWAP1 SWAP2 AND OR SWAP2 AND PUSH1 0x8 SHL PUSH2 0x100 PUSH1 0x1 PUSH1 0xA8 SHL SUB AND OR SWAP1 SSTORE PUSH1 0x20 SWAP6 POP PUSH1 0x6 SWAP2 SWAP1 MLOAD PUSH1 0x5 DUP5 ADD SSTORE MLOAD SWAP2 ADD SSTORE DUP1 MLOAD CALLVALUE DUP2 MSTORE DUP3 PUSH32 0xCD51DF591E2F9319B98D783B63C675C8AB2E63D44101DA9E5A12AF2B1FCAB479 DUP6 CALLER SWAP4 LOG3 PUSH1 0x1 DUP1 SSTORE MLOAD SWAP1 DUP2 MSTORE RETURN JUMPDEST PUSH4 0x4E487B71 PUSH1 0xE0 SHL DUP2 MSTORE PUSH1 0x21 DUP12 MSTORE PUSH1 0x24 SWAP1 REVERT JUMPDEST PUSH4 0x4E487B71 PUSH1 0xE0 SHL DUP2 MSTORE PUSH1 0x11 DUP6 MSTORE PUSH1 0x24 SWAP1 REVERT JUMPDEST DUP2 MLOAD PUSH3 0x461BCD PUSH1 0xE5 SHL DUP2 MSTORE PUSH1 0x20 DUP2 DUP7 ADD MSTORE PUSH1 0x1B PUSH1 0x24 DUP3 ADD MSTORE PUSH32 0x47656D426F74733A20656E7472792066656520746F6F20686967680000000000 PUSH1 0x44 DUP3 ADD MSTORE PUSH1 0x64 SWAP1 REVERT JUMPDEST DUP2 MLOAD PUSH3 0x461BCD PUSH1 0xE5 SHL DUP2 MSTORE PUSH1 0x20 DUP2 DUP7 ADD MSTORE PUSH1 0x1A PUSH1 0x24 DUP3 ADD MSTORE PUSH32 0x47656D426F74733A20656E7472792066656520746F6F206C6F77000000000000 PUSH1 0x44 DUP3 ADD MSTORE PUSH1 0x64 SWAP1 REVERT JUMPDEST DUP5 DUP5 DUP5 SWAP3 CALLVALUE PUSH2 0xCFD JUMPI PUSH1 0x20 CALLDATASIZE PUSH1 0x3 NOT ADD SLT PUSH2 0xCFD JUMPI DUP3 PUSH2 0x100 SWAP5 DUP4 CALLDATALOAD DUP2 MSTORE PUSH1 0x6 PUSH1 0x20 MSTORE KECCAK256 DUP1 SLOAD SWAP4 PUSH1 0x1 DUP1 PUSH1 0xA0 SHL SUB SWAP1 DUP2 PUSH1 0x1 DUP5 ADD SLOAD AND SWAP5 DUP3 PUSH1 0x2 DUP6 ADD SLOAD AND PUSH1 0x3 DUP6 ADD SLOAD SWAP2 DUP6 ADD SLOAD SWAP3 PUSH1 0x6 PUSH1 0x5 DUP8 ADD SLOAD SWAP7 ADD SLOAD SWAP8 DUP2 MLOAD SWAP10 DUP11 MSTORE PUSH1 0x20 DUP11 ADD MSTORE DUP9 ADD MSTORE PUSH1 0x60 DUP8 ADD MSTORE PUSH2 0xCEA PUSH1 0x80 DUP8 ADD PUSH1 0xFF DUP4 AND PUSH2 0x10B8 JUMP JUMPDEST PUSH1 0x8 SHR AND PUSH1 0xA0 DUP6 ADD MSTORE PUSH1 0xC0 DUP5 ADD MSTORE DUP3 ADD MSTORE RETURN JUMPDEST DUP4 DUP1 REVERT JUMPDEST DUP3 DUP6 DUP6 CALLVALUE PUSH2 0x271 JUMPI PUSH1 0x20 DUP1 PUSH1 0x3 NOT CALLDATASIZE ADD SLT PUSH2 0xCFD JUMPI DUP2 CALLDATALOAD SWAP2 PUSH2 0xD21 PUSH2 0x123C JUMP JUMPDEST DUP3 DUP6 MSTORE PUSH1 0x6 DUP3 MSTORE DUP4 DUP6 KECCAK256 PUSH1 0x1 DUP2 ADD DUP1 SLOAD PUSH1 0x1 PUSH1 0x1 PUSH1 0xA0 SHL SUB SWAP4 SWAP2 SWAP3 SWAP1 DUP5 AND PUSH2 0xD4A DUP2 ISZERO ISZERO PUSH2 0x10F6 JUMP JUMPDEST DUP3 DUP3 ADD DUP1 SLOAD SWAP3 PUSH1 0xFF DUP5 AND DUP6 DUP2 LT ISZERO PUSH2 0xE50 JUMPI PUSH2 0xD66 SWAP1 ISZERO PUSH2 0x1142 JUMP JUMPDEST DUP3 CALLER SUB PUSH2 0xE0F JUMPI DUP11 PUSH1 0x3 SWAP8 SWAP7 SWAP6 SWAP5 DUP2 SWAP5 DUP3 SWAP5 DUP11 DUP5 SWAP6 ADD SLOAD SWAP11 DUP12 SWAP4 PUSH1 0xFF NOT AND OR SWAP1 SSTORE GAS CALL PUSH2 0xD91 PUSH2 0x11C5 JUMP JUMPDEST POP ISZERO PUSH2 0xDCC JUMPI POP SWAP1 PUSH32 0x571A3CD76F8FF2CEAE1C97DC5831982B1EEA4BDEE67EC984A201323729595A33 SWAP4 SWAP3 SWAP2 SLOAD AND SWAP5 MLOAD SWAP1 DUP2 MSTORE LOG3 PUSH1 0x1 DUP1 SSTORE DUP1 RETURN JUMPDEST DUP7 MLOAD PUSH3 0x461BCD PUSH1 0xE5 SHL DUP2 MSTORE SWAP1 DUP2 ADD DUP6 SWAP1 MSTORE PUSH1 0x1F PUSH1 0x24 DUP3 ADD MSTORE PUSH32 0x47656D426F74733A20726566756E64207472616E73666572206661696C656400 PUSH1 0x44 DUP3 ADD MSTORE PUSH1 0x64 SWAP1 REVERT JUMPDEST PUSH1 0x64 DUP6 DUP10 DUP1 DUP14 MLOAD SWAP3 PUSH3 0x461BCD PUSH1 0xE5 SHL DUP5 MSTORE DUP4 ADD MSTORE PUSH1 0x24 DUP3 ADD MSTORE PUSH32 0x47656D426F74733A206F6E6C792063726561746F722063616E2063616E63656C PUSH1 0x44 DUP3 ADD MSTORE REVERT JUMPDEST PUSH4 0x4E487B71 PUSH1 0xE0 SHL DUP13 MSTORE PUSH1 0x21 DUP7 MSTORE PUSH1 0x24 DUP13 REVERT JUMPDEST POP POP SWAP2 PUSH1 0x20 PUSH1 0x3 NOT CALLDATASIZE ADD SLT PUSH2 0x271 JUMPI DUP2 CALLDATALOAD SWAP2 PUSH2 0xE7D PUSH2 0x123C JUMP JUMPDEST DUP3 DUP5 MSTORE PUSH1 0x6 PUSH1 0x20 MSTORE DUP2 DUP5 KECCAK256 PUSH1 0x1 DUP2 ADD SLOAD PUSH1 0x1 PUSH1 0x1 PUSH1 0xA0 SHL SUB AND SWAP2 PUSH2 0xEA2 DUP4 ISZERO ISZERO PUSH2 0x10F6 JUMP JUMPDEST DUP1 DUP3 ADD SWAP4 DUP5 SLOAD SWAP4 PUSH1 0xFF DUP6 AND DUP4 DUP2 LT ISZERO PUSH2 0xFA5 JUMPI PUSH2 0xEBF SWAP1 ISZERO PUSH2 0x1142 JUMP JUMPDEST CALLER EQ PUSH2 0xF62 JUMPI PUSH1 0x3 DUP4 ADD SLOAD CALLVALUE SUB PUSH2 0xF1F JUMPI POP POP SWAP1 PUSH1 0x2 PUSH1 0x1 SWAP3 ADD CALLER PUSH1 0x1 PUSH1 0x1 PUSH1 0x60 SHL SUB PUSH1 0xA0 SHL DUP3 SLOAD AND OR SWAP1 SSTORE PUSH1 0xFF NOT AND OR SWAP1 SSTORE CALLER SWAP1 PUSH32 0x8C6ACCC40F0B31B2B4FA26BCE8F25592CEDBE9E9A6A9323B56188D02ECEED53D DUP4 DUP1 LOG3 PUSH1 0x1 DUP1 SSTORE DUP1 RETURN JUMPDEST SWAP1 PUSH1 0x20 PUSH1 0x64 SWAP3 MLOAD SWAP2 PUSH3 0x461BCD PUSH1 0xE5 SHL DUP4 MSTORE DUP3 ADD MSTORE PUSH1 0x1B PUSH1 0x24 DUP3 ADD MSTORE PUSH32 0x47656D426F74733A20656E74727920666565206D69736D617463680000000000 PUSH1 0x44 DUP3 ADD MSTORE REVERT JUMPDEST SWAP1 PUSH1 0x20 PUSH1 0x64 SWAP3 MLOAD SWAP2 PUSH3 0x461BCD PUSH1 0xE5 SHL DUP4 MSTORE DUP3 ADD MSTORE PUSH1 0x1F PUSH1 0x24 DUP3 ADD MSTORE PUSH32 0x47656D426F74733A2063616E6E6F74206A6F696E206F776E20626174746C6500 PUSH1 0x44 DUP3 ADD MSTORE REVERT JUMPDEST PUSH4 0x4E487B71 PUSH1 0xE0 SHL DUP10 MSTORE PUSH1 0x21 DUP5 MSTORE PUSH1 0x24 DUP10 REVERT JUMPDEST DUP3 DUP6 CALLVALUE PUSH2 0x1C6 JUMPI DUP2 PUSH1 0x3 NOT CALLDATASIZE ADD SLT PUSH2 0x1C6 JUMPI PUSH1 0x20 SWAP1 MLOAD PUSH2 0x3E8 DUP2 MSTORE RETURN JUMPDEST DUP3 DUP6 CALLVALUE PUSH2 0x1C6 JUMPI DUP2 PUSH1 0x3 NOT CALLDATASIZE ADD SLT PUSH2 0x1C6 JUMPI PUSH1 0x20 SWAP1 PUSH1 0x5 SLOAD SWAP1 MLOAD SWAP1 DUP2 MSTORE RETURN JUMPDEST DUP3 DUP6 CALLVALUE PUSH2 0x1C6 JUMPI DUP2 PUSH1 0x3 NOT CALLDATASIZE ADD SLT PUSH2 0x1C6 JUMPI PUSH1 0x20 SWAP1 PUSH1 0x3 SLOAD SWAP1 MLOAD SWAP1 DUP2 MSTORE RETURN JUMPDEST DUP3 DUP6 DUP6 CALLVALUE PUSH2 0x271 JUMPI PUSH1 0x20 CALLDATASIZE PUSH1 0x3 NOT ADD SLT PUSH2 0x271 JUMPI DUP1 CALLDATALOAD SWAP1 PUSH2 0x1032 PUSH2 0x1210 JUMP JUMPDEST PUSH2 0x3E8 DUP3 GT PUSH2 0x1075 JUMPI POP SWAP1 PUSH32 0xD347E206F25A89B917FC9482F1A2D294D749BAA4DC9BDE7FB495EE11FE491643 SWAP2 PUSH1 0x3 SLOAD SWAP1 DUP1 PUSH1 0x3 SSTORE DUP3 MLOAD SWAP2 DUP3 MSTORE PUSH1 0x20 DUP3 ADD MSTORE LOG1 DUP1 RETURN JUMPDEST PUSH1 0x64 SWAP1 PUSH1 0x20 DUP5 MLOAD SWAP2 PUSH3 0x461BCD PUSH1 0xE5 SHL DUP4 MSTORE DUP3 ADD MSTORE PUSH1 0x18 PUSH1 0x24 DUP3 ADD MSTORE PUSH32 0x47656D426F74733A206665652065786365656473203130250000000000000000 PUSH1 0x44 DUP3 ADD MSTORE REVERT JUMPDEST SWAP1 PUSH1 0x4 DUP3 LT ISZERO PUSH2 0x10C5 JUMPI MSTORE JUMP JUMPDEST PUSH4 0x4E487B71 PUSH1 0xE0 SHL PUSH1 0x0 MSTORE PUSH1 0x21 PUSH1 0x4 MSTORE PUSH1 0x24 PUSH1 0x0 REVERT JUMPDEST PUSH1 0x4 CALLDATALOAD SWAP1 PUSH1 0x1 PUSH1 0x1 PUSH1 0xA0 SHL SUB DUP3 AND DUP3 SUB PUSH2 0x10F1 JUMPI JUMP JUMPDEST PUSH1 0x0 DUP1 REVERT JUMPDEST ISZERO PUSH2 0x10FD JUMPI JUMP JUMPDEST PUSH1 0x40 MLOAD PUSH3 0x461BCD PUSH1 0xE5 SHL DUP2 MSTORE PUSH1 0x20 PUSH1 0x4 DUP3 ADD MSTORE PUSH1 0x1E PUSH1 0x24 DUP3 ADD MSTORE PUSH32 0x47656D426F74733A20626174746C6520646F6573206E6F742065786973740000 PUSH1 0x44 DUP3 ADD MSTORE PUSH1 0x64 SWAP1 REVERT JUMPDEST ISZERO PUSH2 0x1149 JUMPI JUMP JUMPDEST PUSH1 0x40 MLOAD PUSH3 0x461BCD PUSH1 0xE5 SHL DUP2 MSTORE PUSH1 0x20 PUSH1 0x4 DUP3 ADD MSTORE PUSH1 0x1B PUSH1 0x24 DUP3 ADD MSTORE PUSH32 0x47656D426F74733A20626174746C65206973206E6F74206F70656E0000000000 PUSH1 0x44 DUP3 ADD MSTORE PUSH1 0x64 SWAP1 REVERT JUMPDEST PUSH1 0x40 MLOAD SWAP1 PUSH2 0x100 DUP3 ADD DUP3 DUP2 LT PUSH8 0xFFFFFFFFFFFFFFFF DUP3 GT OR PUSH2 0x11AF JUMPI PUSH1 0x40 MSTORE JUMP JUMPDEST PUSH4 0x4E487B71 PUSH1 0xE0 SHL PUSH1 0x0 MSTORE PUSH1 0x41 PUSH1 0x4 MSTORE PUSH1 0x24 PUSH1 0x0 REVERT JUMPDEST RETURNDATASIZE ISZERO PUSH2 0x120B JUMPI PUSH8 0xFFFFFFFFFFFFFFFF SWAP1 RETURNDATASIZE DUP3 DUP2 GT PUSH2 0x11AF JUMPI PUSH1 0x40 MLOAD SWAP3 PUSH1 0x1F DUP3 ADD PUSH1 0x1F NOT SWAP1 DUP2 AND PUSH1 0x3F ADD AND DUP5 ADD SWAP1 DUP2 GT DUP5 DUP3 LT OR PUSH2 0x11AF JUMPI PUSH1 0x40 MSTORE DUP3 MSTORE RETURNDATASIZE PUSH1 0x0 PUSH1 0x20 DUP5 ADD RETURNDATACOPY JUMP JUMPDEST PUSH1 0x60 SWAP1 JUMP JUMPDEST PUSH1 0x0 SLOAD PUSH1 0x1 PUSH1 0x1 PUSH1 0xA0 SHL SUB AND CALLER SUB PUSH2 0x1224 JUMPI JUMP JUMPDEST PUSH1 0x40 MLOAD PUSH4 0x118CDAA7 PUSH1 0xE0 SHL DUP2 MSTORE CALLER PUSH1 0x4 DUP3 ADD MSTORE PUSH1 0x24 SWAP1 REVERT JUMPDEST PUSH1 0x2 PUSH1 0x1 SLOAD EQ PUSH2 0x124D JUMPI PUSH1 0x2 PUSH1 0x1 SSTORE JUMP JUMPDEST PUSH1 0x40 MLOAD PUSH4 0x3EE5AEB5 PUSH1 0xE0 SHL DUP2 MSTORE PUSH1 0x4 SWAP1 REVERT INVALID LOG2 PUSH5 0x6970667358 0x22 SLT KECCAK256 0xF6 0xD3 KECCAK256 SWAP8 SWAP9 REVERT DUP4 CALLDATALOAD 0x4D CALL CALLDATACOPY 0xC9 PUSH27 0x60ED67C03DEEA8CFF01B9A98DB7BE79469D8E464736F6C63430008 XOR STOP CALLER "},"methodIdentifiers":{"MAX_ENTRY_FEE()":"f50ab0de","MAX_PLATFORM_FEE()":"3998a681","MIN_ENTRY_FEE()":"81883759","battles(uint256)":"606d2e96","cancelBattle(uint256)":"4c4c447e","createBattle()":"61cb1212","emergencyWithdraw()":"db2e21bc","getBattle(uint256)":"6dd0ce7a","getBattleCount()":"f470d5ec","getPlatformBalance()":"ba9bf757","joinBattle(uint256)":"4a042f0d","nextBattleId()":"31a6ff66","oracle()":"7dc0d1d0","owner()":"8da5cb5b","platformBalance()":"62a5dbbc","platformFeeBps()":"22dcd13e","renounceOwnership()":"715018a6","resolveBattle(uint256,address)":"e0e7c8c5","setOracle(address)":"7adbf973","setPlatformFee(uint256)":"12e8e2c3","transferOwnership(address)":"f2fde38b","withdrawPlatformFees()":"d0b7830b"}}}}}