{
  "_format": "hh-sol-artifact-1",
  "contractName": "GemBotsLearning",
  "sourceName": "contracts/GemBotsLearning.sol",
  "abi": [
    {
      "inputs": [
        {
          "internalType": "address",
          "name": "_nfaContract",
          "type": "address"
        }
      ],
      "stateMutability": "nonpayable",
      "type": "constructor"
    },
    {
      "inputs": [],
      "name": "InvalidRoot",
      "type": "error"
    },
    {
      "inputs": [],
      "name": "NotAuthorized",
      "type": "error"
    },
    {
      "inputs": [
        {
          "internalType": "address",
          "name": "owner",
          "type": "address"
        }
      ],
      "name": "OwnableInvalidOwner",
      "type": "error"
    },
    {
      "inputs": [
        {
          "internalType": "address",
          "name": "account",
          "type": "address"
        }
      ],
      "name": "OwnableUnauthorizedAccount",
      "type": "error"
    },
    {
      "inputs": [],
      "name": "RootMismatch",
      "type": "error"
    },
    {
      "anonymous": false,
      "inputs": [
        {
          "indexed": true,
          "internalType": "uint256",
          "name": "tokenId",
          "type": "uint256"
        },
        {
          "indexed": false,
          "internalType": "address",
          "name": "module",
          "type": "address"
        }
      ],
      "name": "LearningModuleRegistered",
      "type": "event"
    },
    {
      "anonymous": false,
      "inputs": [
        {
          "indexed": true,
          "internalType": "uint256",
          "name": "tokenId",
          "type": "uint256"
        },
        {
          "indexed": false,
          "internalType": "bytes32",
          "name": "oldRoot",
          "type": "bytes32"
        },
        {
          "indexed": false,
          "internalType": "bytes32",
          "name": "newRoot",
          "type": "bytes32"
        }
      ],
      "name": "LearningUpdated",
      "type": "event"
    },
    {
      "anonymous": false,
      "inputs": [
        {
          "indexed": true,
          "internalType": "address",
          "name": "previousOwner",
          "type": "address"
        },
        {
          "indexed": true,
          "internalType": "address",
          "name": "newOwner",
          "type": "address"
        }
      ],
      "name": "OwnershipTransferred",
      "type": "event"
    },
    {
      "inputs": [
        {
          "internalType": "uint256[]",
          "name": "tokenIds",
          "type": "uint256[]"
        },
        {
          "internalType": "bytes32[]",
          "name": "newRoots",
          "type": "bytes32[]"
        }
      ],
      "name": "batchUpdateRoots",
      "outputs": [],
      "stateMutability": "nonpayable",
      "type": "function"
    },
    {
      "inputs": [
        {
          "internalType": "uint256",
          "name": "tokenId",
          "type": "uint256"
        }
      ],
      "name": "getLearningMetrics",
      "outputs": [
        {
          "components": [
            {
              "internalType": "uint256",
              "name": "totalInteractions",
              "type": "uint256"
            },
            {
              "internalType": "uint256",
              "name": "learningEvents",
              "type": "uint256"
            },
            {
              "internalType": "uint256",
              "name": "lastUpdateTimestamp",
              "type": "uint256"
            },
            {
              "internalType": "uint256",
              "name": "learningVelocity",
              "type": "uint256"
            },
            {
              "internalType": "uint256",
              "name": "confidenceScore",
              "type": "uint256"
            }
          ],
          "internalType": "struct ILearningModule.LearningMetrics",
          "name": "",
          "type": "tuple"
        }
      ],
      "stateMutability": "view",
      "type": "function"
    },
    {
      "inputs": [
        {
          "internalType": "uint256",
          "name": "tokenId",
          "type": "uint256"
        }
      ],
      "name": "getLearningRoot",
      "outputs": [
        {
          "internalType": "bytes32",
          "name": "",
          "type": "bytes32"
        }
      ],
      "stateMutability": "view",
      "type": "function"
    },
    {
      "inputs": [],
      "name": "nfaContract",
      "outputs": [
        {
          "internalType": "address",
          "name": "",
          "type": "address"
        }
      ],
      "stateMutability": "view",
      "type": "function"
    },
    {
      "inputs": [],
      "name": "owner",
      "outputs": [
        {
          "internalType": "address",
          "name": "",
          "type": "address"
        }
      ],
      "stateMutability": "view",
      "type": "function"
    },
    {
      "inputs": [
        {
          "internalType": "uint256",
          "name": "tokenId",
          "type": "uint256"
        }
      ],
      "name": "recordInteraction",
      "outputs": [],
      "stateMutability": "nonpayable",
      "type": "function"
    },
    {
      "inputs": [],
      "name": "renounceOwnership",
      "outputs": [],
      "stateMutability": "nonpayable",
      "type": "function"
    },
    {
      "inputs": [
        {
          "internalType": "address",
          "name": "_nfa",
          "type": "address"
        }
      ],
      "name": "setNFAContract",
      "outputs": [],
      "stateMutability": "nonpayable",
      "type": "function"
    },
    {
      "inputs": [
        {
          "internalType": "address",
          "name": "_updater",
          "type": "address"
        },
        {
          "internalType": "bool",
          "name": "_authorized",
          "type": "bool"
        }
      ],
      "name": "setUpdater",
      "outputs": [],
      "stateMutability": "nonpayable",
      "type": "function"
    },
    {
      "inputs": [
        {
          "internalType": "address",
          "name": "newOwner",
          "type": "address"
        }
      ],
      "name": "transferOwnership",
      "outputs": [],
      "stateMutability": "nonpayable",
      "type": "function"
    },
    {
      "inputs": [
        {
          "internalType": "uint256",
          "name": "tokenId",
          "type": "uint256"
        },
        {
          "components": [
            {
              "internalType": "bytes32",
              "name": "previousRoot",
              "type": "bytes32"
            },
            {
              "internalType": "bytes32",
              "name": "newRoot",
              "type": "bytes32"
            },
            {
              "internalType": "bytes32",
              "name": "proof",
              "type": "bytes32"
            },
            {
              "internalType": "bytes",
              "name": "metadata",
              "type": "bytes"
            }
          ],
          "internalType": "struct ILearningModule.LearningUpdate",
          "name": "update",
          "type": "tuple"
        }
      ],
      "name": "updateLearning",
      "outputs": [],
      "stateMutability": "nonpayable",
      "type": "function"
    },
    {
      "inputs": [
        {
          "internalType": "address",
          "name": "",
          "type": "address"
        }
      ],
      "name": "updaters",
      "outputs": [
        {
          "internalType": "bool",
          "name": "",
          "type": "bool"
        }
      ],
      "stateMutability": "view",
      "type": "function"
    },
    {
      "inputs": [
        {
          "internalType": "uint256",
          "name": "tokenId",
          "type": "uint256"
        },
        {
          "internalType": "bytes32",
          "name": "claim",
          "type": "bytes32"
        },
        {
          "internalType": "bytes32[]",
          "name": "proof",
          "type": "bytes32[]"
        }
      ],
      "name": "verifyLearning",
      "outputs": [
        {
          "internalType": "bool",
          "name": "",
          "type": "bool"
        }
      ],
      "stateMutability": "view",
      "type": "function"
    }
  ],
  "bytecode": "0x6080346100c657601f610b1338819003918201601f19168301916001600160401b038311848410176100cb578084926020946040528339810103126100c657516001600160a01b0390818116908190036100c65733156100ad5760005460018060a01b0319903382821617600055604051933391167f8be0079c531659141344cd1fd0a4f28419497f9722a3daafe3b4186f6b6457e0600080a36001541617600155610a3190816100e28239f35b604051631e4fbdf760e01b815260006004820152602490fd5b600080fd5b634e487b7160e01b600052604160045260246000fdfe6080604081815260048036101561001557600080fd5b600092833560e01c908163041b05ab146106445750806305d237b01461061b5780631a153391146105c55780635295760f146103c957806354a055c11461038b5780635d70a074146102ee5780636542d35c146102a05780636c54ba8b1461027a578063715018a6146102205780638da5cb5b146101f4578063a094bb241461018d578063e4135a86146101455763f2fde38b146100b257600080fd5b34610141576020366003190112610141576100cb6107dc565b906100d4610828565b6001600160a01b0391821692831561012b575050600054826bffffffffffffffffffffffff60a01b821617600055167f8be0079c531659141344cd1fd0a4f28419497f9722a3daafe3b4186f6b6457e0600080a380f35b51631e4fbdf760e01b8152908101849052602490fd5b8280fd5b833461018a57602036600319011261018a5761015f6107dc565b610167610828565b60018060a01b03166bffffffffffffffffffffffff60a01b600154161760015580f35b80fd5b503461014157602036600319011261014157338352600260205260ff828420541615806101e0575b6101d257358252600360205281206101cd8154610854565b905580f35b905163ea8e4eb560e01b8152fd5b5082546001600160a01b03163314156101b5565b50503461021c578160031936011261021c57905490516001600160a01b039091168152602090f35b5080fd5b833461018a578060031936011261018a57610239610828565b600080546001600160a01b0319811682556001600160a01b03167f8be0079c531659141344cd1fd0a4f28419497f9722a3daafe3b4186f6b6457e08280a380f35b503461014157602036600319011261014157602092818392358252845220549051908152f35b50913461018a57606036600319011261018a576044359067ffffffffffffffff821161018a57506020926102da6102e592369083016107f7565b9160243590356108cf565b90519015158152f35b50903461014157602036600319011261014157808360a0946080610310610899565b8281528260208201528285820152826060820152015283358152600360205220610338610899565b918154938484526001830154602085019081526080600285015492848701938452600386015495606088019687520154950194855282519586525160208601525190840152516060830152516080820152f35b50503461021c57602036600319011261021c5760209160ff9082906001600160a01b036103b66107dc565b1681526002855220541690519015158152f35b503461014157816003193601126101415767ffffffffffffffff9080358281116105c1576103fa90369083016107f7565b60249291929384359081116105bd5761041690369084016107f7565b91909333885260029560209487865260ff898b20541615806105a9575b61059b5784840361056957895b84811061044b578a80f35b61045681878a6109d5565b35610464575b600101610440565b61046f8186866109d5565b358b52818752898b205461048482888b6109d5565b356104908388886109d5565b358d528389528b8d20556104a58287876109d5565b358c52600388528a8c206104b98154610854565b8155600181016104c98154610854565b809155428c830155670de0b6b3a764000080820290828204148215171561055757606482018092116105575784936105458f92968c8f96828e8e61053e938e61053660019f9c7f66a420b2417e1183cd2d446f9d062281e74e2d2b3fb74ded512c39dc02e5247e9d610879565b9101556109d5565b35966109d5565b3582519182528c820152a2905061045c565b634e487b7160e01b8f5260118652868ffd5b600f606492878b519362461bcd60e51b85528401528201526e098cadccee8d040dad2e6dac2e8c6d608b1b6044820152fd5b885163ea8e4eb560e01b8152fd5b5089546001600160a01b0316331415610433565b8680fd5b8480fd5b50503461021c578060031936011261021c576105df6107dc565b9060243591821515809303610617576105f6610828565b60018060a01b03168352600260205282209060ff8019835416911617905580f35b8380fd5b50503461021c578160031936011261021c5760015490516001600160a01b039091168152602090f35b8491508334610141576003198181360112610617578435926024359167ffffffffffffffff83116107d85760809083360301126105c157338552600260205260ff838620541615806107c4575b6107b65750828452846020528184205480151590816107a8575b5061079857602401358015610788578284528460205281842090808254925560036020528285206106dc8154610854565b8155600181016106ec8154610854565b809155426002830155600181118061077f575b61077a575b670de0b6b3a76400008082029082820414821517156107675760648201809211610767577f66a420b2417e1183cd2d446f9d062281e74e2d2b3fb74ded512c39dc02e5247e9697989161075691610879565b91015582519182526020820152a280f35b634e487b7160e01b885260118952602488fd5b610704565b504215156106ff565b815163504570e360e01b81528590fd5b8151635ade045560e01b81528590fd5b9050818601351415866106ab565b63ea8e4eb560e01b81528590fd5b5084546001600160a01b0316331415610691565b8580fd5b600435906001600160a01b03821682036107f257565b600080fd5b9181601f840112156107f25782359167ffffffffffffffff83116107f2576020808501948460051b0101116107f257565b6000546001600160a01b0316330361083c57565b60405163118cdaa760e01b8152336004820152602490fd5b60001981146108635760010190565b634e487b7160e01b600052601160045260246000fd5b8115610883570490565b634e487b7160e01b600052601260045260246000fd5b6040519060a0820182811067ffffffffffffffff8211176108b957604052565b634e487b7160e01b600052604160045260246000fd5b909291936000918252602060048152604093848420549586156109ca5767ffffffffffffffff978883116109b65786519860059380851b91603f8301601f19168c019081118c8210176109a25789528a52848a019082019136831161099e578590915b83831061098e57505050509284935b88518510156109825784831b89018401519081811015610972578652835261096c8686205b94610854565b93610941565b908652835261096c868620610966565b95509650505050501490565b8235815291810191869101610932565b8780fd5b634e487b7160e01b89526041600452602489fd5b634e487b7160e01b86526041600452602486fd5b505050935091505090565b91908110156109e55760051b0190565b634e487b7160e01b600052603260045260246000fdfea264697066735822122075c003f8ddafd5543c6e9b82ab52d0e9e22beb77e920f231abd0a392c52067a664736f6c63430008140033",
  "linkReferences": {},
  "deployedLinkReferences": {}
}