{"contracts/GemBotsNFAv3.sol":{"GemBotsNFAv3":{"abi":[{"inputs":[{"internalType":"address","name":"_treasury","type":"address"},{"internalType":"address","name":"_battleResolver","type":"address"}],"stateMutability":"nonpayable","type":"constructor"},{"inputs":[],"name":"AgentNotActive","type":"error"},{"inputs":[],"name":"AgentTerminatedErr","type":"error"},{"inputs":[],"name":"AlreadyAtMaxTier","type":"error"},{"inputs":[],"name":"ArrayLengthMismatch","type":"error"},{"inputs":[{"internalType":"address","name":"sender","type":"address"},{"internalType":"uint256","name":"tokenId","type":"uint256"},{"internalType":"address","name":"owner","type":"address"}],"name":"ERC721IncorrectOwner","type":"error"},{"inputs":[{"internalType":"address","name":"operator","type":"address"},{"internalType":"uint256","name":"tokenId","type":"uint256"}],"name":"ERC721InsufficientApproval","type":"error"},{"inputs":[{"internalType":"address","name":"approver","type":"address"}],"name":"ERC721InvalidApprover","type":"error"},{"inputs":[{"internalType":"address","name":"operator","type":"address"}],"name":"ERC721InvalidOperator","type":"error"},{"inputs":[{"internalType":"address","name":"owner","type":"address"}],"name":"ERC721InvalidOwner","type":"error"},{"inputs":[{"internalType":"address","name":"receiver","type":"address"}],"name":"ERC721InvalidReceiver","type":"error"},{"inputs":[{"internalType":"address","name":"sender","type":"address"}],"name":"ERC721InvalidSender","type":"error"},{"inputs":[{"internalType":"uint256","name":"tokenId","type":"uint256"}],"name":"ERC721NonexistentToken","type":"error"},{"inputs":[],"name":"EnforcedPause","type":"error"},{"inputs":[],"name":"ExpectedPause","type":"error"},{"inputs":[],"name":"GenesisLimitReached","type":"error"},{"inputs":[],"name":"InsufficientAgentBalance","type":"error"},{"inputs":[],"name":"InsufficientPayment","type":"error"},{"inputs":[],"name":"InvalidPrice","type":"error"},{"inputs":[],"name":"LearningNotEnabled","type":"error"},{"inputs":[],"name":"LogicCallFailed","type":"error"},{"inputs":[],"name":"NFAAlreadyListed","type":"error"},{"inputs":[],"name":"NFANotListed","type":"error"},{"inputs":[],"name":"NotBattleResolver","type":"error"},{"inputs":[],"name":"NotEligibleForEvolution","type":"error"},{"inputs":[],"name":"NotMinter","type":"error"},{"inputs":[],"name":"NotOwnerOfNFA","type":"error"},{"inputs":[{"internalType":"address","name":"owner","type":"address"}],"name":"OwnableInvalidOwner","type":"error"},{"inputs":[{"internalType":"address","name":"account","type":"address"}],"name":"OwnableUnauthorizedAccount","type":"error"},{"inputs":[],"name":"ReentrancyGuardReentrantCall","type":"error"},{"inputs":[],"name":"TransferFailed","type":"error"},{"inputs":[],"name":"ZeroAddress","type":"error"},{"anonymous":false,"inputs":[{"indexed":true,"internalType":"address","name":"agent","type":"address"},{"indexed":false,"internalType":"bytes","name":"result","type":"bytes"}],"name":"ActionExecuted","type":"event"},{"anonymous":false,"inputs":[{"indexed":true,"internalType":"address","name":"agent","type":"address"},{"indexed":true,"internalType":"address","name":"funder","type":"address"},{"indexed":false,"internalType":"uint256","name":"amount","type":"uint256"}],"name":"AgentFunded","type":"event"},{"anonymous":false,"inputs":[{"indexed":true,"internalType":"uint256","name":"nfaId","type":"uint256"},{"indexed":false,"internalType":"uint256","name":"balanceReturned","type":"uint256"}],"name":"AgentTerminated","type":"event"},{"anonymous":false,"inputs":[{"indexed":true,"internalType":"address","name":"owner","type":"address"},{"indexed":true,"internalType":"address","name":"approved","type":"address"},{"indexed":true,"internalType":"uint256","name":"tokenId","type":"uint256"}],"name":"Approval","type":"event"},{"anonymous":false,"inputs":[{"indexed":true,"internalType":"address","name":"owner","type":"address"},{"indexed":true,"internalType":"address","name":"operator","type":"address"},{"indexed":false,"internalType":"bool","name":"approved","type":"bool"}],"name":"ApprovalForAll","type":"event"},{"anonymous":false,"inputs":[{"indexed":false,"internalType":"uint256","name":"_fromTokenId","type":"uint256"},{"indexed":false,"internalType":"uint256","name":"_toTokenId","type":"uint256"}],"name":"BatchMetadataUpdate","type":"event"},{"anonymous":false,"inputs":[{"indexed":true,"internalType":"uint256","name":"nfaId","type":"uint256"},{"indexed":false,"internalType":"uint256","name":"opponentNfaId","type":"uint256"},{"indexed":false,"internalType":"bool","name":"won","type":"bool"},{"indexed":false,"internalType":"string","name":"battleId","type":"string"}],"name":"BattleRecorded","type":"event"},{"anonymous":false,"inputs":[{"indexed":true,"internalType":"uint256","name":"nfaId","type":"uint256"},{"indexed":false,"internalType":"uint128","name":"consecutiveLosses","type":"uint128"}],"name":"CircuitBreakerTriggered","type":"event"},{"anonymous":false,"inputs":[{"indexed":true,"internalType":"uint256","name":"nfaId","type":"uint256"},{"indexed":false,"internalType":"uint8","name":"newTier","type":"uint8"}],"name":"Evolved","type":"event"},{"anonymous":false,"inputs":[{"indexed":true,"internalType":"uint256","name":"nfaId","type":"uint256"},{"indexed":false,"internalType":"bytes32","name":"oldRoot","type":"bytes32"},{"indexed":false,"internalType":"bytes32","name":"newRoot","type":"bytes32"}],"name":"LearningUpdated","type":"event"},{"anonymous":false,"inputs":[{"indexed":true,"internalType":"uint256","name":"nfaId","type":"uint256"},{"indexed":false,"internalType":"uint256","name":"price","type":"uint256"}],"name":"Listed","type":"event"},{"anonymous":false,"inputs":[{"indexed":true,"internalType":"uint256","name":"nfaId","type":"uint256"}],"name":"ListingCancelled","type":"event"},{"anonymous":false,"inputs":[{"indexed":true,"internalType":"address","name":"agent","type":"address"},{"indexed":false,"internalType":"address","name":"oldLogic","type":"address"},{"indexed":false,"internalType":"address","name":"newLogic","type":"address"}],"name":"LogicUpgraded","type":"event"},{"anonymous":false,"inputs":[{"indexed":false,"internalType":"uint256","name":"_tokenId","type":"uint256"}],"name":"MetadataUpdate","type":"event"},{"anonymous":false,"inputs":[{"indexed":true,"internalType":"uint256","name":"tokenId","type":"uint256"},{"indexed":false,"internalType":"string","name":"metadataURI","type":"string"}],"name":"MetadataUpdated","type":"event"},{"anonymous":false,"inputs":[{"indexed":true,"internalType":"uint256","name":"nfaId","type":"uint256"},{"indexed":true,"internalType":"address","name":"owner","type":"address"},{"indexed":false,"internalType":"bytes32","name":"configHash","type":"bytes32"},{"indexed":false,"internalType":"bool","name":"genesis","type":"bool"}],"name":"NFAMinted","type":"event"},{"anonymous":false,"inputs":[{"indexed":true,"internalType":"address","name":"previousOwner","type":"address"},{"indexed":true,"internalType":"address","name":"newOwner","type":"address"}],"name":"OwnershipTransferred","type":"event"},{"anonymous":false,"inputs":[{"indexed":false,"internalType":"address","name":"account","type":"address"}],"name":"Paused","type":"event"},{"anonymous":false,"inputs":[{"indexed":true,"internalType":"uint256","name":"nfaId","type":"uint256"},{"indexed":false,"internalType":"address","name":"from","type":"address"},{"indexed":false,"internalType":"address","name":"to","type":"address"},{"indexed":false,"internalType":"uint256","name":"price","type":"uint256"}],"name":"Sold","type":"event"},{"anonymous":false,"inputs":[{"indexed":true,"internalType":"address","name":"agent","type":"address"},{"indexed":false,"internalType":"enum IBAP578.Status","name":"newStatus","type":"uint8"}],"name":"StatusChanged","type":"event"},{"anonymous":false,"inputs":[{"indexed":true,"internalType":"uint256","name":"nfaId","type":"uint256"},{"indexed":false,"internalType":"string","name":"modelId","type":"string"},{"indexed":false,"internalType":"bytes32","name":"strategyHash","type":"bytes32"}],"name":"StrategyRegistered","type":"event"},{"anonymous":false,"inputs":[{"indexed":true,"internalType":"address","name":"from","type":"address"},{"indexed":true,"internalType":"address","name":"to","type":"address"},{"indexed":true,"internalType":"uint256","name":"tokenId","type":"uint256"}],"name":"Transfer","type":"event"},{"anonymous":false,"inputs":[{"indexed":false,"internalType":"address","name":"account","type":"address"}],"name":"Unpaused","type":"event"},{"inputs":[],"name":"GENESIS_MAX","outputs":[{"internalType":"uint256","name":"","type":"uint256"}],"stateMutability":"view","type":"function"},{"inputs":[{"internalType":"address","name":"to","type":"address"},{"internalType":"uint256","name":"tokenId","type":"uint256"}],"name":"approve","outputs":[],"stateMutability":"nonpayable","type":"function"},{"inputs":[{"internalType":"address","name":"owner","type":"address"}],"name":"balanceOf","outputs":[{"internalType":"uint256","name":"","type":"uint256"}],"stateMutability":"view","type":"function"},{"inputs":[{"internalType":"address","name":"to","type":"address"},{"internalType":"string[]","name":"configURIs","type":"string[]"},{"internalType":"bytes32[]","name":"configHashes","type":"bytes32[]"},{"internalType":"string[]","name":"modelIds","type":"string[]"},{"internalType":"bytes32[]","name":"strategyHashes","type":"bytes32[]"},{"internalType":"string[]","name":"strategyURIs","type":"string[]"},{"components":[{"internalType":"string","name":"persona","type":"string"},{"internalType":"string","name":"experience","type":"string"},{"internalType":"string","name":"voiceHash","type":"string"},{"internalType":"string","name":"animationURI","type":"string"},{"internalType":"string","name":"vaultURI","type":"string"},{"internalType":"bytes32","name":"vaultHash","type":"bytes32"}],"internalType":"struct IBAP578.AgentMetadata[]","name":"metas","type":"tuple[]"}],"name":"batchMintGenesis","outputs":[{"internalType":"uint256[]","name":"tokenIds","type":"uint256[]"}],"stateMutability":"nonpayable","type":"function"},{"inputs":[],"name":"battleResolver","outputs":[{"internalType":"address","name":"","type":"address"}],"stateMutability":"view","type":"function"},{"inputs":[{"internalType":"uint256","name":"nfaId","type":"uint256"}],"name":"buyNFA","outputs":[],"stateMutability":"payable","type":"function"},{"inputs":[{"internalType":"uint256","name":"nfaId","type":"uint256"}],"name":"cancelListing","outputs":[],"stateMutability":"nonpayable","type":"function"},{"inputs":[],"name":"circuitBreakerLosses","outputs":[{"internalType":"uint256","name":"","type":"uint256"}],"stateMutability":"view","type":"function"},{"inputs":[],"name":"creatorRoyaltyBps","outputs":[{"internalType":"uint256","name":"","type":"uint256"}],"stateMutability":"view","type":"function"},{"inputs":[{"internalType":"uint256","name":"nfaId","type":"uint256"},{"internalType":"address","name":"module","type":"address"}],"name":"enableLearning","outputs":[],"stateMutability":"nonpayable","type":"function"},{"inputs":[{"internalType":"uint256","name":"nfaId","type":"uint256"}],"name":"evolve","outputs":[],"stateMutability":"nonpayable","type":"function"},{"inputs":[{"internalType":"uint256","name":"tokenId","type":"uint256"},{"internalType":"bytes","name":"data","type":"bytes"}],"name":"executeAction","outputs":[],"stateMutability":"nonpayable","type":"function"},{"inputs":[{"internalType":"uint256","name":"tokenId","type":"uint256"}],"name":"fundAgent","outputs":[],"stateMutability":"payable","type":"function"},{"inputs":[],"name":"genesisCount","outputs":[{"internalType":"uint256","name":"","type":"uint256"}],"stateMutability":"view","type":"function"},{"inputs":[{"internalType":"uint256","name":"tokenId","type":"uint256"}],"name":"getAgentMetadata","outputs":[{"components":[{"internalType":"string","name":"persona","type":"string"},{"internalType":"string","name":"experience","type":"string"},{"internalType":"string","name":"voiceHash","type":"string"},{"internalType":"string","name":"animationURI","type":"string"},{"internalType":"string","name":"vaultURI","type":"string"},{"internalType":"bytes32","name":"vaultHash","type":"bytes32"}],"internalType":"struct IBAP578.AgentMetadata","name":"","type":"tuple"}],"stateMutability":"view","type":"function"},{"inputs":[{"internalType":"uint256","name":"tokenId","type":"uint256"}],"name":"getApproved","outputs":[{"internalType":"address","name":"","type":"address"}],"stateMutability":"view","type":"function"},{"inputs":[{"internalType":"uint256","name":"nfaId","type":"uint256"}],"name":"getBattleStats","outputs":[{"components":[{"internalType":"uint128","name":"wins","type":"uint128"},{"internalType":"uint128","name":"losses","type":"uint128"},{"internalType":"uint128","name":"totalBattles","type":"uint128"},{"internalType":"uint128","name":"currentStreak","type":"uint128"},{"internalType":"uint128","name":"bestStreak","type":"uint128"}],"internalType":"struct GemBotsNFAv3.BattleStats","name":"","type":"tuple"}],"stateMutability":"view","type":"function"},{"inputs":[{"internalType":"uint256","name":"nfaId","type":"uint256"}],"name":"getLearningData","outputs":[{"internalType":"bool","name":"enabled","type":"bool"},{"internalType":"address","name":"module","type":"address"},{"internalType":"bytes32","name":"merkleRoot","type":"bytes32"},{"internalType":"uint256","name":"version","type":"uint256"},{"internalType":"uint256","name":"lastUpdate","type":"uint256"}],"stateMutability":"view","type":"function"},{"inputs":[{"internalType":"uint256","name":"nfaId","type":"uint256"}],"name":"getListing","outputs":[{"components":[{"internalType":"uint256","name":"price","type":"uint256"},{"internalType":"address","name":"seller","type":"address"},{"internalType":"bool","name":"active","type":"bool"}],"internalType":"struct GemBotsNFAv3.Listing","name":"","type":"tuple"}],"stateMutability":"view","type":"function"},{"inputs":[{"internalType":"uint256","name":"nfaId","type":"uint256"}],"name":"getNFA","outputs":[{"internalType":"bytes32","name":"configHash","type":"bytes32"},{"internalType":"string","name":"configURI","type":"string"},{"internalType":"address","name":"originalCreator","type":"address"},{"internalType":"enum GemBotsNFAv3.Tier","name":"tier","type":"uint8"},{"internalType":"bool","name":"isGenesis","type":"bool"},{"components":[{"internalType":"uint128","name":"wins","type":"uint128"},{"internalType":"uint128","name":"losses","type":"uint128"},{"internalType":"uint128","name":"totalBattles","type":"uint128"},{"internalType":"uint128","name":"currentStreak","type":"uint128"},{"internalType":"uint128","name":"bestStreak","type":"uint128"}],"internalType":"struct GemBotsNFAv3.BattleStats","name":"stats","type":"tuple"},{"components":[{"internalType":"string","name":"modelId","type":"string"},{"internalType":"bytes32","name":"strategyHash","type":"bytes32"},{"internalType":"string","name":"strategyURI","type":"string"}],"internalType":"struct GemBotsNFAv3.StrategyData","name":"strategy","type":"tuple"}],"stateMutability":"view","type":"function"},{"inputs":[{"internalType":"bytes32","name":"strategyHash","type":"bytes32"}],"name":"getNFAsByStrategy","outputs":[{"internalType":"uint256[]","name":"","type":"uint256[]"}],"stateMutability":"view","type":"function"},{"inputs":[{"internalType":"uint256","name":"tokenId","type":"uint256"}],"name":"getState","outputs":[{"components":[{"internalType":"uint256","name":"balance","type":"uint256"},{"internalType":"enum IBAP578.Status","name":"status","type":"uint8"},{"internalType":"address","name":"owner","type":"address"},{"internalType":"address","name":"logicAddress","type":"address"},{"internalType":"uint256","name":"lastActionTimestamp","type":"uint256"}],"internalType":"struct IBAP578.State","name":"","type":"tuple"}],"stateMutability":"view","type":"function"},{"inputs":[{"internalType":"uint256","name":"nfaId","type":"uint256"}],"name":"getStrategy","outputs":[{"internalType":"string","name":"modelId","type":"string"},{"internalType":"bytes32","name":"strategyHash","type":"bytes32"},{"internalType":"string","name":"strategyURI","type":"string"}],"stateMutability":"view","type":"function"},{"inputs":[{"internalType":"address","name":"owner","type":"address"},{"internalType":"address","name":"operator","type":"address"}],"name":"isApprovedForAll","outputs":[{"internalType":"bool","name":"","type":"bool"}],"stateMutability":"view","type":"function"},{"inputs":[{"internalType":"uint256","name":"nfaId","type":"uint256"},{"internalType":"uint256","name":"price","type":"uint256"}],"name":"listForSale","outputs":[],"stateMutability":"nonpayable","type":"function"},{"inputs":[{"internalType":"uint256","name":"","type":"uint256"}],"name":"listings","outputs":[{"internalType":"uint256","name":"price","type":"uint256"},{"internalType":"address","name":"seller","type":"address"},{"internalType":"bool","name":"active","type":"bool"}],"stateMutability":"view","type":"function"},{"inputs":[{"internalType":"bytes32","name":"configHash","type":"bytes32"},{"internalType":"string","name":"configURI","type":"string"},{"internalType":"string","name":"modelId","type":"string"},{"internalType":"bytes32","name":"strategyHash","type":"bytes32"},{"internalType":"string","name":"strategyURI","type":"string"},{"components":[{"internalType":"string","name":"persona","type":"string"},{"internalType":"string","name":"experience","type":"string"},{"internalType":"string","name":"voiceHash","type":"string"},{"internalType":"string","name":"animationURI","type":"string"},{"internalType":"string","name":"vaultURI","type":"string"},{"internalType":"bytes32","name":"vaultHash","type":"bytes32"}],"internalType":"struct IBAP578.AgentMetadata","name":"meta","type":"tuple"}],"name":"mint","outputs":[{"internalType":"uint256","name":"tokenId","type":"uint256"}],"stateMutability":"payable","type":"function"},{"inputs":[],"name":"mintFee","outputs":[{"internalType":"uint256","name":"","type":"uint256"}],"stateMutability":"view","type":"function"},{"inputs":[{"internalType":"address","name":"to","type":"address"},{"internalType":"string","name":"configURI","type":"string"},{"internalType":"bytes32","name":"configHash","type":"bytes32"},{"internalType":"string","name":"modelId","type":"string"},{"internalType":"bytes32","name":"strategyHash","type":"bytes32"},{"internalType":"string","name":"strategyURI","type":"string"},{"components":[{"internalType":"string","name":"persona","type":"string"},{"internalType":"string","name":"experience","type":"string"},{"internalType":"string","name":"voiceHash","type":"string"},{"internalType":"string","name":"animationURI","type":"string"},{"internalType":"string","name":"vaultURI","type":"string"},{"internalType":"bytes32","name":"vaultHash","type":"bytes32"}],"internalType":"struct IBAP578.AgentMetadata","name":"meta","type":"tuple"}],"name":"mintGenesis","outputs":[{"internalType":"uint256","name":"tokenId","type":"uint256"}],"stateMutability":"nonpayable","type":"function"},{"inputs":[{"internalType":"address","name":"","type":"address"}],"name":"minters","outputs":[{"internalType":"bool","name":"","type":"bool"}],"stateMutability":"view","type":"function"},{"inputs":[],"name":"name","outputs":[{"internalType":"string","name":"","type":"string"}],"stateMutability":"view","type":"function"},{"inputs":[],"name":"openMinting","outputs":[{"internalType":"bool","name":"","type":"bool"}],"stateMutability":"view","type":"function"},{"inputs":[],"name":"owner","outputs":[{"internalType":"address","name":"","type":"address"}],"stateMutability":"view","type":"function"},{"inputs":[{"internalType":"uint256","name":"tokenId","type":"uint256"}],"name":"ownerOf","outputs":[{"internalType":"address","name":"","type":"address"}],"stateMutability":"view","type":"function"},{"inputs":[],"name":"pause","outputs":[],"stateMutability":"nonpayable","type":"function"},{"inputs":[{"internalType":"uint256","name":"tokenId","type":"uint256"}],"name":"pauseAgent","outputs":[],"stateMutability":"nonpayable","type":"function"},{"inputs":[],"name":"paused","outputs":[{"internalType":"bool","name":"","type":"bool"}],"stateMutability":"view","type":"function"},{"inputs":[],"name":"platformFeeBps","outputs":[{"internalType":"uint256","name":"","type":"uint256"}],"stateMutability":"view","type":"function"},{"inputs":[{"internalType":"uint256","name":"nfaId","type":"uint256"},{"internalType":"uint256","name":"opponentNfaId","type":"uint256"},{"internalType":"bool","name":"won","type":"bool"},{"internalType":"string","name":"battleId","type":"string"}],"name":"recordBattle","outputs":[],"stateMutability":"nonpayable","type":"function"},{"inputs":[],"name":"renounceOwnership","outputs":[],"stateMutability":"nonpayable","type":"function"},{"inputs":[{"internalType":"address","name":"from","type":"address"},{"internalType":"address","name":"to","type":"address"},{"internalType":"uint256","name":"tokenId","type":"uint256"}],"name":"safeTransferFrom","outputs":[],"stateMutability":"nonpayable","type":"function"},{"inputs":[{"internalType":"address","name":"from","type":"address"},{"internalType":"address","name":"to","type":"address"},{"internalType":"uint256","name":"tokenId","type":"uint256"},{"internalType":"bytes","name":"data","type":"bytes"}],"name":"safeTransferFrom","outputs":[],"stateMutability":"nonpayable","type":"function"},{"inputs":[{"internalType":"address","name":"operator","type":"address"},{"internalType":"bool","name":"approved","type":"bool"}],"name":"setApprovalForAll","outputs":[],"stateMutability":"nonpayable","type":"function"},{"inputs":[{"internalType":"address","name":"_resolver","type":"address"}],"name":"setBattleResolver","outputs":[],"stateMutability":"nonpayable","type":"function"},{"inputs":[{"internalType":"uint256","name":"_limit","type":"uint256"}],"name":"setCircuitBreakerLosses","outputs":[],"stateMutability":"nonpayable","type":"function"},{"inputs":[{"internalType":"uint256","name":"_bps","type":"uint256"}],"name":"setCreatorRoyaltyBps","outputs":[],"stateMutability":"nonpayable","type":"function"},{"inputs":[{"internalType":"uint256","name":"tokenId","type":"uint256"},{"internalType":"address","name":"newLogic","type":"address"}],"name":"setLogicAddress","outputs":[],"stateMutability":"nonpayable","type":"function"},{"inputs":[{"internalType":"uint256","name":"_fee","type":"uint256"}],"name":"setMintFee","outputs":[],"stateMutability":"nonpayable","type":"function"},{"inputs":[{"internalType":"address","name":"_minter","type":"address"},{"internalType":"bool","name":"_authorized","type":"bool"}],"name":"setMinter","outputs":[],"stateMutability":"nonpayable","type":"function"},{"inputs":[{"internalType":"bool","name":"_open","type":"bool"}],"name":"setOpenMinting","outputs":[],"stateMutability":"nonpayable","type":"function"},{"inputs":[{"internalType":"uint256","name":"_bps","type":"uint256"}],"name":"setPlatformFeeBps","outputs":[],"stateMutability":"nonpayable","type":"function"},{"inputs":[{"internalType":"enum GemBotsNFAv3.Tier","name":"_tier","type":"uint8"},{"internalType":"string","name":"_baseURI","type":"string"}],"name":"setTierBaseURI","outputs":[],"stateMutability":"nonpayable","type":"function"},{"inputs":[{"internalType":"uint256","name":"_index","type":"uint256"},{"internalType":"uint256","name":"_threshold","type":"uint256"}],"name":"setTierThreshold","outputs":[],"stateMutability":"nonpayable","type":"function"},{"inputs":[{"internalType":"address","name":"_treasury","type":"address"}],"name":"setTreasury","outputs":[],"stateMutability":"nonpayable","type":"function"},{"inputs":[{"internalType":"bytes32","name":"","type":"bytes32"},{"internalType":"uint256","name":"","type":"uint256"}],"name":"strategyNFAs","outputs":[{"internalType":"uint256","name":"","type":"uint256"}],"stateMutability":"view","type":"function"},{"inputs":[{"internalType":"bytes4","name":"interfaceId","type":"bytes4"}],"name":"supportsInterface","outputs":[{"internalType":"bool","name":"","type":"bool"}],"stateMutability":"view","type":"function"},{"inputs":[],"name":"symbol","outputs":[{"internalType":"string","name":"","type":"string"}],"stateMutability":"view","type":"function"},{"inputs":[{"internalType":"uint256","name":"tokenId","type":"uint256"}],"name":"terminate","outputs":[],"stateMutability":"nonpayable","type":"function"},{"inputs":[{"internalType":"enum GemBotsNFAv3.Tier","name":"","type":"uint8"}],"name":"tierBaseURIs","outputs":[{"internalType":"string","name":"","type":"string"}],"stateMutability":"view","type":"function"},{"inputs":[{"internalType":"uint256","name":"","type":"uint256"}],"name":"tierThresholds","outputs":[{"internalType":"uint256","name":"","type":"uint256"}],"stateMutability":"view","type":"function"},{"inputs":[{"internalType":"uint256","name":"tokenId","type":"uint256"}],"name":"tokenURI","outputs":[{"internalType":"string","name":"","type":"string"}],"stateMutability":"view","type":"function"},{"inputs":[],"name":"totalSupply","outputs":[{"internalType":"uint256","name":"","type":"uint256"}],"stateMutability":"view","type":"function"},{"inputs":[{"internalType":"address","name":"from","type":"address"},{"internalType":"address","name":"to","type":"address"},{"internalType":"uint256","name":"tokenId","type":"uint256"}],"name":"transferFrom","outputs":[],"stateMutability":"nonpayable","type":"function"},{"inputs":[{"internalType":"address","name":"newOwner","type":"address"}],"name":"transferOwnership","outputs":[],"stateMutability":"nonpayable","type":"function"},{"inputs":[],"name":"treasury","outputs":[{"internalType":"address","name":"","type":"address"}],"stateMutability":"view","type":"function"},{"inputs":[],"name":"unpause","outputs":[],"stateMutability":"nonpayable","type":"function"},{"inputs":[{"internalType":"uint256","name":"tokenId","type":"uint256"}],"name":"unpauseAgent","outputs":[],"stateMutability":"nonpayable","type":"function"},{"inputs":[{"internalType":"uint256","name":"tokenId","type":"uint256"},{"components":[{"internalType":"string","name":"persona","type":"string"},{"internalType":"string","name":"experience","type":"string"},{"internalType":"string","name":"voiceHash","type":"string"},{"internalType":"string","name":"animationURI","type":"string"},{"internalType":"string","name":"vaultURI","type":"string"},{"internalType":"bytes32","name":"vaultHash","type":"bytes32"}],"internalType":"struct IBAP578.AgentMetadata","name":"metadata","type":"tuple"}],"name":"updateAgentMetadata","outputs":[],"stateMutability":"nonpayable","type":"function"},{"inputs":[{"internalType":"uint256","name":"nfaId","type":"uint256"},{"internalType":"bytes32","name":"newRoot","type":"bytes32"}],"name":"updateLearningRoot","outputs":[],"stateMutability":"nonpayable","type":"function"},{"inputs":[{"internalType":"uint256","name":"nfaId","type":"uint256"},{"internalType":"string","name":"fullConfig","type":"string"}],"name":"verifyPrompt","outputs":[{"internalType":"bool","name":"","type":"bool"}],"stateMutability":"view","type":"function"},{"inputs":[{"internalType":"uint256","name":"nfaId","type":"uint256"},{"internalType":"string","name":"fullStrategyJSON","type":"string"}],"name":"verifyStrategy","outputs":[{"internalType":"bool","name":"","type":"bool"}],"stateMutability":"view","type":"function"},{"inputs":[],"name":"withdrawFees","outputs":[],"stateMutability":"nonpayable","type":"function"},{"inputs":[{"internalType":"uint256","name":"tokenId","type":"uint256"},{"internalType":"uint256","name":"amount","type":"uint256"}],"name":"withdrawFromAgent","outputs":[],"stateMutability":"nonpayable","type":"function"},{"stateMutability":"payable","type":"receive"}],"evm":{"bytecode":{"linkReferences":{},"object":"608034620004675762005d9b906001600160401b0390601f601f1938859003828101821684019085821185831017620004515780859160409889948552833981010312620004675762000052836200048c565b906200006260208095016200048c565b926200006d6200046c565b91600b83526a47656d426f7473204e464160a81b868401526200008f6200046c565b906005928383526447424e464160d81b8884015284519289841162000451576000938454966001978881811c9116801562000446575b8c821014620004325790818c86859411620003f8575b50508b908583116001146200039557879262000389575b5050600019600383901b1c191690871b1784555b8051928a8411620003755786548781811c911680156200036a575b8b821014620003565790818b8587969594116200031c575b50508a928411600114620002bb57508492620002af575b5050600019600383901b1c191690841b1783555b33156200029857600780546001600160a01b031980821633908117909355986001600160a01b039892909189167f8be0079c531659141344cd1fd0a4f28419497f9722a3daafe3b4186f6b6457e08580a38460085567016345785d8a0000600b556101f4600f5560fa60105589519060a08201908282109082111762000284578a52828152600a8282015260328a8201526064606082015260fa608082015287959493929091905b8381106200026b575050505050600a601c55168015801562000260575b6200024f5783600d541617600d551690600e541617600e55516158e09081620004bb8239f35b845163d92e233d60e01b8152600490fd5b508282161562000229565b825160ff1660178201558896509181019184016200020c565b634e487b7160e01b84526041600452602484fd5b602490885190631e4fbdf760e01b82526004820152fd5b01519050388062000150565b8786528a862088959093929116865b8c828210620003055750508411620002eb575b505050811b01835562000164565b015160001960f88460031b161c19169055388080620002dd565b8385015186558a97909501949384019301620002ca565b62000344918a895285828a20918189018c1c83019389106200034c575b018a1c0190620004a1565b388b62000139565b9250819262000339565b634e487b7160e01b86526022600452602486fd5b90607f169062000121565b634e487b7160e01b85526041600452602485fd5b015190503880620000f2565b908c91878b9516898052838a20938a905b828210620003e05750508411620003c6575b505050811b01845562000106565b015160001960f88460031b161c19169055388080620003b8565b8385015186558d979095019493840193018f620003a6565b620004209189805287828b20918187018d1c830193871062000428575b018b1c0190620004a1565b388c620000db565b9250819262000415565b634e487b7160e01b87526022600452602487fd5b90607f1690620000c5565b634e487b7160e01b600052604160045260246000fd5b600080fd5b60408051919082016001600160401b038111838210176200045157604052565b51906001600160a01b03821682036200046757565b818110620004ad575050565b60008155600101620004a156fe61022080604052600436101561001e575b50361561001c57600080fd5b005b60003560e01c90816301ffc9a7146149db5750806303a9ebf4146149ac57806306c8c5251461498057806306fdde03146148dd578063081812fc1461489f578063095ea7b3146147b85780630ccba3e91461477f5780630f96fd7914614724578063107a274a1461469a57806313966db51461467c578063175485ed1461465e57806318160ddd146146405780631af41d4d1461407857806322dcd13e1461405a57806323b872dd146140435780632787a4c614613fca5780632877803014613fa95780632f6f343a14613f59578063305a67a814613ebc5780633f4ba83a14613e5257806342842e0e14613e2457806344c9af2814613d5f5780634590ae2114613c97578063476343ee14613c4e57806348d34dc314613bf457806355150c1614613a9357806357302cd414613a6a578063592953301461391c5780635c975abb146138f957806361d027b3146138d05780636352211e146138a057806364cb04ac146136df578063675b22ae14612b2c578063676fc6dc14612a925780636963aca8146129865780636ac18987146128e95780636ba9fd38146128c657806370a082311461286d578063715018a6146128105780637a828b28146126d45780637ab1d4ef1461263d57806380866d83146125f65780638456cb591461259c5780638a45664e146125425780638da5cb5b14612519578063925d886b146124fd57806395d89b411461241e578063a100d69d146123f2578063a22cb46514612347578063b349b80114611a14578063b88d4fde146119a9578063c580c9421461197a578063c87b56dd14611921578063ca21866a146117e1578063cf456ae71461178e578063cfc0cc3414611719578063d0ac920814610dbb578063d0d7d9c514610d73578063de74e57b14610d26578063e80d7fec14610bf1578063e96c661714610bd3578063e985e9c514610b7d578063eddd0d9c14610b5c578063ef03c6db14610a99578063f09d744114610944578063f0f44260146108ea578063f119f5671461077d578063f22f96af14610703578063f2fde38b1461067a578063f46eccc41461063b578063f94ab2ec146105c7578063fa3ec78d146103715763fffad3121461034e5738610010565b3461036c57600036600319011261036c576020600c54604051908152f35b600080fd5b602036600319011261036c57600435610388615670565b6103906155fa565b806000526014602052604060002060018101805460ff8160a01c16156105b5578254918234106105a35760018060a01b0391600083821695556affffffffffffffffffffff60a81b169055612710806103eb600f5485615724565b04906103f960105485615724565b049085600052601360205282600b604060002001541690858214908160001461058a576104268187615663565b945b3315610571576104388933615002565b8082168061045957604051637e27328960e01b8152600481018c9052602490fd5b890361053f575060008080938193600d54165af16104756150f9565b5015610506571580610536575b610518575b5050600080808093865af161049a6150f9565b5015610506578034116104e6575b7f23f50d55776d8003622a982ade45a6c7f083116c8dbbcd980f59942f440badb1916060916040519182523360208301526040820152a26001600855005b60008080806104f58534615663565b335af16105006150f9565b506104a8575b6040516312171d8360e31b8152600490fd5b600080809381935af16105296150f9565b5015610506578480610487565b50811515610482565b6040516364283d7b60e01b81526001600160a01b038a81166004830152602482018c9052919091166044820152606490fd5b604051633250574960e11b815260006004820152602490fd5b61059d846105988389615663565b615663565b94610428565b60405163cd1c886760e01b8152600490fd5b604051630f971cbd60e41b8152600490fd5b3461036c57602036600319011261036c576004356105e4816150be565b50600052601360205260a0604060002060128101549060138101549060156014820154910154916040519360ff8160081c1615158552600180871b039060101c166020850152604084015260608301526080820152f35b3461036c57602036600319011261036c576001600160a01b0361065c614c2e565b166000526012602052602060ff604060002054166040519015158152f35b3461036c57602036600319011261036c57610693614c2e565b61069b614e46565b6001600160a01b039081169081156106ea57600754826001600160601b0360a01b821617600755167f8be0079c531659141344cd1fd0a4f28419497f9722a3daafe3b4186f6b6457e0600080a3005b604051631e4fbdf760e01b815260006004820152602490fd5b3461036c5760208060031936011261036c5760043560005260158152604060002090604051908181845491828152019360005281600020916000905b828210610766576107628561075681890382614b1f565b60405191829182614df3565b0390f35b83548652948501946001938401939091019061073f565b3461036c5760208060031936011261036c576004359061079b6155fa565b6107a4826150be565b508160005260138152604060002090600b82019182549260ff8460a01c169160058310156108c257600483146108d8576001600160801b03600c6107ea920154166156d6565b9160058310156108c2578211156108b05760ff60a01b1990931660a082901b60ff60a01b16179092557fa10b529cca5bc10c80df76c1e97548758a642268270584ae612a37eb0a390c5f9161084661084182614a60565b614b40565b805161085a575b5060ff60405191168152a2005b6108aa906108a48461086b886157b4565b9260405193816108848693518092868087019101614be6565b820161089882518093868085019101614be6565b01038084520182614b1f565b856154c8565b8461084d565b6040516361c0b9e960e11b8152600490fd5b634e487b7160e01b600052602160045260246000fd5b604051632726a67f60e11b8152600490fd5b3461036c57602036600319011261036c57610903614c2e565b61090b614e46565b6001600160a01b03168015610932576001600160601b0360a01b600d541617600d55600080f35b60405163d92e233d60e01b8152600490fd5b3461036c57604036600319011261036c5760043560243581600052601360205260ff6001604060002001541660038110156108c257600214610a8757816000526013602052604060002090601282015460ff8160081c1615610a75576001600160a01b03806109b2866150be565b163314918215610a65575b505015610a16578160409160137f66a420b2417e1183cd2d446f9d062281e74e2d2b3fb74ded512c39dc02e5247e940191818354935560148101610a01815461524c565b905560154291015582519182526020820152a2005b60405162461bcd60e51b815260206004820152602160248201527f4e6f7420617574686f72697a656420746f20757064617465206c6561726e696e6044820152606760f81b6064820152608490fd5b90915060101c16331484806109bd565b604051636ec2d48d60e11b8152600490fd5b6040516382564fa560e01b8152600490fd5b602036600319011261036c5760043580600052601360205260ff6001604060002001541660038110156108c257600214610a8757610ad6816150be565b503415610b275760005260136020526040600020610af5348254615618565b905560405134815233907f49af616656db0fca31912fe65a529a84c3634718357324a7397674794e6caf2f60203392a3005b60405162461bcd60e51b815260206004820152600d60248201526c26bab9ba1039b2b7321021272160991b6044820152606490fd5b3461036c57602036600319011261036c57610b75614e46565b600435600b55005b3461036c57604036600319011261036c57610b96614c2e565b610b9e614c44565b9060018060a01b03809116600052600560205260406000209116600052602052602060ff604060002054166040519015158152f35b3461036c57600036600319011261036c576020601054604051908152f35b3461036c57610bff36614c69565b610c08826150be565b6001600160a01b03903390821603610d145782600052601360205260ff6001604060002001541660038110156108c257600214610a8757610c476155fa565b8115610d035782600052601460205260ff60016040600020015460a01c16610cf1577f1ea45e30b31292f9d7c5d37d275b2feca555f13f47dce0fdea2f47e8852ecd7891602091604051610c9a81614ab3565b828152838101913383526001604083019281845288600052601487526040600020905181550192511682549160ff60a01b9051151560a01b16916affffffffffffffffffffff60a81b1617179055604051908152a2005b60405163e391255160e01b8152600490fd5b60405162bfc92160e01b8152600490fd5b604051637a50e05760e01b8152600490fd5b3461036c57602036600319011261036c5760043560005260146020526060604060002060ff6001825492015460405192835260018060a01b038116602084015260a01c1615156040820152f35b3461036c57602036600319011261036c57610d8c614c2e565b610d94614e46565b6001600160a01b03168015610932576001600160601b0360a01b600e541617600e55600080f35b3461036c5760031960e03682011261036c57610dd5614c2e565b6024356001600160401b03811161036c57610df4903690600401614d63565b6064356001600160401b03811161036c57610e13903690600401614d63565b60a4356001600160401b03811161036c57610e32903690600401614d63565b9590966001600160401b0360c4351161036c5760c09060c4353603011261036c57610e5b614e46565b610e636155fa565b6064600c54101561170757600a5495610e7b8761524c565b600a55610e888783615352565b8660005260136020526040600020976001890160ff199081815416905560443560098b01556001600160401b03871161138957610ed587610ecc600a8d0154614a79565b600a8d01615271565b866000601f82116001146116975760009161168c575b508760011b906000198960031b1c191617600a8b01555b600b8a0180546001600160a81b0319166001600160a01b03861617905560128a0180549091166001179055610f3c600460c43501806152c5565b906001600160401b038211611389578190610f67828d6003610f6081830154614a79565b9101615271565b600090601f831160011461161b57600092611610575b50508160011b916000199060031b1c19161760038a01555b610fa9602460c4350160c4356004016152c5565b906001600160401b038211611389578190610fcd828d6004610f6081830154614a79565b600090601f831160011461159f57600092611594575b50508160011b916000199060031b1c19161760048a01555b61100f604460c4350160c4356004016152c5565b906001600160401b038211611389578190611033828d6005610f6081830154614a79565b600090601f831160011461152357600092611518575b50508160011b916000199060031b1c19161760058a01555b611075606460c4350160c4356004016152c5565b906001600160401b038211611389578190611099828d6006610f6081830154614a79565b600090601f83116001146114a75760009261149c575b50508160011b916000199060031b1c19161760068a01555b6110db608460c4350160c4356004016152c5565b906001600160401b038211611389576110fd828c6007610f6081830154614a79565b600090601f8311600114611428576111679392916000918361141d575b50508160011b916000199060031b1c19161760078b01555b60a460c435013560088b01556040519261114b84614ab3565b611156368789614c9a565b845260843560208501523691614c9a565b604082015280518051906001600160401b0382116113895761119982611190600f8d0154614a79565b600f8d01615271565b602090601f83116001146113aa5760409392916000918361139f575b50508160011b916000199060031b1c191617600f8a01555b602081015160108a01550151938451976001600160401b0389116113895788889661120a60209b6112016011860154614a79565b60118601615271565b8a90601f83116001146112fb579260118360008051602061588b8339815191529a9b946112799794611273976000926112f0575b50508160011b916000199060031b1c1916179101555b60843560005260158b5261126c8960406000206152f7565b3691614c9a565b866154c8565b611284600c5461524c565b600c556040805160443581526001898201526001600160a01b039092169186917f95abeb4465b4ad62feb35f85eb0a053ac518e5b0f02a7c23b1ef9b3fa167b06991a36112de604051928392604084526040840191615331565b608435878301520390a2604051908152f35b015190508f8061123e565b60118493929a9594016000528b6000209060005b601f198416811061136f575060018361127997959360008051602061588b8339815191529c9d6011946112739997601f19811610611356575b505050811b01910155611254565b015160001960f88460031b161c191690558f8080611348565b818c015183559a8d019a8c9a506001909201918d0161130f565b634e487b7160e01b600052604160045260246000fd5b015190508b806111b5565b90600f8b0160005260206000209160005b601f1985168110611405575091839160019360409695601f198116106113ec575b505050811b01600f8a01556111cd565b015160001960f88460031b161c191690558b80806113dc565b919260206001819286850151815501940192016113bb565b013590508c8061111a565b60078c0160005260206000209160005b601f198516811061148457509183916001936111679695601f1981161061146a575b505050811b0160078b0155611132565b0135600019600384901b60f8161c191690558c808061145a565b90926020600181928686013581550194019101611438565b013590508b806110af565b90925060068c016000526020600020906000935b601f1984168510611500576001945083601f198116106114e6575b505050811b0160068a01556110c7565b0135600019600384901b60f8161c191690558b80806114d6565b818101358355602094850194600190930192016114bb565b013590508b80611049565b90925060058c016000526020600020906000935b601f198416851061157c576001945083601f19811610611562575b505050811b0160058a0155611061565b0135600019600384901b60f8161c191690558b8080611552565b81810135835560209485019460019093019201611537565b013590508b80610fe3565b90925060048c016000526020600020906000935b601f19841685106115f8576001945083601f198116106115de575b505050811b0160048a0155610ffb565b0135600019600384901b60f8161c191690558b80806115ce565b818101358355602094850194600190930192016115b3565b013590508b80610f7d565b90925060038c016000526020600020906000935b601f1984168510611674576001945083601f1981161061165a575b505050811b0160038a0155610f95565b0135600019600384901b60f8161c191690558b808061164a565b8181013583556020948501946001909301920161162f565b90508801358b610eeb565b9050600a8b0160005260206000209060005b8a601f198b1682106116ef57505088601f198116106116d5575b5050600187811b01600a8b0155610f02565b89013560001960038a901b60f8161c191690558a806116c3565b600183946020939484930135815501930191016116a9565b604051631179963560e01b8152600490fd5b3461036c57602036600319011261036c57600435611736816150be565b50600052601360205261177b604060002061076260108201546117676011611760600f8601614b40565b9401614b40565b604051948594606086526060860190614c09565b9160208501528382036040850152614c09565b3461036c57604036600319011261036c5761001c6117aa614c2e565b6117b2614c5a565b906117bb614e46565b60018060a01b0316600052601260205260406000209060ff801983541691151516179055565b3461036c5760208060031936011261036c576004356117fe615693565b5060606040805161180e81614ab3565b8281526000858201520152611822816150be565b50600052601381526040600020600981015491600b8201549160ff8360a01c169260ff60128301541692611858600a8401614b40565b90611865600c8501615737565b9460405161187281614ab3565b61187e600f8701614b40565b81526118b861189a6011601089015498868501998a5201614b40565b94604083019586526040519a8b5261016080868d01528b0190614c09565b6001600160a01b0390951660408a015260058810156108c2576118f46107629761190c938b9a60608c0152151560808b015260a08a0190614d24565b87850361014089015251606085526060850190614c09565b93519083015251906040818403910152614c09565b3461036c57602036600319011261036c5760043561193e816150be565b5060005260066020526107626119576040600020614b40565b600060405161196581614b04565b52604051918291602083526020830190614c09565b3461036c57602036600319011261036c57600435611996614e46565b6119a46103e882111561577e565b600f55005b3461036c57608036600319011261036c576119c2614c2e565b6119ca614c44565b90604435606435926001600160401b03841161036c573660238501121561036c57611a0261001c943690602481600401359101614c9a565b92611a0e838383614e72565b33615129565b60031960c03682011261036c576024356001600160401b03811161036c57611a40903690600401614d63565b6044356001600160401b03811161036c57611a5f903690600401614d63565b92906084356001600160401b03811161036c57611a80903690600401614d63565b9490956001600160401b0360a4351161036c5760c09060a4353603011261036c5760ff60115416158061232e575b80612319575b61230757611ac06155fa565b600b5434106105a357600a5494611ad68661524c565b600a55611ae38633615352565b8560005260136020526040600020966001880160ff19815416905560043560098901556001600160401b03861161138957611b2e86611b25600a8b0154614a79565b600a8b01615271565b856000601f82116001146122995760009161228e575b508660011b906000198860031b1c191617600a8901555b600b880180546001600160a81b0319163360ff60a01b1916179055611b85600460a43501806152c5565b906001600160401b038211611389578190611ba9828c6003610f6081830154614a79565b600090601f831160011461221d57600092612212575b50508160011b916000199060031b1c19161760038901555b611beb602460a4350160a4356004016152c5565b906001600160401b038211611389578190611c0f828c6004610f6081830154614a79565b600090601f83116001146121a157600092612196575b50508160011b916000199060031b1c19161760048901555b611c51604460a4350160a4356004016152c5565b906001600160401b038211611389578190611c75828c6005610f6081830154614a79565b600090601f83116001146121255760009261211a575b50508160011b916000199060031b1c19161760058901555b611cb7606460a4350160a4356004016152c5565b906001600160401b038211611389578190611cdb828c6006610f6081830154614a79565b600090601f83116001146120a95760009261209e575b50508160011b916000199060031b1c19161760068901555b611d1d608460a4350160a4356004016152c5565b906001600160401b03821161138957611d4682611d3d60078d0154614a79565b60078d01615271565b600090601f831160011461202a57611daf9392916000918361201f575b50508160011b916000199060031b1c19161760078a01555b60a48035013560088a015560405192611d9384614ab3565b611d9e368688614c9a565b845260643560208501523691614c9a565b604082015280518051906001600160401b03821161138957611de182611dd8600f8c0154614a79565b600f8c01615271565b602090601f8311600114611fac57604093929160009183611fa1575b50508160011b916000199060031b1c191617600f8901555b602081015160108901550151928351966001600160401b03881161138957878795611e4960209a6112016011860154614a79565b8990601f8311600114611f145792601183611eab969460008051602061588b8339815191529a9b946108a497600092611f09575b50508160011b916000199060031b1c1916179101555b60643560005260158a5261126c8860406000206152f7565b6040516004358152600087820152847f95abeb4465b4ad62feb35f85eb0a053ac518e5b0f02a7c23b1ef9b3fa167b06960403393a3611ef7604051928392604084526040840191615331565b606435878301520390a2604051908152f35b015190508e80611e7d565b97929190601183016000528a6000209860005b601f1984168110611f87575060018360008051602061588b8339815191529a9b611eab9896946011946108a49997601f19811610611f6e575b505050811b01910155611e93565b015160001960f88460031b161c191690558e8080611f60565b828201518b556001909a01998b9950918c01918c01611f27565b015190508a80611dfd565b90600f8a0160005260206000209160005b601f1985168110612007575091839160019360409695601f19811610611fee575b505050811b01600f890155611e15565b015160001960f88460031b161c191690558a8080611fde565b91926020600181928685015181550194019201611fbd565b013590508b80611d63565b60078b0160005260206000209160005b601f19851681106120865750918391600193611daf9695601f1981161061206c575b505050811b0160078a0155611d7b565b0135600019600384901b60f8161c191690558b808061205c565b9092602060018192868601358155019401910161203a565b013590508a80611cf1565b90925060068b016000526020600020906000935b601f1984168510612102576001945083601f198116106120e8575b505050811b016006890155611d09565b0135600019600384901b60f8161c191690558a80806120d8565b818101358355602094850194600190930192016120bd565b013590508a80611c8b565b90925060058b016000526020600020906000935b601f198416851061217e576001945083601f19811610612164575b505050811b016005890155611ca3565b0135600019600384901b60f8161c191690558a8080612154565b81810135835560209485019460019093019201612139565b013590508a80611c25565b90925060048b016000526020600020906000935b601f19841685106121fa576001945083601f198116106121e0575b505050811b016004890155611c3d565b0135600019600384901b60f8161c191690558a80806121d0565b818101358355602094850194600190930192016121b5565b013590508a80611bbf565b90925060038b016000526020600020906000935b601f1984168510612276576001945083601f1981161061225c575b505050811b016003890155611bd7565b0135600019600384901b60f8161c191690558a808061224c565b81810135835560209485019460019093019201612231565b905085013589611b44565b9050600a890160005260206000209060005b601f19891681106122ef575087601f198116106122d5575b5050600186811b01600a890155611b5b565b860135600019600389901b60f8161c1916905588806122c3565b9091602060018192858b0135815501930191016122ab565b604051633e34a41b60e21b8152600490fd5b506007546001600160a01b0316331415611ab4565b5033600052601260205260ff6040600020541615611aae565b3461036c57604036600319011261036c57612360614c2e565b612368614c5a565b6001600160a01b039091169081156123d9573360005260056020526040600020826000526020526123a98160406000209060ff801983541691151516179055565b60405190151581527f17307eab39ab6107e8899845ad3d59bd9653f200f220920489ca2b5937696c3160203392a3005b604051630b61174360e31b815260048101839052602490fd5b3461036c57602036600319011261036c57600435600581101561036c5760209060170154604051908152f35b3461036c57600036600319011261036c576040516000600180549061244282614a79565b808552918181169081156124d6575060011461247d575b6107628461246981860382614b1f565b604051918291602083526020830190614c09565b600081815292507fb10e2d527612073b26eecdfd717e6a320cf44b4afac2b0732d9fcbe2b7fa0cf65b8284106124be57505050810160200161246982612459565b805460208587018101919091529093019281016124a6565b60ff191660208087019190915292151560051b850190920192506124699150839050612459565b3461036c57600036600319011261036c57602060405160648152f35b3461036c57600036600319011261036c576007546040516001600160a01b039091168152602090f35b3461036c57602061255236614d90565b61255b836150be565b5061257f846040518381948383019687378101600083820152038084520182614b1f565b519020906000526013825260096040600020015414604051908152f35b3461036c57600036600319011261036c576125b5614e46565b6125bd6155fa565b600160ff1960095416176009557f62e78cea01bee320cd4e420270b5ea74000d11b0c9f74754ebdbfc544b05a2586020604051338152a1005b3461036c57604036600319011261036c5760243560043560005260156020526040600020805482101561036c5760209161262f91614e2e565b90546040519160031b1c8152f35b3461036c57604036600319011261036c57600435612659614c44565b90612663816150be565b336001600160a01b0390911603610d145780600052601360205260ff6001604060002001541660038110156108c257600214610a875760009081526013602052604090206012018054610100600160b01b03191660109290921b62010000600160b01b031691909117610100179055005b3461036c5760208060031936011261036c57600435906126f3826150be565b336001600160a01b0390911603610d1457816000526013815260ff6001604060002001541660038110156108c257600214610a8757612730615670565b816000526013815260406000209060018201600260ff19825416179055815491826127ef575b507fa1ab8a666d1303f4c8e0554e3100d5686fb8a5547b3621312da15a7f975387009183600052601482526040600020600181019081549060ff8260a01c166127d7575b505050604051600281527f76c0bad3b7f1c74587dcb478154d4c87ae6663db97cc086b981decf4e35a797c833392a2604051908152a26001600855005b600090556001600160a81b031916905584808061279a565b60009055600080808085335af16128046150f9565b50156105065783612756565b3461036c57600036600319011261036c57612829614e46565b600780546001600160a01b031981169091556000906001600160a01b03167f8be0079c531659141344cd1fd0a4f28419497f9722a3daafe3b4186f6b6457e08280a3005b3461036c57602036600319011261036c576001600160a01b0361288e614c2e565b1680156128ad5760005260036020526020604060002054604051908152f35b6040516322718ad960e21b815260006004820152602490fd5b3461036c57600036600319011261036c57602060ff601154166040519015158152f35b3461036c57602036600319011261036c57600435612906816150be565b336001600160a01b0390911603610d145780600052601360205260ff6001604060002001541660038110156108c257600214610a875760005260136020526001604060002001600160ff19825416179055604051600181527f76c0bad3b7f1c74587dcb478154d4c87ae6663db97cc086b981decf4e35a797c60203392a2005b3461036c57604036600319011261036c57600435600581101561036c576001600160401b0360243581811161036c576129c66129d6913690600401614d63565b9190936129d1614e46565b614a60565b918111611389576129f1816129eb8454614a79565b84615271565b6000601f8211600114612a2c57819293600092612a21575b5050600019600383901b1c191660019190911b179055005b013590508380612a09565b601f198216938360005260209182600020926000905b878210612a7a575050836001959610612a60575b505050811b019055005b0135600019600384901b60f8161c19169055838080612a56565b80600184968294958701358155019501920190612a42565b3461036c57602036600319011261036c57600435612aaf816150be565b336001600160a01b0390911603610d145780600052601360205260ff6001604060002001541660038110156108c257600214610a87576000526013602052600160406000200160ff198154169055604051600081527f76c0bad3b7f1c74587dcb478154d4c87ae6663db97cc086b981decf4e35a797c60203392a2005b3461036c5760e036600319011261036c57612b45614c2e565b6101a0526024356001600160401b03811161036c57612b68903690600401614dc3565b610200526044356001600160401b03811161036c57612b8b903690600401614dc3565b60e052610100526064356001600160401b03811161036c57612bb1903690600401614dc3565b60c052610160526084356001600160401b03811161036c57612bd7903690600401614dc3565b6101405260805260a4356001600160401b03811161036c57612bfd903690600401614dc3565b6001600160401b0360c4939293351161036c57612c1f3660c435600401614dc3565b6101c0526101e052612c2f614e46565b612c376155fa565b60e05161020051908114908115916136d2575b81156136c4575b81156136b9575b81156136ab575b50613699576064612c7561020051600c54615618565b1161170757612c95612c8961020051615625565b6040518060a052614b1f565b6102005160a05152601f19612cac61020051615625565b0136602060a05101376000610120525b6102005161012051101561368957612cda600a54806101805261524c565b600a55612ced610180516101a051615352565b6101805160005260136020526040600020906001820160ff198154169055612d1e6101205160e0516101005161563c565b356009830155612d3561012051610200518561564c565b6001600160401b03811161138957612d5d81612d54600a870154614a79565b600a8701615271565b600091601f821160011461361b57918192600092613610575b50508160011b916000199060031b1c191617600a8301555b6101a051600b830180546001600160a81b0319166001600160a01b039290921691909117905560128201805460ff191660011790556101c05161012051908110156132a2576101e0519060051b81013560be198236030181121561036c57612df79101806152c5565b6001600160401b03811161138957612e1f81612e166003870154614a79565b60038701615271565b600091601f82116001146135a257918192600092613597575b50508160011b916000199060031b1c19161760038301555b612e6d6101205160051b6101e051908101350160208101906152c5565b6001600160401b03811161138957612e9581612e8c6004870154614a79565b60048701615271565b600091601f82116001146135295791819260009261351e575b50508160011b916000199060031b1c19161760048301555b612ee36101205160051b6101e051908101350160408101906152c5565b6001600160401b03811161138957612f0b81612f026005870154614a79565b60058701615271565b600091601f82116001146134b0579181926000926134a5575b50508160011b916000199060031b1c19161760058301555b612f596101205160051b6101e051908101350160608101906152c5565b6001600160401b03811161138957612f8181612f786006870154614a79565b60068701615271565b600091601f82116001146134375791819260009261342c575b50508160011b916000199060031b1c19161760068301555b612fcf6101205160051b6101e051908101350160808101906152c5565b6001600160401b03819492941161138957612ffa81612ff16007850154614a79565b60078501615271565b600093601f82116001146133bc5793819293946000926133b1575b50508160011b916000199060031b1c19161760078201555b61309d6130586101205160a06101e0518260051b810135010135600885015560c0516101605161564c565b919061308f613070610120516101405160805161563c565b3561307f61012051888b61564c565b9290936040519661126c88614ab3565b855260208501523691614c9a565b604082015280518051906001600160401b038211611389576130cf826130c6600f870154614a79565b600f8701615271565b602090601f831160011461333e57604093929160009183613333575b50508160011b916000199060031b1c191617600f8401555b6020810151601084015501518051906001600160401b03821161138957613131826112016011860154614a79565b602090601f83116001146132c35760119291600091836132b8575b50508160011b916000199060031b1c1916179101555b613175610120516101405160805161563c565b35600052601560205261318f6101805160406000206152f7565b6131af6131a661126c61012051610200518661564c565b610180516154c8565b6131ba600c5461524c565b600c5560a05180519061012051918210156132a257602090610180519260051b0101526131f06101205160e0516101005161563c565b356040519081526001602082015260018060a01b036101a05116907f95abeb4465b4ad62feb35f85eb0a053ac518e5b0f02a7c23b1ef9b3fa167b06960406101805192a360008051602061588b8339815191526132566101205160c0516101605161564c565b61328361326f610120949394516101405160805161563c565b359360405192604084526040840191615331565b9260208201528061018051930390a26001610120510161012052612cbc565b634e487b7160e01b600052603260045260246000fd5b01519050878061314c565b906011840160005260206000209160005b601f198516811061331b5750918391600193601195601f19811610613302575b505050811b01910155613162565b015160001960f88460031b161c191690558780806132f4565b919260206001819286850151815501940192016132d4565b0151905088806130eb565b90600f850160005260206000209160005b601f1985168110613399575091839160019360409695601f19811610613380575b505050811b01600f840155613103565b015160001960f88460031b161c19169055888080613370565b9192602060018192868501518155019401920161334f565b013590508680613015565b600783016000526020600020906000955b601f19841687106134145760019495965083601f198116106133fa575b505050811b01600782015561302d565b0135600019600384901b60f8161c191690558680806133ea565b818101358355602096870196600190930192016133cd565b013590508680612f9a565b600685016000526020600020906000935b601f198416851061348d576001945083601f19811610613473575b505050811b016006830155612fb2565b0135600019600384901b60f8161c19169055868080613463565b81810135835560209485019460019093019201613448565b013590508680612f24565b600585016000526020600020906000935b601f1984168510613506576001945083601f198116106134ec575b505050811b016005830155612f3c565b0135600019600384901b60f8161c191690558680806134dc565b818101358355602094850194600190930192016134c1565b013590508680612eae565b600485016000526020600020906000935b601f198416851061357f576001945083601f19811610613565575b505050811b016004830155612ec6565b0135600019600384901b60f8161c19169055868080613555565b8181013583556020948501946001909301920161353a565b013590508680612e38565b600385016000526020600020906000935b601f19841685106135f8576001945083601f198116106135de575b505050811b016003830155612e50565b0135600019600384901b60f8161c191690558680806135ce565b818101358355602094850194600190930192016135b3565b013590508680612d76565b600a85016000526020600020906000935b601f1984168510613671576001945083601f19811610613657575b505050811b01600a830155612d8e565b0135600019600384901b60f8161c19169055868080613647565b8181013583556020948501946001909301920161362c565b6040518061076260a05182614df3565b60405163512509d360e11b8152600490fd5b90506101c051141584612c5f565b828114159150612c58565b610140518114159150612c51565b60c0518114159150612c4a565b3461036c57608036600319011261036c5760043560443580151560243581830361036c576064356001600160401b03811161036c57613722903690600401614d63565b600e54909491906001600160a01b0316330361388e577fee6088724bcecc2617103f0482e6237c070827162ab05c426ea5b173785dec989461383c926137666155fa565b61376f886150be565b50613779856150be565b508760005260136020526040600020600c8101600d82018054916001600160801b0394856137a88186166156be565b166001600160801b03199485161783551561384e579081600e925484876137d08184166156be565b1691161790556138066137e6825460801c6156be565b82546001600160801b031660809190911b6001600160801b031916178255565b5460801c92019283549081168311613841575b505050505b60405194859485526020850152606060408501526060840191615331565b0390a2005b1617905587808080613819565b909392506138849150613864815460801c6156be565b81546001600160801b031660809190911b6001600160801b031916179055565b815416905561381e565b604051631d9d6ea960e31b8152600490fd5b3461036c57602036600319011261036c5760206138be6004356150be565b6040516001600160a01b039091168152f35b3461036c57600036600319011261036c57600d546040516001600160a01b039091168152602090f35b3461036c57600036600319011261036c57602060ff600954166040519015158152f35b3461036c5760208060031936011261036c5760c0906004356040519061394182614ace565b600060a060609384815284868201528460408201528480820152846080820152015261396c816150be565b5060005260138252613a5f60406000206040519261398984614ace565b61399560038301614b40565b8452613a4e6139a660048401614b40565b91868601928352613a3d6139bc60058601614b40565b604088019081526139cf60068701614b40565b92808901938452613a2c613a1660086139ea60078b01614b40565b9960808d019a8b5201549a60a081019b8c526040519d8d8f9e928f9384525192015260e08d0190614c09565b9651601f198c8903810160408e01529790614c09565b915190868b840301908b0152614c09565b905183888303016080890152614c09565b9151908583030160a0860152614c09565b905160c08301520390f35b3461036c57600036600319011261036c57600e546040516001600160a01b039091168152602090f35b3461036c57613aa136614d90565b613aaa836150be565b6001600160a01b0392903390841603610d1457836000526020936013855260ff6001604060002001541660038110156108c257600214610a8757806000526013855260ff6001604060002001541660038110156108c257600114613be257613b106155fa565b60005260138452604060002092600184015460081c16928315613ba5579160008094928194600242910155826040519384928337810182815203925af1613b556150f9565b9015613b935761383c7fd7d62979ae48a176c84f013982271cb0978ab8192f62cf045874ae8a1cf767fc916040519182918583523395830190614c09565b604051630824d20f60e21b8152600490fd5b60405162461bcd60e51b8152600481018690526015602482015274139bc81b1bd9da58c818dbdb9d1c9858dd081cd95d605a1b6044820152606490fd5b604051632437e77160e11b8152600490fd5b3461036c576020613c0436614d90565b613c0d836150be565b50613c31846040518381948383019687378101600083820152038084520182614b1f565b519020906000526013825260106040600020015414604051908152f35b3461036c57600036600319011261036c57613c67614e46565b613c6f615670565b60008080804760018060a01b03600d54165af1613c8a6150f9565b5015610506576001600855005b3461036c57604036600319011261036c57600435613cb3614c44565b90613cbd816150be565b6001600160a01b0391903390831603610d145780600052601360205260ff6001604060002001541660038110156108c257600214610a87576000526013602052600160406000200191825492610100600160a81b038260081b16610100600160a81b03198516179055816040519360081c1683521660208201527fc7d3cff0397f47c60f877b10188255f15ea89c9bad5c53c0d60dab38fe1e28d560403392a2005b3461036c57602036600319011261036c57600435613d7b615693565b50613d85816150be565b5080600052601360205260406000208054906001810154906002613dac60ff8416956150be565b9101549160405193613dbd85614ae9565b8452602084019460038110156108c2578552604084019460018060a01b03809316865282606086019260081c16825260808501938452604051945185525160038110156108c25760a095839160208701525116604085015251166060830152516080820152f35b3461036c5761001c613e3536614cef565b9060405192613e4384614b04565b60008452611a0e838383614e72565b3461036c57600036600319011261036c57613e6b614e46565b60095460ff811615613eaa5760ff19166009557f5db9ee0a495bf2e6ff9c91a7834c1ba4fdd244a5e8aa4e537bd38aeae4b073aa6020604051338152a1005b604051638dfc202b60e01b8152600490fd5b3461036c57602036600319011261036c57600435613ed9816150be565b336001600160a01b0390911603610d145780600052601460205260ff60016040600020015460a01c16156105b557806000526014602052604060002060018101906000825491556affffffffffffffffffffff60a81b1690557f411aee90354c51b1b04cd563fcab2617142a9d50da19232d888547c8a1b7fd8a600080a2005b3461036c57602036600319011261036c57600435613f75615693565b50613f7f816150be565b50600052601360205260a0613f9a600c604060002001615737565b613fa76040518092614d24565bf35b3461036c57602036600319011261036c57613fc2614e46565b600435601c55005b3461036c57613fd836614c69565b90613fe1615670565b613fea816150be565b336001600160a01b0390911603610d1457600052601360205260406000209081549182821161403157600080808481946140248289615663565b9055335af1613c8a6150f9565b60405163aac63ff960e01b8152600490fd5b3461036c5761001c61405436614cef565b91614e72565b3461036c57600036600319011261036c576020600f54604051908152f35b3461036c5760031960403682011261036c57602435906001600160401b03821161036c5760c090823603011261036c57604051906140b582614ace565b80600401356001600160401b03811161036c576140d89060043691840101614cd1565b825260248101356001600160401b03811161036c576140fd9060043691840101614cd1565b602083015260448101356001600160401b03811161036c576141259060043691840101614cd1565b604083015260648101356001600160401b03811161036c5761414d9060043691840101614cd1565b60608301526084810135906001600160401b03821161036c5761417860a49260043691840101614cd1565b6080840152013560a082015261418f6004356150be565b336001600160a01b0390911603610d1457600435600052601360205260ff6001604060002001541660038110156108c257600214610a8757600435600052601360205260406000209080519182516001600160401b03811161138957614205816141fc6003850154614a79565b60038501615271565b6020601f82116001146145d257819293946000926145c7575b50508160011b916000199060031b1c19161760038201555b60208201519182516001600160401b038111611389576142668161425d6004860154614a79565b60048601615271565b6020601f8211600114614559578192939460009261454e575b50508160011b916000199060031b1c19161760048301555b60408101519182516001600160401b038111611389576142c7816142be6005850154614a79565b60058501615271565b6020601f82116001146144e057819293946000926144d5575b50508160011b916000199060031b1c19161760058201555b600681019160608101519283516001600160401b03811161138957614321816129eb8454614a79565b602094601f821160011461446f57948192939495600092614464575b50508160011b916000199060031b1c19161790555b600782019160808201519283516001600160401b0381116113895761437b816129eb8454614a79565b6020601f82116001146143fb5781906080966000926143f0575b50508160011b916000199060031b1c19161790555b600860a083015191015501517f459157ba24c7ab9878b165ef465fa6ae2ab42bcd8445f576be378768b0c47309604051602081528061383c600435946020830190614c09565b015190508680614395565b601f198216958360005260206000209660005b81811061444c57509160809791846001959410614433575b505050811b0190556143aa565b015160001960f88460031b161c19169055868080614426565b8383015189556001909801976020938401930161440e565b01519050858061433d565b601f198216958360005260206000209160005b8881106144bd575083600195969798106144a4575b505050811b019055614352565b015160001960f88460031b161c19169055858080614497565b91926020600181928685015181550194019201614482565b0151905084806142e0565b6005830160005260206000209060005b601f19841681106145365750600193949583601f1981161061451d575b505050811b0160058201556142f8565b015160001960f88460031b161c1916905584808061450d565b9091602060018192858a0151815501930191016144f0565b01519050848061427f565b6004840160005260206000209060005b601f19841681106145af5750600193949583601f19811610614596575b505050811b016004830155614297565b015160001960f88460031b161c19169055848080614586565b9091602060018192858a015181550193019101614569565b01519050848061421e565b6003830160005260206000209060005b601f19841681106146285750600193949583601f1981161061460f575b505050811b016003820155614236565b015160001960f88460031b161c191690558480806145ff565b9091602060018192858a0151815501930191016145e2565b3461036c57600036600319011261036c576020600a54604051908152f35b3461036c57600036600319011261036c576020601c54604051908152f35b3461036c57600036600319011261036c576020600b54604051908152f35b3461036c57602036600319011261036c576000604080516146ba81614ab3565b82815282602082015201526004356000526014602052606060406000206040516146e381614ab3565b60018254928383520154906020810160ff604060018060a01b03938486168452019360a01c1615158352604051938452511660208301525115156040820152f35b3461036c5761473236614c69565b9061473b614e46565b600581101561474a5760170155005b60405162461bcd60e51b815260206004820152600d60248201526c092dcecc2d8d2c840d2dcc8caf609b1b6044820152606490fd5b3461036c57602036600319011261036c5760043580151580910361036c576147a5614e46565b60ff801960115416911617601155600080f35b3461036c57604036600319011261036c576147d1614c2e565b6024356147dd816150be565b3315158061488c575b8061485f575b614847576001600160a01b039283169282918491167f8c5be1e5ebec7d5bd14f71427d1e84f3dd0314c0f7b2291e5b200ac8c7c3b925600080a4600090815260046020526040902080546001600160a01b0319169091179055005b60405163a9fbf51f60e01b8152336004820152602490fd5b5060018060a01b038116600052600560205260406000203360005260205260ff60406000205416156147ec565b506001600160a01b0381163314156147e6565b3461036c57602036600319011261036c576004356148bc816150be565b506000526004602052602060018060a01b0360406000205416604051908152f35b3461036c57600036600319011261036c57604051600080546148fe81614a79565b808452906001908181169081156124d65750600114614927576107628461246981860382614b1f565b600080805292507f290decd9548b62a8d60345a988386fc84ba6bc95484008f6362f93160ef3e5635b82841061496857505050810160200161246982612459565b80546020858701810191909152909301928101614950565b3461036c57602036600319011261036c57600435600581101561036c5761246961084161076292614a60565b3461036c57602036600319011261036c576004356149c8614e46565b6149d66103e882111561577e565b601055005b3461036c57602036600319011261036c576004359063ffffffff60e01b821680920361036c57602091632483248360e11b8114908115614a1d575b5015158152f35b6380ac58cd60e01b811491508115614a4f575b8115614a3e575b5083614a16565b6301ffc9a760e01b14905083614a37565b635b5e139f60e01b81149150614a30565b60058110156108c2576000526016602052604060002090565b90600182811c92168015614aa9575b6020831014614a9357565b634e487b7160e01b600052602260045260246000fd5b91607f1691614a88565b606081019081106001600160401b0382111761138957604052565b60c081019081106001600160401b0382111761138957604052565b60a081019081106001600160401b0382111761138957604052565b602081019081106001600160401b0382111761138957604052565b90601f801991011681019081106001600160401b0382111761138957604052565b9060405191826000825492614b5484614a79565b908184526001948581169081600014614bc35750600114614b80575b5050614b7e92500383614b1f565b565b9093915060005260209081600020936000915b818310614bab575050614b7e93508201013880614b70565b85548884018501529485019487945091830191614b93565b915050614b7e94506020925060ff191682840152151560051b8201013880614b70565b60005b838110614bf95750506000910152565b8181015183820152602001614be9565b90602091614c2281518092818552858086019101614be6565b601f01601f1916010190565b600435906001600160a01b038216820361036c57565b602435906001600160a01b038216820361036c57565b60243590811515820361036c57565b604090600319011261036c576004359060243590565b6001600160401b03811161138957601f01601f191660200190565b929192614ca682614c7f565b91614cb46040519384614b1f565b82948184528183011161036c578281602093846000960137010152565b9080601f8301121561036c57816020614cec93359101614c9a565b90565b606090600319011261036c576001600160a01b0390600435828116810361036c5791602435908116810361036c579060443590565b608090816001600160801b0391828151168552826020820151166020860152826040820151166040860152826060820151166060860152015116910152565b9181601f8401121561036c578235916001600160401b03831161036c576020838186019501011161036c57565b90604060031983011261036c5760043591602435906001600160401b03821161036c57614dbf91600401614d63565b9091565b9181601f8401121561036c578235916001600160401b03831161036c576020808501948460051b01011161036c57565b6020908160408183019282815285518094520193019160005b828110614e1a575050505090565b835185529381019392810192600101614e0c565b80548210156132a25760005260206000200190600090565b6007546001600160a01b03163303614e5a57565b60405163118cdaa760e01b8152336004820152602490fd5b906001600160a01b03908116801561057157600091848352846020926002845260409383858720541695869133151580614f6c575b509060027fddf252ad1be2c89b69c2b068fc378daa952ba7f163c4a11628f55a4df523b3ef9284614f39575b85835260038152888320805460010190558683525286812080546001600160a01b0319168517905580a483168203614f0b5750505050565b516364283d7b60e01b81526001600160a01b0392831660048201526024810193909352166044820152606490fd5b600087815260046020526040902080546001600160a01b0319169055848352600381528883208054600019019055614ed3565b91939450915080614fc1575b15614f8857879291869138614ea7565b848887614fa5576024915190637e27328960e01b82526004820152fd5b604491519063177e802f60e01b82523360048301526024820152fd5b503386148015614fe6575b80614f785750878252600481523384868420541614614f78565b5085825260058152848220338352815260ff8583205416614fcc565b6000828152600260205260408120546001600160a01b03908116939284917fddf252ad1be2c89b69c2b068fc378daa952ba7f163c4a11628f55a4df523b3ef9183615089575b169283615071575b84815260026020526040812080546001600160a01b0319168517905580a490565b83815260036020526040812060018154019055615050565b600086815260046020526040902080546001600160a01b03191690558385526003602052604085208054600019019055615048565b6000818152600260205260409020546001600160a01b03169081156150e1575090565b60249060405190637e27328960e01b82526004820152fd5b3d15615124573d9061510a82614c7f565b916151186040519384614b1f565b82523d6000602084013e565b606090565b9293823b615139575b5050505050565b61517d9060018060a01b038094169560405194859481630a85bd0160e11b988988521660048701521660248501526044840152608060648401526084830190614c09565b03906020816000938185885af1908290826151fd575b50506151cb57826151a26150f9565b80519190826151c457604051633250574960e11b815260048101839052602490fd5b6020915001fd5b6001600160e01b031916036151e557503880808080615132565b60249060405190633250574960e11b82526004820152fd5b909192506020813d8211615244575b8161521960209383614b1f565b810103126152405751906001600160e01b03198216820361523d5750903880615193565b80fd5b5080fd5b3d915061520c565b600019811461525b5760010190565b634e487b7160e01b600052601160045260246000fd5b90601f811161527f57505050565b600091825260208220906020601f850160051c830194106152bb575b601f0160051c01915b8281106152b057505050565b8181556001016152a4565b909250829061529b565b903590601e198136030182121561036c57018035906001600160401b03821161036c5760200191813603831361036c57565b8054680100000000000000008110156113895761531991600182018155614e2e565b819291549060031b91821b91600019901b1916179055565b908060209392818452848401376000828201840152601f01601f1916010190565b604091825161536081614b04565b60008082526001600160a01b03848116949192919085156154b0576153858583615002565b16615498573b615396575050505050565b60206153d391869795965180938192630a85bd0160e11b978884523360048501528760248501526044840152608060648401526084830190614c09565b038185895af190829082615450575b505061541b575050506153f36150f9565b8051929083615414578151633250574960e11b815260048101849052602490fd5b6020849101fd5b9193916001600160e01b031916036154395750503880808080615132565b602492505190633250574960e11b82526004820152fd5b909192506020813d8211615490575b8161546c60209383614b1f565b810103126152405751906001600160e01b03198216820361523d57509038806153e2565b3d915061545f565b85516339e3563760e11b815260048101849052602490fd5b8651633250574960e11b815260048101859052602490fd5b9190916000908082526020916006835260408120908551906001600160401b0382116155e657615502826154fc8554614a79565b85615271565b8490601f831160011461556257907ff8e1a15aba9398e019f0b49df1a4fde98ee17ae345cb5f6b5e2c27f5033e8ce7969783615557575b50508160011b916000199060031b1c19161790555b604051908152a1565b015190503880615539565b9196601f198816848452868420935b8181106155cf57509160019391897ff8e1a15aba9398e019f0b49df1a4fde98ee17ae345cb5f6b5e2c27f5033e8ce7999a94106155b6575b505050811b01905561554e565b015160001960f88460031b161c191690553880806155a9565b929387600181928786015181550195019301615571565b634e487b7160e01b81526041600452602490fd5b60ff6009541661560657565b60405163d93c066560e01b8152600490fd5b9190820180921161525b57565b6001600160401b0381116113895760051b60200190565b91908110156132a25760051b0190565b908210156132a257614dbf9160051b8101906152c5565b9190820391821161525b57565b600260085414615681576002600855565b604051633ee5aeb560e01b8152600490fd5b604051906156a082614ae9565b60006080838281528260208201528260408201528260608201520152565b6001600160801b0380911690811461525b5760010190565b6001600160801b03601b5491169081101561571e57601a548110156157185760195481101561571257601854111561570d57600090565b600190565b50600290565b50600390565b50600490565b8181029291811591840414171561525b57565b9060405161574481614ae9565b6080819360028154916001600160801b03928381168652841c602086015260018101548381166040870152841c6060860152015416910152565b1561578557565b60405162461bcd60e51b81526020600482015260076024820152664d61782031302560c81b6044820152606490fd5b801561585c5780816000925b61584657506157ce82614c7f565b916157dc6040519384614b1f565b80835281601f196157ec83614c7f565b013660208601375b6157fd57505090565b9060001982019082821161525b578192600a92603090848406820180921161525b57865111156132a25760f81b6001600160f81b03191660001a908501601f01530490816157f4565b9091615853600a9161524c565b929104806157c0565b50604051604081018181106001600160401b038211176113895760405260018152600360fc1b60208201529056fee94ebda66cc86267dbc220471b245eb48bf72f9861949e412199792eb5e8aeb0a2646970667358221220ef596a11b194150ba98f5bef50b757f5909cacbc27b212f6095bbf177c478d7a64736f6c63430008140033","opcodes":"PUSH1 0x80 CALLVALUE PUSH3 0x467 JUMPI PUSH3 0x5D9B SWAP1 PUSH1 0x1 PUSH1 0x1 PUSH1 0x40 SHL SUB SWAP1 PUSH1 0x1F PUSH1 0x1F NOT CODESIZE DUP6 SWAP1 SUB DUP3 DUP2 ADD DUP3 AND DUP5 ADD SWAP1 DUP6 DUP3 GT DUP6 DUP4 LT OR PUSH3 0x451 JUMPI DUP1 DUP6 SWAP2 PUSH1 0x40 SWAP9 DUP10 SWAP5 DUP6 MSTORE DUP4 CODECOPY DUP2 ADD SUB SLT PUSH3 0x467 JUMPI PUSH3 0x52 DUP4 PUSH3 0x48C JUMP JUMPDEST SWAP1 PUSH3 0x62 PUSH1 0x20 DUP1 SWAP6 ADD PUSH3 0x48C JUMP JUMPDEST SWAP3 PUSH3 0x6D PUSH3 0x46C JUMP JUMPDEST SWAP2 PUSH1 0xB DUP4 MSTORE PUSH11 0x47656D426F7473204E4641 PUSH1 0xA8 SHL DUP7 DUP5 ADD MSTORE PUSH3 0x8F PUSH3 0x46C JUMP JUMPDEST SWAP1 PUSH1 0x5 SWAP3 DUP4 DUP4 MSTORE PUSH5 0x47424E4641 PUSH1 0xD8 SHL DUP9 DUP5 ADD MSTORE DUP5 MLOAD SWAP3 DUP10 DUP5 GT PUSH3 0x451 JUMPI PUSH1 0x0 SWAP4 DUP5 SLOAD SWAP7 PUSH1 0x1 SWAP8 DUP9 DUP2 DUP2 SHR SWAP2 AND DUP1 ISZERO PUSH3 0x446 JUMPI JUMPDEST DUP13 DUP3 LT EQ PUSH3 0x432 JUMPI SWAP1 DUP2 DUP13 DUP7 DUP6 SWAP5 GT PUSH3 0x3F8 JUMPI JUMPDEST POP POP DUP12 SWAP1 DUP6 DUP4 GT PUSH1 0x1 EQ PUSH3 0x395 JUMPI DUP8 SWAP3 PUSH3 0x389 JUMPI JUMPDEST POP POP PUSH1 0x0 NOT PUSH1 0x3 DUP4 SWAP1 SHL SHR NOT AND SWAP1 DUP8 SHL OR DUP5 SSTORE JUMPDEST DUP1 MLOAD SWAP3 DUP11 DUP5 GT PUSH3 0x375 JUMPI DUP7 SLOAD DUP8 DUP2 DUP2 SHR SWAP2 AND DUP1 ISZERO PUSH3 0x36A JUMPI JUMPDEST DUP12 DUP3 LT EQ PUSH3 0x356 JUMPI SWAP1 DUP2 DUP12 DUP6 DUP8 SWAP7 SWAP6 SWAP5 GT PUSH3 0x31C JUMPI JUMPDEST POP POP DUP11 SWAP3 DUP5 GT PUSH1 0x1 EQ PUSH3 0x2BB JUMPI POP DUP5 SWAP3 PUSH3 0x2AF JUMPI JUMPDEST POP POP PUSH1 0x0 NOT PUSH1 0x3 DUP4 SWAP1 SHL SHR NOT AND SWAP1 DUP5 SHL OR DUP4 SSTORE JUMPDEST CALLER ISZERO PUSH3 0x298 JUMPI PUSH1 0x7 DUP1 SLOAD PUSH1 0x1 PUSH1 0x1 PUSH1 0xA0 SHL SUB NOT DUP1 DUP3 AND CALLER SWAP1 DUP2 OR SWAP1 SWAP4 SSTORE SWAP9 PUSH1 0x1 PUSH1 0x1 PUSH1 0xA0 SHL SUB SWAP9 SWAP3 SWAP1 SWAP2 DUP10 AND PUSH32 0x8BE0079C531659141344CD1FD0A4F28419497F9722A3DAAFE3B4186F6B6457E0 DUP6 DUP1 LOG3 DUP5 PUSH1 0x8 SSTORE PUSH8 0x16345785D8A0000 PUSH1 0xB SSTORE PUSH2 0x1F4 PUSH1 0xF SSTORE PUSH1 0xFA PUSH1 0x10 SSTORE DUP10 MLOAD SWAP1 PUSH1 0xA0 DUP3 ADD SWAP1 DUP3 DUP3 LT SWAP1 DUP3 GT OR PUSH3 0x284 JUMPI DUP11 MSTORE DUP3 DUP2 MSTORE PUSH1 0xA DUP3 DUP3 ADD MSTORE PUSH1 0x32 DUP11 DUP3 ADD MSTORE PUSH1 0x64 PUSH1 0x60 DUP3 ADD MSTORE PUSH1 0xFA PUSH1 0x80 DUP3 ADD MSTORE DUP8 SWAP6 SWAP5 SWAP4 SWAP3 SWAP1 SWAP2 SWAP1 JUMPDEST DUP4 DUP2 LT PUSH3 0x26B JUMPI POP POP POP POP POP PUSH1 0xA PUSH1 0x1C SSTORE AND DUP1 ISZERO DUP1 ISZERO PUSH3 0x260 JUMPI JUMPDEST PUSH3 0x24F JUMPI DUP4 PUSH1 0xD SLOAD AND OR PUSH1 0xD SSTORE AND SWAP1 PUSH1 0xE SLOAD AND OR PUSH1 0xE SSTORE MLOAD PUSH2 0x58E0 SWAP1 DUP2 PUSH3 0x4BB DUP3 CODECOPY RETURN JUMPDEST DUP5 MLOAD PUSH4 0xD92E233D PUSH1 0xE0 SHL DUP2 MSTORE PUSH1 0x4 SWAP1 REVERT JUMPDEST POP DUP3 DUP3 AND ISZERO PUSH3 0x229 JUMP JUMPDEST DUP3 MLOAD PUSH1 0xFF AND PUSH1 0x17 DUP3 ADD SSTORE DUP9 SWAP7 POP SWAP2 DUP2 ADD SWAP2 DUP5 ADD PUSH3 0x20C JUMP JUMPDEST PUSH4 0x4E487B71 PUSH1 0xE0 SHL DUP5 MSTORE PUSH1 0x41 PUSH1 0x4 MSTORE PUSH1 0x24 DUP5 REVERT JUMPDEST PUSH1 0x24 SWAP1 DUP9 MLOAD SWAP1 PUSH4 0x1E4FBDF7 PUSH1 0xE0 SHL DUP3 MSTORE PUSH1 0x4 DUP3 ADD MSTORE REVERT JUMPDEST ADD MLOAD SWAP1 POP CODESIZE DUP1 PUSH3 0x150 JUMP JUMPDEST DUP8 DUP7 MSTORE DUP11 DUP7 KECCAK256 DUP9 SWAP6 SWAP1 SWAP4 SWAP3 SWAP2 AND DUP7 JUMPDEST DUP13 DUP3 DUP3 LT PUSH3 0x305 JUMPI POP POP DUP5 GT PUSH3 0x2EB JUMPI JUMPDEST POP POP POP DUP2 SHL ADD DUP4 SSTORE PUSH3 0x164 JUMP JUMPDEST ADD MLOAD PUSH1 0x0 NOT PUSH1 0xF8 DUP5 PUSH1 0x3 SHL AND SHR NOT AND SWAP1 SSTORE CODESIZE DUP1 DUP1 PUSH3 0x2DD JUMP JUMPDEST DUP4 DUP6 ADD MLOAD DUP7 SSTORE DUP11 SWAP8 SWAP1 SWAP6 ADD SWAP5 SWAP4 DUP5 ADD SWAP4 ADD PUSH3 0x2CA JUMP JUMPDEST PUSH3 0x344 SWAP2 DUP11 DUP10 MSTORE DUP6 DUP3 DUP11 KECCAK256 SWAP2 DUP2 DUP10 ADD DUP13 SHR DUP4 ADD SWAP4 DUP10 LT PUSH3 0x34C JUMPI JUMPDEST ADD DUP11 SHR ADD SWAP1 PUSH3 0x4A1 JUMP JUMPDEST CODESIZE DUP12 PUSH3 0x139 JUMP JUMPDEST SWAP3 POP DUP2 SWAP3 PUSH3 0x339 JUMP JUMPDEST PUSH4 0x4E487B71 PUSH1 0xE0 SHL DUP7 MSTORE PUSH1 0x22 PUSH1 0x4 MSTORE PUSH1 0x24 DUP7 REVERT JUMPDEST SWAP1 PUSH1 0x7F AND SWAP1 PUSH3 0x121 JUMP JUMPDEST PUSH4 0x4E487B71 PUSH1 0xE0 SHL DUP6 MSTORE PUSH1 0x41 PUSH1 0x4 MSTORE PUSH1 0x24 DUP6 REVERT JUMPDEST ADD MLOAD SWAP1 POP CODESIZE DUP1 PUSH3 0xF2 JUMP JUMPDEST SWAP1 DUP13 SWAP2 DUP8 DUP12 SWAP6 AND DUP10 DUP1 MSTORE DUP4 DUP11 KECCAK256 SWAP4 DUP11 SWAP1 JUMPDEST DUP3 DUP3 LT PUSH3 0x3E0 JUMPI POP POP DUP5 GT PUSH3 0x3C6 JUMPI JUMPDEST POP POP POP DUP2 SHL ADD DUP5 SSTORE PUSH3 0x106 JUMP JUMPDEST ADD MLOAD PUSH1 0x0 NOT PUSH1 0xF8 DUP5 PUSH1 0x3 SHL AND SHR NOT AND SWAP1 SSTORE CODESIZE DUP1 DUP1 PUSH3 0x3B8 JUMP JUMPDEST DUP4 DUP6 ADD MLOAD DUP7 SSTORE DUP14 SWAP8 SWAP1 SWAP6 ADD SWAP5 SWAP4 DUP5 ADD SWAP4 ADD DUP16 PUSH3 0x3A6 JUMP JUMPDEST PUSH3 0x420 SWAP2 DUP10 DUP1 MSTORE DUP8 DUP3 DUP12 KECCAK256 SWAP2 DUP2 DUP8 ADD DUP14 SHR DUP4 ADD SWAP4 DUP8 LT PUSH3 0x428 JUMPI JUMPDEST ADD DUP12 SHR ADD SWAP1 PUSH3 0x4A1 JUMP JUMPDEST CODESIZE DUP13 PUSH3 0xDB JUMP JUMPDEST SWAP3 POP DUP2 SWAP3 PUSH3 0x415 JUMP JUMPDEST PUSH4 0x4E487B71 PUSH1 0xE0 SHL DUP8 MSTORE PUSH1 0x22 PUSH1 0x4 MSTORE PUSH1 0x24 DUP8 REVERT JUMPDEST SWAP1 PUSH1 0x7F AND SWAP1 PUSH3 0xC5 JUMP JUMPDEST PUSH4 0x4E487B71 PUSH1 0xE0 SHL PUSH1 0x0 MSTORE PUSH1 0x41 PUSH1 0x4 MSTORE PUSH1 0x24 PUSH1 0x0 REVERT JUMPDEST PUSH1 0x0 DUP1 REVERT JUMPDEST PUSH1 0x40 DUP1 MLOAD SWAP2 SWAP1 DUP3 ADD PUSH1 0x1 PUSH1 0x1 PUSH1 0x40 SHL SUB DUP2 GT DUP4 DUP3 LT OR PUSH3 0x451 JUMPI PUSH1 0x40 MSTORE JUMP JUMPDEST MLOAD SWAP1 PUSH1 0x1 PUSH1 0x1 PUSH1 0xA0 SHL SUB DUP3 AND DUP3 SUB PUSH3 0x467 JUMPI JUMP JUMPDEST DUP2 DUP2 LT PUSH3 0x4AD JUMPI POP POP JUMP JUMPDEST PUSH1 0x0 DUP2 SSTORE PUSH1 0x1 ADD PUSH3 0x4A1 JUMP INVALID PUSH2 0x220 DUP1 PUSH1 0x40 MSTORE PUSH1 0x4 CALLDATASIZE LT ISZERO PUSH2 0x1E JUMPI JUMPDEST POP CALLDATASIZE ISZERO PUSH2 0x1C JUMPI PUSH1 0x0 DUP1 REVERT JUMPDEST STOP JUMPDEST PUSH1 0x0 CALLDATALOAD PUSH1 0xE0 SHR SWAP1 DUP2 PUSH4 0x1FFC9A7 EQ PUSH2 0x49DB JUMPI POP DUP1 PUSH4 0x3A9EBF4 EQ PUSH2 0x49AC JUMPI DUP1 PUSH4 0x6C8C525 EQ PUSH2 0x4980 JUMPI DUP1 PUSH4 0x6FDDE03 EQ PUSH2 0x48DD JUMPI DUP1 PUSH4 0x81812FC EQ PUSH2 0x489F JUMPI DUP1 PUSH4 0x95EA7B3 EQ PUSH2 0x47B8 JUMPI DUP1 PUSH4 0xCCBA3E9 EQ PUSH2 0x477F JUMPI DUP1 PUSH4 0xF96FD79 EQ PUSH2 0x4724 JUMPI DUP1 PUSH4 0x107A274A EQ PUSH2 0x469A JUMPI DUP1 PUSH4 0x13966DB5 EQ PUSH2 0x467C JUMPI DUP1 PUSH4 0x175485ED EQ PUSH2 0x465E JUMPI DUP1 PUSH4 0x18160DDD EQ PUSH2 0x4640 JUMPI DUP1 PUSH4 0x1AF41D4D EQ PUSH2 0x4078 JUMPI DUP1 PUSH4 0x22DCD13E EQ PUSH2 0x405A JUMPI DUP1 PUSH4 0x23B872DD EQ PUSH2 0x4043 JUMPI DUP1 PUSH4 0x2787A4C6 EQ PUSH2 0x3FCA JUMPI DUP1 PUSH4 0x28778030 EQ PUSH2 0x3FA9 JUMPI DUP1 PUSH4 0x2F6F343A EQ PUSH2 0x3F59 JUMPI DUP1 PUSH4 0x305A67A8 EQ PUSH2 0x3EBC JUMPI DUP1 PUSH4 0x3F4BA83A EQ PUSH2 0x3E52 JUMPI DUP1 PUSH4 0x42842E0E EQ PUSH2 0x3E24 JUMPI DUP1 PUSH4 0x44C9AF28 EQ PUSH2 0x3D5F JUMPI DUP1 PUSH4 0x4590AE21 EQ PUSH2 0x3C97 JUMPI DUP1 PUSH4 0x476343EE EQ PUSH2 0x3C4E JUMPI DUP1 PUSH4 0x48D34DC3 EQ PUSH2 0x3BF4 JUMPI DUP1 PUSH4 0x55150C16 EQ PUSH2 0x3A93 JUMPI DUP1 PUSH4 0x57302CD4 EQ PUSH2 0x3A6A JUMPI DUP1 PUSH4 0x59295330 EQ PUSH2 0x391C JUMPI DUP1 PUSH4 0x5C975ABB EQ PUSH2 0x38F9 JUMPI DUP1 PUSH4 0x61D027B3 EQ PUSH2 0x38D0 JUMPI DUP1 PUSH4 0x6352211E EQ PUSH2 0x38A0 JUMPI DUP1 PUSH4 0x64CB04AC EQ PUSH2 0x36DF JUMPI DUP1 PUSH4 0x675B22AE EQ PUSH2 0x2B2C JUMPI DUP1 PUSH4 0x676FC6DC EQ PUSH2 0x2A92 JUMPI DUP1 PUSH4 0x6963ACA8 EQ PUSH2 0x2986 JUMPI DUP1 PUSH4 0x6AC18987 EQ PUSH2 0x28E9 JUMPI DUP1 PUSH4 0x6BA9FD38 EQ PUSH2 0x28C6 JUMPI DUP1 PUSH4 0x70A08231 EQ PUSH2 0x286D JUMPI DUP1 PUSH4 0x715018A6 EQ PUSH2 0x2810 JUMPI DUP1 PUSH4 0x7A828B28 EQ PUSH2 0x26D4 JUMPI DUP1 PUSH4 0x7AB1D4EF EQ PUSH2 0x263D JUMPI DUP1 PUSH4 0x80866D83 EQ PUSH2 0x25F6 JUMPI DUP1 PUSH4 0x8456CB59 EQ PUSH2 0x259C JUMPI DUP1 PUSH4 0x8A45664E EQ PUSH2 0x2542 JUMPI DUP1 PUSH4 0x8DA5CB5B EQ PUSH2 0x2519 JUMPI DUP1 PUSH4 0x925D886B EQ PUSH2 0x24FD JUMPI DUP1 PUSH4 0x95D89B41 EQ PUSH2 0x241E JUMPI DUP1 PUSH4 0xA100D69D EQ PUSH2 0x23F2 JUMPI DUP1 PUSH4 0xA22CB465 EQ PUSH2 0x2347 JUMPI DUP1 PUSH4 0xB349B801 EQ PUSH2 0x1A14 JUMPI DUP1 PUSH4 0xB88D4FDE EQ PUSH2 0x19A9 JUMPI DUP1 PUSH4 0xC580C942 EQ PUSH2 0x197A JUMPI DUP1 PUSH4 0xC87B56DD EQ PUSH2 0x1921 JUMPI DUP1 PUSH4 0xCA21866A EQ PUSH2 0x17E1 JUMPI DUP1 PUSH4 0xCF456AE7 EQ PUSH2 0x178E JUMPI DUP1 PUSH4 0xCFC0CC34 EQ PUSH2 0x1719 JUMPI DUP1 PUSH4 0xD0AC9208 EQ PUSH2 0xDBB JUMPI DUP1 PUSH4 0xD0D7D9C5 EQ PUSH2 0xD73 JUMPI DUP1 PUSH4 0xDE74E57B EQ PUSH2 0xD26 JUMPI DUP1 PUSH4 0xE80D7FEC EQ PUSH2 0xBF1 JUMPI DUP1 PUSH4 0xE96C6617 EQ PUSH2 0xBD3 JUMPI DUP1 PUSH4 0xE985E9C5 EQ PUSH2 0xB7D JUMPI DUP1 PUSH4 0xEDDD0D9C EQ PUSH2 0xB5C JUMPI DUP1 PUSH4 0xEF03C6DB EQ PUSH2 0xA99 JUMPI DUP1 PUSH4 0xF09D7441 EQ PUSH2 0x944 JUMPI DUP1 PUSH4 0xF0F44260 EQ PUSH2 0x8EA JUMPI DUP1 PUSH4 0xF119F567 EQ PUSH2 0x77D JUMPI DUP1 PUSH4 0xF22F96AF EQ PUSH2 0x703 JUMPI DUP1 PUSH4 0xF2FDE38B EQ PUSH2 0x67A JUMPI DUP1 PUSH4 0xF46ECCC4 EQ PUSH2 0x63B JUMPI DUP1 PUSH4 0xF94AB2EC EQ PUSH2 0x5C7 JUMPI DUP1 PUSH4 0xFA3EC78D EQ PUSH2 0x371 JUMPI PUSH4 0xFFFAD312 EQ PUSH2 0x34E JUMPI CODESIZE PUSH2 0x10 JUMP JUMPDEST CALLVALUE PUSH2 0x36C JUMPI PUSH1 0x0 CALLDATASIZE PUSH1 0x3 NOT ADD SLT PUSH2 0x36C JUMPI PUSH1 0x20 PUSH1 0xC SLOAD PUSH1 0x40 MLOAD SWAP1 DUP2 MSTORE RETURN JUMPDEST PUSH1 0x0 DUP1 REVERT JUMPDEST PUSH1 0x20 CALLDATASIZE PUSH1 0x3 NOT ADD SLT PUSH2 0x36C JUMPI PUSH1 0x4 CALLDATALOAD PUSH2 0x388 PUSH2 0x5670 JUMP JUMPDEST PUSH2 0x390 PUSH2 0x55FA JUMP JUMPDEST DUP1 PUSH1 0x0 MSTORE PUSH1 0x14 PUSH1 0x20 MSTORE PUSH1 0x40 PUSH1 0x0 KECCAK256 PUSH1 0x1 DUP2 ADD DUP1 SLOAD PUSH1 0xFF DUP2 PUSH1 0xA0 SHR AND ISZERO PUSH2 0x5B5 JUMPI DUP3 SLOAD SWAP2 DUP3 CALLVALUE LT PUSH2 0x5A3 JUMPI PUSH1 0x1 DUP1 PUSH1 0xA0 SHL SUB SWAP2 PUSH1 0x0 DUP4 DUP3 AND SWAP6 SSTORE PUSH11 0xFFFFFFFFFFFFFFFFFFFFFF PUSH1 0xA8 SHL AND SWAP1 SSTORE PUSH2 0x2710 DUP1 PUSH2 0x3EB PUSH1 0xF SLOAD DUP6 PUSH2 0x5724 JUMP JUMPDEST DIV SWAP1 PUSH2 0x3F9 PUSH1 0x10 SLOAD DUP6 PUSH2 0x5724 JUMP JUMPDEST DIV SWAP1 DUP6 PUSH1 0x0 MSTORE PUSH1 0x13 PUSH1 0x20 MSTORE DUP3 PUSH1 0xB PUSH1 0x40 PUSH1 0x0 KECCAK256 ADD SLOAD AND SWAP1 DUP6 DUP3 EQ SWAP1 DUP2 PUSH1 0x0 EQ PUSH2 0x58A JUMPI PUSH2 0x426 DUP2 DUP8 PUSH2 0x5663 JUMP JUMPDEST SWAP5 JUMPDEST CALLER ISZERO PUSH2 0x571 JUMPI PUSH2 0x438 DUP10 CALLER PUSH2 0x5002 JUMP JUMPDEST DUP1 DUP3 AND DUP1 PUSH2 0x459 JUMPI PUSH1 0x40 MLOAD PUSH4 0x7E273289 PUSH1 0xE0 SHL DUP2 MSTORE PUSH1 0x4 DUP2 ADD DUP13 SWAP1 MSTORE PUSH1 0x24 SWAP1 REVERT JUMPDEST DUP10 SUB PUSH2 0x53F JUMPI POP PUSH1 0x0 DUP1 DUP1 SWAP4 DUP2 SWAP4 PUSH1 0xD SLOAD AND GAS CALL PUSH2 0x475 PUSH2 0x50F9 JUMP JUMPDEST POP ISZERO PUSH2 0x506 JUMPI ISZERO DUP1 PUSH2 0x536 JUMPI JUMPDEST PUSH2 0x518 JUMPI JUMPDEST POP POP PUSH1 0x0 DUP1 DUP1 DUP1 SWAP4 DUP7 GAS CALL PUSH2 0x49A PUSH2 0x50F9 JUMP JUMPDEST POP ISZERO PUSH2 0x506 JUMPI DUP1 CALLVALUE GT PUSH2 0x4E6 JUMPI JUMPDEST PUSH32 0x23F50D55776D8003622A982ADE45A6C7F083116C8DBBCD980F59942F440BADB1 SWAP2 PUSH1 0x60 SWAP2 PUSH1 0x40 MLOAD SWAP2 DUP3 MSTORE CALLER PUSH1 0x20 DUP4 ADD MSTORE PUSH1 0x40 DUP3 ADD MSTORE LOG2 PUSH1 0x1 PUSH1 0x8 SSTORE STOP JUMPDEST PUSH1 0x0 DUP1 DUP1 DUP1 PUSH2 0x4F5 DUP6 CALLVALUE PUSH2 0x5663 JUMP JUMPDEST CALLER GAS CALL PUSH2 0x500 PUSH2 0x50F9 JUMP JUMPDEST POP PUSH2 0x4A8 JUMPI JUMPDEST PUSH1 0x40 MLOAD PUSH4 0x12171D83 PUSH1 0xE3 SHL DUP2 MSTORE PUSH1 0x4 SWAP1 REVERT JUMPDEST PUSH1 0x0 DUP1 DUP1 SWAP4 DUP2 SWAP4 GAS CALL PUSH2 0x529 PUSH2 0x50F9 JUMP JUMPDEST POP ISZERO PUSH2 0x506 JUMPI DUP5 DUP1 PUSH2 0x487 JUMP JUMPDEST POP DUP2 ISZERO ISZERO PUSH2 0x482 JUMP JUMPDEST PUSH1 0x40 MLOAD PUSH4 0x64283D7B PUSH1 0xE0 SHL DUP2 MSTORE PUSH1 0x1 PUSH1 0x1 PUSH1 0xA0 SHL SUB DUP11 DUP2 AND PUSH1 0x4 DUP4 ADD MSTORE PUSH1 0x24 DUP3 ADD DUP13 SWAP1 MSTORE SWAP2 SWAP1 SWAP2 AND PUSH1 0x44 DUP3 ADD MSTORE PUSH1 0x64 SWAP1 REVERT JUMPDEST PUSH1 0x40 MLOAD PUSH4 0x32505749 PUSH1 0xE1 SHL DUP2 MSTORE PUSH1 0x0 PUSH1 0x4 DUP3 ADD MSTORE PUSH1 0x24 SWAP1 REVERT JUMPDEST PUSH2 0x59D DUP5 PUSH2 0x598 DUP4 DUP10 PUSH2 0x5663 JUMP JUMPDEST PUSH2 0x5663 JUMP JUMPDEST SWAP5 PUSH2 0x428 JUMP JUMPDEST PUSH1 0x40 MLOAD PUSH4 0xCD1C8867 PUSH1 0xE0 SHL DUP2 MSTORE PUSH1 0x4 SWAP1 REVERT JUMPDEST PUSH1 0x40 MLOAD PUSH4 0xF971CBD PUSH1 0xE4 SHL DUP2 MSTORE PUSH1 0x4 SWAP1 REVERT JUMPDEST CALLVALUE PUSH2 0x36C JUMPI PUSH1 0x20 CALLDATASIZE PUSH1 0x3 NOT ADD SLT PUSH2 0x36C JUMPI PUSH1 0x4 CALLDATALOAD PUSH2 0x5E4 DUP2 PUSH2 0x50BE JUMP JUMPDEST POP PUSH1 0x0 MSTORE PUSH1 0x13 PUSH1 0x20 MSTORE PUSH1 0xA0 PUSH1 0x40 PUSH1 0x0 KECCAK256 PUSH1 0x12 DUP2 ADD SLOAD SWAP1 PUSH1 0x13 DUP2 ADD SLOAD SWAP1 PUSH1 0x15 PUSH1 0x14 DUP3 ADD SLOAD SWAP2 ADD SLOAD SWAP2 PUSH1 0x40 MLOAD SWAP4 PUSH1 0xFF DUP2 PUSH1 0x8 SHR AND ISZERO ISZERO DUP6 MSTORE PUSH1 0x1 DUP1 DUP8 SHL SUB SWAP1 PUSH1 0x10 SHR AND PUSH1 0x20 DUP6 ADD MSTORE PUSH1 0x40 DUP5 ADD MSTORE PUSH1 0x60 DUP4 ADD MSTORE PUSH1 0x80 DUP3 ADD MSTORE RETURN JUMPDEST CALLVALUE PUSH2 0x36C JUMPI PUSH1 0x20 CALLDATASIZE PUSH1 0x3 NOT ADD SLT PUSH2 0x36C JUMPI PUSH1 0x1 PUSH1 0x1 PUSH1 0xA0 SHL SUB PUSH2 0x65C PUSH2 0x4C2E JUMP JUMPDEST AND PUSH1 0x0 MSTORE PUSH1 0x12 PUSH1 0x20 MSTORE PUSH1 0x20 PUSH1 0xFF PUSH1 0x40 PUSH1 0x0 KECCAK256 SLOAD AND PUSH1 0x40 MLOAD SWAP1 ISZERO ISZERO DUP2 MSTORE RETURN JUMPDEST CALLVALUE PUSH2 0x36C JUMPI PUSH1 0x20 CALLDATASIZE PUSH1 0x3 NOT ADD SLT PUSH2 0x36C JUMPI PUSH2 0x693 PUSH2 0x4C2E JUMP JUMPDEST PUSH2 0x69B PUSH2 0x4E46 JUMP JUMPDEST PUSH1 0x1 PUSH1 0x1 PUSH1 0xA0 SHL SUB SWAP1 DUP2 AND SWAP1 DUP2 ISZERO PUSH2 0x6EA JUMPI PUSH1 0x7 SLOAD DUP3 PUSH1 0x1 PUSH1 0x1 PUSH1 0x60 SHL SUB PUSH1 0xA0 SHL DUP3 AND OR PUSH1 0x7 SSTORE AND PUSH32 0x8BE0079C531659141344CD1FD0A4F28419497F9722A3DAAFE3B4186F6B6457E0 PUSH1 0x0 DUP1 LOG3 STOP JUMPDEST PUSH1 0x40 MLOAD PUSH4 0x1E4FBDF7 PUSH1 0xE0 SHL DUP2 MSTORE PUSH1 0x0 PUSH1 0x4 DUP3 ADD MSTORE PUSH1 0x24 SWAP1 REVERT JUMPDEST CALLVALUE PUSH2 0x36C JUMPI PUSH1 0x20 DUP1 PUSH1 0x3 NOT CALLDATASIZE ADD SLT PUSH2 0x36C JUMPI PUSH1 0x4 CALLDATALOAD PUSH1 0x0 MSTORE PUSH1 0x15 DUP2 MSTORE PUSH1 0x40 PUSH1 0x0 KECCAK256 SWAP1 PUSH1 0x40 MLOAD SWAP1 DUP2 DUP2 DUP5 SLOAD SWAP2 DUP3 DUP2 MSTORE ADD SWAP4 PUSH1 0x0 MSTORE DUP2 PUSH1 0x0 KECCAK256 SWAP2 PUSH1 0x0 SWAP1 JUMPDEST DUP3 DUP3 LT PUSH2 0x766 JUMPI PUSH2 0x762 DUP6 PUSH2 0x756 DUP2 DUP10 SUB DUP3 PUSH2 0x4B1F JUMP JUMPDEST PUSH1 0x40 MLOAD SWAP2 DUP3 SWAP2 DUP3 PUSH2 0x4DF3 JUMP JUMPDEST SUB SWAP1 RETURN JUMPDEST DUP4 SLOAD DUP7 MSTORE SWAP5 DUP6 ADD SWAP5 PUSH1 0x1 SWAP4 DUP5 ADD SWAP4 SWAP1 SWAP2 ADD SWAP1 PUSH2 0x73F JUMP JUMPDEST CALLVALUE PUSH2 0x36C JUMPI PUSH1 0x20 DUP1 PUSH1 0x3 NOT CALLDATASIZE ADD SLT PUSH2 0x36C JUMPI PUSH1 0x4 CALLDATALOAD SWAP1 PUSH2 0x79B PUSH2 0x55FA JUMP JUMPDEST PUSH2 0x7A4 DUP3 PUSH2 0x50BE JUMP JUMPDEST POP DUP2 PUSH1 0x0 MSTORE PUSH1 0x13 DUP2 MSTORE PUSH1 0x40 PUSH1 0x0 KECCAK256 SWAP1 PUSH1 0xB DUP3 ADD SWAP2 DUP3 SLOAD SWAP3 PUSH1 0xFF DUP5 PUSH1 0xA0 SHR AND SWAP2 PUSH1 0x5 DUP4 LT ISZERO PUSH2 0x8C2 JUMPI PUSH1 0x4 DUP4 EQ PUSH2 0x8D8 JUMPI PUSH1 0x1 PUSH1 0x1 PUSH1 0x80 SHL SUB PUSH1 0xC PUSH2 0x7EA SWAP3 ADD SLOAD AND PUSH2 0x56D6 JUMP JUMPDEST SWAP2 PUSH1 0x5 DUP4 LT ISZERO PUSH2 0x8C2 JUMPI DUP3 GT ISZERO PUSH2 0x8B0 JUMPI PUSH1 0xFF PUSH1 0xA0 SHL NOT SWAP1 SWAP4 AND PUSH1 0xA0 DUP3 SWAP1 SHL PUSH1 0xFF PUSH1 0xA0 SHL AND OR SWAP1 SWAP3 SSTORE PUSH32 0xA10B529CCA5BC10C80DF76C1E97548758A642268270584AE612A37EB0A390C5F SWAP2 PUSH2 0x846 PUSH2 0x841 DUP3 PUSH2 0x4A60 JUMP JUMPDEST PUSH2 0x4B40 JUMP JUMPDEST DUP1 MLOAD PUSH2 0x85A JUMPI JUMPDEST POP PUSH1 0xFF PUSH1 0x40 MLOAD SWAP2 AND DUP2 MSTORE LOG2 STOP JUMPDEST PUSH2 0x8AA SWAP1 PUSH2 0x8A4 DUP5 PUSH2 0x86B DUP9 PUSH2 0x57B4 JUMP JUMPDEST SWAP3 PUSH1 0x40 MLOAD SWAP4 DUP2 PUSH2 0x884 DUP7 SWAP4 MLOAD DUP1 SWAP3 DUP7 DUP1 DUP8 ADD SWAP2 ADD PUSH2 0x4BE6 JUMP JUMPDEST DUP3 ADD PUSH2 0x898 DUP3 MLOAD DUP1 SWAP4 DUP7 DUP1 DUP6 ADD SWAP2 ADD PUSH2 0x4BE6 JUMP JUMPDEST ADD SUB DUP1 DUP5 MSTORE ADD DUP3 PUSH2 0x4B1F JUMP JUMPDEST DUP6 PUSH2 0x54C8 JUMP JUMPDEST DUP5 PUSH2 0x84D JUMP JUMPDEST PUSH1 0x40 MLOAD PUSH4 0x61C0B9E9 PUSH1 0xE1 SHL DUP2 MSTORE PUSH1 0x4 SWAP1 REVERT JUMPDEST PUSH4 0x4E487B71 PUSH1 0xE0 SHL PUSH1 0x0 MSTORE PUSH1 0x21 PUSH1 0x4 MSTORE PUSH1 0x24 PUSH1 0x0 REVERT JUMPDEST PUSH1 0x40 MLOAD PUSH4 0x2726A67F PUSH1 0xE1 SHL DUP2 MSTORE PUSH1 0x4 SWAP1 REVERT JUMPDEST CALLVALUE PUSH2 0x36C JUMPI PUSH1 0x20 CALLDATASIZE PUSH1 0x3 NOT ADD SLT PUSH2 0x36C JUMPI PUSH2 0x903 PUSH2 0x4C2E JUMP JUMPDEST PUSH2 0x90B PUSH2 0x4E46 JUMP JUMPDEST PUSH1 0x1 PUSH1 0x1 PUSH1 0xA0 SHL SUB AND DUP1 ISZERO PUSH2 0x932 JUMPI PUSH1 0x1 PUSH1 0x1 PUSH1 0x60 SHL SUB PUSH1 0xA0 SHL PUSH1 0xD SLOAD AND OR PUSH1 0xD SSTORE PUSH1 0x0 DUP1 RETURN JUMPDEST PUSH1 0x40 MLOAD PUSH4 0xD92E233D PUSH1 0xE0 SHL DUP2 MSTORE PUSH1 0x4 SWAP1 REVERT JUMPDEST CALLVALUE PUSH2 0x36C JUMPI PUSH1 0x40 CALLDATASIZE PUSH1 0x3 NOT ADD SLT PUSH2 0x36C JUMPI PUSH1 0x4 CALLDATALOAD PUSH1 0x24 CALLDATALOAD DUP2 PUSH1 0x0 MSTORE PUSH1 0x13 PUSH1 0x20 MSTORE PUSH1 0xFF PUSH1 0x1 PUSH1 0x40 PUSH1 0x0 KECCAK256 ADD SLOAD AND PUSH1 0x3 DUP2 LT ISZERO PUSH2 0x8C2 JUMPI PUSH1 0x2 EQ PUSH2 0xA87 JUMPI DUP2 PUSH1 0x0 MSTORE PUSH1 0x13 PUSH1 0x20 MSTORE PUSH1 0x40 PUSH1 0x0 KECCAK256 SWAP1 PUSH1 0x12 DUP3 ADD SLOAD PUSH1 0xFF DUP2 PUSH1 0x8 SHR AND ISZERO PUSH2 0xA75 JUMPI PUSH1 0x1 PUSH1 0x1 PUSH1 0xA0 SHL SUB DUP1 PUSH2 0x9B2 DUP7 PUSH2 0x50BE JUMP JUMPDEST AND CALLER EQ SWAP2 DUP3 ISZERO PUSH2 0xA65 JUMPI JUMPDEST POP POP ISZERO PUSH2 0xA16 JUMPI DUP2 PUSH1 0x40 SWAP2 PUSH1 0x13 PUSH32 0x66A420B2417E1183CD2D446F9D062281E74E2D2B3FB74DED512C39DC02E5247E SWAP5 ADD SWAP2 DUP2 DUP4 SLOAD SWAP4 SSTORE PUSH1 0x14 DUP2 ADD PUSH2 0xA01 DUP2 SLOAD PUSH2 0x524C JUMP JUMPDEST SWAP1 SSTORE PUSH1 0x15 TIMESTAMP SWAP2 ADD SSTORE DUP3 MLOAD SWAP2 DUP3 MSTORE PUSH1 0x20 DUP3 ADD MSTORE LOG2 STOP JUMPDEST PUSH1 0x40 MLOAD PUSH3 0x461BCD PUSH1 0xE5 SHL DUP2 MSTORE PUSH1 0x20 PUSH1 0x4 DUP3 ADD MSTORE PUSH1 0x21 PUSH1 0x24 DUP3 ADD MSTORE PUSH32 0x4E6F7420617574686F72697A656420746F20757064617465206C6561726E696E PUSH1 0x44 DUP3 ADD MSTORE PUSH1 0x67 PUSH1 0xF8 SHL PUSH1 0x64 DUP3 ADD MSTORE PUSH1 0x84 SWAP1 REVERT JUMPDEST SWAP1 SWAP2 POP PUSH1 0x10 SHR AND CALLER EQ DUP5 DUP1 PUSH2 0x9BD JUMP JUMPDEST PUSH1 0x40 MLOAD PUSH4 0x6EC2D48D PUSH1 0xE1 SHL DUP2 MSTORE PUSH1 0x4 SWAP1 REVERT JUMPDEST PUSH1 0x40 MLOAD PUSH4 0x82564FA5 PUSH1 0xE0 SHL DUP2 MSTORE PUSH1 0x4 SWAP1 REVERT JUMPDEST PUSH1 0x20 CALLDATASIZE PUSH1 0x3 NOT ADD SLT PUSH2 0x36C JUMPI PUSH1 0x4 CALLDATALOAD DUP1 PUSH1 0x0 MSTORE PUSH1 0x13 PUSH1 0x20 MSTORE PUSH1 0xFF PUSH1 0x1 PUSH1 0x40 PUSH1 0x0 KECCAK256 ADD SLOAD AND PUSH1 0x3 DUP2 LT ISZERO PUSH2 0x8C2 JUMPI PUSH1 0x2 EQ PUSH2 0xA87 JUMPI PUSH2 0xAD6 DUP2 PUSH2 0x50BE JUMP JUMPDEST POP CALLVALUE ISZERO PUSH2 0xB27 JUMPI PUSH1 0x0 MSTORE PUSH1 0x13 PUSH1 0x20 MSTORE PUSH1 0x40 PUSH1 0x0 KECCAK256 PUSH2 0xAF5 CALLVALUE DUP3 SLOAD PUSH2 0x5618 JUMP JUMPDEST SWAP1 SSTORE PUSH1 0x40 MLOAD CALLVALUE DUP2 MSTORE CALLER SWAP1 PUSH32 0x49AF616656DB0FCA31912FE65A529A84C3634718357324A7397674794E6CAF2F PUSH1 0x20 CALLER SWAP3 LOG3 STOP JUMPDEST PUSH1 0x40 MLOAD PUSH3 0x461BCD PUSH1 0xE5 SHL DUP2 MSTORE PUSH1 0x20 PUSH1 0x4 DUP3 ADD MSTORE PUSH1 0xD PUSH1 0x24 DUP3 ADD MSTORE PUSH13 0x26BAB9BA1039B2B73210212721 PUSH1 0x99 SHL PUSH1 0x44 DUP3 ADD MSTORE PUSH1 0x64 SWAP1 REVERT JUMPDEST CALLVALUE PUSH2 0x36C JUMPI PUSH1 0x20 CALLDATASIZE PUSH1 0x3 NOT ADD SLT PUSH2 0x36C JUMPI PUSH2 0xB75 PUSH2 0x4E46 JUMP JUMPDEST PUSH1 0x4 CALLDATALOAD PUSH1 0xB SSTORE STOP JUMPDEST CALLVALUE PUSH2 0x36C JUMPI PUSH1 0x40 CALLDATASIZE PUSH1 0x3 NOT ADD SLT PUSH2 0x36C JUMPI PUSH2 0xB96 PUSH2 0x4C2E JUMP JUMPDEST PUSH2 0xB9E PUSH2 0x4C44 JUMP JUMPDEST SWAP1 PUSH1 0x1 DUP1 PUSH1 0xA0 SHL SUB DUP1 SWAP2 AND PUSH1 0x0 MSTORE PUSH1 0x5 PUSH1 0x20 MSTORE PUSH1 0x40 PUSH1 0x0 KECCAK256 SWAP2 AND PUSH1 0x0 MSTORE PUSH1 0x20 MSTORE PUSH1 0x20 PUSH1 0xFF PUSH1 0x40 PUSH1 0x0 KECCAK256 SLOAD AND PUSH1 0x40 MLOAD SWAP1 ISZERO ISZERO DUP2 MSTORE RETURN JUMPDEST CALLVALUE PUSH2 0x36C JUMPI PUSH1 0x0 CALLDATASIZE PUSH1 0x3 NOT ADD SLT PUSH2 0x36C JUMPI PUSH1 0x20 PUSH1 0x10 SLOAD PUSH1 0x40 MLOAD SWAP1 DUP2 MSTORE RETURN JUMPDEST CALLVALUE PUSH2 0x36C JUMPI PUSH2 0xBFF CALLDATASIZE PUSH2 0x4C69 JUMP JUMPDEST PUSH2 0xC08 DUP3 PUSH2 0x50BE JUMP JUMPDEST PUSH1 0x1 PUSH1 0x1 PUSH1 0xA0 SHL SUB SWAP1 CALLER SWAP1 DUP3 AND SUB PUSH2 0xD14 JUMPI DUP3 PUSH1 0x0 MSTORE PUSH1 0x13 PUSH1 0x20 MSTORE PUSH1 0xFF PUSH1 0x1 PUSH1 0x40 PUSH1 0x0 KECCAK256 ADD SLOAD AND PUSH1 0x3 DUP2 LT ISZERO PUSH2 0x8C2 JUMPI PUSH1 0x2 EQ PUSH2 0xA87 JUMPI PUSH2 0xC47 PUSH2 0x55FA JUMP JUMPDEST DUP2 ISZERO PUSH2 0xD03 JUMPI DUP3 PUSH1 0x0 MSTORE PUSH1 0x14 PUSH1 0x20 MSTORE PUSH1 0xFF PUSH1 0x1 PUSH1 0x40 PUSH1 0x0 KECCAK256 ADD SLOAD PUSH1 0xA0 SHR AND PUSH2 0xCF1 JUMPI PUSH32 0x1EA45E30B31292F9D7C5D37D275B2FECA555F13F47DCE0FDEA2F47E8852ECD78 SWAP2 PUSH1 0x20 SWAP2 PUSH1 0x40 MLOAD PUSH2 0xC9A DUP2 PUSH2 0x4AB3 JUMP JUMPDEST DUP3 DUP2 MSTORE DUP4 DUP2 ADD SWAP2 CALLER DUP4 MSTORE PUSH1 0x1 PUSH1 0x40 DUP4 ADD SWAP3 DUP2 DUP5 MSTORE DUP9 PUSH1 0x0 MSTORE PUSH1 0x14 DUP8 MSTORE PUSH1 0x40 PUSH1 0x0 KECCAK256 SWAP1 MLOAD DUP2 SSTORE ADD SWAP3 MLOAD AND DUP3 SLOAD SWAP2 PUSH1 0xFF PUSH1 0xA0 SHL SWAP1 MLOAD ISZERO ISZERO PUSH1 0xA0 SHL AND SWAP2 PUSH11 0xFFFFFFFFFFFFFFFFFFFFFF PUSH1 0xA8 SHL AND OR OR SWAP1 SSTORE PUSH1 0x40 MLOAD SWAP1 DUP2 MSTORE LOG2 STOP JUMPDEST PUSH1 0x40 MLOAD PUSH4 0xE3912551 PUSH1 0xE0 SHL DUP2 MSTORE PUSH1 0x4 SWAP1 REVERT JUMPDEST PUSH1 0x40 MLOAD PUSH3 0xBFC921 PUSH1 0xE0 SHL DUP2 MSTORE PUSH1 0x4 SWAP1 REVERT JUMPDEST PUSH1 0x40 MLOAD PUSH4 0x7A50E057 PUSH1 0xE0 SHL DUP2 MSTORE PUSH1 0x4 SWAP1 REVERT JUMPDEST CALLVALUE PUSH2 0x36C JUMPI PUSH1 0x20 CALLDATASIZE PUSH1 0x3 NOT ADD SLT PUSH2 0x36C JUMPI PUSH1 0x4 CALLDATALOAD PUSH1 0x0 MSTORE PUSH1 0x14 PUSH1 0x20 MSTORE PUSH1 0x60 PUSH1 0x40 PUSH1 0x0 KECCAK256 PUSH1 0xFF PUSH1 0x1 DUP3 SLOAD SWAP3 ADD SLOAD PUSH1 0x40 MLOAD SWAP3 DUP4 MSTORE PUSH1 0x1 DUP1 PUSH1 0xA0 SHL SUB DUP2 AND PUSH1 0x20 DUP5 ADD MSTORE PUSH1 0xA0 SHR AND ISZERO ISZERO PUSH1 0x40 DUP3 ADD MSTORE RETURN JUMPDEST CALLVALUE PUSH2 0x36C JUMPI PUSH1 0x20 CALLDATASIZE PUSH1 0x3 NOT ADD SLT PUSH2 0x36C JUMPI PUSH2 0xD8C PUSH2 0x4C2E JUMP JUMPDEST PUSH2 0xD94 PUSH2 0x4E46 JUMP JUMPDEST PUSH1 0x1 PUSH1 0x1 PUSH1 0xA0 SHL SUB AND DUP1 ISZERO PUSH2 0x932 JUMPI PUSH1 0x1 PUSH1 0x1 PUSH1 0x60 SHL SUB PUSH1 0xA0 SHL PUSH1 0xE SLOAD AND OR PUSH1 0xE SSTORE PUSH1 0x0 DUP1 RETURN JUMPDEST CALLVALUE PUSH2 0x36C JUMPI PUSH1 0x3 NOT PUSH1 0xE0 CALLDATASIZE DUP3 ADD SLT PUSH2 0x36C JUMPI PUSH2 0xDD5 PUSH2 0x4C2E JUMP JUMPDEST PUSH1 0x24 CALLDATALOAD PUSH1 0x1 PUSH1 0x1 PUSH1 0x40 SHL SUB DUP2 GT PUSH2 0x36C JUMPI PUSH2 0xDF4 SWAP1 CALLDATASIZE SWAP1 PUSH1 0x4 ADD PUSH2 0x4D63 JUMP JUMPDEST PUSH1 0x64 CALLDATALOAD PUSH1 0x1 PUSH1 0x1 PUSH1 0x40 SHL SUB DUP2 GT PUSH2 0x36C JUMPI PUSH2 0xE13 SWAP1 CALLDATASIZE SWAP1 PUSH1 0x4 ADD PUSH2 0x4D63 JUMP JUMPDEST PUSH1 0xA4 CALLDATALOAD PUSH1 0x1 PUSH1 0x1 PUSH1 0x40 SHL SUB DUP2 GT PUSH2 0x36C JUMPI PUSH2 0xE32 SWAP1 CALLDATASIZE SWAP1 PUSH1 0x4 ADD PUSH2 0x4D63 JUMP JUMPDEST SWAP6 SWAP1 SWAP7 PUSH1 0x1 PUSH1 0x1 PUSH1 0x40 SHL SUB PUSH1 0xC4 CALLDATALOAD GT PUSH2 0x36C JUMPI PUSH1 0xC0 SWAP1 PUSH1 0xC4 CALLDATALOAD CALLDATASIZE SUB ADD SLT PUSH2 0x36C JUMPI PUSH2 0xE5B PUSH2 0x4E46 JUMP JUMPDEST PUSH2 0xE63 PUSH2 0x55FA JUMP JUMPDEST PUSH1 0x64 PUSH1 0xC SLOAD LT ISZERO PUSH2 0x1707 JUMPI PUSH1 0xA SLOAD SWAP6 PUSH2 0xE7B DUP8 PUSH2 0x524C JUMP JUMPDEST PUSH1 0xA SSTORE PUSH2 0xE88 DUP8 DUP4 PUSH2 0x5352 JUMP JUMPDEST DUP7 PUSH1 0x0 MSTORE PUSH1 0x13 PUSH1 0x20 MSTORE PUSH1 0x40 PUSH1 0x0 KECCAK256 SWAP8 PUSH1 0x1 DUP10 ADD PUSH1 0xFF NOT SWAP1 DUP2 DUP2 SLOAD AND SWAP1 SSTORE PUSH1 0x44 CALLDATALOAD PUSH1 0x9 DUP12 ADD SSTORE PUSH1 0x1 PUSH1 0x1 PUSH1 0x40 SHL SUB DUP8 GT PUSH2 0x1389 JUMPI PUSH2 0xED5 DUP8 PUSH2 0xECC PUSH1 0xA DUP14 ADD SLOAD PUSH2 0x4A79 JUMP JUMPDEST PUSH1 0xA DUP14 ADD PUSH2 0x5271 JUMP JUMPDEST DUP7 PUSH1 0x0 PUSH1 0x1F DUP3 GT PUSH1 0x1 EQ PUSH2 0x1697 JUMPI PUSH1 0x0 SWAP2 PUSH2 0x168C JUMPI JUMPDEST POP DUP8 PUSH1 0x1 SHL SWAP1 PUSH1 0x0 NOT DUP10 PUSH1 0x3 SHL SHR NOT AND OR PUSH1 0xA DUP12 ADD SSTORE JUMPDEST PUSH1 0xB DUP11 ADD DUP1 SLOAD PUSH1 0x1 PUSH1 0x1 PUSH1 0xA8 SHL SUB NOT AND PUSH1 0x1 PUSH1 0x1 PUSH1 0xA0 SHL SUB DUP7 AND OR SWAP1 SSTORE PUSH1 0x12 DUP11 ADD DUP1 SLOAD SWAP1 SWAP2 AND PUSH1 0x1 OR SWAP1 SSTORE PUSH2 0xF3C PUSH1 0x4 PUSH1 0xC4 CALLDATALOAD ADD DUP1 PUSH2 0x52C5 JUMP JUMPDEST SWAP1 PUSH1 0x1 PUSH1 0x1 PUSH1 0x40 SHL SUB DUP3 GT PUSH2 0x1389 JUMPI DUP2 SWAP1 PUSH2 0xF67 DUP3 DUP14 PUSH1 0x3 PUSH2 0xF60 DUP2 DUP4 ADD SLOAD PUSH2 0x4A79 JUMP JUMPDEST SWAP2 ADD PUSH2 0x5271 JUMP JUMPDEST PUSH1 0x0 SWAP1 PUSH1 0x1F DUP4 GT PUSH1 0x1 EQ PUSH2 0x161B JUMPI PUSH1 0x0 SWAP3 PUSH2 0x1610 JUMPI JUMPDEST POP POP DUP2 PUSH1 0x1 SHL SWAP2 PUSH1 0x0 NOT SWAP1 PUSH1 0x3 SHL SHR NOT AND OR PUSH1 0x3 DUP11 ADD SSTORE JUMPDEST PUSH2 0xFA9 PUSH1 0x24 PUSH1 0xC4 CALLDATALOAD ADD PUSH1 0xC4 CALLDATALOAD PUSH1 0x4 ADD PUSH2 0x52C5 JUMP JUMPDEST SWAP1 PUSH1 0x1 PUSH1 0x1 PUSH1 0x40 SHL SUB DUP3 GT PUSH2 0x1389 JUMPI DUP2 SWAP1 PUSH2 0xFCD DUP3 DUP14 PUSH1 0x4 PUSH2 0xF60 DUP2 DUP4 ADD SLOAD PUSH2 0x4A79 JUMP JUMPDEST PUSH1 0x0 SWAP1 PUSH1 0x1F DUP4 GT PUSH1 0x1 EQ PUSH2 0x159F JUMPI PUSH1 0x0 SWAP3 PUSH2 0x1594 JUMPI JUMPDEST POP POP DUP2 PUSH1 0x1 SHL SWAP2 PUSH1 0x0 NOT SWAP1 PUSH1 0x3 SHL SHR NOT AND OR PUSH1 0x4 DUP11 ADD SSTORE JUMPDEST PUSH2 0x100F PUSH1 0x44 PUSH1 0xC4 CALLDATALOAD ADD PUSH1 0xC4 CALLDATALOAD PUSH1 0x4 ADD PUSH2 0x52C5 JUMP JUMPDEST SWAP1 PUSH1 0x1 PUSH1 0x1 PUSH1 0x40 SHL SUB DUP3 GT PUSH2 0x1389 JUMPI DUP2 SWAP1 PUSH2 0x1033 DUP3 DUP14 PUSH1 0x5 PUSH2 0xF60 DUP2 DUP4 ADD SLOAD PUSH2 0x4A79 JUMP JUMPDEST PUSH1 0x0 SWAP1 PUSH1 0x1F DUP4 GT PUSH1 0x1 EQ PUSH2 0x1523 JUMPI PUSH1 0x0 SWAP3 PUSH2 0x1518 JUMPI JUMPDEST POP POP DUP2 PUSH1 0x1 SHL SWAP2 PUSH1 0x0 NOT SWAP1 PUSH1 0x3 SHL SHR NOT AND OR PUSH1 0x5 DUP11 ADD SSTORE JUMPDEST PUSH2 0x1075 PUSH1 0x64 PUSH1 0xC4 CALLDATALOAD ADD PUSH1 0xC4 CALLDATALOAD PUSH1 0x4 ADD PUSH2 0x52C5 JUMP JUMPDEST SWAP1 PUSH1 0x1 PUSH1 0x1 PUSH1 0x40 SHL SUB DUP3 GT PUSH2 0x1389 JUMPI DUP2 SWAP1 PUSH2 0x1099 DUP3 DUP14 PUSH1 0x6 PUSH2 0xF60 DUP2 DUP4 ADD SLOAD PUSH2 0x4A79 JUMP JUMPDEST PUSH1 0x0 SWAP1 PUSH1 0x1F DUP4 GT PUSH1 0x1 EQ PUSH2 0x14A7 JUMPI PUSH1 0x0 SWAP3 PUSH2 0x149C JUMPI JUMPDEST POP POP DUP2 PUSH1 0x1 SHL SWAP2 PUSH1 0x0 NOT SWAP1 PUSH1 0x3 SHL SHR NOT AND OR PUSH1 0x6 DUP11 ADD SSTORE JUMPDEST PUSH2 0x10DB PUSH1 0x84 PUSH1 0xC4 CALLDATALOAD ADD PUSH1 0xC4 CALLDATALOAD PUSH1 0x4 ADD PUSH2 0x52C5 JUMP JUMPDEST SWAP1 PUSH1 0x1 PUSH1 0x1 PUSH1 0x40 SHL SUB DUP3 GT PUSH2 0x1389 JUMPI PUSH2 0x10FD DUP3 DUP13 PUSH1 0x7 PUSH2 0xF60 DUP2 DUP4 ADD SLOAD PUSH2 0x4A79 JUMP JUMPDEST PUSH1 0x0 SWAP1 PUSH1 0x1F DUP4 GT PUSH1 0x1 EQ PUSH2 0x1428 JUMPI PUSH2 0x1167 SWAP4 SWAP3 SWAP2 PUSH1 0x0 SWAP2 DUP4 PUSH2 0x141D JUMPI JUMPDEST POP POP DUP2 PUSH1 0x1 SHL SWAP2 PUSH1 0x0 NOT SWAP1 PUSH1 0x3 SHL SHR NOT AND OR PUSH1 0x7 DUP12 ADD SSTORE JUMPDEST PUSH1 0xA4 PUSH1 0xC4 CALLDATALOAD ADD CALLDATALOAD PUSH1 0x8 DUP12 ADD SSTORE PUSH1 0x40 MLOAD SWAP3 PUSH2 0x114B DUP5 PUSH2 0x4AB3 JUMP JUMPDEST PUSH2 0x1156 CALLDATASIZE DUP8 DUP10 PUSH2 0x4C9A JUMP JUMPDEST DUP5 MSTORE PUSH1 0x84 CALLDATALOAD PUSH1 0x20 DUP6 ADD MSTORE CALLDATASIZE SWAP2 PUSH2 0x4C9A JUMP JUMPDEST PUSH1 0x40 DUP3 ADD MSTORE DUP1 MLOAD DUP1 MLOAD SWAP1 PUSH1 0x1 PUSH1 0x1 PUSH1 0x40 SHL SUB DUP3 GT PUSH2 0x1389 JUMPI PUSH2 0x1199 DUP3 PUSH2 0x1190 PUSH1 0xF DUP14 ADD SLOAD PUSH2 0x4A79 JUMP JUMPDEST PUSH1 0xF DUP14 ADD PUSH2 0x5271 JUMP JUMPDEST PUSH1 0x20 SWAP1 PUSH1 0x1F DUP4 GT PUSH1 0x1 EQ PUSH2 0x13AA JUMPI PUSH1 0x40 SWAP4 SWAP3 SWAP2 PUSH1 0x0 SWAP2 DUP4 PUSH2 0x139F JUMPI JUMPDEST POP POP DUP2 PUSH1 0x1 SHL SWAP2 PUSH1 0x0 NOT SWAP1 PUSH1 0x3 SHL SHR NOT AND OR PUSH1 0xF DUP11 ADD SSTORE JUMPDEST PUSH1 0x20 DUP2 ADD MLOAD PUSH1 0x10 DUP11 ADD SSTORE ADD MLOAD SWAP4 DUP5 MLOAD SWAP8 PUSH1 0x1 PUSH1 0x1 PUSH1 0x40 SHL SUB DUP10 GT PUSH2 0x1389 JUMPI DUP9 DUP9 SWAP7 PUSH2 0x120A PUSH1 0x20 SWAP12 PUSH2 0x1201 PUSH1 0x11 DUP7 ADD SLOAD PUSH2 0x4A79 JUMP JUMPDEST PUSH1 0x11 DUP7 ADD PUSH2 0x5271 JUMP JUMPDEST DUP11 SWAP1 PUSH1 0x1F DUP4 GT PUSH1 0x1 EQ PUSH2 0x12FB JUMPI SWAP3 PUSH1 0x11 DUP4 PUSH1 0x0 DUP1 MLOAD PUSH1 0x20 PUSH2 0x588B DUP4 CODECOPY DUP2 MLOAD SWAP2 MSTORE SWAP11 SWAP12 SWAP5 PUSH2 0x1279 SWAP8 SWAP5 PUSH2 0x1273 SWAP8 PUSH1 0x0 SWAP3 PUSH2 0x12F0 JUMPI JUMPDEST POP POP DUP2 PUSH1 0x1 SHL SWAP2 PUSH1 0x0 NOT SWAP1 PUSH1 0x3 SHL SHR NOT AND OR SWAP2 ADD SSTORE JUMPDEST PUSH1 0x84 CALLDATALOAD PUSH1 0x0 MSTORE PUSH1 0x15 DUP12 MSTORE PUSH2 0x126C DUP10 PUSH1 0x40 PUSH1 0x0 KECCAK256 PUSH2 0x52F7 JUMP JUMPDEST CALLDATASIZE SWAP2 PUSH2 0x4C9A JUMP JUMPDEST DUP7 PUSH2 0x54C8 JUMP JUMPDEST PUSH2 0x1284 PUSH1 0xC SLOAD PUSH2 0x524C JUMP JUMPDEST PUSH1 0xC SSTORE PUSH1 0x40 DUP1 MLOAD PUSH1 0x44 CALLDATALOAD DUP2 MSTORE PUSH1 0x1 DUP10 DUP3 ADD MSTORE PUSH1 0x1 PUSH1 0x1 PUSH1 0xA0 SHL SUB SWAP1 SWAP3 AND SWAP2 DUP7 SWAP2 PUSH32 0x95ABEB4465B4AD62FEB35F85EB0A053AC518E5B0F02A7C23B1EF9B3FA167B069 SWAP2 LOG3 PUSH2 0x12DE PUSH1 0x40 MLOAD SWAP3 DUP4 SWAP3 PUSH1 0x40 DUP5 MSTORE PUSH1 0x40 DUP5 ADD SWAP2 PUSH2 0x5331 JUMP JUMPDEST PUSH1 0x84 CALLDATALOAD DUP8 DUP4 ADD MSTORE SUB SWAP1 LOG2 PUSH1 0x40 MLOAD SWAP1 DUP2 MSTORE RETURN JUMPDEST ADD MLOAD SWAP1 POP DUP16 DUP1 PUSH2 0x123E JUMP JUMPDEST PUSH1 0x11 DUP5 SWAP4 SWAP3 SWAP11 SWAP6 SWAP5 ADD PUSH1 0x0 MSTORE DUP12 PUSH1 0x0 KECCAK256 SWAP1 PUSH1 0x0 JUMPDEST PUSH1 0x1F NOT DUP5 AND DUP2 LT PUSH2 0x136F JUMPI POP PUSH1 0x1 DUP4 PUSH2 0x1279 SWAP8 SWAP6 SWAP4 PUSH1 0x0 DUP1 MLOAD PUSH1 0x20 PUSH2 0x588B DUP4 CODECOPY DUP2 MLOAD SWAP2 MSTORE SWAP13 SWAP14 PUSH1 0x11 SWAP5 PUSH2 0x1273 SWAP10 SWAP8 PUSH1 0x1F NOT DUP2 AND LT PUSH2 0x1356 JUMPI JUMPDEST POP POP POP DUP2 SHL ADD SWAP2 ADD SSTORE PUSH2 0x1254 JUMP JUMPDEST ADD MLOAD PUSH1 0x0 NOT PUSH1 0xF8 DUP5 PUSH1 0x3 SHL AND SHR NOT AND SWAP1 SSTORE DUP16 DUP1 DUP1 PUSH2 0x1348 JUMP JUMPDEST DUP2 DUP13 ADD MLOAD DUP4 SSTORE SWAP11 DUP14 ADD SWAP11 DUP13 SWAP11 POP PUSH1 0x1 SWAP1 SWAP3 ADD SWAP2 DUP14 ADD PUSH2 0x130F JUMP JUMPDEST PUSH4 0x4E487B71 PUSH1 0xE0 SHL PUSH1 0x0 MSTORE PUSH1 0x41 PUSH1 0x4 MSTORE PUSH1 0x24 PUSH1 0x0 REVERT JUMPDEST ADD MLOAD SWAP1 POP DUP12 DUP1 PUSH2 0x11B5 JUMP JUMPDEST SWAP1 PUSH1 0xF DUP12 ADD PUSH1 0x0 MSTORE PUSH1 0x20 PUSH1 0x0 KECCAK256 SWAP2 PUSH1 0x0 JUMPDEST PUSH1 0x1F NOT DUP6 AND DUP2 LT PUSH2 0x1405 JUMPI POP SWAP2 DUP4 SWAP2 PUSH1 0x1 SWAP4 PUSH1 0x40 SWAP7 SWAP6 PUSH1 0x1F NOT DUP2 AND LT PUSH2 0x13EC JUMPI JUMPDEST POP POP POP DUP2 SHL ADD PUSH1 0xF DUP11 ADD SSTORE PUSH2 0x11CD JUMP JUMPDEST ADD MLOAD PUSH1 0x0 NOT PUSH1 0xF8 DUP5 PUSH1 0x3 SHL AND SHR NOT AND SWAP1 SSTORE DUP12 DUP1 DUP1 PUSH2 0x13DC JUMP JUMPDEST SWAP2 SWAP3 PUSH1 0x20 PUSH1 0x1 DUP2 SWAP3 DUP7 DUP6 ADD MLOAD DUP2 SSTORE ADD SWAP5 ADD SWAP3 ADD PUSH2 0x13BB JUMP JUMPDEST ADD CALLDATALOAD SWAP1 POP DUP13 DUP1 PUSH2 0x111A JUMP JUMPDEST PUSH1 0x7 DUP13 ADD PUSH1 0x0 MSTORE PUSH1 0x20 PUSH1 0x0 KECCAK256 SWAP2 PUSH1 0x0 JUMPDEST PUSH1 0x1F NOT DUP6 AND DUP2 LT PUSH2 0x1484 JUMPI POP SWAP2 DUP4 SWAP2 PUSH1 0x1 SWAP4 PUSH2 0x1167 SWAP7 SWAP6 PUSH1 0x1F NOT DUP2 AND LT PUSH2 0x146A JUMPI JUMPDEST POP POP POP DUP2 SHL ADD PUSH1 0x7 DUP12 ADD SSTORE PUSH2 0x1132 JUMP JUMPDEST ADD CALLDATALOAD PUSH1 0x0 NOT PUSH1 0x3 DUP5 SWAP1 SHL PUSH1 0xF8 AND SHR NOT AND SWAP1 SSTORE DUP13 DUP1 DUP1 PUSH2 0x145A JUMP JUMPDEST SWAP1 SWAP3 PUSH1 0x20 PUSH1 0x1 DUP2 SWAP3 DUP7 DUP7 ADD CALLDATALOAD DUP2 SSTORE ADD SWAP5 ADD SWAP2 ADD PUSH2 0x1438 JUMP JUMPDEST ADD CALLDATALOAD SWAP1 POP DUP12 DUP1 PUSH2 0x10AF JUMP JUMPDEST SWAP1 SWAP3 POP PUSH1 0x6 DUP13 ADD PUSH1 0x0 MSTORE PUSH1 0x20 PUSH1 0x0 KECCAK256 SWAP1 PUSH1 0x0 SWAP4 JUMPDEST PUSH1 0x1F NOT DUP5 AND DUP6 LT PUSH2 0x1500 JUMPI PUSH1 0x1 SWAP5 POP DUP4 PUSH1 0x1F NOT DUP2 AND LT PUSH2 0x14E6 JUMPI JUMPDEST POP POP POP DUP2 SHL ADD PUSH1 0x6 DUP11 ADD SSTORE PUSH2 0x10C7 JUMP JUMPDEST ADD CALLDATALOAD PUSH1 0x0 NOT PUSH1 0x3 DUP5 SWAP1 SHL PUSH1 0xF8 AND SHR NOT AND SWAP1 SSTORE DUP12 DUP1 DUP1 PUSH2 0x14D6 JUMP JUMPDEST DUP2 DUP2 ADD CALLDATALOAD DUP4 SSTORE PUSH1 0x20 SWAP5 DUP6 ADD SWAP5 PUSH1 0x1 SWAP1 SWAP4 ADD SWAP3 ADD PUSH2 0x14BB JUMP JUMPDEST ADD CALLDATALOAD SWAP1 POP DUP12 DUP1 PUSH2 0x1049 JUMP JUMPDEST SWAP1 SWAP3 POP PUSH1 0x5 DUP13 ADD PUSH1 0x0 MSTORE PUSH1 0x20 PUSH1 0x0 KECCAK256 SWAP1 PUSH1 0x0 SWAP4 JUMPDEST PUSH1 0x1F NOT DUP5 AND DUP6 LT PUSH2 0x157C JUMPI PUSH1 0x1 SWAP5 POP DUP4 PUSH1 0x1F NOT DUP2 AND LT PUSH2 0x1562 JUMPI JUMPDEST POP POP POP DUP2 SHL ADD PUSH1 0x5 DUP11 ADD SSTORE PUSH2 0x1061 JUMP JUMPDEST ADD CALLDATALOAD PUSH1 0x0 NOT PUSH1 0x3 DUP5 SWAP1 SHL PUSH1 0xF8 AND SHR NOT AND SWAP1 SSTORE DUP12 DUP1 DUP1 PUSH2 0x1552 JUMP JUMPDEST DUP2 DUP2 ADD CALLDATALOAD DUP4 SSTORE PUSH1 0x20 SWAP5 DUP6 ADD SWAP5 PUSH1 0x1 SWAP1 SWAP4 ADD SWAP3 ADD PUSH2 0x1537 JUMP JUMPDEST ADD CALLDATALOAD SWAP1 POP DUP12 DUP1 PUSH2 0xFE3 JUMP JUMPDEST SWAP1 SWAP3 POP PUSH1 0x4 DUP13 ADD PUSH1 0x0 MSTORE PUSH1 0x20 PUSH1 0x0 KECCAK256 SWAP1 PUSH1 0x0 SWAP4 JUMPDEST PUSH1 0x1F NOT DUP5 AND DUP6 LT PUSH2 0x15F8 JUMPI PUSH1 0x1 SWAP5 POP DUP4 PUSH1 0x1F NOT DUP2 AND LT PUSH2 0x15DE JUMPI JUMPDEST POP POP POP DUP2 SHL ADD PUSH1 0x4 DUP11 ADD SSTORE PUSH2 0xFFB JUMP JUMPDEST ADD CALLDATALOAD PUSH1 0x0 NOT PUSH1 0x3 DUP5 SWAP1 SHL PUSH1 0xF8 AND SHR NOT AND SWAP1 SSTORE DUP12 DUP1 DUP1 PUSH2 0x15CE JUMP JUMPDEST DUP2 DUP2 ADD CALLDATALOAD DUP4 SSTORE PUSH1 0x20 SWAP5 DUP6 ADD SWAP5 PUSH1 0x1 SWAP1 SWAP4 ADD SWAP3 ADD PUSH2 0x15B3 JUMP JUMPDEST ADD CALLDATALOAD SWAP1 POP DUP12 DUP1 PUSH2 0xF7D JUMP JUMPDEST SWAP1 SWAP3 POP PUSH1 0x3 DUP13 ADD PUSH1 0x0 MSTORE PUSH1 0x20 PUSH1 0x0 KECCAK256 SWAP1 PUSH1 0x0 SWAP4 JUMPDEST PUSH1 0x1F NOT DUP5 AND DUP6 LT PUSH2 0x1674 JUMPI PUSH1 0x1 SWAP5 POP DUP4 PUSH1 0x1F NOT DUP2 AND LT PUSH2 0x165A JUMPI JUMPDEST POP POP POP DUP2 SHL ADD PUSH1 0x3 DUP11 ADD SSTORE PUSH2 0xF95 JUMP JUMPDEST ADD CALLDATALOAD PUSH1 0x0 NOT PUSH1 0x3 DUP5 SWAP1 SHL PUSH1 0xF8 AND SHR NOT AND SWAP1 SSTORE DUP12 DUP1 DUP1 PUSH2 0x164A JUMP JUMPDEST DUP2 DUP2 ADD CALLDATALOAD DUP4 SSTORE PUSH1 0x20 SWAP5 DUP6 ADD SWAP5 PUSH1 0x1 SWAP1 SWAP4 ADD SWAP3 ADD PUSH2 0x162F JUMP JUMPDEST SWAP1 POP DUP9 ADD CALLDATALOAD DUP12 PUSH2 0xEEB JUMP JUMPDEST SWAP1 POP PUSH1 0xA DUP12 ADD PUSH1 0x0 MSTORE PUSH1 0x20 PUSH1 0x0 KECCAK256 SWAP1 PUSH1 0x0 JUMPDEST DUP11 PUSH1 0x1F NOT DUP12 AND DUP3 LT PUSH2 0x16EF JUMPI POP POP DUP9 PUSH1 0x1F NOT DUP2 AND LT PUSH2 0x16D5 JUMPI JUMPDEST POP POP PUSH1 0x1 DUP8 DUP2 SHL ADD PUSH1 0xA DUP12 ADD SSTORE PUSH2 0xF02 JUMP JUMPDEST DUP10 ADD CALLDATALOAD PUSH1 0x0 NOT PUSH1 0x3 DUP11 SWAP1 SHL PUSH1 0xF8 AND SHR NOT AND SWAP1 SSTORE DUP11 DUP1 PUSH2 0x16C3 JUMP JUMPDEST PUSH1 0x1 DUP4 SWAP5 PUSH1 0x20 SWAP4 SWAP5 DUP5 SWAP4 ADD CALLDATALOAD DUP2 SSTORE ADD SWAP4 ADD SWAP2 ADD PUSH2 0x16A9 JUMP JUMPDEST PUSH1 0x40 MLOAD PUSH4 0x11799635 PUSH1 0xE0 SHL DUP2 MSTORE PUSH1 0x4 SWAP1 REVERT JUMPDEST CALLVALUE PUSH2 0x36C JUMPI PUSH1 0x20 CALLDATASIZE PUSH1 0x3 NOT ADD SLT PUSH2 0x36C JUMPI PUSH1 0x4 CALLDATALOAD PUSH2 0x1736 DUP2 PUSH2 0x50BE JUMP JUMPDEST POP PUSH1 0x0 MSTORE PUSH1 0x13 PUSH1 0x20 MSTORE PUSH2 0x177B PUSH1 0x40 PUSH1 0x0 KECCAK256 PUSH2 0x762 PUSH1 0x10 DUP3 ADD SLOAD PUSH2 0x1767 PUSH1 0x11 PUSH2 0x1760 PUSH1 0xF DUP7 ADD PUSH2 0x4B40 JUMP JUMPDEST SWAP5 ADD PUSH2 0x4B40 JUMP JUMPDEST PUSH1 0x40 MLOAD SWAP5 DUP6 SWAP5 PUSH1 0x60 DUP7 MSTORE PUSH1 0x60 DUP7 ADD SWAP1 PUSH2 0x4C09 JUMP JUMPDEST SWAP2 PUSH1 0x20 DUP6 ADD MSTORE DUP4 DUP3 SUB PUSH1 0x40 DUP6 ADD MSTORE PUSH2 0x4C09 JUMP JUMPDEST CALLVALUE PUSH2 0x36C JUMPI PUSH1 0x40 CALLDATASIZE PUSH1 0x3 NOT ADD SLT PUSH2 0x36C JUMPI PUSH2 0x1C PUSH2 0x17AA PUSH2 0x4C2E JUMP JUMPDEST PUSH2 0x17B2 PUSH2 0x4C5A JUMP JUMPDEST SWAP1 PUSH2 0x17BB PUSH2 0x4E46 JUMP JUMPDEST PUSH1 0x1 DUP1 PUSH1 0xA0 SHL SUB AND PUSH1 0x0 MSTORE PUSH1 0x12 PUSH1 0x20 MSTORE PUSH1 0x40 PUSH1 0x0 KECCAK256 SWAP1 PUSH1 0xFF DUP1 NOT DUP4 SLOAD AND SWAP2 ISZERO ISZERO AND OR SWAP1 SSTORE JUMP JUMPDEST CALLVALUE PUSH2 0x36C JUMPI PUSH1 0x20 DUP1 PUSH1 0x3 NOT CALLDATASIZE ADD SLT PUSH2 0x36C JUMPI PUSH1 0x4 CALLDATALOAD PUSH2 0x17FE PUSH2 0x5693 JUMP JUMPDEST POP PUSH1 0x60 PUSH1 0x40 DUP1 MLOAD PUSH2 0x180E DUP2 PUSH2 0x4AB3 JUMP JUMPDEST DUP3 DUP2 MSTORE PUSH1 0x0 DUP6 DUP3 ADD MSTORE ADD MSTORE PUSH2 0x1822 DUP2 PUSH2 0x50BE JUMP JUMPDEST POP PUSH1 0x0 MSTORE PUSH1 0x13 DUP2 MSTORE PUSH1 0x40 PUSH1 0x0 KECCAK256 PUSH1 0x9 DUP2 ADD SLOAD SWAP2 PUSH1 0xB DUP3 ADD SLOAD SWAP2 PUSH1 0xFF DUP4 PUSH1 0xA0 SHR AND SWAP3 PUSH1 0xFF PUSH1 0x12 DUP4 ADD SLOAD AND SWAP3 PUSH2 0x1858 PUSH1 0xA DUP5 ADD PUSH2 0x4B40 JUMP JUMPDEST SWAP1 PUSH2 0x1865 PUSH1 0xC DUP6 ADD PUSH2 0x5737 JUMP JUMPDEST SWAP5 PUSH1 0x40 MLOAD PUSH2 0x1872 DUP2 PUSH2 0x4AB3 JUMP JUMPDEST PUSH2 0x187E PUSH1 0xF DUP8 ADD PUSH2 0x4B40 JUMP JUMPDEST DUP2 MSTORE PUSH2 0x18B8 PUSH2 0x189A PUSH1 0x11 PUSH1 0x10 DUP10 ADD SLOAD SWAP9 DUP7 DUP6 ADD SWAP10 DUP11 MSTORE ADD PUSH2 0x4B40 JUMP JUMPDEST SWAP5 PUSH1 0x40 DUP4 ADD SWAP6 DUP7 MSTORE PUSH1 0x40 MLOAD SWAP11 DUP12 MSTORE PUSH2 0x160 DUP1 DUP7 DUP14 ADD MSTORE DUP12 ADD SWAP1 PUSH2 0x4C09 JUMP JUMPDEST PUSH1 0x1 PUSH1 0x1 PUSH1 0xA0 SHL SUB SWAP1 SWAP6 AND PUSH1 0x40 DUP11 ADD MSTORE PUSH1 0x5 DUP9 LT ISZERO PUSH2 0x8C2 JUMPI PUSH2 0x18F4 PUSH2 0x762 SWAP8 PUSH2 0x190C SWAP4 DUP12 SWAP11 PUSH1 0x60 DUP13 ADD MSTORE ISZERO ISZERO PUSH1 0x80 DUP12 ADD MSTORE PUSH1 0xA0 DUP11 ADD SWAP1 PUSH2 0x4D24 JUMP JUMPDEST DUP8 DUP6 SUB PUSH2 0x140 DUP10 ADD MSTORE MLOAD PUSH1 0x60 DUP6 MSTORE PUSH1 0x60 DUP6 ADD SWAP1 PUSH2 0x4C09 JUMP JUMPDEST SWAP4 MLOAD SWAP1 DUP4 ADD MSTORE MLOAD SWAP1 PUSH1 0x40 DUP2 DUP5 SUB SWAP2 ADD MSTORE PUSH2 0x4C09 JUMP JUMPDEST CALLVALUE PUSH2 0x36C JUMPI PUSH1 0x20 CALLDATASIZE PUSH1 0x3 NOT ADD SLT PUSH2 0x36C JUMPI PUSH1 0x4 CALLDATALOAD PUSH2 0x193E DUP2 PUSH2 0x50BE JUMP JUMPDEST POP PUSH1 0x0 MSTORE PUSH1 0x6 PUSH1 0x20 MSTORE PUSH2 0x762 PUSH2 0x1957 PUSH1 0x40 PUSH1 0x0 KECCAK256 PUSH2 0x4B40 JUMP JUMPDEST PUSH1 0x0 PUSH1 0x40 MLOAD PUSH2 0x1965 DUP2 PUSH2 0x4B04 JUMP JUMPDEST MSTORE PUSH1 0x40 MLOAD SWAP2 DUP3 SWAP2 PUSH1 0x20 DUP4 MSTORE PUSH1 0x20 DUP4 ADD SWAP1 PUSH2 0x4C09 JUMP JUMPDEST CALLVALUE PUSH2 0x36C JUMPI PUSH1 0x20 CALLDATASIZE PUSH1 0x3 NOT ADD SLT PUSH2 0x36C JUMPI PUSH1 0x4 CALLDATALOAD PUSH2 0x1996 PUSH2 0x4E46 JUMP JUMPDEST PUSH2 0x19A4 PUSH2 0x3E8 DUP3 GT ISZERO PUSH2 0x577E JUMP JUMPDEST PUSH1 0xF SSTORE STOP JUMPDEST CALLVALUE PUSH2 0x36C JUMPI PUSH1 0x80 CALLDATASIZE PUSH1 0x3 NOT ADD SLT PUSH2 0x36C JUMPI PUSH2 0x19C2 PUSH2 0x4C2E JUMP JUMPDEST PUSH2 0x19CA PUSH2 0x4C44 JUMP JUMPDEST SWAP1 PUSH1 0x44 CALLDATALOAD PUSH1 0x64 CALLDATALOAD SWAP3 PUSH1 0x1 PUSH1 0x1 PUSH1 0x40 SHL SUB DUP5 GT PUSH2 0x36C JUMPI CALLDATASIZE PUSH1 0x23 DUP6 ADD SLT ISZERO PUSH2 0x36C JUMPI PUSH2 0x1A02 PUSH2 0x1C SWAP5 CALLDATASIZE SWAP1 PUSH1 0x24 DUP2 PUSH1 0x4 ADD CALLDATALOAD SWAP2 ADD PUSH2 0x4C9A JUMP JUMPDEST SWAP3 PUSH2 0x1A0E DUP4 DUP4 DUP4 PUSH2 0x4E72 JUMP JUMPDEST CALLER PUSH2 0x5129 JUMP JUMPDEST PUSH1 0x3 NOT PUSH1 0xC0 CALLDATASIZE DUP3 ADD SLT PUSH2 0x36C JUMPI PUSH1 0x24 CALLDATALOAD PUSH1 0x1 PUSH1 0x1 PUSH1 0x40 SHL SUB DUP2 GT PUSH2 0x36C JUMPI PUSH2 0x1A40 SWAP1 CALLDATASIZE SWAP1 PUSH1 0x4 ADD PUSH2 0x4D63 JUMP JUMPDEST PUSH1 0x44 CALLDATALOAD PUSH1 0x1 PUSH1 0x1 PUSH1 0x40 SHL SUB DUP2 GT PUSH2 0x36C JUMPI PUSH2 0x1A5F SWAP1 CALLDATASIZE SWAP1 PUSH1 0x4 ADD PUSH2 0x4D63 JUMP JUMPDEST SWAP3 SWAP1 PUSH1 0x84 CALLDATALOAD PUSH1 0x1 PUSH1 0x1 PUSH1 0x40 SHL SUB DUP2 GT PUSH2 0x36C JUMPI PUSH2 0x1A80 SWAP1 CALLDATASIZE SWAP1 PUSH1 0x4 ADD PUSH2 0x4D63 JUMP JUMPDEST SWAP5 SWAP1 SWAP6 PUSH1 0x1 PUSH1 0x1 PUSH1 0x40 SHL SUB PUSH1 0xA4 CALLDATALOAD GT PUSH2 0x36C JUMPI PUSH1 0xC0 SWAP1 PUSH1 0xA4 CALLDATALOAD CALLDATASIZE SUB ADD SLT PUSH2 0x36C JUMPI PUSH1 0xFF PUSH1 0x11 SLOAD AND ISZERO DUP1 PUSH2 0x232E JUMPI JUMPDEST DUP1 PUSH2 0x2319 JUMPI JUMPDEST PUSH2 0x2307 JUMPI PUSH2 0x1AC0 PUSH2 0x55FA JUMP JUMPDEST PUSH1 0xB SLOAD CALLVALUE LT PUSH2 0x5A3 JUMPI PUSH1 0xA SLOAD SWAP5 PUSH2 0x1AD6 DUP7 PUSH2 0x524C JUMP JUMPDEST PUSH1 0xA SSTORE PUSH2 0x1AE3 DUP7 CALLER PUSH2 0x5352 JUMP JUMPDEST DUP6 PUSH1 0x0 MSTORE PUSH1 0x13 PUSH1 0x20 MSTORE PUSH1 0x40 PUSH1 0x0 KECCAK256 SWAP7 PUSH1 0x1 DUP9 ADD PUSH1 0xFF NOT DUP2 SLOAD AND SWAP1 SSTORE PUSH1 0x4 CALLDATALOAD PUSH1 0x9 DUP10 ADD SSTORE PUSH1 0x1 PUSH1 0x1 PUSH1 0x40 SHL SUB DUP7 GT PUSH2 0x1389 JUMPI PUSH2 0x1B2E DUP7 PUSH2 0x1B25 PUSH1 0xA DUP12 ADD SLOAD PUSH2 0x4A79 JUMP JUMPDEST PUSH1 0xA DUP12 ADD PUSH2 0x5271 JUMP JUMPDEST DUP6 PUSH1 0x0 PUSH1 0x1F DUP3 GT PUSH1 0x1 EQ PUSH2 0x2299 JUMPI PUSH1 0x0 SWAP2 PUSH2 0x228E JUMPI JUMPDEST POP DUP7 PUSH1 0x1 SHL SWAP1 PUSH1 0x0 NOT DUP9 PUSH1 0x3 SHL SHR NOT AND OR PUSH1 0xA DUP10 ADD SSTORE JUMPDEST PUSH1 0xB DUP9 ADD DUP1 SLOAD PUSH1 0x1 PUSH1 0x1 PUSH1 0xA8 SHL SUB NOT AND CALLER PUSH1 0xFF PUSH1 0xA0 SHL NOT AND OR SWAP1 SSTORE PUSH2 0x1B85 PUSH1 0x4 PUSH1 0xA4 CALLDATALOAD ADD DUP1 PUSH2 0x52C5 JUMP JUMPDEST SWAP1 PUSH1 0x1 PUSH1 0x1 PUSH1 0x40 SHL SUB DUP3 GT PUSH2 0x1389 JUMPI DUP2 SWAP1 PUSH2 0x1BA9 DUP3 DUP13 PUSH1 0x3 PUSH2 0xF60 DUP2 DUP4 ADD SLOAD PUSH2 0x4A79 JUMP JUMPDEST PUSH1 0x0 SWAP1 PUSH1 0x1F DUP4 GT PUSH1 0x1 EQ PUSH2 0x221D JUMPI PUSH1 0x0 SWAP3 PUSH2 0x2212 JUMPI JUMPDEST POP POP DUP2 PUSH1 0x1 SHL SWAP2 PUSH1 0x0 NOT SWAP1 PUSH1 0x3 SHL SHR NOT AND OR PUSH1 0x3 DUP10 ADD SSTORE JUMPDEST PUSH2 0x1BEB PUSH1 0x24 PUSH1 0xA4 CALLDATALOAD ADD PUSH1 0xA4 CALLDATALOAD PUSH1 0x4 ADD PUSH2 0x52C5 JUMP JUMPDEST SWAP1 PUSH1 0x1 PUSH1 0x1 PUSH1 0x40 SHL SUB DUP3 GT PUSH2 0x1389 JUMPI DUP2 SWAP1 PUSH2 0x1C0F DUP3 DUP13 PUSH1 0x4 PUSH2 0xF60 DUP2 DUP4 ADD SLOAD PUSH2 0x4A79 JUMP JUMPDEST PUSH1 0x0 SWAP1 PUSH1 0x1F DUP4 GT PUSH1 0x1 EQ PUSH2 0x21A1 JUMPI PUSH1 0x0 SWAP3 PUSH2 0x2196 JUMPI JUMPDEST POP POP DUP2 PUSH1 0x1 SHL SWAP2 PUSH1 0x0 NOT SWAP1 PUSH1 0x3 SHL SHR NOT AND OR PUSH1 0x4 DUP10 ADD SSTORE JUMPDEST PUSH2 0x1C51 PUSH1 0x44 PUSH1 0xA4 CALLDATALOAD ADD PUSH1 0xA4 CALLDATALOAD PUSH1 0x4 ADD PUSH2 0x52C5 JUMP JUMPDEST SWAP1 PUSH1 0x1 PUSH1 0x1 PUSH1 0x40 SHL SUB DUP3 GT PUSH2 0x1389 JUMPI DUP2 SWAP1 PUSH2 0x1C75 DUP3 DUP13 PUSH1 0x5 PUSH2 0xF60 DUP2 DUP4 ADD SLOAD PUSH2 0x4A79 JUMP JUMPDEST PUSH1 0x0 SWAP1 PUSH1 0x1F DUP4 GT PUSH1 0x1 EQ PUSH2 0x2125 JUMPI PUSH1 0x0 SWAP3 PUSH2 0x211A JUMPI JUMPDEST POP POP DUP2 PUSH1 0x1 SHL SWAP2 PUSH1 0x0 NOT SWAP1 PUSH1 0x3 SHL SHR NOT AND OR PUSH1 0x5 DUP10 ADD SSTORE JUMPDEST PUSH2 0x1CB7 PUSH1 0x64 PUSH1 0xA4 CALLDATALOAD ADD PUSH1 0xA4 CALLDATALOAD PUSH1 0x4 ADD PUSH2 0x52C5 JUMP JUMPDEST SWAP1 PUSH1 0x1 PUSH1 0x1 PUSH1 0x40 SHL SUB DUP3 GT PUSH2 0x1389 JUMPI DUP2 SWAP1 PUSH2 0x1CDB DUP3 DUP13 PUSH1 0x6 PUSH2 0xF60 DUP2 DUP4 ADD SLOAD PUSH2 0x4A79 JUMP JUMPDEST PUSH1 0x0 SWAP1 PUSH1 0x1F DUP4 GT PUSH1 0x1 EQ PUSH2 0x20A9 JUMPI PUSH1 0x0 SWAP3 PUSH2 0x209E JUMPI JUMPDEST POP POP DUP2 PUSH1 0x1 SHL SWAP2 PUSH1 0x0 NOT SWAP1 PUSH1 0x3 SHL SHR NOT AND OR PUSH1 0x6 DUP10 ADD SSTORE JUMPDEST PUSH2 0x1D1D PUSH1 0x84 PUSH1 0xA4 CALLDATALOAD ADD PUSH1 0xA4 CALLDATALOAD PUSH1 0x4 ADD PUSH2 0x52C5 JUMP JUMPDEST SWAP1 PUSH1 0x1 PUSH1 0x1 PUSH1 0x40 SHL SUB DUP3 GT PUSH2 0x1389 JUMPI PUSH2 0x1D46 DUP3 PUSH2 0x1D3D PUSH1 0x7 DUP14 ADD SLOAD PUSH2 0x4A79 JUMP JUMPDEST PUSH1 0x7 DUP14 ADD PUSH2 0x5271 JUMP JUMPDEST PUSH1 0x0 SWAP1 PUSH1 0x1F DUP4 GT PUSH1 0x1 EQ PUSH2 0x202A JUMPI PUSH2 0x1DAF SWAP4 SWAP3 SWAP2 PUSH1 0x0 SWAP2 DUP4 PUSH2 0x201F JUMPI JUMPDEST POP POP DUP2 PUSH1 0x1 SHL SWAP2 PUSH1 0x0 NOT SWAP1 PUSH1 0x3 SHL SHR NOT AND OR PUSH1 0x7 DUP11 ADD SSTORE JUMPDEST PUSH1 0xA4 DUP1 CALLDATALOAD ADD CALLDATALOAD PUSH1 0x8 DUP11 ADD SSTORE PUSH1 0x40 MLOAD SWAP3 PUSH2 0x1D93 DUP5 PUSH2 0x4AB3 JUMP JUMPDEST PUSH2 0x1D9E CALLDATASIZE DUP7 DUP9 PUSH2 0x4C9A JUMP JUMPDEST DUP5 MSTORE PUSH1 0x64 CALLDATALOAD PUSH1 0x20 DUP6 ADD MSTORE CALLDATASIZE SWAP2 PUSH2 0x4C9A JUMP JUMPDEST PUSH1 0x40 DUP3 ADD MSTORE DUP1 MLOAD DUP1 MLOAD SWAP1 PUSH1 0x1 PUSH1 0x1 PUSH1 0x40 SHL SUB DUP3 GT PUSH2 0x1389 JUMPI PUSH2 0x1DE1 DUP3 PUSH2 0x1DD8 PUSH1 0xF DUP13 ADD SLOAD PUSH2 0x4A79 JUMP JUMPDEST PUSH1 0xF DUP13 ADD PUSH2 0x5271 JUMP JUMPDEST PUSH1 0x20 SWAP1 PUSH1 0x1F DUP4 GT PUSH1 0x1 EQ PUSH2 0x1FAC JUMPI PUSH1 0x40 SWAP4 SWAP3 SWAP2 PUSH1 0x0 SWAP2 DUP4 PUSH2 0x1FA1 JUMPI JUMPDEST POP POP DUP2 PUSH1 0x1 SHL SWAP2 PUSH1 0x0 NOT SWAP1 PUSH1 0x3 SHL SHR NOT AND OR PUSH1 0xF DUP10 ADD SSTORE JUMPDEST PUSH1 0x20 DUP2 ADD MLOAD PUSH1 0x10 DUP10 ADD SSTORE ADD MLOAD SWAP3 DUP4 MLOAD SWAP7 PUSH1 0x1 PUSH1 0x1 PUSH1 0x40 SHL SUB DUP9 GT PUSH2 0x1389 JUMPI DUP8 DUP8 SWAP6 PUSH2 0x1E49 PUSH1 0x20 SWAP11 PUSH2 0x1201 PUSH1 0x11 DUP7 ADD SLOAD PUSH2 0x4A79 JUMP JUMPDEST DUP10 SWAP1 PUSH1 0x1F DUP4 GT PUSH1 0x1 EQ PUSH2 0x1F14 JUMPI SWAP3 PUSH1 0x11 DUP4 PUSH2 0x1EAB SWAP7 SWAP5 PUSH1 0x0 DUP1 MLOAD PUSH1 0x20 PUSH2 0x588B DUP4 CODECOPY DUP2 MLOAD SWAP2 MSTORE SWAP11 SWAP12 SWAP5 PUSH2 0x8A4 SWAP8 PUSH1 0x0 SWAP3 PUSH2 0x1F09 JUMPI JUMPDEST POP POP DUP2 PUSH1 0x1 SHL SWAP2 PUSH1 0x0 NOT SWAP1 PUSH1 0x3 SHL SHR NOT AND OR SWAP2 ADD SSTORE JUMPDEST PUSH1 0x64 CALLDATALOAD PUSH1 0x0 MSTORE PUSH1 0x15 DUP11 MSTORE PUSH2 0x126C DUP9 PUSH1 0x40 PUSH1 0x0 KECCAK256 PUSH2 0x52F7 JUMP JUMPDEST PUSH1 0x40 MLOAD PUSH1 0x4 CALLDATALOAD DUP2 MSTORE PUSH1 0x0 DUP8 DUP3 ADD MSTORE DUP5 PUSH32 0x95ABEB4465B4AD62FEB35F85EB0A053AC518E5B0F02A7C23B1EF9B3FA167B069 PUSH1 0x40 CALLER SWAP4 LOG3 PUSH2 0x1EF7 PUSH1 0x40 MLOAD SWAP3 DUP4 SWAP3 PUSH1 0x40 DUP5 MSTORE PUSH1 0x40 DUP5 ADD SWAP2 PUSH2 0x5331 JUMP JUMPDEST PUSH1 0x64 CALLDATALOAD DUP8 DUP4 ADD MSTORE SUB SWAP1 LOG2 PUSH1 0x40 MLOAD SWAP1 DUP2 MSTORE RETURN JUMPDEST ADD MLOAD SWAP1 POP DUP15 DUP1 PUSH2 0x1E7D JUMP JUMPDEST SWAP8 SWAP3 SWAP2 SWAP1 PUSH1 0x11 DUP4 ADD PUSH1 0x0 MSTORE DUP11 PUSH1 0x0 KECCAK256 SWAP9 PUSH1 0x0 JUMPDEST PUSH1 0x1F NOT DUP5 AND DUP2 LT PUSH2 0x1F87 JUMPI POP PUSH1 0x1 DUP4 PUSH1 0x0 DUP1 MLOAD PUSH1 0x20 PUSH2 0x588B DUP4 CODECOPY DUP2 MLOAD SWAP2 MSTORE SWAP11 SWAP12 PUSH2 0x1EAB SWAP9 SWAP7 SWAP5 PUSH1 0x11 SWAP5 PUSH2 0x8A4 SWAP10 SWAP8 PUSH1 0x1F NOT DUP2 AND LT PUSH2 0x1F6E JUMPI JUMPDEST POP POP POP DUP2 SHL ADD SWAP2 ADD SSTORE PUSH2 0x1E93 JUMP JUMPDEST ADD MLOAD PUSH1 0x0 NOT PUSH1 0xF8 DUP5 PUSH1 0x3 SHL AND SHR NOT AND SWAP1 SSTORE DUP15 DUP1 DUP1 PUSH2 0x1F60 JUMP JUMPDEST DUP3 DUP3 ADD MLOAD DUP12 SSTORE PUSH1 0x1 SWAP1 SWAP11 ADD SWAP10 DUP12 SWAP10 POP SWAP2 DUP13 ADD SWAP2 DUP13 ADD PUSH2 0x1F27 JUMP JUMPDEST ADD MLOAD SWAP1 POP DUP11 DUP1 PUSH2 0x1DFD JUMP JUMPDEST SWAP1 PUSH1 0xF DUP11 ADD PUSH1 0x0 MSTORE PUSH1 0x20 PUSH1 0x0 KECCAK256 SWAP2 PUSH1 0x0 JUMPDEST PUSH1 0x1F NOT DUP6 AND DUP2 LT PUSH2 0x2007 JUMPI POP SWAP2 DUP4 SWAP2 PUSH1 0x1 SWAP4 PUSH1 0x40 SWAP7 SWAP6 PUSH1 0x1F NOT DUP2 AND LT PUSH2 0x1FEE JUMPI JUMPDEST POP POP POP DUP2 SHL ADD PUSH1 0xF DUP10 ADD SSTORE PUSH2 0x1E15 JUMP JUMPDEST ADD MLOAD PUSH1 0x0 NOT PUSH1 0xF8 DUP5 PUSH1 0x3 SHL AND SHR NOT AND SWAP1 SSTORE DUP11 DUP1 DUP1 PUSH2 0x1FDE JUMP JUMPDEST SWAP2 SWAP3 PUSH1 0x20 PUSH1 0x1 DUP2 SWAP3 DUP7 DUP6 ADD MLOAD DUP2 SSTORE ADD SWAP5 ADD SWAP3 ADD PUSH2 0x1FBD JUMP JUMPDEST ADD CALLDATALOAD SWAP1 POP DUP12 DUP1 PUSH2 0x1D63 JUMP JUMPDEST PUSH1 0x7 DUP12 ADD PUSH1 0x0 MSTORE PUSH1 0x20 PUSH1 0x0 KECCAK256 SWAP2 PUSH1 0x0 JUMPDEST PUSH1 0x1F NOT DUP6 AND DUP2 LT PUSH2 0x2086 JUMPI POP SWAP2 DUP4 SWAP2 PUSH1 0x1 SWAP4 PUSH2 0x1DAF SWAP7 SWAP6 PUSH1 0x1F NOT DUP2 AND LT PUSH2 0x206C JUMPI JUMPDEST POP POP POP DUP2 SHL ADD PUSH1 0x7 DUP11 ADD SSTORE PUSH2 0x1D7B JUMP JUMPDEST ADD CALLDATALOAD PUSH1 0x0 NOT PUSH1 0x3 DUP5 SWAP1 SHL PUSH1 0xF8 AND SHR NOT AND SWAP1 SSTORE DUP12 DUP1 DUP1 PUSH2 0x205C JUMP JUMPDEST SWAP1 SWAP3 PUSH1 0x20 PUSH1 0x1 DUP2 SWAP3 DUP7 DUP7 ADD CALLDATALOAD DUP2 SSTORE ADD SWAP5 ADD SWAP2 ADD PUSH2 0x203A JUMP JUMPDEST ADD CALLDATALOAD SWAP1 POP DUP11 DUP1 PUSH2 0x1CF1 JUMP JUMPDEST SWAP1 SWAP3 POP PUSH1 0x6 DUP12 ADD PUSH1 0x0 MSTORE PUSH1 0x20 PUSH1 0x0 KECCAK256 SWAP1 PUSH1 0x0 SWAP4 JUMPDEST PUSH1 0x1F NOT DUP5 AND DUP6 LT PUSH2 0x2102 JUMPI PUSH1 0x1 SWAP5 POP DUP4 PUSH1 0x1F NOT DUP2 AND LT PUSH2 0x20E8 JUMPI JUMPDEST POP POP POP DUP2 SHL ADD PUSH1 0x6 DUP10 ADD SSTORE PUSH2 0x1D09 JUMP JUMPDEST ADD CALLDATALOAD PUSH1 0x0 NOT PUSH1 0x3 DUP5 SWAP1 SHL PUSH1 0xF8 AND SHR NOT AND SWAP1 SSTORE DUP11 DUP1 DUP1 PUSH2 0x20D8 JUMP JUMPDEST DUP2 DUP2 ADD CALLDATALOAD DUP4 SSTORE PUSH1 0x20 SWAP5 DUP6 ADD SWAP5 PUSH1 0x1 SWAP1 SWAP4 ADD SWAP3 ADD PUSH2 0x20BD JUMP JUMPDEST ADD CALLDATALOAD SWAP1 POP DUP11 DUP1 PUSH2 0x1C8B JUMP JUMPDEST SWAP1 SWAP3 POP PUSH1 0x5 DUP12 ADD PUSH1 0x0 MSTORE PUSH1 0x20 PUSH1 0x0 KECCAK256 SWAP1 PUSH1 0x0 SWAP4 JUMPDEST PUSH1 0x1F NOT DUP5 AND DUP6 LT PUSH2 0x217E JUMPI PUSH1 0x1 SWAP5 POP DUP4 PUSH1 0x1F NOT DUP2 AND LT PUSH2 0x2164 JUMPI JUMPDEST POP POP POP DUP2 SHL ADD PUSH1 0x5 DUP10 ADD SSTORE PUSH2 0x1CA3 JUMP JUMPDEST ADD CALLDATALOAD PUSH1 0x0 NOT PUSH1 0x3 DUP5 SWAP1 SHL PUSH1 0xF8 AND SHR NOT AND SWAP1 SSTORE DUP11 DUP1 DUP1 PUSH2 0x2154 JUMP JUMPDEST DUP2 DUP2 ADD CALLDATALOAD DUP4 SSTORE PUSH1 0x20 SWAP5 DUP6 ADD SWAP5 PUSH1 0x1 SWAP1 SWAP4 ADD SWAP3 ADD PUSH2 0x2139 JUMP JUMPDEST ADD CALLDATALOAD SWAP1 POP DUP11 DUP1 PUSH2 0x1C25 JUMP JUMPDEST SWAP1 SWAP3 POP PUSH1 0x4 DUP12 ADD PUSH1 0x0 MSTORE PUSH1 0x20 PUSH1 0x0 KECCAK256 SWAP1 PUSH1 0x0 SWAP4 JUMPDEST PUSH1 0x1F NOT DUP5 AND DUP6 LT PUSH2 0x21FA JUMPI PUSH1 0x1 SWAP5 POP DUP4 PUSH1 0x1F NOT DUP2 AND LT PUSH2 0x21E0 JUMPI JUMPDEST POP POP POP DUP2 SHL ADD PUSH1 0x4 DUP10 ADD SSTORE PUSH2 0x1C3D JUMP JUMPDEST ADD CALLDATALOAD PUSH1 0x0 NOT PUSH1 0x3 DUP5 SWAP1 SHL PUSH1 0xF8 AND SHR NOT AND SWAP1 SSTORE DUP11 DUP1 DUP1 PUSH2 0x21D0 JUMP JUMPDEST DUP2 DUP2 ADD CALLDATALOAD DUP4 SSTORE PUSH1 0x20 SWAP5 DUP6 ADD SWAP5 PUSH1 0x1 SWAP1 SWAP4 ADD SWAP3 ADD PUSH2 0x21B5 JUMP JUMPDEST ADD CALLDATALOAD SWAP1 POP DUP11 DUP1 PUSH2 0x1BBF JUMP JUMPDEST SWAP1 SWAP3 POP PUSH1 0x3 DUP12 ADD PUSH1 0x0 MSTORE PUSH1 0x20 PUSH1 0x0 KECCAK256 SWAP1 PUSH1 0x0 SWAP4 JUMPDEST PUSH1 0x1F NOT DUP5 AND DUP6 LT PUSH2 0x2276 JUMPI PUSH1 0x1 SWAP5 POP DUP4 PUSH1 0x1F NOT DUP2 AND LT PUSH2 0x225C JUMPI JUMPDEST POP POP POP DUP2 SHL ADD PUSH1 0x3 DUP10 ADD SSTORE PUSH2 0x1BD7 JUMP JUMPDEST ADD CALLDATALOAD PUSH1 0x0 NOT PUSH1 0x3 DUP5 SWAP1 SHL PUSH1 0xF8 AND SHR NOT AND SWAP1 SSTORE DUP11 DUP1 DUP1 PUSH2 0x224C JUMP JUMPDEST DUP2 DUP2 ADD CALLDATALOAD DUP4 SSTORE PUSH1 0x20 SWAP5 DUP6 ADD SWAP5 PUSH1 0x1 SWAP1 SWAP4 ADD SWAP3 ADD PUSH2 0x2231 JUMP JUMPDEST SWAP1 POP DUP6 ADD CALLDATALOAD DUP10 PUSH2 0x1B44 JUMP JUMPDEST SWAP1 POP PUSH1 0xA DUP10 ADD PUSH1 0x0 MSTORE PUSH1 0x20 PUSH1 0x0 KECCAK256 SWAP1 PUSH1 0x0 JUMPDEST PUSH1 0x1F NOT DUP10 AND DUP2 LT PUSH2 0x22EF JUMPI POP DUP8 PUSH1 0x1F NOT DUP2 AND LT PUSH2 0x22D5 JUMPI JUMPDEST POP POP PUSH1 0x1 DUP7 DUP2 SHL ADD PUSH1 0xA DUP10 ADD SSTORE PUSH2 0x1B5B JUMP JUMPDEST DUP7 ADD CALLDATALOAD PUSH1 0x0 NOT PUSH1 0x3 DUP10 SWAP1 SHL PUSH1 0xF8 AND SHR NOT AND SWAP1 SSTORE DUP9 DUP1 PUSH2 0x22C3 JUMP JUMPDEST SWAP1 SWAP2 PUSH1 0x20 PUSH1 0x1 DUP2 SWAP3 DUP6 DUP12 ADD CALLDATALOAD DUP2 SSTORE ADD SWAP4 ADD SWAP2 ADD PUSH2 0x22AB JUMP JUMPDEST PUSH1 0x40 MLOAD PUSH4 0x3E34A41B PUSH1 0xE2 SHL DUP2 MSTORE PUSH1 0x4 SWAP1 REVERT JUMPDEST POP PUSH1 0x7 SLOAD PUSH1 0x1 PUSH1 0x1 PUSH1 0xA0 SHL SUB AND CALLER EQ ISZERO PUSH2 0x1AB4 JUMP JUMPDEST POP CALLER PUSH1 0x0 MSTORE PUSH1 0x12 PUSH1 0x20 MSTORE PUSH1 0xFF PUSH1 0x40 PUSH1 0x0 KECCAK256 SLOAD AND ISZERO PUSH2 0x1AAE JUMP JUMPDEST CALLVALUE PUSH2 0x36C JUMPI PUSH1 0x40 CALLDATASIZE PUSH1 0x3 NOT ADD SLT PUSH2 0x36C JUMPI PUSH2 0x2360 PUSH2 0x4C2E JUMP JUMPDEST PUSH2 0x2368 PUSH2 0x4C5A JUMP JUMPDEST PUSH1 0x1 PUSH1 0x1 PUSH1 0xA0 SHL SUB SWAP1 SWAP2 AND SWAP1 DUP2 ISZERO PUSH2 0x23D9 JUMPI CALLER PUSH1 0x0 MSTORE PUSH1 0x5 PUSH1 0x20 MSTORE PUSH1 0x40 PUSH1 0x0 KECCAK256 DUP3 PUSH1 0x0 MSTORE PUSH1 0x20 MSTORE PUSH2 0x23A9 DUP2 PUSH1 0x40 PUSH1 0x0 KECCAK256 SWAP1 PUSH1 0xFF DUP1 NOT DUP4 SLOAD AND SWAP2 ISZERO ISZERO AND OR SWAP1 SSTORE JUMP JUMPDEST PUSH1 0x40 MLOAD SWAP1 ISZERO ISZERO DUP2 MSTORE PUSH32 0x17307EAB39AB6107E8899845AD3D59BD9653F200F220920489CA2B5937696C31 PUSH1 0x20 CALLER SWAP3 LOG3 STOP JUMPDEST PUSH1 0x40 MLOAD PUSH4 0xB611743 PUSH1 0xE3 SHL DUP2 MSTORE PUSH1 0x4 DUP2 ADD DUP4 SWAP1 MSTORE PUSH1 0x24 SWAP1 REVERT JUMPDEST CALLVALUE PUSH2 0x36C JUMPI PUSH1 0x20 CALLDATASIZE PUSH1 0x3 NOT ADD SLT PUSH2 0x36C JUMPI PUSH1 0x4 CALLDATALOAD PUSH1 0x5 DUP2 LT ISZERO PUSH2 0x36C JUMPI PUSH1 0x20 SWAP1 PUSH1 0x17 ADD SLOAD PUSH1 0x40 MLOAD SWAP1 DUP2 MSTORE RETURN JUMPDEST CALLVALUE PUSH2 0x36C JUMPI PUSH1 0x0 CALLDATASIZE PUSH1 0x3 NOT ADD SLT PUSH2 0x36C JUMPI PUSH1 0x40 MLOAD PUSH1 0x0 PUSH1 0x1 DUP1 SLOAD SWAP1 PUSH2 0x2442 DUP3 PUSH2 0x4A79 JUMP JUMPDEST DUP1 DUP6 MSTORE SWAP2 DUP2 DUP2 AND SWAP1 DUP2 ISZERO PUSH2 0x24D6 JUMPI POP PUSH1 0x1 EQ PUSH2 0x247D JUMPI JUMPDEST PUSH2 0x762 DUP5 PUSH2 0x2469 DUP2 DUP7 SUB DUP3 PUSH2 0x4B1F JUMP JUMPDEST PUSH1 0x40 MLOAD SWAP2 DUP3 SWAP2 PUSH1 0x20 DUP4 MSTORE PUSH1 0x20 DUP4 ADD SWAP1 PUSH2 0x4C09 JUMP JUMPDEST PUSH1 0x0 DUP2 DUP2 MSTORE SWAP3 POP PUSH32 0xB10E2D527612073B26EECDFD717E6A320CF44B4AFAC2B0732D9FCBE2B7FA0CF6 JUMPDEST DUP3 DUP5 LT PUSH2 0x24BE JUMPI POP POP POP DUP2 ADD PUSH1 0x20 ADD PUSH2 0x2469 DUP3 PUSH2 0x2459 JUMP JUMPDEST DUP1 SLOAD PUSH1 0x20 DUP6 DUP8 ADD DUP2 ADD SWAP2 SWAP1 SWAP2 MSTORE SWAP1 SWAP4 ADD SWAP3 DUP2 ADD PUSH2 0x24A6 JUMP JUMPDEST PUSH1 0xFF NOT AND PUSH1 0x20 DUP1 DUP8 ADD SWAP2 SWAP1 SWAP2 MSTORE SWAP3 ISZERO ISZERO PUSH1 0x5 SHL DUP6 ADD SWAP1 SWAP3 ADD SWAP3 POP PUSH2 0x2469 SWAP2 POP DUP4 SWAP1 POP PUSH2 0x2459 JUMP JUMPDEST CALLVALUE PUSH2 0x36C JUMPI PUSH1 0x0 CALLDATASIZE PUSH1 0x3 NOT ADD SLT PUSH2 0x36C JUMPI PUSH1 0x20 PUSH1 0x40 MLOAD PUSH1 0x64 DUP2 MSTORE RETURN JUMPDEST CALLVALUE PUSH2 0x36C JUMPI PUSH1 0x0 CALLDATASIZE PUSH1 0x3 NOT ADD SLT PUSH2 0x36C JUMPI PUSH1 0x7 SLOAD PUSH1 0x40 MLOAD PUSH1 0x1 PUSH1 0x1 PUSH1 0xA0 SHL SUB SWAP1 SWAP2 AND DUP2 MSTORE PUSH1 0x20 SWAP1 RETURN JUMPDEST CALLVALUE PUSH2 0x36C JUMPI PUSH1 0x20 PUSH2 0x2552 CALLDATASIZE PUSH2 0x4D90 JUMP JUMPDEST PUSH2 0x255B DUP4 PUSH2 0x50BE JUMP JUMPDEST POP PUSH2 0x257F DUP5 PUSH1 0x40 MLOAD DUP4 DUP2 SWAP5 DUP4 DUP4 ADD SWAP7 DUP8 CALLDATACOPY DUP2 ADD PUSH1 0x0 DUP4 DUP3 ADD MSTORE SUB DUP1 DUP5 MSTORE ADD DUP3 PUSH2 0x4B1F JUMP JUMPDEST MLOAD SWAP1 KECCAK256 SWAP1 PUSH1 0x0 MSTORE PUSH1 0x13 DUP3 MSTORE PUSH1 0x9 PUSH1 0x40 PUSH1 0x0 KECCAK256 ADD SLOAD EQ PUSH1 0x40 MLOAD SWAP1 DUP2 MSTORE RETURN JUMPDEST CALLVALUE PUSH2 0x36C JUMPI PUSH1 0x0 CALLDATASIZE PUSH1 0x3 NOT ADD SLT PUSH2 0x36C JUMPI PUSH2 0x25B5 PUSH2 0x4E46 JUMP JUMPDEST PUSH2 0x25BD PUSH2 0x55FA JUMP JUMPDEST PUSH1 0x1 PUSH1 0xFF NOT PUSH1 0x9 SLOAD AND OR PUSH1 0x9 SSTORE PUSH32 0x62E78CEA01BEE320CD4E420270B5EA74000D11B0C9F74754EBDBFC544B05A258 PUSH1 0x20 PUSH1 0x40 MLOAD CALLER DUP2 MSTORE LOG1 STOP JUMPDEST CALLVALUE PUSH2 0x36C JUMPI PUSH1 0x40 CALLDATASIZE PUSH1 0x3 NOT ADD SLT PUSH2 0x36C JUMPI PUSH1 0x24 CALLDATALOAD PUSH1 0x4 CALLDATALOAD PUSH1 0x0 MSTORE PUSH1 0x15 PUSH1 0x20 MSTORE PUSH1 0x40 PUSH1 0x0 KECCAK256 DUP1 SLOAD DUP3 LT ISZERO PUSH2 0x36C JUMPI PUSH1 0x20 SWAP2 PUSH2 0x262F SWAP2 PUSH2 0x4E2E JUMP JUMPDEST SWAP1 SLOAD PUSH1 0x40 MLOAD SWAP2 PUSH1 0x3 SHL SHR DUP2 MSTORE RETURN JUMPDEST CALLVALUE PUSH2 0x36C JUMPI PUSH1 0x40 CALLDATASIZE PUSH1 0x3 NOT ADD SLT PUSH2 0x36C JUMPI PUSH1 0x4 CALLDATALOAD PUSH2 0x2659 PUSH2 0x4C44 JUMP JUMPDEST SWAP1 PUSH2 0x2663 DUP2 PUSH2 0x50BE JUMP JUMPDEST CALLER PUSH1 0x1 PUSH1 0x1 PUSH1 0xA0 SHL SUB SWAP1 SWAP2 AND SUB PUSH2 0xD14 JUMPI DUP1 PUSH1 0x0 MSTORE PUSH1 0x13 PUSH1 0x20 MSTORE PUSH1 0xFF PUSH1 0x1 PUSH1 0x40 PUSH1 0x0 KECCAK256 ADD SLOAD AND PUSH1 0x3 DUP2 LT ISZERO PUSH2 0x8C2 JUMPI PUSH1 0x2 EQ PUSH2 0xA87 JUMPI PUSH1 0x0 SWAP1 DUP2 MSTORE PUSH1 0x13 PUSH1 0x20 MSTORE PUSH1 0x40 SWAP1 KECCAK256 PUSH1 0x12 ADD DUP1 SLOAD PUSH2 0x100 PUSH1 0x1 PUSH1 0xB0 SHL SUB NOT AND PUSH1 0x10 SWAP3 SWAP1 SWAP3 SHL PUSH3 0x10000 PUSH1 0x1 PUSH1 0xB0 SHL SUB AND SWAP2 SWAP1 SWAP2 OR PUSH2 0x100 OR SWAP1 SSTORE STOP JUMPDEST CALLVALUE PUSH2 0x36C JUMPI PUSH1 0x20 DUP1 PUSH1 0x3 NOT CALLDATASIZE ADD SLT PUSH2 0x36C JUMPI PUSH1 0x4 CALLDATALOAD SWAP1 PUSH2 0x26F3 DUP3 PUSH2 0x50BE JUMP JUMPDEST CALLER PUSH1 0x1 PUSH1 0x1 PUSH1 0xA0 SHL SUB SWAP1 SWAP2 AND SUB PUSH2 0xD14 JUMPI DUP2 PUSH1 0x0 MSTORE PUSH1 0x13 DUP2 MSTORE PUSH1 0xFF PUSH1 0x1 PUSH1 0x40 PUSH1 0x0 KECCAK256 ADD SLOAD AND PUSH1 0x3 DUP2 LT ISZERO PUSH2 0x8C2 JUMPI PUSH1 0x2 EQ PUSH2 0xA87 JUMPI PUSH2 0x2730 PUSH2 0x5670 JUMP JUMPDEST DUP2 PUSH1 0x0 MSTORE PUSH1 0x13 DUP2 MSTORE PUSH1 0x40 PUSH1 0x0 KECCAK256 SWAP1 PUSH1 0x1 DUP3 ADD PUSH1 0x2 PUSH1 0xFF NOT DUP3 SLOAD AND OR SWAP1 SSTORE DUP2 SLOAD SWAP2 DUP3 PUSH2 0x27EF JUMPI JUMPDEST POP PUSH32 0xA1AB8A666D1303F4C8E0554E3100D5686FB8A5547B3621312DA15A7F97538700 SWAP2 DUP4 PUSH1 0x0 MSTORE PUSH1 0x14 DUP3 MSTORE PUSH1 0x40 PUSH1 0x0 KECCAK256 PUSH1 0x1 DUP2 ADD SWAP1 DUP2 SLOAD SWAP1 PUSH1 0xFF DUP3 PUSH1 0xA0 SHR AND PUSH2 0x27D7 JUMPI JUMPDEST POP POP POP PUSH1 0x40 MLOAD PUSH1 0x2 DUP2 MSTORE PUSH32 0x76C0BAD3B7F1C74587DCB478154D4C87AE6663DB97CC086B981DECF4E35A797C DUP4 CALLER SWAP3 LOG2 PUSH1 0x40 MLOAD SWAP1 DUP2 MSTORE LOG2 PUSH1 0x1 PUSH1 0x8 SSTORE STOP JUMPDEST PUSH1 0x0 SWAP1 SSTORE PUSH1 0x1 PUSH1 0x1 PUSH1 0xA8 SHL SUB NOT AND SWAP1 SSTORE DUP5 DUP1 DUP1 PUSH2 0x279A JUMP JUMPDEST PUSH1 0x0 SWAP1 SSTORE PUSH1 0x0 DUP1 DUP1 DUP1 DUP6 CALLER GAS CALL PUSH2 0x2804 PUSH2 0x50F9 JUMP JUMPDEST POP ISZERO PUSH2 0x506 JUMPI DUP4 PUSH2 0x2756 JUMP JUMPDEST CALLVALUE PUSH2 0x36C JUMPI PUSH1 0x0 CALLDATASIZE PUSH1 0x3 NOT ADD SLT PUSH2 0x36C JUMPI PUSH2 0x2829 PUSH2 0x4E46 JUMP JUMPDEST PUSH1 0x7 DUP1 SLOAD PUSH1 0x1 PUSH1 0x1 PUSH1 0xA0 SHL SUB NOT DUP2 AND SWAP1 SWAP2 SSTORE PUSH1 0x0 SWAP1 PUSH1 0x1 PUSH1 0x1 PUSH1 0xA0 SHL SUB AND PUSH32 0x8BE0079C531659141344CD1FD0A4F28419497F9722A3DAAFE3B4186F6B6457E0 DUP3 DUP1 LOG3 STOP JUMPDEST CALLVALUE PUSH2 0x36C JUMPI PUSH1 0x20 CALLDATASIZE PUSH1 0x3 NOT ADD SLT PUSH2 0x36C JUMPI PUSH1 0x1 PUSH1 0x1 PUSH1 0xA0 SHL SUB PUSH2 0x288E PUSH2 0x4C2E JUMP JUMPDEST AND DUP1 ISZERO PUSH2 0x28AD JUMPI PUSH1 0x0 MSTORE PUSH1 0x3 PUSH1 0x20 MSTORE PUSH1 0x20 PUSH1 0x40 PUSH1 0x0 KECCAK256 SLOAD PUSH1 0x40 MLOAD SWAP1 DUP2 MSTORE RETURN JUMPDEST PUSH1 0x40 MLOAD PUSH4 0x22718AD9 PUSH1 0xE2 SHL DUP2 MSTORE PUSH1 0x0 PUSH1 0x4 DUP3 ADD MSTORE PUSH1 0x24 SWAP1 REVERT JUMPDEST CALLVALUE PUSH2 0x36C JUMPI PUSH1 0x0 CALLDATASIZE PUSH1 0x3 NOT ADD SLT PUSH2 0x36C JUMPI PUSH1 0x20 PUSH1 0xFF PUSH1 0x11 SLOAD AND PUSH1 0x40 MLOAD SWAP1 ISZERO ISZERO DUP2 MSTORE RETURN JUMPDEST CALLVALUE PUSH2 0x36C JUMPI PUSH1 0x20 CALLDATASIZE PUSH1 0x3 NOT ADD SLT PUSH2 0x36C JUMPI PUSH1 0x4 CALLDATALOAD PUSH2 0x2906 DUP2 PUSH2 0x50BE JUMP JUMPDEST CALLER PUSH1 0x1 PUSH1 0x1 PUSH1 0xA0 SHL SUB SWAP1 SWAP2 AND SUB PUSH2 0xD14 JUMPI DUP1 PUSH1 0x0 MSTORE PUSH1 0x13 PUSH1 0x20 MSTORE PUSH1 0xFF PUSH1 0x1 PUSH1 0x40 PUSH1 0x0 KECCAK256 ADD SLOAD AND PUSH1 0x3 DUP2 LT ISZERO PUSH2 0x8C2 JUMPI PUSH1 0x2 EQ PUSH2 0xA87 JUMPI PUSH1 0x0 MSTORE PUSH1 0x13 PUSH1 0x20 MSTORE PUSH1 0x1 PUSH1 0x40 PUSH1 0x0 KECCAK256 ADD PUSH1 0x1 PUSH1 0xFF NOT DUP3 SLOAD AND OR SWAP1 SSTORE PUSH1 0x40 MLOAD PUSH1 0x1 DUP2 MSTORE PUSH32 0x76C0BAD3B7F1C74587DCB478154D4C87AE6663DB97CC086B981DECF4E35A797C PUSH1 0x20 CALLER SWAP3 LOG2 STOP JUMPDEST CALLVALUE PUSH2 0x36C JUMPI PUSH1 0x40 CALLDATASIZE PUSH1 0x3 NOT ADD SLT PUSH2 0x36C JUMPI PUSH1 0x4 CALLDATALOAD PUSH1 0x5 DUP2 LT ISZERO PUSH2 0x36C JUMPI PUSH1 0x1 PUSH1 0x1 PUSH1 0x40 SHL SUB PUSH1 0x24 CALLDATALOAD DUP2 DUP2 GT PUSH2 0x36C JUMPI PUSH2 0x29C6 PUSH2 0x29D6 SWAP2 CALLDATASIZE SWAP1 PUSH1 0x4 ADD PUSH2 0x4D63 JUMP JUMPDEST SWAP2 SWAP1 SWAP4 PUSH2 0x29D1 PUSH2 0x4E46 JUMP JUMPDEST PUSH2 0x4A60 JUMP JUMPDEST SWAP2 DUP2 GT PUSH2 0x1389 JUMPI PUSH2 0x29F1 DUP2 PUSH2 0x29EB DUP5 SLOAD PUSH2 0x4A79 JUMP JUMPDEST DUP5 PUSH2 0x5271 JUMP JUMPDEST PUSH1 0x0 PUSH1 0x1F DUP3 GT PUSH1 0x1 EQ PUSH2 0x2A2C JUMPI DUP2 SWAP3 SWAP4 PUSH1 0x0 SWAP3 PUSH2 0x2A21 JUMPI JUMPDEST POP POP PUSH1 0x0 NOT PUSH1 0x3 DUP4 SWAP1 SHL SHR NOT AND PUSH1 0x1 SWAP2 SWAP1 SWAP2 SHL OR SWAP1 SSTORE STOP JUMPDEST ADD CALLDATALOAD SWAP1 POP DUP4 DUP1 PUSH2 0x2A09 JUMP JUMPDEST PUSH1 0x1F NOT DUP3 AND SWAP4 DUP4 PUSH1 0x0 MSTORE PUSH1 0x20 SWAP2 DUP3 PUSH1 0x0 KECCAK256 SWAP3 PUSH1 0x0 SWAP1 JUMPDEST DUP8 DUP3 LT PUSH2 0x2A7A JUMPI POP POP DUP4 PUSH1 0x1 SWAP6 SWAP7 LT PUSH2 0x2A60 JUMPI JUMPDEST POP POP POP DUP2 SHL ADD SWAP1 SSTORE STOP JUMPDEST ADD CALLDATALOAD PUSH1 0x0 NOT PUSH1 0x3 DUP5 SWAP1 SHL PUSH1 0xF8 AND SHR NOT AND SWAP1 SSTORE DUP4 DUP1 DUP1 PUSH2 0x2A56 JUMP JUMPDEST DUP1 PUSH1 0x1 DUP5 SWAP7 DUP3 SWAP5 SWAP6 DUP8 ADD CALLDATALOAD DUP2 SSTORE ADD SWAP6 ADD SWAP3 ADD SWAP1 PUSH2 0x2A42 JUMP JUMPDEST CALLVALUE PUSH2 0x36C JUMPI PUSH1 0x20 CALLDATASIZE PUSH1 0x3 NOT ADD SLT PUSH2 0x36C JUMPI PUSH1 0x4 CALLDATALOAD PUSH2 0x2AAF DUP2 PUSH2 0x50BE JUMP JUMPDEST CALLER PUSH1 0x1 PUSH1 0x1 PUSH1 0xA0 SHL SUB SWAP1 SWAP2 AND SUB PUSH2 0xD14 JUMPI DUP1 PUSH1 0x0 MSTORE PUSH1 0x13 PUSH1 0x20 MSTORE PUSH1 0xFF PUSH1 0x1 PUSH1 0x40 PUSH1 0x0 KECCAK256 ADD SLOAD AND PUSH1 0x3 DUP2 LT ISZERO PUSH2 0x8C2 JUMPI PUSH1 0x2 EQ PUSH2 0xA87 JUMPI PUSH1 0x0 MSTORE PUSH1 0x13 PUSH1 0x20 MSTORE PUSH1 0x1 PUSH1 0x40 PUSH1 0x0 KECCAK256 ADD PUSH1 0xFF NOT DUP2 SLOAD AND SWAP1 SSTORE PUSH1 0x40 MLOAD PUSH1 0x0 DUP2 MSTORE PUSH32 0x76C0BAD3B7F1C74587DCB478154D4C87AE6663DB97CC086B981DECF4E35A797C PUSH1 0x20 CALLER SWAP3 LOG2 STOP JUMPDEST CALLVALUE PUSH2 0x36C JUMPI PUSH1 0xE0 CALLDATASIZE PUSH1 0x3 NOT ADD SLT PUSH2 0x36C JUMPI PUSH2 0x2B45 PUSH2 0x4C2E JUMP JUMPDEST PUSH2 0x1A0 MSTORE PUSH1 0x24 CALLDATALOAD PUSH1 0x1 PUSH1 0x1 PUSH1 0x40 SHL SUB DUP2 GT PUSH2 0x36C JUMPI PUSH2 0x2B68 SWAP1 CALLDATASIZE SWAP1 PUSH1 0x4 ADD PUSH2 0x4DC3 JUMP JUMPDEST PUSH2 0x200 MSTORE PUSH1 0x44 CALLDATALOAD PUSH1 0x1 PUSH1 0x1 PUSH1 0x40 SHL SUB DUP2 GT PUSH2 0x36C JUMPI PUSH2 0x2B8B SWAP1 CALLDATASIZE SWAP1 PUSH1 0x4 ADD PUSH2 0x4DC3 JUMP JUMPDEST PUSH1 0xE0 MSTORE PUSH2 0x100 MSTORE PUSH1 0x64 CALLDATALOAD PUSH1 0x1 PUSH1 0x1 PUSH1 0x40 SHL SUB DUP2 GT PUSH2 0x36C JUMPI PUSH2 0x2BB1 SWAP1 CALLDATASIZE SWAP1 PUSH1 0x4 ADD PUSH2 0x4DC3 JUMP JUMPDEST PUSH1 0xC0 MSTORE PUSH2 0x160 MSTORE PUSH1 0x84 CALLDATALOAD PUSH1 0x1 PUSH1 0x1 PUSH1 0x40 SHL SUB DUP2 GT PUSH2 0x36C JUMPI PUSH2 0x2BD7 SWAP1 CALLDATASIZE SWAP1 PUSH1 0x4 ADD PUSH2 0x4DC3 JUMP JUMPDEST PUSH2 0x140 MSTORE PUSH1 0x80 MSTORE PUSH1 0xA4 CALLDATALOAD PUSH1 0x1 PUSH1 0x1 PUSH1 0x40 SHL SUB DUP2 GT PUSH2 0x36C JUMPI PUSH2 0x2BFD SWAP1 CALLDATASIZE SWAP1 PUSH1 0x4 ADD PUSH2 0x4DC3 JUMP JUMPDEST PUSH1 0x1 PUSH1 0x1 PUSH1 0x40 SHL SUB PUSH1 0xC4 SWAP4 SWAP3 SWAP4 CALLDATALOAD GT PUSH2 0x36C JUMPI PUSH2 0x2C1F CALLDATASIZE PUSH1 0xC4 CALLDATALOAD PUSH1 0x4 ADD PUSH2 0x4DC3 JUMP JUMPDEST PUSH2 0x1C0 MSTORE PUSH2 0x1E0 MSTORE PUSH2 0x2C2F PUSH2 0x4E46 JUMP JUMPDEST PUSH2 0x2C37 PUSH2 0x55FA JUMP JUMPDEST PUSH1 0xE0 MLOAD PUSH2 0x200 MLOAD SWAP1 DUP2 EQ SWAP1 DUP2 ISZERO SWAP2 PUSH2 0x36D2 JUMPI JUMPDEST DUP2 ISZERO PUSH2 0x36C4 JUMPI JUMPDEST DUP2 ISZERO PUSH2 0x36B9 JUMPI JUMPDEST DUP2 ISZERO PUSH2 0x36AB JUMPI JUMPDEST POP PUSH2 0x3699 JUMPI PUSH1 0x64 PUSH2 0x2C75 PUSH2 0x200 MLOAD PUSH1 0xC SLOAD PUSH2 0x5618 JUMP JUMPDEST GT PUSH2 0x1707 JUMPI PUSH2 0x2C95 PUSH2 0x2C89 PUSH2 0x200 MLOAD PUSH2 0x5625 JUMP JUMPDEST PUSH1 0x40 MLOAD DUP1 PUSH1 0xA0 MSTORE PUSH2 0x4B1F JUMP JUMPDEST PUSH2 0x200 MLOAD PUSH1 0xA0 MLOAD MSTORE PUSH1 0x1F NOT PUSH2 0x2CAC PUSH2 0x200 MLOAD PUSH2 0x5625 JUMP JUMPDEST ADD CALLDATASIZE PUSH1 0x20 PUSH1 0xA0 MLOAD ADD CALLDATACOPY PUSH1 0x0 PUSH2 0x120 MSTORE JUMPDEST PUSH2 0x200 MLOAD PUSH2 0x120 MLOAD LT ISZERO PUSH2 0x3689 JUMPI PUSH2 0x2CDA PUSH1 0xA SLOAD DUP1 PUSH2 0x180 MSTORE PUSH2 0x524C JUMP JUMPDEST PUSH1 0xA SSTORE PUSH2 0x2CED PUSH2 0x180 MLOAD PUSH2 0x1A0 MLOAD PUSH2 0x5352 JUMP JUMPDEST PUSH2 0x180 MLOAD PUSH1 0x0 MSTORE PUSH1 0x13 PUSH1 0x20 MSTORE PUSH1 0x40 PUSH1 0x0 KECCAK256 SWAP1 PUSH1 0x1 DUP3 ADD PUSH1 0xFF NOT DUP2 SLOAD AND SWAP1 SSTORE PUSH2 0x2D1E PUSH2 0x120 MLOAD PUSH1 0xE0 MLOAD PUSH2 0x100 MLOAD PUSH2 0x563C JUMP JUMPDEST CALLDATALOAD PUSH1 0x9 DUP4 ADD SSTORE PUSH2 0x2D35 PUSH2 0x120 MLOAD PUSH2 0x200 MLOAD DUP6 PUSH2 0x564C JUMP JUMPDEST PUSH1 0x1 PUSH1 0x1 PUSH1 0x40 SHL SUB DUP2 GT PUSH2 0x1389 JUMPI PUSH2 0x2D5D DUP2 PUSH2 0x2D54 PUSH1 0xA DUP8 ADD SLOAD PUSH2 0x4A79 JUMP JUMPDEST PUSH1 0xA DUP8 ADD PUSH2 0x5271 JUMP JUMPDEST PUSH1 0x0 SWAP2 PUSH1 0x1F DUP3 GT PUSH1 0x1 EQ PUSH2 0x361B JUMPI SWAP2 DUP2 SWAP3 PUSH1 0x0 SWAP3 PUSH2 0x3610 JUMPI JUMPDEST POP POP DUP2 PUSH1 0x1 SHL SWAP2 PUSH1 0x0 NOT SWAP1 PUSH1 0x3 SHL SHR NOT AND OR PUSH1 0xA DUP4 ADD SSTORE JUMPDEST PUSH2 0x1A0 MLOAD PUSH1 0xB DUP4 ADD DUP1 SLOAD PUSH1 0x1 PUSH1 0x1 PUSH1 0xA8 SHL SUB NOT AND PUSH1 0x1 PUSH1 0x1 PUSH1 0xA0 SHL SUB SWAP3 SWAP1 SWAP3 AND SWAP2 SWAP1 SWAP2 OR SWAP1 SSTORE PUSH1 0x12 DUP3 ADD DUP1 SLOAD PUSH1 0xFF NOT AND PUSH1 0x1 OR SWAP1 SSTORE PUSH2 0x1C0 MLOAD PUSH2 0x120 MLOAD SWAP1 DUP2 LT ISZERO PUSH2 0x32A2 JUMPI PUSH2 0x1E0 MLOAD SWAP1 PUSH1 0x5 SHL DUP2 ADD CALLDATALOAD PUSH1 0xBE NOT DUP3 CALLDATASIZE SUB ADD DUP2 SLT ISZERO PUSH2 0x36C JUMPI PUSH2 0x2DF7 SWAP2 ADD DUP1 PUSH2 0x52C5 JUMP JUMPDEST PUSH1 0x1 PUSH1 0x1 PUSH1 0x40 SHL SUB DUP2 GT PUSH2 0x1389 JUMPI PUSH2 0x2E1F DUP2 PUSH2 0x2E16 PUSH1 0x3 DUP8 ADD SLOAD PUSH2 0x4A79 JUMP JUMPDEST PUSH1 0x3 DUP8 ADD PUSH2 0x5271 JUMP JUMPDEST PUSH1 0x0 SWAP2 PUSH1 0x1F DUP3 GT PUSH1 0x1 EQ PUSH2 0x35A2 JUMPI SWAP2 DUP2 SWAP3 PUSH1 0x0 SWAP3 PUSH2 0x3597 JUMPI JUMPDEST POP POP DUP2 PUSH1 0x1 SHL SWAP2 PUSH1 0x0 NOT SWAP1 PUSH1 0x3 SHL SHR NOT AND OR PUSH1 0x3 DUP4 ADD SSTORE JUMPDEST PUSH2 0x2E6D PUSH2 0x120 MLOAD PUSH1 0x5 SHL PUSH2 0x1E0 MLOAD SWAP1 DUP2 ADD CALLDATALOAD ADD PUSH1 0x20 DUP2 ADD SWAP1 PUSH2 0x52C5 JUMP JUMPDEST PUSH1 0x1 PUSH1 0x1 PUSH1 0x40 SHL SUB DUP2 GT PUSH2 0x1389 JUMPI PUSH2 0x2E95 DUP2 PUSH2 0x2E8C PUSH1 0x4 DUP8 ADD SLOAD PUSH2 0x4A79 JUMP JUMPDEST PUSH1 0x4 DUP8 ADD PUSH2 0x5271 JUMP JUMPDEST PUSH1 0x0 SWAP2 PUSH1 0x1F DUP3 GT PUSH1 0x1 EQ PUSH2 0x3529 JUMPI SWAP2 DUP2 SWAP3 PUSH1 0x0 SWAP3 PUSH2 0x351E JUMPI JUMPDEST POP POP DUP2 PUSH1 0x1 SHL SWAP2 PUSH1 0x0 NOT SWAP1 PUSH1 0x3 SHL SHR NOT AND OR PUSH1 0x4 DUP4 ADD SSTORE JUMPDEST PUSH2 0x2EE3 PUSH2 0x120 MLOAD PUSH1 0x5 SHL PUSH2 0x1E0 MLOAD SWAP1 DUP2 ADD CALLDATALOAD ADD PUSH1 0x40 DUP2 ADD SWAP1 PUSH2 0x52C5 JUMP JUMPDEST PUSH1 0x1 PUSH1 0x1 PUSH1 0x40 SHL SUB DUP2 GT PUSH2 0x1389 JUMPI PUSH2 0x2F0B DUP2 PUSH2 0x2F02 PUSH1 0x5 DUP8 ADD SLOAD PUSH2 0x4A79 JUMP JUMPDEST PUSH1 0x5 DUP8 ADD PUSH2 0x5271 JUMP JUMPDEST PUSH1 0x0 SWAP2 PUSH1 0x1F DUP3 GT PUSH1 0x1 EQ PUSH2 0x34B0 JUMPI SWAP2 DUP2 SWAP3 PUSH1 0x0 SWAP3 PUSH2 0x34A5 JUMPI JUMPDEST POP POP DUP2 PUSH1 0x1 SHL SWAP2 PUSH1 0x0 NOT SWAP1 PUSH1 0x3 SHL SHR NOT AND OR PUSH1 0x5 DUP4 ADD SSTORE JUMPDEST PUSH2 0x2F59 PUSH2 0x120 MLOAD PUSH1 0x5 SHL PUSH2 0x1E0 MLOAD SWAP1 DUP2 ADD CALLDATALOAD ADD PUSH1 0x60 DUP2 ADD SWAP1 PUSH2 0x52C5 JUMP JUMPDEST PUSH1 0x1 PUSH1 0x1 PUSH1 0x40 SHL SUB DUP2 GT PUSH2 0x1389 JUMPI PUSH2 0x2F81 DUP2 PUSH2 0x2F78 PUSH1 0x6 DUP8 ADD SLOAD PUSH2 0x4A79 JUMP JUMPDEST PUSH1 0x6 DUP8 ADD PUSH2 0x5271 JUMP JUMPDEST PUSH1 0x0 SWAP2 PUSH1 0x1F DUP3 GT PUSH1 0x1 EQ PUSH2 0x3437 JUMPI SWAP2 DUP2 SWAP3 PUSH1 0x0 SWAP3 PUSH2 0x342C JUMPI JUMPDEST POP POP DUP2 PUSH1 0x1 SHL SWAP2 PUSH1 0x0 NOT SWAP1 PUSH1 0x3 SHL SHR NOT AND OR PUSH1 0x6 DUP4 ADD SSTORE JUMPDEST PUSH2 0x2FCF PUSH2 0x120 MLOAD PUSH1 0x5 SHL PUSH2 0x1E0 MLOAD SWAP1 DUP2 ADD CALLDATALOAD ADD PUSH1 0x80 DUP2 ADD SWAP1 PUSH2 0x52C5 JUMP JUMPDEST PUSH1 0x1 PUSH1 0x1 PUSH1 0x40 SHL SUB DUP2 SWAP5 SWAP3 SWAP5 GT PUSH2 0x1389 JUMPI PUSH2 0x2FFA DUP2 PUSH2 0x2FF1 PUSH1 0x7 DUP6 ADD SLOAD PUSH2 0x4A79 JUMP JUMPDEST PUSH1 0x7 DUP6 ADD PUSH2 0x5271 JUMP JUMPDEST PUSH1 0x0 SWAP4 PUSH1 0x1F DUP3 GT PUSH1 0x1 EQ PUSH2 0x33BC JUMPI SWAP4 DUP2 SWAP3 SWAP4 SWAP5 PUSH1 0x0 SWAP3 PUSH2 0x33B1 JUMPI JUMPDEST POP POP DUP2 PUSH1 0x1 SHL SWAP2 PUSH1 0x0 NOT SWAP1 PUSH1 0x3 SHL SHR NOT AND OR PUSH1 0x7 DUP3 ADD SSTORE JUMPDEST PUSH2 0x309D PUSH2 0x3058 PUSH2 0x120 MLOAD PUSH1 0xA0 PUSH2 0x1E0 MLOAD DUP3 PUSH1 0x5 SHL DUP2 ADD CALLDATALOAD ADD ADD CALLDATALOAD PUSH1 0x8 DUP6 ADD SSTORE PUSH1 0xC0 MLOAD PUSH2 0x160 MLOAD PUSH2 0x564C JUMP JUMPDEST SWAP2 SWAP1 PUSH2 0x308F PUSH2 0x3070 PUSH2 0x120 MLOAD PUSH2 0x140 MLOAD PUSH1 0x80 MLOAD PUSH2 0x563C JUMP JUMPDEST CALLDATALOAD PUSH2 0x307F PUSH2 0x120 MLOAD DUP9 DUP12 PUSH2 0x564C JUMP JUMPDEST SWAP3 SWAP1 SWAP4 PUSH1 0x40 MLOAD SWAP7 PUSH2 0x126C DUP9 PUSH2 0x4AB3 JUMP JUMPDEST DUP6 MSTORE PUSH1 0x20 DUP6 ADD MSTORE CALLDATASIZE SWAP2 PUSH2 0x4C9A JUMP JUMPDEST PUSH1 0x40 DUP3 ADD MSTORE DUP1 MLOAD DUP1 MLOAD SWAP1 PUSH1 0x1 PUSH1 0x1 PUSH1 0x40 SHL SUB DUP3 GT PUSH2 0x1389 JUMPI PUSH2 0x30CF DUP3 PUSH2 0x30C6 PUSH1 0xF DUP8 ADD SLOAD PUSH2 0x4A79 JUMP JUMPDEST PUSH1 0xF DUP8 ADD PUSH2 0x5271 JUMP JUMPDEST PUSH1 0x20 SWAP1 PUSH1 0x1F DUP4 GT PUSH1 0x1 EQ PUSH2 0x333E JUMPI PUSH1 0x40 SWAP4 SWAP3 SWAP2 PUSH1 0x0 SWAP2 DUP4 PUSH2 0x3333 JUMPI JUMPDEST POP POP DUP2 PUSH1 0x1 SHL SWAP2 PUSH1 0x0 NOT SWAP1 PUSH1 0x3 SHL SHR NOT AND OR PUSH1 0xF DUP5 ADD SSTORE JUMPDEST PUSH1 0x20 DUP2 ADD MLOAD PUSH1 0x10 DUP5 ADD SSTORE ADD MLOAD DUP1 MLOAD SWAP1 PUSH1 0x1 PUSH1 0x1 PUSH1 0x40 SHL SUB DUP3 GT PUSH2 0x1389 JUMPI PUSH2 0x3131 DUP3 PUSH2 0x1201 PUSH1 0x11 DUP7 ADD SLOAD PUSH2 0x4A79 JUMP JUMPDEST PUSH1 0x20 SWAP1 PUSH1 0x1F DUP4 GT PUSH1 0x1 EQ PUSH2 0x32C3 JUMPI PUSH1 0x11 SWAP3 SWAP2 PUSH1 0x0 SWAP2 DUP4 PUSH2 0x32B8 JUMPI JUMPDEST POP POP DUP2 PUSH1 0x1 SHL SWAP2 PUSH1 0x0 NOT SWAP1 PUSH1 0x3 SHL SHR NOT AND OR SWAP2 ADD SSTORE JUMPDEST PUSH2 0x3175 PUSH2 0x120 MLOAD PUSH2 0x140 MLOAD PUSH1 0x80 MLOAD PUSH2 0x563C JUMP JUMPDEST CALLDATALOAD PUSH1 0x0 MSTORE PUSH1 0x15 PUSH1 0x20 MSTORE PUSH2 0x318F PUSH2 0x180 MLOAD PUSH1 0x40 PUSH1 0x0 KECCAK256 PUSH2 0x52F7 JUMP JUMPDEST PUSH2 0x31AF PUSH2 0x31A6 PUSH2 0x126C PUSH2 0x120 MLOAD PUSH2 0x200 MLOAD DUP7 PUSH2 0x564C JUMP JUMPDEST PUSH2 0x180 MLOAD PUSH2 0x54C8 JUMP JUMPDEST PUSH2 0x31BA PUSH1 0xC SLOAD PUSH2 0x524C JUMP JUMPDEST PUSH1 0xC SSTORE PUSH1 0xA0 MLOAD DUP1 MLOAD SWAP1 PUSH2 0x120 MLOAD SWAP2 DUP3 LT ISZERO PUSH2 0x32A2 JUMPI PUSH1 0x20 SWAP1 PUSH2 0x180 MLOAD SWAP3 PUSH1 0x5 SHL ADD ADD MSTORE PUSH2 0x31F0 PUSH2 0x120 MLOAD PUSH1 0xE0 MLOAD PUSH2 0x100 MLOAD PUSH2 0x563C JUMP JUMPDEST CALLDATALOAD PUSH1 0x40 MLOAD SWAP1 DUP2 MSTORE PUSH1 0x1 PUSH1 0x20 DUP3 ADD MSTORE PUSH1 0x1 DUP1 PUSH1 0xA0 SHL SUB PUSH2 0x1A0 MLOAD AND SWAP1 PUSH32 0x95ABEB4465B4AD62FEB35F85EB0A053AC518E5B0F02A7C23B1EF9B3FA167B069 PUSH1 0x40 PUSH2 0x180 MLOAD SWAP3 LOG3 PUSH1 0x0 DUP1 MLOAD PUSH1 0x20 PUSH2 0x588B DUP4 CODECOPY DUP2 MLOAD SWAP2 MSTORE PUSH2 0x3256 PUSH2 0x120 MLOAD PUSH1 0xC0 MLOAD PUSH2 0x160 MLOAD PUSH2 0x564C JUMP JUMPDEST PUSH2 0x3283 PUSH2 0x326F PUSH2 0x120 SWAP5 SWAP4 SWAP5 MLOAD PUSH2 0x140 MLOAD PUSH1 0x80 MLOAD PUSH2 0x563C JUMP JUMPDEST CALLDATALOAD SWAP4 PUSH1 0x40 MLOAD SWAP3 PUSH1 0x40 DUP5 MSTORE PUSH1 0x40 DUP5 ADD SWAP2 PUSH2 0x5331 JUMP JUMPDEST SWAP3 PUSH1 0x20 DUP3 ADD MSTORE DUP1 PUSH2 0x180 MLOAD SWAP4 SUB SWAP1 LOG2 PUSH1 0x1 PUSH2 0x120 MLOAD ADD PUSH2 0x120 MSTORE PUSH2 0x2CBC JUMP JUMPDEST PUSH4 0x4E487B71 PUSH1 0xE0 SHL PUSH1 0x0 MSTORE PUSH1 0x32 PUSH1 0x4 MSTORE PUSH1 0x24 PUSH1 0x0 REVERT JUMPDEST ADD MLOAD SWAP1 POP DUP8 DUP1 PUSH2 0x314C JUMP JUMPDEST SWAP1 PUSH1 0x11 DUP5 ADD PUSH1 0x0 MSTORE PUSH1 0x20 PUSH1 0x0 KECCAK256 SWAP2 PUSH1 0x0 JUMPDEST PUSH1 0x1F NOT DUP6 AND DUP2 LT PUSH2 0x331B JUMPI POP SWAP2 DUP4 SWAP2 PUSH1 0x1 SWAP4 PUSH1 0x11 SWAP6 PUSH1 0x1F NOT DUP2 AND LT PUSH2 0x3302 JUMPI JUMPDEST POP POP POP DUP2 SHL ADD SWAP2 ADD SSTORE PUSH2 0x3162 JUMP JUMPDEST ADD MLOAD PUSH1 0x0 NOT PUSH1 0xF8 DUP5 PUSH1 0x3 SHL AND SHR NOT AND SWAP1 SSTORE DUP8 DUP1 DUP1 PUSH2 0x32F4 JUMP JUMPDEST SWAP2 SWAP3 PUSH1 0x20 PUSH1 0x1 DUP2 SWAP3 DUP7 DUP6 ADD MLOAD DUP2 SSTORE ADD SWAP5 ADD SWAP3 ADD PUSH2 0x32D4 JUMP JUMPDEST ADD MLOAD SWAP1 POP DUP9 DUP1 PUSH2 0x30EB JUMP JUMPDEST SWAP1 PUSH1 0xF DUP6 ADD PUSH1 0x0 MSTORE PUSH1 0x20 PUSH1 0x0 KECCAK256 SWAP2 PUSH1 0x0 JUMPDEST PUSH1 0x1F NOT DUP6 AND DUP2 LT PUSH2 0x3399 JUMPI POP SWAP2 DUP4 SWAP2 PUSH1 0x1 SWAP4 PUSH1 0x40 SWAP7 SWAP6 PUSH1 0x1F NOT DUP2 AND LT PUSH2 0x3380 JUMPI JUMPDEST POP POP POP DUP2 SHL ADD PUSH1 0xF DUP5 ADD SSTORE PUSH2 0x3103 JUMP JUMPDEST ADD MLOAD PUSH1 0x0 NOT PUSH1 0xF8 DUP5 PUSH1 0x3 SHL AND SHR NOT AND SWAP1 SSTORE DUP9 DUP1 DUP1 PUSH2 0x3370 JUMP JUMPDEST SWAP2 SWAP3 PUSH1 0x20 PUSH1 0x1 DUP2 SWAP3 DUP7 DUP6 ADD MLOAD DUP2 SSTORE ADD SWAP5 ADD SWAP3 ADD PUSH2 0x334F JUMP JUMPDEST ADD CALLDATALOAD SWAP1 POP DUP7 DUP1 PUSH2 0x3015 JUMP JUMPDEST PUSH1 0x7 DUP4 ADD PUSH1 0x0 MSTORE PUSH1 0x20 PUSH1 0x0 KECCAK256 SWAP1 PUSH1 0x0 SWAP6 JUMPDEST PUSH1 0x1F NOT DUP5 AND DUP8 LT PUSH2 0x3414 JUMPI PUSH1 0x1 SWAP5 SWAP6 SWAP7 POP DUP4 PUSH1 0x1F NOT DUP2 AND LT PUSH2 0x33FA JUMPI JUMPDEST POP POP POP DUP2 SHL ADD PUSH1 0x7 DUP3 ADD SSTORE PUSH2 0x302D JUMP JUMPDEST ADD CALLDATALOAD PUSH1 0x0 NOT PUSH1 0x3 DUP5 SWAP1 SHL PUSH1 0xF8 AND SHR NOT AND SWAP1 SSTORE DUP7 DUP1 DUP1 PUSH2 0x33EA JUMP JUMPDEST DUP2 DUP2 ADD CALLDATALOAD DUP4 SSTORE PUSH1 0x20 SWAP7 DUP8 ADD SWAP7 PUSH1 0x1 SWAP1 SWAP4 ADD SWAP3 ADD PUSH2 0x33CD JUMP JUMPDEST ADD CALLDATALOAD SWAP1 POP DUP7 DUP1 PUSH2 0x2F9A JUMP JUMPDEST PUSH1 0x6 DUP6 ADD PUSH1 0x0 MSTORE PUSH1 0x20 PUSH1 0x0 KECCAK256 SWAP1 PUSH1 0x0 SWAP4 JUMPDEST PUSH1 0x1F NOT DUP5 AND DUP6 LT PUSH2 0x348D JUMPI PUSH1 0x1 SWAP5 POP DUP4 PUSH1 0x1F NOT DUP2 AND LT PUSH2 0x3473 JUMPI JUMPDEST POP POP POP DUP2 SHL ADD PUSH1 0x6 DUP4 ADD SSTORE PUSH2 0x2FB2 JUMP JUMPDEST ADD CALLDATALOAD PUSH1 0x0 NOT PUSH1 0x3 DUP5 SWAP1 SHL PUSH1 0xF8 AND SHR NOT AND SWAP1 SSTORE DUP7 DUP1 DUP1 PUSH2 0x3463 JUMP JUMPDEST DUP2 DUP2 ADD CALLDATALOAD DUP4 SSTORE PUSH1 0x20 SWAP5 DUP6 ADD SWAP5 PUSH1 0x1 SWAP1 SWAP4 ADD SWAP3 ADD PUSH2 0x3448 JUMP JUMPDEST ADD CALLDATALOAD SWAP1 POP DUP7 DUP1 PUSH2 0x2F24 JUMP JUMPDEST PUSH1 0x5 DUP6 ADD PUSH1 0x0 MSTORE PUSH1 0x20 PUSH1 0x0 KECCAK256 SWAP1 PUSH1 0x0 SWAP4 JUMPDEST PUSH1 0x1F NOT DUP5 AND DUP6 LT PUSH2 0x3506 JUMPI PUSH1 0x1 SWAP5 POP DUP4 PUSH1 0x1F NOT DUP2 AND LT PUSH2 0x34EC JUMPI JUMPDEST POP POP POP DUP2 SHL ADD PUSH1 0x5 DUP4 ADD SSTORE PUSH2 0x2F3C JUMP JUMPDEST ADD CALLDATALOAD PUSH1 0x0 NOT PUSH1 0x3 DUP5 SWAP1 SHL PUSH1 0xF8 AND SHR NOT AND SWAP1 SSTORE DUP7 DUP1 DUP1 PUSH2 0x34DC JUMP JUMPDEST DUP2 DUP2 ADD CALLDATALOAD DUP4 SSTORE PUSH1 0x20 SWAP5 DUP6 ADD SWAP5 PUSH1 0x1 SWAP1 SWAP4 ADD SWAP3 ADD PUSH2 0x34C1 JUMP JUMPDEST ADD CALLDATALOAD SWAP1 POP DUP7 DUP1 PUSH2 0x2EAE JUMP JUMPDEST PUSH1 0x4 DUP6 ADD PUSH1 0x0 MSTORE PUSH1 0x20 PUSH1 0x0 KECCAK256 SWAP1 PUSH1 0x0 SWAP4 JUMPDEST PUSH1 0x1F NOT DUP5 AND DUP6 LT PUSH2 0x357F JUMPI PUSH1 0x1 SWAP5 POP DUP4 PUSH1 0x1F NOT DUP2 AND LT PUSH2 0x3565 JUMPI JUMPDEST POP POP POP DUP2 SHL ADD PUSH1 0x4 DUP4 ADD SSTORE PUSH2 0x2EC6 JUMP JUMPDEST ADD CALLDATALOAD PUSH1 0x0 NOT PUSH1 0x3 DUP5 SWAP1 SHL PUSH1 0xF8 AND SHR NOT AND SWAP1 SSTORE DUP7 DUP1 DUP1 PUSH2 0x3555 JUMP JUMPDEST DUP2 DUP2 ADD CALLDATALOAD DUP4 SSTORE PUSH1 0x20 SWAP5 DUP6 ADD SWAP5 PUSH1 0x1 SWAP1 SWAP4 ADD SWAP3 ADD PUSH2 0x353A JUMP JUMPDEST ADD CALLDATALOAD SWAP1 POP DUP7 DUP1 PUSH2 0x2E38 JUMP JUMPDEST PUSH1 0x3 DUP6 ADD PUSH1 0x0 MSTORE PUSH1 0x20 PUSH1 0x0 KECCAK256 SWAP1 PUSH1 0x0 SWAP4 JUMPDEST PUSH1 0x1F NOT DUP5 AND DUP6 LT PUSH2 0x35F8 JUMPI PUSH1 0x1 SWAP5 POP DUP4 PUSH1 0x1F NOT DUP2 AND LT PUSH2 0x35DE JUMPI JUMPDEST POP POP POP DUP2 SHL ADD PUSH1 0x3 DUP4 ADD SSTORE PUSH2 0x2E50 JUMP JUMPDEST ADD CALLDATALOAD PUSH1 0x0 NOT PUSH1 0x3 DUP5 SWAP1 SHL PUSH1 0xF8 AND SHR NOT AND SWAP1 SSTORE DUP7 DUP1 DUP1 PUSH2 0x35CE JUMP JUMPDEST DUP2 DUP2 ADD CALLDATALOAD DUP4 SSTORE PUSH1 0x20 SWAP5 DUP6 ADD SWAP5 PUSH1 0x1 SWAP1 SWAP4 ADD SWAP3 ADD PUSH2 0x35B3 JUMP JUMPDEST ADD CALLDATALOAD SWAP1 POP DUP7 DUP1 PUSH2 0x2D76 JUMP JUMPDEST PUSH1 0xA DUP6 ADD PUSH1 0x0 MSTORE PUSH1 0x20 PUSH1 0x0 KECCAK256 SWAP1 PUSH1 0x0 SWAP4 JUMPDEST PUSH1 0x1F NOT DUP5 AND DUP6 LT PUSH2 0x3671 JUMPI PUSH1 0x1 SWAP5 POP DUP4 PUSH1 0x1F NOT DUP2 AND LT PUSH2 0x3657 JUMPI JUMPDEST POP POP POP DUP2 SHL ADD PUSH1 0xA DUP4 ADD SSTORE PUSH2 0x2D8E JUMP JUMPDEST ADD CALLDATALOAD PUSH1 0x0 NOT PUSH1 0x3 DUP5 SWAP1 SHL PUSH1 0xF8 AND SHR NOT AND SWAP1 SSTORE DUP7 DUP1 DUP1 PUSH2 0x3647 JUMP JUMPDEST DUP2 DUP2 ADD CALLDATALOAD DUP4 SSTORE PUSH1 0x20 SWAP5 DUP6 ADD SWAP5 PUSH1 0x1 SWAP1 SWAP4 ADD SWAP3 ADD PUSH2 0x362C JUMP JUMPDEST PUSH1 0x40 MLOAD DUP1 PUSH2 0x762 PUSH1 0xA0 MLOAD DUP3 PUSH2 0x4DF3 JUMP JUMPDEST PUSH1 0x40 MLOAD PUSH4 0x512509D3 PUSH1 0xE1 SHL DUP2 MSTORE PUSH1 0x4 SWAP1 REVERT JUMPDEST SWAP1 POP PUSH2 0x1C0 MLOAD EQ ISZERO DUP5 PUSH2 0x2C5F JUMP JUMPDEST DUP3 DUP2 EQ ISZERO SWAP2 POP PUSH2 0x2C58 JUMP JUMPDEST PUSH2 0x140 MLOAD DUP2 EQ ISZERO SWAP2 POP PUSH2 0x2C51 JUMP JUMPDEST PUSH1 0xC0 MLOAD DUP2 EQ ISZERO SWAP2 POP PUSH2 0x2C4A JUMP JUMPDEST CALLVALUE PUSH2 0x36C JUMPI PUSH1 0x80 CALLDATASIZE PUSH1 0x3 NOT ADD SLT PUSH2 0x36C JUMPI PUSH1 0x4 CALLDATALOAD PUSH1 0x44 CALLDATALOAD DUP1 ISZERO ISZERO PUSH1 0x24 CALLDATALOAD DUP2 DUP4 SUB PUSH2 0x36C JUMPI PUSH1 0x64 CALLDATALOAD PUSH1 0x1 PUSH1 0x1 PUSH1 0x40 SHL SUB DUP2 GT PUSH2 0x36C JUMPI PUSH2 0x3722 SWAP1 CALLDATASIZE SWAP1 PUSH1 0x4 ADD PUSH2 0x4D63 JUMP JUMPDEST PUSH1 0xE SLOAD SWAP1 SWAP5 SWAP2 SWAP1 PUSH1 0x1 PUSH1 0x1 PUSH1 0xA0 SHL SUB AND CALLER SUB PUSH2 0x388E JUMPI PUSH32 0xEE6088724BCECC2617103F0482E6237C070827162AB05C426EA5B173785DEC98 SWAP5 PUSH2 0x383C SWAP3 PUSH2 0x3766 PUSH2 0x55FA JUMP JUMPDEST PUSH2 0x376F DUP9 PUSH2 0x50BE JUMP JUMPDEST POP PUSH2 0x3779 DUP6 PUSH2 0x50BE JUMP JUMPDEST POP DUP8 PUSH1 0x0 MSTORE PUSH1 0x13 PUSH1 0x20 MSTORE PUSH1 0x40 PUSH1 0x0 KECCAK256 PUSH1 0xC DUP2 ADD PUSH1 0xD DUP3 ADD DUP1 SLOAD SWAP2 PUSH1 0x1 PUSH1 0x1 PUSH1 0x80 SHL SUB SWAP5 DUP6 PUSH2 0x37A8 DUP2 DUP7 AND PUSH2 0x56BE JUMP JUMPDEST AND PUSH1 0x1 PUSH1 0x1 PUSH1 0x80 SHL SUB NOT SWAP5 DUP6 AND OR DUP4 SSTORE ISZERO PUSH2 0x384E JUMPI SWAP1 DUP2 PUSH1 0xE SWAP3 SLOAD DUP5 DUP8 PUSH2 0x37D0 DUP2 DUP5 AND PUSH2 0x56BE JUMP JUMPDEST AND SWAP2 AND OR SWAP1 SSTORE PUSH2 0x3806 PUSH2 0x37E6 DUP3 SLOAD PUSH1 0x80 SHR PUSH2 0x56BE JUMP JUMPDEST DUP3 SLOAD PUSH1 0x1 PUSH1 0x1 PUSH1 0x80 SHL SUB AND PUSH1 0x80 SWAP2 SWAP1 SWAP2 SHL PUSH1 0x1 PUSH1 0x1 PUSH1 0x80 SHL SUB NOT AND OR DUP3 SSTORE JUMP JUMPDEST SLOAD PUSH1 0x80 SHR SWAP3 ADD SWAP3 DUP4 SLOAD SWAP1 DUP2 AND DUP4 GT PUSH2 0x3841 JUMPI JUMPDEST POP POP POP POP JUMPDEST PUSH1 0x40 MLOAD SWAP5 DUP6 SWAP5 DUP6 MSTORE PUSH1 0x20 DUP6 ADD MSTORE PUSH1 0x60 PUSH1 0x40 DUP6 ADD MSTORE PUSH1 0x60 DUP5 ADD SWAP2 PUSH2 0x5331 JUMP JUMPDEST SUB SWAP1 LOG2 STOP JUMPDEST AND OR SWAP1 SSTORE DUP8 DUP1 DUP1 DUP1 PUSH2 0x3819 JUMP JUMPDEST SWAP1 SWAP4 SWAP3 POP PUSH2 0x3884 SWAP2 POP PUSH2 0x3864 DUP2 SLOAD PUSH1 0x80 SHR PUSH2 0x56BE JUMP JUMPDEST DUP2 SLOAD PUSH1 0x1 PUSH1 0x1 PUSH1 0x80 SHL SUB AND PUSH1 0x80 SWAP2 SWAP1 SWAP2 SHL PUSH1 0x1 PUSH1 0x1 PUSH1 0x80 SHL SUB NOT AND OR SWAP1 SSTORE JUMP JUMPDEST DUP2 SLOAD AND SWAP1 SSTORE PUSH2 0x381E JUMP JUMPDEST PUSH1 0x40 MLOAD PUSH4 0x1D9D6EA9 PUSH1 0xE3 SHL DUP2 MSTORE PUSH1 0x4 SWAP1 REVERT JUMPDEST CALLVALUE PUSH2 0x36C JUMPI PUSH1 0x20 CALLDATASIZE PUSH1 0x3 NOT ADD SLT PUSH2 0x36C JUMPI PUSH1 0x20 PUSH2 0x38BE PUSH1 0x4 CALLDATALOAD PUSH2 0x50BE JUMP JUMPDEST PUSH1 0x40 MLOAD PUSH1 0x1 PUSH1 0x1 PUSH1 0xA0 SHL SUB SWAP1 SWAP2 AND DUP2 MSTORE RETURN JUMPDEST CALLVALUE PUSH2 0x36C JUMPI PUSH1 0x0 CALLDATASIZE PUSH1 0x3 NOT ADD SLT PUSH2 0x36C JUMPI PUSH1 0xD SLOAD PUSH1 0x40 MLOAD PUSH1 0x1 PUSH1 0x1 PUSH1 0xA0 SHL SUB SWAP1 SWAP2 AND DUP2 MSTORE PUSH1 0x20 SWAP1 RETURN JUMPDEST CALLVALUE PUSH2 0x36C JUMPI PUSH1 0x0 CALLDATASIZE PUSH1 0x3 NOT ADD SLT PUSH2 0x36C JUMPI PUSH1 0x20 PUSH1 0xFF PUSH1 0x9 SLOAD AND PUSH1 0x40 MLOAD SWAP1 ISZERO ISZERO DUP2 MSTORE RETURN JUMPDEST CALLVALUE PUSH2 0x36C JUMPI PUSH1 0x20 DUP1 PUSH1 0x3 NOT CALLDATASIZE ADD SLT PUSH2 0x36C JUMPI PUSH1 0xC0 SWAP1 PUSH1 0x4 CALLDATALOAD PUSH1 0x40 MLOAD SWAP1 PUSH2 0x3941 DUP3 PUSH2 0x4ACE JUMP JUMPDEST PUSH1 0x0 PUSH1 0xA0 PUSH1 0x60 SWAP4 DUP5 DUP2 MSTORE DUP5 DUP7 DUP3 ADD MSTORE DUP5 PUSH1 0x40 DUP3 ADD MSTORE DUP5 DUP1 DUP3 ADD MSTORE DUP5 PUSH1 0x80 DUP3 ADD MSTORE ADD MSTORE PUSH2 0x396C DUP2 PUSH2 0x50BE JUMP JUMPDEST POP PUSH1 0x0 MSTORE PUSH1 0x13 DUP3 MSTORE PUSH2 0x3A5F PUSH1 0x40 PUSH1 0x0 KECCAK256 PUSH1 0x40 MLOAD SWAP3 PUSH2 0x3989 DUP5 PUSH2 0x4ACE JUMP JUMPDEST PUSH2 0x3995 PUSH1 0x3 DUP4 ADD PUSH2 0x4B40 JUMP JUMPDEST DUP5 MSTORE PUSH2 0x3A4E PUSH2 0x39A6 PUSH1 0x4 DUP5 ADD PUSH2 0x4B40 JUMP JUMPDEST SWAP2 DUP7 DUP7 ADD SWAP3 DUP4 MSTORE PUSH2 0x3A3D PUSH2 0x39BC PUSH1 0x5 DUP7 ADD PUSH2 0x4B40 JUMP JUMPDEST PUSH1 0x40 DUP9 ADD SWAP1 DUP2 MSTORE PUSH2 0x39CF PUSH1 0x6 DUP8 ADD PUSH2 0x4B40 JUMP JUMPDEST SWAP3 DUP1 DUP10 ADD SWAP4 DUP5 MSTORE PUSH2 0x3A2C PUSH2 0x3A16 PUSH1 0x8 PUSH2 0x39EA PUSH1 0x7 DUP12 ADD PUSH2 0x4B40 JUMP JUMPDEST SWAP10 PUSH1 0x80 DUP14 ADD SWAP11 DUP12 MSTORE ADD SLOAD SWAP11 PUSH1 0xA0 DUP2 ADD SWAP12 DUP13 MSTORE PUSH1 0x40 MLOAD SWAP14 DUP14 DUP16 SWAP15 SWAP3 DUP16 SWAP4 DUP5 MSTORE MLOAD SWAP3 ADD MSTORE PUSH1 0xE0 DUP14 ADD SWAP1 PUSH2 0x4C09 JUMP JUMPDEST SWAP7 MLOAD PUSH1 0x1F NOT DUP13 DUP10 SUB DUP2 ADD PUSH1 0x40 DUP15 ADD MSTORE SWAP8 SWAP1 PUSH2 0x4C09 JUMP JUMPDEST SWAP2 MLOAD SWAP1 DUP7 DUP12 DUP5 SUB ADD SWAP1 DUP12 ADD MSTORE PUSH2 0x4C09 JUMP JUMPDEST SWAP1 MLOAD DUP4 DUP9 DUP4 SUB ADD PUSH1 0x80 DUP10 ADD MSTORE PUSH2 0x4C09 JUMP JUMPDEST SWAP2 MLOAD SWAP1 DUP6 DUP4 SUB ADD PUSH1 0xA0 DUP7 ADD MSTORE PUSH2 0x4C09 JUMP JUMPDEST SWAP1 MLOAD PUSH1 0xC0 DUP4 ADD MSTORE SUB SWAP1 RETURN JUMPDEST CALLVALUE PUSH2 0x36C JUMPI PUSH1 0x0 CALLDATASIZE PUSH1 0x3 NOT ADD SLT PUSH2 0x36C JUMPI PUSH1 0xE SLOAD PUSH1 0x40 MLOAD PUSH1 0x1 PUSH1 0x1 PUSH1 0xA0 SHL SUB SWAP1 SWAP2 AND DUP2 MSTORE PUSH1 0x20 SWAP1 RETURN JUMPDEST CALLVALUE PUSH2 0x36C JUMPI PUSH2 0x3AA1 CALLDATASIZE PUSH2 0x4D90 JUMP JUMPDEST PUSH2 0x3AAA DUP4 PUSH2 0x50BE JUMP JUMPDEST PUSH1 0x1 PUSH1 0x1 PUSH1 0xA0 SHL SUB SWAP3 SWAP1 CALLER SWAP1 DUP5 AND SUB PUSH2 0xD14 JUMPI DUP4 PUSH1 0x0 MSTORE PUSH1 0x20 SWAP4 PUSH1 0x13 DUP6 MSTORE PUSH1 0xFF PUSH1 0x1 PUSH1 0x40 PUSH1 0x0 KECCAK256 ADD SLOAD AND PUSH1 0x3 DUP2 LT ISZERO PUSH2 0x8C2 JUMPI PUSH1 0x2 EQ PUSH2 0xA87 JUMPI DUP1 PUSH1 0x0 MSTORE PUSH1 0x13 DUP6 MSTORE PUSH1 0xFF PUSH1 0x1 PUSH1 0x40 PUSH1 0x0 KECCAK256 ADD SLOAD AND PUSH1 0x3 DUP2 LT ISZERO PUSH2 0x8C2 JUMPI PUSH1 0x1 EQ PUSH2 0x3BE2 JUMPI PUSH2 0x3B10 PUSH2 0x55FA JUMP JUMPDEST PUSH1 0x0 MSTORE PUSH1 0x13 DUP5 MSTORE PUSH1 0x40 PUSH1 0x0 KECCAK256 SWAP3 PUSH1 0x1 DUP5 ADD SLOAD PUSH1 0x8 SHR AND SWAP3 DUP4 ISZERO PUSH2 0x3BA5 JUMPI SWAP2 PUSH1 0x0 DUP1 SWAP5 SWAP3 DUP2 SWAP5 PUSH1 0x2 TIMESTAMP SWAP2 ADD SSTORE DUP3 PUSH1 0x40 MLOAD SWAP4 DUP5 SWAP3 DUP4 CALLDATACOPY DUP2 ADD DUP3 DUP2 MSTORE SUB SWAP3 GAS CALL PUSH2 0x3B55 PUSH2 0x50F9 JUMP JUMPDEST SWAP1 ISZERO PUSH2 0x3B93 JUMPI PUSH2 0x383C PUSH32 0xD7D62979AE48A176C84F013982271CB0978AB8192F62CF045874AE8A1CF767FC SWAP2 PUSH1 0x40 MLOAD SWAP2 DUP3 SWAP2 DUP6 DUP4 MSTORE CALLER SWAP6 DUP4 ADD SWAP1 PUSH2 0x4C09 JUMP JUMPDEST PUSH1 0x40 MLOAD PUSH4 0x824D20F PUSH1 0xE2 SHL DUP2 MSTORE PUSH1 0x4 SWAP1 REVERT JUMPDEST PUSH1 0x40 MLOAD PUSH3 0x461BCD PUSH1 0xE5 SHL DUP2 MSTORE PUSH1 0x4 DUP2 ADD DUP7 SWAP1 MSTORE PUSH1 0x15 PUSH1 0x24 DUP3 ADD MSTORE PUSH21 0x139BC81B1BD9DA58C818DBDB9D1C9858DD081CD95D PUSH1 0x5A SHL PUSH1 0x44 DUP3 ADD MSTORE PUSH1 0x64 SWAP1 REVERT JUMPDEST PUSH1 0x40 MLOAD PUSH4 0x2437E771 PUSH1 0xE1 SHL DUP2 MSTORE PUSH1 0x4 SWAP1 REVERT JUMPDEST CALLVALUE PUSH2 0x36C JUMPI PUSH1 0x20 PUSH2 0x3C04 CALLDATASIZE PUSH2 0x4D90 JUMP JUMPDEST PUSH2 0x3C0D DUP4 PUSH2 0x50BE JUMP JUMPDEST POP PUSH2 0x3C31 DUP5 PUSH1 0x40 MLOAD DUP4 DUP2 SWAP5 DUP4 DUP4 ADD SWAP7 DUP8 CALLDATACOPY DUP2 ADD PUSH1 0x0 DUP4 DUP3 ADD MSTORE SUB DUP1 DUP5 MSTORE ADD DUP3 PUSH2 0x4B1F JUMP JUMPDEST MLOAD SWAP1 KECCAK256 SWAP1 PUSH1 0x0 MSTORE PUSH1 0x13 DUP3 MSTORE PUSH1 0x10 PUSH1 0x40 PUSH1 0x0 KECCAK256 ADD SLOAD EQ PUSH1 0x40 MLOAD SWAP1 DUP2 MSTORE RETURN JUMPDEST CALLVALUE PUSH2 0x36C JUMPI PUSH1 0x0 CALLDATASIZE PUSH1 0x3 NOT ADD SLT PUSH2 0x36C JUMPI PUSH2 0x3C67 PUSH2 0x4E46 JUMP JUMPDEST PUSH2 0x3C6F PUSH2 0x5670 JUMP JUMPDEST PUSH1 0x0 DUP1 DUP1 DUP1 SELFBALANCE PUSH1 0x1 DUP1 PUSH1 0xA0 SHL SUB PUSH1 0xD SLOAD AND GAS CALL PUSH2 0x3C8A PUSH2 0x50F9 JUMP JUMPDEST POP ISZERO PUSH2 0x506 JUMPI PUSH1 0x1 PUSH1 0x8 SSTORE STOP JUMPDEST CALLVALUE PUSH2 0x36C JUMPI PUSH1 0x40 CALLDATASIZE PUSH1 0x3 NOT ADD SLT PUSH2 0x36C JUMPI PUSH1 0x4 CALLDATALOAD PUSH2 0x3CB3 PUSH2 0x4C44 JUMP JUMPDEST SWAP1 PUSH2 0x3CBD DUP2 PUSH2 0x50BE JUMP JUMPDEST PUSH1 0x1 PUSH1 0x1 PUSH1 0xA0 SHL SUB SWAP2 SWAP1 CALLER SWAP1 DUP4 AND SUB PUSH2 0xD14 JUMPI DUP1 PUSH1 0x0 MSTORE PUSH1 0x13 PUSH1 0x20 MSTORE PUSH1 0xFF PUSH1 0x1 PUSH1 0x40 PUSH1 0x0 KECCAK256 ADD SLOAD AND PUSH1 0x3 DUP2 LT ISZERO PUSH2 0x8C2 JUMPI PUSH1 0x2 EQ PUSH2 0xA87 JUMPI PUSH1 0x0 MSTORE PUSH1 0x13 PUSH1 0x20 MSTORE PUSH1 0x1 PUSH1 0x40 PUSH1 0x0 KECCAK256 ADD SWAP2 DUP3 SLOAD SWAP3 PUSH2 0x100 PUSH1 0x1 PUSH1 0xA8 SHL SUB DUP3 PUSH1 0x8 SHL AND PUSH2 0x100 PUSH1 0x1 PUSH1 0xA8 SHL SUB NOT DUP6 AND OR SWAP1 SSTORE DUP2 PUSH1 0x40 MLOAD SWAP4 PUSH1 0x8 SHR AND DUP4 MSTORE AND PUSH1 0x20 DUP3 ADD MSTORE PUSH32 0xC7D3CFF0397F47C60F877B10188255F15EA89C9BAD5C53C0D60DAB38FE1E28D5 PUSH1 0x40 CALLER SWAP3 LOG2 STOP JUMPDEST CALLVALUE PUSH2 0x36C JUMPI PUSH1 0x20 CALLDATASIZE PUSH1 0x3 NOT ADD SLT PUSH2 0x36C JUMPI PUSH1 0x4 CALLDATALOAD PUSH2 0x3D7B PUSH2 0x5693 JUMP JUMPDEST POP PUSH2 0x3D85 DUP2 PUSH2 0x50BE JUMP JUMPDEST POP DUP1 PUSH1 0x0 MSTORE PUSH1 0x13 PUSH1 0x20 MSTORE PUSH1 0x40 PUSH1 0x0 KECCAK256 DUP1 SLOAD SWAP1 PUSH1 0x1 DUP2 ADD SLOAD SWAP1 PUSH1 0x2 PUSH2 0x3DAC PUSH1 0xFF DUP5 AND SWAP6 PUSH2 0x50BE JUMP JUMPDEST SWAP2 ADD SLOAD SWAP2 PUSH1 0x40 MLOAD SWAP4 PUSH2 0x3DBD DUP6 PUSH2 0x4AE9 JUMP JUMPDEST DUP5 MSTORE PUSH1 0x20 DUP5 ADD SWAP5 PUSH1 0x3 DUP2 LT ISZERO PUSH2 0x8C2 JUMPI DUP6 MSTORE PUSH1 0x40 DUP5 ADD SWAP5 PUSH1 0x1 DUP1 PUSH1 0xA0 SHL SUB DUP1 SWAP4 AND DUP7 MSTORE DUP3 PUSH1 0x60 DUP7 ADD SWAP3 PUSH1 0x8 SHR AND DUP3 MSTORE PUSH1 0x80 DUP6 ADD SWAP4 DUP5 MSTORE PUSH1 0x40 MLOAD SWAP5 MLOAD DUP6 MSTORE MLOAD PUSH1 0x3 DUP2 LT ISZERO PUSH2 0x8C2 JUMPI PUSH1 0xA0 SWAP6 DUP4 SWAP2 PUSH1 0x20 DUP8 ADD MSTORE MLOAD AND PUSH1 0x40 DUP6 ADD MSTORE MLOAD AND PUSH1 0x60 DUP4 ADD MSTORE MLOAD PUSH1 0x80 DUP3 ADD MSTORE RETURN JUMPDEST CALLVALUE PUSH2 0x36C JUMPI PUSH2 0x1C PUSH2 0x3E35 CALLDATASIZE PUSH2 0x4CEF JUMP JUMPDEST SWAP1 PUSH1 0x40 MLOAD SWAP3 PUSH2 0x3E43 DUP5 PUSH2 0x4B04 JUMP JUMPDEST PUSH1 0x0 DUP5 MSTORE PUSH2 0x1A0E DUP4 DUP4 DUP4 PUSH2 0x4E72 JUMP JUMPDEST CALLVALUE PUSH2 0x36C JUMPI PUSH1 0x0 CALLDATASIZE PUSH1 0x3 NOT ADD SLT PUSH2 0x36C JUMPI PUSH2 0x3E6B PUSH2 0x4E46 JUMP JUMPDEST PUSH1 0x9 SLOAD PUSH1 0xFF DUP2 AND ISZERO PUSH2 0x3EAA JUMPI PUSH1 0xFF NOT AND PUSH1 0x9 SSTORE PUSH32 0x5DB9EE0A495BF2E6FF9C91A7834C1BA4FDD244A5E8AA4E537BD38AEAE4B073AA PUSH1 0x20 PUSH1 0x40 MLOAD CALLER DUP2 MSTORE LOG1 STOP JUMPDEST PUSH1 0x40 MLOAD PUSH4 0x8DFC202B PUSH1 0xE0 SHL DUP2 MSTORE PUSH1 0x4 SWAP1 REVERT JUMPDEST CALLVALUE PUSH2 0x36C JUMPI PUSH1 0x20 CALLDATASIZE PUSH1 0x3 NOT ADD SLT PUSH2 0x36C JUMPI PUSH1 0x4 CALLDATALOAD PUSH2 0x3ED9 DUP2 PUSH2 0x50BE JUMP JUMPDEST CALLER PUSH1 0x1 PUSH1 0x1 PUSH1 0xA0 SHL SUB SWAP1 SWAP2 AND SUB PUSH2 0xD14 JUMPI DUP1 PUSH1 0x0 MSTORE PUSH1 0x14 PUSH1 0x20 MSTORE PUSH1 0xFF PUSH1 0x1 PUSH1 0x40 PUSH1 0x0 KECCAK256 ADD SLOAD PUSH1 0xA0 SHR AND ISZERO PUSH2 0x5B5 JUMPI DUP1 PUSH1 0x0 MSTORE PUSH1 0x14 PUSH1 0x20 MSTORE PUSH1 0x40 PUSH1 0x0 KECCAK256 PUSH1 0x1 DUP2 ADD SWAP1 PUSH1 0x0 DUP3 SLOAD SWAP2 SSTORE PUSH11 0xFFFFFFFFFFFFFFFFFFFFFF PUSH1 0xA8 SHL AND SWAP1 SSTORE PUSH32 0x411AEE90354C51B1B04CD563FCAB2617142A9D50DA19232D888547C8A1B7FD8A PUSH1 0x0 DUP1 LOG2 STOP JUMPDEST CALLVALUE PUSH2 0x36C JUMPI PUSH1 0x20 CALLDATASIZE PUSH1 0x3 NOT ADD SLT PUSH2 0x36C JUMPI PUSH1 0x4 CALLDATALOAD PUSH2 0x3F75 PUSH2 0x5693 JUMP JUMPDEST POP PUSH2 0x3F7F DUP2 PUSH2 0x50BE JUMP JUMPDEST POP PUSH1 0x0 MSTORE PUSH1 0x13 PUSH1 0x20 MSTORE PUSH1 0xA0 PUSH2 0x3F9A PUSH1 0xC PUSH1 0x40 PUSH1 0x0 KECCAK256 ADD PUSH2 0x5737 JUMP JUMPDEST PUSH2 0x3FA7 PUSH1 0x40 MLOAD DUP1 SWAP3 PUSH2 0x4D24 JUMP JUMPDEST RETURN JUMPDEST CALLVALUE PUSH2 0x36C JUMPI PUSH1 0x20 CALLDATASIZE PUSH1 0x3 NOT ADD SLT PUSH2 0x36C JUMPI PUSH2 0x3FC2 PUSH2 0x4E46 JUMP JUMPDEST PUSH1 0x4 CALLDATALOAD PUSH1 0x1C SSTORE STOP JUMPDEST CALLVALUE PUSH2 0x36C JUMPI PUSH2 0x3FD8 CALLDATASIZE PUSH2 0x4C69 JUMP JUMPDEST SWAP1 PUSH2 0x3FE1 PUSH2 0x5670 JUMP JUMPDEST PUSH2 0x3FEA DUP2 PUSH2 0x50BE JUMP JUMPDEST CALLER PUSH1 0x1 PUSH1 0x1 PUSH1 0xA0 SHL SUB SWAP1 SWAP2 AND SUB PUSH2 0xD14 JUMPI PUSH1 0x0 MSTORE PUSH1 0x13 PUSH1 0x20 MSTORE PUSH1 0x40 PUSH1 0x0 KECCAK256 SWAP1 DUP2 SLOAD SWAP2 DUP3 DUP3 GT PUSH2 0x4031 JUMPI PUSH1 0x0 DUP1 DUP1 DUP5 DUP2 SWAP5 PUSH2 0x4024 DUP3 DUP10 PUSH2 0x5663 JUMP JUMPDEST SWAP1 SSTORE CALLER GAS CALL PUSH2 0x3C8A PUSH2 0x50F9 JUMP JUMPDEST PUSH1 0x40 MLOAD PUSH4 0xAAC63FF9 PUSH1 0xE0 SHL DUP2 MSTORE PUSH1 0x4 SWAP1 REVERT JUMPDEST CALLVALUE PUSH2 0x36C JUMPI PUSH2 0x1C PUSH2 0x4054 CALLDATASIZE PUSH2 0x4CEF JUMP JUMPDEST SWAP2 PUSH2 0x4E72 JUMP JUMPDEST CALLVALUE PUSH2 0x36C JUMPI PUSH1 0x0 CALLDATASIZE PUSH1 0x3 NOT ADD SLT PUSH2 0x36C JUMPI PUSH1 0x20 PUSH1 0xF SLOAD PUSH1 0x40 MLOAD SWAP1 DUP2 MSTORE RETURN JUMPDEST CALLVALUE PUSH2 0x36C JUMPI PUSH1 0x3 NOT PUSH1 0x40 CALLDATASIZE DUP3 ADD SLT PUSH2 0x36C JUMPI PUSH1 0x24 CALLDATALOAD SWAP1 PUSH1 0x1 PUSH1 0x1 PUSH1 0x40 SHL SUB DUP3 GT PUSH2 0x36C JUMPI PUSH1 0xC0 SWAP1 DUP3 CALLDATASIZE SUB ADD SLT PUSH2 0x36C JUMPI PUSH1 0x40 MLOAD SWAP1 PUSH2 0x40B5 DUP3 PUSH2 0x4ACE JUMP JUMPDEST DUP1 PUSH1 0x4 ADD CALLDATALOAD PUSH1 0x1 PUSH1 0x1 PUSH1 0x40 SHL SUB DUP2 GT PUSH2 0x36C JUMPI PUSH2 0x40D8 SWAP1 PUSH1 0x4 CALLDATASIZE SWAP2 DUP5 ADD ADD PUSH2 0x4CD1 JUMP JUMPDEST DUP3 MSTORE PUSH1 0x24 DUP2 ADD CALLDATALOAD PUSH1 0x1 PUSH1 0x1 PUSH1 0x40 SHL SUB DUP2 GT PUSH2 0x36C JUMPI PUSH2 0x40FD SWAP1 PUSH1 0x4 CALLDATASIZE SWAP2 DUP5 ADD ADD PUSH2 0x4CD1 JUMP JUMPDEST PUSH1 0x20 DUP4 ADD MSTORE PUSH1 0x44 DUP2 ADD CALLDATALOAD PUSH1 0x1 PUSH1 0x1 PUSH1 0x40 SHL SUB DUP2 GT PUSH2 0x36C JUMPI PUSH2 0x4125 SWAP1 PUSH1 0x4 CALLDATASIZE SWAP2 DUP5 ADD ADD PUSH2 0x4CD1 JUMP JUMPDEST PUSH1 0x40 DUP4 ADD MSTORE PUSH1 0x64 DUP2 ADD CALLDATALOAD PUSH1 0x1 PUSH1 0x1 PUSH1 0x40 SHL SUB DUP2 GT PUSH2 0x36C JUMPI PUSH2 0x414D SWAP1 PUSH1 0x4 CALLDATASIZE SWAP2 DUP5 ADD ADD PUSH2 0x4CD1 JUMP JUMPDEST PUSH1 0x60 DUP4 ADD MSTORE PUSH1 0x84 DUP2 ADD CALLDATALOAD SWAP1 PUSH1 0x1 PUSH1 0x1 PUSH1 0x40 SHL SUB DUP3 GT PUSH2 0x36C JUMPI PUSH2 0x4178 PUSH1 0xA4 SWAP3 PUSH1 0x4 CALLDATASIZE SWAP2 DUP5 ADD ADD PUSH2 0x4CD1 JUMP JUMPDEST PUSH1 0x80 DUP5 ADD MSTORE ADD CALLDATALOAD PUSH1 0xA0 DUP3 ADD MSTORE PUSH2 0x418F PUSH1 0x4 CALLDATALOAD PUSH2 0x50BE JUMP JUMPDEST CALLER PUSH1 0x1 PUSH1 0x1 PUSH1 0xA0 SHL SUB SWAP1 SWAP2 AND SUB PUSH2 0xD14 JUMPI PUSH1 0x4 CALLDATALOAD PUSH1 0x0 MSTORE PUSH1 0x13 PUSH1 0x20 MSTORE PUSH1 0xFF PUSH1 0x1 PUSH1 0x40 PUSH1 0x0 KECCAK256 ADD SLOAD AND PUSH1 0x3 DUP2 LT ISZERO PUSH2 0x8C2 JUMPI PUSH1 0x2 EQ PUSH2 0xA87 JUMPI PUSH1 0x4 CALLDATALOAD PUSH1 0x0 MSTORE PUSH1 0x13 PUSH1 0x20 MSTORE PUSH1 0x40 PUSH1 0x0 KECCAK256 SWAP1 DUP1 MLOAD SWAP2 DUP3 MLOAD PUSH1 0x1 PUSH1 0x1 PUSH1 0x40 SHL SUB DUP2 GT PUSH2 0x1389 JUMPI PUSH2 0x4205 DUP2 PUSH2 0x41FC PUSH1 0x3 DUP6 ADD SLOAD PUSH2 0x4A79 JUMP JUMPDEST PUSH1 0x3 DUP6 ADD PUSH2 0x5271 JUMP JUMPDEST PUSH1 0x20 PUSH1 0x1F DUP3 GT PUSH1 0x1 EQ PUSH2 0x45D2 JUMPI DUP2 SWAP3 SWAP4 SWAP5 PUSH1 0x0 SWAP3 PUSH2 0x45C7 JUMPI JUMPDEST POP POP DUP2 PUSH1 0x1 SHL SWAP2 PUSH1 0x0 NOT SWAP1 PUSH1 0x3 SHL SHR NOT AND OR PUSH1 0x3 DUP3 ADD SSTORE JUMPDEST PUSH1 0x20 DUP3 ADD MLOAD SWAP2 DUP3 MLOAD PUSH1 0x1 PUSH1 0x1 PUSH1 0x40 SHL SUB DUP2 GT PUSH2 0x1389 JUMPI PUSH2 0x4266 DUP2 PUSH2 0x425D PUSH1 0x4 DUP7 ADD SLOAD PUSH2 0x4A79 JUMP JUMPDEST PUSH1 0x4 DUP7 ADD PUSH2 0x5271 JUMP JUMPDEST PUSH1 0x20 PUSH1 0x1F DUP3 GT PUSH1 0x1 EQ PUSH2 0x4559 JUMPI DUP2 SWAP3 SWAP4 SWAP5 PUSH1 0x0 SWAP3 PUSH2 0x454E JUMPI JUMPDEST POP POP DUP2 PUSH1 0x1 SHL SWAP2 PUSH1 0x0 NOT SWAP1 PUSH1 0x3 SHL SHR NOT AND OR PUSH1 0x4 DUP4 ADD SSTORE JUMPDEST PUSH1 0x40 DUP2 ADD MLOAD SWAP2 DUP3 MLOAD PUSH1 0x1 PUSH1 0x1 PUSH1 0x40 SHL SUB DUP2 GT PUSH2 0x1389 JUMPI PUSH2 0x42C7 DUP2 PUSH2 0x42BE PUSH1 0x5 DUP6 ADD SLOAD PUSH2 0x4A79 JUMP JUMPDEST PUSH1 0x5 DUP6 ADD PUSH2 0x5271 JUMP JUMPDEST PUSH1 0x20 PUSH1 0x1F DUP3 GT PUSH1 0x1 EQ PUSH2 0x44E0 JUMPI DUP2 SWAP3 SWAP4 SWAP5 PUSH1 0x0 SWAP3 PUSH2 0x44D5 JUMPI JUMPDEST POP POP DUP2 PUSH1 0x1 SHL SWAP2 PUSH1 0x0 NOT SWAP1 PUSH1 0x3 SHL SHR NOT AND OR PUSH1 0x5 DUP3 ADD SSTORE JUMPDEST PUSH1 0x6 DUP2 ADD SWAP2 PUSH1 0x60 DUP2 ADD MLOAD SWAP3 DUP4 MLOAD PUSH1 0x1 PUSH1 0x1 PUSH1 0x40 SHL SUB DUP2 GT PUSH2 0x1389 JUMPI PUSH2 0x4321 DUP2 PUSH2 0x29EB DUP5 SLOAD PUSH2 0x4A79 JUMP JUMPDEST PUSH1 0x20 SWAP5 PUSH1 0x1F DUP3 GT PUSH1 0x1 EQ PUSH2 0x446F JUMPI SWAP5 DUP2 SWAP3 SWAP4 SWAP5 SWAP6 PUSH1 0x0 SWAP3 PUSH2 0x4464 JUMPI JUMPDEST POP POP DUP2 PUSH1 0x1 SHL SWAP2 PUSH1 0x0 NOT SWAP1 PUSH1 0x3 SHL SHR NOT AND OR SWAP1 SSTORE JUMPDEST PUSH1 0x7 DUP3 ADD SWAP2 PUSH1 0x80 DUP3 ADD MLOAD SWAP3 DUP4 MLOAD PUSH1 0x1 PUSH1 0x1 PUSH1 0x40 SHL SUB DUP2 GT PUSH2 0x1389 JUMPI PUSH2 0x437B DUP2 PUSH2 0x29EB DUP5 SLOAD PUSH2 0x4A79 JUMP JUMPDEST PUSH1 0x20 PUSH1 0x1F DUP3 GT PUSH1 0x1 EQ PUSH2 0x43FB JUMPI DUP2 SWAP1 PUSH1 0x80 SWAP7 PUSH1 0x0 SWAP3 PUSH2 0x43F0 JUMPI JUMPDEST POP POP DUP2 PUSH1 0x1 SHL SWAP2 PUSH1 0x0 NOT SWAP1 PUSH1 0x3 SHL SHR NOT AND OR SWAP1 SSTORE JUMPDEST PUSH1 0x8 PUSH1 0xA0 DUP4 ADD MLOAD SWAP2 ADD SSTORE ADD MLOAD PUSH32 0x459157BA24C7AB9878B165EF465FA6AE2AB42BCD8445F576BE378768B0C47309 PUSH1 0x40 MLOAD PUSH1 0x20 DUP2 MSTORE DUP1 PUSH2 0x383C PUSH1 0x4 CALLDATALOAD SWAP5 PUSH1 0x20 DUP4 ADD SWAP1 PUSH2 0x4C09 JUMP JUMPDEST ADD MLOAD SWAP1 POP DUP7 DUP1 PUSH2 0x4395 JUMP JUMPDEST PUSH1 0x1F NOT DUP3 AND SWAP6 DUP4 PUSH1 0x0 MSTORE PUSH1 0x20 PUSH1 0x0 KECCAK256 SWAP7 PUSH1 0x0 JUMPDEST DUP2 DUP2 LT PUSH2 0x444C JUMPI POP SWAP2 PUSH1 0x80 SWAP8 SWAP2 DUP5 PUSH1 0x1 SWAP6 SWAP5 LT PUSH2 0x4433 JUMPI JUMPDEST POP POP POP DUP2 SHL ADD SWAP1 SSTORE PUSH2 0x43AA JUMP JUMPDEST ADD MLOAD PUSH1 0x0 NOT PUSH1 0xF8 DUP5 PUSH1 0x3 SHL AND SHR NOT AND SWAP1 SSTORE DUP7 DUP1 DUP1 PUSH2 0x4426 JUMP JUMPDEST DUP4 DUP4 ADD MLOAD DUP10 SSTORE PUSH1 0x1 SWAP1 SWAP9 ADD SWAP8 PUSH1 0x20 SWAP4 DUP5 ADD SWAP4 ADD PUSH2 0x440E JUMP JUMPDEST ADD MLOAD SWAP1 POP DUP6 DUP1 PUSH2 0x433D JUMP JUMPDEST PUSH1 0x1F NOT DUP3 AND SWAP6 DUP4 PUSH1 0x0 MSTORE PUSH1 0x20 PUSH1 0x0 KECCAK256 SWAP2 PUSH1 0x0 JUMPDEST DUP9 DUP2 LT PUSH2 0x44BD JUMPI POP DUP4 PUSH1 0x1 SWAP6 SWAP7 SWAP8 SWAP9 LT PUSH2 0x44A4 JUMPI JUMPDEST POP POP POP DUP2 SHL ADD SWAP1 SSTORE PUSH2 0x4352 JUMP JUMPDEST ADD MLOAD PUSH1 0x0 NOT PUSH1 0xF8 DUP5 PUSH1 0x3 SHL AND SHR NOT AND SWAP1 SSTORE DUP6 DUP1 DUP1 PUSH2 0x4497 JUMP JUMPDEST SWAP2 SWAP3 PUSH1 0x20 PUSH1 0x1 DUP2 SWAP3 DUP7 DUP6 ADD MLOAD DUP2 SSTORE ADD SWAP5 ADD SWAP3 ADD PUSH2 0x4482 JUMP JUMPDEST ADD MLOAD SWAP1 POP DUP5 DUP1 PUSH2 0x42E0 JUMP JUMPDEST PUSH1 0x5 DUP4 ADD PUSH1 0x0 MSTORE PUSH1 0x20 PUSH1 0x0 KECCAK256 SWAP1 PUSH1 0x0 JUMPDEST PUSH1 0x1F NOT DUP5 AND DUP2 LT PUSH2 0x4536 JUMPI POP PUSH1 0x1 SWAP4 SWAP5 SWAP6 DUP4 PUSH1 0x1F NOT DUP2 AND LT PUSH2 0x451D JUMPI JUMPDEST POP POP POP DUP2 SHL ADD PUSH1 0x5 DUP3 ADD SSTORE PUSH2 0x42F8 JUMP JUMPDEST ADD MLOAD PUSH1 0x0 NOT PUSH1 0xF8 DUP5 PUSH1 0x3 SHL AND SHR NOT AND SWAP1 SSTORE DUP5 DUP1 DUP1 PUSH2 0x450D JUMP JUMPDEST SWAP1 SWAP2 PUSH1 0x20 PUSH1 0x1 DUP2 SWAP3 DUP6 DUP11 ADD MLOAD DUP2 SSTORE ADD SWAP4 ADD SWAP2 ADD PUSH2 0x44F0 JUMP JUMPDEST ADD MLOAD SWAP1 POP DUP5 DUP1 PUSH2 0x427F JUMP JUMPDEST PUSH1 0x4 DUP5 ADD PUSH1 0x0 MSTORE PUSH1 0x20 PUSH1 0x0 KECCAK256 SWAP1 PUSH1 0x0 JUMPDEST PUSH1 0x1F NOT DUP5 AND DUP2 LT PUSH2 0x45AF JUMPI POP PUSH1 0x1 SWAP4 SWAP5 SWAP6 DUP4 PUSH1 0x1F NOT DUP2 AND LT PUSH2 0x4596 JUMPI JUMPDEST POP POP POP DUP2 SHL ADD PUSH1 0x4 DUP4 ADD SSTORE PUSH2 0x4297 JUMP JUMPDEST ADD MLOAD PUSH1 0x0 NOT PUSH1 0xF8 DUP5 PUSH1 0x3 SHL AND SHR NOT AND SWAP1 SSTORE DUP5 DUP1 DUP1 PUSH2 0x4586 JUMP JUMPDEST SWAP1 SWAP2 PUSH1 0x20 PUSH1 0x1 DUP2 SWAP3 DUP6 DUP11 ADD MLOAD DUP2 SSTORE ADD SWAP4 ADD SWAP2 ADD PUSH2 0x4569 JUMP JUMPDEST ADD MLOAD SWAP1 POP DUP5 DUP1 PUSH2 0x421E JUMP JUMPDEST PUSH1 0x3 DUP4 ADD PUSH1 0x0 MSTORE PUSH1 0x20 PUSH1 0x0 KECCAK256 SWAP1 PUSH1 0x0 JUMPDEST PUSH1 0x1F NOT DUP5 AND DUP2 LT PUSH2 0x4628 JUMPI POP PUSH1 0x1 SWAP4 SWAP5 SWAP6 DUP4 PUSH1 0x1F NOT DUP2 AND LT PUSH2 0x460F JUMPI JUMPDEST POP POP POP DUP2 SHL ADD PUSH1 0x3 DUP3 ADD SSTORE PUSH2 0x4236 JUMP JUMPDEST ADD MLOAD PUSH1 0x0 NOT PUSH1 0xF8 DUP5 PUSH1 0x3 SHL AND SHR NOT AND SWAP1 SSTORE DUP5 DUP1 DUP1 PUSH2 0x45FF JUMP JUMPDEST SWAP1 SWAP2 PUSH1 0x20 PUSH1 0x1 DUP2 SWAP3 DUP6 DUP11 ADD MLOAD DUP2 SSTORE ADD SWAP4 ADD SWAP2 ADD PUSH2 0x45E2 JUMP JUMPDEST CALLVALUE PUSH2 0x36C JUMPI PUSH1 0x0 CALLDATASIZE PUSH1 0x3 NOT ADD SLT PUSH2 0x36C JUMPI PUSH1 0x20 PUSH1 0xA SLOAD PUSH1 0x40 MLOAD SWAP1 DUP2 MSTORE RETURN JUMPDEST CALLVALUE PUSH2 0x36C JUMPI PUSH1 0x0 CALLDATASIZE PUSH1 0x3 NOT ADD SLT PUSH2 0x36C JUMPI PUSH1 0x20 PUSH1 0x1C SLOAD PUSH1 0x40 MLOAD SWAP1 DUP2 MSTORE RETURN JUMPDEST CALLVALUE PUSH2 0x36C JUMPI PUSH1 0x0 CALLDATASIZE PUSH1 0x3 NOT ADD SLT PUSH2 0x36C JUMPI PUSH1 0x20 PUSH1 0xB SLOAD PUSH1 0x40 MLOAD SWAP1 DUP2 MSTORE RETURN JUMPDEST CALLVALUE PUSH2 0x36C JUMPI PUSH1 0x20 CALLDATASIZE PUSH1 0x3 NOT ADD SLT PUSH2 0x36C JUMPI PUSH1 0x0 PUSH1 0x40 DUP1 MLOAD PUSH2 0x46BA DUP2 PUSH2 0x4AB3 JUMP JUMPDEST DUP3 DUP2 MSTORE DUP3 PUSH1 0x20 DUP3 ADD MSTORE ADD MSTORE PUSH1 0x4 CALLDATALOAD PUSH1 0x0 MSTORE PUSH1 0x14 PUSH1 0x20 MSTORE PUSH1 0x60 PUSH1 0x40 PUSH1 0x0 KECCAK256 PUSH1 0x40 MLOAD PUSH2 0x46E3 DUP2 PUSH2 0x4AB3 JUMP JUMPDEST PUSH1 0x1 DUP3 SLOAD SWAP3 DUP4 DUP4 MSTORE ADD SLOAD SWAP1 PUSH1 0x20 DUP2 ADD PUSH1 0xFF PUSH1 0x40 PUSH1 0x1 DUP1 PUSH1 0xA0 SHL SUB SWAP4 DUP5 DUP7 AND DUP5 MSTORE ADD SWAP4 PUSH1 0xA0 SHR AND ISZERO ISZERO DUP4 MSTORE PUSH1 0x40 MLOAD SWAP4 DUP5 MSTORE MLOAD AND PUSH1 0x20 DUP4 ADD MSTORE MLOAD ISZERO ISZERO PUSH1 0x40 DUP3 ADD MSTORE RETURN JUMPDEST CALLVALUE PUSH2 0x36C JUMPI PUSH2 0x4732 CALLDATASIZE PUSH2 0x4C69 JUMP JUMPDEST SWAP1 PUSH2 0x473B PUSH2 0x4E46 JUMP JUMPDEST PUSH1 0x5 DUP2 LT ISZERO PUSH2 0x474A JUMPI PUSH1 0x17 ADD SSTORE STOP JUMPDEST PUSH1 0x40 MLOAD PUSH3 0x461BCD PUSH1 0xE5 SHL DUP2 MSTORE PUSH1 0x20 PUSH1 0x4 DUP3 ADD MSTORE PUSH1 0xD PUSH1 0x24 DUP3 ADD MSTORE PUSH13 0x92DCECC2D8D2C840D2DCC8CAF PUSH1 0x9B SHL PUSH1 0x44 DUP3 ADD MSTORE PUSH1 0x64 SWAP1 REVERT JUMPDEST CALLVALUE PUSH2 0x36C JUMPI PUSH1 0x20 CALLDATASIZE PUSH1 0x3 NOT ADD SLT PUSH2 0x36C JUMPI PUSH1 0x4 CALLDATALOAD DUP1 ISZERO ISZERO DUP1 SWAP2 SUB PUSH2 0x36C JUMPI PUSH2 0x47A5 PUSH2 0x4E46 JUMP JUMPDEST PUSH1 0xFF DUP1 NOT PUSH1 0x11 SLOAD AND SWAP2 AND OR PUSH1 0x11 SSTORE PUSH1 0x0 DUP1 RETURN JUMPDEST CALLVALUE PUSH2 0x36C JUMPI PUSH1 0x40 CALLDATASIZE PUSH1 0x3 NOT ADD SLT PUSH2 0x36C JUMPI PUSH2 0x47D1 PUSH2 0x4C2E JUMP JUMPDEST PUSH1 0x24 CALLDATALOAD PUSH2 0x47DD DUP2 PUSH2 0x50BE JUMP JUMPDEST CALLER ISZERO ISZERO DUP1 PUSH2 0x488C JUMPI JUMPDEST DUP1 PUSH2 0x485F JUMPI JUMPDEST PUSH2 0x4847 JUMPI PUSH1 0x1 PUSH1 0x1 PUSH1 0xA0 SHL SUB SWAP3 DUP4 AND SWAP3 DUP3 SWAP2 DUP5 SWAP2 AND PUSH32 0x8C5BE1E5EBEC7D5BD14F71427D1E84F3DD0314C0F7B2291E5B200AC8C7C3B925 PUSH1 0x0 DUP1 LOG4 PUSH1 0x0 SWAP1 DUP2 MSTORE PUSH1 0x4 PUSH1 0x20 MSTORE PUSH1 0x40 SWAP1 KECCAK256 DUP1 SLOAD PUSH1 0x1 PUSH1 0x1 PUSH1 0xA0 SHL SUB NOT AND SWAP1 SWAP2 OR SWAP1 SSTORE STOP JUMPDEST PUSH1 0x40 MLOAD PUSH4 0xA9FBF51F PUSH1 0xE0 SHL DUP2 MSTORE CALLER PUSH1 0x4 DUP3 ADD MSTORE PUSH1 0x24 SWAP1 REVERT JUMPDEST POP PUSH1 0x1 DUP1 PUSH1 0xA0 SHL SUB DUP2 AND PUSH1 0x0 MSTORE PUSH1 0x5 PUSH1 0x20 MSTORE PUSH1 0x40 PUSH1 0x0 KECCAK256 CALLER PUSH1 0x0 MSTORE PUSH1 0x20 MSTORE PUSH1 0xFF PUSH1 0x40 PUSH1 0x0 KECCAK256 SLOAD AND ISZERO PUSH2 0x47EC JUMP JUMPDEST POP PUSH1 0x1 PUSH1 0x1 PUSH1 0xA0 SHL SUB DUP2 AND CALLER EQ ISZERO PUSH2 0x47E6 JUMP JUMPDEST CALLVALUE PUSH2 0x36C JUMPI PUSH1 0x20 CALLDATASIZE PUSH1 0x3 NOT ADD SLT PUSH2 0x36C JUMPI PUSH1 0x4 CALLDATALOAD PUSH2 0x48BC DUP2 PUSH2 0x50BE JUMP JUMPDEST POP PUSH1 0x0 MSTORE PUSH1 0x4 PUSH1 0x20 MSTORE PUSH1 0x20 PUSH1 0x1 DUP1 PUSH1 0xA0 SHL SUB PUSH1 0x40 PUSH1 0x0 KECCAK256 SLOAD AND PUSH1 0x40 MLOAD SWAP1 DUP2 MSTORE RETURN JUMPDEST CALLVALUE PUSH2 0x36C JUMPI PUSH1 0x0 CALLDATASIZE PUSH1 0x3 NOT ADD SLT PUSH2 0x36C JUMPI PUSH1 0x40 MLOAD PUSH1 0x0 DUP1 SLOAD PUSH2 0x48FE DUP2 PUSH2 0x4A79 JUMP JUMPDEST DUP1 DUP5 MSTORE SWAP1 PUSH1 0x1 SWAP1 DUP2 DUP2 AND SWAP1 DUP2 ISZERO PUSH2 0x24D6 JUMPI POP PUSH1 0x1 EQ PUSH2 0x4927 JUMPI PUSH2 0x762 DUP5 PUSH2 0x2469 DUP2 DUP7 SUB DUP3 PUSH2 0x4B1F JUMP JUMPDEST PUSH1 0x0 DUP1 DUP1 MSTORE SWAP3 POP PUSH32 0x290DECD9548B62A8D60345A988386FC84BA6BC95484008F6362F93160EF3E563 JUMPDEST DUP3 DUP5 LT PUSH2 0x4968 JUMPI POP POP POP DUP2 ADD PUSH1 0x20 ADD PUSH2 0x2469 DUP3 PUSH2 0x2459 JUMP JUMPDEST DUP1 SLOAD PUSH1 0x20 DUP6 DUP8 ADD DUP2 ADD SWAP2 SWAP1 SWAP2 MSTORE SWAP1 SWAP4 ADD SWAP3 DUP2 ADD PUSH2 0x4950 JUMP JUMPDEST CALLVALUE PUSH2 0x36C JUMPI PUSH1 0x20 CALLDATASIZE PUSH1 0x3 NOT ADD SLT PUSH2 0x36C JUMPI PUSH1 0x4 CALLDATALOAD PUSH1 0x5 DUP2 LT ISZERO PUSH2 0x36C JUMPI PUSH2 0x2469 PUSH2 0x841 PUSH2 0x762 SWAP3 PUSH2 0x4A60 JUMP JUMPDEST CALLVALUE PUSH2 0x36C JUMPI PUSH1 0x20 CALLDATASIZE PUSH1 0x3 NOT ADD SLT PUSH2 0x36C JUMPI PUSH1 0x4 CALLDATALOAD PUSH2 0x49C8 PUSH2 0x4E46 JUMP JUMPDEST PUSH2 0x49D6 PUSH2 0x3E8 DUP3 GT ISZERO PUSH2 0x577E JUMP JUMPDEST PUSH1 0x10 SSTORE STOP JUMPDEST CALLVALUE PUSH2 0x36C JUMPI PUSH1 0x20 CALLDATASIZE PUSH1 0x3 NOT ADD SLT PUSH2 0x36C JUMPI PUSH1 0x4 CALLDATALOAD SWAP1 PUSH4 0xFFFFFFFF PUSH1 0xE0 SHL DUP3 AND DUP1 SWAP3 SUB PUSH2 0x36C JUMPI PUSH1 0x20 SWAP2 PUSH4 0x24832483 PUSH1 0xE1 SHL DUP2 EQ SWAP1 DUP2 ISZERO PUSH2 0x4A1D JUMPI JUMPDEST POP ISZERO ISZERO DUP2 MSTORE RETURN JUMPDEST PUSH4 0x80AC58CD PUSH1 0xE0 SHL DUP2 EQ SWAP2 POP DUP2 ISZERO PUSH2 0x4A4F JUMPI JUMPDEST DUP2 ISZERO PUSH2 0x4A3E JUMPI JUMPDEST POP DUP4 PUSH2 0x4A16 JUMP JUMPDEST PUSH4 0x1FFC9A7 PUSH1 0xE0 SHL EQ SWAP1 POP DUP4 PUSH2 0x4A37 JUMP JUMPDEST PUSH4 0x5B5E139F PUSH1 0xE0 SHL DUP2 EQ SWAP2 POP PUSH2 0x4A30 JUMP JUMPDEST PUSH1 0x5 DUP2 LT ISZERO PUSH2 0x8C2 JUMPI PUSH1 0x0 MSTORE PUSH1 0x16 PUSH1 0x20 MSTORE PUSH1 0x40 PUSH1 0x0 KECCAK256 SWAP1 JUMP JUMPDEST SWAP1 PUSH1 0x1 DUP3 DUP2 SHR SWAP3 AND DUP1 ISZERO PUSH2 0x4AA9 JUMPI JUMPDEST PUSH1 0x20 DUP4 LT EQ PUSH2 0x4A93 JUMPI JUMP JUMPDEST PUSH4 0x4E487B71 PUSH1 0xE0 SHL PUSH1 0x0 MSTORE PUSH1 0x22 PUSH1 0x4 MSTORE PUSH1 0x24 PUSH1 0x0 REVERT JUMPDEST SWAP2 PUSH1 0x7F AND SWAP2 PUSH2 0x4A88 JUMP JUMPDEST PUSH1 0x60 DUP2 ADD SWAP1 DUP2 LT PUSH1 0x1 PUSH1 0x1 PUSH1 0x40 SHL SUB DUP3 GT OR PUSH2 0x1389 JUMPI PUSH1 0x40 MSTORE JUMP JUMPDEST PUSH1 0xC0 DUP2 ADD SWAP1 DUP2 LT PUSH1 0x1 PUSH1 0x1 PUSH1 0x40 SHL SUB DUP3 GT OR PUSH2 0x1389 JUMPI PUSH1 0x40 MSTORE JUMP JUMPDEST PUSH1 0xA0 DUP2 ADD SWAP1 DUP2 LT PUSH1 0x1 PUSH1 0x1 PUSH1 0x40 SHL SUB DUP3 GT OR PUSH2 0x1389 JUMPI PUSH1 0x40 MSTORE JUMP JUMPDEST PUSH1 0x20 DUP2 ADD SWAP1 DUP2 LT PUSH1 0x1 PUSH1 0x1 PUSH1 0x40 SHL SUB DUP3 GT OR PUSH2 0x1389 JUMPI PUSH1 0x40 MSTORE JUMP JUMPDEST SWAP1 PUSH1 0x1F DUP1 NOT SWAP2 ADD AND DUP2 ADD SWAP1 DUP2 LT PUSH1 0x1 PUSH1 0x1 PUSH1 0x40 SHL SUB DUP3 GT OR PUSH2 0x1389 JUMPI PUSH1 0x40 MSTORE JUMP JUMPDEST SWAP1 PUSH1 0x40 MLOAD SWAP2 DUP3 PUSH1 0x0 DUP3 SLOAD SWAP3 PUSH2 0x4B54 DUP5 PUSH2 0x4A79 JUMP JUMPDEST SWAP1 DUP2 DUP5 MSTORE PUSH1 0x1 SWAP5 DUP6 DUP2 AND SWAP1 DUP2 PUSH1 0x0 EQ PUSH2 0x4BC3 JUMPI POP PUSH1 0x1 EQ PUSH2 0x4B80 JUMPI JUMPDEST POP POP PUSH2 0x4B7E SWAP3 POP SUB DUP4 PUSH2 0x4B1F JUMP JUMPDEST JUMP JUMPDEST SWAP1 SWAP4 SWAP2 POP PUSH1 0x0 MSTORE PUSH1 0x20 SWAP1 DUP2 PUSH1 0x0 KECCAK256 SWAP4 PUSH1 0x0 SWAP2 JUMPDEST DUP2 DUP4 LT PUSH2 0x4BAB JUMPI POP POP PUSH2 0x4B7E SWAP4 POP DUP3 ADD ADD CODESIZE DUP1 PUSH2 0x4B70 JUMP JUMPDEST DUP6 SLOAD DUP9 DUP5 ADD DUP6 ADD MSTORE SWAP5 DUP6 ADD SWAP5 DUP8 SWAP5 POP SWAP2 DUP4 ADD SWAP2 PUSH2 0x4B93 JUMP JUMPDEST SWAP2 POP POP PUSH2 0x4B7E SWAP5 POP PUSH1 0x20 SWAP3 POP PUSH1 0xFF NOT AND DUP3 DUP5 ADD MSTORE ISZERO ISZERO PUSH1 0x5 SHL DUP3 ADD ADD CODESIZE DUP1 PUSH2 0x4B70 JUMP JUMPDEST PUSH1 0x0 JUMPDEST DUP4 DUP2 LT PUSH2 0x4BF9 JUMPI POP POP PUSH1 0x0 SWAP2 ADD MSTORE JUMP JUMPDEST DUP2 DUP2 ADD MLOAD DUP4 DUP3 ADD MSTORE PUSH1 0x20 ADD PUSH2 0x4BE9 JUMP JUMPDEST SWAP1 PUSH1 0x20 SWAP2 PUSH2 0x4C22 DUP2 MLOAD DUP1 SWAP3 DUP2 DUP6 MSTORE DUP6 DUP1 DUP7 ADD SWAP2 ADD PUSH2 0x4BE6 JUMP JUMPDEST PUSH1 0x1F ADD PUSH1 0x1F NOT AND ADD ADD SWAP1 JUMP JUMPDEST PUSH1 0x4 CALLDATALOAD SWAP1 PUSH1 0x1 PUSH1 0x1 PUSH1 0xA0 SHL SUB DUP3 AND DUP3 SUB PUSH2 0x36C JUMPI JUMP JUMPDEST PUSH1 0x24 CALLDATALOAD SWAP1 PUSH1 0x1 PUSH1 0x1 PUSH1 0xA0 SHL SUB DUP3 AND DUP3 SUB PUSH2 0x36C JUMPI JUMP JUMPDEST PUSH1 0x24 CALLDATALOAD SWAP1 DUP2 ISZERO ISZERO DUP3 SUB PUSH2 0x36C JUMPI JUMP JUMPDEST PUSH1 0x40 SWAP1 PUSH1 0x3 NOT ADD SLT PUSH2 0x36C JUMPI PUSH1 0x4 CALLDATALOAD SWAP1 PUSH1 0x24 CALLDATALOAD SWAP1 JUMP JUMPDEST PUSH1 0x1 PUSH1 0x1 PUSH1 0x40 SHL SUB DUP2 GT PUSH2 0x1389 JUMPI PUSH1 0x1F ADD PUSH1 0x1F NOT AND PUSH1 0x20 ADD SWAP1 JUMP JUMPDEST SWAP3 SWAP2 SWAP3 PUSH2 0x4CA6 DUP3 PUSH2 0x4C7F JUMP JUMPDEST SWAP2 PUSH2 0x4CB4 PUSH1 0x40 MLOAD SWAP4 DUP5 PUSH2 0x4B1F JUMP JUMPDEST DUP3 SWAP5 DUP2 DUP5 MSTORE DUP2 DUP4 ADD GT PUSH2 0x36C JUMPI DUP3 DUP2 PUSH1 0x20 SWAP4 DUP5 PUSH1 0x0 SWAP7 ADD CALLDATACOPY ADD ADD MSTORE JUMP JUMPDEST SWAP1 DUP1 PUSH1 0x1F DUP4 ADD SLT ISZERO PUSH2 0x36C JUMPI DUP2 PUSH1 0x20 PUSH2 0x4CEC SWAP4 CALLDATALOAD SWAP2 ADD PUSH2 0x4C9A JUMP JUMPDEST SWAP1 JUMP JUMPDEST PUSH1 0x60 SWAP1 PUSH1 0x3 NOT ADD SLT PUSH2 0x36C JUMPI PUSH1 0x1 PUSH1 0x1 PUSH1 0xA0 SHL SUB SWAP1 PUSH1 0x4 CALLDATALOAD DUP3 DUP2 AND DUP2 SUB PUSH2 0x36C JUMPI SWAP2 PUSH1 0x24 CALLDATALOAD SWAP1 DUP2 AND DUP2 SUB PUSH2 0x36C JUMPI SWAP1 PUSH1 0x44 CALLDATALOAD SWAP1 JUMP JUMPDEST PUSH1 0x80 SWAP1 DUP2 PUSH1 0x1 PUSH1 0x1 PUSH1 0x80 SHL SUB SWAP2 DUP3 DUP2 MLOAD AND DUP6 MSTORE DUP3 PUSH1 0x20 DUP3 ADD MLOAD AND PUSH1 0x20 DUP7 ADD MSTORE DUP3 PUSH1 0x40 DUP3 ADD MLOAD AND PUSH1 0x40 DUP7 ADD MSTORE DUP3 PUSH1 0x60 DUP3 ADD MLOAD AND PUSH1 0x60 DUP7 ADD MSTORE ADD MLOAD AND SWAP2 ADD MSTORE JUMP JUMPDEST SWAP2 DUP2 PUSH1 0x1F DUP5 ADD SLT ISZERO PUSH2 0x36C JUMPI DUP3 CALLDATALOAD SWAP2 PUSH1 0x1 PUSH1 0x1 PUSH1 0x40 SHL SUB DUP4 GT PUSH2 0x36C JUMPI PUSH1 0x20 DUP4 DUP2 DUP7 ADD SWAP6 ADD ADD GT PUSH2 0x36C JUMPI JUMP JUMPDEST SWAP1 PUSH1 0x40 PUSH1 0x3 NOT DUP4 ADD SLT PUSH2 0x36C JUMPI PUSH1 0x4 CALLDATALOAD SWAP2 PUSH1 0x24 CALLDATALOAD SWAP1 PUSH1 0x1 PUSH1 0x1 PUSH1 0x40 SHL SUB DUP3 GT PUSH2 0x36C JUMPI PUSH2 0x4DBF SWAP2 PUSH1 0x4 ADD PUSH2 0x4D63 JUMP JUMPDEST SWAP1 SWAP2 JUMP JUMPDEST SWAP2 DUP2 PUSH1 0x1F DUP5 ADD SLT ISZERO PUSH2 0x36C JUMPI DUP3 CALLDATALOAD SWAP2 PUSH1 0x1 PUSH1 0x1 PUSH1 0x40 SHL SUB DUP4 GT PUSH2 0x36C JUMPI PUSH1 0x20 DUP1 DUP6 ADD SWAP5 DUP5 PUSH1 0x5 SHL ADD ADD GT PUSH2 0x36C JUMPI JUMP JUMPDEST PUSH1 0x20 SWAP1 DUP2 PUSH1 0x40 DUP2 DUP4 ADD SWAP3 DUP3 DUP2 MSTORE DUP6 MLOAD DUP1 SWAP5 MSTORE ADD SWAP4 ADD SWAP2 PUSH1 0x0 JUMPDEST DUP3 DUP2 LT PUSH2 0x4E1A JUMPI POP POP POP POP SWAP1 JUMP JUMPDEST DUP4 MLOAD DUP6 MSTORE SWAP4 DUP2 ADD SWAP4 SWAP3 DUP2 ADD SWAP3 PUSH1 0x1 ADD PUSH2 0x4E0C JUMP JUMPDEST DUP1 SLOAD DUP3 LT ISZERO PUSH2 0x32A2 JUMPI PUSH1 0x0 MSTORE PUSH1 0x20 PUSH1 0x0 KECCAK256 ADD SWAP1 PUSH1 0x0 SWAP1 JUMP JUMPDEST PUSH1 0x7 SLOAD PUSH1 0x1 PUSH1 0x1 PUSH1 0xA0 SHL SUB AND CALLER SUB PUSH2 0x4E5A JUMPI JUMP JUMPDEST PUSH1 0x40 MLOAD PUSH4 0x118CDAA7 PUSH1 0xE0 SHL DUP2 MSTORE CALLER PUSH1 0x4 DUP3 ADD MSTORE PUSH1 0x24 SWAP1 REVERT JUMPDEST SWAP1 PUSH1 0x1 PUSH1 0x1 PUSH1 0xA0 SHL SUB SWAP1 DUP2 AND DUP1 ISZERO PUSH2 0x571 JUMPI PUSH1 0x0 SWAP2 DUP5 DUP4 MSTORE DUP5 PUSH1 0x20 SWAP3 PUSH1 0x2 DUP5 MSTORE PUSH1 0x40 SWAP4 DUP4 DUP6 DUP8 KECCAK256 SLOAD AND SWAP6 DUP7 SWAP2 CALLER ISZERO ISZERO DUP1 PUSH2 0x4F6C JUMPI JUMPDEST POP SWAP1 PUSH1 0x2 PUSH32 0xDDF252AD1BE2C89B69C2B068FC378DAA952BA7F163C4A11628F55A4DF523B3EF SWAP3 DUP5 PUSH2 0x4F39 JUMPI JUMPDEST DUP6 DUP4 MSTORE PUSH1 0x3 DUP2 MSTORE DUP9 DUP4 KECCAK256 DUP1 SLOAD PUSH1 0x1 ADD SWAP1 SSTORE DUP7 DUP4 MSTORE MSTORE DUP7 DUP2 KECCAK256 DUP1 SLOAD PUSH1 0x1 PUSH1 0x1 PUSH1 0xA0 SHL SUB NOT AND DUP6 OR SWAP1 SSTORE DUP1 LOG4 DUP4 AND DUP3 SUB PUSH2 0x4F0B JUMPI POP POP POP POP JUMP JUMPDEST MLOAD PUSH4 0x64283D7B PUSH1 0xE0 SHL DUP2 MSTORE PUSH1 0x1 PUSH1 0x1 PUSH1 0xA0 SHL SUB SWAP3 DUP4 AND PUSH1 0x4 DUP3 ADD MSTORE PUSH1 0x24 DUP2 ADD SWAP4 SWAP1 SWAP4 MSTORE AND PUSH1 0x44 DUP3 ADD MSTORE PUSH1 0x64 SWAP1 REVERT JUMPDEST PUSH1 0x0 DUP8 DUP2 MSTORE PUSH1 0x4 PUSH1 0x20 MSTORE PUSH1 0x40 SWAP1 KECCAK256 DUP1 SLOAD PUSH1 0x1 PUSH1 0x1 PUSH1 0xA0 SHL SUB NOT AND SWAP1 SSTORE DUP5 DUP4 MSTORE PUSH1 0x3 DUP2 MSTORE DUP9 DUP4 KECCAK256 DUP1 SLOAD PUSH1 0x0 NOT ADD SWAP1 SSTORE PUSH2 0x4ED3 JUMP JUMPDEST SWAP2 SWAP4 SWAP5 POP SWAP2 POP DUP1 PUSH2 0x4FC1 JUMPI JUMPDEST ISZERO PUSH2 0x4F88 JUMPI DUP8 SWAP3 SWAP2 DUP7 SWAP2 CODESIZE PUSH2 0x4EA7 JUMP JUMPDEST DUP5 DUP9 DUP8 PUSH2 0x4FA5 JUMPI PUSH1 0x24 SWAP2 MLOAD SWAP1 PUSH4 0x7E273289 PUSH1 0xE0 SHL DUP3 MSTORE PUSH1 0x4 DUP3 ADD MSTORE REVERT JUMPDEST PUSH1 0x44 SWAP2 MLOAD SWAP1 PUSH4 0x177E802F PUSH1 0xE0 SHL DUP3 MSTORE CALLER PUSH1 0x4 DUP4 ADD MSTORE PUSH1 0x24 DUP3 ADD MSTORE REVERT JUMPDEST POP CALLER DUP7 EQ DUP1 ISZERO PUSH2 0x4FE6 JUMPI JUMPDEST DUP1 PUSH2 0x4F78 JUMPI POP DUP8 DUP3 MSTORE PUSH1 0x4 DUP2 MSTORE CALLER DUP5 DUP7 DUP5 KECCAK256 SLOAD AND EQ PUSH2 0x4F78 JUMP JUMPDEST POP DUP6 DUP3 MSTORE PUSH1 0x5 DUP2 MSTORE DUP5 DUP3 KECCAK256 CALLER DUP4 MSTORE DUP2 MSTORE PUSH1 0xFF DUP6 DUP4 KECCAK256 SLOAD AND PUSH2 0x4FCC JUMP JUMPDEST PUSH1 0x0 DUP3 DUP2 MSTORE PUSH1 0x2 PUSH1 0x20 MSTORE PUSH1 0x40 DUP2 KECCAK256 SLOAD PUSH1 0x1 PUSH1 0x1 PUSH1 0xA0 SHL SUB SWAP1 DUP2 AND SWAP4 SWAP3 DUP5 SWAP2 PUSH32 0xDDF252AD1BE2C89B69C2B068FC378DAA952BA7F163C4A11628F55A4DF523B3EF SWAP2 DUP4 PUSH2 0x5089 JUMPI JUMPDEST AND SWAP3 DUP4 PUSH2 0x5071 JUMPI JUMPDEST DUP5 DUP2 MSTORE PUSH1 0x2 PUSH1 0x20 MSTORE PUSH1 0x40 DUP2 KECCAK256 DUP1 SLOAD PUSH1 0x1 PUSH1 0x1 PUSH1 0xA0 SHL SUB NOT AND DUP6 OR SWAP1 SSTORE DUP1 LOG4 SWAP1 JUMP JUMPDEST DUP4 DUP2 MSTORE PUSH1 0x3 PUSH1 0x20 MSTORE PUSH1 0x40 DUP2 KECCAK256 PUSH1 0x1 DUP2 SLOAD ADD SWAP1 SSTORE PUSH2 0x5050 JUMP JUMPDEST PUSH1 0x0 DUP7 DUP2 MSTORE PUSH1 0x4 PUSH1 0x20 MSTORE PUSH1 0x40 SWAP1 KECCAK256 DUP1 SLOAD PUSH1 0x1 PUSH1 0x1 PUSH1 0xA0 SHL SUB NOT AND SWAP1 SSTORE DUP4 DUP6 MSTORE PUSH1 0x3 PUSH1 0x20 MSTORE PUSH1 0x40 DUP6 KECCAK256 DUP1 SLOAD PUSH1 0x0 NOT ADD SWAP1 SSTORE PUSH2 0x5048 JUMP JUMPDEST PUSH1 0x0 DUP2 DUP2 MSTORE PUSH1 0x2 PUSH1 0x20 MSTORE PUSH1 0x40 SWAP1 KECCAK256 SLOAD PUSH1 0x1 PUSH1 0x1 PUSH1 0xA0 SHL SUB AND SWAP1 DUP2 ISZERO PUSH2 0x50E1 JUMPI POP SWAP1 JUMP JUMPDEST PUSH1 0x24 SWAP1 PUSH1 0x40 MLOAD SWAP1 PUSH4 0x7E273289 PUSH1 0xE0 SHL DUP3 MSTORE PUSH1 0x4 DUP3 ADD MSTORE REVERT JUMPDEST RETURNDATASIZE ISZERO PUSH2 0x5124 JUMPI RETURNDATASIZE SWAP1 PUSH2 0x510A DUP3 PUSH2 0x4C7F JUMP JUMPDEST SWAP2 PUSH2 0x5118 PUSH1 0x40 MLOAD SWAP4 DUP5 PUSH2 0x4B1F JUMP JUMPDEST DUP3 MSTORE RETURNDATASIZE PUSH1 0x0 PUSH1 0x20 DUP5 ADD RETURNDATACOPY JUMP JUMPDEST PUSH1 0x60 SWAP1 JUMP JUMPDEST SWAP3 SWAP4 DUP3 EXTCODESIZE PUSH2 0x5139 JUMPI JUMPDEST POP POP POP POP POP JUMP JUMPDEST PUSH2 0x517D SWAP1 PUSH1 0x1 DUP1 PUSH1 0xA0 SHL SUB DUP1 SWAP5 AND SWAP6 PUSH1 0x40 MLOAD SWAP5 DUP6 SWAP5 DUP2 PUSH4 0xA85BD01 PUSH1 0xE1 SHL SWAP9 DUP10 DUP9 MSTORE AND PUSH1 0x4 DUP8 ADD MSTORE AND PUSH1 0x24 DUP6 ADD MSTORE PUSH1 0x44 DUP5 ADD MSTORE PUSH1 0x80 PUSH1 0x64 DUP5 ADD MSTORE PUSH1 0x84 DUP4 ADD SWAP1 PUSH2 0x4C09 JUMP JUMPDEST SUB SWAP1 PUSH1 0x20 DUP2 PUSH1 0x0 SWAP4 DUP2 DUP6 DUP9 GAS CALL SWAP1 DUP3 SWAP1 DUP3 PUSH2 0x51FD JUMPI JUMPDEST POP POP PUSH2 0x51CB JUMPI DUP3 PUSH2 0x51A2 PUSH2 0x50F9 JUMP JUMPDEST DUP1 MLOAD SWAP2 SWAP1 DUP3 PUSH2 0x51C4 JUMPI PUSH1 0x40 MLOAD PUSH4 0x32505749 PUSH1 0xE1 SHL DUP2 MSTORE PUSH1 0x4 DUP2 ADD DUP4 SWAP1 MSTORE PUSH1 0x24 SWAP1 REVERT JUMPDEST PUSH1 0x20 SWAP2 POP ADD REVERT JUMPDEST PUSH1 0x1 PUSH1 0x1 PUSH1 0xE0 SHL SUB NOT AND SUB PUSH2 0x51E5 JUMPI POP CODESIZE DUP1 DUP1 DUP1 DUP1 PUSH2 0x5132 JUMP JUMPDEST PUSH1 0x24 SWAP1 PUSH1 0x40 MLOAD SWAP1 PUSH4 0x32505749 PUSH1 0xE1 SHL DUP3 MSTORE PUSH1 0x4 DUP3 ADD MSTORE REVERT JUMPDEST SWAP1 SWAP2 SWAP3 POP PUSH1 0x20 DUP2 RETURNDATASIZE DUP3 GT PUSH2 0x5244 JUMPI JUMPDEST DUP2 PUSH2 0x5219 PUSH1 0x20 SWAP4 DUP4 PUSH2 0x4B1F JUMP JUMPDEST DUP2 ADD SUB SLT PUSH2 0x5240 JUMPI MLOAD SWAP1 PUSH1 0x1 PUSH1 0x1 PUSH1 0xE0 SHL SUB NOT DUP3 AND DUP3 SUB PUSH2 0x523D JUMPI POP SWAP1 CODESIZE DUP1 PUSH2 0x5193 JUMP JUMPDEST DUP1 REVERT JUMPDEST POP DUP1 REVERT JUMPDEST RETURNDATASIZE SWAP2 POP PUSH2 0x520C JUMP JUMPDEST PUSH1 0x0 NOT DUP2 EQ PUSH2 0x525B JUMPI PUSH1 0x1 ADD SWAP1 JUMP JUMPDEST PUSH4 0x4E487B71 PUSH1 0xE0 SHL PUSH1 0x0 MSTORE PUSH1 0x11 PUSH1 0x4 MSTORE PUSH1 0x24 PUSH1 0x0 REVERT JUMPDEST SWAP1 PUSH1 0x1F DUP2 GT PUSH2 0x527F JUMPI POP POP POP JUMP JUMPDEST PUSH1 0x0 SWAP2 DUP3 MSTORE PUSH1 0x20 DUP3 KECCAK256 SWAP1 PUSH1 0x20 PUSH1 0x1F DUP6 ADD PUSH1 0x5 SHR DUP4 ADD SWAP5 LT PUSH2 0x52BB JUMPI JUMPDEST PUSH1 0x1F ADD PUSH1 0x5 SHR ADD SWAP2 JUMPDEST DUP3 DUP2 LT PUSH2 0x52B0 JUMPI POP POP POP JUMP JUMPDEST DUP2 DUP2 SSTORE PUSH1 0x1 ADD PUSH2 0x52A4 JUMP JUMPDEST SWAP1 SWAP3 POP DUP3 SWAP1 PUSH2 0x529B JUMP JUMPDEST SWAP1 CALLDATALOAD SWAP1 PUSH1 0x1E NOT DUP2 CALLDATASIZE SUB ADD DUP3 SLT ISZERO PUSH2 0x36C JUMPI ADD DUP1 CALLDATALOAD SWAP1 PUSH1 0x1 PUSH1 0x1 PUSH1 0x40 SHL SUB DUP3 GT PUSH2 0x36C JUMPI PUSH1 0x20 ADD SWAP2 DUP2 CALLDATASIZE SUB DUP4 SGT PUSH2 0x36C JUMPI JUMP JUMPDEST DUP1 SLOAD PUSH9 0x10000000000000000 DUP2 LT ISZERO PUSH2 0x1389 JUMPI PUSH2 0x5319 SWAP2 PUSH1 0x1 DUP3 ADD DUP2 SSTORE PUSH2 0x4E2E JUMP JUMPDEST DUP2 SWAP3 SWAP2 SLOAD SWAP1 PUSH1 0x3 SHL SWAP2 DUP3 SHL SWAP2 PUSH1 0x0 NOT SWAP1 SHL NOT AND OR SWAP1 SSTORE JUMP JUMPDEST SWAP1 DUP1 PUSH1 0x20 SWAP4 SWAP3 DUP2 DUP5 MSTORE DUP5 DUP5 ADD CALLDATACOPY PUSH1 0x0 DUP3 DUP3 ADD DUP5 ADD MSTORE PUSH1 0x1F ADD PUSH1 0x1F NOT AND ADD ADD SWAP1 JUMP JUMPDEST PUSH1 0x40 SWAP2 DUP3 MLOAD PUSH2 0x5360 DUP2 PUSH2 0x4B04 JUMP JUMPDEST PUSH1 0x0 DUP1 DUP3 MSTORE PUSH1 0x1 PUSH1 0x1 PUSH1 0xA0 SHL SUB DUP5 DUP2 AND SWAP5 SWAP2 SWAP3 SWAP2 SWAP1 DUP6 ISZERO PUSH2 0x54B0 JUMPI PUSH2 0x5385 DUP6 DUP4 PUSH2 0x5002 JUMP JUMPDEST AND PUSH2 0x5498 JUMPI EXTCODESIZE PUSH2 0x5396 JUMPI POP POP POP POP POP JUMP JUMPDEST PUSH1 0x20 PUSH2 0x53D3 SWAP2 DUP7 SWAP8 SWAP6 SWAP7 MLOAD DUP1 SWAP4 DUP2 SWAP3 PUSH4 0xA85BD01 PUSH1 0xE1 SHL SWAP8 DUP9 DUP5 MSTORE CALLER PUSH1 0x4 DUP6 ADD MSTORE DUP8 PUSH1 0x24 DUP6 ADD MSTORE PUSH1 0x44 DUP5 ADD MSTORE PUSH1 0x80 PUSH1 0x64 DUP5 ADD MSTORE PUSH1 0x84 DUP4 ADD SWAP1 PUSH2 0x4C09 JUMP JUMPDEST SUB DUP2 DUP6 DUP10 GAS CALL SWAP1 DUP3 SWAP1 DUP3 PUSH2 0x5450 JUMPI JUMPDEST POP POP PUSH2 0x541B JUMPI POP POP POP PUSH2 0x53F3 PUSH2 0x50F9 JUMP JUMPDEST DUP1 MLOAD SWAP3 SWAP1 DUP4 PUSH2 0x5414 JUMPI DUP2 MLOAD PUSH4 0x32505749 PUSH1 0xE1 SHL DUP2 MSTORE PUSH1 0x4 DUP2 ADD DUP5 SWAP1 MSTORE PUSH1 0x24 SWAP1 REVERT JUMPDEST PUSH1 0x20 DUP5 SWAP2 ADD REVERT JUMPDEST SWAP2 SWAP4 SWAP2 PUSH1 0x1 PUSH1 0x1 PUSH1 0xE0 SHL SUB NOT AND SUB PUSH2 0x5439 JUMPI POP POP CODESIZE DUP1 DUP1 DUP1 DUP1 PUSH2 0x5132 JUMP JUMPDEST PUSH1 0x24 SWAP3 POP MLOAD SWAP1 PUSH4 0x32505749 PUSH1 0xE1 SHL DUP3 MSTORE PUSH1 0x4 DUP3 ADD MSTORE REVERT JUMPDEST SWAP1 SWAP2 SWAP3 POP PUSH1 0x20 DUP2 RETURNDATASIZE DUP3 GT PUSH2 0x5490 JUMPI JUMPDEST DUP2 PUSH2 0x546C PUSH1 0x20 SWAP4 DUP4 PUSH2 0x4B1F JUMP JUMPDEST DUP2 ADD SUB SLT PUSH2 0x5240 JUMPI MLOAD SWAP1 PUSH1 0x1 PUSH1 0x1 PUSH1 0xE0 SHL SUB NOT DUP3 AND DUP3 SUB PUSH2 0x523D JUMPI POP SWAP1 CODESIZE DUP1 PUSH2 0x53E2 JUMP JUMPDEST RETURNDATASIZE SWAP2 POP PUSH2 0x545F JUMP JUMPDEST DUP6 MLOAD PUSH4 0x39E35637 PUSH1 0xE1 SHL DUP2 MSTORE PUSH1 0x4 DUP2 ADD DUP5 SWAP1 MSTORE PUSH1 0x24 SWAP1 REVERT JUMPDEST DUP7 MLOAD PUSH4 0x32505749 PUSH1 0xE1 SHL DUP2 MSTORE PUSH1 0x4 DUP2 ADD DUP6 SWAP1 MSTORE PUSH1 0x24 SWAP1 REVERT JUMPDEST SWAP2 SWAP1 SWAP2 PUSH1 0x0 SWAP1 DUP1 DUP3 MSTORE PUSH1 0x20 SWAP2 PUSH1 0x6 DUP4 MSTORE PUSH1 0x40 DUP2 KECCAK256 SWAP1 DUP6 MLOAD SWAP1 PUSH1 0x1 PUSH1 0x1 PUSH1 0x40 SHL SUB DUP3 GT PUSH2 0x55E6 JUMPI PUSH2 0x5502 DUP3 PUSH2 0x54FC DUP6 SLOAD PUSH2 0x4A79 JUMP JUMPDEST DUP6 PUSH2 0x5271 JUMP JUMPDEST DUP5 SWAP1 PUSH1 0x1F DUP4 GT PUSH1 0x1 EQ PUSH2 0x5562 JUMPI SWAP1 PUSH32 0xF8E1A15ABA9398E019F0B49DF1A4FDE98EE17AE345CB5F6B5E2C27F5033E8CE7 SWAP7 SWAP8 DUP4 PUSH2 0x5557 JUMPI JUMPDEST POP POP DUP2 PUSH1 0x1 SHL SWAP2 PUSH1 0x0 NOT SWAP1 PUSH1 0x3 SHL SHR NOT AND OR SWAP1 SSTORE JUMPDEST PUSH1 0x40 MLOAD SWAP1 DUP2 MSTORE LOG1 JUMP JUMPDEST ADD MLOAD SWAP1 POP CODESIZE DUP1 PUSH2 0x5539 JUMP JUMPDEST SWAP2 SWAP7 PUSH1 0x1F NOT DUP9 AND DUP5 DUP5 MSTORE DUP7 DUP5 KECCAK256 SWAP4 JUMPDEST DUP2 DUP2 LT PUSH2 0x55CF JUMPI POP SWAP2 PUSH1 0x1 SWAP4 SWAP2 DUP10 PUSH32 0xF8E1A15ABA9398E019F0B49DF1A4FDE98EE17AE345CB5F6B5E2C27F5033E8CE7 SWAP10 SWAP11 SWAP5 LT PUSH2 0x55B6 JUMPI JUMPDEST POP POP POP DUP2 SHL ADD SWAP1 SSTORE PUSH2 0x554E JUMP JUMPDEST ADD MLOAD PUSH1 0x0 NOT PUSH1 0xF8 DUP5 PUSH1 0x3 SHL AND SHR NOT AND SWAP1 SSTORE CODESIZE DUP1 DUP1 PUSH2 0x55A9 JUMP JUMPDEST SWAP3 SWAP4 DUP8 PUSH1 0x1 DUP2 SWAP3 DUP8 DUP7 ADD MLOAD DUP2 SSTORE ADD SWAP6 ADD SWAP4 ADD PUSH2 0x5571 JUMP JUMPDEST PUSH4 0x4E487B71 PUSH1 0xE0 SHL DUP2 MSTORE PUSH1 0x41 PUSH1 0x4 MSTORE PUSH1 0x24 SWAP1 REVERT JUMPDEST PUSH1 0xFF PUSH1 0x9 SLOAD AND PUSH2 0x5606 JUMPI JUMP JUMPDEST PUSH1 0x40 MLOAD PUSH4 0xD93C0665 PUSH1 0xE0 SHL DUP2 MSTORE PUSH1 0x4 SWAP1 REVERT JUMPDEST SWAP2 SWAP1 DUP3 ADD DUP1 SWAP3 GT PUSH2 0x525B JUMPI JUMP JUMPDEST PUSH1 0x1 PUSH1 0x1 PUSH1 0x40 SHL SUB DUP2 GT PUSH2 0x1389 JUMPI PUSH1 0x5 SHL PUSH1 0x20 ADD SWAP1 JUMP JUMPDEST SWAP2 SWAP1 DUP2 LT ISZERO PUSH2 0x32A2 JUMPI PUSH1 0x5 SHL ADD SWAP1 JUMP JUMPDEST SWAP1 DUP3 LT ISZERO PUSH2 0x32A2 JUMPI PUSH2 0x4DBF SWAP2 PUSH1 0x5 SHL DUP2 ADD SWAP1 PUSH2 0x52C5 JUMP JUMPDEST SWAP2 SWAP1 DUP3 SUB SWAP2 DUP3 GT PUSH2 0x525B JUMPI JUMP JUMPDEST PUSH1 0x2 PUSH1 0x8 SLOAD EQ PUSH2 0x5681 JUMPI PUSH1 0x2 PUSH1 0x8 SSTORE JUMP JUMPDEST PUSH1 0x40 MLOAD PUSH4 0x3EE5AEB5 PUSH1 0xE0 SHL DUP2 MSTORE PUSH1 0x4 SWAP1 REVERT JUMPDEST PUSH1 0x40 MLOAD SWAP1 PUSH2 0x56A0 DUP3 PUSH2 0x4AE9 JUMP JUMPDEST PUSH1 0x0 PUSH1 0x80 DUP4 DUP3 DUP2 MSTORE DUP3 PUSH1 0x20 DUP3 ADD MSTORE DUP3 PUSH1 0x40 DUP3 ADD MSTORE DUP3 PUSH1 0x60 DUP3 ADD MSTORE ADD MSTORE JUMP JUMPDEST PUSH1 0x1 PUSH1 0x1 PUSH1 0x80 SHL SUB DUP1 SWAP2 AND SWAP1 DUP2 EQ PUSH2 0x525B JUMPI PUSH1 0x1 ADD SWAP1 JUMP JUMPDEST PUSH1 0x1 PUSH1 0x1 PUSH1 0x80 SHL SUB PUSH1 0x1B SLOAD SWAP2 AND SWAP1 DUP2 LT ISZERO PUSH2 0x571E JUMPI PUSH1 0x1A SLOAD DUP2 LT ISZERO PUSH2 0x5718 JUMPI PUSH1 0x19 SLOAD DUP2 LT ISZERO PUSH2 0x5712 JUMPI PUSH1 0x18 SLOAD GT ISZERO PUSH2 0x570D JUMPI PUSH1 0x0 SWAP1 JUMP JUMPDEST PUSH1 0x1 SWAP1 JUMP JUMPDEST POP PUSH1 0x2 SWAP1 JUMP JUMPDEST POP PUSH1 0x3 SWAP1 JUMP JUMPDEST POP PUSH1 0x4 SWAP1 JUMP JUMPDEST DUP2 DUP2 MUL SWAP3 SWAP2 DUP2 ISZERO SWAP2 DUP5 DIV EQ OR ISZERO PUSH2 0x525B JUMPI JUMP JUMPDEST SWAP1 PUSH1 0x40 MLOAD PUSH2 0x5744 DUP2 PUSH2 0x4AE9 JUMP JUMPDEST PUSH1 0x80 DUP2 SWAP4 PUSH1 0x2 DUP2 SLOAD SWAP2 PUSH1 0x1 PUSH1 0x1 PUSH1 0x80 SHL SUB SWAP3 DUP4 DUP2 AND DUP7 MSTORE DUP5 SHR PUSH1 0x20 DUP7 ADD MSTORE PUSH1 0x1 DUP2 ADD SLOAD DUP4 DUP2 AND PUSH1 0x40 DUP8 ADD MSTORE DUP5 SHR PUSH1 0x60 DUP7 ADD MSTORE ADD SLOAD AND SWAP2 ADD MSTORE JUMP JUMPDEST ISZERO PUSH2 0x5785 JUMPI JUMP JUMPDEST PUSH1 0x40 MLOAD PUSH3 0x461BCD PUSH1 0xE5 SHL DUP2 MSTORE PUSH1 0x20 PUSH1 0x4 DUP3 ADD MSTORE PUSH1 0x7 PUSH1 0x24 DUP3 ADD MSTORE PUSH7 0x4D617820313025 PUSH1 0xC8 SHL PUSH1 0x44 DUP3 ADD MSTORE PUSH1 0x64 SWAP1 REVERT JUMPDEST DUP1 ISZERO PUSH2 0x585C JUMPI DUP1 DUP2 PUSH1 0x0 SWAP3 JUMPDEST PUSH2 0x5846 JUMPI POP PUSH2 0x57CE DUP3 PUSH2 0x4C7F JUMP JUMPDEST SWAP2 PUSH2 0x57DC PUSH1 0x40 MLOAD SWAP4 DUP5 PUSH2 0x4B1F JUMP JUMPDEST DUP1 DUP4 MSTORE DUP2 PUSH1 0x1F NOT PUSH2 0x57EC DUP4 PUSH2 0x4C7F JUMP JUMPDEST ADD CALLDATASIZE PUSH1 0x20 DUP7 ADD CALLDATACOPY JUMPDEST PUSH2 0x57FD JUMPI POP POP SWAP1 JUMP JUMPDEST SWAP1 PUSH1 0x0 NOT DUP3 ADD SWAP1 DUP3 DUP3 GT PUSH2 0x525B JUMPI DUP2 SWAP3 PUSH1 0xA SWAP3 PUSH1 0x30 SWAP1 DUP5 DUP5 MOD DUP3 ADD DUP1 SWAP3 GT PUSH2 0x525B JUMPI DUP7 MLOAD GT ISZERO PUSH2 0x32A2 JUMPI PUSH1 0xF8 SHL PUSH1 0x1 PUSH1 0x1 PUSH1 0xF8 SHL SUB NOT AND PUSH1 0x0 BYTE SWAP1 DUP6 ADD PUSH1 0x1F ADD MSTORE8 DIV SWAP1 DUP2 PUSH2 0x57F4 JUMP JUMPDEST SWAP1 SWAP2 PUSH2 0x5853 PUSH1 0xA SWAP2 PUSH2 0x524C JUMP JUMPDEST SWAP3 SWAP2 DIV DUP1 PUSH2 0x57C0 JUMP JUMPDEST POP PUSH1 0x40 MLOAD PUSH1 0x40 DUP2 ADD DUP2 DUP2 LT PUSH1 0x1 PUSH1 0x1 PUSH1 0x40 SHL SUB DUP3 GT OR PUSH2 0x1389 JUMPI PUSH1 0x40 MSTORE PUSH1 0x1 DUP2 MSTORE PUSH1 0x3 PUSH1 0xFC SHL PUSH1 0x20 DUP3 ADD MSTORE SWAP1 JUMP INVALID 0xE9 0x4E 0xBD 0xA6 PUSH13 0xC86267DBC220471B245EB48BF7 0x2F SWAP9 PUSH2 0x949E COINBASE 0x21 SWAP10 PUSH26 0x2EB5E8AEB0A2646970667358221220EF596A11B194150BA98F5B 0xEF POP 0xB7 JUMPI CREATE2 SWAP1 SWAP13 0xAC 0xBC 0x27 0xB2 SLT 0xF6 MULMOD JUMPDEST 0xBF OR PUSH29 0x478D7A64736F6C63430008140033000000000000000000000000000000 "},"methodIdentifiers":{"GENESIS_MAX()":"925d886b","approve(address,uint256)":"095ea7b3","balanceOf(address)":"70a08231","batchMintGenesis(address,string[],bytes32[],string[],bytes32[],string[],(string,string,string,string,string,bytes32)[])":"675b22ae","battleResolver()":"57302cd4","buyNFA(uint256)":"fa3ec78d","cancelListing(uint256)":"305a67a8","circuitBreakerLosses()":"175485ed","creatorRoyaltyBps()":"e96c6617","enableLearning(uint256,address)":"7ab1d4ef","evolve(uint256)":"f119f567","executeAction(uint256,bytes)":"55150c16","fundAgent(uint256)":"ef03c6db","genesisCount()":"fffad312","getAgentMetadata(uint256)":"59295330","getApproved(uint256)":"081812fc","getBattleStats(uint256)":"2f6f343a","getLearningData(uint256)":"f94ab2ec","getListing(uint256)":"107a274a","getNFA(uint256)":"ca21866a","getNFAsByStrategy(bytes32)":"f22f96af","getState(uint256)":"44c9af28","getStrategy(uint256)":"cfc0cc34","isApprovedForAll(address,address)":"e985e9c5","listForSale(uint256,uint256)":"e80d7fec","listings(uint256)":"de74e57b","mint(bytes32,string,string,bytes32,string,(string,string,string,string,string,bytes32))":"b349b801","mintFee()":"13966db5","mintGenesis(address,string,bytes32,string,bytes32,string,(string,string,string,string,string,bytes32))":"d0ac9208","minters(address)":"f46eccc4","name()":"06fdde03","openMinting()":"6ba9fd38","owner()":"8da5cb5b","ownerOf(uint256)":"6352211e","pause()":"8456cb59","pauseAgent(uint256)":"6ac18987","paused()":"5c975abb","platformFeeBps()":"22dcd13e","recordBattle(uint256,uint256,bool,string)":"64cb04ac","renounceOwnership()":"715018a6","safeTransferFrom(address,address,uint256)":"42842e0e","safeTransferFrom(address,address,uint256,bytes)":"b88d4fde","setApprovalForAll(address,bool)":"a22cb465","setBattleResolver(address)":"d0d7d9c5","setCircuitBreakerLosses(uint256)":"28778030","setCreatorRoyaltyBps(uint256)":"03a9ebf4","setLogicAddress(uint256,address)":"4590ae21","setMintFee(uint256)":"eddd0d9c","setMinter(address,bool)":"cf456ae7","setOpenMinting(bool)":"0ccba3e9","setPlatformFeeBps(uint256)":"c580c942","setTierBaseURI(uint8,string)":"6963aca8","setTierThreshold(uint256,uint256)":"0f96fd79","setTreasury(address)":"f0f44260","strategyNFAs(bytes32,uint256)":"80866d83","supportsInterface(bytes4)":"01ffc9a7","symbol()":"95d89b41","terminate(uint256)":"7a828b28","tierBaseURIs(uint8)":"06c8c525","tierThresholds(uint256)":"a100d69d","tokenURI(uint256)":"c87b56dd","totalSupply()":"18160ddd","transferFrom(address,address,uint256)":"23b872dd","transferOwnership(address)":"f2fde38b","treasury()":"61d027b3","unpause()":"3f4ba83a","unpauseAgent(uint256)":"676fc6dc","updateAgentMetadata(uint256,(string,string,string,string,string,bytes32))":"1af41d4d","updateLearningRoot(uint256,bytes32)":"f09d7441","verifyPrompt(uint256,string)":"8a45664e","verifyStrategy(uint256,string)":"48d34dc3","withdrawFees()":"476343ee","withdrawFromAgent(uint256,uint256)":"2787a4c6"}}}}}