{"contracts/GemBotsLearning.sol":{"GemBotsLearning":{"abi":[{"inputs":[{"internalType":"address","name":"_nfaContract","type":"address"}],"stateMutability":"nonpayable","type":"constructor"},{"inputs":[],"name":"InvalidRoot","type":"error"},{"inputs":[],"name":"NotAuthorized","type":"error"},{"inputs":[{"internalType":"address","name":"owner","type":"address"}],"name":"OwnableInvalidOwner","type":"error"},{"inputs":[{"internalType":"address","name":"account","type":"address"}],"name":"OwnableUnauthorizedAccount","type":"error"},{"inputs":[],"name":"RootMismatch","type":"error"},{"anonymous":false,"inputs":[{"indexed":true,"internalType":"uint256","name":"tokenId","type":"uint256"},{"indexed":false,"internalType":"address","name":"module","type":"address"}],"name":"LearningModuleRegistered","type":"event"},{"anonymous":false,"inputs":[{"indexed":true,"internalType":"uint256","name":"tokenId","type":"uint256"},{"indexed":false,"internalType":"bytes32","name":"oldRoot","type":"bytes32"},{"indexed":false,"internalType":"bytes32","name":"newRoot","type":"bytes32"}],"name":"LearningUpdated","type":"event"},{"anonymous":false,"inputs":[{"indexed":true,"internalType":"address","name":"previousOwner","type":"address"},{"indexed":true,"internalType":"address","name":"newOwner","type":"address"}],"name":"OwnershipTransferred","type":"event"},{"inputs":[{"internalType":"uint256[]","name":"tokenIds","type":"uint256[]"},{"internalType":"bytes32[]","name":"newRoots","type":"bytes32[]"}],"name":"batchUpdateRoots","outputs":[],"stateMutability":"nonpayable","type":"function"},{"inputs":[{"internalType":"uint256","name":"tokenId","type":"uint256"}],"name":"getLearningMetrics","outputs":[{"components":[{"internalType":"uint256","name":"totalInteractions","type":"uint256"},{"internalType":"uint256","name":"learningEvents","type":"uint256"},{"internalType":"uint256","name":"lastUpdateTimestamp","type":"uint256"},{"internalType":"uint256","name":"learningVelocity","type":"uint256"},{"internalType":"uint256","name":"confidenceScore","type":"uint256"}],"internalType":"struct ILearningModule.LearningMetrics","name":"","type":"tuple"}],"stateMutability":"view","type":"function"},{"inputs":[{"internalType":"uint256","name":"tokenId","type":"uint256"}],"name":"getLearningRoot","outputs":[{"internalType":"bytes32","name":"","type":"bytes32"}],"stateMutability":"view","type":"function"},{"inputs":[],"name":"nfaContract","outputs":[{"internalType":"address","name":"","type":"address"}],"stateMutability":"view","type":"function"},{"inputs":[],"name":"owner","outputs":[{"internalType":"address","name":"","type":"address"}],"stateMutability":"view","type":"function"},{"inputs":[{"internalType":"uint256","name":"tokenId","type":"uint256"}],"name":"recordInteraction","outputs":[],"stateMutability":"nonpayable","type":"function"},{"inputs":[],"name":"renounceOwnership","outputs":[],"stateMutability":"nonpayable","type":"function"},{"inputs":[{"internalType":"address","name":"_nfa","type":"address"}],"name":"setNFAContract","outputs":[],"stateMutability":"nonpayable","type":"function"},{"inputs":[{"internalType":"address","name":"_updater","type":"address"},{"internalType":"bool","name":"_authorized","type":"bool"}],"name":"setUpdater","outputs":[],"stateMutability":"nonpayable","type":"function"},{"inputs":[{"internalType":"address","name":"newOwner","type":"address"}],"name":"transferOwnership","outputs":[],"stateMutability":"nonpayable","type":"function"},{"inputs":[{"internalType":"uint256","name":"tokenId","type":"uint256"},{"components":[{"internalType":"bytes32","name":"previousRoot","type":"bytes32"},{"internalType":"bytes32","name":"newRoot","type":"bytes32"},{"internalType":"bytes32","name":"proof","type":"bytes32"},{"internalType":"bytes","name":"metadata","type":"bytes"}],"internalType":"struct ILearningModule.LearningUpdate","name":"update","type":"tuple"}],"name":"updateLearning","outputs":[],"stateMutability":"nonpayable","type":"function"},{"inputs":[{"internalType":"address","name":"","type":"address"}],"name":"updaters","outputs":[{"internalType":"bool","name":"","type":"bool"}],"stateMutability":"view","type":"function"},{"inputs":[{"internalType":"uint256","name":"tokenId","type":"uint256"},{"internalType":"bytes32","name":"claim","type":"bytes32"},{"internalType":"bytes32[]","name":"proof","type":"bytes32[]"}],"name":"verifyLearning","outputs":[{"internalType":"bool","name":"","type":"bool"}],"stateMutability":"view","type":"function"}],"evm":{"bytecode":{"linkReferences":{},"object":"6080346100c657601f610b1338819003918201601f19168301916001600160401b038311848410176100cb578084926020946040528339810103126100c657516001600160a01b0390818116908190036100c65733156100ad5760005460018060a01b0319903382821617600055604051933391167f8be0079c531659141344cd1fd0a4f28419497f9722a3daafe3b4186f6b6457e0600080a36001541617600155610a3190816100e28239f35b604051631e4fbdf760e01b815260006004820152602490fd5b600080fd5b634e487b7160e01b600052604160045260246000fdfe6080604081815260048036101561001557600080fd5b600092833560e01c908163041b05ab146106445750806305d237b01461061b5780631a153391146105c55780635295760f146103c957806354a055c11461038b5780635d70a074146102ee5780636542d35c146102a05780636c54ba8b1461027a578063715018a6146102205780638da5cb5b146101f4578063a094bb241461018d578063e4135a86146101455763f2fde38b146100b257600080fd5b34610141576020366003190112610141576100cb6107dc565b906100d4610828565b6001600160a01b0391821692831561012b575050600054826bffffffffffffffffffffffff60a01b821617600055167f8be0079c531659141344cd1fd0a4f28419497f9722a3daafe3b4186f6b6457e0600080a380f35b51631e4fbdf760e01b8152908101849052602490fd5b8280fd5b833461018a57602036600319011261018a5761015f6107dc565b610167610828565b60018060a01b03166bffffffffffffffffffffffff60a01b600154161760015580f35b80fd5b503461014157602036600319011261014157338352600260205260ff828420541615806101e0575b6101d257358252600360205281206101cd8154610854565b905580f35b905163ea8e4eb560e01b8152fd5b5082546001600160a01b03163314156101b5565b50503461021c578160031936011261021c57905490516001600160a01b039091168152602090f35b5080fd5b833461018a578060031936011261018a57610239610828565b600080546001600160a01b0319811682556001600160a01b03167f8be0079c531659141344cd1fd0a4f28419497f9722a3daafe3b4186f6b6457e08280a380f35b503461014157602036600319011261014157602092818392358252845220549051908152f35b50913461018a57606036600319011261018a576044359067ffffffffffffffff821161018a57506020926102da6102e592369083016107f7565b9160243590356108cf565b90519015158152f35b50903461014157602036600319011261014157808360a0946080610310610899565b8281528260208201528285820152826060820152015283358152600360205220610338610899565b918154938484526001830154602085019081526080600285015492848701938452600386015495606088019687520154950194855282519586525160208601525190840152516060830152516080820152f35b50503461021c57602036600319011261021c5760209160ff9082906001600160a01b036103b66107dc565b1681526002855220541690519015158152f35b503461014157816003193601126101415767ffffffffffffffff9080358281116105c1576103fa90369083016107f7565b60249291929384359081116105bd5761041690369084016107f7565b91909333885260029560209487865260ff898b20541615806105a9575b61059b5784840361056957895b84811061044b578a80f35b61045681878a6109d5565b35610464575b600101610440565b61046f8186866109d5565b358b52818752898b205461048482888b6109d5565b356104908388886109d5565b358d528389528b8d20556104a58287876109d5565b358c52600388528a8c206104b98154610854565b8155600181016104c98154610854565b809155428c830155670de0b6b3a764000080820290828204148215171561055757606482018092116105575784936105458f92968c8f96828e8e61053e938e61053660019f9c7f66a420b2417e1183cd2d446f9d062281e74e2d2b3fb74ded512c39dc02e5247e9d610879565b9101556109d5565b35966109d5565b3582519182528c820152a2905061045c565b634e487b7160e01b8f5260118652868ffd5b600f606492878b519362461bcd60e51b85528401528201526e098cadccee8d040dad2e6dac2e8c6d608b1b6044820152fd5b885163ea8e4eb560e01b8152fd5b5089546001600160a01b0316331415610433565b8680fd5b8480fd5b50503461021c578060031936011261021c576105df6107dc565b9060243591821515809303610617576105f6610828565b60018060a01b03168352600260205282209060ff8019835416911617905580f35b8380fd5b50503461021c578160031936011261021c5760015490516001600160a01b039091168152602090f35b8491508334610141576003198181360112610617578435926024359167ffffffffffffffff83116107d85760809083360301126105c157338552600260205260ff838620541615806107c4575b6107b65750828452846020528184205480151590816107a8575b5061079857602401358015610788578284528460205281842090808254925560036020528285206106dc8154610854565b8155600181016106ec8154610854565b809155426002830155600181118061077f575b61077a575b670de0b6b3a76400008082029082820414821517156107675760648201809211610767577f66a420b2417e1183cd2d446f9d062281e74e2d2b3fb74ded512c39dc02e5247e9697989161075691610879565b91015582519182526020820152a280f35b634e487b7160e01b885260118952602488fd5b610704565b504215156106ff565b815163504570e360e01b81528590fd5b8151635ade045560e01b81528590fd5b9050818601351415866106ab565b63ea8e4eb560e01b81528590fd5b5084546001600160a01b0316331415610691565b8580fd5b600435906001600160a01b03821682036107f257565b600080fd5b9181601f840112156107f25782359167ffffffffffffffff83116107f2576020808501948460051b0101116107f257565b6000546001600160a01b0316330361083c57565b60405163118cdaa760e01b8152336004820152602490fd5b60001981146108635760010190565b634e487b7160e01b600052601160045260246000fd5b8115610883570490565b634e487b7160e01b600052601260045260246000fd5b6040519060a0820182811067ffffffffffffffff8211176108b957604052565b634e487b7160e01b600052604160045260246000fd5b909291936000918252602060048152604093848420549586156109ca5767ffffffffffffffff978883116109b65786519860059380851b91603f8301601f19168c019081118c8210176109a25789528a52848a019082019136831161099e578590915b83831061098e57505050509284935b88518510156109825784831b89018401519081811015610972578652835261096c8686205b94610854565b93610941565b908652835261096c868620610966565b95509650505050501490565b8235815291810191869101610932565b8780fd5b634e487b7160e01b89526041600452602489fd5b634e487b7160e01b86526041600452602486fd5b505050935091505090565b91908110156109e55760051b0190565b634e487b7160e01b600052603260045260246000fdfea264697066735822122075c003f8ddafd5543c6e9b82ab52d0e9e22beb77e920f231abd0a392c52067a664736f6c63430008140033","opcodes":"PUSH1 0x80 CALLVALUE PUSH2 0xC6 JUMPI PUSH1 0x1F PUSH2 0xB13 CODESIZE DUP2 SWAP1 SUB SWAP2 DUP3 ADD PUSH1 0x1F NOT AND DUP4 ADD SWAP2 PUSH1 0x1 PUSH1 0x1 PUSH1 0x40 SHL SUB DUP4 GT DUP5 DUP5 LT OR PUSH2 0xCB JUMPI DUP1 DUP5 SWAP3 PUSH1 0x20 SWAP5 PUSH1 0x40 MSTORE DUP4 CODECOPY DUP2 ADD SUB SLT PUSH2 0xC6 JUMPI MLOAD PUSH1 0x1 PUSH1 0x1 PUSH1 0xA0 SHL SUB SWAP1 DUP2 DUP2 AND SWAP1 DUP2 SWAP1 SUB PUSH2 0xC6 JUMPI CALLER ISZERO PUSH2 0xAD JUMPI PUSH1 0x0 SLOAD PUSH1 0x1 DUP1 PUSH1 0xA0 SHL SUB NOT SWAP1 CALLER DUP3 DUP3 AND OR PUSH1 0x0 SSTORE PUSH1 0x40 MLOAD SWAP4 CALLER SWAP2 AND PUSH32 0x8BE0079C531659141344CD1FD0A4F28419497F9722A3DAAFE3B4186F6B6457E0 PUSH1 0x0 DUP1 LOG3 PUSH1 0x1 SLOAD AND OR PUSH1 0x1 SSTORE PUSH2 0xA31 SWAP1 DUP2 PUSH2 0xE2 DUP3 CODECOPY RETURN JUMPDEST PUSH1 0x40 MLOAD PUSH4 0x1E4FBDF7 PUSH1 0xE0 SHL DUP2 MSTORE PUSH1 0x0 PUSH1 0x4 DUP3 ADD MSTORE PUSH1 0x24 SWAP1 REVERT JUMPDEST PUSH1 0x0 DUP1 REVERT JUMPDEST PUSH4 0x4E487B71 PUSH1 0xE0 SHL PUSH1 0x0 MSTORE PUSH1 0x41 PUSH1 0x4 MSTORE PUSH1 0x24 PUSH1 0x0 REVERT INVALID PUSH1 0x80 PUSH1 0x40 DUP2 DUP2 MSTORE PUSH1 0x4 DUP1 CALLDATASIZE LT ISZERO PUSH2 0x15 JUMPI PUSH1 0x0 DUP1 REVERT JUMPDEST PUSH1 0x0 SWAP3 DUP4 CALLDATALOAD PUSH1 0xE0 SHR SWAP1 DUP2 PUSH4 0x41B05AB EQ PUSH2 0x644 JUMPI POP DUP1 PUSH4 0x5D237B0 EQ PUSH2 0x61B JUMPI DUP1 PUSH4 0x1A153391 EQ PUSH2 0x5C5 JUMPI DUP1 PUSH4 0x5295760F EQ PUSH2 0x3C9 JUMPI DUP1 PUSH4 0x54A055C1 EQ PUSH2 0x38B JUMPI DUP1 PUSH4 0x5D70A074 EQ PUSH2 0x2EE JUMPI DUP1 PUSH4 0x6542D35C EQ PUSH2 0x2A0 JUMPI DUP1 PUSH4 0x6C54BA8B EQ PUSH2 0x27A JUMPI DUP1 PUSH4 0x715018A6 EQ PUSH2 0x220 JUMPI DUP1 PUSH4 0x8DA5CB5B EQ PUSH2 0x1F4 JUMPI DUP1 PUSH4 0xA094BB24 EQ PUSH2 0x18D JUMPI DUP1 PUSH4 0xE4135A86 EQ PUSH2 0x145 JUMPI PUSH4 0xF2FDE38B EQ PUSH2 0xB2 JUMPI PUSH1 0x0 DUP1 REVERT JUMPDEST CALLVALUE PUSH2 0x141 JUMPI PUSH1 0x20 CALLDATASIZE PUSH1 0x3 NOT ADD SLT PUSH2 0x141 JUMPI PUSH2 0xCB PUSH2 0x7DC JUMP JUMPDEST SWAP1 PUSH2 0xD4 PUSH2 0x828 JUMP JUMPDEST PUSH1 0x1 PUSH1 0x1 PUSH1 0xA0 SHL SUB SWAP2 DUP3 AND SWAP3 DUP4 ISZERO PUSH2 0x12B JUMPI POP POP PUSH1 0x0 SLOAD DUP3 PUSH12 0xFFFFFFFFFFFFFFFFFFFFFFFF PUSH1 0xA0 SHL DUP3 AND OR PUSH1 0x0 SSTORE AND PUSH32 0x8BE0079C531659141344CD1FD0A4F28419497F9722A3DAAFE3B4186F6B6457E0 PUSH1 0x0 DUP1 LOG3 DUP1 RETURN JUMPDEST MLOAD PUSH4 0x1E4FBDF7 PUSH1 0xE0 SHL DUP2 MSTORE SWAP1 DUP2 ADD DUP5 SWAP1 MSTORE PUSH1 0x24 SWAP1 REVERT JUMPDEST DUP3 DUP1 REVERT JUMPDEST DUP4 CALLVALUE PUSH2 0x18A JUMPI PUSH1 0x20 CALLDATASIZE PUSH1 0x3 NOT ADD SLT PUSH2 0x18A JUMPI PUSH2 0x15F PUSH2 0x7DC JUMP JUMPDEST PUSH2 0x167 PUSH2 0x828 JUMP JUMPDEST PUSH1 0x1 DUP1 PUSH1 0xA0 SHL SUB AND PUSH12 0xFFFFFFFFFFFFFFFFFFFFFFFF PUSH1 0xA0 SHL PUSH1 0x1 SLOAD AND OR PUSH1 0x1 SSTORE DUP1 RETURN JUMPDEST DUP1 REVERT JUMPDEST POP CALLVALUE PUSH2 0x141 JUMPI PUSH1 0x20 CALLDATASIZE PUSH1 0x3 NOT ADD SLT PUSH2 0x141 JUMPI CALLER DUP4 MSTORE PUSH1 0x2 PUSH1 0x20 MSTORE PUSH1 0xFF DUP3 DUP5 KECCAK256 SLOAD AND ISZERO DUP1 PUSH2 0x1E0 JUMPI JUMPDEST PUSH2 0x1D2 JUMPI CALLDATALOAD DUP3 MSTORE PUSH1 0x3 PUSH1 0x20 MSTORE DUP2 KECCAK256 PUSH2 0x1CD DUP2 SLOAD PUSH2 0x854 JUMP JUMPDEST SWAP1 SSTORE DUP1 RETURN JUMPDEST SWAP1 MLOAD PUSH4 0xEA8E4EB5 PUSH1 0xE0 SHL DUP2 MSTORE REVERT JUMPDEST POP DUP3 SLOAD PUSH1 0x1 PUSH1 0x1 PUSH1 0xA0 SHL SUB AND CALLER EQ ISZERO PUSH2 0x1B5 JUMP JUMPDEST POP POP CALLVALUE PUSH2 0x21C JUMPI DUP2 PUSH1 0x3 NOT CALLDATASIZE ADD SLT PUSH2 0x21C JUMPI SWAP1 SLOAD SWAP1 MLOAD PUSH1 0x1 PUSH1 0x1 PUSH1 0xA0 SHL SUB SWAP1 SWAP2 AND DUP2 MSTORE PUSH1 0x20 SWAP1 RETURN JUMPDEST POP DUP1 REVERT JUMPDEST DUP4 CALLVALUE PUSH2 0x18A JUMPI DUP1 PUSH1 0x3 NOT CALLDATASIZE ADD SLT PUSH2 0x18A JUMPI PUSH2 0x239 PUSH2 0x828 JUMP JUMPDEST PUSH1 0x0 DUP1 SLOAD PUSH1 0x1 PUSH1 0x1 PUSH1 0xA0 SHL SUB NOT DUP2 AND DUP3 SSTORE PUSH1 0x1 PUSH1 0x1 PUSH1 0xA0 SHL SUB AND PUSH32 0x8BE0079C531659141344CD1FD0A4F28419497F9722A3DAAFE3B4186F6B6457E0 DUP3 DUP1 LOG3 DUP1 RETURN JUMPDEST POP CALLVALUE PUSH2 0x141 JUMPI PUSH1 0x20 CALLDATASIZE PUSH1 0x3 NOT ADD SLT PUSH2 0x141 JUMPI PUSH1 0x20 SWAP3 DUP2 DUP4 SWAP3 CALLDATALOAD DUP3 MSTORE DUP5 MSTORE KECCAK256 SLOAD SWAP1 MLOAD SWAP1 DUP2 MSTORE RETURN JUMPDEST POP SWAP2 CALLVALUE PUSH2 0x18A JUMPI PUSH1 0x60 CALLDATASIZE PUSH1 0x3 NOT ADD SLT PUSH2 0x18A JUMPI PUSH1 0x44 CALLDATALOAD SWAP1 PUSH8 0xFFFFFFFFFFFFFFFF DUP3 GT PUSH2 0x18A JUMPI POP PUSH1 0x20 SWAP3 PUSH2 0x2DA PUSH2 0x2E5 SWAP3 CALLDATASIZE SWAP1 DUP4 ADD PUSH2 0x7F7 JUMP JUMPDEST SWAP2 PUSH1 0x24 CALLDATALOAD SWAP1 CALLDATALOAD PUSH2 0x8CF JUMP JUMPDEST SWAP1 MLOAD SWAP1 ISZERO ISZERO DUP2 MSTORE RETURN JUMPDEST POP SWAP1 CALLVALUE PUSH2 0x141 JUMPI PUSH1 0x20 CALLDATASIZE PUSH1 0x3 NOT ADD SLT PUSH2 0x141 JUMPI DUP1 DUP4 PUSH1 0xA0 SWAP5 PUSH1 0x80 PUSH2 0x310 PUSH2 0x899 JUMP JUMPDEST DUP3 DUP2 MSTORE DUP3 PUSH1 0x20 DUP3 ADD MSTORE DUP3 DUP6 DUP3 ADD MSTORE DUP3 PUSH1 0x60 DUP3 ADD MSTORE ADD MSTORE DUP4 CALLDATALOAD DUP2 MSTORE PUSH1 0x3 PUSH1 0x20 MSTORE KECCAK256 PUSH2 0x338 PUSH2 0x899 JUMP JUMPDEST SWAP2 DUP2 SLOAD SWAP4 DUP5 DUP5 MSTORE PUSH1 0x1 DUP4 ADD SLOAD PUSH1 0x20 DUP6 ADD SWAP1 DUP2 MSTORE PUSH1 0x80 PUSH1 0x2 DUP6 ADD SLOAD SWAP3 DUP5 DUP8 ADD SWAP4 DUP5 MSTORE PUSH1 0x3 DUP7 ADD SLOAD SWAP6 PUSH1 0x60 DUP9 ADD SWAP7 DUP8 MSTORE ADD SLOAD SWAP6 ADD SWAP5 DUP6 MSTORE DUP3 MLOAD SWAP6 DUP7 MSTORE MLOAD PUSH1 0x20 DUP7 ADD MSTORE MLOAD SWAP1 DUP5 ADD MSTORE MLOAD PUSH1 0x60 DUP4 ADD MSTORE MLOAD PUSH1 0x80 DUP3 ADD MSTORE RETURN JUMPDEST POP POP CALLVALUE PUSH2 0x21C JUMPI PUSH1 0x20 CALLDATASIZE PUSH1 0x3 NOT ADD SLT PUSH2 0x21C JUMPI PUSH1 0x20 SWAP2 PUSH1 0xFF SWAP1 DUP3 SWAP1 PUSH1 0x1 PUSH1 0x1 PUSH1 0xA0 SHL SUB PUSH2 0x3B6 PUSH2 0x7DC JUMP JUMPDEST AND DUP2 MSTORE PUSH1 0x2 DUP6 MSTORE KECCAK256 SLOAD AND SWAP1 MLOAD SWAP1 ISZERO ISZERO DUP2 MSTORE RETURN JUMPDEST POP CALLVALUE PUSH2 0x141 JUMPI DUP2 PUSH1 0x3 NOT CALLDATASIZE ADD SLT PUSH2 0x141 JUMPI PUSH8 0xFFFFFFFFFFFFFFFF SWAP1 DUP1 CALLDATALOAD DUP3 DUP2 GT PUSH2 0x5C1 JUMPI PUSH2 0x3FA SWAP1 CALLDATASIZE SWAP1 DUP4 ADD PUSH2 0x7F7 JUMP JUMPDEST PUSH1 0x24 SWAP3 SWAP2 SWAP3 SWAP4 DUP5 CALLDATALOAD SWAP1 DUP2 GT PUSH2 0x5BD JUMPI PUSH2 0x416 SWAP1 CALLDATASIZE SWAP1 DUP5 ADD PUSH2 0x7F7 JUMP JUMPDEST SWAP2 SWAP1 SWAP4 CALLER DUP9 MSTORE PUSH1 0x2 SWAP6 PUSH1 0x20 SWAP5 DUP8 DUP7 MSTORE PUSH1 0xFF DUP10 DUP12 KECCAK256 SLOAD AND ISZERO DUP1 PUSH2 0x5A9 JUMPI JUMPDEST PUSH2 0x59B JUMPI DUP5 DUP5 SUB PUSH2 0x569 JUMPI DUP10 JUMPDEST DUP5 DUP2 LT PUSH2 0x44B JUMPI DUP11 DUP1 RETURN JUMPDEST PUSH2 0x456 DUP2 DUP8 DUP11 PUSH2 0x9D5 JUMP JUMPDEST CALLDATALOAD PUSH2 0x464 JUMPI JUMPDEST PUSH1 0x1 ADD PUSH2 0x440 JUMP JUMPDEST PUSH2 0x46F DUP2 DUP7 DUP7 PUSH2 0x9D5 JUMP JUMPDEST CALLDATALOAD DUP12 MSTORE DUP2 DUP8 MSTORE DUP10 DUP12 KECCAK256 SLOAD PUSH2 0x484 DUP3 DUP9 DUP12 PUSH2 0x9D5 JUMP JUMPDEST CALLDATALOAD PUSH2 0x490 DUP4 DUP9 DUP9 PUSH2 0x9D5 JUMP JUMPDEST CALLDATALOAD DUP14 MSTORE DUP4 DUP10 MSTORE DUP12 DUP14 KECCAK256 SSTORE PUSH2 0x4A5 DUP3 DUP8 DUP8 PUSH2 0x9D5 JUMP JUMPDEST CALLDATALOAD DUP13 MSTORE PUSH1 0x3 DUP9 MSTORE DUP11 DUP13 KECCAK256 PUSH2 0x4B9 DUP2 SLOAD PUSH2 0x854 JUMP JUMPDEST DUP2 SSTORE PUSH1 0x1 DUP2 ADD PUSH2 0x4C9 DUP2 SLOAD PUSH2 0x854 JUMP JUMPDEST DUP1 SWAP2 SSTORE TIMESTAMP DUP13 DUP4 ADD SSTORE PUSH8 0xDE0B6B3A7640000 DUP1 DUP3 MUL SWAP1 DUP3 DUP3 DIV EQ DUP3 ISZERO OR ISZERO PUSH2 0x557 JUMPI PUSH1 0x64 DUP3 ADD DUP1 SWAP3 GT PUSH2 0x557 JUMPI DUP5 SWAP4 PUSH2 0x545 DUP16 SWAP3 SWAP7 DUP13 DUP16 SWAP7 DUP3 DUP15 DUP15 PUSH2 0x53E SWAP4 DUP15 PUSH2 0x536 PUSH1 0x1 SWAP16 SWAP13 PUSH32 0x66A420B2417E1183CD2D446F9D062281E74E2D2B3FB74DED512C39DC02E5247E SWAP14 PUSH2 0x879 JUMP JUMPDEST SWAP2 ADD SSTORE PUSH2 0x9D5 JUMP JUMPDEST CALLDATALOAD SWAP7 PUSH2 0x9D5 JUMP JUMPDEST CALLDATALOAD DUP3 MLOAD SWAP2 DUP3 MSTORE DUP13 DUP3 ADD MSTORE LOG2 SWAP1 POP PUSH2 0x45C JUMP JUMPDEST PUSH4 0x4E487B71 PUSH1 0xE0 SHL DUP16 MSTORE PUSH1 0x11 DUP7 MSTORE DUP7 DUP16 REVERT JUMPDEST PUSH1 0xF PUSH1 0x64 SWAP3 DUP8 DUP12 MLOAD SWAP4 PUSH3 0x461BCD PUSH1 0xE5 SHL DUP6 MSTORE DUP5 ADD MSTORE DUP3 ADD MSTORE PUSH15 0x98CADCCEE8D040DAD2E6DAC2E8C6D PUSH1 0x8B SHL PUSH1 0x44 DUP3 ADD MSTORE REVERT JUMPDEST DUP9 MLOAD PUSH4 0xEA8E4EB5 PUSH1 0xE0 SHL DUP2 MSTORE REVERT JUMPDEST POP DUP10 SLOAD PUSH1 0x1 PUSH1 0x1 PUSH1 0xA0 SHL SUB AND CALLER EQ ISZERO PUSH2 0x433 JUMP JUMPDEST DUP7 DUP1 REVERT JUMPDEST DUP5 DUP1 REVERT JUMPDEST POP POP CALLVALUE PUSH2 0x21C JUMPI DUP1 PUSH1 0x3 NOT CALLDATASIZE ADD SLT PUSH2 0x21C JUMPI PUSH2 0x5DF PUSH2 0x7DC JUMP JUMPDEST SWAP1 PUSH1 0x24 CALLDATALOAD SWAP2 DUP3 ISZERO ISZERO DUP1 SWAP4 SUB PUSH2 0x617 JUMPI PUSH2 0x5F6 PUSH2 0x828 JUMP JUMPDEST PUSH1 0x1 DUP1 PUSH1 0xA0 SHL SUB AND DUP4 MSTORE PUSH1 0x2 PUSH1 0x20 MSTORE DUP3 KECCAK256 SWAP1 PUSH1 0xFF DUP1 NOT DUP4 SLOAD AND SWAP2 AND OR SWAP1 SSTORE DUP1 RETURN JUMPDEST DUP4 DUP1 REVERT JUMPDEST POP POP CALLVALUE PUSH2 0x21C JUMPI DUP2 PUSH1 0x3 NOT CALLDATASIZE ADD SLT PUSH2 0x21C JUMPI PUSH1 0x1 SLOAD SWAP1 MLOAD PUSH1 0x1 PUSH1 0x1 PUSH1 0xA0 SHL SUB SWAP1 SWAP2 AND DUP2 MSTORE PUSH1 0x20 SWAP1 RETURN JUMPDEST DUP5 SWAP2 POP DUP4 CALLVALUE PUSH2 0x141 JUMPI PUSH1 0x3 NOT DUP2 DUP2 CALLDATASIZE ADD SLT PUSH2 0x617 JUMPI DUP5 CALLDATALOAD SWAP3 PUSH1 0x24 CALLDATALOAD SWAP2 PUSH8 0xFFFFFFFFFFFFFFFF DUP4 GT PUSH2 0x7D8 JUMPI PUSH1 0x80 SWAP1 DUP4 CALLDATASIZE SUB ADD SLT PUSH2 0x5C1 JUMPI CALLER DUP6 MSTORE PUSH1 0x2 PUSH1 0x20 MSTORE PUSH1 0xFF DUP4 DUP7 KECCAK256 SLOAD AND ISZERO DUP1 PUSH2 0x7C4 JUMPI JUMPDEST PUSH2 0x7B6 JUMPI POP DUP3 DUP5 MSTORE DUP5 PUSH1 0x20 MSTORE DUP2 DUP5 KECCAK256 SLOAD DUP1 ISZERO ISZERO SWAP1 DUP2 PUSH2 0x7A8 JUMPI JUMPDEST POP PUSH2 0x798 JUMPI PUSH1 0x24 ADD CALLDATALOAD DUP1 ISZERO PUSH2 0x788 JUMPI DUP3 DUP5 MSTORE DUP5 PUSH1 0x20 MSTORE DUP2 DUP5 KECCAK256 SWAP1 DUP1 DUP3 SLOAD SWAP3 SSTORE PUSH1 0x3 PUSH1 0x20 MSTORE DUP3 DUP6 KECCAK256 PUSH2 0x6DC DUP2 SLOAD PUSH2 0x854 JUMP JUMPDEST DUP2 SSTORE PUSH1 0x1 DUP2 ADD PUSH2 0x6EC DUP2 SLOAD PUSH2 0x854 JUMP JUMPDEST DUP1 SWAP2 SSTORE TIMESTAMP PUSH1 0x2 DUP4 ADD SSTORE PUSH1 0x1 DUP2 GT DUP1 PUSH2 0x77F JUMPI JUMPDEST PUSH2 0x77A JUMPI JUMPDEST PUSH8 0xDE0B6B3A7640000 DUP1 DUP3 MUL SWAP1 DUP3 DUP3 DIV EQ DUP3 ISZERO OR ISZERO PUSH2 0x767 JUMPI PUSH1 0x64 DUP3 ADD DUP1 SWAP3 GT PUSH2 0x767 JUMPI PUSH32 0x66A420B2417E1183CD2D446F9D062281E74E2D2B3FB74DED512C39DC02E5247E SWAP7 SWAP8 SWAP9 SWAP2 PUSH2 0x756 SWAP2 PUSH2 0x879 JUMP JUMPDEST SWAP2 ADD SSTORE DUP3 MLOAD SWAP2 DUP3 MSTORE PUSH1 0x20 DUP3 ADD MSTORE LOG2 DUP1 RETURN JUMPDEST PUSH4 0x4E487B71 PUSH1 0xE0 SHL DUP9 MSTORE PUSH1 0x11 DUP10 MSTORE PUSH1 0x24 DUP9 REVERT JUMPDEST PUSH2 0x704 JUMP JUMPDEST POP TIMESTAMP ISZERO ISZERO PUSH2 0x6FF JUMP JUMPDEST DUP2 MLOAD PUSH4 0x504570E3 PUSH1 0xE0 SHL DUP2 MSTORE DUP6 SWAP1 REVERT JUMPDEST DUP2 MLOAD PUSH4 0x5ADE0455 PUSH1 0xE0 SHL DUP2 MSTORE DUP6 SWAP1 REVERT JUMPDEST SWAP1 POP DUP2 DUP7 ADD CALLDATALOAD EQ ISZERO DUP7 PUSH2 0x6AB JUMP JUMPDEST PUSH4 0xEA8E4EB5 PUSH1 0xE0 SHL DUP2 MSTORE DUP6 SWAP1 REVERT JUMPDEST POP DUP5 SLOAD PUSH1 0x1 PUSH1 0x1 PUSH1 0xA0 SHL SUB AND CALLER EQ ISZERO PUSH2 0x691 JUMP JUMPDEST DUP6 DUP1 REVERT JUMPDEST PUSH1 0x4 CALLDATALOAD SWAP1 PUSH1 0x1 PUSH1 0x1 PUSH1 0xA0 SHL SUB DUP3 AND DUP3 SUB PUSH2 0x7F2 JUMPI JUMP JUMPDEST PUSH1 0x0 DUP1 REVERT JUMPDEST SWAP2 DUP2 PUSH1 0x1F DUP5 ADD SLT ISZERO PUSH2 0x7F2 JUMPI DUP3 CALLDATALOAD SWAP2 PUSH8 0xFFFFFFFFFFFFFFFF DUP4 GT PUSH2 0x7F2 JUMPI PUSH1 0x20 DUP1 DUP6 ADD SWAP5 DUP5 PUSH1 0x5 SHL ADD ADD GT PUSH2 0x7F2 JUMPI JUMP JUMPDEST PUSH1 0x0 SLOAD PUSH1 0x1 PUSH1 0x1 PUSH1 0xA0 SHL SUB AND CALLER SUB PUSH2 0x83C JUMPI JUMP JUMPDEST PUSH1 0x40 MLOAD PUSH4 0x118CDAA7 PUSH1 0xE0 SHL DUP2 MSTORE CALLER PUSH1 0x4 DUP3 ADD MSTORE PUSH1 0x24 SWAP1 REVERT JUMPDEST PUSH1 0x0 NOT DUP2 EQ PUSH2 0x863 JUMPI PUSH1 0x1 ADD SWAP1 JUMP JUMPDEST PUSH4 0x4E487B71 PUSH1 0xE0 SHL PUSH1 0x0 MSTORE PUSH1 0x11 PUSH1 0x4 MSTORE PUSH1 0x24 PUSH1 0x0 REVERT JUMPDEST DUP2 ISZERO PUSH2 0x883 JUMPI DIV SWAP1 JUMP JUMPDEST PUSH4 0x4E487B71 PUSH1 0xE0 SHL PUSH1 0x0 MSTORE PUSH1 0x12 PUSH1 0x4 MSTORE PUSH1 0x24 PUSH1 0x0 REVERT JUMPDEST PUSH1 0x40 MLOAD SWAP1 PUSH1 0xA0 DUP3 ADD DUP3 DUP2 LT PUSH8 0xFFFFFFFFFFFFFFFF DUP3 GT OR PUSH2 0x8B9 JUMPI PUSH1 0x40 MSTORE JUMP JUMPDEST PUSH4 0x4E487B71 PUSH1 0xE0 SHL PUSH1 0x0 MSTORE PUSH1 0x41 PUSH1 0x4 MSTORE PUSH1 0x24 PUSH1 0x0 REVERT JUMPDEST SWAP1 SWAP3 SWAP2 SWAP4 PUSH1 0x0 SWAP2 DUP3 MSTORE PUSH1 0x20 PUSH1 0x4 DUP2 MSTORE PUSH1 0x40 SWAP4 DUP5 DUP5 KECCAK256 SLOAD SWAP6 DUP7 ISZERO PUSH2 0x9CA JUMPI PUSH8 0xFFFFFFFFFFFFFFFF SWAP8 DUP9 DUP4 GT PUSH2 0x9B6 JUMPI DUP7 MLOAD SWAP9 PUSH1 0x5 SWAP4 DUP1 DUP6 SHL SWAP2 PUSH1 0x3F DUP4 ADD PUSH1 0x1F NOT AND DUP13 ADD SWAP1 DUP2 GT DUP13 DUP3 LT OR PUSH2 0x9A2 JUMPI DUP10 MSTORE DUP11 MSTORE DUP5 DUP11 ADD SWAP1 DUP3 ADD SWAP2 CALLDATASIZE DUP4 GT PUSH2 0x99E JUMPI DUP6 SWAP1 SWAP2 JUMPDEST DUP4 DUP4 LT PUSH2 0x98E JUMPI POP POP POP POP SWAP3 DUP5 SWAP4 JUMPDEST DUP9 MLOAD DUP6 LT ISZERO PUSH2 0x982 JUMPI DUP5 DUP4 SHL DUP10 ADD DUP5 ADD MLOAD SWAP1 DUP2 DUP2 LT ISZERO PUSH2 0x972 JUMPI DUP7 MSTORE DUP4 MSTORE PUSH2 0x96C DUP7 DUP7 KECCAK256 JUMPDEST SWAP5 PUSH2 0x854 JUMP JUMPDEST SWAP4 PUSH2 0x941 JUMP JUMPDEST SWAP1 DUP7 MSTORE DUP4 MSTORE PUSH2 0x96C DUP7 DUP7 KECCAK256 PUSH2 0x966 JUMP JUMPDEST SWAP6 POP SWAP7 POP POP POP POP POP EQ SWAP1 JUMP JUMPDEST DUP3 CALLDATALOAD DUP2 MSTORE SWAP2 DUP2 ADD SWAP2 DUP7 SWAP2 ADD PUSH2 0x932 JUMP JUMPDEST DUP8 DUP1 REVERT JUMPDEST PUSH4 0x4E487B71 PUSH1 0xE0 SHL DUP10 MSTORE PUSH1 0x41 PUSH1 0x4 MSTORE PUSH1 0x24 DUP10 REVERT JUMPDEST PUSH4 0x4E487B71 PUSH1 0xE0 SHL DUP7 MSTORE PUSH1 0x41 PUSH1 0x4 MSTORE PUSH1 0x24 DUP7 REVERT JUMPDEST POP POP POP SWAP4 POP SWAP2 POP POP SWAP1 JUMP JUMPDEST SWAP2 SWAP1 DUP2 LT ISZERO PUSH2 0x9E5 JUMPI PUSH1 0x5 SHL ADD SWAP1 JUMP JUMPDEST PUSH4 0x4E487B71 PUSH1 0xE0 SHL PUSH1 0x0 MSTORE PUSH1 0x32 PUSH1 0x4 MSTORE PUSH1 0x24 PUSH1 0x0 REVERT INVALID LOG2 PUSH5 0x6970667358 0x22 SLT KECCAK256 PUSH22 0xC003F8DDAFD5543C6E9B82AB52D0E9E22BEB77E920F2 BALANCE 0xAB 0xD0 LOG3 SWAP3 0xC5 KECCAK256 PUSH8 0xA664736F6C634300 ADDMOD EQ STOP CALLER "},"methodIdentifiers":{"batchUpdateRoots(uint256[],bytes32[])":"5295760f","getLearningMetrics(uint256)":"5d70a074","getLearningRoot(uint256)":"6c54ba8b","nfaContract()":"05d237b0","owner()":"8da5cb5b","recordInteraction(uint256)":"a094bb24","renounceOwnership()":"715018a6","setNFAContract(address)":"e4135a86","setUpdater(address,bool)":"1a153391","transferOwnership(address)":"f2fde38b","updateLearning(uint256,(bytes32,bytes32,bytes32,bytes))":"041b05ab","updaters(address)":"54a055c1","verifyLearning(uint256,bytes32,bytes32[])":"6542d35c"}}}}}