{"contracts/GemBotsBattleRecorder.sol":{"GemBotsBattleRecorder":{"abi":[{"inputs":[{"internalType":"address","name":"_nfaContract","type":"address"},{"internalType":"address","name":"_resolver","type":"address"}],"stateMutability":"nonpayable","type":"constructor"},{"inputs":[],"name":"BattleAlreadyRecorded","type":"error"},{"inputs":[],"name":"InvalidNfaId","type":"error"},{"inputs":[],"name":"OnlyResolver","type":"error"},{"inputs":[{"internalType":"address","name":"owner","type":"address"}],"name":"OwnableInvalidOwner","type":"error"},{"inputs":[{"internalType":"address","name":"account","type":"address"}],"name":"OwnableUnauthorizedAccount","type":"error"},{"inputs":[],"name":"SameNfaIds","type":"error"},{"anonymous":false,"inputs":[{"indexed":true,"internalType":"bytes32","name":"battleHash","type":"bytes32"},{"indexed":true,"internalType":"uint256","name":"winnerNfaId","type":"uint256"},{"indexed":true,"internalType":"uint256","name":"loserNfaId","type":"uint256"},{"indexed":false,"internalType":"string","name":"battleId","type":"string"},{"indexed":false,"internalType":"string","name":"token","type":"string"},{"indexed":false,"internalType":"uint64","name":"winnerAccuracy","type":"uint64"},{"indexed":false,"internalType":"uint64","name":"loserAccuracy","type":"uint64"},{"indexed":false,"internalType":"uint64","name":"damage","type":"uint64"},{"indexed":false,"internalType":"uint32","name":"winnerNewElo","type":"uint32"},{"indexed":false,"internalType":"uint32","name":"loserNewElo","type":"uint32"}],"name":"BattleRecorded","type":"event"},{"anonymous":false,"inputs":[{"indexed":false,"internalType":"address","name":"oldContract","type":"address"},{"indexed":false,"internalType":"address","name":"newContract","type":"address"}],"name":"NFAContractUpdated","type":"event"},{"anonymous":false,"inputs":[{"indexed":true,"internalType":"address","name":"previousOwner","type":"address"},{"indexed":true,"internalType":"address","name":"newOwner","type":"address"}],"name":"OwnershipTransferred","type":"event"},{"anonymous":false,"inputs":[{"indexed":false,"internalType":"address","name":"oldResolver","type":"address"},{"indexed":false,"internalType":"address","name":"newResolver","type":"address"}],"name":"ResolverUpdated","type":"event"},{"inputs":[],"name":"DEFAULT_ELO","outputs":[{"internalType":"uint32","name":"","type":"uint32"}],"stateMutability":"view","type":"function"},{"inputs":[],"name":"ELO_K","outputs":[{"internalType":"uint32","name":"","type":"uint32"}],"stateMutability":"view","type":"function"},{"inputs":[{"internalType":"string[]","name":"battleIds","type":"string[]"},{"internalType":"uint256[]","name":"winnerNfaIds","type":"uint256[]"},{"internalType":"uint256[]","name":"loserNfaIds","type":"uint256[]"},{"internalType":"string[]","name":"tokens","type":"string[]"},{"internalType":"uint64[]","name":"winnerAccuracies","type":"uint64[]"},{"internalType":"uint64[]","name":"loserAccuracies","type":"uint64[]"},{"internalType":"uint64[]","name":"damages","type":"uint64[]"}],"name":"batchRecordBattles","outputs":[],"stateMutability":"nonpayable","type":"function"},{"inputs":[{"internalType":"bytes32","name":"","type":"bytes32"}],"name":"battles","outputs":[{"internalType":"uint256","name":"winnerNfaId","type":"uint256"},{"internalType":"uint256","name":"loserNfaId","type":"uint256"},{"internalType":"string","name":"token","type":"string"},{"internalType":"uint64","name":"winnerAccuracy","type":"uint64"},{"internalType":"uint64","name":"loserAccuracy","type":"uint64"},{"internalType":"uint64","name":"damage","type":"uint64"},{"internalType":"uint64","name":"timestamp","type":"uint64"}],"stateMutability":"view","type":"function"},{"inputs":[{"internalType":"uint256","name":"nfaId","type":"uint256"}],"name":"getBattleCount","outputs":[{"internalType":"uint256","name":"","type":"uint256"}],"stateMutability":"view","type":"function"},{"inputs":[{"internalType":"uint256","name":"nfaId","type":"uint256"},{"internalType":"uint256","name":"offset","type":"uint256"},{"internalType":"uint256","name":"limit","type":"uint256"}],"name":"getBattleHistory","outputs":[{"components":[{"internalType":"uint256","name":"winnerNfaId","type":"uint256"},{"internalType":"uint256","name":"loserNfaId","type":"uint256"},{"internalType":"string","name":"token","type":"string"},{"internalType":"uint64","name":"winnerAccuracy","type":"uint64"},{"internalType":"uint64","name":"loserAccuracy","type":"uint64"},{"internalType":"uint64","name":"damage","type":"uint64"},{"internalType":"uint64","name":"timestamp","type":"uint64"}],"internalType":"struct GemBotsBattleRecorder.BattleRecord[]","name":"","type":"tuple[]"}],"stateMutability":"view","type":"function"},{"inputs":[{"internalType":"uint256","name":"nfaId","type":"uint256"}],"name":"getStats","outputs":[{"components":[{"internalType":"uint64","name":"wins","type":"uint64"},{"internalType":"uint64","name":"losses","type":"uint64"},{"internalType":"uint64","name":"totalBattles","type":"uint64"},{"internalType":"uint32","name":"currentStreak","type":"uint32"},{"internalType":"uint32","name":"bestStreak","type":"uint32"},{"internalType":"uint32","name":"elo","type":"uint32"}],"internalType":"struct GemBotsBattleRecorder.BattleStats","name":"","type":"tuple"}],"stateMutability":"view","type":"function"},{"inputs":[{"internalType":"uint256","name":"nfaId","type":"uint256"}],"name":"getWinRate","outputs":[{"internalType":"uint256","name":"","type":"uint256"}],"stateMutability":"view","type":"function"},{"inputs":[{"internalType":"uint256","name":"","type":"uint256"},{"internalType":"uint256","name":"","type":"uint256"}],"name":"nfaBattleHistory","outputs":[{"internalType":"bytes32","name":"","type":"bytes32"}],"stateMutability":"view","type":"function"},{"inputs":[],"name":"nfaContract","outputs":[{"internalType":"address","name":"","type":"address"}],"stateMutability":"view","type":"function"},{"inputs":[{"internalType":"uint256","name":"","type":"uint256"}],"name":"nfaStats","outputs":[{"internalType":"uint64","name":"wins","type":"uint64"},{"internalType":"uint64","name":"losses","type":"uint64"},{"internalType":"uint64","name":"totalBattles","type":"uint64"},{"internalType":"uint32","name":"currentStreak","type":"uint32"},{"internalType":"uint32","name":"bestStreak","type":"uint32"},{"internalType":"uint32","name":"elo","type":"uint32"}],"stateMutability":"view","type":"function"},{"inputs":[],"name":"owner","outputs":[{"internalType":"address","name":"","type":"address"}],"stateMutability":"view","type":"function"},{"inputs":[{"internalType":"string","name":"battleId","type":"string"},{"internalType":"uint256","name":"winnerNfaId","type":"uint256"},{"internalType":"uint256","name":"loserNfaId","type":"uint256"},{"internalType":"string","name":"token","type":"string"},{"internalType":"uint64","name":"winnerAccuracy","type":"uint64"},{"internalType":"uint64","name":"loserAccuracy","type":"uint64"},{"internalType":"uint64","name":"damage","type":"uint64"}],"name":"recordBattle","outputs":[],"stateMutability":"nonpayable","type":"function"},{"inputs":[],"name":"renounceOwnership","outputs":[],"stateMutability":"nonpayable","type":"function"},{"inputs":[],"name":"resolver","outputs":[{"internalType":"address","name":"","type":"address"}],"stateMutability":"view","type":"function"},{"inputs":[{"internalType":"address","name":"_nfaContract","type":"address"}],"name":"setNFAContract","outputs":[],"stateMutability":"nonpayable","type":"function"},{"inputs":[{"internalType":"address","name":"_resolver","type":"address"}],"name":"setResolver","outputs":[],"stateMutability":"nonpayable","type":"function"},{"inputs":[],"name":"totalBattlesRecorded","outputs":[{"internalType":"uint256","name":"","type":"uint256"}],"stateMutability":"view","type":"function"},{"inputs":[{"internalType":"address","name":"newOwner","type":"address"}],"name":"transferOwnership","outputs":[],"stateMutability":"nonpayable","type":"function"}],"evm":{"bytecode":{"linkReferences":{},"object":"6080346100e457601f6200197c38819003918201601f19168301916001600160401b038311848410176100e95780849260409485528339810103126100e457610053602061004c836100ff565b92016100ff565b33156100cb5760008054336001600160a01b0319808316821784556040519590946001600160a01b03949093859391908416907f8be0079c531659141344cd1fd0a4f28419497f9722a3daafe3b4186f6b6457e09080a316836001541617600155169060025416176002556118689081620001148239f35b604051631e4fbdf760e01b815260006004820152602490fd5b600080fd5b634e487b7160e01b600052604160045260246000fd5b51906001600160a01b03821682036100e45756fe61016080604052600436101561001457600080fd5b60003560e01c90816304f3bcec146112095750806305d237b0146111e0578063079ce2ee14610aa25780632dd35302146106c75780634280ff9d146106a95780634e543b26146106265780634efe3e411461060b5780635831e9f5146105ee578063715018a61461059557806378547e6c1461050757806379226fe61461042f5780637b3039651461033d5780638da5cb5b146103145780639e2d0388146102cd5780639e8a0f57146102a7578063d151959b14610235578063d2925a4e14610209578063e4135a86146101865763f2fde38b146100f157600080fd5b34610181576020366003190112610181576004356001600160a01b03818116918290036101815761012061142f565b811561016857600054826bffffffffffffffffffffffff60a01b821617600055167f8be0079c531659141344cd1fd0a4f28419497f9722a3daafe3b4186f6b6457e0600080a3005b604051631e4fbdf760e01b815260006004820152602490fd5b600080fd5b34610181576020366003190112610181576004356001600160a01b0381811691828103610181577fe1005776f2da6426f3aa3cb12f7330ad724536e856e3922dd0650df011c6b060906101d761142f565b600154604080519482166001600160a01b03908116865292909216602085015292a16001600160a01b03191617600155005b346101815760203660031901126101815760043560005260066020526020604060002054604051908152f35b3461018157602036600319011261018157600435600052600360205260c06001604060002080549063ffffffff92839101541690604051926001600160401b038083168552808360401c1660208601528260801c16604085015281851c16606084015260e01c608083015260a0820152f35b346101815760203660031901126101815760206102c5600435611755565b604051908152f35b34610181576040366003190112610181576024356004356000526006602052604060002080548210156101815760209161030691611401565b90546040519160031b1c8152f35b34610181576000366003190112610181576000546040516001600160a01b039091168152602090f35b3461018157602036600319011261018157600060a060405161035e816112df565b8281528260208201528260408201528260608201528260808201520152600435600052600360205260c0604060002060a060405161039b816112df565b600183546001600160401b0394858216958685526020850190808460401c16825260408601818560801c16815281606088019363ffffffff998a809981988f8b84911c16895260808d019a60e01c8b52015416990198808a5215610425575b6040519a8b52511660208a0152511660408801525116606086015251166080840152511660a0820152f35b6104b089526103fa565b34610181576060806003193601126101815761045260443560243560043561157a565b604051906020808301818452825180915260408401918060408360051b8701019401926000965b8388106104865786860387f35b90919293948380600192603f198a82030186528851908151815282820151838201526104c1604083015160e0604084015260e08301906113c1565b916001600160401b038088830151168884015260808181840151169084015260a08181840151169084015260c08092015116910152970193019701969093929193610479565b346101815760203660031901126101815760043560005260046020526040600020805460018201549161056360036105416002840161131b565b920154916040519485948552602085015260e0604085015260e08401906113c1565b906001600160401b038082166060850152808260401c1660808501528160801c1660a084015260c01c60c08301520390f35b34610181576000366003190112610181576105ae61142f565b600080546001600160a01b0319811682556001600160a01b03167f8be0079c531659141344cd1fd0a4f28419497f9722a3daafe3b4186f6b6457e08280a3005b346101815760003660031901126101815760206040516104b08152f35b34610181576000366003190112610181576020604051818152f35b34610181576020366003190112610181576004356001600160a01b0381811691828103610181577f84b83d2b66cac119ccaaca68b476b0dc5371d5f2fd27f697770a910175fd38b69061067761142f565b600254604080519482166001600160a01b03908116865292909216602085015292a16001600160a01b03191617600255005b34610181576000366003190112610181576020600554604051908152f35b346101815760e0366003190112610181576004356001600160401b038111610181576106f790369060040161125a565b9060c0526024356001600160401b0381116101815761071a90369060040161125a565b61012052610140526044356001600160401b0381116101815761074190369060040161125a565b906064356001600160401b0381116101815761076190369060040161125a565b60e0526084356001600160401b0381116101815761078390369060040161125a565b936001600160401b0360a43511610181576107a33660a43560040161125a565b608052916001600160401b0360c43511610181576107c63660c43560040161125a565b6002549098906001600160a01b03163303610a905761012051811480610a87575b80610a7c575b80610a73575b80610a68575b80610a5f575b15610a2257603281116109dd57600060a0525b60a051818110156109db5761085461082f6004928460c0516114dd565b60405192839160209481869283830196873781016000838201520380845201826112fa565b51902060005252888888888888888760036040600020015460c01c6109ce576108db6108ee6108db6108e06108db6108cf6108c061089b6108f99860a0519060c0516114dd565b6101009e919e526108b560a051610120516101405161151e565b359a60a0519161151e565b359a60a0519060e051906114dd565b97909c60a0519161151e565b61152e565b9660a051906080519061151e565b9860a051908c61151e565b90303b1561018157610940976001600160401b0361095c8195829460009b60e49a6040519e8f9d8e9d8e6303ce717760e11b815260e06004820152019061010051906114bc565b9360248d015260448c01526003198b84030160648c01526114bc565b951660848701521660a48501521660c4830152038183305af180156109c257610995575b505b61098d60a0516114ad565b60a052610812565b6001600160401b0381116109ac5760405289610980565b634e487b7160e01b600052604160045260246000fd5b6040513d6000823e3d90fd5b5050505050505050610982565b005b60405162461bcd60e51b815260206004820152601860248201527f4d617820353020626174746c65732070657220626174636800000000000000006044820152606490fd5b60405162461bcd60e51b8152602060048201526015602482015274082e4e4c2f240d8cadccee8d040dad2e6dac2e8c6d605b1b6044820152606490fd5b508881146107ff565b5060805181146107f9565b508781146107f3565b5060e05181146107ed565b508381146107e7565b604051632b910d6d60e11b8152600490fd5b346101815760e0366003190112610181576004356001600160401b03811161018157610ad290369060040161122d565b906064356001600160401b03811161018157610af290369060040161122d565b608435926001600160401b03841684036101815760a4356001600160401b03811681036101815760c435906001600160401b0382168203610181576002546001600160a01b03163303610a9057604435602435146111ce57604051602081019088858337610b706020828b81016000838201520380845201826112fa565b5190209485600052600460205260036040600020015460c01c6111bc5760243560005260036020526001604060002001805463ffffffff8116156111a8575b50506044356000526001604060002001805463ffffffff811615611194575b505060243560005263ffffffff600160406000200154169460443560005263ffffffff6001604060002001541694610c068787611819565b61019080821361118c575b5061018f19808212611184575b5060208160051b058103611140576103209060051b056000811260108281031281169060108381031390151617611140576010036001811261117c575b8080890112600089129080158216911516176111405780610c8281610bb8938b0199611819565b980113611172575b60648612611169575b610bb8871361115f575b60648712611156575b60243560005260036020526040600020610d0c610ce46001600160401b03835481610cd281831661145b565b16908219161780855560801c1661145b565b825467ffffffffffffffff60801b191660809190911b67ffffffffffffffff60801b16178255565b805463ffffffff808260c01c16146111405763ffffffff60c01b600163ffffffff8360c01c160160c01b168063ffffffff60c01b198316178084558060e01c63ffffffff8260c01c1611611119575b505050600163ffffffff881663ffffffff1982840154161791015560443560005260036020526040600020610dcc610d9f6001600160401b03835460401c1661145b565b82546fffffffffffffffff0000000000000000191660409190911b67ffffffffffffffff60401b16178255565b610de5610ce46001600160401b03835460801c1661145b565b805463ffffffff60c01b19168155600101805463ffffffff191663ffffffff8916179055604051610e15816112c4565b602435815260443560208201526001600160401b0383116109ac57604051610e47601f8501601f1916602001826112fa565b8381523684860111610181578385602083013760006020858301015260408201526001600160401b038a1660608201526001600160401b03851660808201526001600160401b03861660a08201526001600160401b03421660c08201528860005260046020526040600020815181556020820151600182015560408201518051906001600160401b0382116109ac57610ee3600284015461128a565b601f81116110d2575b50602090601f831160011461106057600393929160009183611055575b50508160011b9160001990851b1c19161760028201555b606083015160808085015160a086015160c09687015190961b6001600160c01b0319166001600160401b03909316604091821b67ffffffffffffffff60401b161767ffffffffffffffff60801b9690921b9590951617179101556024356000908152600660205220610f93908990611473565b604435600052600660205287604060002090610fae91611473565b600554610fba906114ad565b6005556040519960e08b5260e08b0190610fd3926114bc565b9089820360208b0152610fe5926114bc565b956001600160401b031660408801526001600160401b031660608701526001600160401b0316608086015263ffffffff1660a085015263ffffffff1660c0840152604435928060243593037f0da4d0094aea97573065b2b5b4262a2d3b66d51932fdecbdba980f9265b9a2cb91a4005b015190508f80610f09565b906002840160005260206000209160005b601f19851681106110ba575091839160019360039695601f198116106110a2575b505050811b016002820155610f20565b015160001983871b60f8161c191690558f8080611092565b91926020600181928685015181550194019201611071565b600284016000526020600020601f840160051c810160208510611112575b601f830160051c82018110611106575050610eec565b600081556001016110f0565b50806110f0565b6001600160c01b039092161760209190911b6001600160e01b0319161781558b8080610d5b565b634e487b7160e01b600052601160045260246000fd5b60649650610ca6565b610bb89650610c9d565b60649550610c93565b610bb89550610c8a565b506001610c5b565b90508b610c1e565b90508b610c11565b63ffffffff19166104b01790558880610bce565b63ffffffff19166104b01790558880610baf565b6040516305206c3160e21b8152600490fd5b60405163efb2668160e01b8152600490fd5b34610181576000366003190112610181576001546040516001600160a01b039091168152602090f35b34610181576000366003190112610181576002546001600160a01b03168152602090f35b9181601f84011215610181578235916001600160401b038311610181576020838186019501011161018157565b9181601f84011215610181578235916001600160401b038311610181576020808501948460051b01011161018157565b90600182811c921680156112ba575b60208310146112a457565b634e487b7160e01b600052602260045260246000fd5b91607f1691611299565b60e081019081106001600160401b038211176109ac57604052565b60c081019081106001600160401b038211176109ac57604052565b90601f801991011681019081106001600160401b038211176109ac57604052565b906040519182600082549261132f8461128a565b90818452600194858116908160001461139e575060011461135b575b5050611359925003836112fa565b565b9093915060005260209081600020936000915b8183106113865750506113599350820101388061134b565b8554888401850152948501948794509183019161136e565b91505061135994506020925060ff191682840152151560051b820101388061134b565b919082519283825260005b8481106113ed575050826000602080949584010152601f8019910116010190565b6020818301810151848301820152016113cc565b80548210156114195760005260206000200190600090565b634e487b7160e01b600052603260045260246000fd5b6000546001600160a01b0316330361144357565b60405163118cdaa760e01b8152336004820152602490fd5b6001600160401b038091169081146111405760010190565b8054680100000000000000008110156109ac5761149591600182018155611401565b819291549060031b91821b91600019901b1916179055565b60001981146111405760010190565b908060209392818452848401376000828201840152601f01601f1916010190565b91908110156114195760051b81013590601e19813603018212156101815701908135916001600160401b038311610181576020018236038113610181579190565b91908110156114195760051b0190565b356001600160401b03811681036101815790565b6001600160401b0381116109ac5760051b60200190565b9190820391821161114057565b80518210156114195760209160051b010190565b90600091825260206006815260408084208054958685101561171e57840180851161170a5784878211611702575b6115b191611559565b936115bb85611542565b966115c8845198896112fa565b858852601f196115d787611542565b0185885b8281106116c4575050506000198101908111875b8781106116025750505050505050505090565b816116b057806116276116216116ab9361161c8888611559565b611559565b87611401565b9054600391821b1c8b5260048952878b2090885191611645836112c4565b8054835260018101548b84015261165e6002820161131b565b8a84015201546001600160401b03808216606084015281608082828d1c16818601521c1660a083015260c090811c9082015261169a828d611566565b526116a5818c611566565b506114ad565b6115ef565b634e487b7160e01b89526011600452602489fd5b86516116cf816112c4565b8a81528a838201528a6060808a8401528201528a60808201528a60a08201528a60c082015282828d0101520186906115db565b8791506115a8565b634e487b7160e01b86526011600452602486fd5b50508051945090840191506001600160401b038211848310176117415752815290565b634e487b7160e01b83526041600452602483fd5b600090815260036020526040812060405190611770826112df565b8054906001600160401b039182811693848152838260401c16602082015260a0848360801c16926001604084019585875263ffffffff92838160c01c16606087015260e01c60808601520154169101521561180f57612710928381029381850414901517156117fb5751169182156117e757500490565b634e487b7160e01b81526012600452602490fd5b634e487b7160e01b84526011600452602484fd5b5050505061138890565b818103929160001380158285131691841216176111405756fea26469706673582212206f61843edd3de6a0d82d22b1edfa972d082981e62e96bd90b68719ee739e2c0564736f6c63430008140033","opcodes":"PUSH1 0x80 CALLVALUE PUSH2 0xE4 JUMPI PUSH1 0x1F PUSH3 0x197C CODESIZE DUP2 SWAP1 SUB SWAP2 DUP3 ADD PUSH1 0x1F NOT AND DUP4 ADD SWAP2 PUSH1 0x1 PUSH1 0x1 PUSH1 0x40 SHL SUB DUP4 GT DUP5 DUP5 LT OR PUSH2 0xE9 JUMPI DUP1 DUP5 SWAP3 PUSH1 0x40 SWAP5 DUP6 MSTORE DUP4 CODECOPY DUP2 ADD SUB SLT PUSH2 0xE4 JUMPI PUSH2 0x53 PUSH1 0x20 PUSH2 0x4C DUP4 PUSH2 0xFF JUMP JUMPDEST SWAP3 ADD PUSH2 0xFF JUMP JUMPDEST CALLER ISZERO PUSH2 0xCB JUMPI PUSH1 0x0 DUP1 SLOAD CALLER PUSH1 0x1 PUSH1 0x1 PUSH1 0xA0 SHL SUB NOT DUP1 DUP4 AND DUP3 OR DUP5 SSTORE PUSH1 0x40 MLOAD SWAP6 SWAP1 SWAP5 PUSH1 0x1 PUSH1 0x1 PUSH1 0xA0 SHL SUB SWAP5 SWAP1 SWAP4 DUP6 SWAP4 SWAP2 SWAP1 DUP5 AND SWAP1 PUSH32 0x8BE0079C531659141344CD1FD0A4F28419497F9722A3DAAFE3B4186F6B6457E0 SWAP1 DUP1 LOG3 AND DUP4 PUSH1 0x1 SLOAD AND OR PUSH1 0x1 SSTORE AND SWAP1 PUSH1 0x2 SLOAD AND OR PUSH1 0x2 SSTORE PUSH2 0x1868 SWAP1 DUP2 PUSH3 0x114 DUP3 CODECOPY RETURN JUMPDEST PUSH1 0x40 MLOAD PUSH4 0x1E4FBDF7 PUSH1 0xE0 SHL DUP2 MSTORE PUSH1 0x0 PUSH1 0x4 DUP3 ADD MSTORE PUSH1 0x24 SWAP1 REVERT JUMPDEST PUSH1 0x0 DUP1 REVERT JUMPDEST PUSH4 0x4E487B71 PUSH1 0xE0 SHL PUSH1 0x0 MSTORE PUSH1 0x41 PUSH1 0x4 MSTORE PUSH1 0x24 PUSH1 0x0 REVERT JUMPDEST MLOAD SWAP1 PUSH1 0x1 PUSH1 0x1 PUSH1 0xA0 SHL SUB DUP3 AND DUP3 SUB PUSH2 0xE4 JUMPI JUMP INVALID PUSH2 0x160 DUP1 PUSH1 0x40 MSTORE PUSH1 0x4 CALLDATASIZE LT ISZERO PUSH2 0x14 JUMPI PUSH1 0x0 DUP1 REVERT JUMPDEST PUSH1 0x0 CALLDATALOAD PUSH1 0xE0 SHR SWAP1 DUP2 PUSH4 0x4F3BCEC EQ PUSH2 0x1209 JUMPI POP DUP1 PUSH4 0x5D237B0 EQ PUSH2 0x11E0 JUMPI DUP1 PUSH4 0x79CE2EE EQ PUSH2 0xAA2 JUMPI DUP1 PUSH4 0x2DD35302 EQ PUSH2 0x6C7 JUMPI DUP1 PUSH4 0x4280FF9D EQ PUSH2 0x6A9 JUMPI DUP1 PUSH4 0x4E543B26 EQ PUSH2 0x626 JUMPI DUP1 PUSH4 0x4EFE3E41 EQ PUSH2 0x60B JUMPI DUP1 PUSH4 0x5831E9F5 EQ PUSH2 0x5EE JUMPI DUP1 PUSH4 0x715018A6 EQ PUSH2 0x595 JUMPI DUP1 PUSH4 0x78547E6C EQ PUSH2 0x507 JUMPI DUP1 PUSH4 0x79226FE6 EQ PUSH2 0x42F JUMPI DUP1 PUSH4 0x7B303965 EQ PUSH2 0x33D JUMPI DUP1 PUSH4 0x8DA5CB5B EQ PUSH2 0x314 JUMPI DUP1 PUSH4 0x9E2D0388 EQ PUSH2 0x2CD JUMPI DUP1 PUSH4 0x9E8A0F57 EQ PUSH2 0x2A7 JUMPI DUP1 PUSH4 0xD151959B EQ PUSH2 0x235 JUMPI DUP1 PUSH4 0xD2925A4E EQ PUSH2 0x209 JUMPI DUP1 PUSH4 0xE4135A86 EQ PUSH2 0x186 JUMPI PUSH4 0xF2FDE38B EQ PUSH2 0xF1 JUMPI PUSH1 0x0 DUP1 REVERT JUMPDEST CALLVALUE PUSH2 0x181 JUMPI PUSH1 0x20 CALLDATASIZE PUSH1 0x3 NOT ADD SLT PUSH2 0x181 JUMPI PUSH1 0x4 CALLDATALOAD PUSH1 0x1 PUSH1 0x1 PUSH1 0xA0 SHL SUB DUP2 DUP2 AND SWAP2 DUP3 SWAP1 SUB PUSH2 0x181 JUMPI PUSH2 0x120 PUSH2 0x142F JUMP JUMPDEST DUP2 ISZERO PUSH2 0x168 JUMPI PUSH1 0x0 SLOAD DUP3 PUSH12 0xFFFFFFFFFFFFFFFFFFFFFFFF PUSH1 0xA0 SHL DUP3 AND OR PUSH1 0x0 SSTORE AND PUSH32 0x8BE0079C531659141344CD1FD0A4F28419497F9722A3DAAFE3B4186F6B6457E0 PUSH1 0x0 DUP1 LOG3 STOP JUMPDEST PUSH1 0x40 MLOAD PUSH4 0x1E4FBDF7 PUSH1 0xE0 SHL DUP2 MSTORE PUSH1 0x0 PUSH1 0x4 DUP3 ADD MSTORE PUSH1 0x24 SWAP1 REVERT JUMPDEST PUSH1 0x0 DUP1 REVERT JUMPDEST CALLVALUE PUSH2 0x181 JUMPI PUSH1 0x20 CALLDATASIZE PUSH1 0x3 NOT ADD SLT PUSH2 0x181 JUMPI PUSH1 0x4 CALLDATALOAD PUSH1 0x1 PUSH1 0x1 PUSH1 0xA0 SHL SUB DUP2 DUP2 AND SWAP2 DUP3 DUP2 SUB PUSH2 0x181 JUMPI PUSH32 0xE1005776F2DA6426F3AA3CB12F7330AD724536E856E3922DD0650DF011C6B060 SWAP1 PUSH2 0x1D7 PUSH2 0x142F JUMP JUMPDEST PUSH1 0x1 SLOAD PUSH1 0x40 DUP1 MLOAD SWAP5 DUP3 AND PUSH1 0x1 PUSH1 0x1 PUSH1 0xA0 SHL SUB SWAP1 DUP2 AND DUP7 MSTORE SWAP3 SWAP1 SWAP3 AND PUSH1 0x20 DUP6 ADD MSTORE SWAP3 LOG1 PUSH1 0x1 PUSH1 0x1 PUSH1 0xA0 SHL SUB NOT AND OR PUSH1 0x1 SSTORE STOP JUMPDEST CALLVALUE PUSH2 0x181 JUMPI PUSH1 0x20 CALLDATASIZE PUSH1 0x3 NOT ADD SLT PUSH2 0x181 JUMPI PUSH1 0x4 CALLDATALOAD PUSH1 0x0 MSTORE PUSH1 0x6 PUSH1 0x20 MSTORE PUSH1 0x20 PUSH1 0x40 PUSH1 0x0 KECCAK256 SLOAD PUSH1 0x40 MLOAD SWAP1 DUP2 MSTORE RETURN JUMPDEST CALLVALUE PUSH2 0x181 JUMPI PUSH1 0x20 CALLDATASIZE PUSH1 0x3 NOT ADD SLT PUSH2 0x181 JUMPI PUSH1 0x4 CALLDATALOAD PUSH1 0x0 MSTORE PUSH1 0x3 PUSH1 0x20 MSTORE PUSH1 0xC0 PUSH1 0x1 PUSH1 0x40 PUSH1 0x0 KECCAK256 DUP1 SLOAD SWAP1 PUSH4 0xFFFFFFFF SWAP3 DUP4 SWAP2 ADD SLOAD AND SWAP1 PUSH1 0x40 MLOAD SWAP3 PUSH1 0x1 PUSH1 0x1 PUSH1 0x40 SHL SUB DUP1 DUP4 AND DUP6 MSTORE DUP1 DUP4 PUSH1 0x40 SHR AND PUSH1 0x20 DUP7 ADD MSTORE DUP3 PUSH1 0x80 SHR AND PUSH1 0x40 DUP6 ADD MSTORE DUP2 DUP6 SHR AND PUSH1 0x60 DUP5 ADD MSTORE PUSH1 0xE0 SHR PUSH1 0x80 DUP4 ADD MSTORE PUSH1 0xA0 DUP3 ADD MSTORE RETURN JUMPDEST CALLVALUE PUSH2 0x181 JUMPI PUSH1 0x20 CALLDATASIZE PUSH1 0x3 NOT ADD SLT PUSH2 0x181 JUMPI PUSH1 0x20 PUSH2 0x2C5 PUSH1 0x4 CALLDATALOAD PUSH2 0x1755 JUMP JUMPDEST PUSH1 0x40 MLOAD SWAP1 DUP2 MSTORE RETURN JUMPDEST CALLVALUE PUSH2 0x181 JUMPI PUSH1 0x40 CALLDATASIZE PUSH1 0x3 NOT ADD SLT PUSH2 0x181 JUMPI PUSH1 0x24 CALLDATALOAD PUSH1 0x4 CALLDATALOAD PUSH1 0x0 MSTORE PUSH1 0x6 PUSH1 0x20 MSTORE PUSH1 0x40 PUSH1 0x0 KECCAK256 DUP1 SLOAD DUP3 LT ISZERO PUSH2 0x181 JUMPI PUSH1 0x20 SWAP2 PUSH2 0x306 SWAP2 PUSH2 0x1401 JUMP JUMPDEST SWAP1 SLOAD PUSH1 0x40 MLOAD SWAP2 PUSH1 0x3 SHL SHR DUP2 MSTORE RETURN JUMPDEST CALLVALUE PUSH2 0x181 JUMPI PUSH1 0x0 CALLDATASIZE PUSH1 0x3 NOT ADD SLT PUSH2 0x181 JUMPI PUSH1 0x0 SLOAD PUSH1 0x40 MLOAD PUSH1 0x1 PUSH1 0x1 PUSH1 0xA0 SHL SUB SWAP1 SWAP2 AND DUP2 MSTORE PUSH1 0x20 SWAP1 RETURN JUMPDEST CALLVALUE PUSH2 0x181 JUMPI PUSH1 0x20 CALLDATASIZE PUSH1 0x3 NOT ADD SLT PUSH2 0x181 JUMPI PUSH1 0x0 PUSH1 0xA0 PUSH1 0x40 MLOAD PUSH2 0x35E DUP2 PUSH2 0x12DF JUMP JUMPDEST DUP3 DUP2 MSTORE DUP3 PUSH1 0x20 DUP3 ADD MSTORE DUP3 PUSH1 0x40 DUP3 ADD MSTORE DUP3 PUSH1 0x60 DUP3 ADD MSTORE DUP3 PUSH1 0x80 DUP3 ADD MSTORE ADD MSTORE PUSH1 0x4 CALLDATALOAD PUSH1 0x0 MSTORE PUSH1 0x3 PUSH1 0x20 MSTORE PUSH1 0xC0 PUSH1 0x40 PUSH1 0x0 KECCAK256 PUSH1 0xA0 PUSH1 0x40 MLOAD PUSH2 0x39B DUP2 PUSH2 0x12DF JUMP JUMPDEST PUSH1 0x1 DUP4 SLOAD PUSH1 0x1 PUSH1 0x1 PUSH1 0x40 SHL SUB SWAP5 DUP6 DUP3 AND SWAP6 DUP7 DUP6 MSTORE PUSH1 0x20 DUP6 ADD SWAP1 DUP1 DUP5 PUSH1 0x40 SHR AND DUP3 MSTORE PUSH1 0x40 DUP7 ADD DUP2 DUP6 PUSH1 0x80 SHR AND DUP2 MSTORE DUP2 PUSH1 0x60 DUP9 ADD SWAP4 PUSH4 0xFFFFFFFF SWAP10 DUP11 DUP1 SWAP10 DUP2 SWAP9 DUP16 DUP12 DUP5 SWAP2 SHR AND DUP10 MSTORE PUSH1 0x80 DUP14 ADD SWAP11 PUSH1 0xE0 SHR DUP12 MSTORE ADD SLOAD AND SWAP10 ADD SWAP9 DUP1 DUP11 MSTORE ISZERO PUSH2 0x425 JUMPI JUMPDEST PUSH1 0x40 MLOAD SWAP11 DUP12 MSTORE MLOAD AND PUSH1 0x20 DUP11 ADD MSTORE MLOAD AND PUSH1 0x40 DUP9 ADD MSTORE MLOAD AND PUSH1 0x60 DUP7 ADD MSTORE MLOAD AND PUSH1 0x80 DUP5 ADD MSTORE MLOAD AND PUSH1 0xA0 DUP3 ADD MSTORE RETURN JUMPDEST PUSH2 0x4B0 DUP10 MSTORE PUSH2 0x3FA JUMP JUMPDEST CALLVALUE PUSH2 0x181 JUMPI PUSH1 0x60 DUP1 PUSH1 0x3 NOT CALLDATASIZE ADD SLT PUSH2 0x181 JUMPI PUSH2 0x452 PUSH1 0x44 CALLDATALOAD PUSH1 0x24 CALLDATALOAD PUSH1 0x4 CALLDATALOAD PUSH2 0x157A JUMP JUMPDEST PUSH1 0x40 MLOAD SWAP1 PUSH1 0x20 DUP1 DUP4 ADD DUP2 DUP5 MSTORE DUP3 MLOAD DUP1 SWAP2 MSTORE PUSH1 0x40 DUP5 ADD SWAP2 DUP1 PUSH1 0x40 DUP4 PUSH1 0x5 SHL DUP8 ADD ADD SWAP5 ADD SWAP3 PUSH1 0x0 SWAP7 JUMPDEST DUP4 DUP9 LT PUSH2 0x486 JUMPI DUP7 DUP7 SUB DUP8 RETURN JUMPDEST SWAP1 SWAP2 SWAP3 SWAP4 SWAP5 DUP4 DUP1 PUSH1 0x1 SWAP3 PUSH1 0x3F NOT DUP11 DUP3 SUB ADD DUP7 MSTORE DUP9 MLOAD SWAP1 DUP2 MLOAD DUP2 MSTORE DUP3 DUP3 ADD MLOAD DUP4 DUP3 ADD MSTORE PUSH2 0x4C1 PUSH1 0x40 DUP4 ADD MLOAD PUSH1 0xE0 PUSH1 0x40 DUP5 ADD MSTORE PUSH1 0xE0 DUP4 ADD SWAP1 PUSH2 0x13C1 JUMP JUMPDEST SWAP2 PUSH1 0x1 PUSH1 0x1 PUSH1 0x40 SHL SUB DUP1 DUP9 DUP4 ADD MLOAD AND DUP9 DUP5 ADD MSTORE PUSH1 0x80 DUP2 DUP2 DUP5 ADD MLOAD AND SWAP1 DUP5 ADD MSTORE PUSH1 0xA0 DUP2 DUP2 DUP5 ADD MLOAD AND SWAP1 DUP5 ADD MSTORE PUSH1 0xC0 DUP1 SWAP3 ADD MLOAD AND SWAP2 ADD MSTORE SWAP8 ADD SWAP4 ADD SWAP8 ADD SWAP7 SWAP1 SWAP4 SWAP3 SWAP2 SWAP4 PUSH2 0x479 JUMP JUMPDEST CALLVALUE PUSH2 0x181 JUMPI PUSH1 0x20 CALLDATASIZE PUSH1 0x3 NOT ADD SLT PUSH2 0x181 JUMPI PUSH1 0x4 CALLDATALOAD PUSH1 0x0 MSTORE PUSH1 0x4 PUSH1 0x20 MSTORE PUSH1 0x40 PUSH1 0x0 KECCAK256 DUP1 SLOAD PUSH1 0x1 DUP3 ADD SLOAD SWAP2 PUSH2 0x563 PUSH1 0x3 PUSH2 0x541 PUSH1 0x2 DUP5 ADD PUSH2 0x131B JUMP JUMPDEST SWAP3 ADD SLOAD SWAP2 PUSH1 0x40 MLOAD SWAP5 DUP6 SWAP5 DUP6 MSTORE PUSH1 0x20 DUP6 ADD MSTORE PUSH1 0xE0 PUSH1 0x40 DUP6 ADD MSTORE PUSH1 0xE0 DUP5 ADD SWAP1 PUSH2 0x13C1 JUMP JUMPDEST SWAP1 PUSH1 0x1 PUSH1 0x1 PUSH1 0x40 SHL SUB DUP1 DUP3 AND PUSH1 0x60 DUP6 ADD MSTORE DUP1 DUP3 PUSH1 0x40 SHR AND PUSH1 0x80 DUP6 ADD MSTORE DUP2 PUSH1 0x80 SHR AND PUSH1 0xA0 DUP5 ADD MSTORE PUSH1 0xC0 SHR PUSH1 0xC0 DUP4 ADD MSTORE SUB SWAP1 RETURN JUMPDEST CALLVALUE PUSH2 0x181 JUMPI PUSH1 0x0 CALLDATASIZE PUSH1 0x3 NOT ADD SLT PUSH2 0x181 JUMPI PUSH2 0x5AE PUSH2 0x142F JUMP JUMPDEST PUSH1 0x0 DUP1 SLOAD PUSH1 0x1 PUSH1 0x1 PUSH1 0xA0 SHL SUB NOT DUP2 AND DUP3 SSTORE PUSH1 0x1 PUSH1 0x1 PUSH1 0xA0 SHL SUB AND PUSH32 0x8BE0079C531659141344CD1FD0A4F28419497F9722A3DAAFE3B4186F6B6457E0 DUP3 DUP1 LOG3 STOP JUMPDEST CALLVALUE PUSH2 0x181 JUMPI PUSH1 0x0 CALLDATASIZE PUSH1 0x3 NOT ADD SLT PUSH2 0x181 JUMPI PUSH1 0x20 PUSH1 0x40 MLOAD PUSH2 0x4B0 DUP2 MSTORE RETURN JUMPDEST CALLVALUE PUSH2 0x181 JUMPI PUSH1 0x0 CALLDATASIZE PUSH1 0x3 NOT ADD SLT PUSH2 0x181 JUMPI PUSH1 0x20 PUSH1 0x40 MLOAD DUP2 DUP2 MSTORE RETURN JUMPDEST CALLVALUE PUSH2 0x181 JUMPI PUSH1 0x20 CALLDATASIZE PUSH1 0x3 NOT ADD SLT PUSH2 0x181 JUMPI PUSH1 0x4 CALLDATALOAD PUSH1 0x1 PUSH1 0x1 PUSH1 0xA0 SHL SUB DUP2 DUP2 AND SWAP2 DUP3 DUP2 SUB PUSH2 0x181 JUMPI PUSH32 0x84B83D2B66CAC119CCAACA68B476B0DC5371D5F2FD27F697770A910175FD38B6 SWAP1 PUSH2 0x677 PUSH2 0x142F JUMP JUMPDEST PUSH1 0x2 SLOAD PUSH1 0x40 DUP1 MLOAD SWAP5 DUP3 AND PUSH1 0x1 PUSH1 0x1 PUSH1 0xA0 SHL SUB SWAP1 DUP2 AND DUP7 MSTORE SWAP3 SWAP1 SWAP3 AND PUSH1 0x20 DUP6 ADD MSTORE SWAP3 LOG1 PUSH1 0x1 PUSH1 0x1 PUSH1 0xA0 SHL SUB NOT AND OR PUSH1 0x2 SSTORE STOP JUMPDEST CALLVALUE PUSH2 0x181 JUMPI PUSH1 0x0 CALLDATASIZE PUSH1 0x3 NOT ADD SLT PUSH2 0x181 JUMPI PUSH1 0x20 PUSH1 0x5 SLOAD PUSH1 0x40 MLOAD SWAP1 DUP2 MSTORE RETURN JUMPDEST CALLVALUE PUSH2 0x181 JUMPI PUSH1 0xE0 CALLDATASIZE PUSH1 0x3 NOT ADD SLT PUSH2 0x181 JUMPI PUSH1 0x4 CALLDATALOAD PUSH1 0x1 PUSH1 0x1 PUSH1 0x40 SHL SUB DUP2 GT PUSH2 0x181 JUMPI PUSH2 0x6F7 SWAP1 CALLDATASIZE SWAP1 PUSH1 0x4 ADD PUSH2 0x125A JUMP JUMPDEST SWAP1 PUSH1 0xC0 MSTORE PUSH1 0x24 CALLDATALOAD PUSH1 0x1 PUSH1 0x1 PUSH1 0x40 SHL SUB DUP2 GT PUSH2 0x181 JUMPI PUSH2 0x71A SWAP1 CALLDATASIZE SWAP1 PUSH1 0x4 ADD PUSH2 0x125A JUMP JUMPDEST PUSH2 0x120 MSTORE PUSH2 0x140 MSTORE PUSH1 0x44 CALLDATALOAD PUSH1 0x1 PUSH1 0x1 PUSH1 0x40 SHL SUB DUP2 GT PUSH2 0x181 JUMPI PUSH2 0x741 SWAP1 CALLDATASIZE SWAP1 PUSH1 0x4 ADD PUSH2 0x125A JUMP JUMPDEST SWAP1 PUSH1 0x64 CALLDATALOAD PUSH1 0x1 PUSH1 0x1 PUSH1 0x40 SHL SUB DUP2 GT PUSH2 0x181 JUMPI PUSH2 0x761 SWAP1 CALLDATASIZE SWAP1 PUSH1 0x4 ADD PUSH2 0x125A JUMP JUMPDEST PUSH1 0xE0 MSTORE PUSH1 0x84 CALLDATALOAD PUSH1 0x1 PUSH1 0x1 PUSH1 0x40 SHL SUB DUP2 GT PUSH2 0x181 JUMPI PUSH2 0x783 SWAP1 CALLDATASIZE SWAP1 PUSH1 0x4 ADD PUSH2 0x125A JUMP JUMPDEST SWAP4 PUSH1 0x1 PUSH1 0x1 PUSH1 0x40 SHL SUB PUSH1 0xA4 CALLDATALOAD GT PUSH2 0x181 JUMPI PUSH2 0x7A3 CALLDATASIZE PUSH1 0xA4 CALLDATALOAD PUSH1 0x4 ADD PUSH2 0x125A JUMP JUMPDEST PUSH1 0x80 MSTORE SWAP2 PUSH1 0x1 PUSH1 0x1 PUSH1 0x40 SHL SUB PUSH1 0xC4 CALLDATALOAD GT PUSH2 0x181 JUMPI PUSH2 0x7C6 CALLDATASIZE PUSH1 0xC4 CALLDATALOAD PUSH1 0x4 ADD PUSH2 0x125A JUMP JUMPDEST PUSH1 0x2 SLOAD SWAP1 SWAP9 SWAP1 PUSH1 0x1 PUSH1 0x1 PUSH1 0xA0 SHL SUB AND CALLER SUB PUSH2 0xA90 JUMPI PUSH2 0x120 MLOAD DUP2 EQ DUP1 PUSH2 0xA87 JUMPI JUMPDEST DUP1 PUSH2 0xA7C JUMPI JUMPDEST DUP1 PUSH2 0xA73 JUMPI JUMPDEST DUP1 PUSH2 0xA68 JUMPI JUMPDEST DUP1 PUSH2 0xA5F JUMPI JUMPDEST ISZERO PUSH2 0xA22 JUMPI PUSH1 0x32 DUP2 GT PUSH2 0x9DD JUMPI PUSH1 0x0 PUSH1 0xA0 MSTORE JUMPDEST PUSH1 0xA0 MLOAD DUP2 DUP2 LT ISZERO PUSH2 0x9DB JUMPI PUSH2 0x854 PUSH2 0x82F PUSH1 0x4 SWAP3 DUP5 PUSH1 0xC0 MLOAD PUSH2 0x14DD JUMP JUMPDEST PUSH1 0x40 MLOAD SWAP3 DUP4 SWAP2 PUSH1 0x20 SWAP5 DUP2 DUP7 SWAP3 DUP4 DUP4 ADD SWAP7 DUP8 CALLDATACOPY DUP2 ADD PUSH1 0x0 DUP4 DUP3 ADD MSTORE SUB DUP1 DUP5 MSTORE ADD DUP3 PUSH2 0x12FA JUMP JUMPDEST MLOAD SWAP1 KECCAK256 PUSH1 0x0 MSTORE MSTORE DUP9 DUP9 DUP9 DUP9 DUP9 DUP9 DUP9 DUP8 PUSH1 0x3 PUSH1 0x40 PUSH1 0x0 KECCAK256 ADD SLOAD PUSH1 0xC0 SHR PUSH2 0x9CE JUMPI PUSH2 0x8DB PUSH2 0x8EE PUSH2 0x8DB PUSH2 0x8E0 PUSH2 0x8DB PUSH2 0x8CF PUSH2 0x8C0 PUSH2 0x89B PUSH2 0x8F9 SWAP9 PUSH1 0xA0 MLOAD SWAP1 PUSH1 0xC0 MLOAD PUSH2 0x14DD JUMP JUMPDEST PUSH2 0x100 SWAP15 SWAP2 SWAP15 MSTORE PUSH2 0x8B5 PUSH1 0xA0 MLOAD PUSH2 0x120 MLOAD PUSH2 0x140 MLOAD PUSH2 0x151E JUMP JUMPDEST CALLDATALOAD SWAP11 PUSH1 0xA0 MLOAD SWAP2 PUSH2 0x151E JUMP JUMPDEST CALLDATALOAD SWAP11 PUSH1 0xA0 MLOAD SWAP1 PUSH1 0xE0 MLOAD SWAP1 PUSH2 0x14DD JUMP JUMPDEST SWAP8 SWAP1 SWAP13 PUSH1 0xA0 MLOAD SWAP2 PUSH2 0x151E JUMP JUMPDEST PUSH2 0x152E JUMP JUMPDEST SWAP7 PUSH1 0xA0 MLOAD SWAP1 PUSH1 0x80 MLOAD SWAP1 PUSH2 0x151E JUMP JUMPDEST SWAP9 PUSH1 0xA0 MLOAD SWAP1 DUP13 PUSH2 0x151E JUMP JUMPDEST SWAP1 ADDRESS EXTCODESIZE ISZERO PUSH2 0x181 JUMPI PUSH2 0x940 SWAP8 PUSH1 0x1 PUSH1 0x1 PUSH1 0x40 SHL SUB PUSH2 0x95C DUP2 SWAP6 DUP3 SWAP5 PUSH1 0x0 SWAP12 PUSH1 0xE4 SWAP11 PUSH1 0x40 MLOAD SWAP15 DUP16 SWAP14 DUP15 SWAP14 DUP15 PUSH4 0x3CE7177 PUSH1 0xE1 SHL DUP2 MSTORE PUSH1 0xE0 PUSH1 0x4 DUP3 ADD MSTORE ADD SWAP1 PUSH2 0x100 MLOAD SWAP1 PUSH2 0x14BC JUMP JUMPDEST SWAP4 PUSH1 0x24 DUP14 ADD MSTORE PUSH1 0x44 DUP13 ADD MSTORE PUSH1 0x3 NOT DUP12 DUP5 SUB ADD PUSH1 0x64 DUP13 ADD MSTORE PUSH2 0x14BC JUMP JUMPDEST SWAP6 AND PUSH1 0x84 DUP8 ADD MSTORE AND PUSH1 0xA4 DUP6 ADD MSTORE AND PUSH1 0xC4 DUP4 ADD MSTORE SUB DUP2 DUP4 ADDRESS GAS CALL DUP1 ISZERO PUSH2 0x9C2 JUMPI PUSH2 0x995 JUMPI JUMPDEST POP JUMPDEST PUSH2 0x98D PUSH1 0xA0 MLOAD PUSH2 0x14AD JUMP JUMPDEST PUSH1 0xA0 MSTORE PUSH2 0x812 JUMP JUMPDEST PUSH1 0x1 PUSH1 0x1 PUSH1 0x40 SHL SUB DUP2 GT PUSH2 0x9AC JUMPI PUSH1 0x40 MSTORE DUP10 PUSH2 0x980 JUMP JUMPDEST PUSH4 0x4E487B71 PUSH1 0xE0 SHL PUSH1 0x0 MSTORE PUSH1 0x41 PUSH1 0x4 MSTORE PUSH1 0x24 PUSH1 0x0 REVERT JUMPDEST PUSH1 0x40 MLOAD RETURNDATASIZE PUSH1 0x0 DUP3 RETURNDATACOPY RETURNDATASIZE SWAP1 REVERT JUMPDEST POP POP POP POP POP POP POP POP PUSH2 0x982 JUMP JUMPDEST STOP JUMPDEST PUSH1 0x40 MLOAD PUSH3 0x461BCD PUSH1 0xE5 SHL DUP2 MSTORE PUSH1 0x20 PUSH1 0x4 DUP3 ADD MSTORE PUSH1 0x18 PUSH1 0x24 DUP3 ADD MSTORE PUSH32 0x4D617820353020626174746C6573207065722062617463680000000000000000 PUSH1 0x44 DUP3 ADD MSTORE PUSH1 0x64 SWAP1 REVERT JUMPDEST PUSH1 0x40 MLOAD PUSH3 0x461BCD PUSH1 0xE5 SHL DUP2 MSTORE PUSH1 0x20 PUSH1 0x4 DUP3 ADD MSTORE PUSH1 0x15 PUSH1 0x24 DUP3 ADD MSTORE PUSH21 0x82E4E4C2F240D8CADCCEE8D040DAD2E6DAC2E8C6D PUSH1 0x5B SHL PUSH1 0x44 DUP3 ADD MSTORE PUSH1 0x64 SWAP1 REVERT JUMPDEST POP DUP9 DUP2 EQ PUSH2 0x7FF JUMP JUMPDEST POP PUSH1 0x80 MLOAD DUP2 EQ PUSH2 0x7F9 JUMP JUMPDEST POP DUP8 DUP2 EQ PUSH2 0x7F3 JUMP JUMPDEST POP PUSH1 0xE0 MLOAD DUP2 EQ PUSH2 0x7ED JUMP JUMPDEST POP DUP4 DUP2 EQ PUSH2 0x7E7 JUMP JUMPDEST PUSH1 0x40 MLOAD PUSH4 0x2B910D6D PUSH1 0xE1 SHL DUP2 MSTORE PUSH1 0x4 SWAP1 REVERT JUMPDEST CALLVALUE PUSH2 0x181 JUMPI PUSH1 0xE0 CALLDATASIZE PUSH1 0x3 NOT ADD SLT PUSH2 0x181 JUMPI PUSH1 0x4 CALLDATALOAD PUSH1 0x1 PUSH1 0x1 PUSH1 0x40 SHL SUB DUP2 GT PUSH2 0x181 JUMPI PUSH2 0xAD2 SWAP1 CALLDATASIZE SWAP1 PUSH1 0x4 ADD PUSH2 0x122D JUMP JUMPDEST SWAP1 PUSH1 0x64 CALLDATALOAD PUSH1 0x1 PUSH1 0x1 PUSH1 0x40 SHL SUB DUP2 GT PUSH2 0x181 JUMPI PUSH2 0xAF2 SWAP1 CALLDATASIZE SWAP1 PUSH1 0x4 ADD PUSH2 0x122D JUMP JUMPDEST PUSH1 0x84 CALLDATALOAD SWAP3 PUSH1 0x1 PUSH1 0x1 PUSH1 0x40 SHL SUB DUP5 AND DUP5 SUB PUSH2 0x181 JUMPI PUSH1 0xA4 CALLDATALOAD PUSH1 0x1 PUSH1 0x1 PUSH1 0x40 SHL SUB DUP2 AND DUP2 SUB PUSH2 0x181 JUMPI PUSH1 0xC4 CALLDATALOAD SWAP1 PUSH1 0x1 PUSH1 0x1 PUSH1 0x40 SHL SUB DUP3 AND DUP3 SUB PUSH2 0x181 JUMPI PUSH1 0x2 SLOAD PUSH1 0x1 PUSH1 0x1 PUSH1 0xA0 SHL SUB AND CALLER SUB PUSH2 0xA90 JUMPI PUSH1 0x44 CALLDATALOAD PUSH1 0x24 CALLDATALOAD EQ PUSH2 0x11CE JUMPI PUSH1 0x40 MLOAD PUSH1 0x20 DUP2 ADD SWAP1 DUP9 DUP6 DUP4 CALLDATACOPY PUSH2 0xB70 PUSH1 0x20 DUP3 DUP12 DUP2 ADD PUSH1 0x0 DUP4 DUP3 ADD MSTORE SUB DUP1 DUP5 MSTORE ADD DUP3 PUSH2 0x12FA JUMP JUMPDEST MLOAD SWAP1 KECCAK256 SWAP5 DUP6 PUSH1 0x0 MSTORE PUSH1 0x4 PUSH1 0x20 MSTORE PUSH1 0x3 PUSH1 0x40 PUSH1 0x0 KECCAK256 ADD SLOAD PUSH1 0xC0 SHR PUSH2 0x11BC JUMPI PUSH1 0x24 CALLDATALOAD PUSH1 0x0 MSTORE PUSH1 0x3 PUSH1 0x20 MSTORE PUSH1 0x1 PUSH1 0x40 PUSH1 0x0 KECCAK256 ADD DUP1 SLOAD PUSH4 0xFFFFFFFF DUP2 AND ISZERO PUSH2 0x11A8 JUMPI JUMPDEST POP POP PUSH1 0x44 CALLDATALOAD PUSH1 0x0 MSTORE PUSH1 0x1 PUSH1 0x40 PUSH1 0x0 KECCAK256 ADD DUP1 SLOAD PUSH4 0xFFFFFFFF DUP2 AND ISZERO PUSH2 0x1194 JUMPI JUMPDEST POP POP PUSH1 0x24 CALLDATALOAD PUSH1 0x0 MSTORE PUSH4 0xFFFFFFFF PUSH1 0x1 PUSH1 0x40 PUSH1 0x0 KECCAK256 ADD SLOAD AND SWAP5 PUSH1 0x44 CALLDATALOAD PUSH1 0x0 MSTORE PUSH4 0xFFFFFFFF PUSH1 0x1 PUSH1 0x40 PUSH1 0x0 KECCAK256 ADD SLOAD AND SWAP5 PUSH2 0xC06 DUP8 DUP8 PUSH2 0x1819 JUMP JUMPDEST PUSH2 0x190 DUP1 DUP3 SGT PUSH2 0x118C JUMPI JUMPDEST POP PUSH2 0x18F NOT DUP1 DUP3 SLT PUSH2 0x1184 JUMPI JUMPDEST POP PUSH1 0x20 DUP2 PUSH1 0x5 SHL SDIV DUP2 SUB PUSH2 0x1140 JUMPI PUSH2 0x320 SWAP1 PUSH1 0x5 SHL SDIV PUSH1 0x0 DUP2 SLT PUSH1 0x10 DUP3 DUP2 SUB SLT DUP2 AND SWAP1 PUSH1 0x10 DUP4 DUP2 SUB SGT SWAP1 ISZERO AND OR PUSH2 0x1140 JUMPI PUSH1 0x10 SUB PUSH1 0x1 DUP2 SLT PUSH2 0x117C JUMPI JUMPDEST DUP1 DUP1 DUP10 ADD SLT PUSH1 0x0 DUP10 SLT SWAP1 DUP1 ISZERO DUP3 AND SWAP2 ISZERO AND OR PUSH2 0x1140 JUMPI DUP1 PUSH2 0xC82 DUP2 PUSH2 0xBB8 SWAP4 DUP12 ADD SWAP10 PUSH2 0x1819 JUMP JUMPDEST SWAP9 ADD SGT PUSH2 0x1172 JUMPI JUMPDEST PUSH1 0x64 DUP7 SLT PUSH2 0x1169 JUMPI JUMPDEST PUSH2 0xBB8 DUP8 SGT PUSH2 0x115F JUMPI JUMPDEST PUSH1 0x64 DUP8 SLT PUSH2 0x1156 JUMPI JUMPDEST PUSH1 0x24 CALLDATALOAD PUSH1 0x0 MSTORE PUSH1 0x3 PUSH1 0x20 MSTORE PUSH1 0x40 PUSH1 0x0 KECCAK256 PUSH2 0xD0C PUSH2 0xCE4 PUSH1 0x1 PUSH1 0x1 PUSH1 0x40 SHL SUB DUP4 SLOAD DUP2 PUSH2 0xCD2 DUP2 DUP4 AND PUSH2 0x145B JUMP JUMPDEST AND SWAP1 DUP3 NOT AND OR DUP1 DUP6 SSTORE PUSH1 0x80 SHR AND PUSH2 0x145B JUMP JUMPDEST DUP3 SLOAD PUSH8 0xFFFFFFFFFFFFFFFF PUSH1 0x80 SHL NOT AND PUSH1 0x80 SWAP2 SWAP1 SWAP2 SHL PUSH8 0xFFFFFFFFFFFFFFFF PUSH1 0x80 SHL AND OR DUP3 SSTORE JUMP JUMPDEST DUP1 SLOAD PUSH4 0xFFFFFFFF DUP1 DUP3 PUSH1 0xC0 SHR AND EQ PUSH2 0x1140 JUMPI PUSH4 0xFFFFFFFF PUSH1 0xC0 SHL PUSH1 0x1 PUSH4 0xFFFFFFFF DUP4 PUSH1 0xC0 SHR AND ADD PUSH1 0xC0 SHL AND DUP1 PUSH4 0xFFFFFFFF PUSH1 0xC0 SHL NOT DUP4 AND OR DUP1 DUP5 SSTORE DUP1 PUSH1 0xE0 SHR PUSH4 0xFFFFFFFF DUP3 PUSH1 0xC0 SHR AND GT PUSH2 0x1119 JUMPI JUMPDEST POP POP POP PUSH1 0x1 PUSH4 0xFFFFFFFF DUP9 AND PUSH4 0xFFFFFFFF NOT DUP3 DUP5 ADD SLOAD AND OR SWAP2 ADD SSTORE PUSH1 0x44 CALLDATALOAD PUSH1 0x0 MSTORE PUSH1 0x3 PUSH1 0x20 MSTORE PUSH1 0x40 PUSH1 0x0 KECCAK256 PUSH2 0xDCC PUSH2 0xD9F PUSH1 0x1 PUSH1 0x1 PUSH1 0x40 SHL SUB DUP4 SLOAD PUSH1 0x40 SHR AND PUSH2 0x145B JUMP JUMPDEST DUP3 SLOAD PUSH16 0xFFFFFFFFFFFFFFFF0000000000000000 NOT AND PUSH1 0x40 SWAP2 SWAP1 SWAP2 SHL PUSH8 0xFFFFFFFFFFFFFFFF PUSH1 0x40 SHL AND OR DUP3 SSTORE JUMP JUMPDEST PUSH2 0xDE5 PUSH2 0xCE4 PUSH1 0x1 PUSH1 0x1 PUSH1 0x40 SHL SUB DUP4 SLOAD PUSH1 0x80 SHR AND PUSH2 0x145B JUMP JUMPDEST DUP1 SLOAD PUSH4 0xFFFFFFFF PUSH1 0xC0 SHL NOT AND DUP2 SSTORE PUSH1 0x1 ADD DUP1 SLOAD PUSH4 0xFFFFFFFF NOT AND PUSH4 0xFFFFFFFF DUP10 AND OR SWAP1 SSTORE PUSH1 0x40 MLOAD PUSH2 0xE15 DUP2 PUSH2 0x12C4 JUMP JUMPDEST PUSH1 0x24 CALLDATALOAD DUP2 MSTORE PUSH1 0x44 CALLDATALOAD PUSH1 0x20 DUP3 ADD MSTORE PUSH1 0x1 PUSH1 0x1 PUSH1 0x40 SHL SUB DUP4 GT PUSH2 0x9AC JUMPI PUSH1 0x40 MLOAD PUSH2 0xE47 PUSH1 0x1F DUP6 ADD PUSH1 0x1F NOT AND PUSH1 0x20 ADD DUP3 PUSH2 0x12FA JUMP JUMPDEST DUP4 DUP2 MSTORE CALLDATASIZE DUP5 DUP7 ADD GT PUSH2 0x181 JUMPI DUP4 DUP6 PUSH1 0x20 DUP4 ADD CALLDATACOPY PUSH1 0x0 PUSH1 0x20 DUP6 DUP4 ADD ADD MSTORE PUSH1 0x40 DUP3 ADD MSTORE PUSH1 0x1 PUSH1 0x1 PUSH1 0x40 SHL SUB DUP11 AND PUSH1 0x60 DUP3 ADD MSTORE PUSH1 0x1 PUSH1 0x1 PUSH1 0x40 SHL SUB DUP6 AND PUSH1 0x80 DUP3 ADD MSTORE PUSH1 0x1 PUSH1 0x1 PUSH1 0x40 SHL SUB DUP7 AND PUSH1 0xA0 DUP3 ADD MSTORE PUSH1 0x1 PUSH1 0x1 PUSH1 0x40 SHL SUB TIMESTAMP AND PUSH1 0xC0 DUP3 ADD MSTORE DUP9 PUSH1 0x0 MSTORE PUSH1 0x4 PUSH1 0x20 MSTORE PUSH1 0x40 PUSH1 0x0 KECCAK256 DUP2 MLOAD DUP2 SSTORE PUSH1 0x20 DUP3 ADD MLOAD PUSH1 0x1 DUP3 ADD SSTORE PUSH1 0x40 DUP3 ADD MLOAD DUP1 MLOAD SWAP1 PUSH1 0x1 PUSH1 0x1 PUSH1 0x40 SHL SUB DUP3 GT PUSH2 0x9AC JUMPI PUSH2 0xEE3 PUSH1 0x2 DUP5 ADD SLOAD PUSH2 0x128A JUMP JUMPDEST PUSH1 0x1F DUP2 GT PUSH2 0x10D2 JUMPI JUMPDEST POP PUSH1 0x20 SWAP1 PUSH1 0x1F DUP4 GT PUSH1 0x1 EQ PUSH2 0x1060 JUMPI PUSH1 0x3 SWAP4 SWAP3 SWAP2 PUSH1 0x0 SWAP2 DUP4 PUSH2 0x1055 JUMPI JUMPDEST POP POP DUP2 PUSH1 0x1 SHL SWAP2 PUSH1 0x0 NOT SWAP1 DUP6 SHL SHR NOT AND OR PUSH1 0x2 DUP3 ADD SSTORE JUMPDEST PUSH1 0x60 DUP4 ADD MLOAD PUSH1 0x80 DUP1 DUP6 ADD MLOAD PUSH1 0xA0 DUP7 ADD MLOAD PUSH1 0xC0 SWAP7 DUP8 ADD MLOAD SWAP1 SWAP7 SHL PUSH1 0x1 PUSH1 0x1 PUSH1 0xC0 SHL SUB NOT AND PUSH1 0x1 PUSH1 0x1 PUSH1 0x40 SHL SUB SWAP1 SWAP4 AND PUSH1 0x40 SWAP2 DUP3 SHL PUSH8 0xFFFFFFFFFFFFFFFF PUSH1 0x40 SHL AND OR PUSH8 0xFFFFFFFFFFFFFFFF PUSH1 0x80 SHL SWAP7 SWAP1 SWAP3 SHL SWAP6 SWAP1 SWAP6 AND OR OR SWAP2 ADD SSTORE PUSH1 0x24 CALLDATALOAD PUSH1 0x0 SWAP1 DUP2 MSTORE PUSH1 0x6 PUSH1 0x20 MSTORE KECCAK256 PUSH2 0xF93 SWAP1 DUP10 SWAP1 PUSH2 0x1473 JUMP JUMPDEST PUSH1 0x44 CALLDATALOAD PUSH1 0x0 MSTORE PUSH1 0x6 PUSH1 0x20 MSTORE DUP8 PUSH1 0x40 PUSH1 0x0 KECCAK256 SWAP1 PUSH2 0xFAE SWAP2 PUSH2 0x1473 JUMP JUMPDEST PUSH1 0x5 SLOAD PUSH2 0xFBA SWAP1 PUSH2 0x14AD JUMP JUMPDEST PUSH1 0x5 SSTORE PUSH1 0x40 MLOAD SWAP10 PUSH1 0xE0 DUP12 MSTORE PUSH1 0xE0 DUP12 ADD SWAP1 PUSH2 0xFD3 SWAP3 PUSH2 0x14BC JUMP JUMPDEST SWAP1 DUP10 DUP3 SUB PUSH1 0x20 DUP12 ADD MSTORE PUSH2 0xFE5 SWAP3 PUSH2 0x14BC JUMP JUMPDEST SWAP6 PUSH1 0x1 PUSH1 0x1 PUSH1 0x40 SHL SUB AND PUSH1 0x40 DUP9 ADD MSTORE PUSH1 0x1 PUSH1 0x1 PUSH1 0x40 SHL SUB AND PUSH1 0x60 DUP8 ADD MSTORE PUSH1 0x1 PUSH1 0x1 PUSH1 0x40 SHL SUB AND PUSH1 0x80 DUP7 ADD MSTORE PUSH4 0xFFFFFFFF AND PUSH1 0xA0 DUP6 ADD MSTORE PUSH4 0xFFFFFFFF AND PUSH1 0xC0 DUP5 ADD MSTORE PUSH1 0x44 CALLDATALOAD SWAP3 DUP1 PUSH1 0x24 CALLDATALOAD SWAP4 SUB PUSH32 0xDA4D0094AEA97573065B2B5B4262A2D3B66D51932FDECBDBA980F9265B9A2CB SWAP2 LOG4 STOP JUMPDEST ADD MLOAD SWAP1 POP DUP16 DUP1 PUSH2 0xF09 JUMP JUMPDEST SWAP1 PUSH1 0x2 DUP5 ADD PUSH1 0x0 MSTORE PUSH1 0x20 PUSH1 0x0 KECCAK256 SWAP2 PUSH1 0x0 JUMPDEST PUSH1 0x1F NOT DUP6 AND DUP2 LT PUSH2 0x10BA JUMPI POP SWAP2 DUP4 SWAP2 PUSH1 0x1 SWAP4 PUSH1 0x3 SWAP7 SWAP6 PUSH1 0x1F NOT DUP2 AND LT PUSH2 0x10A2 JUMPI JUMPDEST POP POP POP DUP2 SHL ADD PUSH1 0x2 DUP3 ADD SSTORE PUSH2 0xF20 JUMP JUMPDEST ADD MLOAD PUSH1 0x0 NOT DUP4 DUP8 SHL PUSH1 0xF8 AND SHR NOT AND SWAP1 SSTORE DUP16 DUP1 DUP1 PUSH2 0x1092 JUMP JUMPDEST SWAP2 SWAP3 PUSH1 0x20 PUSH1 0x1 DUP2 SWAP3 DUP7 DUP6 ADD MLOAD DUP2 SSTORE ADD SWAP5 ADD SWAP3 ADD PUSH2 0x1071 JUMP JUMPDEST PUSH1 0x2 DUP5 ADD PUSH1 0x0 MSTORE PUSH1 0x20 PUSH1 0x0 KECCAK256 PUSH1 0x1F DUP5 ADD PUSH1 0x5 SHR DUP2 ADD PUSH1 0x20 DUP6 LT PUSH2 0x1112 JUMPI JUMPDEST PUSH1 0x1F DUP4 ADD PUSH1 0x5 SHR DUP3 ADD DUP2 LT PUSH2 0x1106 JUMPI POP POP PUSH2 0xEEC JUMP JUMPDEST PUSH1 0x0 DUP2 SSTORE PUSH1 0x1 ADD PUSH2 0x10F0 JUMP JUMPDEST POP DUP1 PUSH2 0x10F0 JUMP JUMPDEST PUSH1 0x1 PUSH1 0x1 PUSH1 0xC0 SHL SUB SWAP1 SWAP3 AND OR PUSH1 0x20 SWAP2 SWAP1 SWAP2 SHL PUSH1 0x1 PUSH1 0x1 PUSH1 0xE0 SHL SUB NOT AND OR DUP2 SSTORE DUP12 DUP1 DUP1 PUSH2 0xD5B JUMP JUMPDEST PUSH4 0x4E487B71 PUSH1 0xE0 SHL PUSH1 0x0 MSTORE PUSH1 0x11 PUSH1 0x4 MSTORE PUSH1 0x24 PUSH1 0x0 REVERT JUMPDEST PUSH1 0x64 SWAP7 POP PUSH2 0xCA6 JUMP JUMPDEST PUSH2 0xBB8 SWAP7 POP PUSH2 0xC9D JUMP JUMPDEST PUSH1 0x64 SWAP6 POP PUSH2 0xC93 JUMP JUMPDEST PUSH2 0xBB8 SWAP6 POP PUSH2 0xC8A JUMP JUMPDEST POP PUSH1 0x1 PUSH2 0xC5B JUMP JUMPDEST SWAP1 POP DUP12 PUSH2 0xC1E JUMP JUMPDEST SWAP1 POP DUP12 PUSH2 0xC11 JUMP JUMPDEST PUSH4 0xFFFFFFFF NOT AND PUSH2 0x4B0 OR SWAP1 SSTORE DUP9 DUP1 PUSH2 0xBCE JUMP JUMPDEST PUSH4 0xFFFFFFFF NOT AND PUSH2 0x4B0 OR SWAP1 SSTORE DUP9 DUP1 PUSH2 0xBAF JUMP JUMPDEST PUSH1 0x40 MLOAD PUSH4 0x5206C31 PUSH1 0xE2 SHL DUP2 MSTORE PUSH1 0x4 SWAP1 REVERT JUMPDEST PUSH1 0x40 MLOAD PUSH4 0xEFB26681 PUSH1 0xE0 SHL DUP2 MSTORE PUSH1 0x4 SWAP1 REVERT JUMPDEST CALLVALUE PUSH2 0x181 JUMPI PUSH1 0x0 CALLDATASIZE PUSH1 0x3 NOT ADD SLT PUSH2 0x181 JUMPI PUSH1 0x1 SLOAD PUSH1 0x40 MLOAD PUSH1 0x1 PUSH1 0x1 PUSH1 0xA0 SHL SUB SWAP1 SWAP2 AND DUP2 MSTORE PUSH1 0x20 SWAP1 RETURN JUMPDEST CALLVALUE PUSH2 0x181 JUMPI PUSH1 0x0 CALLDATASIZE PUSH1 0x3 NOT ADD SLT PUSH2 0x181 JUMPI PUSH1 0x2 SLOAD PUSH1 0x1 PUSH1 0x1 PUSH1 0xA0 SHL SUB AND DUP2 MSTORE PUSH1 0x20 SWAP1 RETURN JUMPDEST SWAP2 DUP2 PUSH1 0x1F DUP5 ADD SLT ISZERO PUSH2 0x181 JUMPI DUP3 CALLDATALOAD SWAP2 PUSH1 0x1 PUSH1 0x1 PUSH1 0x40 SHL SUB DUP4 GT PUSH2 0x181 JUMPI PUSH1 0x20 DUP4 DUP2 DUP7 ADD SWAP6 ADD ADD GT PUSH2 0x181 JUMPI JUMP JUMPDEST SWAP2 DUP2 PUSH1 0x1F DUP5 ADD SLT ISZERO PUSH2 0x181 JUMPI DUP3 CALLDATALOAD SWAP2 PUSH1 0x1 PUSH1 0x1 PUSH1 0x40 SHL SUB DUP4 GT PUSH2 0x181 JUMPI PUSH1 0x20 DUP1 DUP6 ADD SWAP5 DUP5 PUSH1 0x5 SHL ADD ADD GT PUSH2 0x181 JUMPI JUMP JUMPDEST SWAP1 PUSH1 0x1 DUP3 DUP2 SHR SWAP3 AND DUP1 ISZERO PUSH2 0x12BA JUMPI JUMPDEST PUSH1 0x20 DUP4 LT EQ PUSH2 0x12A4 JUMPI JUMP JUMPDEST PUSH4 0x4E487B71 PUSH1 0xE0 SHL PUSH1 0x0 MSTORE PUSH1 0x22 PUSH1 0x4 MSTORE PUSH1 0x24 PUSH1 0x0 REVERT JUMPDEST SWAP2 PUSH1 0x7F AND SWAP2 PUSH2 0x1299 JUMP JUMPDEST PUSH1 0xE0 DUP2 ADD SWAP1 DUP2 LT PUSH1 0x1 PUSH1 0x1 PUSH1 0x40 SHL SUB DUP3 GT OR PUSH2 0x9AC JUMPI PUSH1 0x40 MSTORE JUMP JUMPDEST PUSH1 0xC0 DUP2 ADD SWAP1 DUP2 LT PUSH1 0x1 PUSH1 0x1 PUSH1 0x40 SHL SUB DUP3 GT OR PUSH2 0x9AC JUMPI PUSH1 0x40 MSTORE JUMP JUMPDEST SWAP1 PUSH1 0x1F DUP1 NOT SWAP2 ADD AND DUP2 ADD SWAP1 DUP2 LT PUSH1 0x1 PUSH1 0x1 PUSH1 0x40 SHL SUB DUP3 GT OR PUSH2 0x9AC JUMPI PUSH1 0x40 MSTORE JUMP JUMPDEST SWAP1 PUSH1 0x40 MLOAD SWAP2 DUP3 PUSH1 0x0 DUP3 SLOAD SWAP3 PUSH2 0x132F DUP5 PUSH2 0x128A JUMP JUMPDEST SWAP1 DUP2 DUP5 MSTORE PUSH1 0x1 SWAP5 DUP6 DUP2 AND SWAP1 DUP2 PUSH1 0x0 EQ PUSH2 0x139E JUMPI POP PUSH1 0x1 EQ PUSH2 0x135B JUMPI JUMPDEST POP POP PUSH2 0x1359 SWAP3 POP SUB DUP4 PUSH2 0x12FA JUMP JUMPDEST JUMP JUMPDEST SWAP1 SWAP4 SWAP2 POP PUSH1 0x0 MSTORE PUSH1 0x20 SWAP1 DUP2 PUSH1 0x0 KECCAK256 SWAP4 PUSH1 0x0 SWAP2 JUMPDEST DUP2 DUP4 LT PUSH2 0x1386 JUMPI POP POP PUSH2 0x1359 SWAP4 POP DUP3 ADD ADD CODESIZE DUP1 PUSH2 0x134B JUMP JUMPDEST DUP6 SLOAD DUP9 DUP5 ADD DUP6 ADD MSTORE SWAP5 DUP6 ADD SWAP5 DUP8 SWAP5 POP SWAP2 DUP4 ADD SWAP2 PUSH2 0x136E JUMP JUMPDEST SWAP2 POP POP PUSH2 0x1359 SWAP5 POP PUSH1 0x20 SWAP3 POP PUSH1 0xFF NOT AND DUP3 DUP5 ADD MSTORE ISZERO ISZERO PUSH1 0x5 SHL DUP3 ADD ADD CODESIZE DUP1 PUSH2 0x134B JUMP JUMPDEST SWAP2 SWAP1 DUP3 MLOAD SWAP3 DUP4 DUP3 MSTORE PUSH1 0x0 JUMPDEST DUP5 DUP2 LT PUSH2 0x13ED JUMPI POP POP DUP3 PUSH1 0x0 PUSH1 0x20 DUP1 SWAP5 SWAP6 DUP5 ADD ADD MSTORE PUSH1 0x1F DUP1 NOT SWAP2 ADD AND ADD ADD SWAP1 JUMP JUMPDEST PUSH1 0x20 DUP2 DUP4 ADD DUP2 ADD MLOAD DUP5 DUP4 ADD DUP3 ADD MSTORE ADD PUSH2 0x13CC JUMP JUMPDEST DUP1 SLOAD DUP3 LT ISZERO PUSH2 0x1419 JUMPI PUSH1 0x0 MSTORE PUSH1 0x20 PUSH1 0x0 KECCAK256 ADD SWAP1 PUSH1 0x0 SWAP1 JUMP JUMPDEST PUSH4 0x4E487B71 PUSH1 0xE0 SHL PUSH1 0x0 MSTORE PUSH1 0x32 PUSH1 0x4 MSTORE PUSH1 0x24 PUSH1 0x0 REVERT JUMPDEST PUSH1 0x0 SLOAD PUSH1 0x1 PUSH1 0x1 PUSH1 0xA0 SHL SUB AND CALLER SUB PUSH2 0x1443 JUMPI JUMP JUMPDEST PUSH1 0x40 MLOAD PUSH4 0x118CDAA7 PUSH1 0xE0 SHL DUP2 MSTORE CALLER PUSH1 0x4 DUP3 ADD MSTORE PUSH1 0x24 SWAP1 REVERT JUMPDEST PUSH1 0x1 PUSH1 0x1 PUSH1 0x40 SHL SUB DUP1 SWAP2 AND SWAP1 DUP2 EQ PUSH2 0x1140 JUMPI PUSH1 0x1 ADD SWAP1 JUMP JUMPDEST DUP1 SLOAD PUSH9 0x10000000000000000 DUP2 LT ISZERO PUSH2 0x9AC JUMPI PUSH2 0x1495 SWAP2 PUSH1 0x1 DUP3 ADD DUP2 SSTORE PUSH2 0x1401 JUMP JUMPDEST DUP2 SWAP3 SWAP2 SLOAD SWAP1 PUSH1 0x3 SHL SWAP2 DUP3 SHL SWAP2 PUSH1 0x0 NOT SWAP1 SHL NOT AND OR SWAP1 SSTORE JUMP JUMPDEST PUSH1 0x0 NOT DUP2 EQ PUSH2 0x1140 JUMPI PUSH1 0x1 ADD SWAP1 JUMP JUMPDEST SWAP1 DUP1 PUSH1 0x20 SWAP4 SWAP3 DUP2 DUP5 MSTORE DUP5 DUP5 ADD CALLDATACOPY PUSH1 0x0 DUP3 DUP3 ADD DUP5 ADD MSTORE PUSH1 0x1F ADD PUSH1 0x1F NOT AND ADD ADD SWAP1 JUMP JUMPDEST SWAP2 SWAP1 DUP2 LT ISZERO PUSH2 0x1419 JUMPI PUSH1 0x5 SHL DUP2 ADD CALLDATALOAD SWAP1 PUSH1 0x1E NOT DUP2 CALLDATASIZE SUB ADD DUP3 SLT ISZERO PUSH2 0x181 JUMPI ADD SWAP1 DUP2 CALLDATALOAD SWAP2 PUSH1 0x1 PUSH1 0x1 PUSH1 0x40 SHL SUB DUP4 GT PUSH2 0x181 JUMPI PUSH1 0x20 ADD DUP3 CALLDATASIZE SUB DUP2 SGT PUSH2 0x181 JUMPI SWAP2 SWAP1 JUMP JUMPDEST SWAP2 SWAP1 DUP2 LT ISZERO PUSH2 0x1419 JUMPI PUSH1 0x5 SHL ADD SWAP1 JUMP JUMPDEST CALLDATALOAD PUSH1 0x1 PUSH1 0x1 PUSH1 0x40 SHL SUB DUP2 AND DUP2 SUB PUSH2 0x181 JUMPI SWAP1 JUMP JUMPDEST PUSH1 0x1 PUSH1 0x1 PUSH1 0x40 SHL SUB DUP2 GT PUSH2 0x9AC JUMPI PUSH1 0x5 SHL PUSH1 0x20 ADD SWAP1 JUMP JUMPDEST SWAP2 SWAP1 DUP3 SUB SWAP2 DUP3 GT PUSH2 0x1140 JUMPI JUMP JUMPDEST DUP1 MLOAD DUP3 LT ISZERO PUSH2 0x1419 JUMPI PUSH1 0x20 SWAP2 PUSH1 0x5 SHL ADD ADD SWAP1 JUMP JUMPDEST SWAP1 PUSH1 0x0 SWAP2 DUP3 MSTORE PUSH1 0x20 PUSH1 0x6 DUP2 MSTORE PUSH1 0x40 DUP1 DUP5 KECCAK256 DUP1 SLOAD SWAP6 DUP7 DUP6 LT ISZERO PUSH2 0x171E JUMPI DUP5 ADD DUP1 DUP6 GT PUSH2 0x170A JUMPI DUP5 DUP8 DUP3 GT PUSH2 0x1702 JUMPI JUMPDEST PUSH2 0x15B1 SWAP2 PUSH2 0x1559 JUMP JUMPDEST SWAP4 PUSH2 0x15BB DUP6 PUSH2 0x1542 JUMP JUMPDEST SWAP7 PUSH2 0x15C8 DUP5 MLOAD SWAP9 DUP10 PUSH2 0x12FA JUMP JUMPDEST DUP6 DUP9 MSTORE PUSH1 0x1F NOT PUSH2 0x15D7 DUP8 PUSH2 0x1542 JUMP JUMPDEST ADD DUP6 DUP9 JUMPDEST DUP3 DUP2 LT PUSH2 0x16C4 JUMPI POP POP POP PUSH1 0x0 NOT DUP2 ADD SWAP1 DUP2 GT DUP8 JUMPDEST DUP8 DUP2 LT PUSH2 0x1602 JUMPI POP POP POP POP POP POP POP POP POP SWAP1 JUMP JUMPDEST DUP2 PUSH2 0x16B0 JUMPI DUP1 PUSH2 0x1627 PUSH2 0x1621 PUSH2 0x16AB SWAP4 PUSH2 0x161C DUP9 DUP9 PUSH2 0x1559 JUMP JUMPDEST PUSH2 0x1559 JUMP JUMPDEST DUP8 PUSH2 0x1401 JUMP JUMPDEST SWAP1 SLOAD PUSH1 0x3 SWAP2 DUP3 SHL SHR DUP12 MSTORE PUSH1 0x4 DUP10 MSTORE DUP8 DUP12 KECCAK256 SWAP1 DUP9 MLOAD SWAP2 PUSH2 0x1645 DUP4 PUSH2 0x12C4 JUMP JUMPDEST DUP1 SLOAD DUP4 MSTORE PUSH1 0x1 DUP2 ADD SLOAD DUP12 DUP5 ADD MSTORE PUSH2 0x165E PUSH1 0x2 DUP3 ADD PUSH2 0x131B JUMP JUMPDEST DUP11 DUP5 ADD MSTORE ADD SLOAD PUSH1 0x1 PUSH1 0x1 PUSH1 0x40 SHL SUB DUP1 DUP3 AND PUSH1 0x60 DUP5 ADD MSTORE DUP2 PUSH1 0x80 DUP3 DUP3 DUP14 SHR AND DUP2 DUP7 ADD MSTORE SHR AND PUSH1 0xA0 DUP4 ADD MSTORE PUSH1 0xC0 SWAP1 DUP2 SHR SWAP1 DUP3 ADD MSTORE PUSH2 0x169A DUP3 DUP14 PUSH2 0x1566 JUMP JUMPDEST MSTORE PUSH2 0x16A5 DUP2 DUP13 PUSH2 0x1566 JUMP JUMPDEST POP PUSH2 0x14AD JUMP JUMPDEST PUSH2 0x15EF JUMP JUMPDEST PUSH4 0x4E487B71 PUSH1 0xE0 SHL DUP10 MSTORE PUSH1 0x11 PUSH1 0x4 MSTORE PUSH1 0x24 DUP10 REVERT JUMPDEST DUP7 MLOAD PUSH2 0x16CF DUP2 PUSH2 0x12C4 JUMP JUMPDEST DUP11 DUP2 MSTORE DUP11 DUP4 DUP3 ADD MSTORE DUP11 PUSH1 0x60 DUP1 DUP11 DUP5 ADD MSTORE DUP3 ADD MSTORE DUP11 PUSH1 0x80 DUP3 ADD MSTORE DUP11 PUSH1 0xA0 DUP3 ADD MSTORE DUP11 PUSH1 0xC0 DUP3 ADD MSTORE DUP3 DUP3 DUP14 ADD ADD MSTORE ADD DUP7 SWAP1 PUSH2 0x15DB JUMP JUMPDEST DUP8 SWAP2 POP PUSH2 0x15A8 JUMP JUMPDEST PUSH4 0x4E487B71 PUSH1 0xE0 SHL DUP7 MSTORE PUSH1 0x11 PUSH1 0x4 MSTORE PUSH1 0x24 DUP7 REVERT JUMPDEST POP POP DUP1 MLOAD SWAP5 POP SWAP1 DUP5 ADD SWAP2 POP PUSH1 0x1 PUSH1 0x1 PUSH1 0x40 SHL SUB DUP3 GT DUP5 DUP4 LT OR PUSH2 0x1741 JUMPI MSTORE DUP2 MSTORE SWAP1 JUMP JUMPDEST PUSH4 0x4E487B71 PUSH1 0xE0 SHL DUP4 MSTORE PUSH1 0x41 PUSH1 0x4 MSTORE PUSH1 0x24 DUP4 REVERT JUMPDEST PUSH1 0x0 SWAP1 DUP2 MSTORE PUSH1 0x3 PUSH1 0x20 MSTORE PUSH1 0x40 DUP2 KECCAK256 PUSH1 0x40 MLOAD SWAP1 PUSH2 0x1770 DUP3 PUSH2 0x12DF JUMP JUMPDEST DUP1 SLOAD SWAP1 PUSH1 0x1 PUSH1 0x1 PUSH1 0x40 SHL SUB SWAP2 DUP3 DUP2 AND SWAP4 DUP5 DUP2 MSTORE DUP4 DUP3 PUSH1 0x40 SHR AND PUSH1 0x20 DUP3 ADD MSTORE PUSH1 0xA0 DUP5 DUP4 PUSH1 0x80 SHR AND SWAP3 PUSH1 0x1 PUSH1 0x40 DUP5 ADD SWAP6 DUP6 DUP8 MSTORE PUSH4 0xFFFFFFFF SWAP3 DUP4 DUP2 PUSH1 0xC0 SHR AND PUSH1 0x60 DUP8 ADD MSTORE PUSH1 0xE0 SHR PUSH1 0x80 DUP7 ADD MSTORE ADD SLOAD AND SWAP2 ADD MSTORE ISZERO PUSH2 0x180F JUMPI PUSH2 0x2710 SWAP3 DUP4 DUP2 MUL SWAP4 DUP2 DUP6 DIV EQ SWAP1 ISZERO OR ISZERO PUSH2 0x17FB JUMPI MLOAD AND SWAP2 DUP3 ISZERO PUSH2 0x17E7 JUMPI POP DIV SWAP1 JUMP JUMPDEST PUSH4 0x4E487B71 PUSH1 0xE0 SHL DUP2 MSTORE PUSH1 0x12 PUSH1 0x4 MSTORE PUSH1 0x24 SWAP1 REVERT JUMPDEST PUSH4 0x4E487B71 PUSH1 0xE0 SHL DUP5 MSTORE PUSH1 0x11 PUSH1 0x4 MSTORE PUSH1 0x24 DUP5 REVERT JUMPDEST POP POP POP POP PUSH2 0x1388 SWAP1 JUMP JUMPDEST DUP2 DUP2 SUB SWAP3 SWAP2 PUSH1 0x0 SGT DUP1 ISZERO DUP3 DUP6 SGT AND SWAP2 DUP5 SLT AND OR PUSH2 0x1140 JUMPI JUMP INVALID LOG2 PUSH5 0x6970667358 0x22 SLT KECCAK256 PUSH16 0x61843EDD3DE6A0D82D22B1EDFA972D08 0x29 DUP2 0xE6 0x2E SWAP7 0xBD SWAP1 0xB6 DUP8 NOT 0xEE PUSH20 0x9E2C0564736F6C63430008140033000000000000 "},"methodIdentifiers":{"DEFAULT_ELO()":"5831e9f5","ELO_K()":"4efe3e41","batchRecordBattles(string[],uint256[],uint256[],string[],uint64[],uint64[],uint64[])":"2dd35302","battles(bytes32)":"78547e6c","getBattleCount(uint256)":"d2925a4e","getBattleHistory(uint256,uint256,uint256)":"79226fe6","getStats(uint256)":"7b303965","getWinRate(uint256)":"9e8a0f57","nfaBattleHistory(uint256,uint256)":"9e2d0388","nfaContract()":"05d237b0","nfaStats(uint256)":"d151959b","owner()":"8da5cb5b","recordBattle(string,uint256,uint256,string,uint64,uint64,uint64)":"079ce2ee","renounceOwnership()":"715018a6","resolver()":"04f3bcec","setNFAContract(address)":"e4135a86","setResolver(address)":"4e543b26","totalBattlesRecorded()":"4280ff9d","transferOwnership(address)":"f2fde38b"}}}}}