{"contracts/GemBotsNFAv4.sol":{"GemBotsNFAv4":{"abi":[{"inputs":[{"internalType":"address","name":"_treasury","type":"address"},{"internalType":"address","name":"_battleResolver","type":"address"}],"stateMutability":"nonpayable","type":"constructor"},{"inputs":[],"name":"AgentNotActive","type":"error"},{"inputs":[],"name":"AgentTerminatedErr","type":"error"},{"inputs":[],"name":"AlreadyAtMaxTier","type":"error"},{"inputs":[],"name":"ArrayLengthMismatch","type":"error"},{"inputs":[{"internalType":"address","name":"sender","type":"address"},{"internalType":"uint256","name":"tokenId","type":"uint256"},{"internalType":"address","name":"owner","type":"address"}],"name":"ERC721IncorrectOwner","type":"error"},{"inputs":[{"internalType":"address","name":"operator","type":"address"},{"internalType":"uint256","name":"tokenId","type":"uint256"}],"name":"ERC721InsufficientApproval","type":"error"},{"inputs":[{"internalType":"address","name":"approver","type":"address"}],"name":"ERC721InvalidApprover","type":"error"},{"inputs":[{"internalType":"address","name":"operator","type":"address"}],"name":"ERC721InvalidOperator","type":"error"},{"inputs":[{"internalType":"address","name":"owner","type":"address"}],"name":"ERC721InvalidOwner","type":"error"},{"inputs":[{"internalType":"address","name":"receiver","type":"address"}],"name":"ERC721InvalidReceiver","type":"error"},{"inputs":[{"internalType":"address","name":"sender","type":"address"}],"name":"ERC721InvalidSender","type":"error"},{"inputs":[{"internalType":"uint256","name":"tokenId","type":"uint256"}],"name":"ERC721NonexistentToken","type":"error"},{"inputs":[],"name":"EnforcedPause","type":"error"},{"inputs":[],"name":"ExpectedPause","type":"error"},{"inputs":[],"name":"GenesisLimitReached","type":"error"},{"inputs":[],"name":"InsufficientAgentBalance","type":"error"},{"inputs":[],"name":"InsufficientPayment","type":"error"},{"inputs":[],"name":"InvalidMintTier","type":"error"},{"inputs":[],"name":"InvalidPrice","type":"error"},{"inputs":[],"name":"LearningNotEnabled","type":"error"},{"inputs":[],"name":"LogicCallFailed","type":"error"},{"inputs":[],"name":"NFAAlreadyListed","type":"error"},{"inputs":[],"name":"NFANotListed","type":"error"},{"inputs":[],"name":"NotBattleResolver","type":"error"},{"inputs":[],"name":"NotEligibleForEvolution","type":"error"},{"inputs":[],"name":"NotMinter","type":"error"},{"inputs":[],"name":"NotOwnerOfNFA","type":"error"},{"inputs":[{"internalType":"address","name":"owner","type":"address"}],"name":"OwnableInvalidOwner","type":"error"},{"inputs":[{"internalType":"address","name":"account","type":"address"}],"name":"OwnableUnauthorizedAccount","type":"error"},{"inputs":[],"name":"ReentrancyGuardReentrantCall","type":"error"},{"inputs":[],"name":"TransferFailed","type":"error"},{"inputs":[],"name":"ZeroAddress","type":"error"},{"anonymous":false,"inputs":[{"indexed":true,"internalType":"address","name":"agent","type":"address"},{"indexed":false,"internalType":"bytes","name":"result","type":"bytes"}],"name":"ActionExecuted","type":"event"},{"anonymous":false,"inputs":[{"indexed":true,"internalType":"address","name":"agent","type":"address"},{"indexed":true,"internalType":"address","name":"funder","type":"address"},{"indexed":false,"internalType":"uint256","name":"amount","type":"uint256"}],"name":"AgentFunded","type":"event"},{"anonymous":false,"inputs":[{"indexed":true,"internalType":"uint256","name":"nfaId","type":"uint256"},{"indexed":false,"internalType":"uint256","name":"balanceReturned","type":"uint256"}],"name":"AgentTerminated","type":"event"},{"anonymous":false,"inputs":[{"indexed":true,"internalType":"address","name":"owner","type":"address"},{"indexed":true,"internalType":"address","name":"approved","type":"address"},{"indexed":true,"internalType":"uint256","name":"tokenId","type":"uint256"}],"name":"Approval","type":"event"},{"anonymous":false,"inputs":[{"indexed":true,"internalType":"address","name":"owner","type":"address"},{"indexed":true,"internalType":"address","name":"operator","type":"address"},{"indexed":false,"internalType":"bool","name":"approved","type":"bool"}],"name":"ApprovalForAll","type":"event"},{"anonymous":false,"inputs":[{"indexed":false,"internalType":"uint256","name":"_fromTokenId","type":"uint256"},{"indexed":false,"internalType":"uint256","name":"_toTokenId","type":"uint256"}],"name":"BatchMetadataUpdate","type":"event"},{"anonymous":false,"inputs":[{"indexed":true,"internalType":"uint256","name":"nfaId","type":"uint256"},{"indexed":false,"internalType":"uint256","name":"opponentNfaId","type":"uint256"},{"indexed":false,"internalType":"bool","name":"won","type":"bool"},{"indexed":false,"internalType":"string","name":"battleId","type":"string"}],"name":"BattleRecorded","type":"event"},{"anonymous":false,"inputs":[{"indexed":true,"internalType":"uint256","name":"nfaId","type":"uint256"},{"indexed":false,"internalType":"uint128","name":"consecutiveLosses","type":"uint128"}],"name":"CircuitBreakerTriggered","type":"event"},{"anonymous":false,"inputs":[{"indexed":true,"internalType":"uint256","name":"nfaId","type":"uint256"},{"indexed":false,"internalType":"uint8","name":"newTier","type":"uint8"}],"name":"Evolved","type":"event"},{"anonymous":false,"inputs":[{"indexed":true,"internalType":"uint256","name":"nfaId","type":"uint256"},{"indexed":false,"internalType":"bytes32","name":"oldRoot","type":"bytes32"},{"indexed":false,"internalType":"bytes32","name":"newRoot","type":"bytes32"}],"name":"LearningUpdated","type":"event"},{"anonymous":false,"inputs":[{"indexed":true,"internalType":"uint256","name":"nfaId","type":"uint256"},{"indexed":false,"internalType":"uint256","name":"price","type":"uint256"}],"name":"Listed","type":"event"},{"anonymous":false,"inputs":[{"indexed":true,"internalType":"uint256","name":"nfaId","type":"uint256"}],"name":"ListingCancelled","type":"event"},{"anonymous":false,"inputs":[{"indexed":true,"internalType":"address","name":"agent","type":"address"},{"indexed":false,"internalType":"address","name":"oldLogic","type":"address"},{"indexed":false,"internalType":"address","name":"newLogic","type":"address"}],"name":"LogicUpgraded","type":"event"},{"anonymous":false,"inputs":[{"indexed":false,"internalType":"uint256","name":"_tokenId","type":"uint256"}],"name":"MetadataUpdate","type":"event"},{"anonymous":false,"inputs":[{"indexed":true,"internalType":"uint256","name":"tokenId","type":"uint256"},{"indexed":false,"internalType":"string","name":"metadataURI","type":"string"}],"name":"MetadataUpdated","type":"event"},{"anonymous":false,"inputs":[{"indexed":true,"internalType":"uint256","name":"nfaId","type":"uint256"},{"indexed":true,"internalType":"address","name":"owner","type":"address"},{"indexed":false,"internalType":"bytes32","name":"configHash","type":"bytes32"},{"indexed":false,"internalType":"bool","name":"genesis","type":"bool"}],"name":"NFAMinted","type":"event"},{"anonymous":false,"inputs":[{"indexed":true,"internalType":"address","name":"previousOwner","type":"address"},{"indexed":true,"internalType":"address","name":"newOwner","type":"address"}],"name":"OwnershipTransferred","type":"event"},{"anonymous":false,"inputs":[{"indexed":false,"internalType":"address","name":"account","type":"address"}],"name":"Paused","type":"event"},{"anonymous":false,"inputs":[{"indexed":true,"internalType":"uint256","name":"nfaId","type":"uint256"},{"indexed":false,"internalType":"address","name":"from","type":"address"},{"indexed":false,"internalType":"address","name":"to","type":"address"},{"indexed":false,"internalType":"uint256","name":"price","type":"uint256"}],"name":"Sold","type":"event"},{"anonymous":false,"inputs":[{"indexed":true,"internalType":"address","name":"agent","type":"address"},{"indexed":false,"internalType":"enum IBAP578.Status","name":"newStatus","type":"uint8"}],"name":"StatusChanged","type":"event"},{"anonymous":false,"inputs":[{"indexed":true,"internalType":"uint256","name":"nfaId","type":"uint256"},{"indexed":false,"internalType":"string","name":"modelId","type":"string"},{"indexed":false,"internalType":"bytes32","name":"strategyHash","type":"bytes32"}],"name":"StrategyRegistered","type":"event"},{"anonymous":false,"inputs":[{"indexed":true,"internalType":"address","name":"from","type":"address"},{"indexed":true,"internalType":"address","name":"to","type":"address"},{"indexed":true,"internalType":"uint256","name":"tokenId","type":"uint256"}],"name":"Transfer","type":"event"},{"anonymous":false,"inputs":[{"indexed":false,"internalType":"address","name":"account","type":"address"}],"name":"Unpaused","type":"event"},{"inputs":[],"name":"GENESIS_MAX","outputs":[{"internalType":"uint256","name":"","type":"uint256"}],"stateMutability":"view","type":"function"},{"inputs":[{"internalType":"address","name":"to","type":"address"},{"internalType":"uint256","name":"tokenId","type":"uint256"}],"name":"approve","outputs":[],"stateMutability":"nonpayable","type":"function"},{"inputs":[{"internalType":"address","name":"owner","type":"address"}],"name":"balanceOf","outputs":[{"internalType":"uint256","name":"","type":"uint256"}],"stateMutability":"view","type":"function"},{"inputs":[{"internalType":"address","name":"to","type":"address"},{"internalType":"string[]","name":"configURIs","type":"string[]"},{"internalType":"bytes32[]","name":"configHashes","type":"bytes32[]"},{"internalType":"string[]","name":"modelIds","type":"string[]"},{"internalType":"bytes32[]","name":"strategyHashes","type":"bytes32[]"},{"internalType":"string[]","name":"strategyURIs","type":"string[]"},{"components":[{"internalType":"string","name":"persona","type":"string"},{"internalType":"string","name":"experience","type":"string"},{"internalType":"string","name":"voiceHash","type":"string"},{"internalType":"string","name":"animationURI","type":"string"},{"internalType":"string","name":"vaultURI","type":"string"},{"internalType":"bytes32","name":"vaultHash","type":"bytes32"}],"internalType":"struct IBAP578.AgentMetadata[]","name":"metas","type":"tuple[]"}],"name":"batchMintGenesis","outputs":[{"internalType":"uint256[]","name":"tokenIds","type":"uint256[]"}],"stateMutability":"nonpayable","type":"function"},{"inputs":[],"name":"battleResolver","outputs":[{"internalType":"address","name":"","type":"address"}],"stateMutability":"view","type":"function"},{"inputs":[{"internalType":"uint256","name":"nfaId","type":"uint256"}],"name":"buyNFA","outputs":[],"stateMutability":"payable","type":"function"},{"inputs":[{"internalType":"uint256","name":"nfaId","type":"uint256"}],"name":"cancelListing","outputs":[],"stateMutability":"nonpayable","type":"function"},{"inputs":[],"name":"circuitBreakerLosses","outputs":[{"internalType":"uint256","name":"","type":"uint256"}],"stateMutability":"view","type":"function"},{"inputs":[],"name":"creatorRoyaltyBps","outputs":[{"internalType":"uint256","name":"","type":"uint256"}],"stateMutability":"view","type":"function"},{"inputs":[{"internalType":"uint256","name":"nfaId","type":"uint256"},{"internalType":"address","name":"module","type":"address"}],"name":"enableLearning","outputs":[],"stateMutability":"nonpayable","type":"function"},{"inputs":[{"internalType":"uint256","name":"nfaId","type":"uint256"}],"name":"evolve","outputs":[],"stateMutability":"nonpayable","type":"function"},{"inputs":[{"internalType":"uint256","name":"tokenId","type":"uint256"},{"internalType":"bytes","name":"data","type":"bytes"}],"name":"executeAction","outputs":[],"stateMutability":"nonpayable","type":"function"},{"inputs":[{"internalType":"uint256","name":"tokenId","type":"uint256"}],"name":"fundAgent","outputs":[],"stateMutability":"payable","type":"function"},{"inputs":[],"name":"genesisCount","outputs":[{"internalType":"uint256","name":"","type":"uint256"}],"stateMutability":"view","type":"function"},{"inputs":[{"internalType":"uint256","name":"tokenId","type":"uint256"}],"name":"getAgentMetadata","outputs":[{"components":[{"internalType":"string","name":"persona","type":"string"},{"internalType":"string","name":"experience","type":"string"},{"internalType":"string","name":"voiceHash","type":"string"},{"internalType":"string","name":"animationURI","type":"string"},{"internalType":"string","name":"vaultURI","type":"string"},{"internalType":"bytes32","name":"vaultHash","type":"bytes32"}],"internalType":"struct IBAP578.AgentMetadata","name":"","type":"tuple"}],"stateMutability":"view","type":"function"},{"inputs":[{"internalType":"uint256","name":"tokenId","type":"uint256"}],"name":"getApproved","outputs":[{"internalType":"address","name":"","type":"address"}],"stateMutability":"view","type":"function"},{"inputs":[{"internalType":"uint256","name":"nfaId","type":"uint256"}],"name":"getBattleStats","outputs":[{"components":[{"internalType":"uint128","name":"wins","type":"uint128"},{"internalType":"uint128","name":"losses","type":"uint128"},{"internalType":"uint128","name":"totalBattles","type":"uint128"},{"internalType":"uint128","name":"currentStreak","type":"uint128"},{"internalType":"uint128","name":"bestStreak","type":"uint128"}],"internalType":"struct GemBotsNFAv4.BattleStats","name":"","type":"tuple"}],"stateMutability":"view","type":"function"},{"inputs":[{"internalType":"uint256","name":"nfaId","type":"uint256"}],"name":"getLearningData","outputs":[{"internalType":"bool","name":"enabled","type":"bool"},{"internalType":"address","name":"module","type":"address"},{"internalType":"bytes32","name":"merkleRoot","type":"bytes32"},{"internalType":"uint256","name":"version","type":"uint256"},{"internalType":"uint256","name":"lastUpdate","type":"uint256"}],"stateMutability":"view","type":"function"},{"inputs":[{"internalType":"uint256","name":"nfaId","type":"uint256"}],"name":"getListing","outputs":[{"components":[{"internalType":"uint256","name":"price","type":"uint256"},{"internalType":"address","name":"seller","type":"address"},{"internalType":"bool","name":"active","type":"bool"}],"internalType":"struct GemBotsNFAv4.Listing","name":"","type":"tuple"}],"stateMutability":"view","type":"function"},{"inputs":[{"internalType":"enum GemBotsNFAv4.Tier","name":"_tier","type":"uint8"}],"name":"getMintFee","outputs":[{"internalType":"uint256","name":"","type":"uint256"}],"stateMutability":"view","type":"function"},{"inputs":[{"internalType":"uint256","name":"nfaId","type":"uint256"}],"name":"getNFA","outputs":[{"internalType":"bytes32","name":"configHash","type":"bytes32"},{"internalType":"string","name":"configURI","type":"string"},{"internalType":"address","name":"originalCreator","type":"address"},{"internalType":"enum GemBotsNFAv4.Tier","name":"tier","type":"uint8"},{"internalType":"bool","name":"isGenesis","type":"bool"},{"components":[{"internalType":"uint128","name":"wins","type":"uint128"},{"internalType":"uint128","name":"losses","type":"uint128"},{"internalType":"uint128","name":"totalBattles","type":"uint128"},{"internalType":"uint128","name":"currentStreak","type":"uint128"},{"internalType":"uint128","name":"bestStreak","type":"uint128"}],"internalType":"struct GemBotsNFAv4.BattleStats","name":"stats","type":"tuple"},{"components":[{"internalType":"string","name":"modelId","type":"string"},{"internalType":"bytes32","name":"strategyHash","type":"bytes32"},{"internalType":"string","name":"strategyURI","type":"string"}],"internalType":"struct GemBotsNFAv4.StrategyData","name":"strategy","type":"tuple"}],"stateMutability":"view","type":"function"},{"inputs":[{"internalType":"bytes32","name":"strategyHash","type":"bytes32"}],"name":"getNFAsByStrategy","outputs":[{"internalType":"uint256[]","name":"","type":"uint256[]"}],"stateMutability":"view","type":"function"},{"inputs":[{"internalType":"uint256","name":"tokenId","type":"uint256"}],"name":"getState","outputs":[{"components":[{"internalType":"uint256","name":"balance","type":"uint256"},{"internalType":"enum IBAP578.Status","name":"status","type":"uint8"},{"internalType":"address","name":"owner","type":"address"},{"internalType":"address","name":"logicAddress","type":"address"},{"internalType":"uint256","name":"lastActionTimestamp","type":"uint256"}],"internalType":"struct IBAP578.State","name":"","type":"tuple"}],"stateMutability":"view","type":"function"},{"inputs":[{"internalType":"uint256","name":"nfaId","type":"uint256"}],"name":"getStrategy","outputs":[{"internalType":"string","name":"modelId","type":"string"},{"internalType":"bytes32","name":"strategyHash","type":"bytes32"},{"internalType":"string","name":"strategyURI","type":"string"}],"stateMutability":"view","type":"function"},{"inputs":[{"internalType":"address","name":"owner","type":"address"},{"internalType":"address","name":"operator","type":"address"}],"name":"isApprovedForAll","outputs":[{"internalType":"bool","name":"","type":"bool"}],"stateMutability":"view","type":"function"},{"inputs":[{"internalType":"uint256","name":"nfaId","type":"uint256"},{"internalType":"uint256","name":"price","type":"uint256"}],"name":"listForSale","outputs":[],"stateMutability":"nonpayable","type":"function"},{"inputs":[{"internalType":"uint256","name":"","type":"uint256"}],"name":"listings","outputs":[{"internalType":"uint256","name":"price","type":"uint256"},{"internalType":"address","name":"seller","type":"address"},{"internalType":"bool","name":"active","type":"bool"}],"stateMutability":"view","type":"function"},{"inputs":[{"internalType":"enum GemBotsNFAv4.Tier","name":"requestedTier","type":"uint8"},{"internalType":"bytes32","name":"configHash","type":"bytes32"},{"internalType":"string","name":"configURI","type":"string"},{"internalType":"string","name":"modelId","type":"string"},{"internalType":"bytes32","name":"strategyHash","type":"bytes32"},{"internalType":"string","name":"strategyURI","type":"string"},{"components":[{"internalType":"string","name":"persona","type":"string"},{"internalType":"string","name":"experience","type":"string"},{"internalType":"string","name":"voiceHash","type":"string"},{"internalType":"string","name":"animationURI","type":"string"},{"internalType":"string","name":"vaultURI","type":"string"},{"internalType":"bytes32","name":"vaultHash","type":"bytes32"}],"internalType":"struct IBAP578.AgentMetadata","name":"meta","type":"tuple"}],"name":"mint","outputs":[{"internalType":"uint256","name":"tokenId","type":"uint256"}],"stateMutability":"payable","type":"function"},{"inputs":[],"name":"mintFee","outputs":[{"internalType":"uint256","name":"","type":"uint256"}],"stateMutability":"view","type":"function"},{"inputs":[{"internalType":"address","name":"to","type":"address"},{"internalType":"string","name":"configURI","type":"string"},{"internalType":"bytes32","name":"configHash","type":"bytes32"},{"internalType":"string","name":"modelId","type":"string"},{"internalType":"bytes32","name":"strategyHash","type":"bytes32"},{"internalType":"string","name":"strategyURI","type":"string"},{"components":[{"internalType":"string","name":"persona","type":"string"},{"internalType":"string","name":"experience","type":"string"},{"internalType":"string","name":"voiceHash","type":"string"},{"internalType":"string","name":"animationURI","type":"string"},{"internalType":"string","name":"vaultURI","type":"string"},{"internalType":"bytes32","name":"vaultHash","type":"bytes32"}],"internalType":"struct IBAP578.AgentMetadata","name":"meta","type":"tuple"}],"name":"mintGenesis","outputs":[{"internalType":"uint256","name":"tokenId","type":"uint256"}],"stateMutability":"nonpayable","type":"function"},{"inputs":[{"internalType":"address","name":"","type":"address"}],"name":"minters","outputs":[{"internalType":"bool","name":"","type":"bool"}],"stateMutability":"view","type":"function"},{"inputs":[],"name":"name","outputs":[{"internalType":"string","name":"","type":"string"}],"stateMutability":"view","type":"function"},{"inputs":[],"name":"openMinting","outputs":[{"internalType":"bool","name":"","type":"bool"}],"stateMutability":"view","type":"function"},{"inputs":[],"name":"owner","outputs":[{"internalType":"address","name":"","type":"address"}],"stateMutability":"view","type":"function"},{"inputs":[{"internalType":"uint256","name":"tokenId","type":"uint256"}],"name":"ownerOf","outputs":[{"internalType":"address","name":"","type":"address"}],"stateMutability":"view","type":"function"},{"inputs":[],"name":"pause","outputs":[],"stateMutability":"nonpayable","type":"function"},{"inputs":[{"internalType":"uint256","name":"tokenId","type":"uint256"}],"name":"pauseAgent","outputs":[],"stateMutability":"nonpayable","type":"function"},{"inputs":[],"name":"paused","outputs":[{"internalType":"bool","name":"","type":"bool"}],"stateMutability":"view","type":"function"},{"inputs":[],"name":"platformFeeBps","outputs":[{"internalType":"uint256","name":"","type":"uint256"}],"stateMutability":"view","type":"function"},{"inputs":[{"internalType":"uint256","name":"nfaId","type":"uint256"},{"internalType":"uint256","name":"opponentNfaId","type":"uint256"},{"internalType":"bool","name":"won","type":"bool"},{"internalType":"string","name":"battleId","type":"string"}],"name":"recordBattle","outputs":[],"stateMutability":"nonpayable","type":"function"},{"inputs":[],"name":"renounceOwnership","outputs":[],"stateMutability":"nonpayable","type":"function"},{"inputs":[{"internalType":"address","name":"from","type":"address"},{"internalType":"address","name":"to","type":"address"},{"internalType":"uint256","name":"tokenId","type":"uint256"}],"name":"safeTransferFrom","outputs":[],"stateMutability":"nonpayable","type":"function"},{"inputs":[{"internalType":"address","name":"from","type":"address"},{"internalType":"address","name":"to","type":"address"},{"internalType":"uint256","name":"tokenId","type":"uint256"},{"internalType":"bytes","name":"data","type":"bytes"}],"name":"safeTransferFrom","outputs":[],"stateMutability":"nonpayable","type":"function"},{"inputs":[{"internalType":"address","name":"operator","type":"address"},{"internalType":"bool","name":"approved","type":"bool"}],"name":"setApprovalForAll","outputs":[],"stateMutability":"nonpayable","type":"function"},{"inputs":[{"internalType":"address","name":"_resolver","type":"address"}],"name":"setBattleResolver","outputs":[],"stateMutability":"nonpayable","type":"function"},{"inputs":[{"internalType":"uint256","name":"_limit","type":"uint256"}],"name":"setCircuitBreakerLosses","outputs":[],"stateMutability":"nonpayable","type":"function"},{"inputs":[{"internalType":"uint256","name":"_bps","type":"uint256"}],"name":"setCreatorRoyaltyBps","outputs":[],"stateMutability":"nonpayable","type":"function"},{"inputs":[{"internalType":"uint256","name":"tokenId","type":"uint256"},{"internalType":"address","name":"newLogic","type":"address"}],"name":"setLogicAddress","outputs":[],"stateMutability":"nonpayable","type":"function"},{"inputs":[{"internalType":"address","name":"_minter","type":"address"},{"internalType":"bool","name":"_authorized","type":"bool"}],"name":"setMinter","outputs":[],"stateMutability":"nonpayable","type":"function"},{"inputs":[{"internalType":"bool","name":"_open","type":"bool"}],"name":"setOpenMinting","outputs":[],"stateMutability":"nonpayable","type":"function"},{"inputs":[{"internalType":"uint256","name":"_bps","type":"uint256"}],"name":"setPlatformFeeBps","outputs":[],"stateMutability":"nonpayable","type":"function"},{"inputs":[{"internalType":"enum GemBotsNFAv4.Tier","name":"_tier","type":"uint8"},{"internalType":"string","name":"_baseURI","type":"string"}],"name":"setTierBaseURI","outputs":[],"stateMutability":"nonpayable","type":"function"},{"inputs":[{"internalType":"enum GemBotsNFAv4.Tier","name":"_tier","type":"uint8"},{"internalType":"uint256","name":"_fee","type":"uint256"}],"name":"setTierMintFee","outputs":[],"stateMutability":"nonpayable","type":"function"},{"inputs":[{"internalType":"uint256","name":"_index","type":"uint256"},{"internalType":"uint256","name":"_threshold","type":"uint256"}],"name":"setTierThreshold","outputs":[],"stateMutability":"nonpayable","type":"function"},{"inputs":[{"internalType":"address","name":"_treasury","type":"address"}],"name":"setTreasury","outputs":[],"stateMutability":"nonpayable","type":"function"},{"inputs":[{"internalType":"bytes32","name":"","type":"bytes32"},{"internalType":"uint256","name":"","type":"uint256"}],"name":"strategyNFAs","outputs":[{"internalType":"uint256","name":"","type":"uint256"}],"stateMutability":"view","type":"function"},{"inputs":[{"internalType":"bytes4","name":"interfaceId","type":"bytes4"}],"name":"supportsInterface","outputs":[{"internalType":"bool","name":"","type":"bool"}],"stateMutability":"view","type":"function"},{"inputs":[],"name":"symbol","outputs":[{"internalType":"string","name":"","type":"string"}],"stateMutability":"view","type":"function"},{"inputs":[{"internalType":"uint256","name":"tokenId","type":"uint256"}],"name":"terminate","outputs":[],"stateMutability":"nonpayable","type":"function"},{"inputs":[{"internalType":"enum GemBotsNFAv4.Tier","name":"","type":"uint8"}],"name":"tierBaseURIs","outputs":[{"internalType":"string","name":"","type":"string"}],"stateMutability":"view","type":"function"},{"inputs":[{"internalType":"enum GemBotsNFAv4.Tier","name":"","type":"uint8"}],"name":"tierMintFees","outputs":[{"internalType":"uint256","name":"","type":"uint256"}],"stateMutability":"view","type":"function"},{"inputs":[{"internalType":"uint256","name":"","type":"uint256"}],"name":"tierThresholds","outputs":[{"internalType":"uint256","name":"","type":"uint256"}],"stateMutability":"view","type":"function"},{"inputs":[{"internalType":"uint256","name":"tokenId","type":"uint256"}],"name":"tokenURI","outputs":[{"internalType":"string","name":"","type":"string"}],"stateMutability":"view","type":"function"},{"inputs":[],"name":"totalSupply","outputs":[{"internalType":"uint256","name":"","type":"uint256"}],"stateMutability":"view","type":"function"},{"inputs":[{"internalType":"address","name":"from","type":"address"},{"internalType":"address","name":"to","type":"address"},{"internalType":"uint256","name":"tokenId","type":"uint256"}],"name":"transferFrom","outputs":[],"stateMutability":"nonpayable","type":"function"},{"inputs":[{"internalType":"address","name":"newOwner","type":"address"}],"name":"transferOwnership","outputs":[],"stateMutability":"nonpayable","type":"function"},{"inputs":[],"name":"treasury","outputs":[{"internalType":"address","name":"","type":"address"}],"stateMutability":"view","type":"function"},{"inputs":[],"name":"unpause","outputs":[],"stateMutability":"nonpayable","type":"function"},{"inputs":[{"internalType":"uint256","name":"tokenId","type":"uint256"}],"name":"unpauseAgent","outputs":[],"stateMutability":"nonpayable","type":"function"},{"inputs":[{"internalType":"uint256","name":"tokenId","type":"uint256"},{"components":[{"internalType":"string","name":"persona","type":"string"},{"internalType":"string","name":"experience","type":"string"},{"internalType":"string","name":"voiceHash","type":"string"},{"internalType":"string","name":"animationURI","type":"string"},{"internalType":"string","name":"vaultURI","type":"string"},{"internalType":"bytes32","name":"vaultHash","type":"bytes32"}],"internalType":"struct IBAP578.AgentMetadata","name":"metadata","type":"tuple"}],"name":"updateAgentMetadata","outputs":[],"stateMutability":"nonpayable","type":"function"},{"inputs":[{"internalType":"uint256","name":"nfaId","type":"uint256"},{"internalType":"bytes32","name":"newRoot","type":"bytes32"}],"name":"updateLearningRoot","outputs":[],"stateMutability":"nonpayable","type":"function"},{"inputs":[{"internalType":"uint256","name":"nfaId","type":"uint256"},{"internalType":"string","name":"fullConfig","type":"string"}],"name":"verifyPrompt","outputs":[{"internalType":"bool","name":"","type":"bool"}],"stateMutability":"view","type":"function"},{"inputs":[{"internalType":"uint256","name":"nfaId","type":"uint256"},{"internalType":"string","name":"fullStrategyJSON","type":"string"}],"name":"verifyStrategy","outputs":[{"internalType":"bool","name":"","type":"bool"}],"stateMutability":"view","type":"function"},{"inputs":[],"name":"withdrawFees","outputs":[],"stateMutability":"nonpayable","type":"function"},{"inputs":[{"internalType":"uint256","name":"tokenId","type":"uint256"},{"internalType":"uint256","name":"amount","type":"uint256"}],"name":"withdrawFromAgent","outputs":[],"stateMutability":"nonpayable","type":"function"},{"stateMutability":"payable","type":"receive"}],"evm":{"bytecode":{"linkReferences":{},"object":"608034620004a55762005e8c90601f1990601f906001600160401b03388590038381018516830190828211848310176200048f5780849160409889948552833981010312620004a5576200005382620004ca565b92620000636020809401620004ca565b6200006d620004aa565b94600b86526a47656d426f7473204e464160a81b858701526200008f620004aa565b966005938489526447424e464160d81b878a0152875198868a116200048f576000998a549960019a8b81811c9116801562000484575b8b8210146200047057908c8b83878087961162000435575b505050508a908d868411600114620003ca5792620003be575b5050600019600383901b1c1916908a1b178a555b805192878411620003aa5789548a81811c911680156200039f575b8a8210146200038b57908b8a83868e818a9998971162000350575b505050505089928411600114620002ef57508a92620002e3575b5050600019600383901b1c191690871b1786555b3315620002cb57600780546001600160a01b031980821633908117909355956001600160a01b039592909186167f8be0079c531659141344cd1fd0a4f28419497f9722a3daafe3b4186f6b6457e08b80a3876008556101f4600f5560fa60105589519060a082019082821090821117620002b7578a52888152600a8782015260328a8201526064606082015260fa608082015284929190888a5b8381106200029d5750505050600a601c55168015801562000292575b620002815792600b9267016345785d8a000097959289979583600d541617600d551690600e541617600e5583805252662386f26fc10000838320558152666a94d74f43000082822055600281522055516159939081620004f98239f35b875163d92e233d60e01b8152600490fd5b508282161562000224565b825160ff166017820155879550918901918a910162000208565b634e487b7160e01b8a52604160045260248afd5b8751631e4fbdf760e01b815260048101889052602490fd5b0151905038806200015a565b8a8c52898c208b9590939291168c5b8b8282106200033957505084116200031f575b505050811b0186556200016e565b015160001960f88460031b161c1916905538808062000311565b8385015186558d97909501949384019301620002fe565b84849162000376965220918189018d1c830193891062000381575b018b1c0190620004df565b8b8a38858e62000140565b925081926200036b565b634e487b7160e01b8c52602260045260248cfd5b90607f169062000125565b634e487b7160e01b8b52604160045260248bfd5b015190503880620000f6565b9190878e95168380528d80852094905b828210620004145750508411620003fa575b505050811b018a556200010a565b015160001960f88460031b161c19169055388080620003ec565b91929395968291958786015181550195019301908e95949392918e620003da565b8284806200045c965220918d828801901c830193871062000466575b018c1c0190620004df565b8c8b3887620000dd565b9250819262000451565b634e487b7160e01b8d52602260045260248dfd5b90607f1690620000c5565b634e487b7160e01b600052604160045260246000fd5b600080fd5b60408051919082016001600160401b038111838210176200048f57604052565b51906001600160a01b0382168203620004a557565b818110620004eb575050565b60008155600101620004df56fe61022080604052600436101561001e575b50361561001c57600080fd5b005b60003560e01c90816301ffc9a714614a525750806303a9ebf414614a2357806306c8c525146149f757806306fdde0314614954578063081812fc14614916578063095ea7b31461482f5780630ccba3e9146147f65780630f96fd791461479b578063107a274a1461471157806313966db5146146cb578063175485ed146146ad57806318160ddd1461468f57806318841ccd146103875780631af41d4d146140c757806322dcd13e146140a957806323b872dd146140925780632787a4c6146140195780632877803014613ff85780632f6f343a14613fa8578063305a67a814613f0b5780633f4ba83a14613ea157806342842e0e14613e7357806344c9af2814613dae5780634590ae2114613ce6578063476343ee14613c9d57806348d34dc314613c435780634c433802146132fc57806355150c161461319b57806357302cd41461317257806359295330146130245780635c975abb1461300157806361d027b314612fd85780636352211e14612fa857806364cb04ac14612de7578063675b22ae14612242578063676fc6dc146121a85780636963aca81461209c5780636ac1898714611fff5780636ba9fd3814611fdc57806370a0823114611f83578063715018a614611f265780637a828b2814611dea5780637ab1d4ef14611d5357806380866d8314611d0c5780638456cb5914611cb25780638a45664e14611c585780638da5cb5b14611c2f578063925d886b14611c1357806395d89b4114611b34578063a100d69d14611b08578063a22cb46514611a5d578063b88d4fde146119f2578063c580c942146119c3578063c87b56dd1461196a578063ca21866a1461182a578063cf456ae7146117d7578063cfc0cc3414611762578063d0ac920814610e04578063d0d7d9c514610dbc578063de74e57b14610d6f578063e80d7fec14610c3a578063e96c661714610c1c578063e985e9c514610bc6578063ef03c6db14610b03578063f09d7441146109ae578063f0f4426014610954578063f119f567146107f8578063f22f96af1461077e578063f2fde38b146106f5578063f46eccc4146106b6578063f5befa9b14610682578063f94ab2ec1461060e578063fa3ec78d146103b8578063ff79d907146103875763fffad312146103645738610010565b34610382576000366003190112610382576020600c54604051908152f35b600080fd5b34610382576020366003190112610382576004356005811015610382576103af602091614af0565b54604051908152f35b6020366003190112610382576004356103cf615724565b6103d76156ae565b806000526014602052604060002060018101805460ff8160a01c16156105fc578254918234106105ea5760018060a01b0391600083821695556affffffffffffffffffffff60a81b16905561271080610432600f54856157d8565b0490610440601054856157d8565b049085600052601360205282600b60406000200154169085821490816000146105d15761046d8187615717565b945b33156105b85761047f8933615092565b808216806104a057604051637e27328960e01b8152600481018c9052602490fd5b8903610586575060008080938193600d54165af16104bc615189565b501561054d57158061057d575b61055f575b5050600080808093865af16104e1615189565b501561054d5780341161052d575b7f23f50d55776d8003622a982ade45a6c7f083116c8dbbcd980f59942f440badb1916060916040519182523360208301526040820152a26001600855005b600080808061053c8534615717565b335af1610547615189565b506104ef575b6040516312171d8360e31b8152600490fd5b600080809381935af1610570615189565b501561054d5784806104ce565b508115156104c9565b6040516364283d7b60e01b81526001600160a01b038a81166004830152602482018c9052919091166044820152606490fd5b604051633250574960e11b815260006004820152602490fd5b6105e4846105df8389615717565b615717565b9461046f565b60405163cd1c886760e01b8152600490fd5b604051630f971cbd60e41b8152600490fd5b346103825760203660031901126103825760043561062b8161514e565b50600052601360205260a0604060002060128101549060138101549060156014820154910154916040519360ff8160081c1615158552600180871b039060101c166020850152604084015260608301526080820152f35b34610382576040366003190112610382576004356005811015610382576106a7614ed6565b6106b360243591614af0565b55005b34610382576020366003190112610382576001600160a01b036106d7614cbe565b166000526012602052602060ff604060002054166040519015158152f35b346103825760203660031901126103825761070e614cbe565b610716614ed6565b6001600160a01b0390811690811561076557600754826001600160601b0360a01b821617600755167f8be0079c531659141344cd1fd0a4f28419497f9722a3daafe3b4186f6b6457e0600080a3005b604051631e4fbdf760e01b815260006004820152602490fd5b34610382576020806003193601126103825760043560005260158152604060002090604051908181845491828152019360005281600020916000905b8282106107e1576107dd856107d181890382614baf565b60405191829182614e83565b0390f35b8354865294850194600193840193909101906107ba565b346103825760208060031936011261038257600435906108166156ae565b61081f8261514e565b508160005260138152604060002090600b82019160ff835460a01c1690600582101561092c5760048214610942576001600160801b03600c6108639201541661578a565b90600582101561092c5781111561091a5761089f817fa10b529cca5bc10c80df76c1e97548758a642268270584ae612a37eb0a390c5f94615355565b6108b06108ab82614ad7565b614bd0565b80516108c4575b5060ff60405191168152a2005b6109149061090e846108d588615868565b9260405193816108ee8693518092868087019101614c76565b820161090282518093868085019101614c76565b01038084520182614baf565b8561557c565b846108b7565b6040516361c0b9e960e11b8152600490fd5b634e487b7160e01b600052602160045260246000fd5b604051632726a67f60e11b8152600490fd5b346103825760203660031901126103825761096d614cbe565b610975614ed6565b6001600160a01b0316801561099c576001600160601b0360a01b600d541617600d55600080f35b60405163d92e233d60e01b8152600490fd5b346103825760403660031901126103825760043560243581600052601360205260ff60016040600020015416600381101561092c57600214610af157816000526013602052604060002090601282015460ff8160081c1615610adf576001600160a01b0380610a1c8661514e565b163314918215610acf575b505015610a80578160409160137f66a420b2417e1183cd2d446f9d062281e74e2d2b3fb74ded512c39dc02e5247e940191818354935560148101610a6b81546152dc565b905560154291015582519182526020820152a2005b60405162461bcd60e51b815260206004820152602160248201527f4e6f7420617574686f72697a656420746f20757064617465206c6561726e696e6044820152606760f81b6064820152608490fd5b90915060101c1633148480610a27565b604051636ec2d48d60e11b8152600490fd5b6040516382564fa560e01b8152600490fd5b60203660031901126103825760043580600052601360205260ff60016040600020015416600381101561092c57600214610af157610b408161514e565b503415610b915760005260136020526040600020610b5f3482546156cc565b905560405134815233907f49af616656db0fca31912fe65a529a84c3634718357324a7397674794e6caf2f60203392a3005b60405162461bcd60e51b815260206004820152600d60248201526c26bab9ba1039b2b7321021272160991b6044820152606490fd5b3461038257604036600319011261038257610bdf614cbe565b610be7614cd4565b9060018060a01b03809116600052600560205260406000209116600052602052602060ff604060002054166040519015158152f35b34610382576000366003190112610382576020601054604051908152f35b3461038257610c4836614cf9565b610c518261514e565b6001600160a01b03903390821603610d5d5782600052601360205260ff60016040600020015416600381101561092c57600214610af157610c906156ae565b8115610d4c5782600052601460205260ff60016040600020015460a01c16610d3a577f1ea45e30b31292f9d7c5d37d275b2feca555f13f47dce0fdea2f47e8852ecd7891602091604051610ce381614b43565b828152838101913383526001604083019281845288600052601487526040600020905181550192511682549160ff60a01b9051151560a01b16916affffffffffffffffffffff60a81b1617179055604051908152a2005b60405163e391255160e01b8152600490fd5b60405162bfc92160e01b8152600490fd5b604051637a50e05760e01b8152600490fd5b346103825760203660031901126103825760043560005260146020526060604060002060ff6001825492015460405192835260018060a01b038116602084015260a01c1615156040820152f35b3461038257602036600319011261038257610dd5614cbe565b610ddd614ed6565b6001600160a01b0316801561099c576001600160601b0360a01b600e541617600e55600080f35b346103825760031960e03682011261038257610e1e614cbe565b6024356001600160401b03811161038257610e3d903690600401614df3565b6064356001600160401b03811161038257610e5c903690600401614df3565b60a4356001600160401b03811161038257610e7b903690600401614df3565b9590966001600160401b0360c435116103825760c09060c4353603011261038257610ea4614ed6565b610eac6156ae565b6064600c54101561175057600a5495610ec4876152dc565b600a55610ed18783615406565b8660005260136020526040600020976001890160ff199081815416905560443560098b01556001600160401b0387116113d257610f1e87610f15600a8d0154614b09565b600a8d01615301565b866000601f82116001146116e0576000916116d5575b508760011b906000198960031b1c191617600a8b01555b600b8a0180546001600160a81b0319166001600160a01b03861617905560128a0180549091166001179055610f85600460c4350180615379565b906001600160401b0382116113d2578190610fb0828d6003610fa981830154614b09565b9101615301565b600090601f831160011461166457600092611659575b50508160011b916000199060031b1c19161760038a01555b610ff2602460c4350160c435600401615379565b906001600160401b0382116113d2578190611016828d6004610fa981830154614b09565b600090601f83116001146115e8576000926115dd575b50508160011b916000199060031b1c19161760048a01555b611058604460c4350160c435600401615379565b906001600160401b0382116113d257819061107c828d6005610fa981830154614b09565b600090601f831160011461156c57600092611561575b50508160011b916000199060031b1c19161760058a01555b6110be606460c4350160c435600401615379565b906001600160401b0382116113d25781906110e2828d6006610fa981830154614b09565b600090601f83116001146114f0576000926114e5575b50508160011b916000199060031b1c19161760068a01555b611124608460c4350160c435600401615379565b906001600160401b0382116113d257611146828c6007610fa981830154614b09565b600090601f8311600114611471576111b093929160009183611466575b50508160011b916000199060031b1c19161760078b01555b60a460c435013560088b01556040519261119484614b43565b61119f368789614d2a565b845260843560208501523691614d2a565b604082015280518051906001600160401b0382116113d2576111e2826111d9600f8d0154614b09565b600f8d01615301565b602090601f83116001146113f3576040939291600091836113e8575b50508160011b916000199060031b1c191617600f8a01555b602081015160108a01550151938451976001600160401b0389116113d25788889661125360209b61124a6011860154614b09565b60118601615301565b8a90601f8311600114611344579260118360008051602061593e8339815191529a9b946112c297946112bc97600092611339575b50508160011b916000199060031b1c1916179101555b60843560005260158b526112b58960406000206153ab565b3691614d2a565b8661557c565b6112cd600c546152dc565b600c556040805160443581526001898201526001600160a01b039092169186917f95abeb4465b4ad62feb35f85eb0a053ac518e5b0f02a7c23b1ef9b3fa167b06991a36113276040519283926040845260408401916153e5565b608435878301520390a2604051908152f35b015190508f80611287565b60118493929a9594016000528b6000209060005b601f19841681106113b857506001836112c297959360008051602061593e8339815191529c9d6011946112bc9997601f1981161061139f575b505050811b0191015561129d565b015160001960f88460031b161c191690558f8080611391565b818c015183559a8d019a8c9a506001909201918d01611358565b634e487b7160e01b600052604160045260246000fd5b015190508b806111fe565b90600f8b0160005260206000209160005b601f198516811061144e575091839160019360409695601f19811610611435575b505050811b01600f8a0155611216565b015160001960f88460031b161c191690558b8080611425565b91926020600181928685015181550194019201611404565b013590508c80611163565b60078c0160005260206000209160005b601f19851681106114cd57509183916001936111b09695601f198116106114b3575b505050811b0160078b015561117b565b0135600019600384901b60f8161c191690558c80806114a3565b90926020600181928686013581550194019101611481565b013590508b806110f8565b90925060068c016000526020600020906000935b601f1984168510611549576001945083601f1981161061152f575b505050811b0160068a0155611110565b0135600019600384901b60f8161c191690558b808061151f565b81810135835560209485019460019093019201611504565b013590508b80611092565b90925060058c016000526020600020906000935b601f19841685106115c5576001945083601f198116106115ab575b505050811b0160058a01556110aa565b0135600019600384901b60f8161c191690558b808061159b565b81810135835560209485019460019093019201611580565b013590508b8061102c565b90925060048c016000526020600020906000935b601f1984168510611641576001945083601f19811610611627575b505050811b0160048a0155611044565b0135600019600384901b60f8161c191690558b8080611617565b818101358355602094850194600190930192016115fc565b013590508b80610fc6565b90925060038c016000526020600020906000935b601f19841685106116bd576001945083601f198116106116a3575b505050811b0160038a0155610fde565b0135600019600384901b60f8161c191690558b8080611693565b81810135835560209485019460019093019201611678565b90508801358b610f34565b9050600a8b0160005260206000209060005b8a601f198b16821061173857505088601f1981161061171e575b5050600187811b01600a8b0155610f4b565b89013560001960038a901b60f8161c191690558a8061170c565b600183946020939484930135815501930191016116f2565b604051631179963560e01b8152600490fd5b346103825760203660031901126103825760043561177f8161514e565b5060005260136020526117c460406000206107dd60108201546117b060116117a9600f8601614bd0565b9401614bd0565b604051948594606086526060860190614c99565b9160208501528382036040850152614c99565b346103825760403660031901126103825761001c6117f3614cbe565b6117fb614cea565b90611804614ed6565b60018060a01b0316600052601260205260406000209060ff801983541691151516179055565b346103825760208060031936011261038257600435611847615747565b5060606040805161185781614b43565b828152600085820152015261186b8161514e565b50600052601381526040600020600981015491600b8201549160ff8360a01c169260ff601283015416926118a1600a8401614bd0565b906118ae600c85016157eb565b946040516118bb81614b43565b6118c7600f8701614bd0565b81526119016118e36011601089015498868501998a5201614bd0565b94604083019586526040519a8b5261016080868d01528b0190614c99565b6001600160a01b0390951660408a0152600588101561092c5761193d6107dd97611955938b9a60608c0152151560808b015260a08a0190614db4565b87850361014089015251606085526060850190614c99565b93519083015251906040818403910152614c99565b34610382576020366003190112610382576004356119878161514e565b5060005260066020526107dd6119a06040600020614bd0565b60006040516119ae81614b94565b52604051918291602083526020830190614c99565b34610382576020366003190112610382576004356119df614ed6565b6119ed6103e8821115615832565b600f55005b3461038257608036600319011261038257611a0b614cbe565b611a13614cd4565b90604435606435926001600160401b038411610382573660238501121561038257611a4b61001c943690602481600401359101614d2a565b92611a57838383614f02565b336151b9565b3461038257604036600319011261038257611a76614cbe565b611a7e614cea565b6001600160a01b03909116908115611aef57336000526005602052604060002082600052602052611abf8160406000209060ff801983541691151516179055565b60405190151581527f17307eab39ab6107e8899845ad3d59bd9653f200f220920489ca2b5937696c3160203392a3005b604051630b61174360e31b815260048101839052602490fd5b346103825760203660031901126103825760043560058110156103825760209060170154604051908152f35b346103825760003660031901126103825760405160006001805490611b5882614b09565b80855291818116908115611bec5750600114611b93575b6107dd84611b7f81860382614baf565b604051918291602083526020830190614c99565b600081815292507fb10e2d527612073b26eecdfd717e6a320cf44b4afac2b0732d9fcbe2b7fa0cf65b828410611bd4575050508101602001611b7f82611b6f565b80546020858701810191909152909301928101611bbc565b60ff191660208087019190915292151560051b85019092019250611b7f9150839050611b6f565b3461038257600036600319011261038257602060405160648152f35b34610382576000366003190112610382576007546040516001600160a01b039091168152602090f35b34610382576020611c6836614e20565b611c718361514e565b50611c95846040518381948383019687378101600083820152038084520182614baf565b519020906000526013825260096040600020015414604051908152f35b3461038257600036600319011261038257611ccb614ed6565b611cd36156ae565b600160ff1960095416176009557f62e78cea01bee320cd4e420270b5ea74000d11b0c9f74754ebdbfc544b05a2586020604051338152a1005b346103825760403660031901126103825760243560043560005260156020526040600020805482101561038257602091611d4591614ebe565b90546040519160031b1c8152f35b3461038257604036600319011261038257600435611d6f614cd4565b90611d798161514e565b336001600160a01b0390911603610d5d5780600052601360205260ff60016040600020015416600381101561092c57600214610af15760009081526013602052604090206012018054610100600160b01b03191660109290921b62010000600160b01b031691909117610100179055005b34610382576020806003193601126103825760043590611e098261514e565b336001600160a01b0390911603610d5d57816000526013815260ff60016040600020015416600381101561092c57600214610af157611e46615724565b816000526013815260406000209060018201600260ff1982541617905581549182611f05575b507fa1ab8a666d1303f4c8e0554e3100d5686fb8a5547b3621312da15a7f975387009183600052601482526040600020600181019081549060ff8260a01c16611eed575b505050604051600281527f76c0bad3b7f1c74587dcb478154d4c87ae6663db97cc086b981decf4e35a797c833392a2604051908152a26001600855005b600090556001600160a81b0319169055848080611eb0565b60009055600080808085335af1611f1a615189565b501561054d5783611e6c565b3461038257600036600319011261038257611f3f614ed6565b600780546001600160a01b031981169091556000906001600160a01b03167f8be0079c531659141344cd1fd0a4f28419497f9722a3daafe3b4186f6b6457e08280a3005b34610382576020366003190112610382576001600160a01b03611fa4614cbe565b168015611fc35760005260036020526020604060002054604051908152f35b6040516322718ad960e21b815260006004820152602490fd5b3461038257600036600319011261038257602060ff601154166040519015158152f35b346103825760203660031901126103825760043561201c8161514e565b336001600160a01b0390911603610d5d5780600052601360205260ff60016040600020015416600381101561092c57600214610af15760005260136020526001604060002001600160ff19825416179055604051600181527f76c0bad3b7f1c74587dcb478154d4c87ae6663db97cc086b981decf4e35a797c60203392a2005b34610382576040366003190112610382576004356005811015610382576001600160401b03602435818111610382576120dc6120ec913690600401614df3565b9190936120e7614ed6565b614ad7565b9181116113d257612107816121018454614b09565b84615301565b6000601f821160011461214257819293600092612137575b5050600019600383901b1c191660019190911b179055005b01359050838061211f565b601f198216938360005260209182600020926000905b878210612190575050836001959610612176575b505050811b019055005b0135600019600384901b60f8161c1916905583808061216c565b80600184968294958701358155019501920190612158565b34610382576020366003190112610382576004356121c58161514e565b336001600160a01b0390911603610d5d5780600052601360205260ff60016040600020015416600381101561092c57600214610af1576000526013602052600160406000200160ff198154169055604051600081527f76c0bad3b7f1c74587dcb478154d4c87ae6663db97cc086b981decf4e35a797c60203392a2005b346103825760e03660031901126103825761225b614cbe565b60c0526024356001600160401b0381116103825761227d903690600401614e53565b610140526044356001600160401b038111610382576122a0903690600401614e53565b60a0526080526064356001600160401b038111610382576122c5903690600401614e53565b610120526101a0526084356001600160401b038111610382576122ec903690600401614e53565b610180526102005260a4356001600160401b03811161038257612313903690600401614e53565b6001600160401b0360c49392933511610382576123353660c435600401614e53565b6101e05261016052612345614ed6565b61234d6156ae565b60a0516101405190811490811591612dd9575b8115612dcb575b8115612dc0575b8115612db2575b50612da057606461238b61014051600c546156cc565b11611750576123ac61239f610140516156d9565b604051806101c052614baf565b610140516101c05152601f196123c4610140516156d9565b013660206101c0510137600060e0525b6101405160e0511015612d8f576123f1600a5480610100526152dc565b600a556124036101005160c051615406565b6101005160005260136020526040600020906001820160ff19815416905561243260e05160a0516080516156f0565b35600983015561244860e0516101405185615700565b6001600160401b0381116113d25761247081612467600a870154614b09565b600a8701615301565b600091601f8211600114612d2157918192600092612d16575b50508160011b916000199060031b1c191617600a8301555b60c051600b830180546001600160a81b0319166001600160a01b039290921691909117905560128201805460ff191660011790556101e05160e051908110156129a857610160519060051b81013560be198236030181121561038257612508910180615379565b6001600160401b0381116113d257612530816125276003870154614b09565b60038701615301565b600091601f8211600114612ca857918192600092612c9d575b50508160011b916000199060031b1c19161760038301555b61257d60e05160051b6101605190810135016020810190615379565b6001600160401b0381116113d2576125a58161259c6004870154614b09565b60048701615301565b600091601f8211600114612c2f57918192600092612c24575b50508160011b916000199060031b1c19161760048301555b6125f260e05160051b6101605190810135016040810190615379565b6001600160401b0381116113d25761261a816126116005870154614b09565b60058701615301565b600091601f8211600114612bb657918192600092612bab575b50508160011b916000199060031b1c19161760058301555b61266760e05160051b6101605190810135016060810190615379565b6001600160401b0381116113d25761268f816126866006870154614b09565b60068701615301565b600091601f8211600114612b3d57918192600092612b32575b50508160011b916000199060031b1c19161760068301555b6126dc60e05160051b6101605190810135016080810190615379565b6001600160401b0381949294116113d257612707816126fe6007850154614b09565b60078501615301565b600093601f8211600114612ac2579381929394600092612ab7575b50508160011b916000199060031b1c19161760078201555b6127a961276560e05160a0610160518260051b8101350101356008850155610120516101a051615700565b919061279b61277d60e05161018051610200516156f0565b3561278b60e051888b615700565b929093604051966112b588614b43565b855260208501523691614d2a565b604082015280518051906001600160401b0382116113d2576127db826127d2600f870154614b09565b600f8701615301565b602090601f8311600114612a4457604093929160009183612a39575b50508160011b916000199060031b1c191617600f8401555b6020810151601084015501518051906001600160401b0382116113d25761283d8261124a6011860154614b09565b602090601f83116001146129c95760119291600091836129be575b50508160011b916000199060031b1c1916179101555b61288160e05161018051610200516156f0565b35600052601560205261289b6101005160406000206153ab565b6128ba6128b16112b560e0516101405186615700565b6101005161557c565b6128c5600c546152dc565b600c556101c05180519060e051918210156129a857602090610100519260051b0101526128f960e05160a0516080516156f0565b356040519081526001602082015260018060a01b0360c05116907f95abeb4465b4ad62feb35f85eb0a053ac518e5b0f02a7c23b1ef9b3fa167b06960406101005192a360008051602061593e83398151915261295e60e051610120516101a051615700565b61298b61297760e09493945161018051610200516156f0565b3593604051926040845260408401916153e5565b9260208201528061010051930390a2600160e0510160e0526123d4565b634e487b7160e01b600052603260045260246000fd5b015190508780612858565b906011840160005260206000209160005b601f1985168110612a215750918391600193601195601f19811610612a08575b505050811b0191015561286e565b015160001960f88460031b161c191690558780806129fa565b919260206001819286850151815501940192016129da565b0151905088806127f7565b90600f850160005260206000209160005b601f1985168110612a9f575091839160019360409695601f19811610612a86575b505050811b01600f84015561280f565b015160001960f88460031b161c19169055888080612a76565b91926020600181928685015181550194019201612a55565b013590508680612722565b600783016000526020600020906000955b601f1984168710612b1a5760019495965083601f19811610612b00575b505050811b01600782015561273a565b0135600019600384901b60f8161c19169055868080612af0565b81810135835560209687019660019093019201612ad3565b0135905086806126a8565b600685016000526020600020906000935b601f1984168510612b93576001945083601f19811610612b79575b505050811b0160068301556126c0565b0135600019600384901b60f8161c19169055868080612b69565b81810135835560209485019460019093019201612b4e565b013590508680612633565b600585016000526020600020906000935b601f1984168510612c0c576001945083601f19811610612bf2575b505050811b01600583015561264b565b0135600019600384901b60f8161c19169055868080612be2565b81810135835560209485019460019093019201612bc7565b0135905086806125be565b600485016000526020600020906000935b601f1984168510612c85576001945083601f19811610612c6b575b505050811b0160048301556125d6565b0135600019600384901b60f8161c19169055868080612c5b565b81810135835560209485019460019093019201612c40565b013590508680612549565b600385016000526020600020906000935b601f1984168510612cfe576001945083601f19811610612ce4575b505050811b016003830155612561565b0135600019600384901b60f8161c19169055868080612cd4565b81810135835560209485019460019093019201612cb9565b013590508680612489565b600a85016000526020600020906000935b601f1984168510612d77576001945083601f19811610612d5d575b505050811b01600a8301556124a1565b0135600019600384901b60f8161c19169055868080612d4d565b81810135835560209485019460019093019201612d32565b604051806107dd6101c05182614e83565b60405163512509d360e11b8152600490fd5b90506101e051141584612375565b82811415915061236e565b610180518114159150612367565b610120518114159150612360565b3461038257608036600319011261038257600435604435801515602435818303610382576064356001600160401b03811161038257612e2a903690600401614df3565b600e54909491906001600160a01b03163303612f96577fee6088724bcecc2617103f0482e6237c070827162ab05c426ea5b173785dec9894612f4492612e6e6156ae565b612e778861514e565b50612e818561514e565b508760005260136020526040600020600c8101600d82018054916001600160801b039485612eb0818616615772565b166001600160801b031994851617835515612f56579081600e92548487612ed8818416615772565b169116179055612f0e612eee825460801c615772565b82546001600160801b031660809190911b6001600160801b031916178255565b5460801c92019283549081168311612f49575b505050505b604051948594855260208501526060604085015260608401916153e5565b0390a2005b1617905587808080612f21565b90939250612f8c9150612f6c815460801c615772565b81546001600160801b031660809190911b6001600160801b031916179055565b8154169055612f26565b604051631d9d6ea960e31b8152600490fd5b34610382576020366003190112610382576020612fc660043561514e565b6040516001600160a01b039091168152f35b3461038257600036600319011261038257600d546040516001600160a01b039091168152602090f35b3461038257600036600319011261038257602060ff600954166040519015158152f35b34610382576020806003193601126103825760c0906004356040519061304982614b5e565b600060a06060938481528486820152846040820152848082015284608082015201526130748161514e565b506000526013825261316760406000206040519261309184614b5e565b61309d60038301614bd0565b84526131566130ae60048401614bd0565b918686019283526131456130c460058601614bd0565b604088019081526130d760068701614bd0565b9280890193845261313461311e60086130f260078b01614bd0565b9960808d019a8b5201549a60a081019b8c526040519d8d8f9e928f9384525192015260e08d0190614c99565b9651601f198c8903810160408e01529790614c99565b915190868b840301908b0152614c99565b905183888303016080890152614c99565b9151908583030160a0860152614c99565b905160c08301520390f35b3461038257600036600319011261038257600e546040516001600160a01b039091168152602090f35b34610382576131a936614e20565b6131b28361514e565b6001600160a01b0392903390841603610d5d57836000526020936013855260ff60016040600020015416600381101561092c57600214610af157806000526013855260ff60016040600020015416600381101561092c576001146132ea576132186156ae565b60005260138452604060002092600184015460081c169283156132ad579160008094928194600242910155826040519384928337810182815203925af161325d615189565b901561329b57612f447fd7d62979ae48a176c84f013982271cb0978ab8192f62cf045874ae8a1cf767fc916040519182918583523395830190614c99565b604051630824d20f60e21b8152600490fd5b60405162461bcd60e51b8152600481018690526015602482015274139bc81b1bd9da58c818dbdb9d1c9858dd081cd95d605a1b6044820152606490fd5b604051632437e77160e11b8152600490fd5b60031960e0368201126103825760056004351015610382576044356001600160401b03811161038257613333903690600401614df3565b6064356001600160401b03811161038257613352903690600401614df3565b929060a4356001600160401b03811161038257613373903690600401614df3565b9490956001600160401b0360c435116103825760c09060c435360301126103825760ff601154161580613c2a575b80613c15575b613c03576133b36156ae565b600260043511613bf1576133c8600435614af0565b5434106105ea57600a54946133dc866152dc565b600a556133e98633615406565b8560005260136020526040600020966001880160ff19815416905560243560098901556001600160401b0386116113d2576134348661342b600a8b0154614b09565b600a8b01615301565b856000601f8211600114613b8357600091613b78575b508660011b906000198860031b1c191617600a8901555b600b880180546001600160a01b031916331781556134829060043590615355565b613491600460c4350180615379565b906001600160401b0382116113d25781906134b5828c6003610fa981830154614b09565b600090601f8311600114613b0757600092613afc575b50508160011b916000199060031b1c19161760038901555b6134f7602460c4350160c435600401615379565b906001600160401b0382116113d257819061351b828c6004610fa981830154614b09565b600090601f8311600114613a8b57600092613a80575b50508160011b916000199060031b1c19161760048901555b61355d604460c4350160c435600401615379565b906001600160401b0382116113d2578190613581828c6005610fa981830154614b09565b600090601f8311600114613a0f57600092613a04575b50508160011b916000199060031b1c19161760058901555b6135c3606460c4350160c435600401615379565b906001600160401b0382116113d25781906135e7828c6006610fa981830154614b09565b600090601f831160011461399357600092613988575b50508160011b916000199060031b1c19161760068901555b613629608460c4350160c435600401615379565b906001600160401b0382116113d2576136528261364960078d0154614b09565b60078d01615301565b600090601f8311600114613914576136ab93929160009183613909575b50508160011b916000199060031b1c19161760078a01555b60a460c435013560088a0155604051926136a084614b43565b61119f368688614d2a565b604082015280518051906001600160401b0382116113d2576136dd826136d4600f8c0154614b09565b600f8c01615301565b602090601f83116001146138965760409392916000918361388b575b50508160011b916000199060031b1c191617600f8901555b602081015160108901550151928351966001600160401b0388116113d25787879561374560209a61124a6011860154614b09565b8990601f83116001146137fe57926011836137a7969460008051602061593e8339815191529a9b9461090e976000926137f3575b50508160011b916000199060031b1c1916179101555b60843560005260158a526112b58860406000206153ab565b6040516024358152600087820152847f95abeb4465b4ad62feb35f85eb0a053ac518e5b0f02a7c23b1ef9b3fa167b06960403393a36113276040519283926040845260408401916153e5565b015190508e80613779565b97929190601183016000528a6000209860005b601f1984168110613871575060018360008051602061593e8339815191529a9b6137a798969460119461090e9997601f19811610613858575b505050811b0191015561378f565b015160001960f88460031b161c191690558e808061384a565b828201518b556001909a01998b9950918c01918c01613811565b015190508a806136f9565b90600f8a0160005260206000209160005b601f19851681106138f1575091839160019360409695601f198116106138d8575b505050811b01600f890155613711565b015160001960f88460031b161c191690558a80806138c8565b919260206001819286850151815501940192016138a7565b013590508b8061366f565b60078b0160005260206000209160005b601f198516811061397057509183916001936136ab9695601f19811610613956575b505050811b0160078a0155613687565b0135600019600384901b60f8161c191690558b8080613946565b90926020600181928686013581550194019101613924565b013590508a806135fd565b90925060068b016000526020600020906000935b601f19841685106139ec576001945083601f198116106139d2575b505050811b016006890155613615565b0135600019600384901b60f8161c191690558a80806139c2565b818101358355602094850194600190930192016139a7565b013590508a80613597565b90925060058b016000526020600020906000935b601f1984168510613a68576001945083601f19811610613a4e575b505050811b0160058901556135af565b0135600019600384901b60f8161c191690558a8080613a3e565b81810135835560209485019460019093019201613a23565b013590508a80613531565b90925060048b016000526020600020906000935b601f1984168510613ae4576001945083601f19811610613aca575b505050811b016004890155613549565b0135600019600384901b60f8161c191690558a8080613aba565b81810135835560209485019460019093019201613a9f565b013590508a806134cb565b90925060038b016000526020600020906000935b601f1984168510613b60576001945083601f19811610613b46575b505050811b0160038901556134e3565b0135600019600384901b60f8161c191690558a8080613b36565b81810135835560209485019460019093019201613b1b565b90508501358961344a565b9050600a890160005260206000209060005b601f1989168110613bd9575087601f19811610613bbf575b5050600186811b01600a890155613461565b860135600019600389901b60f8161c191690558880613bad565b9091602060018192858b013581550193019101613b95565b60405163263dd7f760e11b8152600490fd5b604051633e34a41b60e21b8152600490fd5b506007546001600160a01b03163314156133a7565b5033600052601260205260ff60406000205416156133a1565b34610382576020613c5336614e20565b613c5c8361514e565b50613c80846040518381948383019687378101600083820152038084520182614baf565b519020906000526013825260106040600020015414604051908152f35b3461038257600036600319011261038257613cb6614ed6565b613cbe615724565b60008080804760018060a01b03600d54165af1613cd9615189565b501561054d576001600855005b3461038257604036600319011261038257600435613d02614cd4565b90613d0c8161514e565b6001600160a01b0391903390831603610d5d5780600052601360205260ff60016040600020015416600381101561092c57600214610af1576000526013602052600160406000200191825492610100600160a81b038260081b16610100600160a81b03198516179055816040519360081c1683521660208201527fc7d3cff0397f47c60f877b10188255f15ea89c9bad5c53c0d60dab38fe1e28d560403392a2005b3461038257602036600319011261038257600435613dca615747565b50613dd48161514e565b5080600052601360205260406000208054906001810154906002613dfb60ff84169561514e565b9101549160405193613e0c85614b79565b84526020840194600381101561092c578552604084019460018060a01b03809316865282606086019260081c168252608085019384526040519451855251600381101561092c5760a095839160208701525116604085015251166060830152516080820152f35b346103825761001c613e8436614d7f565b9060405192613e9284614b94565b60008452611a57838383614f02565b3461038257600036600319011261038257613eba614ed6565b60095460ff811615613ef95760ff19166009557f5db9ee0a495bf2e6ff9c91a7834c1ba4fdd244a5e8aa4e537bd38aeae4b073aa6020604051338152a1005b604051638dfc202b60e01b8152600490fd5b3461038257602036600319011261038257600435613f288161514e565b336001600160a01b0390911603610d5d5780600052601460205260ff60016040600020015460a01c16156105fc57806000526014602052604060002060018101906000825491556affffffffffffffffffffff60a81b1690557f411aee90354c51b1b04cd563fcab2617142a9d50da19232d888547c8a1b7fd8a600080a2005b3461038257602036600319011261038257600435613fc4615747565b50613fce8161514e565b50600052601360205260a0613fe9600c6040600020016157eb565b613ff66040518092614db4565bf35b3461038257602036600319011261038257614011614ed6565b600435601c55005b346103825761402736614cf9565b90614030615724565b6140398161514e565b336001600160a01b0390911603610d5d57600052601360205260406000209081549182821161408057600080808481946140738289615717565b9055335af1613cd9615189565b60405163aac63ff960e01b8152600490fd5b346103825761001c6140a336614d7f565b91614f02565b34610382576000366003190112610382576020600f54604051908152f35b346103825760031960403682011261038257602435906001600160401b0382116103825760c0908236030112610382576040519061410482614b5e565b80600401356001600160401b038111610382576141279060043691840101614d61565b825260248101356001600160401b0381116103825761414c9060043691840101614d61565b602083015260448101356001600160401b038111610382576141749060043691840101614d61565b604083015260648101356001600160401b0381116103825761419c9060043691840101614d61565b60608301526084810135906001600160401b038211610382576141c760a49260043691840101614d61565b6080840152013560a08201526141de60043561514e565b336001600160a01b0390911603610d5d57600435600052601360205260ff60016040600020015416600381101561092c57600214610af157600435600052601360205260406000209080519182516001600160401b0381116113d2576142548161424b6003850154614b09565b60038501615301565b6020601f82116001146146215781929394600092614616575b50508160011b916000199060031b1c19161760038201555b60208201519182516001600160401b0381116113d2576142b5816142ac6004860154614b09565b60048601615301565b6020601f82116001146145a8578192939460009261459d575b50508160011b916000199060031b1c19161760048301555b60408101519182516001600160401b0381116113d2576143168161430d6005850154614b09565b60058501615301565b6020601f821160011461452f5781929394600092614524575b50508160011b916000199060031b1c19161760058201555b600681019160608101519283516001600160401b0381116113d257614370816121018454614b09565b602094601f82116001146144be579481929394956000926144b3575b50508160011b916000199060031b1c19161790555b600782019160808201519283516001600160401b0381116113d2576143ca816121018454614b09565b6020601f821160011461444a57819060809660009261443f575b50508160011b916000199060031b1c19161790555b600860a083015191015501517f459157ba24c7ab9878b165ef465fa6ae2ab42bcd8445f576be378768b0c473096040516020815280612f44600435946020830190614c99565b0151905086806143e4565b601f198216958360005260206000209660005b81811061449b57509160809791846001959410614482575b505050811b0190556143f9565b015160001960f88460031b161c19169055868080614475565b8383015189556001909801976020938401930161445d565b01519050858061438c565b601f198216958360005260206000209160005b88811061450c575083600195969798106144f3575b505050811b0190556143a1565b015160001960f88460031b161c191690558580806144e6565b919260206001819286850151815501940192016144d1565b01519050848061432f565b6005830160005260206000209060005b601f19841681106145855750600193949583601f1981161061456c575b505050811b016005820155614347565b015160001960f88460031b161c1916905584808061455c565b9091602060018192858a01518155019301910161453f565b0151905084806142ce565b6004840160005260206000209060005b601f19841681106145fe5750600193949583601f198116106145e5575b505050811b0160048301556142e6565b015160001960f88460031b161c191690558480806145d5565b9091602060018192858a0151815501930191016145b8565b01519050848061426d565b6003830160005260206000209060005b601f19841681106146775750600193949583601f1981161061465e575b505050811b016003820155614285565b015160001960f88460031b161c1916905584808061464e565b9091602060018192858a015181550193019101614631565b34610382576000366003190112610382576020600a54604051908152f35b34610382576000366003190112610382576020601c54604051908152f35b346103825760003660031901126103825760008052600b60209081527fdf7de25b7f1fd6d0b5205f0e18f1f35bd7b8d84cce336588d184533ce43a6f7654604051908152f35b346103825760203660031901126103825760006040805161473181614b43565b828152826020820152015260043560005260146020526060604060002060405161475a81614b43565b60018254928383520154906020810160ff604060018060a01b03938486168452019360a01c1615158352604051938452511660208301525115156040820152f35b34610382576147a936614cf9565b906147b2614ed6565b60058110156147c15760170155005b60405162461bcd60e51b815260206004820152600d60248201526c092dcecc2d8d2c840d2dcc8caf609b1b6044820152606490fd5b34610382576020366003190112610382576004358015158091036103825761481c614ed6565b60ff801960115416911617601155600080f35b3461038257604036600319011261038257614848614cbe565b6024356148548161514e565b33151580614903575b806148d6575b6148be576001600160a01b039283169282918491167f8c5be1e5ebec7d5bd14f71427d1e84f3dd0314c0f7b2291e5b200ac8c7c3b925600080a4600090815260046020526040902080546001600160a01b0319169091179055005b60405163a9fbf51f60e01b8152336004820152602490fd5b5060018060a01b038116600052600560205260406000203360005260205260ff6040600020541615614863565b506001600160a01b03811633141561485d565b34610382576020366003190112610382576004356149338161514e565b506000526004602052602060018060a01b0360406000205416604051908152f35b34610382576000366003190112610382576040516000805461497581614b09565b80845290600190818116908115611bec575060011461499e576107dd84611b7f81860382614baf565b600080805292507f290decd9548b62a8d60345a988386fc84ba6bc95484008f6362f93160ef3e5635b8284106149df575050508101602001611b7f82611b6f565b805460208587018101919091529093019281016149c7565b3461038257602036600319011261038257600435600581101561038257611b7f6108ab6107dd92614ad7565b3461038257602036600319011261038257600435614a3f614ed6565b614a4d6103e8821115615832565b601055005b34610382576020366003190112610382576004359063ffffffff60e01b821680920361038257602091632483248360e11b8114908115614a94575b5015158152f35b6380ac58cd60e01b811491508115614ac6575b8115614ab5575b5083614a8d565b6301ffc9a760e01b14905083614aae565b635b5e139f60e01b81149150614aa7565b600581101561092c576000526016602052604060002090565b600581101561092c57600052600b602052604060002090565b90600182811c92168015614b39575b6020831014614b2357565b634e487b7160e01b600052602260045260246000fd5b91607f1691614b18565b606081019081106001600160401b038211176113d257604052565b60c081019081106001600160401b038211176113d257604052565b60a081019081106001600160401b038211176113d257604052565b602081019081106001600160401b038211176113d257604052565b90601f801991011681019081106001600160401b038211176113d257604052565b9060405191826000825492614be484614b09565b908184526001948581169081600014614c535750600114614c10575b5050614c0e92500383614baf565b565b9093915060005260209081600020936000915b818310614c3b575050614c0e93508201013880614c00565b85548884018501529485019487945091830191614c23565b915050614c0e94506020925060ff191682840152151560051b8201013880614c00565b60005b838110614c895750506000910152565b8181015183820152602001614c79565b90602091614cb281518092818552858086019101614c76565b601f01601f1916010190565b600435906001600160a01b038216820361038257565b602435906001600160a01b038216820361038257565b60243590811515820361038257565b6040906003190112610382576004359060243590565b6001600160401b0381116113d257601f01601f191660200190565b929192614d3682614d0f565b91614d446040519384614baf565b829481845281830111610382578281602093846000960137010152565b9080601f8301121561038257816020614d7c93359101614d2a565b90565b6060906003190112610382576001600160a01b0390600435828116810361038257916024359081168103610382579060443590565b608090816001600160801b0391828151168552826020820151166020860152826040820151166040860152826060820151166060860152015116910152565b9181601f84011215610382578235916001600160401b038311610382576020838186019501011161038257565b9060406003198301126103825760043591602435906001600160401b03821161038257614e4f91600401614df3565b9091565b9181601f84011215610382578235916001600160401b038311610382576020808501948460051b01011161038257565b6020908160408183019282815285518094520193019160005b828110614eaa575050505090565b835185529381019392810192600101614e9c565b80548210156129a85760005260206000200190600090565b6007546001600160a01b03163303614eea57565b60405163118cdaa760e01b8152336004820152602490fd5b906001600160a01b0390811680156105b857600091848352846020926002845260409383858720541695869133151580614ffc575b509060027fddf252ad1be2c89b69c2b068fc378daa952ba7f163c4a11628f55a4df523b3ef9284614fc9575b85835260038152888320805460010190558683525286812080546001600160a01b0319168517905580a483168203614f9b5750505050565b516364283d7b60e01b81526001600160a01b0392831660048201526024810193909352166044820152606490fd5b600087815260046020526040902080546001600160a01b0319169055848352600381528883208054600019019055614f63565b91939450915080615051575b1561501857879291869138614f37565b848887615035576024915190637e27328960e01b82526004820152fd5b604491519063177e802f60e01b82523360048301526024820152fd5b503386148015615076575b806150085750878252600481523384868420541614615008565b5085825260058152848220338352815260ff858320541661505c565b6000828152600260205260408120546001600160a01b03908116939284917fddf252ad1be2c89b69c2b068fc378daa952ba7f163c4a11628f55a4df523b3ef9183615119575b169283615101575b84815260026020526040812080546001600160a01b0319168517905580a490565b838152600360205260408120600181540190556150e0565b600086815260046020526040902080546001600160a01b031916905583855260036020526040852080546000190190556150d8565b6000818152600260205260409020546001600160a01b0316908115615171575090565b60249060405190637e27328960e01b82526004820152fd5b3d156151b4573d9061519a82614d0f565b916151a86040519384614baf565b82523d6000602084013e565b606090565b9293823b6151c9575b5050505050565b61520d9060018060a01b038094169560405194859481630a85bd0160e11b988988521660048701521660248501526044840152608060648401526084830190614c99565b03906020816000938185885af19082908261528d575b505061525b5782615232615189565b805191908261525457604051633250574960e11b815260048101839052602490fd5b6020915001fd5b6001600160e01b03191603615275575038808080806151c2565b60249060405190633250574960e11b82526004820152fd5b909192506020813d82116152d4575b816152a960209383614baf565b810103126152d05751906001600160e01b0319821682036152cd5750903880615223565b80fd5b5080fd5b3d915061529c565b60001981146152eb5760010190565b634e487b7160e01b600052601160045260246000fd5b90601f811161530f57505050565b600091825260208220906020601f850160051c8301941061534b575b601f0160051c01915b82811061534057505050565b818155600101615334565b909250829061532b565b90600581101561092c57815460ff60a01b191660a09190911b60ff60a01b16179055565b903590601e198136030182121561038257018035906001600160401b0382116103825760200191813603831361038257565b8054680100000000000000008110156113d2576153cd91600182018155614ebe565b819291549060031b91821b91600019901b1916179055565b908060209392818452848401376000828201840152601f01601f1916010190565b604091825161541481614b94565b60008082526001600160a01b0384811694919291908515615564576154398583615092565b1661554c573b61544a575050505050565b602061548791869795965180938192630a85bd0160e11b978884523360048501528760248501526044840152608060648401526084830190614c99565b038185895af190829082615504575b50506154cf575050506154a7615189565b80519290836154c8578151633250574960e11b815260048101849052602490fd5b6020849101fd5b9193916001600160e01b031916036154ed57505038808080806151c2565b602492505190633250574960e11b82526004820152fd5b909192506020813d8211615544575b8161552060209383614baf565b810103126152d05751906001600160e01b0319821682036152cd5750903880615496565b3d9150615513565b85516339e3563760e11b815260048101849052602490fd5b8651633250574960e11b815260048101859052602490fd5b9190916000908082526020916006835260408120908551906001600160401b03821161569a576155b6826155b08554614b09565b85615301565b8490601f831160011461561657907ff8e1a15aba9398e019f0b49df1a4fde98ee17ae345cb5f6b5e2c27f5033e8ce796978361560b575b50508160011b916000199060031b1c19161790555b604051908152a1565b0151905038806155ed565b9196601f198816848452868420935b81811061568357509160019391897ff8e1a15aba9398e019f0b49df1a4fde98ee17ae345cb5f6b5e2c27f5033e8ce7999a941061566a575b505050811b019055615602565b015160001960f88460031b161c1916905538808061565d565b929387600181928786015181550195019301615625565b634e487b7160e01b81526041600452602490fd5b60ff600954166156ba57565b60405163d93c066560e01b8152600490fd5b919082018092116152eb57565b6001600160401b0381116113d25760051b60200190565b91908110156129a85760051b0190565b908210156129a857614e4f9160051b810190615379565b919082039182116152eb57565b600260085414615735576002600855565b604051633ee5aeb560e01b8152600490fd5b6040519061575482614b79565b60006080838281528260208201528260408201528260608201520152565b6001600160801b038091169081146152eb5760010190565b6001600160801b03601b549116908110156157d257601a548110156157cc576019548110156157c65760185411156157c157600090565b600190565b50600290565b50600390565b50600490565b818102929181159184041417156152eb57565b906040516157f881614b79565b6080819360028154916001600160801b03928381168652841c602086015260018101548381166040870152841c6060860152015416910152565b1561583957565b60405162461bcd60e51b81526020600482015260076024820152664d61782031302560c81b6044820152606490fd5b801561590f57600081805b6158fb575061588181614d0f565b9061588f6040519283614baf565b808252601f1961589e82614d0f565b013660208401375b809280156158f45760001982019182116152eb578193600a9260309084840682018092116152eb57855111156129a85760f81b6001600160f81b03191660001a908401601f015304916158a6565b5050905090565b90615907600a916152dc565b910480615873565b50604051604081018181106001600160401b038211176113d25760405260018152600360fc1b60208201529056fee94ebda66cc86267dbc220471b245eb48bf72f9861949e412199792eb5e8aeb0a264697066735822122088063986bed7f196d782de8d1a41cdd04d46e56b05dd9d298f1700b9932f21e664736f6c63430008140033","opcodes":"PUSH1 0x80 CALLVALUE PUSH3 0x4A5 JUMPI PUSH3 0x5E8C SWAP1 PUSH1 0x1F NOT SWAP1 PUSH1 0x1F SWAP1 PUSH1 0x1 PUSH1 0x1 PUSH1 0x40 SHL SUB CODESIZE DUP6 SWAP1 SUB DUP4 DUP2 ADD DUP6 AND DUP4 ADD SWAP1 DUP3 DUP3 GT DUP5 DUP4 LT OR PUSH3 0x48F JUMPI DUP1 DUP5 SWAP2 PUSH1 0x40 SWAP9 DUP10 SWAP5 DUP6 MSTORE DUP4 CODECOPY DUP2 ADD SUB SLT PUSH3 0x4A5 JUMPI PUSH3 0x53 DUP3 PUSH3 0x4CA JUMP JUMPDEST SWAP3 PUSH3 0x63 PUSH1 0x20 DUP1 SWAP5 ADD PUSH3 0x4CA JUMP JUMPDEST PUSH3 0x6D PUSH3 0x4AA JUMP JUMPDEST SWAP5 PUSH1 0xB DUP7 MSTORE PUSH11 0x47656D426F7473204E4641 PUSH1 0xA8 SHL DUP6 DUP8 ADD MSTORE PUSH3 0x8F PUSH3 0x4AA JUMP JUMPDEST SWAP7 PUSH1 0x5 SWAP4 DUP5 DUP10 MSTORE PUSH5 0x47424E4641 PUSH1 0xD8 SHL DUP8 DUP11 ADD MSTORE DUP8 MLOAD SWAP9 DUP7 DUP11 GT PUSH3 0x48F JUMPI PUSH1 0x0 SWAP10 DUP11 SLOAD SWAP10 PUSH1 0x1 SWAP11 DUP12 DUP2 DUP2 SHR SWAP2 AND DUP1 ISZERO PUSH3 0x484 JUMPI JUMPDEST DUP12 DUP3 LT EQ PUSH3 0x470 JUMPI SWAP1 DUP13 DUP12 DUP4 DUP8 DUP1 DUP8 SWAP7 GT PUSH3 0x435 JUMPI JUMPDEST POP POP POP POP DUP11 SWAP1 DUP14 DUP7 DUP5 GT PUSH1 0x1 EQ PUSH3 0x3CA JUMPI SWAP3 PUSH3 0x3BE JUMPI JUMPDEST POP POP PUSH1 0x0 NOT PUSH1 0x3 DUP4 SWAP1 SHL SHR NOT AND SWAP1 DUP11 SHL OR DUP11 SSTORE JUMPDEST DUP1 MLOAD SWAP3 DUP8 DUP5 GT PUSH3 0x3AA JUMPI DUP10 SLOAD DUP11 DUP2 DUP2 SHR SWAP2 AND DUP1 ISZERO PUSH3 0x39F JUMPI JUMPDEST DUP11 DUP3 LT EQ PUSH3 0x38B JUMPI SWAP1 DUP12 DUP11 DUP4 DUP7 DUP15 DUP2 DUP11 SWAP10 SWAP9 SWAP8 GT PUSH3 0x350 JUMPI JUMPDEST POP POP POP POP POP DUP10 SWAP3 DUP5 GT PUSH1 0x1 EQ PUSH3 0x2EF JUMPI POP DUP11 SWAP3 PUSH3 0x2E3 JUMPI JUMPDEST POP POP PUSH1 0x0 NOT PUSH1 0x3 DUP4 SWAP1 SHL SHR NOT AND SWAP1 DUP8 SHL OR DUP7 SSTORE JUMPDEST CALLER ISZERO PUSH3 0x2CB JUMPI PUSH1 0x7 DUP1 SLOAD PUSH1 0x1 PUSH1 0x1 PUSH1 0xA0 SHL SUB NOT DUP1 DUP3 AND CALLER SWAP1 DUP2 OR SWAP1 SWAP4 SSTORE SWAP6 PUSH1 0x1 PUSH1 0x1 PUSH1 0xA0 SHL SUB SWAP6 SWAP3 SWAP1 SWAP2 DUP7 AND PUSH32 0x8BE0079C531659141344CD1FD0A4F28419497F9722A3DAAFE3B4186F6B6457E0 DUP12 DUP1 LOG3 DUP8 PUSH1 0x8 SSTORE PUSH2 0x1F4 PUSH1 0xF SSTORE PUSH1 0xFA PUSH1 0x10 SSTORE DUP10 MLOAD SWAP1 PUSH1 0xA0 DUP3 ADD SWAP1 DUP3 DUP3 LT SWAP1 DUP3 GT OR PUSH3 0x2B7 JUMPI DUP11 MSTORE DUP9 DUP2 MSTORE PUSH1 0xA DUP8 DUP3 ADD MSTORE PUSH1 0x32 DUP11 DUP3 ADD MSTORE PUSH1 0x64 PUSH1 0x60 DUP3 ADD MSTORE PUSH1 0xFA PUSH1 0x80 DUP3 ADD MSTORE DUP5 SWAP3 SWAP2 SWAP1 DUP9 DUP11 JUMPDEST DUP4 DUP2 LT PUSH3 0x29D JUMPI POP POP POP POP PUSH1 0xA PUSH1 0x1C SSTORE AND DUP1 ISZERO DUP1 ISZERO PUSH3 0x292 JUMPI JUMPDEST PUSH3 0x281 JUMPI SWAP3 PUSH1 0xB SWAP3 PUSH8 0x16345785D8A0000 SWAP8 SWAP6 SWAP3 DUP10 SWAP8 SWAP6 DUP4 PUSH1 0xD SLOAD AND OR PUSH1 0xD SSTORE AND SWAP1 PUSH1 0xE SLOAD AND OR PUSH1 0xE SSTORE DUP4 DUP1 MSTORE MSTORE PUSH7 0x2386F26FC10000 DUP4 DUP4 KECCAK256 SSTORE DUP2 MSTORE PUSH7 0x6A94D74F430000 DUP3 DUP3 KECCAK256 SSTORE PUSH1 0x2 DUP2 MSTORE KECCAK256 SSTORE MLOAD PUSH2 0x5993 SWAP1 DUP2 PUSH3 0x4F9 DUP3 CODECOPY RETURN JUMPDEST DUP8 MLOAD PUSH4 0xD92E233D PUSH1 0xE0 SHL DUP2 MSTORE PUSH1 0x4 SWAP1 REVERT JUMPDEST POP DUP3 DUP3 AND ISZERO PUSH3 0x224 JUMP JUMPDEST DUP3 MLOAD PUSH1 0xFF AND PUSH1 0x17 DUP3 ADD SSTORE DUP8 SWAP6 POP SWAP2 DUP10 ADD SWAP2 DUP11 SWAP2 ADD PUSH3 0x208 JUMP JUMPDEST PUSH4 0x4E487B71 PUSH1 0xE0 SHL DUP11 MSTORE PUSH1 0x41 PUSH1 0x4 MSTORE PUSH1 0x24 DUP11 REVERT JUMPDEST DUP8 MLOAD PUSH4 0x1E4FBDF7 PUSH1 0xE0 SHL DUP2 MSTORE PUSH1 0x4 DUP2 ADD DUP9 SWAP1 MSTORE PUSH1 0x24 SWAP1 REVERT JUMPDEST ADD MLOAD SWAP1 POP CODESIZE DUP1 PUSH3 0x15A JUMP JUMPDEST DUP11 DUP13 MSTORE DUP10 DUP13 KECCAK256 DUP12 SWAP6 SWAP1 SWAP4 SWAP3 SWAP2 AND DUP13 JUMPDEST DUP12 DUP3 DUP3 LT PUSH3 0x339 JUMPI POP POP DUP5 GT PUSH3 0x31F JUMPI JUMPDEST POP POP POP DUP2 SHL ADD DUP7 SSTORE PUSH3 0x16E JUMP JUMPDEST ADD MLOAD PUSH1 0x0 NOT PUSH1 0xF8 DUP5 PUSH1 0x3 SHL AND SHR NOT AND SWAP1 SSTORE CODESIZE DUP1 DUP1 PUSH3 0x311 JUMP JUMPDEST DUP4 DUP6 ADD MLOAD DUP7 SSTORE DUP14 SWAP8 SWAP1 SWAP6 ADD SWAP5 SWAP4 DUP5 ADD SWAP4 ADD PUSH3 0x2FE JUMP JUMPDEST DUP5 DUP5 SWAP2 PUSH3 0x376 SWAP7 MSTORE KECCAK256 SWAP2 DUP2 DUP10 ADD DUP14 SHR DUP4 ADD SWAP4 DUP10 LT PUSH3 0x381 JUMPI JUMPDEST ADD DUP12 SHR ADD SWAP1 PUSH3 0x4DF JUMP JUMPDEST DUP12 DUP11 CODESIZE DUP6 DUP15 PUSH3 0x140 JUMP JUMPDEST SWAP3 POP DUP2 SWAP3 PUSH3 0x36B JUMP JUMPDEST PUSH4 0x4E487B71 PUSH1 0xE0 SHL DUP13 MSTORE PUSH1 0x22 PUSH1 0x4 MSTORE PUSH1 0x24 DUP13 REVERT JUMPDEST SWAP1 PUSH1 0x7F AND SWAP1 PUSH3 0x125 JUMP JUMPDEST PUSH4 0x4E487B71 PUSH1 0xE0 SHL DUP12 MSTORE PUSH1 0x41 PUSH1 0x4 MSTORE PUSH1 0x24 DUP12 REVERT JUMPDEST ADD MLOAD SWAP1 POP CODESIZE DUP1 PUSH3 0xF6 JUMP JUMPDEST SWAP2 SWAP1 DUP8 DUP15 SWAP6 AND DUP4 DUP1 MSTORE DUP14 DUP1 DUP6 KECCAK256 SWAP5 SWAP1 JUMPDEST DUP3 DUP3 LT PUSH3 0x414 JUMPI POP POP DUP5 GT PUSH3 0x3FA JUMPI JUMPDEST POP POP POP DUP2 SHL ADD DUP11 SSTORE PUSH3 0x10A JUMP JUMPDEST ADD MLOAD PUSH1 0x0 NOT PUSH1 0xF8 DUP5 PUSH1 0x3 SHL AND SHR NOT AND SWAP1 SSTORE CODESIZE DUP1 DUP1 PUSH3 0x3EC JUMP JUMPDEST SWAP2 SWAP3 SWAP4 SWAP6 SWAP7 DUP3 SWAP2 SWAP6 DUP8 DUP7 ADD MLOAD DUP2 SSTORE ADD SWAP6 ADD SWAP4 ADD SWAP1 DUP15 SWAP6 SWAP5 SWAP4 SWAP3 SWAP2 DUP15 PUSH3 0x3DA JUMP JUMPDEST DUP3 DUP5 DUP1 PUSH3 0x45C SWAP7 MSTORE KECCAK256 SWAP2 DUP14 DUP3 DUP9 ADD SWAP1 SHR DUP4 ADD SWAP4 DUP8 LT PUSH3 0x466 JUMPI JUMPDEST ADD DUP13 SHR ADD SWAP1 PUSH3 0x4DF JUMP JUMPDEST DUP13 DUP12 CODESIZE DUP8 PUSH3 0xDD JUMP JUMPDEST SWAP3 POP DUP2 SWAP3 PUSH3 0x451 JUMP JUMPDEST PUSH4 0x4E487B71 PUSH1 0xE0 SHL DUP14 MSTORE PUSH1 0x22 PUSH1 0x4 MSTORE PUSH1 0x24 DUP14 REVERT JUMPDEST SWAP1 PUSH1 0x7F AND SWAP1 PUSH3 0xC5 JUMP JUMPDEST PUSH4 0x4E487B71 PUSH1 0xE0 SHL PUSH1 0x0 MSTORE PUSH1 0x41 PUSH1 0x4 MSTORE PUSH1 0x24 PUSH1 0x0 REVERT JUMPDEST PUSH1 0x0 DUP1 REVERT JUMPDEST PUSH1 0x40 DUP1 MLOAD SWAP2 SWAP1 DUP3 ADD PUSH1 0x1 PUSH1 0x1 PUSH1 0x40 SHL SUB DUP2 GT DUP4 DUP3 LT OR PUSH3 0x48F JUMPI PUSH1 0x40 MSTORE JUMP JUMPDEST MLOAD SWAP1 PUSH1 0x1 PUSH1 0x1 PUSH1 0xA0 SHL SUB DUP3 AND DUP3 SUB PUSH3 0x4A5 JUMPI JUMP JUMPDEST DUP2 DUP2 LT PUSH3 0x4EB JUMPI POP POP JUMP JUMPDEST PUSH1 0x0 DUP2 SSTORE PUSH1 0x1 ADD PUSH3 0x4DF JUMP INVALID PUSH2 0x220 DUP1 PUSH1 0x40 MSTORE PUSH1 0x4 CALLDATASIZE LT ISZERO PUSH2 0x1E JUMPI JUMPDEST POP CALLDATASIZE ISZERO PUSH2 0x1C JUMPI PUSH1 0x0 DUP1 REVERT JUMPDEST STOP JUMPDEST PUSH1 0x0 CALLDATALOAD PUSH1 0xE0 SHR SWAP1 DUP2 PUSH4 0x1FFC9A7 EQ PUSH2 0x4A52 JUMPI POP DUP1 PUSH4 0x3A9EBF4 EQ PUSH2 0x4A23 JUMPI DUP1 PUSH4 0x6C8C525 EQ PUSH2 0x49F7 JUMPI DUP1 PUSH4 0x6FDDE03 EQ PUSH2 0x4954 JUMPI DUP1 PUSH4 0x81812FC EQ PUSH2 0x4916 JUMPI DUP1 PUSH4 0x95EA7B3 EQ PUSH2 0x482F JUMPI DUP1 PUSH4 0xCCBA3E9 EQ PUSH2 0x47F6 JUMPI DUP1 PUSH4 0xF96FD79 EQ PUSH2 0x479B JUMPI DUP1 PUSH4 0x107A274A EQ PUSH2 0x4711 JUMPI DUP1 PUSH4 0x13966DB5 EQ PUSH2 0x46CB JUMPI DUP1 PUSH4 0x175485ED EQ PUSH2 0x46AD JUMPI DUP1 PUSH4 0x18160DDD EQ PUSH2 0x468F JUMPI DUP1 PUSH4 0x18841CCD EQ PUSH2 0x387 JUMPI DUP1 PUSH4 0x1AF41D4D EQ PUSH2 0x40C7 JUMPI DUP1 PUSH4 0x22DCD13E EQ PUSH2 0x40A9 JUMPI DUP1 PUSH4 0x23B872DD EQ PUSH2 0x4092 JUMPI DUP1 PUSH4 0x2787A4C6 EQ PUSH2 0x4019 JUMPI DUP1 PUSH4 0x28778030 EQ PUSH2 0x3FF8 JUMPI DUP1 PUSH4 0x2F6F343A EQ PUSH2 0x3FA8 JUMPI DUP1 PUSH4 0x305A67A8 EQ PUSH2 0x3F0B JUMPI DUP1 PUSH4 0x3F4BA83A EQ PUSH2 0x3EA1 JUMPI DUP1 PUSH4 0x42842E0E EQ PUSH2 0x3E73 JUMPI DUP1 PUSH4 0x44C9AF28 EQ PUSH2 0x3DAE JUMPI DUP1 PUSH4 0x4590AE21 EQ PUSH2 0x3CE6 JUMPI DUP1 PUSH4 0x476343EE EQ PUSH2 0x3C9D JUMPI DUP1 PUSH4 0x48D34DC3 EQ PUSH2 0x3C43 JUMPI DUP1 PUSH4 0x4C433802 EQ PUSH2 0x32FC JUMPI DUP1 PUSH4 0x55150C16 EQ PUSH2 0x319B JUMPI DUP1 PUSH4 0x57302CD4 EQ PUSH2 0x3172 JUMPI DUP1 PUSH4 0x59295330 EQ PUSH2 0x3024 JUMPI DUP1 PUSH4 0x5C975ABB EQ PUSH2 0x3001 JUMPI DUP1 PUSH4 0x61D027B3 EQ PUSH2 0x2FD8 JUMPI DUP1 PUSH4 0x6352211E EQ PUSH2 0x2FA8 JUMPI DUP1 PUSH4 0x64CB04AC EQ PUSH2 0x2DE7 JUMPI DUP1 PUSH4 0x675B22AE EQ PUSH2 0x2242 JUMPI DUP1 PUSH4 0x676FC6DC EQ PUSH2 0x21A8 JUMPI DUP1 PUSH4 0x6963ACA8 EQ PUSH2 0x209C JUMPI DUP1 PUSH4 0x6AC18987 EQ PUSH2 0x1FFF JUMPI DUP1 PUSH4 0x6BA9FD38 EQ PUSH2 0x1FDC JUMPI DUP1 PUSH4 0x70A08231 EQ PUSH2 0x1F83 JUMPI DUP1 PUSH4 0x715018A6 EQ PUSH2 0x1F26 JUMPI DUP1 PUSH4 0x7A828B28 EQ PUSH2 0x1DEA JUMPI DUP1 PUSH4 0x7AB1D4EF EQ PUSH2 0x1D53 JUMPI DUP1 PUSH4 0x80866D83 EQ PUSH2 0x1D0C JUMPI DUP1 PUSH4 0x8456CB59 EQ PUSH2 0x1CB2 JUMPI DUP1 PUSH4 0x8A45664E EQ PUSH2 0x1C58 JUMPI DUP1 PUSH4 0x8DA5CB5B EQ PUSH2 0x1C2F JUMPI DUP1 PUSH4 0x925D886B EQ PUSH2 0x1C13 JUMPI DUP1 PUSH4 0x95D89B41 EQ PUSH2 0x1B34 JUMPI DUP1 PUSH4 0xA100D69D EQ PUSH2 0x1B08 JUMPI DUP1 PUSH4 0xA22CB465 EQ PUSH2 0x1A5D JUMPI DUP1 PUSH4 0xB88D4FDE EQ PUSH2 0x19F2 JUMPI DUP1 PUSH4 0xC580C942 EQ PUSH2 0x19C3 JUMPI DUP1 PUSH4 0xC87B56DD EQ PUSH2 0x196A JUMPI DUP1 PUSH4 0xCA21866A EQ PUSH2 0x182A JUMPI DUP1 PUSH4 0xCF456AE7 EQ PUSH2 0x17D7 JUMPI DUP1 PUSH4 0xCFC0CC34 EQ PUSH2 0x1762 JUMPI DUP1 PUSH4 0xD0AC9208 EQ PUSH2 0xE04 JUMPI DUP1 PUSH4 0xD0D7D9C5 EQ PUSH2 0xDBC JUMPI DUP1 PUSH4 0xDE74E57B EQ PUSH2 0xD6F JUMPI DUP1 PUSH4 0xE80D7FEC EQ PUSH2 0xC3A JUMPI DUP1 PUSH4 0xE96C6617 EQ PUSH2 0xC1C JUMPI DUP1 PUSH4 0xE985E9C5 EQ PUSH2 0xBC6 JUMPI DUP1 PUSH4 0xEF03C6DB EQ PUSH2 0xB03 JUMPI DUP1 PUSH4 0xF09D7441 EQ PUSH2 0x9AE JUMPI DUP1 PUSH4 0xF0F44260 EQ PUSH2 0x954 JUMPI DUP1 PUSH4 0xF119F567 EQ PUSH2 0x7F8 JUMPI DUP1 PUSH4 0xF22F96AF EQ PUSH2 0x77E JUMPI DUP1 PUSH4 0xF2FDE38B EQ PUSH2 0x6F5 JUMPI DUP1 PUSH4 0xF46ECCC4 EQ PUSH2 0x6B6 JUMPI DUP1 PUSH4 0xF5BEFA9B EQ PUSH2 0x682 JUMPI DUP1 PUSH4 0xF94AB2EC EQ PUSH2 0x60E JUMPI DUP1 PUSH4 0xFA3EC78D EQ PUSH2 0x3B8 JUMPI DUP1 PUSH4 0xFF79D907 EQ PUSH2 0x387 JUMPI PUSH4 0xFFFAD312 EQ PUSH2 0x364 JUMPI CODESIZE PUSH2 0x10 JUMP JUMPDEST CALLVALUE PUSH2 0x382 JUMPI PUSH1 0x0 CALLDATASIZE PUSH1 0x3 NOT ADD SLT PUSH2 0x382 JUMPI PUSH1 0x20 PUSH1 0xC SLOAD PUSH1 0x40 MLOAD SWAP1 DUP2 MSTORE RETURN JUMPDEST PUSH1 0x0 DUP1 REVERT JUMPDEST CALLVALUE PUSH2 0x382 JUMPI PUSH1 0x20 CALLDATASIZE PUSH1 0x3 NOT ADD SLT PUSH2 0x382 JUMPI PUSH1 0x4 CALLDATALOAD PUSH1 0x5 DUP2 LT ISZERO PUSH2 0x382 JUMPI PUSH2 0x3AF PUSH1 0x20 SWAP2 PUSH2 0x4AF0 JUMP JUMPDEST SLOAD PUSH1 0x40 MLOAD SWAP1 DUP2 MSTORE RETURN JUMPDEST PUSH1 0x20 CALLDATASIZE PUSH1 0x3 NOT ADD SLT PUSH2 0x382 JUMPI PUSH1 0x4 CALLDATALOAD PUSH2 0x3CF PUSH2 0x5724 JUMP JUMPDEST PUSH2 0x3D7 PUSH2 0x56AE JUMP JUMPDEST DUP1 PUSH1 0x0 MSTORE PUSH1 0x14 PUSH1 0x20 MSTORE PUSH1 0x40 PUSH1 0x0 KECCAK256 PUSH1 0x1 DUP2 ADD DUP1 SLOAD PUSH1 0xFF DUP2 PUSH1 0xA0 SHR AND ISZERO PUSH2 0x5FC JUMPI DUP3 SLOAD SWAP2 DUP3 CALLVALUE LT PUSH2 0x5EA JUMPI PUSH1 0x1 DUP1 PUSH1 0xA0 SHL SUB SWAP2 PUSH1 0x0 DUP4 DUP3 AND SWAP6 SSTORE PUSH11 0xFFFFFFFFFFFFFFFFFFFFFF PUSH1 0xA8 SHL AND SWAP1 SSTORE PUSH2 0x2710 DUP1 PUSH2 0x432 PUSH1 0xF SLOAD DUP6 PUSH2 0x57D8 JUMP JUMPDEST DIV SWAP1 PUSH2 0x440 PUSH1 0x10 SLOAD DUP6 PUSH2 0x57D8 JUMP JUMPDEST DIV SWAP1 DUP6 PUSH1 0x0 MSTORE PUSH1 0x13 PUSH1 0x20 MSTORE DUP3 PUSH1 0xB PUSH1 0x40 PUSH1 0x0 KECCAK256 ADD SLOAD AND SWAP1 DUP6 DUP3 EQ SWAP1 DUP2 PUSH1 0x0 EQ PUSH2 0x5D1 JUMPI PUSH2 0x46D DUP2 DUP8 PUSH2 0x5717 JUMP JUMPDEST SWAP5 JUMPDEST CALLER ISZERO PUSH2 0x5B8 JUMPI PUSH2 0x47F DUP10 CALLER PUSH2 0x5092 JUMP JUMPDEST DUP1 DUP3 AND DUP1 PUSH2 0x4A0 JUMPI PUSH1 0x40 MLOAD PUSH4 0x7E273289 PUSH1 0xE0 SHL DUP2 MSTORE PUSH1 0x4 DUP2 ADD DUP13 SWAP1 MSTORE PUSH1 0x24 SWAP1 REVERT JUMPDEST DUP10 SUB PUSH2 0x586 JUMPI POP PUSH1 0x0 DUP1 DUP1 SWAP4 DUP2 SWAP4 PUSH1 0xD SLOAD AND GAS CALL PUSH2 0x4BC PUSH2 0x5189 JUMP JUMPDEST POP ISZERO PUSH2 0x54D JUMPI ISZERO DUP1 PUSH2 0x57D JUMPI JUMPDEST PUSH2 0x55F JUMPI JUMPDEST POP POP PUSH1 0x0 DUP1 DUP1 DUP1 SWAP4 DUP7 GAS CALL PUSH2 0x4E1 PUSH2 0x5189 JUMP JUMPDEST POP ISZERO PUSH2 0x54D JUMPI DUP1 CALLVALUE GT PUSH2 0x52D JUMPI JUMPDEST PUSH32 0x23F50D55776D8003622A982ADE45A6C7F083116C8DBBCD980F59942F440BADB1 SWAP2 PUSH1 0x60 SWAP2 PUSH1 0x40 MLOAD SWAP2 DUP3 MSTORE CALLER PUSH1 0x20 DUP4 ADD MSTORE PUSH1 0x40 DUP3 ADD MSTORE LOG2 PUSH1 0x1 PUSH1 0x8 SSTORE STOP JUMPDEST PUSH1 0x0 DUP1 DUP1 DUP1 PUSH2 0x53C DUP6 CALLVALUE PUSH2 0x5717 JUMP JUMPDEST CALLER GAS CALL PUSH2 0x547 PUSH2 0x5189 JUMP JUMPDEST POP PUSH2 0x4EF JUMPI JUMPDEST PUSH1 0x40 MLOAD PUSH4 0x12171D83 PUSH1 0xE3 SHL DUP2 MSTORE PUSH1 0x4 SWAP1 REVERT JUMPDEST PUSH1 0x0 DUP1 DUP1 SWAP4 DUP2 SWAP4 GAS CALL PUSH2 0x570 PUSH2 0x5189 JUMP JUMPDEST POP ISZERO PUSH2 0x54D JUMPI DUP5 DUP1 PUSH2 0x4CE JUMP JUMPDEST POP DUP2 ISZERO ISZERO PUSH2 0x4C9 JUMP JUMPDEST PUSH1 0x40 MLOAD PUSH4 0x64283D7B PUSH1 0xE0 SHL DUP2 MSTORE PUSH1 0x1 PUSH1 0x1 PUSH1 0xA0 SHL SUB DUP11 DUP2 AND PUSH1 0x4 DUP4 ADD MSTORE PUSH1 0x24 DUP3 ADD DUP13 SWAP1 MSTORE SWAP2 SWAP1 SWAP2 AND PUSH1 0x44 DUP3 ADD MSTORE PUSH1 0x64 SWAP1 REVERT JUMPDEST PUSH1 0x40 MLOAD PUSH4 0x32505749 PUSH1 0xE1 SHL DUP2 MSTORE PUSH1 0x0 PUSH1 0x4 DUP3 ADD MSTORE PUSH1 0x24 SWAP1 REVERT JUMPDEST PUSH2 0x5E4 DUP5 PUSH2 0x5DF DUP4 DUP10 PUSH2 0x5717 JUMP JUMPDEST PUSH2 0x5717 JUMP JUMPDEST SWAP5 PUSH2 0x46F JUMP JUMPDEST PUSH1 0x40 MLOAD PUSH4 0xCD1C8867 PUSH1 0xE0 SHL DUP2 MSTORE PUSH1 0x4 SWAP1 REVERT JUMPDEST PUSH1 0x40 MLOAD PUSH4 0xF971CBD PUSH1 0xE4 SHL DUP2 MSTORE PUSH1 0x4 SWAP1 REVERT JUMPDEST CALLVALUE PUSH2 0x382 JUMPI PUSH1 0x20 CALLDATASIZE PUSH1 0x3 NOT ADD SLT PUSH2 0x382 JUMPI PUSH1 0x4 CALLDATALOAD PUSH2 0x62B DUP2 PUSH2 0x514E JUMP JUMPDEST POP PUSH1 0x0 MSTORE PUSH1 0x13 PUSH1 0x20 MSTORE PUSH1 0xA0 PUSH1 0x40 PUSH1 0x0 KECCAK256 PUSH1 0x12 DUP2 ADD SLOAD SWAP1 PUSH1 0x13 DUP2 ADD SLOAD SWAP1 PUSH1 0x15 PUSH1 0x14 DUP3 ADD SLOAD SWAP2 ADD SLOAD SWAP2 PUSH1 0x40 MLOAD SWAP4 PUSH1 0xFF DUP2 PUSH1 0x8 SHR AND ISZERO ISZERO DUP6 MSTORE PUSH1 0x1 DUP1 DUP8 SHL SUB SWAP1 PUSH1 0x10 SHR AND PUSH1 0x20 DUP6 ADD MSTORE PUSH1 0x40 DUP5 ADD MSTORE PUSH1 0x60 DUP4 ADD MSTORE PUSH1 0x80 DUP3 ADD MSTORE RETURN JUMPDEST CALLVALUE PUSH2 0x382 JUMPI PUSH1 0x40 CALLDATASIZE PUSH1 0x3 NOT ADD SLT PUSH2 0x382 JUMPI PUSH1 0x4 CALLDATALOAD PUSH1 0x5 DUP2 LT ISZERO PUSH2 0x382 JUMPI PUSH2 0x6A7 PUSH2 0x4ED6 JUMP JUMPDEST PUSH2 0x6B3 PUSH1 0x24 CALLDATALOAD SWAP2 PUSH2 0x4AF0 JUMP JUMPDEST SSTORE STOP JUMPDEST CALLVALUE PUSH2 0x382 JUMPI PUSH1 0x20 CALLDATASIZE PUSH1 0x3 NOT ADD SLT PUSH2 0x382 JUMPI PUSH1 0x1 PUSH1 0x1 PUSH1 0xA0 SHL SUB PUSH2 0x6D7 PUSH2 0x4CBE JUMP JUMPDEST AND PUSH1 0x0 MSTORE PUSH1 0x12 PUSH1 0x20 MSTORE PUSH1 0x20 PUSH1 0xFF PUSH1 0x40 PUSH1 0x0 KECCAK256 SLOAD AND PUSH1 0x40 MLOAD SWAP1 ISZERO ISZERO DUP2 MSTORE RETURN JUMPDEST CALLVALUE PUSH2 0x382 JUMPI PUSH1 0x20 CALLDATASIZE PUSH1 0x3 NOT ADD SLT PUSH2 0x382 JUMPI PUSH2 0x70E PUSH2 0x4CBE JUMP JUMPDEST PUSH2 0x716 PUSH2 0x4ED6 JUMP JUMPDEST PUSH1 0x1 PUSH1 0x1 PUSH1 0xA0 SHL SUB SWAP1 DUP2 AND SWAP1 DUP2 ISZERO PUSH2 0x765 JUMPI PUSH1 0x7 SLOAD DUP3 PUSH1 0x1 PUSH1 0x1 PUSH1 0x60 SHL SUB PUSH1 0xA0 SHL DUP3 AND OR PUSH1 0x7 SSTORE AND PUSH32 0x8BE0079C531659141344CD1FD0A4F28419497F9722A3DAAFE3B4186F6B6457E0 PUSH1 0x0 DUP1 LOG3 STOP JUMPDEST PUSH1 0x40 MLOAD PUSH4 0x1E4FBDF7 PUSH1 0xE0 SHL DUP2 MSTORE PUSH1 0x0 PUSH1 0x4 DUP3 ADD MSTORE PUSH1 0x24 SWAP1 REVERT JUMPDEST CALLVALUE PUSH2 0x382 JUMPI PUSH1 0x20 DUP1 PUSH1 0x3 NOT CALLDATASIZE ADD SLT PUSH2 0x382 JUMPI PUSH1 0x4 CALLDATALOAD PUSH1 0x0 MSTORE PUSH1 0x15 DUP2 MSTORE PUSH1 0x40 PUSH1 0x0 KECCAK256 SWAP1 PUSH1 0x40 MLOAD SWAP1 DUP2 DUP2 DUP5 SLOAD SWAP2 DUP3 DUP2 MSTORE ADD SWAP4 PUSH1 0x0 MSTORE DUP2 PUSH1 0x0 KECCAK256 SWAP2 PUSH1 0x0 SWAP1 JUMPDEST DUP3 DUP3 LT PUSH2 0x7E1 JUMPI PUSH2 0x7DD DUP6 PUSH2 0x7D1 DUP2 DUP10 SUB DUP3 PUSH2 0x4BAF JUMP JUMPDEST PUSH1 0x40 MLOAD SWAP2 DUP3 SWAP2 DUP3 PUSH2 0x4E83 JUMP JUMPDEST SUB SWAP1 RETURN JUMPDEST DUP4 SLOAD DUP7 MSTORE SWAP5 DUP6 ADD SWAP5 PUSH1 0x1 SWAP4 DUP5 ADD SWAP4 SWAP1 SWAP2 ADD SWAP1 PUSH2 0x7BA JUMP JUMPDEST CALLVALUE PUSH2 0x382 JUMPI PUSH1 0x20 DUP1 PUSH1 0x3 NOT CALLDATASIZE ADD SLT PUSH2 0x382 JUMPI PUSH1 0x4 CALLDATALOAD SWAP1 PUSH2 0x816 PUSH2 0x56AE JUMP JUMPDEST PUSH2 0x81F DUP3 PUSH2 0x514E JUMP JUMPDEST POP DUP2 PUSH1 0x0 MSTORE PUSH1 0x13 DUP2 MSTORE PUSH1 0x40 PUSH1 0x0 KECCAK256 SWAP1 PUSH1 0xB DUP3 ADD SWAP2 PUSH1 0xFF DUP4 SLOAD PUSH1 0xA0 SHR AND SWAP1 PUSH1 0x5 DUP3 LT ISZERO PUSH2 0x92C JUMPI PUSH1 0x4 DUP3 EQ PUSH2 0x942 JUMPI PUSH1 0x1 PUSH1 0x1 PUSH1 0x80 SHL SUB PUSH1 0xC PUSH2 0x863 SWAP3 ADD SLOAD AND PUSH2 0x578A JUMP JUMPDEST SWAP1 PUSH1 0x5 DUP3 LT ISZERO PUSH2 0x92C JUMPI DUP2 GT ISZERO PUSH2 0x91A JUMPI PUSH2 0x89F DUP2 PUSH32 0xA10B529CCA5BC10C80DF76C1E97548758A642268270584AE612A37EB0A390C5F SWAP5 PUSH2 0x5355 JUMP JUMPDEST PUSH2 0x8B0 PUSH2 0x8AB DUP3 PUSH2 0x4AD7 JUMP JUMPDEST PUSH2 0x4BD0 JUMP JUMPDEST DUP1 MLOAD PUSH2 0x8C4 JUMPI JUMPDEST POP PUSH1 0xFF PUSH1 0x40 MLOAD SWAP2 AND DUP2 MSTORE LOG2 STOP JUMPDEST PUSH2 0x914 SWAP1 PUSH2 0x90E DUP5 PUSH2 0x8D5 DUP9 PUSH2 0x5868 JUMP JUMPDEST SWAP3 PUSH1 0x40 MLOAD SWAP4 DUP2 PUSH2 0x8EE DUP7 SWAP4 MLOAD DUP1 SWAP3 DUP7 DUP1 DUP8 ADD SWAP2 ADD PUSH2 0x4C76 JUMP JUMPDEST DUP3 ADD PUSH2 0x902 DUP3 MLOAD DUP1 SWAP4 DUP7 DUP1 DUP6 ADD SWAP2 ADD PUSH2 0x4C76 JUMP JUMPDEST ADD SUB DUP1 DUP5 MSTORE ADD DUP3 PUSH2 0x4BAF JUMP JUMPDEST DUP6 PUSH2 0x557C JUMP JUMPDEST DUP5 PUSH2 0x8B7 JUMP JUMPDEST PUSH1 0x40 MLOAD PUSH4 0x61C0B9E9 PUSH1 0xE1 SHL DUP2 MSTORE PUSH1 0x4 SWAP1 REVERT JUMPDEST PUSH4 0x4E487B71 PUSH1 0xE0 SHL PUSH1 0x0 MSTORE PUSH1 0x21 PUSH1 0x4 MSTORE PUSH1 0x24 PUSH1 0x0 REVERT JUMPDEST PUSH1 0x40 MLOAD PUSH4 0x2726A67F PUSH1 0xE1 SHL DUP2 MSTORE PUSH1 0x4 SWAP1 REVERT JUMPDEST CALLVALUE PUSH2 0x382 JUMPI PUSH1 0x20 CALLDATASIZE PUSH1 0x3 NOT ADD SLT PUSH2 0x382 JUMPI PUSH2 0x96D PUSH2 0x4CBE JUMP JUMPDEST PUSH2 0x975 PUSH2 0x4ED6 JUMP JUMPDEST PUSH1 0x1 PUSH1 0x1 PUSH1 0xA0 SHL SUB AND DUP1 ISZERO PUSH2 0x99C JUMPI PUSH1 0x1 PUSH1 0x1 PUSH1 0x60 SHL SUB PUSH1 0xA0 SHL PUSH1 0xD SLOAD AND OR PUSH1 0xD SSTORE PUSH1 0x0 DUP1 RETURN JUMPDEST PUSH1 0x40 MLOAD PUSH4 0xD92E233D PUSH1 0xE0 SHL DUP2 MSTORE PUSH1 0x4 SWAP1 REVERT JUMPDEST CALLVALUE PUSH2 0x382 JUMPI PUSH1 0x40 CALLDATASIZE PUSH1 0x3 NOT ADD SLT PUSH2 0x382 JUMPI PUSH1 0x4 CALLDATALOAD PUSH1 0x24 CALLDATALOAD DUP2 PUSH1 0x0 MSTORE PUSH1 0x13 PUSH1 0x20 MSTORE PUSH1 0xFF PUSH1 0x1 PUSH1 0x40 PUSH1 0x0 KECCAK256 ADD SLOAD AND PUSH1 0x3 DUP2 LT ISZERO PUSH2 0x92C JUMPI PUSH1 0x2 EQ PUSH2 0xAF1 JUMPI DUP2 PUSH1 0x0 MSTORE PUSH1 0x13 PUSH1 0x20 MSTORE PUSH1 0x40 PUSH1 0x0 KECCAK256 SWAP1 PUSH1 0x12 DUP3 ADD SLOAD PUSH1 0xFF DUP2 PUSH1 0x8 SHR AND ISZERO PUSH2 0xADF JUMPI PUSH1 0x1 PUSH1 0x1 PUSH1 0xA0 SHL SUB DUP1 PUSH2 0xA1C DUP7 PUSH2 0x514E JUMP JUMPDEST AND CALLER EQ SWAP2 DUP3 ISZERO PUSH2 0xACF JUMPI JUMPDEST POP POP ISZERO PUSH2 0xA80 JUMPI DUP2 PUSH1 0x40 SWAP2 PUSH1 0x13 PUSH32 0x66A420B2417E1183CD2D446F9D062281E74E2D2B3FB74DED512C39DC02E5247E SWAP5 ADD SWAP2 DUP2 DUP4 SLOAD SWAP4 SSTORE PUSH1 0x14 DUP2 ADD PUSH2 0xA6B DUP2 SLOAD PUSH2 0x52DC JUMP JUMPDEST SWAP1 SSTORE PUSH1 0x15 TIMESTAMP SWAP2 ADD SSTORE DUP3 MLOAD SWAP2 DUP3 MSTORE PUSH1 0x20 DUP3 ADD MSTORE LOG2 STOP JUMPDEST PUSH1 0x40 MLOAD PUSH3 0x461BCD PUSH1 0xE5 SHL DUP2 MSTORE PUSH1 0x20 PUSH1 0x4 DUP3 ADD MSTORE PUSH1 0x21 PUSH1 0x24 DUP3 ADD MSTORE PUSH32 0x4E6F7420617574686F72697A656420746F20757064617465206C6561726E696E PUSH1 0x44 DUP3 ADD MSTORE PUSH1 0x67 PUSH1 0xF8 SHL PUSH1 0x64 DUP3 ADD MSTORE PUSH1 0x84 SWAP1 REVERT JUMPDEST SWAP1 SWAP2 POP PUSH1 0x10 SHR AND CALLER EQ DUP5 DUP1 PUSH2 0xA27 JUMP JUMPDEST PUSH1 0x40 MLOAD PUSH4 0x6EC2D48D PUSH1 0xE1 SHL DUP2 MSTORE PUSH1 0x4 SWAP1 REVERT JUMPDEST PUSH1 0x40 MLOAD PUSH4 0x82564FA5 PUSH1 0xE0 SHL DUP2 MSTORE PUSH1 0x4 SWAP1 REVERT JUMPDEST PUSH1 0x20 CALLDATASIZE PUSH1 0x3 NOT ADD SLT PUSH2 0x382 JUMPI PUSH1 0x4 CALLDATALOAD DUP1 PUSH1 0x0 MSTORE PUSH1 0x13 PUSH1 0x20 MSTORE PUSH1 0xFF PUSH1 0x1 PUSH1 0x40 PUSH1 0x0 KECCAK256 ADD SLOAD AND PUSH1 0x3 DUP2 LT ISZERO PUSH2 0x92C JUMPI PUSH1 0x2 EQ PUSH2 0xAF1 JUMPI PUSH2 0xB40 DUP2 PUSH2 0x514E JUMP JUMPDEST POP CALLVALUE ISZERO PUSH2 0xB91 JUMPI PUSH1 0x0 MSTORE PUSH1 0x13 PUSH1 0x20 MSTORE PUSH1 0x40 PUSH1 0x0 KECCAK256 PUSH2 0xB5F CALLVALUE DUP3 SLOAD PUSH2 0x56CC JUMP JUMPDEST SWAP1 SSTORE PUSH1 0x40 MLOAD CALLVALUE DUP2 MSTORE CALLER SWAP1 PUSH32 0x49AF616656DB0FCA31912FE65A529A84C3634718357324A7397674794E6CAF2F PUSH1 0x20 CALLER SWAP3 LOG3 STOP JUMPDEST PUSH1 0x40 MLOAD PUSH3 0x461BCD PUSH1 0xE5 SHL DUP2 MSTORE PUSH1 0x20 PUSH1 0x4 DUP3 ADD MSTORE PUSH1 0xD PUSH1 0x24 DUP3 ADD MSTORE PUSH13 0x26BAB9BA1039B2B73210212721 PUSH1 0x99 SHL PUSH1 0x44 DUP3 ADD MSTORE PUSH1 0x64 SWAP1 REVERT JUMPDEST CALLVALUE PUSH2 0x382 JUMPI PUSH1 0x40 CALLDATASIZE PUSH1 0x3 NOT ADD SLT PUSH2 0x382 JUMPI PUSH2 0xBDF PUSH2 0x4CBE JUMP JUMPDEST PUSH2 0xBE7 PUSH2 0x4CD4 JUMP JUMPDEST SWAP1 PUSH1 0x1 DUP1 PUSH1 0xA0 SHL SUB DUP1 SWAP2 AND PUSH1 0x0 MSTORE PUSH1 0x5 PUSH1 0x20 MSTORE PUSH1 0x40 PUSH1 0x0 KECCAK256 SWAP2 AND PUSH1 0x0 MSTORE PUSH1 0x20 MSTORE PUSH1 0x20 PUSH1 0xFF PUSH1 0x40 PUSH1 0x0 KECCAK256 SLOAD AND PUSH1 0x40 MLOAD SWAP1 ISZERO ISZERO DUP2 MSTORE RETURN JUMPDEST CALLVALUE PUSH2 0x382 JUMPI PUSH1 0x0 CALLDATASIZE PUSH1 0x3 NOT ADD SLT PUSH2 0x382 JUMPI PUSH1 0x20 PUSH1 0x10 SLOAD PUSH1 0x40 MLOAD SWAP1 DUP2 MSTORE RETURN JUMPDEST CALLVALUE PUSH2 0x382 JUMPI PUSH2 0xC48 CALLDATASIZE PUSH2 0x4CF9 JUMP JUMPDEST PUSH2 0xC51 DUP3 PUSH2 0x514E JUMP JUMPDEST PUSH1 0x1 PUSH1 0x1 PUSH1 0xA0 SHL SUB SWAP1 CALLER SWAP1 DUP3 AND SUB PUSH2 0xD5D JUMPI DUP3 PUSH1 0x0 MSTORE PUSH1 0x13 PUSH1 0x20 MSTORE PUSH1 0xFF PUSH1 0x1 PUSH1 0x40 PUSH1 0x0 KECCAK256 ADD SLOAD AND PUSH1 0x3 DUP2 LT ISZERO PUSH2 0x92C JUMPI PUSH1 0x2 EQ PUSH2 0xAF1 JUMPI PUSH2 0xC90 PUSH2 0x56AE JUMP JUMPDEST DUP2 ISZERO PUSH2 0xD4C JUMPI DUP3 PUSH1 0x0 MSTORE PUSH1 0x14 PUSH1 0x20 MSTORE PUSH1 0xFF PUSH1 0x1 PUSH1 0x40 PUSH1 0x0 KECCAK256 ADD SLOAD PUSH1 0xA0 SHR AND PUSH2 0xD3A JUMPI PUSH32 0x1EA45E30B31292F9D7C5D37D275B2FECA555F13F47DCE0FDEA2F47E8852ECD78 SWAP2 PUSH1 0x20 SWAP2 PUSH1 0x40 MLOAD PUSH2 0xCE3 DUP2 PUSH2 0x4B43 JUMP JUMPDEST DUP3 DUP2 MSTORE DUP4 DUP2 ADD SWAP2 CALLER DUP4 MSTORE PUSH1 0x1 PUSH1 0x40 DUP4 ADD SWAP3 DUP2 DUP5 MSTORE DUP9 PUSH1 0x0 MSTORE PUSH1 0x14 DUP8 MSTORE PUSH1 0x40 PUSH1 0x0 KECCAK256 SWAP1 MLOAD DUP2 SSTORE ADD SWAP3 MLOAD AND DUP3 SLOAD SWAP2 PUSH1 0xFF PUSH1 0xA0 SHL SWAP1 MLOAD ISZERO ISZERO PUSH1 0xA0 SHL AND SWAP2 PUSH11 0xFFFFFFFFFFFFFFFFFFFFFF PUSH1 0xA8 SHL AND OR OR SWAP1 SSTORE PUSH1 0x40 MLOAD SWAP1 DUP2 MSTORE LOG2 STOP JUMPDEST PUSH1 0x40 MLOAD PUSH4 0xE3912551 PUSH1 0xE0 SHL DUP2 MSTORE PUSH1 0x4 SWAP1 REVERT JUMPDEST PUSH1 0x40 MLOAD PUSH3 0xBFC921 PUSH1 0xE0 SHL DUP2 MSTORE PUSH1 0x4 SWAP1 REVERT JUMPDEST PUSH1 0x40 MLOAD PUSH4 0x7A50E057 PUSH1 0xE0 SHL DUP2 MSTORE PUSH1 0x4 SWAP1 REVERT JUMPDEST CALLVALUE PUSH2 0x382 JUMPI PUSH1 0x20 CALLDATASIZE PUSH1 0x3 NOT ADD SLT PUSH2 0x382 JUMPI PUSH1 0x4 CALLDATALOAD PUSH1 0x0 MSTORE PUSH1 0x14 PUSH1 0x20 MSTORE PUSH1 0x60 PUSH1 0x40 PUSH1 0x0 KECCAK256 PUSH1 0xFF PUSH1 0x1 DUP3 SLOAD SWAP3 ADD SLOAD PUSH1 0x40 MLOAD SWAP3 DUP4 MSTORE PUSH1 0x1 DUP1 PUSH1 0xA0 SHL SUB DUP2 AND PUSH1 0x20 DUP5 ADD MSTORE PUSH1 0xA0 SHR AND ISZERO ISZERO PUSH1 0x40 DUP3 ADD MSTORE RETURN JUMPDEST CALLVALUE PUSH2 0x382 JUMPI PUSH1 0x20 CALLDATASIZE PUSH1 0x3 NOT ADD SLT PUSH2 0x382 JUMPI PUSH2 0xDD5 PUSH2 0x4CBE JUMP JUMPDEST PUSH2 0xDDD PUSH2 0x4ED6 JUMP JUMPDEST PUSH1 0x1 PUSH1 0x1 PUSH1 0xA0 SHL SUB AND DUP1 ISZERO PUSH2 0x99C JUMPI PUSH1 0x1 PUSH1 0x1 PUSH1 0x60 SHL SUB PUSH1 0xA0 SHL PUSH1 0xE SLOAD AND OR PUSH1 0xE SSTORE PUSH1 0x0 DUP1 RETURN JUMPDEST CALLVALUE PUSH2 0x382 JUMPI PUSH1 0x3 NOT PUSH1 0xE0 CALLDATASIZE DUP3 ADD SLT PUSH2 0x382 JUMPI PUSH2 0xE1E PUSH2 0x4CBE JUMP JUMPDEST PUSH1 0x24 CALLDATALOAD PUSH1 0x1 PUSH1 0x1 PUSH1 0x40 SHL SUB DUP2 GT PUSH2 0x382 JUMPI PUSH2 0xE3D SWAP1 CALLDATASIZE SWAP1 PUSH1 0x4 ADD PUSH2 0x4DF3 JUMP JUMPDEST PUSH1 0x64 CALLDATALOAD PUSH1 0x1 PUSH1 0x1 PUSH1 0x40 SHL SUB DUP2 GT PUSH2 0x382 JUMPI PUSH2 0xE5C SWAP1 CALLDATASIZE SWAP1 PUSH1 0x4 ADD PUSH2 0x4DF3 JUMP JUMPDEST PUSH1 0xA4 CALLDATALOAD PUSH1 0x1 PUSH1 0x1 PUSH1 0x40 SHL SUB DUP2 GT PUSH2 0x382 JUMPI PUSH2 0xE7B SWAP1 CALLDATASIZE SWAP1 PUSH1 0x4 ADD PUSH2 0x4DF3 JUMP JUMPDEST SWAP6 SWAP1 SWAP7 PUSH1 0x1 PUSH1 0x1 PUSH1 0x40 SHL SUB PUSH1 0xC4 CALLDATALOAD GT PUSH2 0x382 JUMPI PUSH1 0xC0 SWAP1 PUSH1 0xC4 CALLDATALOAD CALLDATASIZE SUB ADD SLT PUSH2 0x382 JUMPI PUSH2 0xEA4 PUSH2 0x4ED6 JUMP JUMPDEST PUSH2 0xEAC PUSH2 0x56AE JUMP JUMPDEST PUSH1 0x64 PUSH1 0xC SLOAD LT ISZERO PUSH2 0x1750 JUMPI PUSH1 0xA SLOAD SWAP6 PUSH2 0xEC4 DUP8 PUSH2 0x52DC JUMP JUMPDEST PUSH1 0xA SSTORE PUSH2 0xED1 DUP8 DUP4 PUSH2 0x5406 JUMP JUMPDEST DUP7 PUSH1 0x0 MSTORE PUSH1 0x13 PUSH1 0x20 MSTORE PUSH1 0x40 PUSH1 0x0 KECCAK256 SWAP8 PUSH1 0x1 DUP10 ADD PUSH1 0xFF NOT SWAP1 DUP2 DUP2 SLOAD AND SWAP1 SSTORE PUSH1 0x44 CALLDATALOAD PUSH1 0x9 DUP12 ADD SSTORE PUSH1 0x1 PUSH1 0x1 PUSH1 0x40 SHL SUB DUP8 GT PUSH2 0x13D2 JUMPI PUSH2 0xF1E DUP8 PUSH2 0xF15 PUSH1 0xA DUP14 ADD SLOAD PUSH2 0x4B09 JUMP JUMPDEST PUSH1 0xA DUP14 ADD PUSH2 0x5301 JUMP JUMPDEST DUP7 PUSH1 0x0 PUSH1 0x1F DUP3 GT PUSH1 0x1 EQ PUSH2 0x16E0 JUMPI PUSH1 0x0 SWAP2 PUSH2 0x16D5 JUMPI JUMPDEST POP DUP8 PUSH1 0x1 SHL SWAP1 PUSH1 0x0 NOT DUP10 PUSH1 0x3 SHL SHR NOT AND OR PUSH1 0xA DUP12 ADD SSTORE JUMPDEST PUSH1 0xB DUP11 ADD DUP1 SLOAD PUSH1 0x1 PUSH1 0x1 PUSH1 0xA8 SHL SUB NOT AND PUSH1 0x1 PUSH1 0x1 PUSH1 0xA0 SHL SUB DUP7 AND OR SWAP1 SSTORE PUSH1 0x12 DUP11 ADD DUP1 SLOAD SWAP1 SWAP2 AND PUSH1 0x1 OR SWAP1 SSTORE PUSH2 0xF85 PUSH1 0x4 PUSH1 0xC4 CALLDATALOAD ADD DUP1 PUSH2 0x5379 JUMP JUMPDEST SWAP1 PUSH1 0x1 PUSH1 0x1 PUSH1 0x40 SHL SUB DUP3 GT PUSH2 0x13D2 JUMPI DUP2 SWAP1 PUSH2 0xFB0 DUP3 DUP14 PUSH1 0x3 PUSH2 0xFA9 DUP2 DUP4 ADD SLOAD PUSH2 0x4B09 JUMP JUMPDEST SWAP2 ADD PUSH2 0x5301 JUMP JUMPDEST PUSH1 0x0 SWAP1 PUSH1 0x1F DUP4 GT PUSH1 0x1 EQ PUSH2 0x1664 JUMPI PUSH1 0x0 SWAP3 PUSH2 0x1659 JUMPI JUMPDEST POP POP DUP2 PUSH1 0x1 SHL SWAP2 PUSH1 0x0 NOT SWAP1 PUSH1 0x3 SHL SHR NOT AND OR PUSH1 0x3 DUP11 ADD SSTORE JUMPDEST PUSH2 0xFF2 PUSH1 0x24 PUSH1 0xC4 CALLDATALOAD ADD PUSH1 0xC4 CALLDATALOAD PUSH1 0x4 ADD PUSH2 0x5379 JUMP JUMPDEST SWAP1 PUSH1 0x1 PUSH1 0x1 PUSH1 0x40 SHL SUB DUP3 GT PUSH2 0x13D2 JUMPI DUP2 SWAP1 PUSH2 0x1016 DUP3 DUP14 PUSH1 0x4 PUSH2 0xFA9 DUP2 DUP4 ADD SLOAD PUSH2 0x4B09 JUMP JUMPDEST PUSH1 0x0 SWAP1 PUSH1 0x1F DUP4 GT PUSH1 0x1 EQ PUSH2 0x15E8 JUMPI PUSH1 0x0 SWAP3 PUSH2 0x15DD JUMPI JUMPDEST POP POP DUP2 PUSH1 0x1 SHL SWAP2 PUSH1 0x0 NOT SWAP1 PUSH1 0x3 SHL SHR NOT AND OR PUSH1 0x4 DUP11 ADD SSTORE JUMPDEST PUSH2 0x1058 PUSH1 0x44 PUSH1 0xC4 CALLDATALOAD ADD PUSH1 0xC4 CALLDATALOAD PUSH1 0x4 ADD PUSH2 0x5379 JUMP JUMPDEST SWAP1 PUSH1 0x1 PUSH1 0x1 PUSH1 0x40 SHL SUB DUP3 GT PUSH2 0x13D2 JUMPI DUP2 SWAP1 PUSH2 0x107C DUP3 DUP14 PUSH1 0x5 PUSH2 0xFA9 DUP2 DUP4 ADD SLOAD PUSH2 0x4B09 JUMP JUMPDEST PUSH1 0x0 SWAP1 PUSH1 0x1F DUP4 GT PUSH1 0x1 EQ PUSH2 0x156C JUMPI PUSH1 0x0 SWAP3 PUSH2 0x1561 JUMPI JUMPDEST POP POP DUP2 PUSH1 0x1 SHL SWAP2 PUSH1 0x0 NOT SWAP1 PUSH1 0x3 SHL SHR NOT AND OR PUSH1 0x5 DUP11 ADD SSTORE JUMPDEST PUSH2 0x10BE PUSH1 0x64 PUSH1 0xC4 CALLDATALOAD ADD PUSH1 0xC4 CALLDATALOAD PUSH1 0x4 ADD PUSH2 0x5379 JUMP JUMPDEST SWAP1 PUSH1 0x1 PUSH1 0x1 PUSH1 0x40 SHL SUB DUP3 GT PUSH2 0x13D2 JUMPI DUP2 SWAP1 PUSH2 0x10E2 DUP3 DUP14 PUSH1 0x6 PUSH2 0xFA9 DUP2 DUP4 ADD SLOAD PUSH2 0x4B09 JUMP JUMPDEST PUSH1 0x0 SWAP1 PUSH1 0x1F DUP4 GT PUSH1 0x1 EQ PUSH2 0x14F0 JUMPI PUSH1 0x0 SWAP3 PUSH2 0x14E5 JUMPI JUMPDEST POP POP DUP2 PUSH1 0x1 SHL SWAP2 PUSH1 0x0 NOT SWAP1 PUSH1 0x3 SHL SHR NOT AND OR PUSH1 0x6 DUP11 ADD SSTORE JUMPDEST PUSH2 0x1124 PUSH1 0x84 PUSH1 0xC4 CALLDATALOAD ADD PUSH1 0xC4 CALLDATALOAD PUSH1 0x4 ADD PUSH2 0x5379 JUMP JUMPDEST SWAP1 PUSH1 0x1 PUSH1 0x1 PUSH1 0x40 SHL SUB DUP3 GT PUSH2 0x13D2 JUMPI PUSH2 0x1146 DUP3 DUP13 PUSH1 0x7 PUSH2 0xFA9 DUP2 DUP4 ADD SLOAD PUSH2 0x4B09 JUMP JUMPDEST PUSH1 0x0 SWAP1 PUSH1 0x1F DUP4 GT PUSH1 0x1 EQ PUSH2 0x1471 JUMPI PUSH2 0x11B0 SWAP4 SWAP3 SWAP2 PUSH1 0x0 SWAP2 DUP4 PUSH2 0x1466 JUMPI JUMPDEST POP POP DUP2 PUSH1 0x1 SHL SWAP2 PUSH1 0x0 NOT SWAP1 PUSH1 0x3 SHL SHR NOT AND OR PUSH1 0x7 DUP12 ADD SSTORE JUMPDEST PUSH1 0xA4 PUSH1 0xC4 CALLDATALOAD ADD CALLDATALOAD PUSH1 0x8 DUP12 ADD SSTORE PUSH1 0x40 MLOAD SWAP3 PUSH2 0x1194 DUP5 PUSH2 0x4B43 JUMP JUMPDEST PUSH2 0x119F CALLDATASIZE DUP8 DUP10 PUSH2 0x4D2A JUMP JUMPDEST DUP5 MSTORE PUSH1 0x84 CALLDATALOAD PUSH1 0x20 DUP6 ADD MSTORE CALLDATASIZE SWAP2 PUSH2 0x4D2A JUMP JUMPDEST PUSH1 0x40 DUP3 ADD MSTORE DUP1 MLOAD DUP1 MLOAD SWAP1 PUSH1 0x1 PUSH1 0x1 PUSH1 0x40 SHL SUB DUP3 GT PUSH2 0x13D2 JUMPI PUSH2 0x11E2 DUP3 PUSH2 0x11D9 PUSH1 0xF DUP14 ADD SLOAD PUSH2 0x4B09 JUMP JUMPDEST PUSH1 0xF DUP14 ADD PUSH2 0x5301 JUMP JUMPDEST PUSH1 0x20 SWAP1 PUSH1 0x1F DUP4 GT PUSH1 0x1 EQ PUSH2 0x13F3 JUMPI PUSH1 0x40 SWAP4 SWAP3 SWAP2 PUSH1 0x0 SWAP2 DUP4 PUSH2 0x13E8 JUMPI JUMPDEST POP POP DUP2 PUSH1 0x1 SHL SWAP2 PUSH1 0x0 NOT SWAP1 PUSH1 0x3 SHL SHR NOT AND OR PUSH1 0xF DUP11 ADD SSTORE JUMPDEST PUSH1 0x20 DUP2 ADD MLOAD PUSH1 0x10 DUP11 ADD SSTORE ADD MLOAD SWAP4 DUP5 MLOAD SWAP8 PUSH1 0x1 PUSH1 0x1 PUSH1 0x40 SHL SUB DUP10 GT PUSH2 0x13D2 JUMPI DUP9 DUP9 SWAP7 PUSH2 0x1253 PUSH1 0x20 SWAP12 PUSH2 0x124A PUSH1 0x11 DUP7 ADD SLOAD PUSH2 0x4B09 JUMP JUMPDEST PUSH1 0x11 DUP7 ADD PUSH2 0x5301 JUMP JUMPDEST DUP11 SWAP1 PUSH1 0x1F DUP4 GT PUSH1 0x1 EQ PUSH2 0x1344 JUMPI SWAP3 PUSH1 0x11 DUP4 PUSH1 0x0 DUP1 MLOAD PUSH1 0x20 PUSH2 0x593E DUP4 CODECOPY DUP2 MLOAD SWAP2 MSTORE SWAP11 SWAP12 SWAP5 PUSH2 0x12C2 SWAP8 SWAP5 PUSH2 0x12BC SWAP8 PUSH1 0x0 SWAP3 PUSH2 0x1339 JUMPI JUMPDEST POP POP DUP2 PUSH1 0x1 SHL SWAP2 PUSH1 0x0 NOT SWAP1 PUSH1 0x3 SHL SHR NOT AND OR SWAP2 ADD SSTORE JUMPDEST PUSH1 0x84 CALLDATALOAD PUSH1 0x0 MSTORE PUSH1 0x15 DUP12 MSTORE PUSH2 0x12B5 DUP10 PUSH1 0x40 PUSH1 0x0 KECCAK256 PUSH2 0x53AB JUMP JUMPDEST CALLDATASIZE SWAP2 PUSH2 0x4D2A JUMP JUMPDEST DUP7 PUSH2 0x557C JUMP JUMPDEST PUSH2 0x12CD PUSH1 0xC SLOAD PUSH2 0x52DC JUMP JUMPDEST PUSH1 0xC SSTORE PUSH1 0x40 DUP1 MLOAD PUSH1 0x44 CALLDATALOAD DUP2 MSTORE PUSH1 0x1 DUP10 DUP3 ADD MSTORE PUSH1 0x1 PUSH1 0x1 PUSH1 0xA0 SHL SUB SWAP1 SWAP3 AND SWAP2 DUP7 SWAP2 PUSH32 0x95ABEB4465B4AD62FEB35F85EB0A053AC518E5B0F02A7C23B1EF9B3FA167B069 SWAP2 LOG3 PUSH2 0x1327 PUSH1 0x40 MLOAD SWAP3 DUP4 SWAP3 PUSH1 0x40 DUP5 MSTORE PUSH1 0x40 DUP5 ADD SWAP2 PUSH2 0x53E5 JUMP JUMPDEST PUSH1 0x84 CALLDATALOAD DUP8 DUP4 ADD MSTORE SUB SWAP1 LOG2 PUSH1 0x40 MLOAD SWAP1 DUP2 MSTORE RETURN JUMPDEST ADD MLOAD SWAP1 POP DUP16 DUP1 PUSH2 0x1287 JUMP JUMPDEST PUSH1 0x11 DUP5 SWAP4 SWAP3 SWAP11 SWAP6 SWAP5 ADD PUSH1 0x0 MSTORE DUP12 PUSH1 0x0 KECCAK256 SWAP1 PUSH1 0x0 JUMPDEST PUSH1 0x1F NOT DUP5 AND DUP2 LT PUSH2 0x13B8 JUMPI POP PUSH1 0x1 DUP4 PUSH2 0x12C2 SWAP8 SWAP6 SWAP4 PUSH1 0x0 DUP1 MLOAD PUSH1 0x20 PUSH2 0x593E DUP4 CODECOPY DUP2 MLOAD SWAP2 MSTORE SWAP13 SWAP14 PUSH1 0x11 SWAP5 PUSH2 0x12BC SWAP10 SWAP8 PUSH1 0x1F NOT DUP2 AND LT PUSH2 0x139F JUMPI JUMPDEST POP POP POP DUP2 SHL ADD SWAP2 ADD SSTORE PUSH2 0x129D JUMP JUMPDEST ADD MLOAD PUSH1 0x0 NOT PUSH1 0xF8 DUP5 PUSH1 0x3 SHL AND SHR NOT AND SWAP1 SSTORE DUP16 DUP1 DUP1 PUSH2 0x1391 JUMP JUMPDEST DUP2 DUP13 ADD MLOAD DUP4 SSTORE SWAP11 DUP14 ADD SWAP11 DUP13 SWAP11 POP PUSH1 0x1 SWAP1 SWAP3 ADD SWAP2 DUP14 ADD PUSH2 0x1358 JUMP JUMPDEST PUSH4 0x4E487B71 PUSH1 0xE0 SHL PUSH1 0x0 MSTORE PUSH1 0x41 PUSH1 0x4 MSTORE PUSH1 0x24 PUSH1 0x0 REVERT JUMPDEST ADD MLOAD SWAP1 POP DUP12 DUP1 PUSH2 0x11FE JUMP JUMPDEST SWAP1 PUSH1 0xF DUP12 ADD PUSH1 0x0 MSTORE PUSH1 0x20 PUSH1 0x0 KECCAK256 SWAP2 PUSH1 0x0 JUMPDEST PUSH1 0x1F NOT DUP6 AND DUP2 LT PUSH2 0x144E JUMPI POP SWAP2 DUP4 SWAP2 PUSH1 0x1 SWAP4 PUSH1 0x40 SWAP7 SWAP6 PUSH1 0x1F NOT DUP2 AND LT PUSH2 0x1435 JUMPI JUMPDEST POP POP POP DUP2 SHL ADD PUSH1 0xF DUP11 ADD SSTORE PUSH2 0x1216 JUMP JUMPDEST ADD MLOAD PUSH1 0x0 NOT PUSH1 0xF8 DUP5 PUSH1 0x3 SHL AND SHR NOT AND SWAP1 SSTORE DUP12 DUP1 DUP1 PUSH2 0x1425 JUMP JUMPDEST SWAP2 SWAP3 PUSH1 0x20 PUSH1 0x1 DUP2 SWAP3 DUP7 DUP6 ADD MLOAD DUP2 SSTORE ADD SWAP5 ADD SWAP3 ADD PUSH2 0x1404 JUMP JUMPDEST ADD CALLDATALOAD SWAP1 POP DUP13 DUP1 PUSH2 0x1163 JUMP JUMPDEST PUSH1 0x7 DUP13 ADD PUSH1 0x0 MSTORE PUSH1 0x20 PUSH1 0x0 KECCAK256 SWAP2 PUSH1 0x0 JUMPDEST PUSH1 0x1F NOT DUP6 AND DUP2 LT PUSH2 0x14CD JUMPI POP SWAP2 DUP4 SWAP2 PUSH1 0x1 SWAP4 PUSH2 0x11B0 SWAP7 SWAP6 PUSH1 0x1F NOT DUP2 AND LT PUSH2 0x14B3 JUMPI JUMPDEST POP POP POP DUP2 SHL ADD PUSH1 0x7 DUP12 ADD SSTORE PUSH2 0x117B JUMP JUMPDEST ADD CALLDATALOAD PUSH1 0x0 NOT PUSH1 0x3 DUP5 SWAP1 SHL PUSH1 0xF8 AND SHR NOT AND SWAP1 SSTORE DUP13 DUP1 DUP1 PUSH2 0x14A3 JUMP JUMPDEST SWAP1 SWAP3 PUSH1 0x20 PUSH1 0x1 DUP2 SWAP3 DUP7 DUP7 ADD CALLDATALOAD DUP2 SSTORE ADD SWAP5 ADD SWAP2 ADD PUSH2 0x1481 JUMP JUMPDEST ADD CALLDATALOAD SWAP1 POP DUP12 DUP1 PUSH2 0x10F8 JUMP JUMPDEST SWAP1 SWAP3 POP PUSH1 0x6 DUP13 ADD PUSH1 0x0 MSTORE PUSH1 0x20 PUSH1 0x0 KECCAK256 SWAP1 PUSH1 0x0 SWAP4 JUMPDEST PUSH1 0x1F NOT DUP5 AND DUP6 LT PUSH2 0x1549 JUMPI PUSH1 0x1 SWAP5 POP DUP4 PUSH1 0x1F NOT DUP2 AND LT PUSH2 0x152F JUMPI JUMPDEST POP POP POP DUP2 SHL ADD PUSH1 0x6 DUP11 ADD SSTORE PUSH2 0x1110 JUMP JUMPDEST ADD CALLDATALOAD PUSH1 0x0 NOT PUSH1 0x3 DUP5 SWAP1 SHL PUSH1 0xF8 AND SHR NOT AND SWAP1 SSTORE DUP12 DUP1 DUP1 PUSH2 0x151F JUMP JUMPDEST DUP2 DUP2 ADD CALLDATALOAD DUP4 SSTORE PUSH1 0x20 SWAP5 DUP6 ADD SWAP5 PUSH1 0x1 SWAP1 SWAP4 ADD SWAP3 ADD PUSH2 0x1504 JUMP JUMPDEST ADD CALLDATALOAD SWAP1 POP DUP12 DUP1 PUSH2 0x1092 JUMP JUMPDEST SWAP1 SWAP3 POP PUSH1 0x5 DUP13 ADD PUSH1 0x0 MSTORE PUSH1 0x20 PUSH1 0x0 KECCAK256 SWAP1 PUSH1 0x0 SWAP4 JUMPDEST PUSH1 0x1F NOT DUP5 AND DUP6 LT PUSH2 0x15C5 JUMPI PUSH1 0x1 SWAP5 POP DUP4 PUSH1 0x1F NOT DUP2 AND LT PUSH2 0x15AB JUMPI JUMPDEST POP POP POP DUP2 SHL ADD PUSH1 0x5 DUP11 ADD SSTORE PUSH2 0x10AA JUMP JUMPDEST ADD CALLDATALOAD PUSH1 0x0 NOT PUSH1 0x3 DUP5 SWAP1 SHL PUSH1 0xF8 AND SHR NOT AND SWAP1 SSTORE DUP12 DUP1 DUP1 PUSH2 0x159B JUMP JUMPDEST DUP2 DUP2 ADD CALLDATALOAD DUP4 SSTORE PUSH1 0x20 SWAP5 DUP6 ADD SWAP5 PUSH1 0x1 SWAP1 SWAP4 ADD SWAP3 ADD PUSH2 0x1580 JUMP JUMPDEST ADD CALLDATALOAD SWAP1 POP DUP12 DUP1 PUSH2 0x102C JUMP JUMPDEST SWAP1 SWAP3 POP PUSH1 0x4 DUP13 ADD PUSH1 0x0 MSTORE PUSH1 0x20 PUSH1 0x0 KECCAK256 SWAP1 PUSH1 0x0 SWAP4 JUMPDEST PUSH1 0x1F NOT DUP5 AND DUP6 LT PUSH2 0x1641 JUMPI PUSH1 0x1 SWAP5 POP DUP4 PUSH1 0x1F NOT DUP2 AND LT PUSH2 0x1627 JUMPI JUMPDEST POP POP POP DUP2 SHL ADD PUSH1 0x4 DUP11 ADD SSTORE PUSH2 0x1044 JUMP JUMPDEST ADD CALLDATALOAD PUSH1 0x0 NOT PUSH1 0x3 DUP5 SWAP1 SHL PUSH1 0xF8 AND SHR NOT AND SWAP1 SSTORE DUP12 DUP1 DUP1 PUSH2 0x1617 JUMP JUMPDEST DUP2 DUP2 ADD CALLDATALOAD DUP4 SSTORE PUSH1 0x20 SWAP5 DUP6 ADD SWAP5 PUSH1 0x1 SWAP1 SWAP4 ADD SWAP3 ADD PUSH2 0x15FC JUMP JUMPDEST ADD CALLDATALOAD SWAP1 POP DUP12 DUP1 PUSH2 0xFC6 JUMP JUMPDEST SWAP1 SWAP3 POP PUSH1 0x3 DUP13 ADD PUSH1 0x0 MSTORE PUSH1 0x20 PUSH1 0x0 KECCAK256 SWAP1 PUSH1 0x0 SWAP4 JUMPDEST PUSH1 0x1F NOT DUP5 AND DUP6 LT PUSH2 0x16BD JUMPI PUSH1 0x1 SWAP5 POP DUP4 PUSH1 0x1F NOT DUP2 AND LT PUSH2 0x16A3 JUMPI JUMPDEST POP POP POP DUP2 SHL ADD PUSH1 0x3 DUP11 ADD SSTORE PUSH2 0xFDE JUMP JUMPDEST ADD CALLDATALOAD PUSH1 0x0 NOT PUSH1 0x3 DUP5 SWAP1 SHL PUSH1 0xF8 AND SHR NOT AND SWAP1 SSTORE DUP12 DUP1 DUP1 PUSH2 0x1693 JUMP JUMPDEST DUP2 DUP2 ADD CALLDATALOAD DUP4 SSTORE PUSH1 0x20 SWAP5 DUP6 ADD SWAP5 PUSH1 0x1 SWAP1 SWAP4 ADD SWAP3 ADD PUSH2 0x1678 JUMP JUMPDEST SWAP1 POP DUP9 ADD CALLDATALOAD DUP12 PUSH2 0xF34 JUMP JUMPDEST SWAP1 POP PUSH1 0xA DUP12 ADD PUSH1 0x0 MSTORE PUSH1 0x20 PUSH1 0x0 KECCAK256 SWAP1 PUSH1 0x0 JUMPDEST DUP11 PUSH1 0x1F NOT DUP12 AND DUP3 LT PUSH2 0x1738 JUMPI POP POP DUP9 PUSH1 0x1F NOT DUP2 AND LT PUSH2 0x171E JUMPI JUMPDEST POP POP PUSH1 0x1 DUP8 DUP2 SHL ADD PUSH1 0xA DUP12 ADD SSTORE PUSH2 0xF4B JUMP JUMPDEST DUP10 ADD CALLDATALOAD PUSH1 0x0 NOT PUSH1 0x3 DUP11 SWAP1 SHL PUSH1 0xF8 AND SHR NOT AND SWAP1 SSTORE DUP11 DUP1 PUSH2 0x170C JUMP JUMPDEST PUSH1 0x1 DUP4 SWAP5 PUSH1 0x20 SWAP4 SWAP5 DUP5 SWAP4 ADD CALLDATALOAD DUP2 SSTORE ADD SWAP4 ADD SWAP2 ADD PUSH2 0x16F2 JUMP JUMPDEST PUSH1 0x40 MLOAD PUSH4 0x11799635 PUSH1 0xE0 SHL DUP2 MSTORE PUSH1 0x4 SWAP1 REVERT JUMPDEST CALLVALUE PUSH2 0x382 JUMPI PUSH1 0x20 CALLDATASIZE PUSH1 0x3 NOT ADD SLT PUSH2 0x382 JUMPI PUSH1 0x4 CALLDATALOAD PUSH2 0x177F DUP2 PUSH2 0x514E JUMP JUMPDEST POP PUSH1 0x0 MSTORE PUSH1 0x13 PUSH1 0x20 MSTORE PUSH2 0x17C4 PUSH1 0x40 PUSH1 0x0 KECCAK256 PUSH2 0x7DD PUSH1 0x10 DUP3 ADD SLOAD PUSH2 0x17B0 PUSH1 0x11 PUSH2 0x17A9 PUSH1 0xF DUP7 ADD PUSH2 0x4BD0 JUMP JUMPDEST SWAP5 ADD PUSH2 0x4BD0 JUMP JUMPDEST PUSH1 0x40 MLOAD SWAP5 DUP6 SWAP5 PUSH1 0x60 DUP7 MSTORE PUSH1 0x60 DUP7 ADD SWAP1 PUSH2 0x4C99 JUMP JUMPDEST SWAP2 PUSH1 0x20 DUP6 ADD MSTORE DUP4 DUP3 SUB PUSH1 0x40 DUP6 ADD MSTORE PUSH2 0x4C99 JUMP JUMPDEST CALLVALUE PUSH2 0x382 JUMPI PUSH1 0x40 CALLDATASIZE PUSH1 0x3 NOT ADD SLT PUSH2 0x382 JUMPI PUSH2 0x1C PUSH2 0x17F3 PUSH2 0x4CBE JUMP JUMPDEST PUSH2 0x17FB PUSH2 0x4CEA JUMP JUMPDEST SWAP1 PUSH2 0x1804 PUSH2 0x4ED6 JUMP JUMPDEST PUSH1 0x1 DUP1 PUSH1 0xA0 SHL SUB AND PUSH1 0x0 MSTORE PUSH1 0x12 PUSH1 0x20 MSTORE PUSH1 0x40 PUSH1 0x0 KECCAK256 SWAP1 PUSH1 0xFF DUP1 NOT DUP4 SLOAD AND SWAP2 ISZERO ISZERO AND OR SWAP1 SSTORE JUMP JUMPDEST CALLVALUE PUSH2 0x382 JUMPI PUSH1 0x20 DUP1 PUSH1 0x3 NOT CALLDATASIZE ADD SLT PUSH2 0x382 JUMPI PUSH1 0x4 CALLDATALOAD PUSH2 0x1847 PUSH2 0x5747 JUMP JUMPDEST POP PUSH1 0x60 PUSH1 0x40 DUP1 MLOAD PUSH2 0x1857 DUP2 PUSH2 0x4B43 JUMP JUMPDEST DUP3 DUP2 MSTORE PUSH1 0x0 DUP6 DUP3 ADD MSTORE ADD MSTORE PUSH2 0x186B DUP2 PUSH2 0x514E JUMP JUMPDEST POP PUSH1 0x0 MSTORE PUSH1 0x13 DUP2 MSTORE PUSH1 0x40 PUSH1 0x0 KECCAK256 PUSH1 0x9 DUP2 ADD SLOAD SWAP2 PUSH1 0xB DUP3 ADD SLOAD SWAP2 PUSH1 0xFF DUP4 PUSH1 0xA0 SHR AND SWAP3 PUSH1 0xFF PUSH1 0x12 DUP4 ADD SLOAD AND SWAP3 PUSH2 0x18A1 PUSH1 0xA DUP5 ADD PUSH2 0x4BD0 JUMP JUMPDEST SWAP1 PUSH2 0x18AE PUSH1 0xC DUP6 ADD PUSH2 0x57EB JUMP JUMPDEST SWAP5 PUSH1 0x40 MLOAD PUSH2 0x18BB DUP2 PUSH2 0x4B43 JUMP JUMPDEST PUSH2 0x18C7 PUSH1 0xF DUP8 ADD PUSH2 0x4BD0 JUMP JUMPDEST DUP2 MSTORE PUSH2 0x1901 PUSH2 0x18E3 PUSH1 0x11 PUSH1 0x10 DUP10 ADD SLOAD SWAP9 DUP7 DUP6 ADD SWAP10 DUP11 MSTORE ADD PUSH2 0x4BD0 JUMP JUMPDEST SWAP5 PUSH1 0x40 DUP4 ADD SWAP6 DUP7 MSTORE PUSH1 0x40 MLOAD SWAP11 DUP12 MSTORE PUSH2 0x160 DUP1 DUP7 DUP14 ADD MSTORE DUP12 ADD SWAP1 PUSH2 0x4C99 JUMP JUMPDEST PUSH1 0x1 PUSH1 0x1 PUSH1 0xA0 SHL SUB SWAP1 SWAP6 AND PUSH1 0x40 DUP11 ADD MSTORE PUSH1 0x5 DUP9 LT ISZERO PUSH2 0x92C JUMPI PUSH2 0x193D PUSH2 0x7DD SWAP8 PUSH2 0x1955 SWAP4 DUP12 SWAP11 PUSH1 0x60 DUP13 ADD MSTORE ISZERO ISZERO PUSH1 0x80 DUP12 ADD MSTORE PUSH1 0xA0 DUP11 ADD SWAP1 PUSH2 0x4DB4 JUMP JUMPDEST DUP8 DUP6 SUB PUSH2 0x140 DUP10 ADD MSTORE MLOAD PUSH1 0x60 DUP6 MSTORE PUSH1 0x60 DUP6 ADD SWAP1 PUSH2 0x4C99 JUMP JUMPDEST SWAP4 MLOAD SWAP1 DUP4 ADD MSTORE MLOAD SWAP1 PUSH1 0x40 DUP2 DUP5 SUB SWAP2 ADD MSTORE PUSH2 0x4C99 JUMP JUMPDEST CALLVALUE PUSH2 0x382 JUMPI PUSH1 0x20 CALLDATASIZE PUSH1 0x3 NOT ADD SLT PUSH2 0x382 JUMPI PUSH1 0x4 CALLDATALOAD PUSH2 0x1987 DUP2 PUSH2 0x514E JUMP JUMPDEST POP PUSH1 0x0 MSTORE PUSH1 0x6 PUSH1 0x20 MSTORE PUSH2 0x7DD PUSH2 0x19A0 PUSH1 0x40 PUSH1 0x0 KECCAK256 PUSH2 0x4BD0 JUMP JUMPDEST PUSH1 0x0 PUSH1 0x40 MLOAD PUSH2 0x19AE DUP2 PUSH2 0x4B94 JUMP JUMPDEST MSTORE PUSH1 0x40 MLOAD SWAP2 DUP3 SWAP2 PUSH1 0x20 DUP4 MSTORE PUSH1 0x20 DUP4 ADD SWAP1 PUSH2 0x4C99 JUMP JUMPDEST CALLVALUE PUSH2 0x382 JUMPI PUSH1 0x20 CALLDATASIZE PUSH1 0x3 NOT ADD SLT PUSH2 0x382 JUMPI PUSH1 0x4 CALLDATALOAD PUSH2 0x19DF PUSH2 0x4ED6 JUMP JUMPDEST PUSH2 0x19ED PUSH2 0x3E8 DUP3 GT ISZERO PUSH2 0x5832 JUMP JUMPDEST PUSH1 0xF SSTORE STOP JUMPDEST CALLVALUE PUSH2 0x382 JUMPI PUSH1 0x80 CALLDATASIZE PUSH1 0x3 NOT ADD SLT PUSH2 0x382 JUMPI PUSH2 0x1A0B PUSH2 0x4CBE JUMP JUMPDEST PUSH2 0x1A13 PUSH2 0x4CD4 JUMP JUMPDEST SWAP1 PUSH1 0x44 CALLDATALOAD PUSH1 0x64 CALLDATALOAD SWAP3 PUSH1 0x1 PUSH1 0x1 PUSH1 0x40 SHL SUB DUP5 GT PUSH2 0x382 JUMPI CALLDATASIZE PUSH1 0x23 DUP6 ADD SLT ISZERO PUSH2 0x382 JUMPI PUSH2 0x1A4B PUSH2 0x1C SWAP5 CALLDATASIZE SWAP1 PUSH1 0x24 DUP2 PUSH1 0x4 ADD CALLDATALOAD SWAP2 ADD PUSH2 0x4D2A JUMP JUMPDEST SWAP3 PUSH2 0x1A57 DUP4 DUP4 DUP4 PUSH2 0x4F02 JUMP JUMPDEST CALLER PUSH2 0x51B9 JUMP JUMPDEST CALLVALUE PUSH2 0x382 JUMPI PUSH1 0x40 CALLDATASIZE PUSH1 0x3 NOT ADD SLT PUSH2 0x382 JUMPI PUSH2 0x1A76 PUSH2 0x4CBE JUMP JUMPDEST PUSH2 0x1A7E PUSH2 0x4CEA JUMP JUMPDEST PUSH1 0x1 PUSH1 0x1 PUSH1 0xA0 SHL SUB SWAP1 SWAP2 AND SWAP1 DUP2 ISZERO PUSH2 0x1AEF JUMPI CALLER PUSH1 0x0 MSTORE PUSH1 0x5 PUSH1 0x20 MSTORE PUSH1 0x40 PUSH1 0x0 KECCAK256 DUP3 PUSH1 0x0 MSTORE PUSH1 0x20 MSTORE PUSH2 0x1ABF DUP2 PUSH1 0x40 PUSH1 0x0 KECCAK256 SWAP1 PUSH1 0xFF DUP1 NOT DUP4 SLOAD AND SWAP2 ISZERO ISZERO AND OR SWAP1 SSTORE JUMP JUMPDEST PUSH1 0x40 MLOAD SWAP1 ISZERO ISZERO DUP2 MSTORE PUSH32 0x17307EAB39AB6107E8899845AD3D59BD9653F200F220920489CA2B5937696C31 PUSH1 0x20 CALLER SWAP3 LOG3 STOP JUMPDEST PUSH1 0x40 MLOAD PUSH4 0xB611743 PUSH1 0xE3 SHL DUP2 MSTORE PUSH1 0x4 DUP2 ADD DUP4 SWAP1 MSTORE PUSH1 0x24 SWAP1 REVERT JUMPDEST CALLVALUE PUSH2 0x382 JUMPI PUSH1 0x20 CALLDATASIZE PUSH1 0x3 NOT ADD SLT PUSH2 0x382 JUMPI PUSH1 0x4 CALLDATALOAD PUSH1 0x5 DUP2 LT ISZERO PUSH2 0x382 JUMPI PUSH1 0x20 SWAP1 PUSH1 0x17 ADD SLOAD PUSH1 0x40 MLOAD SWAP1 DUP2 MSTORE RETURN JUMPDEST CALLVALUE PUSH2 0x382 JUMPI PUSH1 0x0 CALLDATASIZE PUSH1 0x3 NOT ADD SLT PUSH2 0x382 JUMPI PUSH1 0x40 MLOAD PUSH1 0x0 PUSH1 0x1 DUP1 SLOAD SWAP1 PUSH2 0x1B58 DUP3 PUSH2 0x4B09 JUMP JUMPDEST DUP1 DUP6 MSTORE SWAP2 DUP2 DUP2 AND SWAP1 DUP2 ISZERO PUSH2 0x1BEC JUMPI POP PUSH1 0x1 EQ PUSH2 0x1B93 JUMPI JUMPDEST PUSH2 0x7DD DUP5 PUSH2 0x1B7F DUP2 DUP7 SUB DUP3 PUSH2 0x4BAF JUMP JUMPDEST PUSH1 0x40 MLOAD SWAP2 DUP3 SWAP2 PUSH1 0x20 DUP4 MSTORE PUSH1 0x20 DUP4 ADD SWAP1 PUSH2 0x4C99 JUMP JUMPDEST PUSH1 0x0 DUP2 DUP2 MSTORE SWAP3 POP PUSH32 0xB10E2D527612073B26EECDFD717E6A320CF44B4AFAC2B0732D9FCBE2B7FA0CF6 JUMPDEST DUP3 DUP5 LT PUSH2 0x1BD4 JUMPI POP POP POP DUP2 ADD PUSH1 0x20 ADD PUSH2 0x1B7F DUP3 PUSH2 0x1B6F JUMP JUMPDEST DUP1 SLOAD PUSH1 0x20 DUP6 DUP8 ADD DUP2 ADD SWAP2 SWAP1 SWAP2 MSTORE SWAP1 SWAP4 ADD SWAP3 DUP2 ADD PUSH2 0x1BBC JUMP JUMPDEST PUSH1 0xFF NOT AND PUSH1 0x20 DUP1 DUP8 ADD SWAP2 SWAP1 SWAP2 MSTORE SWAP3 ISZERO ISZERO PUSH1 0x5 SHL DUP6 ADD SWAP1 SWAP3 ADD SWAP3 POP PUSH2 0x1B7F SWAP2 POP DUP4 SWAP1 POP PUSH2 0x1B6F JUMP JUMPDEST CALLVALUE PUSH2 0x382 JUMPI PUSH1 0x0 CALLDATASIZE PUSH1 0x3 NOT ADD SLT PUSH2 0x382 JUMPI PUSH1 0x20 PUSH1 0x40 MLOAD PUSH1 0x64 DUP2 MSTORE RETURN JUMPDEST CALLVALUE PUSH2 0x382 JUMPI PUSH1 0x0 CALLDATASIZE PUSH1 0x3 NOT ADD SLT PUSH2 0x382 JUMPI PUSH1 0x7 SLOAD PUSH1 0x40 MLOAD PUSH1 0x1 PUSH1 0x1 PUSH1 0xA0 SHL SUB SWAP1 SWAP2 AND DUP2 MSTORE PUSH1 0x20 SWAP1 RETURN JUMPDEST CALLVALUE PUSH2 0x382 JUMPI PUSH1 0x20 PUSH2 0x1C68 CALLDATASIZE PUSH2 0x4E20 JUMP JUMPDEST PUSH2 0x1C71 DUP4 PUSH2 0x514E JUMP JUMPDEST POP PUSH2 0x1C95 DUP5 PUSH1 0x40 MLOAD DUP4 DUP2 SWAP5 DUP4 DUP4 ADD SWAP7 DUP8 CALLDATACOPY DUP2 ADD PUSH1 0x0 DUP4 DUP3 ADD MSTORE SUB DUP1 DUP5 MSTORE ADD DUP3 PUSH2 0x4BAF JUMP JUMPDEST MLOAD SWAP1 KECCAK256 SWAP1 PUSH1 0x0 MSTORE PUSH1 0x13 DUP3 MSTORE PUSH1 0x9 PUSH1 0x40 PUSH1 0x0 KECCAK256 ADD SLOAD EQ PUSH1 0x40 MLOAD SWAP1 DUP2 MSTORE RETURN JUMPDEST CALLVALUE PUSH2 0x382 JUMPI PUSH1 0x0 CALLDATASIZE PUSH1 0x3 NOT ADD SLT PUSH2 0x382 JUMPI PUSH2 0x1CCB PUSH2 0x4ED6 JUMP JUMPDEST PUSH2 0x1CD3 PUSH2 0x56AE JUMP JUMPDEST PUSH1 0x1 PUSH1 0xFF NOT PUSH1 0x9 SLOAD AND OR PUSH1 0x9 SSTORE PUSH32 0x62E78CEA01BEE320CD4E420270B5EA74000D11B0C9F74754EBDBFC544B05A258 PUSH1 0x20 PUSH1 0x40 MLOAD CALLER DUP2 MSTORE LOG1 STOP JUMPDEST CALLVALUE PUSH2 0x382 JUMPI PUSH1 0x40 CALLDATASIZE PUSH1 0x3 NOT ADD SLT PUSH2 0x382 JUMPI PUSH1 0x24 CALLDATALOAD PUSH1 0x4 CALLDATALOAD PUSH1 0x0 MSTORE PUSH1 0x15 PUSH1 0x20 MSTORE PUSH1 0x40 PUSH1 0x0 KECCAK256 DUP1 SLOAD DUP3 LT ISZERO PUSH2 0x382 JUMPI PUSH1 0x20 SWAP2 PUSH2 0x1D45 SWAP2 PUSH2 0x4EBE JUMP JUMPDEST SWAP1 SLOAD PUSH1 0x40 MLOAD SWAP2 PUSH1 0x3 SHL SHR DUP2 MSTORE RETURN JUMPDEST CALLVALUE PUSH2 0x382 JUMPI PUSH1 0x40 CALLDATASIZE PUSH1 0x3 NOT ADD SLT PUSH2 0x382 JUMPI PUSH1 0x4 CALLDATALOAD PUSH2 0x1D6F PUSH2 0x4CD4 JUMP JUMPDEST SWAP1 PUSH2 0x1D79 DUP2 PUSH2 0x514E JUMP JUMPDEST CALLER PUSH1 0x1 PUSH1 0x1 PUSH1 0xA0 SHL SUB SWAP1 SWAP2 AND SUB PUSH2 0xD5D JUMPI DUP1 PUSH1 0x0 MSTORE PUSH1 0x13 PUSH1 0x20 MSTORE PUSH1 0xFF PUSH1 0x1 PUSH1 0x40 PUSH1 0x0 KECCAK256 ADD SLOAD AND PUSH1 0x3 DUP2 LT ISZERO PUSH2 0x92C JUMPI PUSH1 0x2 EQ PUSH2 0xAF1 JUMPI PUSH1 0x0 SWAP1 DUP2 MSTORE PUSH1 0x13 PUSH1 0x20 MSTORE PUSH1 0x40 SWAP1 KECCAK256 PUSH1 0x12 ADD DUP1 SLOAD PUSH2 0x100 PUSH1 0x1 PUSH1 0xB0 SHL SUB NOT AND PUSH1 0x10 SWAP3 SWAP1 SWAP3 SHL PUSH3 0x10000 PUSH1 0x1 PUSH1 0xB0 SHL SUB AND SWAP2 SWAP1 SWAP2 OR PUSH2 0x100 OR SWAP1 SSTORE STOP JUMPDEST CALLVALUE PUSH2 0x382 JUMPI PUSH1 0x20 DUP1 PUSH1 0x3 NOT CALLDATASIZE ADD SLT PUSH2 0x382 JUMPI PUSH1 0x4 CALLDATALOAD SWAP1 PUSH2 0x1E09 DUP3 PUSH2 0x514E JUMP JUMPDEST CALLER PUSH1 0x1 PUSH1 0x1 PUSH1 0xA0 SHL SUB SWAP1 SWAP2 AND SUB PUSH2 0xD5D JUMPI DUP2 PUSH1 0x0 MSTORE PUSH1 0x13 DUP2 MSTORE PUSH1 0xFF PUSH1 0x1 PUSH1 0x40 PUSH1 0x0 KECCAK256 ADD SLOAD AND PUSH1 0x3 DUP2 LT ISZERO PUSH2 0x92C JUMPI PUSH1 0x2 EQ PUSH2 0xAF1 JUMPI PUSH2 0x1E46 PUSH2 0x5724 JUMP JUMPDEST DUP2 PUSH1 0x0 MSTORE PUSH1 0x13 DUP2 MSTORE PUSH1 0x40 PUSH1 0x0 KECCAK256 SWAP1 PUSH1 0x1 DUP3 ADD PUSH1 0x2 PUSH1 0xFF NOT DUP3 SLOAD AND OR SWAP1 SSTORE DUP2 SLOAD SWAP2 DUP3 PUSH2 0x1F05 JUMPI JUMPDEST POP PUSH32 0xA1AB8A666D1303F4C8E0554E3100D5686FB8A5547B3621312DA15A7F97538700 SWAP2 DUP4 PUSH1 0x0 MSTORE PUSH1 0x14 DUP3 MSTORE PUSH1 0x40 PUSH1 0x0 KECCAK256 PUSH1 0x1 DUP2 ADD SWAP1 DUP2 SLOAD SWAP1 PUSH1 0xFF DUP3 PUSH1 0xA0 SHR AND PUSH2 0x1EED JUMPI JUMPDEST POP POP POP PUSH1 0x40 MLOAD PUSH1 0x2 DUP2 MSTORE PUSH32 0x76C0BAD3B7F1C74587DCB478154D4C87AE6663DB97CC086B981DECF4E35A797C DUP4 CALLER SWAP3 LOG2 PUSH1 0x40 MLOAD SWAP1 DUP2 MSTORE LOG2 PUSH1 0x1 PUSH1 0x8 SSTORE STOP JUMPDEST PUSH1 0x0 SWAP1 SSTORE PUSH1 0x1 PUSH1 0x1 PUSH1 0xA8 SHL SUB NOT AND SWAP1 SSTORE DUP5 DUP1 DUP1 PUSH2 0x1EB0 JUMP JUMPDEST PUSH1 0x0 SWAP1 SSTORE PUSH1 0x0 DUP1 DUP1 DUP1 DUP6 CALLER GAS CALL PUSH2 0x1F1A PUSH2 0x5189 JUMP JUMPDEST POP ISZERO PUSH2 0x54D JUMPI DUP4 PUSH2 0x1E6C JUMP JUMPDEST CALLVALUE PUSH2 0x382 JUMPI PUSH1 0x0 CALLDATASIZE PUSH1 0x3 NOT ADD SLT PUSH2 0x382 JUMPI PUSH2 0x1F3F PUSH2 0x4ED6 JUMP JUMPDEST PUSH1 0x7 DUP1 SLOAD PUSH1 0x1 PUSH1 0x1 PUSH1 0xA0 SHL SUB NOT DUP2 AND SWAP1 SWAP2 SSTORE PUSH1 0x0 SWAP1 PUSH1 0x1 PUSH1 0x1 PUSH1 0xA0 SHL SUB AND PUSH32 0x8BE0079C531659141344CD1FD0A4F28419497F9722A3DAAFE3B4186F6B6457E0 DUP3 DUP1 LOG3 STOP JUMPDEST CALLVALUE PUSH2 0x382 JUMPI PUSH1 0x20 CALLDATASIZE PUSH1 0x3 NOT ADD SLT PUSH2 0x382 JUMPI PUSH1 0x1 PUSH1 0x1 PUSH1 0xA0 SHL SUB PUSH2 0x1FA4 PUSH2 0x4CBE JUMP JUMPDEST AND DUP1 ISZERO PUSH2 0x1FC3 JUMPI PUSH1 0x0 MSTORE PUSH1 0x3 PUSH1 0x20 MSTORE PUSH1 0x20 PUSH1 0x40 PUSH1 0x0 KECCAK256 SLOAD PUSH1 0x40 MLOAD SWAP1 DUP2 MSTORE RETURN JUMPDEST PUSH1 0x40 MLOAD PUSH4 0x22718AD9 PUSH1 0xE2 SHL DUP2 MSTORE PUSH1 0x0 PUSH1 0x4 DUP3 ADD MSTORE PUSH1 0x24 SWAP1 REVERT JUMPDEST CALLVALUE PUSH2 0x382 JUMPI PUSH1 0x0 CALLDATASIZE PUSH1 0x3 NOT ADD SLT PUSH2 0x382 JUMPI PUSH1 0x20 PUSH1 0xFF PUSH1 0x11 SLOAD AND PUSH1 0x40 MLOAD SWAP1 ISZERO ISZERO DUP2 MSTORE RETURN JUMPDEST CALLVALUE PUSH2 0x382 JUMPI PUSH1 0x20 CALLDATASIZE PUSH1 0x3 NOT ADD SLT PUSH2 0x382 JUMPI PUSH1 0x4 CALLDATALOAD PUSH2 0x201C DUP2 PUSH2 0x514E JUMP JUMPDEST CALLER PUSH1 0x1 PUSH1 0x1 PUSH1 0xA0 SHL SUB SWAP1 SWAP2 AND SUB PUSH2 0xD5D JUMPI DUP1 PUSH1 0x0 MSTORE PUSH1 0x13 PUSH1 0x20 MSTORE PUSH1 0xFF PUSH1 0x1 PUSH1 0x40 PUSH1 0x0 KECCAK256 ADD SLOAD AND PUSH1 0x3 DUP2 LT ISZERO PUSH2 0x92C JUMPI PUSH1 0x2 EQ PUSH2 0xAF1 JUMPI PUSH1 0x0 MSTORE PUSH1 0x13 PUSH1 0x20 MSTORE PUSH1 0x1 PUSH1 0x40 PUSH1 0x0 KECCAK256 ADD PUSH1 0x1 PUSH1 0xFF NOT DUP3 SLOAD AND OR SWAP1 SSTORE PUSH1 0x40 MLOAD PUSH1 0x1 DUP2 MSTORE PUSH32 0x76C0BAD3B7F1C74587DCB478154D4C87AE6663DB97CC086B981DECF4E35A797C PUSH1 0x20 CALLER SWAP3 LOG2 STOP JUMPDEST CALLVALUE PUSH2 0x382 JUMPI PUSH1 0x40 CALLDATASIZE PUSH1 0x3 NOT ADD SLT PUSH2 0x382 JUMPI PUSH1 0x4 CALLDATALOAD PUSH1 0x5 DUP2 LT ISZERO PUSH2 0x382 JUMPI PUSH1 0x1 PUSH1 0x1 PUSH1 0x40 SHL SUB PUSH1 0x24 CALLDATALOAD DUP2 DUP2 GT PUSH2 0x382 JUMPI PUSH2 0x20DC PUSH2 0x20EC SWAP2 CALLDATASIZE SWAP1 PUSH1 0x4 ADD PUSH2 0x4DF3 JUMP JUMPDEST SWAP2 SWAP1 SWAP4 PUSH2 0x20E7 PUSH2 0x4ED6 JUMP JUMPDEST PUSH2 0x4AD7 JUMP JUMPDEST SWAP2 DUP2 GT PUSH2 0x13D2 JUMPI PUSH2 0x2107 DUP2 PUSH2 0x2101 DUP5 SLOAD PUSH2 0x4B09 JUMP JUMPDEST DUP5 PUSH2 0x5301 JUMP JUMPDEST PUSH1 0x0 PUSH1 0x1F DUP3 GT PUSH1 0x1 EQ PUSH2 0x2142 JUMPI DUP2 SWAP3 SWAP4 PUSH1 0x0 SWAP3 PUSH2 0x2137 JUMPI JUMPDEST POP POP PUSH1 0x0 NOT PUSH1 0x3 DUP4 SWAP1 SHL SHR NOT AND PUSH1 0x1 SWAP2 SWAP1 SWAP2 SHL OR SWAP1 SSTORE STOP JUMPDEST ADD CALLDATALOAD SWAP1 POP DUP4 DUP1 PUSH2 0x211F JUMP JUMPDEST PUSH1 0x1F NOT DUP3 AND SWAP4 DUP4 PUSH1 0x0 MSTORE PUSH1 0x20 SWAP2 DUP3 PUSH1 0x0 KECCAK256 SWAP3 PUSH1 0x0 SWAP1 JUMPDEST DUP8 DUP3 LT PUSH2 0x2190 JUMPI POP POP DUP4 PUSH1 0x1 SWAP6 SWAP7 LT PUSH2 0x2176 JUMPI JUMPDEST POP POP POP DUP2 SHL ADD SWAP1 SSTORE STOP JUMPDEST ADD CALLDATALOAD PUSH1 0x0 NOT PUSH1 0x3 DUP5 SWAP1 SHL PUSH1 0xF8 AND SHR NOT AND SWAP1 SSTORE DUP4 DUP1 DUP1 PUSH2 0x216C JUMP JUMPDEST DUP1 PUSH1 0x1 DUP5 SWAP7 DUP3 SWAP5 SWAP6 DUP8 ADD CALLDATALOAD DUP2 SSTORE ADD SWAP6 ADD SWAP3 ADD SWAP1 PUSH2 0x2158 JUMP JUMPDEST CALLVALUE PUSH2 0x382 JUMPI PUSH1 0x20 CALLDATASIZE PUSH1 0x3 NOT ADD SLT PUSH2 0x382 JUMPI PUSH1 0x4 CALLDATALOAD PUSH2 0x21C5 DUP2 PUSH2 0x514E JUMP JUMPDEST CALLER PUSH1 0x1 PUSH1 0x1 PUSH1 0xA0 SHL SUB SWAP1 SWAP2 AND SUB PUSH2 0xD5D JUMPI DUP1 PUSH1 0x0 MSTORE PUSH1 0x13 PUSH1 0x20 MSTORE PUSH1 0xFF PUSH1 0x1 PUSH1 0x40 PUSH1 0x0 KECCAK256 ADD SLOAD AND PUSH1 0x3 DUP2 LT ISZERO PUSH2 0x92C JUMPI PUSH1 0x2 EQ PUSH2 0xAF1 JUMPI PUSH1 0x0 MSTORE PUSH1 0x13 PUSH1 0x20 MSTORE PUSH1 0x1 PUSH1 0x40 PUSH1 0x0 KECCAK256 ADD PUSH1 0xFF NOT DUP2 SLOAD AND SWAP1 SSTORE PUSH1 0x40 MLOAD PUSH1 0x0 DUP2 MSTORE PUSH32 0x76C0BAD3B7F1C74587DCB478154D4C87AE6663DB97CC086B981DECF4E35A797C PUSH1 0x20 CALLER SWAP3 LOG2 STOP JUMPDEST CALLVALUE PUSH2 0x382 JUMPI PUSH1 0xE0 CALLDATASIZE PUSH1 0x3 NOT ADD SLT PUSH2 0x382 JUMPI PUSH2 0x225B PUSH2 0x4CBE JUMP JUMPDEST PUSH1 0xC0 MSTORE PUSH1 0x24 CALLDATALOAD PUSH1 0x1 PUSH1 0x1 PUSH1 0x40 SHL SUB DUP2 GT PUSH2 0x382 JUMPI PUSH2 0x227D SWAP1 CALLDATASIZE SWAP1 PUSH1 0x4 ADD PUSH2 0x4E53 JUMP JUMPDEST PUSH2 0x140 MSTORE PUSH1 0x44 CALLDATALOAD PUSH1 0x1 PUSH1 0x1 PUSH1 0x40 SHL SUB DUP2 GT PUSH2 0x382 JUMPI PUSH2 0x22A0 SWAP1 CALLDATASIZE SWAP1 PUSH1 0x4 ADD PUSH2 0x4E53 JUMP JUMPDEST PUSH1 0xA0 MSTORE PUSH1 0x80 MSTORE PUSH1 0x64 CALLDATALOAD PUSH1 0x1 PUSH1 0x1 PUSH1 0x40 SHL SUB DUP2 GT PUSH2 0x382 JUMPI PUSH2 0x22C5 SWAP1 CALLDATASIZE SWAP1 PUSH1 0x4 ADD PUSH2 0x4E53 JUMP JUMPDEST PUSH2 0x120 MSTORE PUSH2 0x1A0 MSTORE PUSH1 0x84 CALLDATALOAD PUSH1 0x1 PUSH1 0x1 PUSH1 0x40 SHL SUB DUP2 GT PUSH2 0x382 JUMPI PUSH2 0x22EC SWAP1 CALLDATASIZE SWAP1 PUSH1 0x4 ADD PUSH2 0x4E53 JUMP JUMPDEST PUSH2 0x180 MSTORE PUSH2 0x200 MSTORE PUSH1 0xA4 CALLDATALOAD PUSH1 0x1 PUSH1 0x1 PUSH1 0x40 SHL SUB DUP2 GT PUSH2 0x382 JUMPI PUSH2 0x2313 SWAP1 CALLDATASIZE SWAP1 PUSH1 0x4 ADD PUSH2 0x4E53 JUMP JUMPDEST PUSH1 0x1 PUSH1 0x1 PUSH1 0x40 SHL SUB PUSH1 0xC4 SWAP4 SWAP3 SWAP4 CALLDATALOAD GT PUSH2 0x382 JUMPI PUSH2 0x2335 CALLDATASIZE PUSH1 0xC4 CALLDATALOAD PUSH1 0x4 ADD PUSH2 0x4E53 JUMP JUMPDEST PUSH2 0x1E0 MSTORE PUSH2 0x160 MSTORE PUSH2 0x2345 PUSH2 0x4ED6 JUMP JUMPDEST PUSH2 0x234D PUSH2 0x56AE JUMP JUMPDEST PUSH1 0xA0 MLOAD PUSH2 0x140 MLOAD SWAP1 DUP2 EQ SWAP1 DUP2 ISZERO SWAP2 PUSH2 0x2DD9 JUMPI JUMPDEST DUP2 ISZERO PUSH2 0x2DCB JUMPI JUMPDEST DUP2 ISZERO PUSH2 0x2DC0 JUMPI JUMPDEST DUP2 ISZERO PUSH2 0x2DB2 JUMPI JUMPDEST POP PUSH2 0x2DA0 JUMPI PUSH1 0x64 PUSH2 0x238B PUSH2 0x140 MLOAD PUSH1 0xC SLOAD PUSH2 0x56CC JUMP JUMPDEST GT PUSH2 0x1750 JUMPI PUSH2 0x23AC PUSH2 0x239F PUSH2 0x140 MLOAD PUSH2 0x56D9 JUMP JUMPDEST PUSH1 0x40 MLOAD DUP1 PUSH2 0x1C0 MSTORE PUSH2 0x4BAF JUMP JUMPDEST PUSH2 0x140 MLOAD PUSH2 0x1C0 MLOAD MSTORE PUSH1 0x1F NOT PUSH2 0x23C4 PUSH2 0x140 MLOAD PUSH2 0x56D9 JUMP JUMPDEST ADD CALLDATASIZE PUSH1 0x20 PUSH2 0x1C0 MLOAD ADD CALLDATACOPY PUSH1 0x0 PUSH1 0xE0 MSTORE JUMPDEST PUSH2 0x140 MLOAD PUSH1 0xE0 MLOAD LT ISZERO PUSH2 0x2D8F JUMPI PUSH2 0x23F1 PUSH1 0xA SLOAD DUP1 PUSH2 0x100 MSTORE PUSH2 0x52DC JUMP JUMPDEST PUSH1 0xA SSTORE PUSH2 0x2403 PUSH2 0x100 MLOAD PUSH1 0xC0 MLOAD PUSH2 0x5406 JUMP JUMPDEST PUSH2 0x100 MLOAD PUSH1 0x0 MSTORE PUSH1 0x13 PUSH1 0x20 MSTORE PUSH1 0x40 PUSH1 0x0 KECCAK256 SWAP1 PUSH1 0x1 DUP3 ADD PUSH1 0xFF NOT DUP2 SLOAD AND SWAP1 SSTORE PUSH2 0x2432 PUSH1 0xE0 MLOAD PUSH1 0xA0 MLOAD PUSH1 0x80 MLOAD PUSH2 0x56F0 JUMP JUMPDEST CALLDATALOAD PUSH1 0x9 DUP4 ADD SSTORE PUSH2 0x2448 PUSH1 0xE0 MLOAD PUSH2 0x140 MLOAD DUP6 PUSH2 0x5700 JUMP JUMPDEST PUSH1 0x1 PUSH1 0x1 PUSH1 0x40 SHL SUB DUP2 GT PUSH2 0x13D2 JUMPI PUSH2 0x2470 DUP2 PUSH2 0x2467 PUSH1 0xA DUP8 ADD SLOAD PUSH2 0x4B09 JUMP JUMPDEST PUSH1 0xA DUP8 ADD PUSH2 0x5301 JUMP JUMPDEST PUSH1 0x0 SWAP2 PUSH1 0x1F DUP3 GT PUSH1 0x1 EQ PUSH2 0x2D21 JUMPI SWAP2 DUP2 SWAP3 PUSH1 0x0 SWAP3 PUSH2 0x2D16 JUMPI JUMPDEST POP POP DUP2 PUSH1 0x1 SHL SWAP2 PUSH1 0x0 NOT SWAP1 PUSH1 0x3 SHL SHR NOT AND OR PUSH1 0xA DUP4 ADD SSTORE JUMPDEST PUSH1 0xC0 MLOAD PUSH1 0xB DUP4 ADD DUP1 SLOAD PUSH1 0x1 PUSH1 0x1 PUSH1 0xA8 SHL SUB NOT AND PUSH1 0x1 PUSH1 0x1 PUSH1 0xA0 SHL SUB SWAP3 SWAP1 SWAP3 AND SWAP2 SWAP1 SWAP2 OR SWAP1 SSTORE PUSH1 0x12 DUP3 ADD DUP1 SLOAD PUSH1 0xFF NOT AND PUSH1 0x1 OR SWAP1 SSTORE PUSH2 0x1E0 MLOAD PUSH1 0xE0 MLOAD SWAP1 DUP2 LT ISZERO PUSH2 0x29A8 JUMPI PUSH2 0x160 MLOAD SWAP1 PUSH1 0x5 SHL DUP2 ADD CALLDATALOAD PUSH1 0xBE NOT DUP3 CALLDATASIZE SUB ADD DUP2 SLT ISZERO PUSH2 0x382 JUMPI PUSH2 0x2508 SWAP2 ADD DUP1 PUSH2 0x5379 JUMP JUMPDEST PUSH1 0x1 PUSH1 0x1 PUSH1 0x40 SHL SUB DUP2 GT PUSH2 0x13D2 JUMPI PUSH2 0x2530 DUP2 PUSH2 0x2527 PUSH1 0x3 DUP8 ADD SLOAD PUSH2 0x4B09 JUMP JUMPDEST PUSH1 0x3 DUP8 ADD PUSH2 0x5301 JUMP JUMPDEST PUSH1 0x0 SWAP2 PUSH1 0x1F DUP3 GT PUSH1 0x1 EQ PUSH2 0x2CA8 JUMPI SWAP2 DUP2 SWAP3 PUSH1 0x0 SWAP3 PUSH2 0x2C9D JUMPI JUMPDEST POP POP DUP2 PUSH1 0x1 SHL SWAP2 PUSH1 0x0 NOT SWAP1 PUSH1 0x3 SHL SHR NOT AND OR PUSH1 0x3 DUP4 ADD SSTORE JUMPDEST PUSH2 0x257D PUSH1 0xE0 MLOAD PUSH1 0x5 SHL PUSH2 0x160 MLOAD SWAP1 DUP2 ADD CALLDATALOAD ADD PUSH1 0x20 DUP2 ADD SWAP1 PUSH2 0x5379 JUMP JUMPDEST PUSH1 0x1 PUSH1 0x1 PUSH1 0x40 SHL SUB DUP2 GT PUSH2 0x13D2 JUMPI PUSH2 0x25A5 DUP2 PUSH2 0x259C PUSH1 0x4 DUP8 ADD SLOAD PUSH2 0x4B09 JUMP JUMPDEST PUSH1 0x4 DUP8 ADD PUSH2 0x5301 JUMP JUMPDEST PUSH1 0x0 SWAP2 PUSH1 0x1F DUP3 GT PUSH1 0x1 EQ PUSH2 0x2C2F JUMPI SWAP2 DUP2 SWAP3 PUSH1 0x0 SWAP3 PUSH2 0x2C24 JUMPI JUMPDEST POP POP DUP2 PUSH1 0x1 SHL SWAP2 PUSH1 0x0 NOT SWAP1 PUSH1 0x3 SHL SHR NOT AND OR PUSH1 0x4 DUP4 ADD SSTORE JUMPDEST PUSH2 0x25F2 PUSH1 0xE0 MLOAD PUSH1 0x5 SHL PUSH2 0x160 MLOAD SWAP1 DUP2 ADD CALLDATALOAD ADD PUSH1 0x40 DUP2 ADD SWAP1 PUSH2 0x5379 JUMP JUMPDEST PUSH1 0x1 PUSH1 0x1 PUSH1 0x40 SHL SUB DUP2 GT PUSH2 0x13D2 JUMPI PUSH2 0x261A DUP2 PUSH2 0x2611 PUSH1 0x5 DUP8 ADD SLOAD PUSH2 0x4B09 JUMP JUMPDEST PUSH1 0x5 DUP8 ADD PUSH2 0x5301 JUMP JUMPDEST PUSH1 0x0 SWAP2 PUSH1 0x1F DUP3 GT PUSH1 0x1 EQ PUSH2 0x2BB6 JUMPI SWAP2 DUP2 SWAP3 PUSH1 0x0 SWAP3 PUSH2 0x2BAB JUMPI JUMPDEST POP POP DUP2 PUSH1 0x1 SHL SWAP2 PUSH1 0x0 NOT SWAP1 PUSH1 0x3 SHL SHR NOT AND OR PUSH1 0x5 DUP4 ADD SSTORE JUMPDEST PUSH2 0x2667 PUSH1 0xE0 MLOAD PUSH1 0x5 SHL PUSH2 0x160 MLOAD SWAP1 DUP2 ADD CALLDATALOAD ADD PUSH1 0x60 DUP2 ADD SWAP1 PUSH2 0x5379 JUMP JUMPDEST PUSH1 0x1 PUSH1 0x1 PUSH1 0x40 SHL SUB DUP2 GT PUSH2 0x13D2 JUMPI PUSH2 0x268F DUP2 PUSH2 0x2686 PUSH1 0x6 DUP8 ADD SLOAD PUSH2 0x4B09 JUMP JUMPDEST PUSH1 0x6 DUP8 ADD PUSH2 0x5301 JUMP JUMPDEST PUSH1 0x0 SWAP2 PUSH1 0x1F DUP3 GT PUSH1 0x1 EQ PUSH2 0x2B3D JUMPI SWAP2 DUP2 SWAP3 PUSH1 0x0 SWAP3 PUSH2 0x2B32 JUMPI JUMPDEST POP POP DUP2 PUSH1 0x1 SHL SWAP2 PUSH1 0x0 NOT SWAP1 PUSH1 0x3 SHL SHR NOT AND OR PUSH1 0x6 DUP4 ADD SSTORE JUMPDEST PUSH2 0x26DC PUSH1 0xE0 MLOAD PUSH1 0x5 SHL PUSH2 0x160 MLOAD SWAP1 DUP2 ADD CALLDATALOAD ADD PUSH1 0x80 DUP2 ADD SWAP1 PUSH2 0x5379 JUMP JUMPDEST PUSH1 0x1 PUSH1 0x1 PUSH1 0x40 SHL SUB DUP2 SWAP5 SWAP3 SWAP5 GT PUSH2 0x13D2 JUMPI PUSH2 0x2707 DUP2 PUSH2 0x26FE PUSH1 0x7 DUP6 ADD SLOAD PUSH2 0x4B09 JUMP JUMPDEST PUSH1 0x7 DUP6 ADD PUSH2 0x5301 JUMP JUMPDEST PUSH1 0x0 SWAP4 PUSH1 0x1F DUP3 GT PUSH1 0x1 EQ PUSH2 0x2AC2 JUMPI SWAP4 DUP2 SWAP3 SWAP4 SWAP5 PUSH1 0x0 SWAP3 PUSH2 0x2AB7 JUMPI JUMPDEST POP POP DUP2 PUSH1 0x1 SHL SWAP2 PUSH1 0x0 NOT SWAP1 PUSH1 0x3 SHL SHR NOT AND OR PUSH1 0x7 DUP3 ADD SSTORE JUMPDEST PUSH2 0x27A9 PUSH2 0x2765 PUSH1 0xE0 MLOAD PUSH1 0xA0 PUSH2 0x160 MLOAD DUP3 PUSH1 0x5 SHL DUP2 ADD CALLDATALOAD ADD ADD CALLDATALOAD PUSH1 0x8 DUP6 ADD SSTORE PUSH2 0x120 MLOAD PUSH2 0x1A0 MLOAD PUSH2 0x5700 JUMP JUMPDEST SWAP2 SWAP1 PUSH2 0x279B PUSH2 0x277D PUSH1 0xE0 MLOAD PUSH2 0x180 MLOAD PUSH2 0x200 MLOAD PUSH2 0x56F0 JUMP JUMPDEST CALLDATALOAD PUSH2 0x278B PUSH1 0xE0 MLOAD DUP9 DUP12 PUSH2 0x5700 JUMP JUMPDEST SWAP3 SWAP1 SWAP4 PUSH1 0x40 MLOAD SWAP7 PUSH2 0x12B5 DUP9 PUSH2 0x4B43 JUMP JUMPDEST DUP6 MSTORE PUSH1 0x20 DUP6 ADD MSTORE CALLDATASIZE SWAP2 PUSH2 0x4D2A JUMP JUMPDEST PUSH1 0x40 DUP3 ADD MSTORE DUP1 MLOAD DUP1 MLOAD SWAP1 PUSH1 0x1 PUSH1 0x1 PUSH1 0x40 SHL SUB DUP3 GT PUSH2 0x13D2 JUMPI PUSH2 0x27DB DUP3 PUSH2 0x27D2 PUSH1 0xF DUP8 ADD SLOAD PUSH2 0x4B09 JUMP JUMPDEST PUSH1 0xF DUP8 ADD PUSH2 0x5301 JUMP JUMPDEST PUSH1 0x20 SWAP1 PUSH1 0x1F DUP4 GT PUSH1 0x1 EQ PUSH2 0x2A44 JUMPI PUSH1 0x40 SWAP4 SWAP3 SWAP2 PUSH1 0x0 SWAP2 DUP4 PUSH2 0x2A39 JUMPI JUMPDEST POP POP DUP2 PUSH1 0x1 SHL SWAP2 PUSH1 0x0 NOT SWAP1 PUSH1 0x3 SHL SHR NOT AND OR PUSH1 0xF DUP5 ADD SSTORE JUMPDEST PUSH1 0x20 DUP2 ADD MLOAD PUSH1 0x10 DUP5 ADD SSTORE ADD MLOAD DUP1 MLOAD SWAP1 PUSH1 0x1 PUSH1 0x1 PUSH1 0x40 SHL SUB DUP3 GT PUSH2 0x13D2 JUMPI PUSH2 0x283D DUP3 PUSH2 0x124A PUSH1 0x11 DUP7 ADD SLOAD PUSH2 0x4B09 JUMP JUMPDEST PUSH1 0x20 SWAP1 PUSH1 0x1F DUP4 GT PUSH1 0x1 EQ PUSH2 0x29C9 JUMPI PUSH1 0x11 SWAP3 SWAP2 PUSH1 0x0 SWAP2 DUP4 PUSH2 0x29BE JUMPI JUMPDEST POP POP DUP2 PUSH1 0x1 SHL SWAP2 PUSH1 0x0 NOT SWAP1 PUSH1 0x3 SHL SHR NOT AND OR SWAP2 ADD SSTORE JUMPDEST PUSH2 0x2881 PUSH1 0xE0 MLOAD PUSH2 0x180 MLOAD PUSH2 0x200 MLOAD PUSH2 0x56F0 JUMP JUMPDEST CALLDATALOAD PUSH1 0x0 MSTORE PUSH1 0x15 PUSH1 0x20 MSTORE PUSH2 0x289B PUSH2 0x100 MLOAD PUSH1 0x40 PUSH1 0x0 KECCAK256 PUSH2 0x53AB JUMP JUMPDEST PUSH2 0x28BA PUSH2 0x28B1 PUSH2 0x12B5 PUSH1 0xE0 MLOAD PUSH2 0x140 MLOAD DUP7 PUSH2 0x5700 JUMP JUMPDEST PUSH2 0x100 MLOAD PUSH2 0x557C JUMP JUMPDEST PUSH2 0x28C5 PUSH1 0xC SLOAD PUSH2 0x52DC JUMP JUMPDEST PUSH1 0xC SSTORE PUSH2 0x1C0 MLOAD DUP1 MLOAD SWAP1 PUSH1 0xE0 MLOAD SWAP2 DUP3 LT ISZERO PUSH2 0x29A8 JUMPI PUSH1 0x20 SWAP1 PUSH2 0x100 MLOAD SWAP3 PUSH1 0x5 SHL ADD ADD MSTORE PUSH2 0x28F9 PUSH1 0xE0 MLOAD PUSH1 0xA0 MLOAD PUSH1 0x80 MLOAD PUSH2 0x56F0 JUMP JUMPDEST CALLDATALOAD PUSH1 0x40 MLOAD SWAP1 DUP2 MSTORE PUSH1 0x1 PUSH1 0x20 DUP3 ADD MSTORE PUSH1 0x1 DUP1 PUSH1 0xA0 SHL SUB PUSH1 0xC0 MLOAD AND SWAP1 PUSH32 0x95ABEB4465B4AD62FEB35F85EB0A053AC518E5B0F02A7C23B1EF9B3FA167B069 PUSH1 0x40 PUSH2 0x100 MLOAD SWAP3 LOG3 PUSH1 0x0 DUP1 MLOAD PUSH1 0x20 PUSH2 0x593E DUP4 CODECOPY DUP2 MLOAD SWAP2 MSTORE PUSH2 0x295E PUSH1 0xE0 MLOAD PUSH2 0x120 MLOAD PUSH2 0x1A0 MLOAD PUSH2 0x5700 JUMP JUMPDEST PUSH2 0x298B PUSH2 0x2977 PUSH1 0xE0 SWAP5 SWAP4 SWAP5 MLOAD PUSH2 0x180 MLOAD PUSH2 0x200 MLOAD PUSH2 0x56F0 JUMP JUMPDEST CALLDATALOAD SWAP4 PUSH1 0x40 MLOAD SWAP3 PUSH1 0x40 DUP5 MSTORE PUSH1 0x40 DUP5 ADD SWAP2 PUSH2 0x53E5 JUMP JUMPDEST SWAP3 PUSH1 0x20 DUP3 ADD MSTORE DUP1 PUSH2 0x100 MLOAD SWAP4 SUB SWAP1 LOG2 PUSH1 0x1 PUSH1 0xE0 MLOAD ADD PUSH1 0xE0 MSTORE PUSH2 0x23D4 JUMP JUMPDEST PUSH4 0x4E487B71 PUSH1 0xE0 SHL PUSH1 0x0 MSTORE PUSH1 0x32 PUSH1 0x4 MSTORE PUSH1 0x24 PUSH1 0x0 REVERT JUMPDEST ADD MLOAD SWAP1 POP DUP8 DUP1 PUSH2 0x2858 JUMP JUMPDEST SWAP1 PUSH1 0x11 DUP5 ADD PUSH1 0x0 MSTORE PUSH1 0x20 PUSH1 0x0 KECCAK256 SWAP2 PUSH1 0x0 JUMPDEST PUSH1 0x1F NOT DUP6 AND DUP2 LT PUSH2 0x2A21 JUMPI POP SWAP2 DUP4 SWAP2 PUSH1 0x1 SWAP4 PUSH1 0x11 SWAP6 PUSH1 0x1F NOT DUP2 AND LT PUSH2 0x2A08 JUMPI JUMPDEST POP POP POP DUP2 SHL ADD SWAP2 ADD SSTORE PUSH2 0x286E JUMP JUMPDEST ADD MLOAD PUSH1 0x0 NOT PUSH1 0xF8 DUP5 PUSH1 0x3 SHL AND SHR NOT AND SWAP1 SSTORE DUP8 DUP1 DUP1 PUSH2 0x29FA JUMP JUMPDEST SWAP2 SWAP3 PUSH1 0x20 PUSH1 0x1 DUP2 SWAP3 DUP7 DUP6 ADD MLOAD DUP2 SSTORE ADD SWAP5 ADD SWAP3 ADD PUSH2 0x29DA JUMP JUMPDEST ADD MLOAD SWAP1 POP DUP9 DUP1 PUSH2 0x27F7 JUMP JUMPDEST SWAP1 PUSH1 0xF DUP6 ADD PUSH1 0x0 MSTORE PUSH1 0x20 PUSH1 0x0 KECCAK256 SWAP2 PUSH1 0x0 JUMPDEST PUSH1 0x1F NOT DUP6 AND DUP2 LT PUSH2 0x2A9F JUMPI POP SWAP2 DUP4 SWAP2 PUSH1 0x1 SWAP4 PUSH1 0x40 SWAP7 SWAP6 PUSH1 0x1F NOT DUP2 AND LT PUSH2 0x2A86 JUMPI JUMPDEST POP POP POP DUP2 SHL ADD PUSH1 0xF DUP5 ADD SSTORE PUSH2 0x280F JUMP JUMPDEST ADD MLOAD PUSH1 0x0 NOT PUSH1 0xF8 DUP5 PUSH1 0x3 SHL AND SHR NOT AND SWAP1 SSTORE DUP9 DUP1 DUP1 PUSH2 0x2A76 JUMP JUMPDEST SWAP2 SWAP3 PUSH1 0x20 PUSH1 0x1 DUP2 SWAP3 DUP7 DUP6 ADD MLOAD DUP2 SSTORE ADD SWAP5 ADD SWAP3 ADD PUSH2 0x2A55 JUMP JUMPDEST ADD CALLDATALOAD SWAP1 POP DUP7 DUP1 PUSH2 0x2722 JUMP JUMPDEST PUSH1 0x7 DUP4 ADD PUSH1 0x0 MSTORE PUSH1 0x20 PUSH1 0x0 KECCAK256 SWAP1 PUSH1 0x0 SWAP6 JUMPDEST PUSH1 0x1F NOT DUP5 AND DUP8 LT PUSH2 0x2B1A JUMPI PUSH1 0x1 SWAP5 SWAP6 SWAP7 POP DUP4 PUSH1 0x1F NOT DUP2 AND LT PUSH2 0x2B00 JUMPI JUMPDEST POP POP POP DUP2 SHL ADD PUSH1 0x7 DUP3 ADD SSTORE PUSH2 0x273A JUMP JUMPDEST ADD CALLDATALOAD PUSH1 0x0 NOT PUSH1 0x3 DUP5 SWAP1 SHL PUSH1 0xF8 AND SHR NOT AND SWAP1 SSTORE DUP7 DUP1 DUP1 PUSH2 0x2AF0 JUMP JUMPDEST DUP2 DUP2 ADD CALLDATALOAD DUP4 SSTORE PUSH1 0x20 SWAP7 DUP8 ADD SWAP7 PUSH1 0x1 SWAP1 SWAP4 ADD SWAP3 ADD PUSH2 0x2AD3 JUMP JUMPDEST ADD CALLDATALOAD SWAP1 POP DUP7 DUP1 PUSH2 0x26A8 JUMP JUMPDEST PUSH1 0x6 DUP6 ADD PUSH1 0x0 MSTORE PUSH1 0x20 PUSH1 0x0 KECCAK256 SWAP1 PUSH1 0x0 SWAP4 JUMPDEST PUSH1 0x1F NOT DUP5 AND DUP6 LT PUSH2 0x2B93 JUMPI PUSH1 0x1 SWAP5 POP DUP4 PUSH1 0x1F NOT DUP2 AND LT PUSH2 0x2B79 JUMPI JUMPDEST POP POP POP DUP2 SHL ADD PUSH1 0x6 DUP4 ADD SSTORE PUSH2 0x26C0 JUMP JUMPDEST ADD CALLDATALOAD PUSH1 0x0 NOT PUSH1 0x3 DUP5 SWAP1 SHL PUSH1 0xF8 AND SHR NOT AND SWAP1 SSTORE DUP7 DUP1 DUP1 PUSH2 0x2B69 JUMP JUMPDEST DUP2 DUP2 ADD CALLDATALOAD DUP4 SSTORE PUSH1 0x20 SWAP5 DUP6 ADD SWAP5 PUSH1 0x1 SWAP1 SWAP4 ADD SWAP3 ADD PUSH2 0x2B4E JUMP JUMPDEST ADD CALLDATALOAD SWAP1 POP DUP7 DUP1 PUSH2 0x2633 JUMP JUMPDEST PUSH1 0x5 DUP6 ADD PUSH1 0x0 MSTORE PUSH1 0x20 PUSH1 0x0 KECCAK256 SWAP1 PUSH1 0x0 SWAP4 JUMPDEST PUSH1 0x1F NOT DUP5 AND DUP6 LT PUSH2 0x2C0C JUMPI PUSH1 0x1 SWAP5 POP DUP4 PUSH1 0x1F NOT DUP2 AND LT PUSH2 0x2BF2 JUMPI JUMPDEST POP POP POP DUP2 SHL ADD PUSH1 0x5 DUP4 ADD SSTORE PUSH2 0x264B JUMP JUMPDEST ADD CALLDATALOAD PUSH1 0x0 NOT PUSH1 0x3 DUP5 SWAP1 SHL PUSH1 0xF8 AND SHR NOT AND SWAP1 SSTORE DUP7 DUP1 DUP1 PUSH2 0x2BE2 JUMP JUMPDEST DUP2 DUP2 ADD CALLDATALOAD DUP4 SSTORE PUSH1 0x20 SWAP5 DUP6 ADD SWAP5 PUSH1 0x1 SWAP1 SWAP4 ADD SWAP3 ADD PUSH2 0x2BC7 JUMP JUMPDEST ADD CALLDATALOAD SWAP1 POP DUP7 DUP1 PUSH2 0x25BE JUMP JUMPDEST PUSH1 0x4 DUP6 ADD PUSH1 0x0 MSTORE PUSH1 0x20 PUSH1 0x0 KECCAK256 SWAP1 PUSH1 0x0 SWAP4 JUMPDEST PUSH1 0x1F NOT DUP5 AND DUP6 LT PUSH2 0x2C85 JUMPI PUSH1 0x1 SWAP5 POP DUP4 PUSH1 0x1F NOT DUP2 AND LT PUSH2 0x2C6B JUMPI JUMPDEST POP POP POP DUP2 SHL ADD PUSH1 0x4 DUP4 ADD SSTORE PUSH2 0x25D6 JUMP JUMPDEST ADD CALLDATALOAD PUSH1 0x0 NOT PUSH1 0x3 DUP5 SWAP1 SHL PUSH1 0xF8 AND SHR NOT AND SWAP1 SSTORE DUP7 DUP1 DUP1 PUSH2 0x2C5B JUMP JUMPDEST DUP2 DUP2 ADD CALLDATALOAD DUP4 SSTORE PUSH1 0x20 SWAP5 DUP6 ADD SWAP5 PUSH1 0x1 SWAP1 SWAP4 ADD SWAP3 ADD PUSH2 0x2C40 JUMP JUMPDEST ADD CALLDATALOAD SWAP1 POP DUP7 DUP1 PUSH2 0x2549 JUMP JUMPDEST PUSH1 0x3 DUP6 ADD PUSH1 0x0 MSTORE PUSH1 0x20 PUSH1 0x0 KECCAK256 SWAP1 PUSH1 0x0 SWAP4 JUMPDEST PUSH1 0x1F NOT DUP5 AND DUP6 LT PUSH2 0x2CFE JUMPI PUSH1 0x1 SWAP5 POP DUP4 PUSH1 0x1F NOT DUP2 AND LT PUSH2 0x2CE4 JUMPI JUMPDEST POP POP POP DUP2 SHL ADD PUSH1 0x3 DUP4 ADD SSTORE PUSH2 0x2561 JUMP JUMPDEST ADD CALLDATALOAD PUSH1 0x0 NOT PUSH1 0x3 DUP5 SWAP1 SHL PUSH1 0xF8 AND SHR NOT AND SWAP1 SSTORE DUP7 DUP1 DUP1 PUSH2 0x2CD4 JUMP JUMPDEST DUP2 DUP2 ADD CALLDATALOAD DUP4 SSTORE PUSH1 0x20 SWAP5 DUP6 ADD SWAP5 PUSH1 0x1 SWAP1 SWAP4 ADD SWAP3 ADD PUSH2 0x2CB9 JUMP JUMPDEST ADD CALLDATALOAD SWAP1 POP DUP7 DUP1 PUSH2 0x2489 JUMP JUMPDEST PUSH1 0xA DUP6 ADD PUSH1 0x0 MSTORE PUSH1 0x20 PUSH1 0x0 KECCAK256 SWAP1 PUSH1 0x0 SWAP4 JUMPDEST PUSH1 0x1F NOT DUP5 AND DUP6 LT PUSH2 0x2D77 JUMPI PUSH1 0x1 SWAP5 POP DUP4 PUSH1 0x1F NOT DUP2 AND LT PUSH2 0x2D5D JUMPI JUMPDEST POP POP POP DUP2 SHL ADD PUSH1 0xA DUP4 ADD SSTORE PUSH2 0x24A1 JUMP JUMPDEST ADD CALLDATALOAD PUSH1 0x0 NOT PUSH1 0x3 DUP5 SWAP1 SHL PUSH1 0xF8 AND SHR NOT AND SWAP1 SSTORE DUP7 DUP1 DUP1 PUSH2 0x2D4D JUMP JUMPDEST DUP2 DUP2 ADD CALLDATALOAD DUP4 SSTORE PUSH1 0x20 SWAP5 DUP6 ADD SWAP5 PUSH1 0x1 SWAP1 SWAP4 ADD SWAP3 ADD PUSH2 0x2D32 JUMP JUMPDEST PUSH1 0x40 MLOAD DUP1 PUSH2 0x7DD PUSH2 0x1C0 MLOAD DUP3 PUSH2 0x4E83 JUMP JUMPDEST PUSH1 0x40 MLOAD PUSH4 0x512509D3 PUSH1 0xE1 SHL DUP2 MSTORE PUSH1 0x4 SWAP1 REVERT JUMPDEST SWAP1 POP PUSH2 0x1E0 MLOAD EQ ISZERO DUP5 PUSH2 0x2375 JUMP JUMPDEST DUP3 DUP2 EQ ISZERO SWAP2 POP PUSH2 0x236E JUMP JUMPDEST PUSH2 0x180 MLOAD DUP2 EQ ISZERO SWAP2 POP PUSH2 0x2367 JUMP JUMPDEST PUSH2 0x120 MLOAD DUP2 EQ ISZERO SWAP2 POP PUSH2 0x2360 JUMP JUMPDEST CALLVALUE PUSH2 0x382 JUMPI PUSH1 0x80 CALLDATASIZE PUSH1 0x3 NOT ADD SLT PUSH2 0x382 JUMPI PUSH1 0x4 CALLDATALOAD PUSH1 0x44 CALLDATALOAD DUP1 ISZERO ISZERO PUSH1 0x24 CALLDATALOAD DUP2 DUP4 SUB PUSH2 0x382 JUMPI PUSH1 0x64 CALLDATALOAD PUSH1 0x1 PUSH1 0x1 PUSH1 0x40 SHL SUB DUP2 GT PUSH2 0x382 JUMPI PUSH2 0x2E2A SWAP1 CALLDATASIZE SWAP1 PUSH1 0x4 ADD PUSH2 0x4DF3 JUMP JUMPDEST PUSH1 0xE SLOAD SWAP1 SWAP5 SWAP2 SWAP1 PUSH1 0x1 PUSH1 0x1 PUSH1 0xA0 SHL SUB AND CALLER SUB PUSH2 0x2F96 JUMPI PUSH32 0xEE6088724BCECC2617103F0482E6237C070827162AB05C426EA5B173785DEC98 SWAP5 PUSH2 0x2F44 SWAP3 PUSH2 0x2E6E PUSH2 0x56AE JUMP JUMPDEST PUSH2 0x2E77 DUP9 PUSH2 0x514E JUMP JUMPDEST POP PUSH2 0x2E81 DUP6 PUSH2 0x514E JUMP JUMPDEST POP DUP8 PUSH1 0x0 MSTORE PUSH1 0x13 PUSH1 0x20 MSTORE PUSH1 0x40 PUSH1 0x0 KECCAK256 PUSH1 0xC DUP2 ADD PUSH1 0xD DUP3 ADD DUP1 SLOAD SWAP2 PUSH1 0x1 PUSH1 0x1 PUSH1 0x80 SHL SUB SWAP5 DUP6 PUSH2 0x2EB0 DUP2 DUP7 AND PUSH2 0x5772 JUMP JUMPDEST AND PUSH1 0x1 PUSH1 0x1 PUSH1 0x80 SHL SUB NOT SWAP5 DUP6 AND OR DUP4 SSTORE ISZERO PUSH2 0x2F56 JUMPI SWAP1 DUP2 PUSH1 0xE SWAP3 SLOAD DUP5 DUP8 PUSH2 0x2ED8 DUP2 DUP5 AND PUSH2 0x5772 JUMP JUMPDEST AND SWAP2 AND OR SWAP1 SSTORE PUSH2 0x2F0E PUSH2 0x2EEE DUP3 SLOAD PUSH1 0x80 SHR PUSH2 0x5772 JUMP JUMPDEST DUP3 SLOAD PUSH1 0x1 PUSH1 0x1 PUSH1 0x80 SHL SUB AND PUSH1 0x80 SWAP2 SWAP1 SWAP2 SHL PUSH1 0x1 PUSH1 0x1 PUSH1 0x80 SHL SUB NOT AND OR DUP3 SSTORE JUMP JUMPDEST SLOAD PUSH1 0x80 SHR SWAP3 ADD SWAP3 DUP4 SLOAD SWAP1 DUP2 AND DUP4 GT PUSH2 0x2F49 JUMPI JUMPDEST POP POP POP POP JUMPDEST PUSH1 0x40 MLOAD SWAP5 DUP6 SWAP5 DUP6 MSTORE PUSH1 0x20 DUP6 ADD MSTORE PUSH1 0x60 PUSH1 0x40 DUP6 ADD MSTORE PUSH1 0x60 DUP5 ADD SWAP2 PUSH2 0x53E5 JUMP JUMPDEST SUB SWAP1 LOG2 STOP JUMPDEST AND OR SWAP1 SSTORE DUP8 DUP1 DUP1 DUP1 PUSH2 0x2F21 JUMP JUMPDEST SWAP1 SWAP4 SWAP3 POP PUSH2 0x2F8C SWAP2 POP PUSH2 0x2F6C DUP2 SLOAD PUSH1 0x80 SHR PUSH2 0x5772 JUMP JUMPDEST DUP2 SLOAD PUSH1 0x1 PUSH1 0x1 PUSH1 0x80 SHL SUB AND PUSH1 0x80 SWAP2 SWAP1 SWAP2 SHL PUSH1 0x1 PUSH1 0x1 PUSH1 0x80 SHL SUB NOT AND OR SWAP1 SSTORE JUMP JUMPDEST DUP2 SLOAD AND SWAP1 SSTORE PUSH2 0x2F26 JUMP JUMPDEST PUSH1 0x40 MLOAD PUSH4 0x1D9D6EA9 PUSH1 0xE3 SHL DUP2 MSTORE PUSH1 0x4 SWAP1 REVERT JUMPDEST CALLVALUE PUSH2 0x382 JUMPI PUSH1 0x20 CALLDATASIZE PUSH1 0x3 NOT ADD SLT PUSH2 0x382 JUMPI PUSH1 0x20 PUSH2 0x2FC6 PUSH1 0x4 CALLDATALOAD PUSH2 0x514E JUMP JUMPDEST PUSH1 0x40 MLOAD PUSH1 0x1 PUSH1 0x1 PUSH1 0xA0 SHL SUB SWAP1 SWAP2 AND DUP2 MSTORE RETURN JUMPDEST CALLVALUE PUSH2 0x382 JUMPI PUSH1 0x0 CALLDATASIZE PUSH1 0x3 NOT ADD SLT PUSH2 0x382 JUMPI PUSH1 0xD SLOAD PUSH1 0x40 MLOAD PUSH1 0x1 PUSH1 0x1 PUSH1 0xA0 SHL SUB SWAP1 SWAP2 AND DUP2 MSTORE PUSH1 0x20 SWAP1 RETURN JUMPDEST CALLVALUE PUSH2 0x382 JUMPI PUSH1 0x0 CALLDATASIZE PUSH1 0x3 NOT ADD SLT PUSH2 0x382 JUMPI PUSH1 0x20 PUSH1 0xFF PUSH1 0x9 SLOAD AND PUSH1 0x40 MLOAD SWAP1 ISZERO ISZERO DUP2 MSTORE RETURN JUMPDEST CALLVALUE PUSH2 0x382 JUMPI PUSH1 0x20 DUP1 PUSH1 0x3 NOT CALLDATASIZE ADD SLT PUSH2 0x382 JUMPI PUSH1 0xC0 SWAP1 PUSH1 0x4 CALLDATALOAD PUSH1 0x40 MLOAD SWAP1 PUSH2 0x3049 DUP3 PUSH2 0x4B5E JUMP JUMPDEST PUSH1 0x0 PUSH1 0xA0 PUSH1 0x60 SWAP4 DUP5 DUP2 MSTORE DUP5 DUP7 DUP3 ADD MSTORE DUP5 PUSH1 0x40 DUP3 ADD MSTORE DUP5 DUP1 DUP3 ADD MSTORE DUP5 PUSH1 0x80 DUP3 ADD MSTORE ADD MSTORE PUSH2 0x3074 DUP2 PUSH2 0x514E JUMP JUMPDEST POP PUSH1 0x0 MSTORE PUSH1 0x13 DUP3 MSTORE PUSH2 0x3167 PUSH1 0x40 PUSH1 0x0 KECCAK256 PUSH1 0x40 MLOAD SWAP3 PUSH2 0x3091 DUP5 PUSH2 0x4B5E JUMP JUMPDEST PUSH2 0x309D PUSH1 0x3 DUP4 ADD PUSH2 0x4BD0 JUMP JUMPDEST DUP5 MSTORE PUSH2 0x3156 PUSH2 0x30AE PUSH1 0x4 DUP5 ADD PUSH2 0x4BD0 JUMP JUMPDEST SWAP2 DUP7 DUP7 ADD SWAP3 DUP4 MSTORE PUSH2 0x3145 PUSH2 0x30C4 PUSH1 0x5 DUP7 ADD PUSH2 0x4BD0 JUMP JUMPDEST PUSH1 0x40 DUP9 ADD SWAP1 DUP2 MSTORE PUSH2 0x30D7 PUSH1 0x6 DUP8 ADD PUSH2 0x4BD0 JUMP JUMPDEST SWAP3 DUP1 DUP10 ADD SWAP4 DUP5 MSTORE PUSH2 0x3134 PUSH2 0x311E PUSH1 0x8 PUSH2 0x30F2 PUSH1 0x7 DUP12 ADD PUSH2 0x4BD0 JUMP JUMPDEST SWAP10 PUSH1 0x80 DUP14 ADD SWAP11 DUP12 MSTORE ADD SLOAD SWAP11 PUSH1 0xA0 DUP2 ADD SWAP12 DUP13 MSTORE PUSH1 0x40 MLOAD SWAP14 DUP14 DUP16 SWAP15 SWAP3 DUP16 SWAP4 DUP5 MSTORE MLOAD SWAP3 ADD MSTORE PUSH1 0xE0 DUP14 ADD SWAP1 PUSH2 0x4C99 JUMP JUMPDEST SWAP7 MLOAD PUSH1 0x1F NOT DUP13 DUP10 SUB DUP2 ADD PUSH1 0x40 DUP15 ADD MSTORE SWAP8 SWAP1 PUSH2 0x4C99 JUMP JUMPDEST SWAP2 MLOAD SWAP1 DUP7 DUP12 DUP5 SUB ADD SWAP1 DUP12 ADD MSTORE PUSH2 0x4C99 JUMP JUMPDEST SWAP1 MLOAD DUP4 DUP9 DUP4 SUB ADD PUSH1 0x80 DUP10 ADD MSTORE PUSH2 0x4C99 JUMP JUMPDEST SWAP2 MLOAD SWAP1 DUP6 DUP4 SUB ADD PUSH1 0xA0 DUP7 ADD MSTORE PUSH2 0x4C99 JUMP JUMPDEST SWAP1 MLOAD PUSH1 0xC0 DUP4 ADD MSTORE SUB SWAP1 RETURN JUMPDEST CALLVALUE PUSH2 0x382 JUMPI PUSH1 0x0 CALLDATASIZE PUSH1 0x3 NOT ADD SLT PUSH2 0x382 JUMPI PUSH1 0xE SLOAD PUSH1 0x40 MLOAD PUSH1 0x1 PUSH1 0x1 PUSH1 0xA0 SHL SUB SWAP1 SWAP2 AND DUP2 MSTORE PUSH1 0x20 SWAP1 RETURN JUMPDEST CALLVALUE PUSH2 0x382 JUMPI PUSH2 0x31A9 CALLDATASIZE PUSH2 0x4E20 JUMP JUMPDEST PUSH2 0x31B2 DUP4 PUSH2 0x514E JUMP JUMPDEST PUSH1 0x1 PUSH1 0x1 PUSH1 0xA0 SHL SUB SWAP3 SWAP1 CALLER SWAP1 DUP5 AND SUB PUSH2 0xD5D JUMPI DUP4 PUSH1 0x0 MSTORE PUSH1 0x20 SWAP4 PUSH1 0x13 DUP6 MSTORE PUSH1 0xFF PUSH1 0x1 PUSH1 0x40 PUSH1 0x0 KECCAK256 ADD SLOAD AND PUSH1 0x3 DUP2 LT ISZERO PUSH2 0x92C JUMPI PUSH1 0x2 EQ PUSH2 0xAF1 JUMPI DUP1 PUSH1 0x0 MSTORE PUSH1 0x13 DUP6 MSTORE PUSH1 0xFF PUSH1 0x1 PUSH1 0x40 PUSH1 0x0 KECCAK256 ADD SLOAD AND PUSH1 0x3 DUP2 LT ISZERO PUSH2 0x92C JUMPI PUSH1 0x1 EQ PUSH2 0x32EA JUMPI PUSH2 0x3218 PUSH2 0x56AE JUMP JUMPDEST PUSH1 0x0 MSTORE PUSH1 0x13 DUP5 MSTORE PUSH1 0x40 PUSH1 0x0 KECCAK256 SWAP3 PUSH1 0x1 DUP5 ADD SLOAD PUSH1 0x8 SHR AND SWAP3 DUP4 ISZERO PUSH2 0x32AD JUMPI SWAP2 PUSH1 0x0 DUP1 SWAP5 SWAP3 DUP2 SWAP5 PUSH1 0x2 TIMESTAMP SWAP2 ADD SSTORE DUP3 PUSH1 0x40 MLOAD SWAP4 DUP5 SWAP3 DUP4 CALLDATACOPY DUP2 ADD DUP3 DUP2 MSTORE SUB SWAP3 GAS CALL PUSH2 0x325D PUSH2 0x5189 JUMP JUMPDEST SWAP1 ISZERO PUSH2 0x329B JUMPI PUSH2 0x2F44 PUSH32 0xD7D62979AE48A176C84F013982271CB0978AB8192F62CF045874AE8A1CF767FC SWAP2 PUSH1 0x40 MLOAD SWAP2 DUP3 SWAP2 DUP6 DUP4 MSTORE CALLER SWAP6 DUP4 ADD SWAP1 PUSH2 0x4C99 JUMP JUMPDEST PUSH1 0x40 MLOAD PUSH4 0x824D20F PUSH1 0xE2 SHL DUP2 MSTORE PUSH1 0x4 SWAP1 REVERT JUMPDEST PUSH1 0x40 MLOAD PUSH3 0x461BCD PUSH1 0xE5 SHL DUP2 MSTORE PUSH1 0x4 DUP2 ADD DUP7 SWAP1 MSTORE PUSH1 0x15 PUSH1 0x24 DUP3 ADD MSTORE PUSH21 0x139BC81B1BD9DA58C818DBDB9D1C9858DD081CD95D PUSH1 0x5A SHL PUSH1 0x44 DUP3 ADD MSTORE PUSH1 0x64 SWAP1 REVERT JUMPDEST PUSH1 0x40 MLOAD PUSH4 0x2437E771 PUSH1 0xE1 SHL DUP2 MSTORE PUSH1 0x4 SWAP1 REVERT JUMPDEST PUSH1 0x3 NOT PUSH1 0xE0 CALLDATASIZE DUP3 ADD SLT PUSH2 0x382 JUMPI PUSH1 0x5 PUSH1 0x4 CALLDATALOAD LT ISZERO PUSH2 0x382 JUMPI PUSH1 0x44 CALLDATALOAD PUSH1 0x1 PUSH1 0x1 PUSH1 0x40 SHL SUB DUP2 GT PUSH2 0x382 JUMPI PUSH2 0x3333 SWAP1 CALLDATASIZE SWAP1 PUSH1 0x4 ADD PUSH2 0x4DF3 JUMP JUMPDEST PUSH1 0x64 CALLDATALOAD PUSH1 0x1 PUSH1 0x1 PUSH1 0x40 SHL SUB DUP2 GT PUSH2 0x382 JUMPI PUSH2 0x3352 SWAP1 CALLDATASIZE SWAP1 PUSH1 0x4 ADD PUSH2 0x4DF3 JUMP JUMPDEST SWAP3 SWAP1 PUSH1 0xA4 CALLDATALOAD PUSH1 0x1 PUSH1 0x1 PUSH1 0x40 SHL SUB DUP2 GT PUSH2 0x382 JUMPI PUSH2 0x3373 SWAP1 CALLDATASIZE SWAP1 PUSH1 0x4 ADD PUSH2 0x4DF3 JUMP JUMPDEST SWAP5 SWAP1 SWAP6 PUSH1 0x1 PUSH1 0x1 PUSH1 0x40 SHL SUB PUSH1 0xC4 CALLDATALOAD GT PUSH2 0x382 JUMPI PUSH1 0xC0 SWAP1 PUSH1 0xC4 CALLDATALOAD CALLDATASIZE SUB ADD SLT PUSH2 0x382 JUMPI PUSH1 0xFF PUSH1 0x11 SLOAD AND ISZERO DUP1 PUSH2 0x3C2A JUMPI JUMPDEST DUP1 PUSH2 0x3C15 JUMPI JUMPDEST PUSH2 0x3C03 JUMPI PUSH2 0x33B3 PUSH2 0x56AE JUMP JUMPDEST PUSH1 0x2 PUSH1 0x4 CALLDATALOAD GT PUSH2 0x3BF1 JUMPI PUSH2 0x33C8 PUSH1 0x4 CALLDATALOAD PUSH2 0x4AF0 JUMP JUMPDEST SLOAD CALLVALUE LT PUSH2 0x5EA JUMPI PUSH1 0xA SLOAD SWAP5 PUSH2 0x33DC DUP7 PUSH2 0x52DC JUMP JUMPDEST PUSH1 0xA SSTORE PUSH2 0x33E9 DUP7 CALLER PUSH2 0x5406 JUMP JUMPDEST DUP6 PUSH1 0x0 MSTORE PUSH1 0x13 PUSH1 0x20 MSTORE PUSH1 0x40 PUSH1 0x0 KECCAK256 SWAP7 PUSH1 0x1 DUP9 ADD PUSH1 0xFF NOT DUP2 SLOAD AND SWAP1 SSTORE PUSH1 0x24 CALLDATALOAD PUSH1 0x9 DUP10 ADD SSTORE PUSH1 0x1 PUSH1 0x1 PUSH1 0x40 SHL SUB DUP7 GT PUSH2 0x13D2 JUMPI PUSH2 0x3434 DUP7 PUSH2 0x342B PUSH1 0xA DUP12 ADD SLOAD PUSH2 0x4B09 JUMP JUMPDEST PUSH1 0xA DUP12 ADD PUSH2 0x5301 JUMP JUMPDEST DUP6 PUSH1 0x0 PUSH1 0x1F DUP3 GT PUSH1 0x1 EQ PUSH2 0x3B83 JUMPI PUSH1 0x0 SWAP2 PUSH2 0x3B78 JUMPI JUMPDEST POP DUP7 PUSH1 0x1 SHL SWAP1 PUSH1 0x0 NOT DUP9 PUSH1 0x3 SHL SHR NOT AND OR PUSH1 0xA DUP10 ADD SSTORE JUMPDEST PUSH1 0xB DUP9 ADD DUP1 SLOAD PUSH1 0x1 PUSH1 0x1 PUSH1 0xA0 SHL SUB NOT AND CALLER OR DUP2 SSTORE PUSH2 0x3482 SWAP1 PUSH1 0x4 CALLDATALOAD SWAP1 PUSH2 0x5355 JUMP JUMPDEST PUSH2 0x3491 PUSH1 0x4 PUSH1 0xC4 CALLDATALOAD ADD DUP1 PUSH2 0x5379 JUMP JUMPDEST SWAP1 PUSH1 0x1 PUSH1 0x1 PUSH1 0x40 SHL SUB DUP3 GT PUSH2 0x13D2 JUMPI DUP2 SWAP1 PUSH2 0x34B5 DUP3 DUP13 PUSH1 0x3 PUSH2 0xFA9 DUP2 DUP4 ADD SLOAD PUSH2 0x4B09 JUMP JUMPDEST PUSH1 0x0 SWAP1 PUSH1 0x1F DUP4 GT PUSH1 0x1 EQ PUSH2 0x3B07 JUMPI PUSH1 0x0 SWAP3 PUSH2 0x3AFC JUMPI JUMPDEST POP POP DUP2 PUSH1 0x1 SHL SWAP2 PUSH1 0x0 NOT SWAP1 PUSH1 0x3 SHL SHR NOT AND OR PUSH1 0x3 DUP10 ADD SSTORE JUMPDEST PUSH2 0x34F7 PUSH1 0x24 PUSH1 0xC4 CALLDATALOAD ADD PUSH1 0xC4 CALLDATALOAD PUSH1 0x4 ADD PUSH2 0x5379 JUMP JUMPDEST SWAP1 PUSH1 0x1 PUSH1 0x1 PUSH1 0x40 SHL SUB DUP3 GT PUSH2 0x13D2 JUMPI DUP2 SWAP1 PUSH2 0x351B DUP3 DUP13 PUSH1 0x4 PUSH2 0xFA9 DUP2 DUP4 ADD SLOAD PUSH2 0x4B09 JUMP JUMPDEST PUSH1 0x0 SWAP1 PUSH1 0x1F DUP4 GT PUSH1 0x1 EQ PUSH2 0x3A8B JUMPI PUSH1 0x0 SWAP3 PUSH2 0x3A80 JUMPI JUMPDEST POP POP DUP2 PUSH1 0x1 SHL SWAP2 PUSH1 0x0 NOT SWAP1 PUSH1 0x3 SHL SHR NOT AND OR PUSH1 0x4 DUP10 ADD SSTORE JUMPDEST PUSH2 0x355D PUSH1 0x44 PUSH1 0xC4 CALLDATALOAD ADD PUSH1 0xC4 CALLDATALOAD PUSH1 0x4 ADD PUSH2 0x5379 JUMP JUMPDEST SWAP1 PUSH1 0x1 PUSH1 0x1 PUSH1 0x40 SHL SUB DUP3 GT PUSH2 0x13D2 JUMPI DUP2 SWAP1 PUSH2 0x3581 DUP3 DUP13 PUSH1 0x5 PUSH2 0xFA9 DUP2 DUP4 ADD SLOAD PUSH2 0x4B09 JUMP JUMPDEST PUSH1 0x0 SWAP1 PUSH1 0x1F DUP4 GT PUSH1 0x1 EQ PUSH2 0x3A0F JUMPI PUSH1 0x0 SWAP3 PUSH2 0x3A04 JUMPI JUMPDEST POP POP DUP2 PUSH1 0x1 SHL SWAP2 PUSH1 0x0 NOT SWAP1 PUSH1 0x3 SHL SHR NOT AND OR PUSH1 0x5 DUP10 ADD SSTORE JUMPDEST PUSH2 0x35C3 PUSH1 0x64 PUSH1 0xC4 CALLDATALOAD ADD PUSH1 0xC4 CALLDATALOAD PUSH1 0x4 ADD PUSH2 0x5379 JUMP JUMPDEST SWAP1 PUSH1 0x1 PUSH1 0x1 PUSH1 0x40 SHL SUB DUP3 GT PUSH2 0x13D2 JUMPI DUP2 SWAP1 PUSH2 0x35E7 DUP3 DUP13 PUSH1 0x6 PUSH2 0xFA9 DUP2 DUP4 ADD SLOAD PUSH2 0x4B09 JUMP JUMPDEST PUSH1 0x0 SWAP1 PUSH1 0x1F DUP4 GT PUSH1 0x1 EQ PUSH2 0x3993 JUMPI PUSH1 0x0 SWAP3 PUSH2 0x3988 JUMPI JUMPDEST POP POP DUP2 PUSH1 0x1 SHL SWAP2 PUSH1 0x0 NOT SWAP1 PUSH1 0x3 SHL SHR NOT AND OR PUSH1 0x6 DUP10 ADD SSTORE JUMPDEST PUSH2 0x3629 PUSH1 0x84 PUSH1 0xC4 CALLDATALOAD ADD PUSH1 0xC4 CALLDATALOAD PUSH1 0x4 ADD PUSH2 0x5379 JUMP JUMPDEST SWAP1 PUSH1 0x1 PUSH1 0x1 PUSH1 0x40 SHL SUB DUP3 GT PUSH2 0x13D2 JUMPI PUSH2 0x3652 DUP3 PUSH2 0x3649 PUSH1 0x7 DUP14 ADD SLOAD PUSH2 0x4B09 JUMP JUMPDEST PUSH1 0x7 DUP14 ADD PUSH2 0x5301 JUMP JUMPDEST PUSH1 0x0 SWAP1 PUSH1 0x1F DUP4 GT PUSH1 0x1 EQ PUSH2 0x3914 JUMPI PUSH2 0x36AB SWAP4 SWAP3 SWAP2 PUSH1 0x0 SWAP2 DUP4 PUSH2 0x3909 JUMPI JUMPDEST POP POP DUP2 PUSH1 0x1 SHL SWAP2 PUSH1 0x0 NOT SWAP1 PUSH1 0x3 SHL SHR NOT AND OR PUSH1 0x7 DUP11 ADD SSTORE JUMPDEST PUSH1 0xA4 PUSH1 0xC4 CALLDATALOAD ADD CALLDATALOAD PUSH1 0x8 DUP11 ADD SSTORE PUSH1 0x40 MLOAD SWAP3 PUSH2 0x36A0 DUP5 PUSH2 0x4B43 JUMP JUMPDEST PUSH2 0x119F CALLDATASIZE DUP7 DUP9 PUSH2 0x4D2A JUMP JUMPDEST PUSH1 0x40 DUP3 ADD MSTORE DUP1 MLOAD DUP1 MLOAD SWAP1 PUSH1 0x1 PUSH1 0x1 PUSH1 0x40 SHL SUB DUP3 GT PUSH2 0x13D2 JUMPI PUSH2 0x36DD DUP3 PUSH2 0x36D4 PUSH1 0xF DUP13 ADD SLOAD PUSH2 0x4B09 JUMP JUMPDEST PUSH1 0xF DUP13 ADD PUSH2 0x5301 JUMP JUMPDEST PUSH1 0x20 SWAP1 PUSH1 0x1F DUP4 GT PUSH1 0x1 EQ PUSH2 0x3896 JUMPI PUSH1 0x40 SWAP4 SWAP3 SWAP2 PUSH1 0x0 SWAP2 DUP4 PUSH2 0x388B JUMPI JUMPDEST POP POP DUP2 PUSH1 0x1 SHL SWAP2 PUSH1 0x0 NOT SWAP1 PUSH1 0x3 SHL SHR NOT AND OR PUSH1 0xF DUP10 ADD SSTORE JUMPDEST PUSH1 0x20 DUP2 ADD MLOAD PUSH1 0x10 DUP10 ADD SSTORE ADD MLOAD SWAP3 DUP4 MLOAD SWAP7 PUSH1 0x1 PUSH1 0x1 PUSH1 0x40 SHL SUB DUP9 GT PUSH2 0x13D2 JUMPI DUP8 DUP8 SWAP6 PUSH2 0x3745 PUSH1 0x20 SWAP11 PUSH2 0x124A PUSH1 0x11 DUP7 ADD SLOAD PUSH2 0x4B09 JUMP JUMPDEST DUP10 SWAP1 PUSH1 0x1F DUP4 GT PUSH1 0x1 EQ PUSH2 0x37FE JUMPI SWAP3 PUSH1 0x11 DUP4 PUSH2 0x37A7 SWAP7 SWAP5 PUSH1 0x0 DUP1 MLOAD PUSH1 0x20 PUSH2 0x593E DUP4 CODECOPY DUP2 MLOAD SWAP2 MSTORE SWAP11 SWAP12 SWAP5 PUSH2 0x90E SWAP8 PUSH1 0x0 SWAP3 PUSH2 0x37F3 JUMPI JUMPDEST POP POP DUP2 PUSH1 0x1 SHL SWAP2 PUSH1 0x0 NOT SWAP1 PUSH1 0x3 SHL SHR NOT AND OR SWAP2 ADD SSTORE JUMPDEST PUSH1 0x84 CALLDATALOAD PUSH1 0x0 MSTORE PUSH1 0x15 DUP11 MSTORE PUSH2 0x12B5 DUP9 PUSH1 0x40 PUSH1 0x0 KECCAK256 PUSH2 0x53AB JUMP JUMPDEST PUSH1 0x40 MLOAD PUSH1 0x24 CALLDATALOAD DUP2 MSTORE PUSH1 0x0 DUP8 DUP3 ADD MSTORE DUP5 PUSH32 0x95ABEB4465B4AD62FEB35F85EB0A053AC518E5B0F02A7C23B1EF9B3FA167B069 PUSH1 0x40 CALLER SWAP4 LOG3 PUSH2 0x1327 PUSH1 0x40 MLOAD SWAP3 DUP4 SWAP3 PUSH1 0x40 DUP5 MSTORE PUSH1 0x40 DUP5 ADD SWAP2 PUSH2 0x53E5 JUMP JUMPDEST ADD MLOAD SWAP1 POP DUP15 DUP1 PUSH2 0x3779 JUMP JUMPDEST SWAP8 SWAP3 SWAP2 SWAP1 PUSH1 0x11 DUP4 ADD PUSH1 0x0 MSTORE DUP11 PUSH1 0x0 KECCAK256 SWAP9 PUSH1 0x0 JUMPDEST PUSH1 0x1F NOT DUP5 AND DUP2 LT PUSH2 0x3871 JUMPI POP PUSH1 0x1 DUP4 PUSH1 0x0 DUP1 MLOAD PUSH1 0x20 PUSH2 0x593E DUP4 CODECOPY DUP2 MLOAD SWAP2 MSTORE SWAP11 SWAP12 PUSH2 0x37A7 SWAP9 SWAP7 SWAP5 PUSH1 0x11 SWAP5 PUSH2 0x90E SWAP10 SWAP8 PUSH1 0x1F NOT DUP2 AND LT PUSH2 0x3858 JUMPI JUMPDEST POP POP POP DUP2 SHL ADD SWAP2 ADD SSTORE PUSH2 0x378F JUMP JUMPDEST ADD MLOAD PUSH1 0x0 NOT PUSH1 0xF8 DUP5 PUSH1 0x3 SHL AND SHR NOT AND SWAP1 SSTORE DUP15 DUP1 DUP1 PUSH2 0x384A JUMP JUMPDEST DUP3 DUP3 ADD MLOAD DUP12 SSTORE PUSH1 0x1 SWAP1 SWAP11 ADD SWAP10 DUP12 SWAP10 POP SWAP2 DUP13 ADD SWAP2 DUP13 ADD PUSH2 0x3811 JUMP JUMPDEST ADD MLOAD SWAP1 POP DUP11 DUP1 PUSH2 0x36F9 JUMP JUMPDEST SWAP1 PUSH1 0xF DUP11 ADD PUSH1 0x0 MSTORE PUSH1 0x20 PUSH1 0x0 KECCAK256 SWAP2 PUSH1 0x0 JUMPDEST PUSH1 0x1F NOT DUP6 AND DUP2 LT PUSH2 0x38F1 JUMPI POP SWAP2 DUP4 SWAP2 PUSH1 0x1 SWAP4 PUSH1 0x40 SWAP7 SWAP6 PUSH1 0x1F NOT DUP2 AND LT PUSH2 0x38D8 JUMPI JUMPDEST POP POP POP DUP2 SHL ADD PUSH1 0xF DUP10 ADD SSTORE PUSH2 0x3711 JUMP JUMPDEST ADD MLOAD PUSH1 0x0 NOT PUSH1 0xF8 DUP5 PUSH1 0x3 SHL AND SHR NOT AND SWAP1 SSTORE DUP11 DUP1 DUP1 PUSH2 0x38C8 JUMP JUMPDEST SWAP2 SWAP3 PUSH1 0x20 PUSH1 0x1 DUP2 SWAP3 DUP7 DUP6 ADD MLOAD DUP2 SSTORE ADD SWAP5 ADD SWAP3 ADD PUSH2 0x38A7 JUMP JUMPDEST ADD CALLDATALOAD SWAP1 POP DUP12 DUP1 PUSH2 0x366F JUMP JUMPDEST PUSH1 0x7 DUP12 ADD PUSH1 0x0 MSTORE PUSH1 0x20 PUSH1 0x0 KECCAK256 SWAP2 PUSH1 0x0 JUMPDEST PUSH1 0x1F NOT DUP6 AND DUP2 LT PUSH2 0x3970 JUMPI POP SWAP2 DUP4 SWAP2 PUSH1 0x1 SWAP4 PUSH2 0x36AB SWAP7 SWAP6 PUSH1 0x1F NOT DUP2 AND LT PUSH2 0x3956 JUMPI JUMPDEST POP POP POP DUP2 SHL ADD PUSH1 0x7 DUP11 ADD SSTORE PUSH2 0x3687 JUMP JUMPDEST ADD CALLDATALOAD PUSH1 0x0 NOT PUSH1 0x3 DUP5 SWAP1 SHL PUSH1 0xF8 AND SHR NOT AND SWAP1 SSTORE DUP12 DUP1 DUP1 PUSH2 0x3946 JUMP JUMPDEST SWAP1 SWAP3 PUSH1 0x20 PUSH1 0x1 DUP2 SWAP3 DUP7 DUP7 ADD CALLDATALOAD DUP2 SSTORE ADD SWAP5 ADD SWAP2 ADD PUSH2 0x3924 JUMP JUMPDEST ADD CALLDATALOAD SWAP1 POP DUP11 DUP1 PUSH2 0x35FD JUMP JUMPDEST SWAP1 SWAP3 POP PUSH1 0x6 DUP12 ADD PUSH1 0x0 MSTORE PUSH1 0x20 PUSH1 0x0 KECCAK256 SWAP1 PUSH1 0x0 SWAP4 JUMPDEST PUSH1 0x1F NOT DUP5 AND DUP6 LT PUSH2 0x39EC JUMPI PUSH1 0x1 SWAP5 POP DUP4 PUSH1 0x1F NOT DUP2 AND LT PUSH2 0x39D2 JUMPI JUMPDEST POP POP POP DUP2 SHL ADD PUSH1 0x6 DUP10 ADD SSTORE PUSH2 0x3615 JUMP JUMPDEST ADD CALLDATALOAD PUSH1 0x0 NOT PUSH1 0x3 DUP5 SWAP1 SHL PUSH1 0xF8 AND SHR NOT AND SWAP1 SSTORE DUP11 DUP1 DUP1 PUSH2 0x39C2 JUMP JUMPDEST DUP2 DUP2 ADD CALLDATALOAD DUP4 SSTORE PUSH1 0x20 SWAP5 DUP6 ADD SWAP5 PUSH1 0x1 SWAP1 SWAP4 ADD SWAP3 ADD PUSH2 0x39A7 JUMP JUMPDEST ADD CALLDATALOAD SWAP1 POP DUP11 DUP1 PUSH2 0x3597 JUMP JUMPDEST SWAP1 SWAP3 POP PUSH1 0x5 DUP12 ADD PUSH1 0x0 MSTORE PUSH1 0x20 PUSH1 0x0 KECCAK256 SWAP1 PUSH1 0x0 SWAP4 JUMPDEST PUSH1 0x1F NOT DUP5 AND DUP6 LT PUSH2 0x3A68 JUMPI PUSH1 0x1 SWAP5 POP DUP4 PUSH1 0x1F NOT DUP2 AND LT PUSH2 0x3A4E JUMPI JUMPDEST POP POP POP DUP2 SHL ADD PUSH1 0x5 DUP10 ADD SSTORE PUSH2 0x35AF JUMP JUMPDEST ADD CALLDATALOAD PUSH1 0x0 NOT PUSH1 0x3 DUP5 SWAP1 SHL PUSH1 0xF8 AND SHR NOT AND SWAP1 SSTORE DUP11 DUP1 DUP1 PUSH2 0x3A3E JUMP JUMPDEST DUP2 DUP2 ADD CALLDATALOAD DUP4 SSTORE PUSH1 0x20 SWAP5 DUP6 ADD SWAP5 PUSH1 0x1 SWAP1 SWAP4 ADD SWAP3 ADD PUSH2 0x3A23 JUMP JUMPDEST ADD CALLDATALOAD SWAP1 POP DUP11 DUP1 PUSH2 0x3531 JUMP JUMPDEST SWAP1 SWAP3 POP PUSH1 0x4 DUP12 ADD PUSH1 0x0 MSTORE PUSH1 0x20 PUSH1 0x0 KECCAK256 SWAP1 PUSH1 0x0 SWAP4 JUMPDEST PUSH1 0x1F NOT DUP5 AND DUP6 LT PUSH2 0x3AE4 JUMPI PUSH1 0x1 SWAP5 POP DUP4 PUSH1 0x1F NOT DUP2 AND LT PUSH2 0x3ACA JUMPI JUMPDEST POP POP POP DUP2 SHL ADD PUSH1 0x4 DUP10 ADD SSTORE PUSH2 0x3549 JUMP JUMPDEST ADD CALLDATALOAD PUSH1 0x0 NOT PUSH1 0x3 DUP5 SWAP1 SHL PUSH1 0xF8 AND SHR NOT AND SWAP1 SSTORE DUP11 DUP1 DUP1 PUSH2 0x3ABA JUMP JUMPDEST DUP2 DUP2 ADD CALLDATALOAD DUP4 SSTORE PUSH1 0x20 SWAP5 DUP6 ADD SWAP5 PUSH1 0x1 SWAP1 SWAP4 ADD SWAP3 ADD PUSH2 0x3A9F JUMP JUMPDEST ADD CALLDATALOAD SWAP1 POP DUP11 DUP1 PUSH2 0x34CB JUMP JUMPDEST SWAP1 SWAP3 POP PUSH1 0x3 DUP12 ADD PUSH1 0x0 MSTORE PUSH1 0x20 PUSH1 0x0 KECCAK256 SWAP1 PUSH1 0x0 SWAP4 JUMPDEST PUSH1 0x1F NOT DUP5 AND DUP6 LT PUSH2 0x3B60 JUMPI PUSH1 0x1 SWAP5 POP DUP4 PUSH1 0x1F NOT DUP2 AND LT PUSH2 0x3B46 JUMPI JUMPDEST POP POP POP DUP2 SHL ADD PUSH1 0x3 DUP10 ADD SSTORE PUSH2 0x34E3 JUMP JUMPDEST ADD CALLDATALOAD PUSH1 0x0 NOT PUSH1 0x3 DUP5 SWAP1 SHL PUSH1 0xF8 AND SHR NOT AND SWAP1 SSTORE DUP11 DUP1 DUP1 PUSH2 0x3B36 JUMP JUMPDEST DUP2 DUP2 ADD CALLDATALOAD DUP4 SSTORE PUSH1 0x20 SWAP5 DUP6 ADD SWAP5 PUSH1 0x1 SWAP1 SWAP4 ADD SWAP3 ADD PUSH2 0x3B1B JUMP JUMPDEST SWAP1 POP DUP6 ADD CALLDATALOAD DUP10 PUSH2 0x344A JUMP JUMPDEST SWAP1 POP PUSH1 0xA DUP10 ADD PUSH1 0x0 MSTORE PUSH1 0x20 PUSH1 0x0 KECCAK256 SWAP1 PUSH1 0x0 JUMPDEST PUSH1 0x1F NOT DUP10 AND DUP2 LT PUSH2 0x3BD9 JUMPI POP DUP8 PUSH1 0x1F NOT DUP2 AND LT PUSH2 0x3BBF JUMPI JUMPDEST POP POP PUSH1 0x1 DUP7 DUP2 SHL ADD PUSH1 0xA DUP10 ADD SSTORE PUSH2 0x3461 JUMP JUMPDEST DUP7 ADD CALLDATALOAD PUSH1 0x0 NOT PUSH1 0x3 DUP10 SWAP1 SHL PUSH1 0xF8 AND SHR NOT AND SWAP1 SSTORE DUP9 DUP1 PUSH2 0x3BAD JUMP JUMPDEST SWAP1 SWAP2 PUSH1 0x20 PUSH1 0x1 DUP2 SWAP3 DUP6 DUP12 ADD CALLDATALOAD DUP2 SSTORE ADD SWAP4 ADD SWAP2 ADD PUSH2 0x3B95 JUMP JUMPDEST PUSH1 0x40 MLOAD PUSH4 0x263DD7F7 PUSH1 0xE1 SHL DUP2 MSTORE PUSH1 0x4 SWAP1 REVERT JUMPDEST PUSH1 0x40 MLOAD PUSH4 0x3E34A41B PUSH1 0xE2 SHL DUP2 MSTORE PUSH1 0x4 SWAP1 REVERT JUMPDEST POP PUSH1 0x7 SLOAD PUSH1 0x1 PUSH1 0x1 PUSH1 0xA0 SHL SUB AND CALLER EQ ISZERO PUSH2 0x33A7 JUMP JUMPDEST POP CALLER PUSH1 0x0 MSTORE PUSH1 0x12 PUSH1 0x20 MSTORE PUSH1 0xFF PUSH1 0x40 PUSH1 0x0 KECCAK256 SLOAD AND ISZERO PUSH2 0x33A1 JUMP JUMPDEST CALLVALUE PUSH2 0x382 JUMPI PUSH1 0x20 PUSH2 0x3C53 CALLDATASIZE PUSH2 0x4E20 JUMP JUMPDEST PUSH2 0x3C5C DUP4 PUSH2 0x514E JUMP JUMPDEST POP PUSH2 0x3C80 DUP5 PUSH1 0x40 MLOAD DUP4 DUP2 SWAP5 DUP4 DUP4 ADD SWAP7 DUP8 CALLDATACOPY DUP2 ADD PUSH1 0x0 DUP4 DUP3 ADD MSTORE SUB DUP1 DUP5 MSTORE ADD DUP3 PUSH2 0x4BAF JUMP JUMPDEST MLOAD SWAP1 KECCAK256 SWAP1 PUSH1 0x0 MSTORE PUSH1 0x13 DUP3 MSTORE PUSH1 0x10 PUSH1 0x40 PUSH1 0x0 KECCAK256 ADD SLOAD EQ PUSH1 0x40 MLOAD SWAP1 DUP2 MSTORE RETURN JUMPDEST CALLVALUE PUSH2 0x382 JUMPI PUSH1 0x0 CALLDATASIZE PUSH1 0x3 NOT ADD SLT PUSH2 0x382 JUMPI PUSH2 0x3CB6 PUSH2 0x4ED6 JUMP JUMPDEST PUSH2 0x3CBE PUSH2 0x5724 JUMP JUMPDEST PUSH1 0x0 DUP1 DUP1 DUP1 SELFBALANCE PUSH1 0x1 DUP1 PUSH1 0xA0 SHL SUB PUSH1 0xD SLOAD AND GAS CALL PUSH2 0x3CD9 PUSH2 0x5189 JUMP JUMPDEST POP ISZERO PUSH2 0x54D JUMPI PUSH1 0x1 PUSH1 0x8 SSTORE STOP JUMPDEST CALLVALUE PUSH2 0x382 JUMPI PUSH1 0x40 CALLDATASIZE PUSH1 0x3 NOT ADD SLT PUSH2 0x382 JUMPI PUSH1 0x4 CALLDATALOAD PUSH2 0x3D02 PUSH2 0x4CD4 JUMP JUMPDEST SWAP1 PUSH2 0x3D0C DUP2 PUSH2 0x514E JUMP JUMPDEST PUSH1 0x1 PUSH1 0x1 PUSH1 0xA0 SHL SUB SWAP2 SWAP1 CALLER SWAP1 DUP4 AND SUB PUSH2 0xD5D JUMPI DUP1 PUSH1 0x0 MSTORE PUSH1 0x13 PUSH1 0x20 MSTORE PUSH1 0xFF PUSH1 0x1 PUSH1 0x40 PUSH1 0x0 KECCAK256 ADD SLOAD AND PUSH1 0x3 DUP2 LT ISZERO PUSH2 0x92C JUMPI PUSH1 0x2 EQ PUSH2 0xAF1 JUMPI PUSH1 0x0 MSTORE PUSH1 0x13 PUSH1 0x20 MSTORE PUSH1 0x1 PUSH1 0x40 PUSH1 0x0 KECCAK256 ADD SWAP2 DUP3 SLOAD SWAP3 PUSH2 0x100 PUSH1 0x1 PUSH1 0xA8 SHL SUB DUP3 PUSH1 0x8 SHL AND PUSH2 0x100 PUSH1 0x1 PUSH1 0xA8 SHL SUB NOT DUP6 AND OR SWAP1 SSTORE DUP2 PUSH1 0x40 MLOAD SWAP4 PUSH1 0x8 SHR AND DUP4 MSTORE AND PUSH1 0x20 DUP3 ADD MSTORE PUSH32 0xC7D3CFF0397F47C60F877B10188255F15EA89C9BAD5C53C0D60DAB38FE1E28D5 PUSH1 0x40 CALLER SWAP3 LOG2 STOP JUMPDEST CALLVALUE PUSH2 0x382 JUMPI PUSH1 0x20 CALLDATASIZE PUSH1 0x3 NOT ADD SLT PUSH2 0x382 JUMPI PUSH1 0x4 CALLDATALOAD PUSH2 0x3DCA PUSH2 0x5747 JUMP JUMPDEST POP PUSH2 0x3DD4 DUP2 PUSH2 0x514E JUMP JUMPDEST POP DUP1 PUSH1 0x0 MSTORE PUSH1 0x13 PUSH1 0x20 MSTORE PUSH1 0x40 PUSH1 0x0 KECCAK256 DUP1 SLOAD SWAP1 PUSH1 0x1 DUP2 ADD SLOAD SWAP1 PUSH1 0x2 PUSH2 0x3DFB PUSH1 0xFF DUP5 AND SWAP6 PUSH2 0x514E JUMP JUMPDEST SWAP2 ADD SLOAD SWAP2 PUSH1 0x40 MLOAD SWAP4 PUSH2 0x3E0C DUP6 PUSH2 0x4B79 JUMP JUMPDEST DUP5 MSTORE PUSH1 0x20 DUP5 ADD SWAP5 PUSH1 0x3 DUP2 LT ISZERO PUSH2 0x92C JUMPI DUP6 MSTORE PUSH1 0x40 DUP5 ADD SWAP5 PUSH1 0x1 DUP1 PUSH1 0xA0 SHL SUB DUP1 SWAP4 AND DUP7 MSTORE DUP3 PUSH1 0x60 DUP7 ADD SWAP3 PUSH1 0x8 SHR AND DUP3 MSTORE PUSH1 0x80 DUP6 ADD SWAP4 DUP5 MSTORE PUSH1 0x40 MLOAD SWAP5 MLOAD DUP6 MSTORE MLOAD PUSH1 0x3 DUP2 LT ISZERO PUSH2 0x92C JUMPI PUSH1 0xA0 SWAP6 DUP4 SWAP2 PUSH1 0x20 DUP8 ADD MSTORE MLOAD AND PUSH1 0x40 DUP6 ADD MSTORE MLOAD AND PUSH1 0x60 DUP4 ADD MSTORE MLOAD PUSH1 0x80 DUP3 ADD MSTORE RETURN JUMPDEST CALLVALUE PUSH2 0x382 JUMPI PUSH2 0x1C PUSH2 0x3E84 CALLDATASIZE PUSH2 0x4D7F JUMP JUMPDEST SWAP1 PUSH1 0x40 MLOAD SWAP3 PUSH2 0x3E92 DUP5 PUSH2 0x4B94 JUMP JUMPDEST PUSH1 0x0 DUP5 MSTORE PUSH2 0x1A57 DUP4 DUP4 DUP4 PUSH2 0x4F02 JUMP JUMPDEST CALLVALUE PUSH2 0x382 JUMPI PUSH1 0x0 CALLDATASIZE PUSH1 0x3 NOT ADD SLT PUSH2 0x382 JUMPI PUSH2 0x3EBA PUSH2 0x4ED6 JUMP JUMPDEST PUSH1 0x9 SLOAD PUSH1 0xFF DUP2 AND ISZERO PUSH2 0x3EF9 JUMPI PUSH1 0xFF NOT AND PUSH1 0x9 SSTORE PUSH32 0x5DB9EE0A495BF2E6FF9C91A7834C1BA4FDD244A5E8AA4E537BD38AEAE4B073AA PUSH1 0x20 PUSH1 0x40 MLOAD CALLER DUP2 MSTORE LOG1 STOP JUMPDEST PUSH1 0x40 MLOAD PUSH4 0x8DFC202B PUSH1 0xE0 SHL DUP2 MSTORE PUSH1 0x4 SWAP1 REVERT JUMPDEST CALLVALUE PUSH2 0x382 JUMPI PUSH1 0x20 CALLDATASIZE PUSH1 0x3 NOT ADD SLT PUSH2 0x382 JUMPI PUSH1 0x4 CALLDATALOAD PUSH2 0x3F28 DUP2 PUSH2 0x514E JUMP JUMPDEST CALLER PUSH1 0x1 PUSH1 0x1 PUSH1 0xA0 SHL SUB SWAP1 SWAP2 AND SUB PUSH2 0xD5D JUMPI DUP1 PUSH1 0x0 MSTORE PUSH1 0x14 PUSH1 0x20 MSTORE PUSH1 0xFF PUSH1 0x1 PUSH1 0x40 PUSH1 0x0 KECCAK256 ADD SLOAD PUSH1 0xA0 SHR AND ISZERO PUSH2 0x5FC JUMPI DUP1 PUSH1 0x0 MSTORE PUSH1 0x14 PUSH1 0x20 MSTORE PUSH1 0x40 PUSH1 0x0 KECCAK256 PUSH1 0x1 DUP2 ADD SWAP1 PUSH1 0x0 DUP3 SLOAD SWAP2 SSTORE PUSH11 0xFFFFFFFFFFFFFFFFFFFFFF PUSH1 0xA8 SHL AND SWAP1 SSTORE PUSH32 0x411AEE90354C51B1B04CD563FCAB2617142A9D50DA19232D888547C8A1B7FD8A PUSH1 0x0 DUP1 LOG2 STOP JUMPDEST CALLVALUE PUSH2 0x382 JUMPI PUSH1 0x20 CALLDATASIZE PUSH1 0x3 NOT ADD SLT PUSH2 0x382 JUMPI PUSH1 0x4 CALLDATALOAD PUSH2 0x3FC4 PUSH2 0x5747 JUMP JUMPDEST POP PUSH2 0x3FCE DUP2 PUSH2 0x514E JUMP JUMPDEST POP PUSH1 0x0 MSTORE PUSH1 0x13 PUSH1 0x20 MSTORE PUSH1 0xA0 PUSH2 0x3FE9 PUSH1 0xC PUSH1 0x40 PUSH1 0x0 KECCAK256 ADD PUSH2 0x57EB JUMP JUMPDEST PUSH2 0x3FF6 PUSH1 0x40 MLOAD DUP1 SWAP3 PUSH2 0x4DB4 JUMP JUMPDEST RETURN JUMPDEST CALLVALUE PUSH2 0x382 JUMPI PUSH1 0x20 CALLDATASIZE PUSH1 0x3 NOT ADD SLT PUSH2 0x382 JUMPI PUSH2 0x4011 PUSH2 0x4ED6 JUMP JUMPDEST PUSH1 0x4 CALLDATALOAD PUSH1 0x1C SSTORE STOP JUMPDEST CALLVALUE PUSH2 0x382 JUMPI PUSH2 0x4027 CALLDATASIZE PUSH2 0x4CF9 JUMP JUMPDEST SWAP1 PUSH2 0x4030 PUSH2 0x5724 JUMP JUMPDEST PUSH2 0x4039 DUP2 PUSH2 0x514E JUMP JUMPDEST CALLER PUSH1 0x1 PUSH1 0x1 PUSH1 0xA0 SHL SUB SWAP1 SWAP2 AND SUB PUSH2 0xD5D JUMPI PUSH1 0x0 MSTORE PUSH1 0x13 PUSH1 0x20 MSTORE PUSH1 0x40 PUSH1 0x0 KECCAK256 SWAP1 DUP2 SLOAD SWAP2 DUP3 DUP3 GT PUSH2 0x4080 JUMPI PUSH1 0x0 DUP1 DUP1 DUP5 DUP2 SWAP5 PUSH2 0x4073 DUP3 DUP10 PUSH2 0x5717 JUMP JUMPDEST SWAP1 SSTORE CALLER GAS CALL PUSH2 0x3CD9 PUSH2 0x5189 JUMP JUMPDEST PUSH1 0x40 MLOAD PUSH4 0xAAC63FF9 PUSH1 0xE0 SHL DUP2 MSTORE PUSH1 0x4 SWAP1 REVERT JUMPDEST CALLVALUE PUSH2 0x382 JUMPI PUSH2 0x1C PUSH2 0x40A3 CALLDATASIZE PUSH2 0x4D7F JUMP JUMPDEST SWAP2 PUSH2 0x4F02 JUMP JUMPDEST CALLVALUE PUSH2 0x382 JUMPI PUSH1 0x0 CALLDATASIZE PUSH1 0x3 NOT ADD SLT PUSH2 0x382 JUMPI PUSH1 0x20 PUSH1 0xF SLOAD PUSH1 0x40 MLOAD SWAP1 DUP2 MSTORE RETURN JUMPDEST CALLVALUE PUSH2 0x382 JUMPI PUSH1 0x3 NOT PUSH1 0x40 CALLDATASIZE DUP3 ADD SLT PUSH2 0x382 JUMPI PUSH1 0x24 CALLDATALOAD SWAP1 PUSH1 0x1 PUSH1 0x1 PUSH1 0x40 SHL SUB DUP3 GT PUSH2 0x382 JUMPI PUSH1 0xC0 SWAP1 DUP3 CALLDATASIZE SUB ADD SLT PUSH2 0x382 JUMPI PUSH1 0x40 MLOAD SWAP1 PUSH2 0x4104 DUP3 PUSH2 0x4B5E JUMP JUMPDEST DUP1 PUSH1 0x4 ADD CALLDATALOAD PUSH1 0x1 PUSH1 0x1 PUSH1 0x40 SHL SUB DUP2 GT PUSH2 0x382 JUMPI PUSH2 0x4127 SWAP1 PUSH1 0x4 CALLDATASIZE SWAP2 DUP5 ADD ADD PUSH2 0x4D61 JUMP JUMPDEST DUP3 MSTORE PUSH1 0x24 DUP2 ADD CALLDATALOAD PUSH1 0x1 PUSH1 0x1 PUSH1 0x40 SHL SUB DUP2 GT PUSH2 0x382 JUMPI PUSH2 0x414C SWAP1 PUSH1 0x4 CALLDATASIZE SWAP2 DUP5 ADD ADD PUSH2 0x4D61 JUMP JUMPDEST PUSH1 0x20 DUP4 ADD MSTORE PUSH1 0x44 DUP2 ADD CALLDATALOAD PUSH1 0x1 PUSH1 0x1 PUSH1 0x40 SHL SUB DUP2 GT PUSH2 0x382 JUMPI PUSH2 0x4174 SWAP1 PUSH1 0x4 CALLDATASIZE SWAP2 DUP5 ADD ADD PUSH2 0x4D61 JUMP JUMPDEST PUSH1 0x40 DUP4 ADD MSTORE PUSH1 0x64 DUP2 ADD CALLDATALOAD PUSH1 0x1 PUSH1 0x1 PUSH1 0x40 SHL SUB DUP2 GT PUSH2 0x382 JUMPI PUSH2 0x419C SWAP1 PUSH1 0x4 CALLDATASIZE SWAP2 DUP5 ADD ADD PUSH2 0x4D61 JUMP JUMPDEST PUSH1 0x60 DUP4 ADD MSTORE PUSH1 0x84 DUP2 ADD CALLDATALOAD SWAP1 PUSH1 0x1 PUSH1 0x1 PUSH1 0x40 SHL SUB DUP3 GT PUSH2 0x382 JUMPI PUSH2 0x41C7 PUSH1 0xA4 SWAP3 PUSH1 0x4 CALLDATASIZE SWAP2 DUP5 ADD ADD PUSH2 0x4D61 JUMP JUMPDEST PUSH1 0x80 DUP5 ADD MSTORE ADD CALLDATALOAD PUSH1 0xA0 DUP3 ADD MSTORE PUSH2 0x41DE PUSH1 0x4 CALLDATALOAD PUSH2 0x514E JUMP JUMPDEST CALLER PUSH1 0x1 PUSH1 0x1 PUSH1 0xA0 SHL SUB SWAP1 SWAP2 AND SUB PUSH2 0xD5D JUMPI PUSH1 0x4 CALLDATALOAD PUSH1 0x0 MSTORE PUSH1 0x13 PUSH1 0x20 MSTORE PUSH1 0xFF PUSH1 0x1 PUSH1 0x40 PUSH1 0x0 KECCAK256 ADD SLOAD AND PUSH1 0x3 DUP2 LT ISZERO PUSH2 0x92C JUMPI PUSH1 0x2 EQ PUSH2 0xAF1 JUMPI PUSH1 0x4 CALLDATALOAD PUSH1 0x0 MSTORE PUSH1 0x13 PUSH1 0x20 MSTORE PUSH1 0x40 PUSH1 0x0 KECCAK256 SWAP1 DUP1 MLOAD SWAP2 DUP3 MLOAD PUSH1 0x1 PUSH1 0x1 PUSH1 0x40 SHL SUB DUP2 GT PUSH2 0x13D2 JUMPI PUSH2 0x4254 DUP2 PUSH2 0x424B PUSH1 0x3 DUP6 ADD SLOAD PUSH2 0x4B09 JUMP JUMPDEST PUSH1 0x3 DUP6 ADD PUSH2 0x5301 JUMP JUMPDEST PUSH1 0x20 PUSH1 0x1F DUP3 GT PUSH1 0x1 EQ PUSH2 0x4621 JUMPI DUP2 SWAP3 SWAP4 SWAP5 PUSH1 0x0 SWAP3 PUSH2 0x4616 JUMPI JUMPDEST POP POP DUP2 PUSH1 0x1 SHL SWAP2 PUSH1 0x0 NOT SWAP1 PUSH1 0x3 SHL SHR NOT AND OR PUSH1 0x3 DUP3 ADD SSTORE JUMPDEST PUSH1 0x20 DUP3 ADD MLOAD SWAP2 DUP3 MLOAD PUSH1 0x1 PUSH1 0x1 PUSH1 0x40 SHL SUB DUP2 GT PUSH2 0x13D2 JUMPI PUSH2 0x42B5 DUP2 PUSH2 0x42AC PUSH1 0x4 DUP7 ADD SLOAD PUSH2 0x4B09 JUMP JUMPDEST PUSH1 0x4 DUP7 ADD PUSH2 0x5301 JUMP JUMPDEST PUSH1 0x20 PUSH1 0x1F DUP3 GT PUSH1 0x1 EQ PUSH2 0x45A8 JUMPI DUP2 SWAP3 SWAP4 SWAP5 PUSH1 0x0 SWAP3 PUSH2 0x459D JUMPI JUMPDEST POP POP DUP2 PUSH1 0x1 SHL SWAP2 PUSH1 0x0 NOT SWAP1 PUSH1 0x3 SHL SHR NOT AND OR PUSH1 0x4 DUP4 ADD SSTORE JUMPDEST PUSH1 0x40 DUP2 ADD MLOAD SWAP2 DUP3 MLOAD PUSH1 0x1 PUSH1 0x1 PUSH1 0x40 SHL SUB DUP2 GT PUSH2 0x13D2 JUMPI PUSH2 0x4316 DUP2 PUSH2 0x430D PUSH1 0x5 DUP6 ADD SLOAD PUSH2 0x4B09 JUMP JUMPDEST PUSH1 0x5 DUP6 ADD PUSH2 0x5301 JUMP JUMPDEST PUSH1 0x20 PUSH1 0x1F DUP3 GT PUSH1 0x1 EQ PUSH2 0x452F JUMPI DUP2 SWAP3 SWAP4 SWAP5 PUSH1 0x0 SWAP3 PUSH2 0x4524 JUMPI JUMPDEST POP POP DUP2 PUSH1 0x1 SHL SWAP2 PUSH1 0x0 NOT SWAP1 PUSH1 0x3 SHL SHR NOT AND OR PUSH1 0x5 DUP3 ADD SSTORE JUMPDEST PUSH1 0x6 DUP2 ADD SWAP2 PUSH1 0x60 DUP2 ADD MLOAD SWAP3 DUP4 MLOAD PUSH1 0x1 PUSH1 0x1 PUSH1 0x40 SHL SUB DUP2 GT PUSH2 0x13D2 JUMPI PUSH2 0x4370 DUP2 PUSH2 0x2101 DUP5 SLOAD PUSH2 0x4B09 JUMP JUMPDEST PUSH1 0x20 SWAP5 PUSH1 0x1F DUP3 GT PUSH1 0x1 EQ PUSH2 0x44BE JUMPI SWAP5 DUP2 SWAP3 SWAP4 SWAP5 SWAP6 PUSH1 0x0 SWAP3 PUSH2 0x44B3 JUMPI JUMPDEST POP POP DUP2 PUSH1 0x1 SHL SWAP2 PUSH1 0x0 NOT SWAP1 PUSH1 0x3 SHL SHR NOT AND OR SWAP1 SSTORE JUMPDEST PUSH1 0x7 DUP3 ADD SWAP2 PUSH1 0x80 DUP3 ADD MLOAD SWAP3 DUP4 MLOAD PUSH1 0x1 PUSH1 0x1 PUSH1 0x40 SHL SUB DUP2 GT PUSH2 0x13D2 JUMPI PUSH2 0x43CA DUP2 PUSH2 0x2101 DUP5 SLOAD PUSH2 0x4B09 JUMP JUMPDEST PUSH1 0x20 PUSH1 0x1F DUP3 GT PUSH1 0x1 EQ PUSH2 0x444A JUMPI DUP2 SWAP1 PUSH1 0x80 SWAP7 PUSH1 0x0 SWAP3 PUSH2 0x443F JUMPI JUMPDEST POP POP DUP2 PUSH1 0x1 SHL SWAP2 PUSH1 0x0 NOT SWAP1 PUSH1 0x3 SHL SHR NOT AND OR SWAP1 SSTORE JUMPDEST PUSH1 0x8 PUSH1 0xA0 DUP4 ADD MLOAD SWAP2 ADD SSTORE ADD MLOAD PUSH32 0x459157BA24C7AB9878B165EF465FA6AE2AB42BCD8445F576BE378768B0C47309 PUSH1 0x40 MLOAD PUSH1 0x20 DUP2 MSTORE DUP1 PUSH2 0x2F44 PUSH1 0x4 CALLDATALOAD SWAP5 PUSH1 0x20 DUP4 ADD SWAP1 PUSH2 0x4C99 JUMP JUMPDEST ADD MLOAD SWAP1 POP DUP7 DUP1 PUSH2 0x43E4 JUMP JUMPDEST PUSH1 0x1F NOT DUP3 AND SWAP6 DUP4 PUSH1 0x0 MSTORE PUSH1 0x20 PUSH1 0x0 KECCAK256 SWAP7 PUSH1 0x0 JUMPDEST DUP2 DUP2 LT PUSH2 0x449B JUMPI POP SWAP2 PUSH1 0x80 SWAP8 SWAP2 DUP5 PUSH1 0x1 SWAP6 SWAP5 LT PUSH2 0x4482 JUMPI JUMPDEST POP POP POP DUP2 SHL ADD SWAP1 SSTORE PUSH2 0x43F9 JUMP JUMPDEST ADD MLOAD PUSH1 0x0 NOT PUSH1 0xF8 DUP5 PUSH1 0x3 SHL AND SHR NOT AND SWAP1 SSTORE DUP7 DUP1 DUP1 PUSH2 0x4475 JUMP JUMPDEST DUP4 DUP4 ADD MLOAD DUP10 SSTORE PUSH1 0x1 SWAP1 SWAP9 ADD SWAP8 PUSH1 0x20 SWAP4 DUP5 ADD SWAP4 ADD PUSH2 0x445D JUMP JUMPDEST ADD MLOAD SWAP1 POP DUP6 DUP1 PUSH2 0x438C JUMP JUMPDEST PUSH1 0x1F NOT DUP3 AND SWAP6 DUP4 PUSH1 0x0 MSTORE PUSH1 0x20 PUSH1 0x0 KECCAK256 SWAP2 PUSH1 0x0 JUMPDEST DUP9 DUP2 LT PUSH2 0x450C JUMPI POP DUP4 PUSH1 0x1 SWAP6 SWAP7 SWAP8 SWAP9 LT PUSH2 0x44F3 JUMPI JUMPDEST POP POP POP DUP2 SHL ADD SWAP1 SSTORE PUSH2 0x43A1 JUMP JUMPDEST ADD MLOAD PUSH1 0x0 NOT PUSH1 0xF8 DUP5 PUSH1 0x3 SHL AND SHR NOT AND SWAP1 SSTORE DUP6 DUP1 DUP1 PUSH2 0x44E6 JUMP JUMPDEST SWAP2 SWAP3 PUSH1 0x20 PUSH1 0x1 DUP2 SWAP3 DUP7 DUP6 ADD MLOAD DUP2 SSTORE ADD SWAP5 ADD SWAP3 ADD PUSH2 0x44D1 JUMP JUMPDEST ADD MLOAD SWAP1 POP DUP5 DUP1 PUSH2 0x432F JUMP JUMPDEST PUSH1 0x5 DUP4 ADD PUSH1 0x0 MSTORE PUSH1 0x20 PUSH1 0x0 KECCAK256 SWAP1 PUSH1 0x0 JUMPDEST PUSH1 0x1F NOT DUP5 AND DUP2 LT PUSH2 0x4585 JUMPI POP PUSH1 0x1 SWAP4 SWAP5 SWAP6 DUP4 PUSH1 0x1F NOT DUP2 AND LT PUSH2 0x456C JUMPI JUMPDEST POP POP POP DUP2 SHL ADD PUSH1 0x5 DUP3 ADD SSTORE PUSH2 0x4347 JUMP JUMPDEST ADD MLOAD PUSH1 0x0 NOT PUSH1 0xF8 DUP5 PUSH1 0x3 SHL AND SHR NOT AND SWAP1 SSTORE DUP5 DUP1 DUP1 PUSH2 0x455C JUMP JUMPDEST SWAP1 SWAP2 PUSH1 0x20 PUSH1 0x1 DUP2 SWAP3 DUP6 DUP11 ADD MLOAD DUP2 SSTORE ADD SWAP4 ADD SWAP2 ADD PUSH2 0x453F JUMP JUMPDEST ADD MLOAD SWAP1 POP DUP5 DUP1 PUSH2 0x42CE JUMP JUMPDEST PUSH1 0x4 DUP5 ADD PUSH1 0x0 MSTORE PUSH1 0x20 PUSH1 0x0 KECCAK256 SWAP1 PUSH1 0x0 JUMPDEST PUSH1 0x1F NOT DUP5 AND DUP2 LT PUSH2 0x45FE JUMPI POP PUSH1 0x1 SWAP4 SWAP5 SWAP6 DUP4 PUSH1 0x1F NOT DUP2 AND LT PUSH2 0x45E5 JUMPI JUMPDEST POP POP POP DUP2 SHL ADD PUSH1 0x4 DUP4 ADD SSTORE PUSH2 0x42E6 JUMP JUMPDEST ADD MLOAD PUSH1 0x0 NOT PUSH1 0xF8 DUP5 PUSH1 0x3 SHL AND SHR NOT AND SWAP1 SSTORE DUP5 DUP1 DUP1 PUSH2 0x45D5 JUMP JUMPDEST SWAP1 SWAP2 PUSH1 0x20 PUSH1 0x1 DUP2 SWAP3 DUP6 DUP11 ADD MLOAD DUP2 SSTORE ADD SWAP4 ADD SWAP2 ADD PUSH2 0x45B8 JUMP JUMPDEST ADD MLOAD SWAP1 POP DUP5 DUP1 PUSH2 0x426D JUMP JUMPDEST PUSH1 0x3 DUP4 ADD PUSH1 0x0 MSTORE PUSH1 0x20 PUSH1 0x0 KECCAK256 SWAP1 PUSH1 0x0 JUMPDEST PUSH1 0x1F NOT DUP5 AND DUP2 LT PUSH2 0x4677 JUMPI POP PUSH1 0x1 SWAP4 SWAP5 SWAP6 DUP4 PUSH1 0x1F NOT DUP2 AND LT PUSH2 0x465E JUMPI JUMPDEST POP POP POP DUP2 SHL ADD PUSH1 0x3 DUP3 ADD SSTORE PUSH2 0x4285 JUMP JUMPDEST ADD MLOAD PUSH1 0x0 NOT PUSH1 0xF8 DUP5 PUSH1 0x3 SHL AND SHR NOT AND SWAP1 SSTORE DUP5 DUP1 DUP1 PUSH2 0x464E JUMP JUMPDEST SWAP1 SWAP2 PUSH1 0x20 PUSH1 0x1 DUP2 SWAP3 DUP6 DUP11 ADD MLOAD DUP2 SSTORE ADD SWAP4 ADD SWAP2 ADD PUSH2 0x4631 JUMP JUMPDEST CALLVALUE PUSH2 0x382 JUMPI PUSH1 0x0 CALLDATASIZE PUSH1 0x3 NOT ADD SLT PUSH2 0x382 JUMPI PUSH1 0x20 PUSH1 0xA SLOAD PUSH1 0x40 MLOAD SWAP1 DUP2 MSTORE RETURN JUMPDEST CALLVALUE PUSH2 0x382 JUMPI PUSH1 0x0 CALLDATASIZE PUSH1 0x3 NOT ADD SLT PUSH2 0x382 JUMPI PUSH1 0x20 PUSH1 0x1C SLOAD PUSH1 0x40 MLOAD SWAP1 DUP2 MSTORE RETURN JUMPDEST CALLVALUE PUSH2 0x382 JUMPI PUSH1 0x0 CALLDATASIZE PUSH1 0x3 NOT ADD SLT PUSH2 0x382 JUMPI PUSH1 0x0 DUP1 MSTORE PUSH1 0xB PUSH1 0x20 SWAP1 DUP2 MSTORE PUSH32 0xDF7DE25B7F1FD6D0B5205F0E18F1F35BD7B8D84CCE336588D184533CE43A6F76 SLOAD PUSH1 0x40 MLOAD SWAP1 DUP2 MSTORE RETURN JUMPDEST CALLVALUE PUSH2 0x382 JUMPI PUSH1 0x20 CALLDATASIZE PUSH1 0x3 NOT ADD SLT PUSH2 0x382 JUMPI PUSH1 0x0 PUSH1 0x40 DUP1 MLOAD PUSH2 0x4731 DUP2 PUSH2 0x4B43 JUMP JUMPDEST DUP3 DUP2 MSTORE DUP3 PUSH1 0x20 DUP3 ADD MSTORE ADD MSTORE PUSH1 0x4 CALLDATALOAD PUSH1 0x0 MSTORE PUSH1 0x14 PUSH1 0x20 MSTORE PUSH1 0x60 PUSH1 0x40 PUSH1 0x0 KECCAK256 PUSH1 0x40 MLOAD PUSH2 0x475A DUP2 PUSH2 0x4B43 JUMP JUMPDEST PUSH1 0x1 DUP3 SLOAD SWAP3 DUP4 DUP4 MSTORE ADD SLOAD SWAP1 PUSH1 0x20 DUP2 ADD PUSH1 0xFF PUSH1 0x40 PUSH1 0x1 DUP1 PUSH1 0xA0 SHL SUB SWAP4 DUP5 DUP7 AND DUP5 MSTORE ADD SWAP4 PUSH1 0xA0 SHR AND ISZERO ISZERO DUP4 MSTORE PUSH1 0x40 MLOAD SWAP4 DUP5 MSTORE MLOAD AND PUSH1 0x20 DUP4 ADD MSTORE MLOAD ISZERO ISZERO PUSH1 0x40 DUP3 ADD MSTORE RETURN JUMPDEST CALLVALUE PUSH2 0x382 JUMPI PUSH2 0x47A9 CALLDATASIZE PUSH2 0x4CF9 JUMP JUMPDEST SWAP1 PUSH2 0x47B2 PUSH2 0x4ED6 JUMP JUMPDEST PUSH1 0x5 DUP2 LT ISZERO PUSH2 0x47C1 JUMPI PUSH1 0x17 ADD SSTORE STOP JUMPDEST PUSH1 0x40 MLOAD PUSH3 0x461BCD PUSH1 0xE5 SHL DUP2 MSTORE PUSH1 0x20 PUSH1 0x4 DUP3 ADD MSTORE PUSH1 0xD PUSH1 0x24 DUP3 ADD MSTORE PUSH13 0x92DCECC2D8D2C840D2DCC8CAF PUSH1 0x9B SHL PUSH1 0x44 DUP3 ADD MSTORE PUSH1 0x64 SWAP1 REVERT JUMPDEST CALLVALUE PUSH2 0x382 JUMPI PUSH1 0x20 CALLDATASIZE PUSH1 0x3 NOT ADD SLT PUSH2 0x382 JUMPI PUSH1 0x4 CALLDATALOAD DUP1 ISZERO ISZERO DUP1 SWAP2 SUB PUSH2 0x382 JUMPI PUSH2 0x481C PUSH2 0x4ED6 JUMP JUMPDEST PUSH1 0xFF DUP1 NOT PUSH1 0x11 SLOAD AND SWAP2 AND OR PUSH1 0x11 SSTORE PUSH1 0x0 DUP1 RETURN JUMPDEST CALLVALUE PUSH2 0x382 JUMPI PUSH1 0x40 CALLDATASIZE PUSH1 0x3 NOT ADD SLT PUSH2 0x382 JUMPI PUSH2 0x4848 PUSH2 0x4CBE JUMP JUMPDEST PUSH1 0x24 CALLDATALOAD PUSH2 0x4854 DUP2 PUSH2 0x514E JUMP JUMPDEST CALLER ISZERO ISZERO DUP1 PUSH2 0x4903 JUMPI JUMPDEST DUP1 PUSH2 0x48D6 JUMPI JUMPDEST PUSH2 0x48BE JUMPI PUSH1 0x1 PUSH1 0x1 PUSH1 0xA0 SHL SUB SWAP3 DUP4 AND SWAP3 DUP3 SWAP2 DUP5 SWAP2 AND PUSH32 0x8C5BE1E5EBEC7D5BD14F71427D1E84F3DD0314C0F7B2291E5B200AC8C7C3B925 PUSH1 0x0 DUP1 LOG4 PUSH1 0x0 SWAP1 DUP2 MSTORE PUSH1 0x4 PUSH1 0x20 MSTORE PUSH1 0x40 SWAP1 KECCAK256 DUP1 SLOAD PUSH1 0x1 PUSH1 0x1 PUSH1 0xA0 SHL SUB NOT AND SWAP1 SWAP2 OR SWAP1 SSTORE STOP JUMPDEST PUSH1 0x40 MLOAD PUSH4 0xA9FBF51F PUSH1 0xE0 SHL DUP2 MSTORE CALLER PUSH1 0x4 DUP3 ADD MSTORE PUSH1 0x24 SWAP1 REVERT JUMPDEST POP PUSH1 0x1 DUP1 PUSH1 0xA0 SHL SUB DUP2 AND PUSH1 0x0 MSTORE PUSH1 0x5 PUSH1 0x20 MSTORE PUSH1 0x40 PUSH1 0x0 KECCAK256 CALLER PUSH1 0x0 MSTORE PUSH1 0x20 MSTORE PUSH1 0xFF PUSH1 0x40 PUSH1 0x0 KECCAK256 SLOAD AND ISZERO PUSH2 0x4863 JUMP JUMPDEST POP PUSH1 0x1 PUSH1 0x1 PUSH1 0xA0 SHL SUB DUP2 AND CALLER EQ ISZERO PUSH2 0x485D JUMP JUMPDEST CALLVALUE PUSH2 0x382 JUMPI PUSH1 0x20 CALLDATASIZE PUSH1 0x3 NOT ADD SLT PUSH2 0x382 JUMPI PUSH1 0x4 CALLDATALOAD PUSH2 0x4933 DUP2 PUSH2 0x514E JUMP JUMPDEST POP PUSH1 0x0 MSTORE PUSH1 0x4 PUSH1 0x20 MSTORE PUSH1 0x20 PUSH1 0x1 DUP1 PUSH1 0xA0 SHL SUB PUSH1 0x40 PUSH1 0x0 KECCAK256 SLOAD AND PUSH1 0x40 MLOAD SWAP1 DUP2 MSTORE RETURN JUMPDEST CALLVALUE PUSH2 0x382 JUMPI PUSH1 0x0 CALLDATASIZE PUSH1 0x3 NOT ADD SLT PUSH2 0x382 JUMPI PUSH1 0x40 MLOAD PUSH1 0x0 DUP1 SLOAD PUSH2 0x4975 DUP2 PUSH2 0x4B09 JUMP JUMPDEST DUP1 DUP5 MSTORE SWAP1 PUSH1 0x1 SWAP1 DUP2 DUP2 AND SWAP1 DUP2 ISZERO PUSH2 0x1BEC JUMPI POP PUSH1 0x1 EQ PUSH2 0x499E JUMPI PUSH2 0x7DD DUP5 PUSH2 0x1B7F DUP2 DUP7 SUB DUP3 PUSH2 0x4BAF JUMP JUMPDEST PUSH1 0x0 DUP1 DUP1 MSTORE SWAP3 POP PUSH32 0x290DECD9548B62A8D60345A988386FC84BA6BC95484008F6362F93160EF3E563 JUMPDEST DUP3 DUP5 LT PUSH2 0x49DF JUMPI POP POP POP DUP2 ADD PUSH1 0x20 ADD PUSH2 0x1B7F DUP3 PUSH2 0x1B6F JUMP JUMPDEST DUP1 SLOAD PUSH1 0x20 DUP6 DUP8 ADD DUP2 ADD SWAP2 SWAP1 SWAP2 MSTORE SWAP1 SWAP4 ADD SWAP3 DUP2 ADD PUSH2 0x49C7 JUMP JUMPDEST CALLVALUE PUSH2 0x382 JUMPI PUSH1 0x20 CALLDATASIZE PUSH1 0x3 NOT ADD SLT PUSH2 0x382 JUMPI PUSH1 0x4 CALLDATALOAD PUSH1 0x5 DUP2 LT ISZERO PUSH2 0x382 JUMPI PUSH2 0x1B7F PUSH2 0x8AB PUSH2 0x7DD SWAP3 PUSH2 0x4AD7 JUMP JUMPDEST CALLVALUE PUSH2 0x382 JUMPI PUSH1 0x20 CALLDATASIZE PUSH1 0x3 NOT ADD SLT PUSH2 0x382 JUMPI PUSH1 0x4 CALLDATALOAD PUSH2 0x4A3F PUSH2 0x4ED6 JUMP JUMPDEST PUSH2 0x4A4D PUSH2 0x3E8 DUP3 GT ISZERO PUSH2 0x5832 JUMP JUMPDEST PUSH1 0x10 SSTORE STOP JUMPDEST CALLVALUE PUSH2 0x382 JUMPI PUSH1 0x20 CALLDATASIZE PUSH1 0x3 NOT ADD SLT PUSH2 0x382 JUMPI PUSH1 0x4 CALLDATALOAD SWAP1 PUSH4 0xFFFFFFFF PUSH1 0xE0 SHL DUP3 AND DUP1 SWAP3 SUB PUSH2 0x382 JUMPI PUSH1 0x20 SWAP2 PUSH4 0x24832483 PUSH1 0xE1 SHL DUP2 EQ SWAP1 DUP2 ISZERO PUSH2 0x4A94 JUMPI JUMPDEST POP ISZERO ISZERO DUP2 MSTORE RETURN JUMPDEST PUSH4 0x80AC58CD PUSH1 0xE0 SHL DUP2 EQ SWAP2 POP DUP2 ISZERO PUSH2 0x4AC6 JUMPI JUMPDEST DUP2 ISZERO PUSH2 0x4AB5 JUMPI JUMPDEST POP DUP4 PUSH2 0x4A8D JUMP JUMPDEST PUSH4 0x1FFC9A7 PUSH1 0xE0 SHL EQ SWAP1 POP DUP4 PUSH2 0x4AAE JUMP JUMPDEST PUSH4 0x5B5E139F PUSH1 0xE0 SHL DUP2 EQ SWAP2 POP PUSH2 0x4AA7 JUMP JUMPDEST PUSH1 0x5 DUP2 LT ISZERO PUSH2 0x92C JUMPI PUSH1 0x0 MSTORE PUSH1 0x16 PUSH1 0x20 MSTORE PUSH1 0x40 PUSH1 0x0 KECCAK256 SWAP1 JUMP JUMPDEST PUSH1 0x5 DUP2 LT ISZERO PUSH2 0x92C JUMPI PUSH1 0x0 MSTORE PUSH1 0xB PUSH1 0x20 MSTORE PUSH1 0x40 PUSH1 0x0 KECCAK256 SWAP1 JUMP JUMPDEST SWAP1 PUSH1 0x1 DUP3 DUP2 SHR SWAP3 AND DUP1 ISZERO PUSH2 0x4B39 JUMPI JUMPDEST PUSH1 0x20 DUP4 LT EQ PUSH2 0x4B23 JUMPI JUMP JUMPDEST PUSH4 0x4E487B71 PUSH1 0xE0 SHL PUSH1 0x0 MSTORE PUSH1 0x22 PUSH1 0x4 MSTORE PUSH1 0x24 PUSH1 0x0 REVERT JUMPDEST SWAP2 PUSH1 0x7F AND SWAP2 PUSH2 0x4B18 JUMP JUMPDEST PUSH1 0x60 DUP2 ADD SWAP1 DUP2 LT PUSH1 0x1 PUSH1 0x1 PUSH1 0x40 SHL SUB DUP3 GT OR PUSH2 0x13D2 JUMPI PUSH1 0x40 MSTORE JUMP JUMPDEST PUSH1 0xC0 DUP2 ADD SWAP1 DUP2 LT PUSH1 0x1 PUSH1 0x1 PUSH1 0x40 SHL SUB DUP3 GT OR PUSH2 0x13D2 JUMPI PUSH1 0x40 MSTORE JUMP JUMPDEST PUSH1 0xA0 DUP2 ADD SWAP1 DUP2 LT PUSH1 0x1 PUSH1 0x1 PUSH1 0x40 SHL SUB DUP3 GT OR PUSH2 0x13D2 JUMPI PUSH1 0x40 MSTORE JUMP JUMPDEST PUSH1 0x20 DUP2 ADD SWAP1 DUP2 LT PUSH1 0x1 PUSH1 0x1 PUSH1 0x40 SHL SUB DUP3 GT OR PUSH2 0x13D2 JUMPI PUSH1 0x40 MSTORE JUMP JUMPDEST SWAP1 PUSH1 0x1F DUP1 NOT SWAP2 ADD AND DUP2 ADD SWAP1 DUP2 LT PUSH1 0x1 PUSH1 0x1 PUSH1 0x40 SHL SUB DUP3 GT OR PUSH2 0x13D2 JUMPI PUSH1 0x40 MSTORE JUMP JUMPDEST SWAP1 PUSH1 0x40 MLOAD SWAP2 DUP3 PUSH1 0x0 DUP3 SLOAD SWAP3 PUSH2 0x4BE4 DUP5 PUSH2 0x4B09 JUMP JUMPDEST SWAP1 DUP2 DUP5 MSTORE PUSH1 0x1 SWAP5 DUP6 DUP2 AND SWAP1 DUP2 PUSH1 0x0 EQ PUSH2 0x4C53 JUMPI POP PUSH1 0x1 EQ PUSH2 0x4C10 JUMPI JUMPDEST POP POP PUSH2 0x4C0E SWAP3 POP SUB DUP4 PUSH2 0x4BAF JUMP JUMPDEST JUMP JUMPDEST SWAP1 SWAP4 SWAP2 POP PUSH1 0x0 MSTORE PUSH1 0x20 SWAP1 DUP2 PUSH1 0x0 KECCAK256 SWAP4 PUSH1 0x0 SWAP2 JUMPDEST DUP2 DUP4 LT PUSH2 0x4C3B JUMPI POP POP PUSH2 0x4C0E SWAP4 POP DUP3 ADD ADD CODESIZE DUP1 PUSH2 0x4C00 JUMP JUMPDEST DUP6 SLOAD DUP9 DUP5 ADD DUP6 ADD MSTORE SWAP5 DUP6 ADD SWAP5 DUP8 SWAP5 POP SWAP2 DUP4 ADD SWAP2 PUSH2 0x4C23 JUMP JUMPDEST SWAP2 POP POP PUSH2 0x4C0E SWAP5 POP PUSH1 0x20 SWAP3 POP PUSH1 0xFF NOT AND DUP3 DUP5 ADD MSTORE ISZERO ISZERO PUSH1 0x5 SHL DUP3 ADD ADD CODESIZE DUP1 PUSH2 0x4C00 JUMP JUMPDEST PUSH1 0x0 JUMPDEST DUP4 DUP2 LT PUSH2 0x4C89 JUMPI POP POP PUSH1 0x0 SWAP2 ADD MSTORE JUMP JUMPDEST DUP2 DUP2 ADD MLOAD DUP4 DUP3 ADD MSTORE PUSH1 0x20 ADD PUSH2 0x4C79 JUMP JUMPDEST SWAP1 PUSH1 0x20 SWAP2 PUSH2 0x4CB2 DUP2 MLOAD DUP1 SWAP3 DUP2 DUP6 MSTORE DUP6 DUP1 DUP7 ADD SWAP2 ADD PUSH2 0x4C76 JUMP JUMPDEST PUSH1 0x1F ADD PUSH1 0x1F NOT AND ADD ADD SWAP1 JUMP JUMPDEST PUSH1 0x4 CALLDATALOAD SWAP1 PUSH1 0x1 PUSH1 0x1 PUSH1 0xA0 SHL SUB DUP3 AND DUP3 SUB PUSH2 0x382 JUMPI JUMP JUMPDEST PUSH1 0x24 CALLDATALOAD SWAP1 PUSH1 0x1 PUSH1 0x1 PUSH1 0xA0 SHL SUB DUP3 AND DUP3 SUB PUSH2 0x382 JUMPI JUMP JUMPDEST PUSH1 0x24 CALLDATALOAD SWAP1 DUP2 ISZERO ISZERO DUP3 SUB PUSH2 0x382 JUMPI JUMP JUMPDEST PUSH1 0x40 SWAP1 PUSH1 0x3 NOT ADD SLT PUSH2 0x382 JUMPI PUSH1 0x4 CALLDATALOAD SWAP1 PUSH1 0x24 CALLDATALOAD SWAP1 JUMP JUMPDEST PUSH1 0x1 PUSH1 0x1 PUSH1 0x40 SHL SUB DUP2 GT PUSH2 0x13D2 JUMPI PUSH1 0x1F ADD PUSH1 0x1F NOT AND PUSH1 0x20 ADD SWAP1 JUMP JUMPDEST SWAP3 SWAP2 SWAP3 PUSH2 0x4D36 DUP3 PUSH2 0x4D0F JUMP JUMPDEST SWAP2 PUSH2 0x4D44 PUSH1 0x40 MLOAD SWAP4 DUP5 PUSH2 0x4BAF JUMP JUMPDEST DUP3 SWAP5 DUP2 DUP5 MSTORE DUP2 DUP4 ADD GT PUSH2 0x382 JUMPI DUP3 DUP2 PUSH1 0x20 SWAP4 DUP5 PUSH1 0x0 SWAP7 ADD CALLDATACOPY ADD ADD MSTORE JUMP JUMPDEST SWAP1 DUP1 PUSH1 0x1F DUP4 ADD SLT ISZERO PUSH2 0x382 JUMPI DUP2 PUSH1 0x20 PUSH2 0x4D7C SWAP4 CALLDATALOAD SWAP2 ADD PUSH2 0x4D2A JUMP JUMPDEST SWAP1 JUMP JUMPDEST PUSH1 0x60 SWAP1 PUSH1 0x3 NOT ADD SLT PUSH2 0x382 JUMPI PUSH1 0x1 PUSH1 0x1 PUSH1 0xA0 SHL SUB SWAP1 PUSH1 0x4 CALLDATALOAD DUP3 DUP2 AND DUP2 SUB PUSH2 0x382 JUMPI SWAP2 PUSH1 0x24 CALLDATALOAD SWAP1 DUP2 AND DUP2 SUB PUSH2 0x382 JUMPI SWAP1 PUSH1 0x44 CALLDATALOAD SWAP1 JUMP JUMPDEST PUSH1 0x80 SWAP1 DUP2 PUSH1 0x1 PUSH1 0x1 PUSH1 0x80 SHL SUB SWAP2 DUP3 DUP2 MLOAD AND DUP6 MSTORE DUP3 PUSH1 0x20 DUP3 ADD MLOAD AND PUSH1 0x20 DUP7 ADD MSTORE DUP3 PUSH1 0x40 DUP3 ADD MLOAD AND PUSH1 0x40 DUP7 ADD MSTORE DUP3 PUSH1 0x60 DUP3 ADD MLOAD AND PUSH1 0x60 DUP7 ADD MSTORE ADD MLOAD AND SWAP2 ADD MSTORE JUMP JUMPDEST SWAP2 DUP2 PUSH1 0x1F DUP5 ADD SLT ISZERO PUSH2 0x382 JUMPI DUP3 CALLDATALOAD SWAP2 PUSH1 0x1 PUSH1 0x1 PUSH1 0x40 SHL SUB DUP4 GT PUSH2 0x382 JUMPI PUSH1 0x20 DUP4 DUP2 DUP7 ADD SWAP6 ADD ADD GT PUSH2 0x382 JUMPI JUMP JUMPDEST SWAP1 PUSH1 0x40 PUSH1 0x3 NOT DUP4 ADD SLT PUSH2 0x382 JUMPI PUSH1 0x4 CALLDATALOAD SWAP2 PUSH1 0x24 CALLDATALOAD SWAP1 PUSH1 0x1 PUSH1 0x1 PUSH1 0x40 SHL SUB DUP3 GT PUSH2 0x382 JUMPI PUSH2 0x4E4F SWAP2 PUSH1 0x4 ADD PUSH2 0x4DF3 JUMP JUMPDEST SWAP1 SWAP2 JUMP JUMPDEST SWAP2 DUP2 PUSH1 0x1F DUP5 ADD SLT ISZERO PUSH2 0x382 JUMPI DUP3 CALLDATALOAD SWAP2 PUSH1 0x1 PUSH1 0x1 PUSH1 0x40 SHL SUB DUP4 GT PUSH2 0x382 JUMPI PUSH1 0x20 DUP1 DUP6 ADD SWAP5 DUP5 PUSH1 0x5 SHL ADD ADD GT PUSH2 0x382 JUMPI JUMP JUMPDEST PUSH1 0x20 SWAP1 DUP2 PUSH1 0x40 DUP2 DUP4 ADD SWAP3 DUP3 DUP2 MSTORE DUP6 MLOAD DUP1 SWAP5 MSTORE ADD SWAP4 ADD SWAP2 PUSH1 0x0 JUMPDEST DUP3 DUP2 LT PUSH2 0x4EAA JUMPI POP POP POP POP SWAP1 JUMP JUMPDEST DUP4 MLOAD DUP6 MSTORE SWAP4 DUP2 ADD SWAP4 SWAP3 DUP2 ADD SWAP3 PUSH1 0x1 ADD PUSH2 0x4E9C JUMP JUMPDEST DUP1 SLOAD DUP3 LT ISZERO PUSH2 0x29A8 JUMPI PUSH1 0x0 MSTORE PUSH1 0x20 PUSH1 0x0 KECCAK256 ADD SWAP1 PUSH1 0x0 SWAP1 JUMP JUMPDEST PUSH1 0x7 SLOAD PUSH1 0x1 PUSH1 0x1 PUSH1 0xA0 SHL SUB AND CALLER SUB PUSH2 0x4EEA JUMPI JUMP JUMPDEST PUSH1 0x40 MLOAD PUSH4 0x118CDAA7 PUSH1 0xE0 SHL DUP2 MSTORE CALLER PUSH1 0x4 DUP3 ADD MSTORE PUSH1 0x24 SWAP1 REVERT JUMPDEST SWAP1 PUSH1 0x1 PUSH1 0x1 PUSH1 0xA0 SHL SUB SWAP1 DUP2 AND DUP1 ISZERO PUSH2 0x5B8 JUMPI PUSH1 0x0 SWAP2 DUP5 DUP4 MSTORE DUP5 PUSH1 0x20 SWAP3 PUSH1 0x2 DUP5 MSTORE PUSH1 0x40 SWAP4 DUP4 DUP6 DUP8 KECCAK256 SLOAD AND SWAP6 DUP7 SWAP2 CALLER ISZERO ISZERO DUP1 PUSH2 0x4FFC JUMPI JUMPDEST POP SWAP1 PUSH1 0x2 PUSH32 0xDDF252AD1BE2C89B69C2B068FC378DAA952BA7F163C4A11628F55A4DF523B3EF SWAP3 DUP5 PUSH2 0x4FC9 JUMPI JUMPDEST DUP6 DUP4 MSTORE PUSH1 0x3 DUP2 MSTORE DUP9 DUP4 KECCAK256 DUP1 SLOAD PUSH1 0x1 ADD SWAP1 SSTORE DUP7 DUP4 MSTORE MSTORE DUP7 DUP2 KECCAK256 DUP1 SLOAD PUSH1 0x1 PUSH1 0x1 PUSH1 0xA0 SHL SUB NOT AND DUP6 OR SWAP1 SSTORE DUP1 LOG4 DUP4 AND DUP3 SUB PUSH2 0x4F9B JUMPI POP POP POP POP JUMP JUMPDEST MLOAD PUSH4 0x64283D7B PUSH1 0xE0 SHL DUP2 MSTORE PUSH1 0x1 PUSH1 0x1 PUSH1 0xA0 SHL SUB SWAP3 DUP4 AND PUSH1 0x4 DUP3 ADD MSTORE PUSH1 0x24 DUP2 ADD SWAP4 SWAP1 SWAP4 MSTORE AND PUSH1 0x44 DUP3 ADD MSTORE PUSH1 0x64 SWAP1 REVERT JUMPDEST PUSH1 0x0 DUP8 DUP2 MSTORE PUSH1 0x4 PUSH1 0x20 MSTORE PUSH1 0x40 SWAP1 KECCAK256 DUP1 SLOAD PUSH1 0x1 PUSH1 0x1 PUSH1 0xA0 SHL SUB NOT AND SWAP1 SSTORE DUP5 DUP4 MSTORE PUSH1 0x3 DUP2 MSTORE DUP9 DUP4 KECCAK256 DUP1 SLOAD PUSH1 0x0 NOT ADD SWAP1 SSTORE PUSH2 0x4F63 JUMP JUMPDEST SWAP2 SWAP4 SWAP5 POP SWAP2 POP DUP1 PUSH2 0x5051 JUMPI JUMPDEST ISZERO PUSH2 0x5018 JUMPI DUP8 SWAP3 SWAP2 DUP7 SWAP2 CODESIZE PUSH2 0x4F37 JUMP JUMPDEST DUP5 DUP9 DUP8 PUSH2 0x5035 JUMPI PUSH1 0x24 SWAP2 MLOAD SWAP1 PUSH4 0x7E273289 PUSH1 0xE0 SHL DUP3 MSTORE PUSH1 0x4 DUP3 ADD MSTORE REVERT JUMPDEST PUSH1 0x44 SWAP2 MLOAD SWAP1 PUSH4 0x177E802F PUSH1 0xE0 SHL DUP3 MSTORE CALLER PUSH1 0x4 DUP4 ADD MSTORE PUSH1 0x24 DUP3 ADD MSTORE REVERT JUMPDEST POP CALLER DUP7 EQ DUP1 ISZERO PUSH2 0x5076 JUMPI JUMPDEST DUP1 PUSH2 0x5008 JUMPI POP DUP8 DUP3 MSTORE PUSH1 0x4 DUP2 MSTORE CALLER DUP5 DUP7 DUP5 KECCAK256 SLOAD AND EQ PUSH2 0x5008 JUMP JUMPDEST POP DUP6 DUP3 MSTORE PUSH1 0x5 DUP2 MSTORE DUP5 DUP3 KECCAK256 CALLER DUP4 MSTORE DUP2 MSTORE PUSH1 0xFF DUP6 DUP4 KECCAK256 SLOAD AND PUSH2 0x505C JUMP JUMPDEST PUSH1 0x0 DUP3 DUP2 MSTORE PUSH1 0x2 PUSH1 0x20 MSTORE PUSH1 0x40 DUP2 KECCAK256 SLOAD PUSH1 0x1 PUSH1 0x1 PUSH1 0xA0 SHL SUB SWAP1 DUP2 AND SWAP4 SWAP3 DUP5 SWAP2 PUSH32 0xDDF252AD1BE2C89B69C2B068FC378DAA952BA7F163C4A11628F55A4DF523B3EF SWAP2 DUP4 PUSH2 0x5119 JUMPI JUMPDEST AND SWAP3 DUP4 PUSH2 0x5101 JUMPI JUMPDEST DUP5 DUP2 MSTORE PUSH1 0x2 PUSH1 0x20 MSTORE PUSH1 0x40 DUP2 KECCAK256 DUP1 SLOAD PUSH1 0x1 PUSH1 0x1 PUSH1 0xA0 SHL SUB NOT AND DUP6 OR SWAP1 SSTORE DUP1 LOG4 SWAP1 JUMP JUMPDEST DUP4 DUP2 MSTORE PUSH1 0x3 PUSH1 0x20 MSTORE PUSH1 0x40 DUP2 KECCAK256 PUSH1 0x1 DUP2 SLOAD ADD SWAP1 SSTORE PUSH2 0x50E0 JUMP JUMPDEST PUSH1 0x0 DUP7 DUP2 MSTORE PUSH1 0x4 PUSH1 0x20 MSTORE PUSH1 0x40 SWAP1 KECCAK256 DUP1 SLOAD PUSH1 0x1 PUSH1 0x1 PUSH1 0xA0 SHL SUB NOT AND SWAP1 SSTORE DUP4 DUP6 MSTORE PUSH1 0x3 PUSH1 0x20 MSTORE PUSH1 0x40 DUP6 KECCAK256 DUP1 SLOAD PUSH1 0x0 NOT ADD SWAP1 SSTORE PUSH2 0x50D8 JUMP JUMPDEST PUSH1 0x0 DUP2 DUP2 MSTORE PUSH1 0x2 PUSH1 0x20 MSTORE PUSH1 0x40 SWAP1 KECCAK256 SLOAD PUSH1 0x1 PUSH1 0x1 PUSH1 0xA0 SHL SUB AND SWAP1 DUP2 ISZERO PUSH2 0x5171 JUMPI POP SWAP1 JUMP JUMPDEST PUSH1 0x24 SWAP1 PUSH1 0x40 MLOAD SWAP1 PUSH4 0x7E273289 PUSH1 0xE0 SHL DUP3 MSTORE PUSH1 0x4 DUP3 ADD MSTORE REVERT JUMPDEST RETURNDATASIZE ISZERO PUSH2 0x51B4 JUMPI RETURNDATASIZE SWAP1 PUSH2 0x519A DUP3 PUSH2 0x4D0F JUMP JUMPDEST SWAP2 PUSH2 0x51A8 PUSH1 0x40 MLOAD SWAP4 DUP5 PUSH2 0x4BAF JUMP JUMPDEST DUP3 MSTORE RETURNDATASIZE PUSH1 0x0 PUSH1 0x20 DUP5 ADD RETURNDATACOPY JUMP JUMPDEST PUSH1 0x60 SWAP1 JUMP JUMPDEST SWAP3 SWAP4 DUP3 EXTCODESIZE PUSH2 0x51C9 JUMPI JUMPDEST POP POP POP POP POP JUMP JUMPDEST PUSH2 0x520D SWAP1 PUSH1 0x1 DUP1 PUSH1 0xA0 SHL SUB DUP1 SWAP5 AND SWAP6 PUSH1 0x40 MLOAD SWAP5 DUP6 SWAP5 DUP2 PUSH4 0xA85BD01 PUSH1 0xE1 SHL SWAP9 DUP10 DUP9 MSTORE AND PUSH1 0x4 DUP8 ADD MSTORE AND PUSH1 0x24 DUP6 ADD MSTORE PUSH1 0x44 DUP5 ADD MSTORE PUSH1 0x80 PUSH1 0x64 DUP5 ADD MSTORE PUSH1 0x84 DUP4 ADD SWAP1 PUSH2 0x4C99 JUMP JUMPDEST SUB SWAP1 PUSH1 0x20 DUP2 PUSH1 0x0 SWAP4 DUP2 DUP6 DUP9 GAS CALL SWAP1 DUP3 SWAP1 DUP3 PUSH2 0x528D JUMPI JUMPDEST POP POP PUSH2 0x525B JUMPI DUP3 PUSH2 0x5232 PUSH2 0x5189 JUMP JUMPDEST DUP1 MLOAD SWAP2 SWAP1 DUP3 PUSH2 0x5254 JUMPI PUSH1 0x40 MLOAD PUSH4 0x32505749 PUSH1 0xE1 SHL DUP2 MSTORE PUSH1 0x4 DUP2 ADD DUP4 SWAP1 MSTORE PUSH1 0x24 SWAP1 REVERT JUMPDEST PUSH1 0x20 SWAP2 POP ADD REVERT JUMPDEST PUSH1 0x1 PUSH1 0x1 PUSH1 0xE0 SHL SUB NOT AND SUB PUSH2 0x5275 JUMPI POP CODESIZE DUP1 DUP1 DUP1 DUP1 PUSH2 0x51C2 JUMP JUMPDEST PUSH1 0x24 SWAP1 PUSH1 0x40 MLOAD SWAP1 PUSH4 0x32505749 PUSH1 0xE1 SHL DUP3 MSTORE PUSH1 0x4 DUP3 ADD MSTORE REVERT JUMPDEST SWAP1 SWAP2 SWAP3 POP PUSH1 0x20 DUP2 RETURNDATASIZE DUP3 GT PUSH2 0x52D4 JUMPI JUMPDEST DUP2 PUSH2 0x52A9 PUSH1 0x20 SWAP4 DUP4 PUSH2 0x4BAF JUMP JUMPDEST DUP2 ADD SUB SLT PUSH2 0x52D0 JUMPI MLOAD SWAP1 PUSH1 0x1 PUSH1 0x1 PUSH1 0xE0 SHL SUB NOT DUP3 AND DUP3 SUB PUSH2 0x52CD JUMPI POP SWAP1 CODESIZE DUP1 PUSH2 0x5223 JUMP JUMPDEST DUP1 REVERT JUMPDEST POP DUP1 REVERT JUMPDEST RETURNDATASIZE SWAP2 POP PUSH2 0x529C JUMP JUMPDEST PUSH1 0x0 NOT DUP2 EQ PUSH2 0x52EB JUMPI PUSH1 0x1 ADD SWAP1 JUMP JUMPDEST PUSH4 0x4E487B71 PUSH1 0xE0 SHL PUSH1 0x0 MSTORE PUSH1 0x11 PUSH1 0x4 MSTORE PUSH1 0x24 PUSH1 0x0 REVERT JUMPDEST SWAP1 PUSH1 0x1F DUP2 GT PUSH2 0x530F JUMPI POP POP POP JUMP JUMPDEST PUSH1 0x0 SWAP2 DUP3 MSTORE PUSH1 0x20 DUP3 KECCAK256 SWAP1 PUSH1 0x20 PUSH1 0x1F DUP6 ADD PUSH1 0x5 SHR DUP4 ADD SWAP5 LT PUSH2 0x534B JUMPI JUMPDEST PUSH1 0x1F ADD PUSH1 0x5 SHR ADD SWAP2 JUMPDEST DUP3 DUP2 LT PUSH2 0x5340 JUMPI POP POP POP JUMP JUMPDEST DUP2 DUP2 SSTORE PUSH1 0x1 ADD PUSH2 0x5334 JUMP JUMPDEST SWAP1 SWAP3 POP DUP3 SWAP1 PUSH2 0x532B JUMP JUMPDEST SWAP1 PUSH1 0x5 DUP2 LT ISZERO PUSH2 0x92C JUMPI DUP2 SLOAD PUSH1 0xFF PUSH1 0xA0 SHL NOT AND PUSH1 0xA0 SWAP2 SWAP1 SWAP2 SHL PUSH1 0xFF PUSH1 0xA0 SHL AND OR SWAP1 SSTORE JUMP JUMPDEST SWAP1 CALLDATALOAD SWAP1 PUSH1 0x1E NOT DUP2 CALLDATASIZE SUB ADD DUP3 SLT ISZERO PUSH2 0x382 JUMPI ADD DUP1 CALLDATALOAD SWAP1 PUSH1 0x1 PUSH1 0x1 PUSH1 0x40 SHL SUB DUP3 GT PUSH2 0x382 JUMPI PUSH1 0x20 ADD SWAP2 DUP2 CALLDATASIZE SUB DUP4 SGT PUSH2 0x382 JUMPI JUMP JUMPDEST DUP1 SLOAD PUSH9 0x10000000000000000 DUP2 LT ISZERO PUSH2 0x13D2 JUMPI PUSH2 0x53CD SWAP2 PUSH1 0x1 DUP3 ADD DUP2 SSTORE PUSH2 0x4EBE JUMP JUMPDEST DUP2 SWAP3 SWAP2 SLOAD SWAP1 PUSH1 0x3 SHL SWAP2 DUP3 SHL SWAP2 PUSH1 0x0 NOT SWAP1 SHL NOT AND OR SWAP1 SSTORE JUMP JUMPDEST SWAP1 DUP1 PUSH1 0x20 SWAP4 SWAP3 DUP2 DUP5 MSTORE DUP5 DUP5 ADD CALLDATACOPY PUSH1 0x0 DUP3 DUP3 ADD DUP5 ADD MSTORE PUSH1 0x1F ADD PUSH1 0x1F NOT AND ADD ADD SWAP1 JUMP JUMPDEST PUSH1 0x40 SWAP2 DUP3 MLOAD PUSH2 0x5414 DUP2 PUSH2 0x4B94 JUMP JUMPDEST PUSH1 0x0 DUP1 DUP3 MSTORE PUSH1 0x1 PUSH1 0x1 PUSH1 0xA0 SHL SUB DUP5 DUP2 AND SWAP5 SWAP2 SWAP3 SWAP2 SWAP1 DUP6 ISZERO PUSH2 0x5564 JUMPI PUSH2 0x5439 DUP6 DUP4 PUSH2 0x5092 JUMP JUMPDEST AND PUSH2 0x554C JUMPI EXTCODESIZE PUSH2 0x544A JUMPI POP POP POP POP POP JUMP JUMPDEST PUSH1 0x20 PUSH2 0x5487 SWAP2 DUP7 SWAP8 SWAP6 SWAP7 MLOAD DUP1 SWAP4 DUP2 SWAP3 PUSH4 0xA85BD01 PUSH1 0xE1 SHL SWAP8 DUP9 DUP5 MSTORE CALLER PUSH1 0x4 DUP6 ADD MSTORE DUP8 PUSH1 0x24 DUP6 ADD MSTORE PUSH1 0x44 DUP5 ADD MSTORE PUSH1 0x80 PUSH1 0x64 DUP5 ADD MSTORE PUSH1 0x84 DUP4 ADD SWAP1 PUSH2 0x4C99 JUMP JUMPDEST SUB DUP2 DUP6 DUP10 GAS CALL SWAP1 DUP3 SWAP1 DUP3 PUSH2 0x5504 JUMPI JUMPDEST POP POP PUSH2 0x54CF JUMPI POP POP POP PUSH2 0x54A7 PUSH2 0x5189 JUMP JUMPDEST DUP1 MLOAD SWAP3 SWAP1 DUP4 PUSH2 0x54C8 JUMPI DUP2 MLOAD PUSH4 0x32505749 PUSH1 0xE1 SHL DUP2 MSTORE PUSH1 0x4 DUP2 ADD DUP5 SWAP1 MSTORE PUSH1 0x24 SWAP1 REVERT JUMPDEST PUSH1 0x20 DUP5 SWAP2 ADD REVERT JUMPDEST SWAP2 SWAP4 SWAP2 PUSH1 0x1 PUSH1 0x1 PUSH1 0xE0 SHL SUB NOT AND SUB PUSH2 0x54ED JUMPI POP POP CODESIZE DUP1 DUP1 DUP1 DUP1 PUSH2 0x51C2 JUMP JUMPDEST PUSH1 0x24 SWAP3 POP MLOAD SWAP1 PUSH4 0x32505749 PUSH1 0xE1 SHL DUP3 MSTORE PUSH1 0x4 DUP3 ADD MSTORE REVERT JUMPDEST SWAP1 SWAP2 SWAP3 POP PUSH1 0x20 DUP2 RETURNDATASIZE DUP3 GT PUSH2 0x5544 JUMPI JUMPDEST DUP2 PUSH2 0x5520 PUSH1 0x20 SWAP4 DUP4 PUSH2 0x4BAF JUMP JUMPDEST DUP2 ADD SUB SLT PUSH2 0x52D0 JUMPI MLOAD SWAP1 PUSH1 0x1 PUSH1 0x1 PUSH1 0xE0 SHL SUB NOT DUP3 AND DUP3 SUB PUSH2 0x52CD JUMPI POP SWAP1 CODESIZE DUP1 PUSH2 0x5496 JUMP JUMPDEST RETURNDATASIZE SWAP2 POP PUSH2 0x5513 JUMP JUMPDEST DUP6 MLOAD PUSH4 0x39E35637 PUSH1 0xE1 SHL DUP2 MSTORE PUSH1 0x4 DUP2 ADD DUP5 SWAP1 MSTORE PUSH1 0x24 SWAP1 REVERT JUMPDEST DUP7 MLOAD PUSH4 0x32505749 PUSH1 0xE1 SHL DUP2 MSTORE PUSH1 0x4 DUP2 ADD DUP6 SWAP1 MSTORE PUSH1 0x24 SWAP1 REVERT JUMPDEST SWAP2 SWAP1 SWAP2 PUSH1 0x0 SWAP1 DUP1 DUP3 MSTORE PUSH1 0x20 SWAP2 PUSH1 0x6 DUP4 MSTORE PUSH1 0x40 DUP2 KECCAK256 SWAP1 DUP6 MLOAD SWAP1 PUSH1 0x1 PUSH1 0x1 PUSH1 0x40 SHL SUB DUP3 GT PUSH2 0x569A JUMPI PUSH2 0x55B6 DUP3 PUSH2 0x55B0 DUP6 SLOAD PUSH2 0x4B09 JUMP JUMPDEST DUP6 PUSH2 0x5301 JUMP JUMPDEST DUP5 SWAP1 PUSH1 0x1F DUP4 GT PUSH1 0x1 EQ PUSH2 0x5616 JUMPI SWAP1 PUSH32 0xF8E1A15ABA9398E019F0B49DF1A4FDE98EE17AE345CB5F6B5E2C27F5033E8CE7 SWAP7 SWAP8 DUP4 PUSH2 0x560B JUMPI JUMPDEST POP POP DUP2 PUSH1 0x1 SHL SWAP2 PUSH1 0x0 NOT SWAP1 PUSH1 0x3 SHL SHR NOT AND OR SWAP1 SSTORE JUMPDEST PUSH1 0x40 MLOAD SWAP1 DUP2 MSTORE LOG1 JUMP JUMPDEST ADD MLOAD SWAP1 POP CODESIZE DUP1 PUSH2 0x55ED JUMP JUMPDEST SWAP2 SWAP7 PUSH1 0x1F NOT DUP9 AND DUP5 DUP5 MSTORE DUP7 DUP5 KECCAK256 SWAP4 JUMPDEST DUP2 DUP2 LT PUSH2 0x5683 JUMPI POP SWAP2 PUSH1 0x1 SWAP4 SWAP2 DUP10 PUSH32 0xF8E1A15ABA9398E019F0B49DF1A4FDE98EE17AE345CB5F6B5E2C27F5033E8CE7 SWAP10 SWAP11 SWAP5 LT PUSH2 0x566A JUMPI JUMPDEST POP POP POP DUP2 SHL ADD SWAP1 SSTORE PUSH2 0x5602 JUMP JUMPDEST ADD MLOAD PUSH1 0x0 NOT PUSH1 0xF8 DUP5 PUSH1 0x3 SHL AND SHR NOT AND SWAP1 SSTORE CODESIZE DUP1 DUP1 PUSH2 0x565D JUMP JUMPDEST SWAP3 SWAP4 DUP8 PUSH1 0x1 DUP2 SWAP3 DUP8 DUP7 ADD MLOAD DUP2 SSTORE ADD SWAP6 ADD SWAP4 ADD PUSH2 0x5625 JUMP JUMPDEST PUSH4 0x4E487B71 PUSH1 0xE0 SHL DUP2 MSTORE PUSH1 0x41 PUSH1 0x4 MSTORE PUSH1 0x24 SWAP1 REVERT JUMPDEST PUSH1 0xFF PUSH1 0x9 SLOAD AND PUSH2 0x56BA JUMPI JUMP JUMPDEST PUSH1 0x40 MLOAD PUSH4 0xD93C0665 PUSH1 0xE0 SHL DUP2 MSTORE PUSH1 0x4 SWAP1 REVERT JUMPDEST SWAP2 SWAP1 DUP3 ADD DUP1 SWAP3 GT PUSH2 0x52EB JUMPI JUMP JUMPDEST PUSH1 0x1 PUSH1 0x1 PUSH1 0x40 SHL SUB DUP2 GT PUSH2 0x13D2 JUMPI PUSH1 0x5 SHL PUSH1 0x20 ADD SWAP1 JUMP JUMPDEST SWAP2 SWAP1 DUP2 LT ISZERO PUSH2 0x29A8 JUMPI PUSH1 0x5 SHL ADD SWAP1 JUMP JUMPDEST SWAP1 DUP3 LT ISZERO PUSH2 0x29A8 JUMPI PUSH2 0x4E4F SWAP2 PUSH1 0x5 SHL DUP2 ADD SWAP1 PUSH2 0x5379 JUMP JUMPDEST SWAP2 SWAP1 DUP3 SUB SWAP2 DUP3 GT PUSH2 0x52EB JUMPI JUMP JUMPDEST PUSH1 0x2 PUSH1 0x8 SLOAD EQ PUSH2 0x5735 JUMPI PUSH1 0x2 PUSH1 0x8 SSTORE JUMP JUMPDEST PUSH1 0x40 MLOAD PUSH4 0x3EE5AEB5 PUSH1 0xE0 SHL DUP2 MSTORE PUSH1 0x4 SWAP1 REVERT JUMPDEST PUSH1 0x40 MLOAD SWAP1 PUSH2 0x5754 DUP3 PUSH2 0x4B79 JUMP JUMPDEST PUSH1 0x0 PUSH1 0x80 DUP4 DUP3 DUP2 MSTORE DUP3 PUSH1 0x20 DUP3 ADD MSTORE DUP3 PUSH1 0x40 DUP3 ADD MSTORE DUP3 PUSH1 0x60 DUP3 ADD MSTORE ADD MSTORE JUMP JUMPDEST PUSH1 0x1 PUSH1 0x1 PUSH1 0x80 SHL SUB DUP1 SWAP2 AND SWAP1 DUP2 EQ PUSH2 0x52EB JUMPI PUSH1 0x1 ADD SWAP1 JUMP JUMPDEST PUSH1 0x1 PUSH1 0x1 PUSH1 0x80 SHL SUB PUSH1 0x1B SLOAD SWAP2 AND SWAP1 DUP2 LT ISZERO PUSH2 0x57D2 JUMPI PUSH1 0x1A SLOAD DUP2 LT ISZERO PUSH2 0x57CC JUMPI PUSH1 0x19 SLOAD DUP2 LT ISZERO PUSH2 0x57C6 JUMPI PUSH1 0x18 SLOAD GT ISZERO PUSH2 0x57C1 JUMPI PUSH1 0x0 SWAP1 JUMP JUMPDEST PUSH1 0x1 SWAP1 JUMP JUMPDEST POP PUSH1 0x2 SWAP1 JUMP JUMPDEST POP PUSH1 0x3 SWAP1 JUMP JUMPDEST POP PUSH1 0x4 SWAP1 JUMP JUMPDEST DUP2 DUP2 MUL SWAP3 SWAP2 DUP2 ISZERO SWAP2 DUP5 DIV EQ OR ISZERO PUSH2 0x52EB JUMPI JUMP JUMPDEST SWAP1 PUSH1 0x40 MLOAD PUSH2 0x57F8 DUP2 PUSH2 0x4B79 JUMP JUMPDEST PUSH1 0x80 DUP2 SWAP4 PUSH1 0x2 DUP2 SLOAD SWAP2 PUSH1 0x1 PUSH1 0x1 PUSH1 0x80 SHL SUB SWAP3 DUP4 DUP2 AND DUP7 MSTORE DUP5 SHR PUSH1 0x20 DUP7 ADD MSTORE PUSH1 0x1 DUP2 ADD SLOAD DUP4 DUP2 AND PUSH1 0x40 DUP8 ADD MSTORE DUP5 SHR PUSH1 0x60 DUP7 ADD MSTORE ADD SLOAD AND SWAP2 ADD MSTORE JUMP JUMPDEST ISZERO PUSH2 0x5839 JUMPI JUMP JUMPDEST PUSH1 0x40 MLOAD PUSH3 0x461BCD PUSH1 0xE5 SHL DUP2 MSTORE PUSH1 0x20 PUSH1 0x4 DUP3 ADD MSTORE PUSH1 0x7 PUSH1 0x24 DUP3 ADD MSTORE PUSH7 0x4D617820313025 PUSH1 0xC8 SHL PUSH1 0x44 DUP3 ADD MSTORE PUSH1 0x64 SWAP1 REVERT JUMPDEST DUP1 ISZERO PUSH2 0x590F JUMPI PUSH1 0x0 DUP2 DUP1 JUMPDEST PUSH2 0x58FB JUMPI POP PUSH2 0x5881 DUP2 PUSH2 0x4D0F JUMP JUMPDEST SWAP1 PUSH2 0x588F PUSH1 0x40 MLOAD SWAP3 DUP4 PUSH2 0x4BAF JUMP JUMPDEST DUP1 DUP3 MSTORE PUSH1 0x1F NOT PUSH2 0x589E DUP3 PUSH2 0x4D0F JUMP JUMPDEST ADD CALLDATASIZE PUSH1 0x20 DUP5 ADD CALLDATACOPY JUMPDEST DUP1 SWAP3 DUP1 ISZERO PUSH2 0x58F4 JUMPI PUSH1 0x0 NOT DUP3 ADD SWAP2 DUP3 GT PUSH2 0x52EB JUMPI DUP2 SWAP4 PUSH1 0xA SWAP3 PUSH1 0x30 SWAP1 DUP5 DUP5 MOD DUP3 ADD DUP1 SWAP3 GT PUSH2 0x52EB JUMPI DUP6 MLOAD GT ISZERO PUSH2 0x29A8 JUMPI PUSH1 0xF8 SHL PUSH1 0x1 PUSH1 0x1 PUSH1 0xF8 SHL SUB NOT AND PUSH1 0x0 BYTE SWAP1 DUP5 ADD PUSH1 0x1F ADD MSTORE8 DIV SWAP2 PUSH2 0x58A6 JUMP JUMPDEST POP POP SWAP1 POP SWAP1 JUMP JUMPDEST SWAP1 PUSH2 0x5907 PUSH1 0xA SWAP2 PUSH2 0x52DC JUMP JUMPDEST SWAP2 DIV DUP1 PUSH2 0x5873 JUMP JUMPDEST POP PUSH1 0x40 MLOAD PUSH1 0x40 DUP2 ADD DUP2 DUP2 LT PUSH1 0x1 PUSH1 0x1 PUSH1 0x40 SHL SUB DUP3 GT OR PUSH2 0x13D2 JUMPI PUSH1 0x40 MSTORE PUSH1 0x1 DUP2 MSTORE PUSH1 0x3 PUSH1 0xFC SHL PUSH1 0x20 DUP3 ADD MSTORE SWAP1 JUMP INVALID 0xE9 0x4E 0xBD 0xA6 PUSH13 0xC86267DBC220471B245EB48BF7 0x2F SWAP9 PUSH2 0x949E COINBASE 0x21 SWAP10 PUSH26 0x2EB5E8AEB0A264697066735822122088063986BED7F196D782DE DUP14 BYTE COINBASE 0xCD 0xD0 0x4D CHAINID 0xE5 PUSH12 0x5DD9D298F1700B9932F21E6 PUSH5 0x736F6C6343 STOP ADDMOD EQ STOP CALLER "},"methodIdentifiers":{"GENESIS_MAX()":"925d886b","approve(address,uint256)":"095ea7b3","balanceOf(address)":"70a08231","batchMintGenesis(address,string[],bytes32[],string[],bytes32[],string[],(string,string,string,string,string,bytes32)[])":"675b22ae","battleResolver()":"57302cd4","buyNFA(uint256)":"fa3ec78d","cancelListing(uint256)":"305a67a8","circuitBreakerLosses()":"175485ed","creatorRoyaltyBps()":"e96c6617","enableLearning(uint256,address)":"7ab1d4ef","evolve(uint256)":"f119f567","executeAction(uint256,bytes)":"55150c16","fundAgent(uint256)":"ef03c6db","genesisCount()":"fffad312","getAgentMetadata(uint256)":"59295330","getApproved(uint256)":"081812fc","getBattleStats(uint256)":"2f6f343a","getLearningData(uint256)":"f94ab2ec","getListing(uint256)":"107a274a","getMintFee(uint8)":"ff79d907","getNFA(uint256)":"ca21866a","getNFAsByStrategy(bytes32)":"f22f96af","getState(uint256)":"44c9af28","getStrategy(uint256)":"cfc0cc34","isApprovedForAll(address,address)":"e985e9c5","listForSale(uint256,uint256)":"e80d7fec","listings(uint256)":"de74e57b","mint(uint8,bytes32,string,string,bytes32,string,(string,string,string,string,string,bytes32))":"4c433802","mintFee()":"13966db5","mintGenesis(address,string,bytes32,string,bytes32,string,(string,string,string,string,string,bytes32))":"d0ac9208","minters(address)":"f46eccc4","name()":"06fdde03","openMinting()":"6ba9fd38","owner()":"8da5cb5b","ownerOf(uint256)":"6352211e","pause()":"8456cb59","pauseAgent(uint256)":"6ac18987","paused()":"5c975abb","platformFeeBps()":"22dcd13e","recordBattle(uint256,uint256,bool,string)":"64cb04ac","renounceOwnership()":"715018a6","safeTransferFrom(address,address,uint256)":"42842e0e","safeTransferFrom(address,address,uint256,bytes)":"b88d4fde","setApprovalForAll(address,bool)":"a22cb465","setBattleResolver(address)":"d0d7d9c5","setCircuitBreakerLosses(uint256)":"28778030","setCreatorRoyaltyBps(uint256)":"03a9ebf4","setLogicAddress(uint256,address)":"4590ae21","setMinter(address,bool)":"cf456ae7","setOpenMinting(bool)":"0ccba3e9","setPlatformFeeBps(uint256)":"c580c942","setTierBaseURI(uint8,string)":"6963aca8","setTierMintFee(uint8,uint256)":"f5befa9b","setTierThreshold(uint256,uint256)":"0f96fd79","setTreasury(address)":"f0f44260","strategyNFAs(bytes32,uint256)":"80866d83","supportsInterface(bytes4)":"01ffc9a7","symbol()":"95d89b41","terminate(uint256)":"7a828b28","tierBaseURIs(uint8)":"06c8c525","tierMintFees(uint8)":"18841ccd","tierThresholds(uint256)":"a100d69d","tokenURI(uint256)":"c87b56dd","totalSupply()":"18160ddd","transferFrom(address,address,uint256)":"23b872dd","transferOwnership(address)":"f2fde38b","treasury()":"61d027b3","unpause()":"3f4ba83a","unpauseAgent(uint256)":"676fc6dc","updateAgentMetadata(uint256,(string,string,string,string,string,bytes32))":"1af41d4d","updateLearningRoot(uint256,bytes32)":"f09d7441","verifyPrompt(uint256,string)":"8a45664e","verifyStrategy(uint256,string)":"48d34dc3","withdrawFees()":"476343ee","withdrawFromAgent(uint256,uint256)":"2787a4c6"}}}}}