{"contracts/GemBotsBetting.sol":{"GemBotsBetting":{"abi":[{"inputs":[],"name":"ReentrancyGuardReentrantCall","type":"error"},{"anonymous":false,"inputs":[{"indexed":true,"internalType":"bytes32","name":"poolId","type":"bytes32"},{"indexed":true,"internalType":"address","name":"bettor","type":"address"},{"indexed":false,"internalType":"enum GemBotsBetting.Side","name":"side","type":"uint8"},{"indexed":false,"internalType":"uint256","name":"amount","type":"uint256"}],"name":"BetPlaced","type":"event"},{"anonymous":false,"inputs":[{"indexed":true,"internalType":"bytes32","name":"poolId","type":"bytes32"},{"indexed":true,"internalType":"address","name":"bettor","type":"address"},{"indexed":false,"internalType":"uint256","name":"payout","type":"uint256"}],"name":"Claimed","type":"event"},{"anonymous":false,"inputs":[{"indexed":true,"internalType":"address","name":"newOwner","type":"address"},{"indexed":true,"internalType":"address","name":"newTreasury","type":"address"},{"indexed":false,"internalType":"uint16","name":"newFeeBps","type":"uint16"}],"name":"ConfigUpdated","type":"event"},{"anonymous":false,"inputs":[{"indexed":true,"internalType":"bytes32","name":"poolId","type":"bytes32"},{"indexed":true,"internalType":"address","name":"treasury","type":"address"},{"indexed":false,"internalType":"uint256","name":"amount","type":"uint256"}],"name":"FeesCollected","type":"event"},{"anonymous":false,"inputs":[{"indexed":true,"internalType":"address","name":"owner","type":"address"},{"indexed":true,"internalType":"address","name":"treasury","type":"address"},{"indexed":false,"internalType":"uint16","name":"feeBps","type":"uint16"}],"name":"Initialized","type":"event"},{"anonymous":false,"inputs":[{"indexed":true,"internalType":"bytes32","name":"poolId","type":"bytes32"}],"name":"PoolCancelled","type":"event"},{"anonymous":false,"inputs":[{"indexed":true,"internalType":"bytes32","name":"poolId","type":"bytes32"},{"indexed":false,"internalType":"string","name":"matchId","type":"string"},{"indexed":false,"internalType":"string","name":"botAName","type":"string"},{"indexed":false,"internalType":"string","name":"botBName","type":"string"},{"indexed":false,"internalType":"uint16","name":"feeBps","type":"uint16"}],"name":"PoolCreated","type":"event"},{"anonymous":false,"inputs":[{"indexed":true,"internalType":"bytes32","name":"poolId","type":"bytes32"}],"name":"PoolLocked","type":"event"},{"anonymous":false,"inputs":[{"indexed":true,"internalType":"bytes32","name":"poolId","type":"bytes32"},{"indexed":false,"internalType":"enum GemBotsBetting.Side","name":"winner","type":"uint8"},{"indexed":false,"internalType":"uint256","name":"poolA","type":"uint256"},{"indexed":false,"internalType":"uint256","name":"poolB","type":"uint256"}],"name":"PoolResolved","type":"event"},{"anonymous":false,"inputs":[{"indexed":true,"internalType":"bytes32","name":"poolId","type":"bytes32"},{"indexed":true,"internalType":"address","name":"bettor","type":"address"},{"indexed":false,"internalType":"uint256","name":"amount","type":"uint256"}],"name":"RefundClaimed","type":"event"},{"stateMutability":"payable","type":"fallback"},{"inputs":[],"name":"MAX_BET","outputs":[{"internalType":"uint256","name":"","type":"uint256"}],"stateMutability":"view","type":"function"},{"inputs":[],"name":"MAX_FEE_BPS","outputs":[{"internalType":"uint16","name":"","type":"uint16"}],"stateMutability":"view","type":"function"},{"inputs":[],"name":"MIN_BET","outputs":[{"internalType":"uint256","name":"","type":"uint256"}],"stateMutability":"view","type":"function"},{"inputs":[{"internalType":"bytes32","name":"","type":"bytes32"},{"internalType":"address","name":"","type":"address"}],"name":"bets","outputs":[{"internalType":"enum GemBotsBetting.Side","name":"side","type":"uint8"},{"internalType":"uint256","name":"amount","type":"uint256"},{"internalType":"bool","name":"claimed","type":"bool"},{"internalType":"uint256","name":"payout","type":"uint256"},{"internalType":"uint256","name":"timestamp","type":"uint256"},{"internalType":"bool","name":"exists","type":"bool"}],"stateMutability":"view","type":"function"},{"inputs":[{"internalType":"bytes32","name":"_poolId","type":"bytes32"}],"name":"cancel","outputs":[],"stateMutability":"nonpayable","type":"function"},{"inputs":[{"internalType":"bytes32","name":"_poolId","type":"bytes32"}],"name":"claim","outputs":[],"stateMutability":"nonpayable","type":"function"},{"inputs":[{"internalType":"bytes32","name":"_poolId","type":"bytes32"}],"name":"claimRefund","outputs":[],"stateMutability":"nonpayable","type":"function"},{"inputs":[{"internalType":"bytes32","name":"_poolId","type":"bytes32"}],"name":"collectFees","outputs":[],"stateMutability":"nonpayable","type":"function"},{"inputs":[{"internalType":"string","name":"_matchId","type":"string"},{"internalType":"string","name":"_botAName","type":"string"},{"internalType":"string","name":"_botBName","type":"string"},{"internalType":"uint16","name":"_customFeeBps","type":"uint16"}],"name":"createPool","outputs":[],"stateMutability":"nonpayable","type":"function"},{"inputs":[],"name":"defaultFeeBps","outputs":[{"internalType":"uint16","name":"","type":"uint16"}],"stateMutability":"view","type":"function"},{"inputs":[{"internalType":"bytes32","name":"_poolId","type":"bytes32"},{"internalType":"address","name":"_bettor","type":"address"}],"name":"getBet","outputs":[{"components":[{"internalType":"enum GemBotsBetting.Side","name":"side","type":"uint8"},{"internalType":"uint256","name":"amount","type":"uint256"},{"internalType":"bool","name":"claimed","type":"bool"},{"internalType":"uint256","name":"payout","type":"uint256"},{"internalType":"uint256","name":"timestamp","type":"uint256"},{"internalType":"bool","name":"exists","type":"bool"}],"internalType":"struct GemBotsBetting.Bet","name":"","type":"tuple"}],"stateMutability":"view","type":"function"},{"inputs":[{"internalType":"bytes32","name":"_poolId","type":"bytes32"}],"name":"getPool","outputs":[{"components":[{"internalType":"address","name":"authority","type":"address"},{"internalType":"string","name":"matchId","type":"string"},{"internalType":"string","name":"botAName","type":"string"},{"internalType":"string","name":"botBName","type":"string"},{"internalType":"uint256","name":"poolA","type":"uint256"},{"internalType":"uint256","name":"poolB","type":"uint256"},{"internalType":"uint32","name":"totalBets","type":"uint32"},{"internalType":"enum GemBotsBetting.PoolStatus","name":"status","type":"uint8"},{"internalType":"enum GemBotsBetting.Side","name":"winner","type":"uint8"},{"internalType":"bool","name":"hasWinner","type":"bool"},{"internalType":"uint16","name":"feeBps","type":"uint16"},{"internalType":"uint256","name":"createdAt","type":"uint256"},{"internalType":"uint256","name":"resolvedAt","type":"uint256"},{"internalType":"bool","name":"feesCollected","type":"bool"},{"internalType":"bool","name":"exists","type":"bool"}],"internalType":"struct GemBotsBetting.Pool","name":"","type":"tuple"}],"stateMutability":"view","type":"function"},{"inputs":[],"name":"getPoolCount","outputs":[{"internalType":"uint256","name":"","type":"uint256"}],"stateMutability":"view","type":"function"},{"inputs":[{"internalType":"string","name":"_matchId","type":"string"}],"name":"getPoolId","outputs":[{"internalType":"bytes32","name":"","type":"bytes32"}],"stateMutability":"pure","type":"function"},{"inputs":[{"internalType":"address","name":"_treasury","type":"address"},{"internalType":"uint16","name":"_feeBps","type":"uint16"}],"name":"initialize","outputs":[],"stateMutability":"nonpayable","type":"function"},{"inputs":[],"name":"initialized","outputs":[{"internalType":"bool","name":"","type":"bool"}],"stateMutability":"view","type":"function"},{"inputs":[{"internalType":"bytes32","name":"_poolId","type":"bytes32"}],"name":"lockPool","outputs":[],"stateMutability":"nonpayable","type":"function"},{"inputs":[],"name":"owner","outputs":[{"internalType":"address","name":"","type":"address"}],"stateMutability":"view","type":"function"},{"inputs":[{"internalType":"bytes32","name":"_poolId","type":"bytes32"},{"internalType":"enum GemBotsBetting.Side","name":"_side","type":"uint8"}],"name":"placeBet","outputs":[],"stateMutability":"payable","type":"function"},{"inputs":[{"internalType":"uint256","name":"","type":"uint256"}],"name":"poolIds","outputs":[{"internalType":"bytes32","name":"","type":"bytes32"}],"stateMutability":"view","type":"function"},{"inputs":[{"internalType":"bytes32","name":"","type":"bytes32"}],"name":"pools","outputs":[{"internalType":"address","name":"authority","type":"address"},{"internalType":"string","name":"matchId","type":"string"},{"internalType":"string","name":"botAName","type":"string"},{"internalType":"string","name":"botBName","type":"string"},{"internalType":"uint256","name":"poolA","type":"uint256"},{"internalType":"uint256","name":"poolB","type":"uint256"},{"internalType":"uint32","name":"totalBets","type":"uint32"},{"internalType":"enum GemBotsBetting.PoolStatus","name":"status","type":"uint8"},{"internalType":"enum GemBotsBetting.Side","name":"winner","type":"uint8"},{"internalType":"bool","name":"hasWinner","type":"bool"},{"internalType":"uint16","name":"feeBps","type":"uint16"},{"internalType":"uint256","name":"createdAt","type":"uint256"},{"internalType":"uint256","name":"resolvedAt","type":"uint256"},{"internalType":"bool","name":"feesCollected","type":"bool"},{"internalType":"bool","name":"exists","type":"bool"}],"stateMutability":"view","type":"function"},{"inputs":[{"internalType":"bytes32","name":"_poolId","type":"bytes32"},{"internalType":"enum GemBotsBetting.Side","name":"_winner","type":"uint8"}],"name":"resolve","outputs":[],"stateMutability":"nonpayable","type":"function"},{"inputs":[],"name":"treasury","outputs":[{"internalType":"address","name":"","type":"address"}],"stateMutability":"view","type":"function"},{"inputs":[{"internalType":"address","name":"_newTreasury","type":"address"},{"internalType":"uint16","name":"_newFeeBps","type":"uint16"},{"internalType":"address","name":"_newOwner","type":"address"}],"name":"updateConfig","outputs":[],"stateMutability":"nonpayable","type":"function"},{"stateMutability":"payable","type":"receive"}],"evm":{"bytecode":{"linkReferences":{},"object":"6080806040523461001b5760016000556122d290816100218239f35b600080fdfe6080806040526004361015610090575b5036156100535760405162461bcd60e51b815260206004820152601560248201527411d95b509bdd1cce881a5b9d985b1a590818d85b1b605a1b6044820152606490fd5b60405162461bcd60e51b815260206004820152601560248201527411d95b509bdd1cce881d5cd9481c1b1858d950995d605a1b6044820152606490fd5b60003560e01c908163084c3c5714611c31575080630e52bb4914611a25578063158ef93e146119ff57806328ee2936146118b6578063448c72f61461185557806356233993146111c957806361d027b3146111a05780636540742f1461117e57806369883b4e1461114757806371de2ffc14610f895780637dd4de9f14610e6f5780637e95b52314610e4c578063817db73b14610c7b5780638da5cb5b14610c525780638eec5d7014610c345780638f6e689b14610ba1578063b5217bb414610a6c578063bbca6c24146109b9578063bcae25a414610994578063bd66528a146106c5578063c4d252f5146105c4578063d55be8c6146105a7578063f39e69a4146104625763f6c00927146101a5573861000f565b3461045d57602036600319011261045d5760043560006101c06040516101ca81611ed0565b82815260606020820152606060408201526060808201528260808201528260a08201528260c08201528260e08201528261010082015282610120820152826101408201528261016082015282610180820152826101a0820152015280600052600360205261024560ff60096040600020015460081c166120f4565b600052600360205260406000206040519061025f82611ed0565b80546001600160a01b0316825261027860018201611f0f565b602083015261028960028201611f0f565b604083015261029a60038201611f0f565b606083015260048101546080830152600581015460a0830152600681015463ffffffff811660c0840152600460ff8260201c1610156104475760ff9161ffff828460099460201c1660e08701526102fa858260281c166101008801612290565b848160301c16151561012087015260381c1661014085015260078101546101608501526008810154610180850152015481811615156101a084015260081c1615156101c082015260405180916020825260018060a01b0381511660208301526101c06103ab61037a60208401516101e06040870152610200860190611fb5565b610396604085015191601f199283888303016060890152611fb5565b90606085015190868303016080870152611fb5565b91608081015160a085015260a081015160c085015263ffffffff60c08201511660e08501526103e360e0820151610100860190611ff5565b6103f7610100820151610120860190611dc2565b610120810151151561014085015261ffff610140820151166101608501526101608101516101808501526101808101516101a08501526101a0810151151582850152015115156101e08301520390f35b634e487b7160e01b600052602160045260246000fd5b600080fd5b3461045d57604036600319011261045d5761047b611dac565b610483611e1c565b6002549160ff8360b01c16610562576001600160a01b03169182156105245761ffff8216916104b66107d0841115612002565b336bffffffffffffffffffffffff60a01b600154161760015583600160b01b9268ffffffffffffffffff60b81b16179061ffff60a01b9060a01b1617176002556040519081527f3baf8a7761d4143418f40b428a5dbe9aabd28f403e9928f65795a38d436e8c6c60203392a3005b60405162461bcd60e51b815260206004820152601660248201527547656d426f74733a207a65726f20747265617375727960501b6044820152606490fd5b60405162461bcd60e51b815260206004820152601c60248201527f47656d426f74733a20616c726561647920696e697469616c697a6564000000006044820152606490fd5b3461045d57600036600319011261045d5760206040516107d08152f35b3461045d57602036600319011261045d576004356105ed60018060a01b03600154163314612046565b6105fe60ff60025460b01c16612087565b8060005260036020526006604060002061062160ff600983015460081c166120f4565b01805460ff8160201c1660048110156104475780159081156106ba575b501561067c5764ff0000000019166403000000001790557f0a4fc39c342ef62ceac7bd5b9918bda82e75923c013f016d15aeb028dad999be600080a2005b60405162461bcd60e51b815260206004820152601660248201527511d95b509bdd1cce8818d85b9b9bdd0818d85b98d95b60521b6044820152606490fd5b60019150148461063e565b3461045d5760208060031936011261045d576004356106e261226d565b60ff916106f58360025460b01c16612087565b816000526003815260406000209261071581600986015460081c166120f4565b6006840154938185841c1660048110156104475760026107359114612192565b818560301c161561095657836000526004835260406000203360005283526040600020610767836005830154166121d6565b600281018054938085166109115780835416908860281c169060028210156104475760028110156104475781036108d4576108c3576107c36107b96004850154945b6005600482015491015490612185565b600184015461221a565b61ffff6127109860381c1688038881116108ad576107e09161221a565b928781029781890414901517156108ad578615610897576001966003930496879460ff19161790550155600080808086335af161081b61222d565b5015610853577f0508a8b4117d9a7b3d8f5895f6413e61b4f9a2df35afbfb41e78d0ecfff1843f906040519384523393a36001600055005b6064906040519062461bcd60e51b82526004820152601860248201527f47656d426f74733a207472616e73666572206661696c656400000000000000006044820152fd5b634e487b7160e01b600052601260045260246000fd5b634e487b7160e01b600052601160045260246000fd5b6107c36107b96005850154946107a9565b60405162461bcd60e51b815260048101879052601560248201527423b2b6a137ba399d103737ba1030903bb4b73732b960591b6044820152606490fd5b60405162461bcd60e51b815260048101879052601860248201527f47656d426f74733a20616c726561647920636c61696d656400000000000000006044820152606490fd5b60405162461bcd60e51b815260048101849052601660248201527511d95b509bdd1cce881b9bc81dda5b9b995c881cd95d60521b6044820152606490fd5b3461045d57600036600319011261045d57602061ffff60025460a01c16604051908152f35b3461045d57602036600319011261045d576004356109e260018060a01b03600154163314612046565b6109f360ff60025460b01c16612087565b80600052600360205260066040600020610a1660ff600983015460081c166120f4565b01805460ff8160201c1690600482101561044757610a3a6401000000009215612140565b64ff0000000019161790557f1fc99c0f9e224faa85566966af8ce488343d61c0c27230cf66aca62940308532600080a2005b3461045d57602036600319011261045d57600435600090815260036020526040902080546001600160a01b0316610aa560018301611f0f565b9160ff610ab460028301611f0f565b610ac060038401611f0f565b9260048101549361ffff6005830154600684015490610b26600786015494610b186009600889015498015498610b0a6040519e8f9e8f9081526101e0908160208201520190611fb5565b8d810360408f015290611fb5565b908b820360608d0152611fb5565b9760808a015260a089015263ffffffff811660c0890152610b4f60e08901878360201c16611ff5565b610b626101008901878360281c16611dc2565b858160301c16151561012089015260381c1661014087015261016086015261018085015281811615156101a085015260081c1615156101c08301520390f35b3461045d57604036600319011261045d57610bba611d96565b600435600052600460205260406000209060018060a01b031660005260205260c0604060002060ff8154169060018101549060ff60028201541660038201549060ff600560048501549401541693610c156040518097611dc2565b60208601521515604085015260608401526080830152151560a0820152f35b3461045d57600036600319011261045d576020600554604051908152f35b3461045d57600036600319011261045d576001546040516001600160a01b039091168152602090f35b3461045d5760208060031936011261045d576001546001600160a01b039160043591610caa9084163314612046565b610cb261226d565b610cc360ff60025460b01c16612087565b816000526003815260406000209260098401805494610ce760ff8760081c166120f4565b60068101549060ff82861c166004811015610447576002610d089114612192565b60ff8716610e075760ff8260281c16600281101561044757610df9576004810154600590910154610d399082612185565b9081039081116108ad57610d5a6127109161ffff60019460381c169061221a565b049560ff191617905560008080808785600254165af1610d7861222d565b5015610db457907f27026d0900e26dbc73ba4ebc57706d881408d599ba0f4c021620cdd3371c90dc916002541693604051908152a36001600055005b60405162461bcd60e51b815260048101839052601c60248201527f47656d426f74733a20666565207472616e73666572206661696c6564000000006044820152606490fd5b610d396005820154916107a9565b60405162461bcd60e51b815260048101869052601f60248201527f47656d426f74733a206665657320616c726561647920636f6c6c6563746564006044820152606490fd5b3461045d57600036600319011261045d576020604051678ac7230489e800008152f35b3461045d57606036600319011261045d57610e88611dac565b610e90611e1c565b906001600160a01b0390604435828116919082900361045d5760015490610eba8483163314612046565b8360025491610ece60ff8460b01c16612087565b169081610f74575b505061ffff9384811680610f40575b505081610f2b575b50507f33cdd005b44bd3802be8e931d784be91ea629fd0b06c39309319ba7ca5982d416020826001541692600254604051958160a01c1686521693a3005b6001600160a01b031916176001558280610eed565b6107d0610f4e911115612002565b6002805461ffff60a01b191660a09290921b61ffff60a01b169190911790558480610ee5565b6001600160a01b031916176002558480610ed6565b3461045d5760208060031936011261045d57600435610fa661226d565b610fb760ff60025460b01c16612087565b806000526003825260ff60066040600020610fda83600983015460081c166120f4565b0154831c16600481101561044757600303611109578060005260048252604060002033600052825260406000209161101860ff6005850154166121d6565b600283019283549360ff85166110c4578160039160018060009501549760ff19161790550155600080808086335af161104f61222d565b5015611087577fe950d47bcc1a745a8ef1d8b86486b400a99681910425d126eb1a006d61f341b2906040519384523393a36001600055005b6064906040519062461bcd60e51b82526004820152601660248201527511d95b509bdd1cce881c99599d5b990819985a5b195960521b6044820152fd5b60405162461bcd60e51b815260048101849052601960248201527f47656d426f74733a20616c726561647920726566756e646564000000000000006044820152606490fd5b60405162461bcd60e51b815260048101839052601660248201527511d95b509bdd1cce881b9bdd0818d85b98d95b1b195960521b6044820152606490fd5b3461045d57602036600319011261045d5760043560055481101561045d57611170602091611e2d565b90546040519160031b1c8152f35b3461045d57600036600319011261045d57602060405166038d7ea4c680008152f35b3461045d57600036600319011261045d576002546040516001600160a01b039091168152602090f35b3461045d57608036600319011261045d5760043567ffffffffffffffff811161045d576111fa903690600401611dee565b60243567ffffffffffffffff811161045d5761121a903690600401611dee565b92909160443567ffffffffffffffff811161045d5761123d903690600401611dee565b9461ffff9060643582811680820361045d5761126460018060a01b03600154163314612046565b60025461127660ff8260b01c16612087565b86156118175783156117d257891561178d57849115611781575050925b6112a36107d08486161115612002565b6040516020810190868883376112c9602082898101600083820152038084520182611eed565b5190209788600052600360205260ff60096040600020015460081c1661173c57600089815260036020526040902080546001600160a01b0319163317815567ffffffffffffffff87116114e0576113236001820154611e7a565b601f81116116f5575b50866000601f82116001146116855760009161167a575b508760011b906000198960031b1c19161760018201555b67ffffffffffffffff84116114e0576113766002820154611e7a565b601f8111611633575b50836000601f82116001146115c3576000916115b8575b508460011b906000198660031b1c19161760028201555b67ffffffffffffffff82116114e0576113c96003820154611e7a565b601f8111611571575b5060009082601f8111600114611501576009926000916114f6575b508360011b906000198560031b1c19161760038201555b60068101805468ffff0000ff000000001916603889901b68ffff000000000000001617905542600782015501805461ff001916610100179055600554680100000000000000008110156114e0577f32414abb1ad5a7da84a5f42bfa71f92e5f9473f3358d0a4cb2c5d4c8f0674557986114d4948b61148b8460016114c69601600555611e2d565b819291549060031b91821b91600019901b19161790556114b86040519a8b9a60808c5260808c01916120d3565b9189830360208b01526120d3565b9186830360408801526120d3565b911660608301520390a2005b634e487b7160e01b600052604160045260246000fd5b90508401358c6113ed565b506003810160005260206000206000925b601f1985168410611559576009935084601f1981161061153f575b5050600183811b016003820155611404565b850135600019600386901b60f8161c191690558b8061152d565b85810135825560209384019360019092019101611512565b600382016000526020600020601f840160051c8101602085106115b1575b601f830160051c820181106115a55750506113d2565b6000815560010161158f565b508061158f565b90508901358b611396565b90506002820160005260206000209060005b8b601f198816821061161b57505085601f19811610611601575b5050600184811b0160028201556113ad565b8a0135600019600387901b60f8161c191690558a806115ef565b600183946020939484930135815501930191016115d5565b600282016000526020600020601f860160051c810160208710611673575b601f830160051c8201811061166757505061137f565b60008155600101611651565b5080611651565b90508801358b611343565b90506001820160005260206000209060005b8a601f198b1682106116dd57505088601f198116106116c3575b5050600187811b01600182015561135a565b89013560001960038a901b60f8161c191690558a806116b1565b60018394602093948493013581550193019101611697565b600182016000526020600020601f890160051c810160208a10611735575b601f830160051c8201811061172957505061132c565b60008155600101611713565b5080611713565b60405162461bcd60e51b815260206004820152601c60248201527f47656d426f74733a20706f6f6c20616c726561647920657869737473000000006044820152606490fd5b60a01c16939050611293565b60405162461bcd60e51b815260206004820152601760248201527f47656d426f74733a20656d70747920626f74424e616d650000000000000000006044820152606490fd5b60405162461bcd60e51b815260206004820152601760248201527f47656d426f74733a20656d70747920626f74414e616d650000000000000000006044820152606490fd5b60405162461bcd60e51b815260206004820152601660248201527511d95b509bdd1cce88195b5c1d1e481b585d18da125960521b6044820152606490fd5b3461045d57602036600319011261045d5760043567ffffffffffffffff811161045d576118886020913690600401611dee565b6118ab836040518381948383019687378101600083820152038084520182611eed565b519020604051908152f35b3461045d576118c436611dcf565b6118d960018060a01b03600154163314612046565b6118ea60ff60025460b01c16612087565b816000526003602052604060002061190b60ff600983015460081c166120f4565b600681019182549160ff8360201c1660048110156104475780159081156119f4575b50156119af576002821015610447577fdcd28e1acab90525f060fa9869923c2ff4c46997a980a68fd161f8b69028398193660100020000000060609465ff00000000008560281b169066ffffff0000000019161717905542600882015560056004820154910154906119a26040518094611dc2565b60208301526040820152a2005b60405162461bcd60e51b815260206004820152601760248201527f47656d426f74733a2063616e6e6f74207265736f6c76650000000000000000006044820152606490fd5b60019150148661192d565b3461045d57600036600319011261045d57602060ff60025460b01c166040519015158152f35b611a2e36611dcf565b90611a4060ff60025460b01c16612087565b66038d7ea4c680003410611bf357678ac7230489e800003411611bb557806000526020600381526040600020611a7f60ff600983015460081c166120f4565b600681019060ff8254841c16600481101561044757611a9e9015612140565b836000526004835260406000203360005283526040600020600581019081549060ff8216611b795760028810156104475760019160ff19918281541660ff8b161781553484820155600442910155161790558415600014611b6457600401611b07348254612185565b90555b805463ffffffff6001818316018181116108ad57169063ffffffff1916179055611b376040518094611dc2565b34908301527f22f4c9bb73a93d9507392476fa412371d3d5e19e74d8951567b76a7483dca1a060403393a3005b600501611b72348254612185565b9055611b0a565b60405162461bcd60e51b815260048101879052601460248201527311d95b509bdd1cce88185b1c9958591e4818995d60621b6044820152606490fd5b60405162461bcd60e51b815260206004820152601660248201527511d95b509bdd1cce8818589bdd99481b585e0818995d60521b6044820152606490fd5b60405162461bcd60e51b815260206004820152601660248201527511d95b509bdd1cce8818995b1bddc81b5a5b8818995d60521b6044820152606490fd5b3461045d57604036600319011261045d5760043590611c4e611d96565b611c5782611eb4565b60008252600060a060209382858201528260408201528260608201528260808201520152826000526004825260406000209060018060a01b03169081600052825260ff6005604060002001541615611d585760c09260005260048252604060002090600052815260406000209060405191611cd183611eb4565b611cdf60ff82541684612290565b60018101549180840192835260ff6002830154166040850190151581526003830154916060860192835260ff6005600486015495608089019687520154169460a087019515158652611d35604051809851611dc2565b5190860152511515604085015251606084015251608083015251151560a0820152f35b60405162461bcd60e51b815260048101839052601660248201527511d95b509bdd1cce8818995d081b9bdd08199bdd5b9960521b6044820152606490fd5b602435906001600160a01b038216820361045d57565b600435906001600160a01b038216820361045d57565b9060028210156104475752565b604090600319011261045d5760043590602435600281101561045d5790565b9181601f8401121561045d5782359167ffffffffffffffff831161045d576020838186019501011161045d57565b6024359061ffff8216820361045d57565b600554811015611e645760056000527f036b6384b5eca791c62761152d0c79bb0604c104a5fb6f4eb0703f3154bb3db00190600090565b634e487b7160e01b600052603260045260246000fd5b90600182811c92168015611eaa575b6020831014611e9457565b634e487b7160e01b600052602260045260246000fd5b91607f1691611e89565b60c0810190811067ffffffffffffffff8211176114e057604052565b6101e0810190811067ffffffffffffffff8211176114e057604052565b90601f8019910116810190811067ffffffffffffffff8211176114e057604052565b9060405191826000825492611f2384611e7a565b908184526001948581169081600014611f925750600114611f4f575b5050611f4d92500383611eed565b565b9093915060005260209081600020936000915b818310611f7a575050611f4d93508201013880611f3f565b85548884018501529485019487945091830191611f62565b915050611f4d94506020925060ff191682840152151560051b8201013880611f3f565b919082519283825260005b848110611fe1575050826000602080949584010152601f8019910116010190565b602081830181015184830182015201611fc0565b9060048210156104475752565b1561200957565b60405162461bcd60e51b815260206004820152601560248201527408ecada84dee8e67440cccaca40e8dede40d0d2ced605b1b6044820152606490fd5b1561204d57565b60405162461bcd60e51b815260206004820152601260248201527123b2b6a137ba399d103737ba1037bbb732b960711b6044820152606490fd5b1561208e57565b60405162461bcd60e51b815260206004820152601860248201527f47656d426f74733a206e6f7420696e697469616c697a656400000000000000006044820152606490fd5b908060209392818452848401376000828201840152601f01601f1916010190565b156120fb57565b60405162461bcd60e51b815260206004820152601760248201527f47656d426f74733a20706f6f6c206e6f7420666f756e640000000000000000006044820152606490fd5b1561214757565b60405162461bcd60e51b815260206004820152601660248201527523b2b6a137ba399d103837b7b6103737ba1037b832b760511b6044820152606490fd5b919082018092116108ad57565b1561219957565b60405162461bcd60e51b815260206004820152601560248201527411d95b509bdd1cce881b9bdd081c995cdbdb1d9959605a1b6044820152606490fd5b156121dd57565b60405162461bcd60e51b815260206004820152601560248201527411d95b509bdd1cce881b9bc818995d08199bdd5b99605a1b6044820152606490fd5b818102929181159184041417156108ad57565b3d15612268573d9067ffffffffffffffff82116114e0576040519161225c601f8201601f191660200184611eed565b82523d6000602084013e565b606090565b60026000541461227e576002600055565b604051633ee5aeb560e01b8152600490fd5b6002821015610447575256fea2646970667358221220759745228de31d9be13bdcea511e4012463327ba5a2cf74d4f3fd2dfe96ca7b764736f6c63430008140033","opcodes":"PUSH1 0x80 DUP1 PUSH1 0x40 MSTORE CALLVALUE PUSH2 0x1B JUMPI PUSH1 0x1 PUSH1 0x0 SSTORE PUSH2 0x22D2 SWAP1 DUP2 PUSH2 0x21 DUP3 CODECOPY RETURN JUMPDEST PUSH1 0x0 DUP1 REVERT INVALID PUSH1 0x80 DUP1 PUSH1 0x40 MSTORE PUSH1 0x4 CALLDATASIZE LT ISZERO PUSH2 0x90 JUMPI JUMPDEST POP CALLDATASIZE ISZERO PUSH2 0x53 JUMPI PUSH1 0x40 MLOAD PUSH3 0x461BCD PUSH1 0xE5 SHL DUP2 MSTORE PUSH1 0x20 PUSH1 0x4 DUP3 ADD MSTORE PUSH1 0x15 PUSH1 0x24 DUP3 ADD MSTORE PUSH21 0x11D95B509BDD1CCE881A5B9D985B1A590818D85B1B PUSH1 0x5A SHL PUSH1 0x44 DUP3 ADD MSTORE PUSH1 0x64 SWAP1 REVERT JUMPDEST PUSH1 0x40 MLOAD PUSH3 0x461BCD PUSH1 0xE5 SHL DUP2 MSTORE PUSH1 0x20 PUSH1 0x4 DUP3 ADD MSTORE PUSH1 0x15 PUSH1 0x24 DUP3 ADD MSTORE PUSH21 0x11D95B509BDD1CCE881D5CD9481C1B1858D950995D PUSH1 0x5A SHL PUSH1 0x44 DUP3 ADD MSTORE PUSH1 0x64 SWAP1 REVERT JUMPDEST PUSH1 0x0 CALLDATALOAD PUSH1 0xE0 SHR SWAP1 DUP2 PUSH4 0x84C3C57 EQ PUSH2 0x1C31 JUMPI POP DUP1 PUSH4 0xE52BB49 EQ PUSH2 0x1A25 JUMPI DUP1 PUSH4 0x158EF93E EQ PUSH2 0x19FF JUMPI DUP1 PUSH4 0x28EE2936 EQ PUSH2 0x18B6 JUMPI DUP1 PUSH4 0x448C72F6 EQ PUSH2 0x1855 JUMPI DUP1 PUSH4 0x56233993 EQ PUSH2 0x11C9 JUMPI DUP1 PUSH4 0x61D027B3 EQ PUSH2 0x11A0 JUMPI DUP1 PUSH4 0x6540742F EQ PUSH2 0x117E JUMPI DUP1 PUSH4 0x69883B4E EQ PUSH2 0x1147 JUMPI DUP1 PUSH4 0x71DE2FFC EQ PUSH2 0xF89 JUMPI DUP1 PUSH4 0x7DD4DE9F EQ PUSH2 0xE6F JUMPI DUP1 PUSH4 0x7E95B523 EQ PUSH2 0xE4C JUMPI DUP1 PUSH4 0x817DB73B EQ PUSH2 0xC7B JUMPI DUP1 PUSH4 0x8DA5CB5B EQ PUSH2 0xC52 JUMPI DUP1 PUSH4 0x8EEC5D70 EQ PUSH2 0xC34 JUMPI DUP1 PUSH4 0x8F6E689B EQ PUSH2 0xBA1 JUMPI DUP1 PUSH4 0xB5217BB4 EQ PUSH2 0xA6C JUMPI DUP1 PUSH4 0xBBCA6C24 EQ PUSH2 0x9B9 JUMPI DUP1 PUSH4 0xBCAE25A4 EQ PUSH2 0x994 JUMPI DUP1 PUSH4 0xBD66528A EQ PUSH2 0x6C5 JUMPI DUP1 PUSH4 0xC4D252F5 EQ PUSH2 0x5C4 JUMPI DUP1 PUSH4 0xD55BE8C6 EQ PUSH2 0x5A7 JUMPI DUP1 PUSH4 0xF39E69A4 EQ PUSH2 0x462 JUMPI PUSH4 0xF6C00927 EQ PUSH2 0x1A5 JUMPI CODESIZE PUSH2 0xF JUMP JUMPDEST CALLVALUE PUSH2 0x45D JUMPI PUSH1 0x20 CALLDATASIZE PUSH1 0x3 NOT ADD SLT PUSH2 0x45D JUMPI PUSH1 0x4 CALLDATALOAD PUSH1 0x0 PUSH2 0x1C0 PUSH1 0x40 MLOAD PUSH2 0x1CA DUP2 PUSH2 0x1ED0 JUMP JUMPDEST DUP3 DUP2 MSTORE PUSH1 0x60 PUSH1 0x20 DUP3 ADD MSTORE PUSH1 0x60 PUSH1 0x40 DUP3 ADD MSTORE PUSH1 0x60 DUP1 DUP3 ADD MSTORE DUP3 PUSH1 0x80 DUP3 ADD MSTORE DUP3 PUSH1 0xA0 DUP3 ADD MSTORE DUP3 PUSH1 0xC0 DUP3 ADD MSTORE DUP3 PUSH1 0xE0 DUP3 ADD MSTORE DUP3 PUSH2 0x100 DUP3 ADD MSTORE DUP3 PUSH2 0x120 DUP3 ADD MSTORE DUP3 PUSH2 0x140 DUP3 ADD MSTORE DUP3 PUSH2 0x160 DUP3 ADD MSTORE DUP3 PUSH2 0x180 DUP3 ADD MSTORE DUP3 PUSH2 0x1A0 DUP3 ADD MSTORE ADD MSTORE DUP1 PUSH1 0x0 MSTORE PUSH1 0x3 PUSH1 0x20 MSTORE PUSH2 0x245 PUSH1 0xFF PUSH1 0x9 PUSH1 0x40 PUSH1 0x0 KECCAK256 ADD SLOAD PUSH1 0x8 SHR AND PUSH2 0x20F4 JUMP JUMPDEST PUSH1 0x0 MSTORE PUSH1 0x3 PUSH1 0x20 MSTORE PUSH1 0x40 PUSH1 0x0 KECCAK256 PUSH1 0x40 MLOAD SWAP1 PUSH2 0x25F DUP3 PUSH2 0x1ED0 JUMP JUMPDEST DUP1 SLOAD PUSH1 0x1 PUSH1 0x1 PUSH1 0xA0 SHL SUB AND DUP3 MSTORE PUSH2 0x278 PUSH1 0x1 DUP3 ADD PUSH2 0x1F0F JUMP JUMPDEST PUSH1 0x20 DUP4 ADD MSTORE PUSH2 0x289 PUSH1 0x2 DUP3 ADD PUSH2 0x1F0F JUMP JUMPDEST PUSH1 0x40 DUP4 ADD MSTORE PUSH2 0x29A PUSH1 0x3 DUP3 ADD PUSH2 0x1F0F JUMP JUMPDEST PUSH1 0x60 DUP4 ADD MSTORE PUSH1 0x4 DUP2 ADD SLOAD PUSH1 0x80 DUP4 ADD MSTORE PUSH1 0x5 DUP2 ADD SLOAD PUSH1 0xA0 DUP4 ADD MSTORE PUSH1 0x6 DUP2 ADD SLOAD PUSH4 0xFFFFFFFF DUP2 AND PUSH1 0xC0 DUP5 ADD MSTORE PUSH1 0x4 PUSH1 0xFF DUP3 PUSH1 0x20 SHR AND LT ISZERO PUSH2 0x447 JUMPI PUSH1 0xFF SWAP2 PUSH2 0xFFFF DUP3 DUP5 PUSH1 0x9 SWAP5 PUSH1 0x20 SHR AND PUSH1 0xE0 DUP8 ADD MSTORE PUSH2 0x2FA DUP6 DUP3 PUSH1 0x28 SHR AND PUSH2 0x100 DUP9 ADD PUSH2 0x2290 JUMP JUMPDEST DUP5 DUP2 PUSH1 0x30 SHR AND ISZERO ISZERO PUSH2 0x120 DUP8 ADD MSTORE PUSH1 0x38 SHR AND PUSH2 0x140 DUP6 ADD MSTORE PUSH1 0x7 DUP2 ADD SLOAD PUSH2 0x160 DUP6 ADD MSTORE PUSH1 0x8 DUP2 ADD SLOAD PUSH2 0x180 DUP6 ADD MSTORE ADD SLOAD DUP2 DUP2 AND ISZERO ISZERO PUSH2 0x1A0 DUP5 ADD MSTORE PUSH1 0x8 SHR AND ISZERO ISZERO PUSH2 0x1C0 DUP3 ADD MSTORE PUSH1 0x40 MLOAD DUP1 SWAP2 PUSH1 0x20 DUP3 MSTORE PUSH1 0x1 DUP1 PUSH1 0xA0 SHL SUB DUP2 MLOAD AND PUSH1 0x20 DUP4 ADD MSTORE PUSH2 0x1C0 PUSH2 0x3AB PUSH2 0x37A PUSH1 0x20 DUP5 ADD MLOAD PUSH2 0x1E0 PUSH1 0x40 DUP8 ADD MSTORE PUSH2 0x200 DUP7 ADD SWAP1 PUSH2 0x1FB5 JUMP JUMPDEST PUSH2 0x396 PUSH1 0x40 DUP6 ADD MLOAD SWAP2 PUSH1 0x1F NOT SWAP3 DUP4 DUP9 DUP4 SUB ADD PUSH1 0x60 DUP10 ADD MSTORE PUSH2 0x1FB5 JUMP JUMPDEST SWAP1 PUSH1 0x60 DUP6 ADD MLOAD SWAP1 DUP7 DUP4 SUB ADD PUSH1 0x80 DUP8 ADD MSTORE PUSH2 0x1FB5 JUMP JUMPDEST SWAP2 PUSH1 0x80 DUP2 ADD MLOAD PUSH1 0xA0 DUP6 ADD MSTORE PUSH1 0xA0 DUP2 ADD MLOAD PUSH1 0xC0 DUP6 ADD MSTORE PUSH4 0xFFFFFFFF PUSH1 0xC0 DUP3 ADD MLOAD AND PUSH1 0xE0 DUP6 ADD MSTORE PUSH2 0x3E3 PUSH1 0xE0 DUP3 ADD MLOAD PUSH2 0x100 DUP7 ADD SWAP1 PUSH2 0x1FF5 JUMP JUMPDEST PUSH2 0x3F7 PUSH2 0x100 DUP3 ADD MLOAD PUSH2 0x120 DUP7 ADD SWAP1 PUSH2 0x1DC2 JUMP JUMPDEST PUSH2 0x120 DUP2 ADD MLOAD ISZERO ISZERO PUSH2 0x140 DUP6 ADD MSTORE PUSH2 0xFFFF PUSH2 0x140 DUP3 ADD MLOAD AND PUSH2 0x160 DUP6 ADD MSTORE PUSH2 0x160 DUP2 ADD MLOAD PUSH2 0x180 DUP6 ADD MSTORE PUSH2 0x180 DUP2 ADD MLOAD PUSH2 0x1A0 DUP6 ADD MSTORE PUSH2 0x1A0 DUP2 ADD MLOAD ISZERO ISZERO DUP3 DUP6 ADD MSTORE ADD MLOAD ISZERO ISZERO PUSH2 0x1E0 DUP4 ADD MSTORE SUB SWAP1 RETURN JUMPDEST PUSH4 0x4E487B71 PUSH1 0xE0 SHL PUSH1 0x0 MSTORE PUSH1 0x21 PUSH1 0x4 MSTORE PUSH1 0x24 PUSH1 0x0 REVERT JUMPDEST PUSH1 0x0 DUP1 REVERT JUMPDEST CALLVALUE PUSH2 0x45D JUMPI PUSH1 0x40 CALLDATASIZE PUSH1 0x3 NOT ADD SLT PUSH2 0x45D JUMPI PUSH2 0x47B PUSH2 0x1DAC JUMP JUMPDEST PUSH2 0x483 PUSH2 0x1E1C JUMP JUMPDEST PUSH1 0x2 SLOAD SWAP2 PUSH1 0xFF DUP4 PUSH1 0xB0 SHR AND PUSH2 0x562 JUMPI PUSH1 0x1 PUSH1 0x1 PUSH1 0xA0 SHL SUB AND SWAP2 DUP3 ISZERO PUSH2 0x524 JUMPI PUSH2 0xFFFF DUP3 AND SWAP2 PUSH2 0x4B6 PUSH2 0x7D0 DUP5 GT ISZERO PUSH2 0x2002 JUMP JUMPDEST CALLER PUSH12 0xFFFFFFFFFFFFFFFFFFFFFFFF PUSH1 0xA0 SHL PUSH1 0x1 SLOAD AND OR PUSH1 0x1 SSTORE DUP4 PUSH1 0x1 PUSH1 0xB0 SHL SWAP3 PUSH9 0xFFFFFFFFFFFFFFFFFF PUSH1 0xB8 SHL AND OR SWAP1 PUSH2 0xFFFF PUSH1 0xA0 SHL SWAP1 PUSH1 0xA0 SHL AND OR OR PUSH1 0x2 SSTORE PUSH1 0x40 MLOAD SWAP1 DUP2 MSTORE PUSH32 0x3BAF8A7761D4143418F40B428A5DBE9AABD28F403E9928F65795A38D436E8C6C PUSH1 0x20 CALLER SWAP3 LOG3 STOP JUMPDEST PUSH1 0x40 MLOAD PUSH3 0x461BCD PUSH1 0xE5 SHL DUP2 MSTORE PUSH1 0x20 PUSH1 0x4 DUP3 ADD MSTORE PUSH1 0x16 PUSH1 0x24 DUP3 ADD MSTORE PUSH22 0x47656D426F74733A207A65726F207472656173757279 PUSH1 0x50 SHL PUSH1 0x44 DUP3 ADD MSTORE PUSH1 0x64 SWAP1 REVERT JUMPDEST PUSH1 0x40 MLOAD PUSH3 0x461BCD PUSH1 0xE5 SHL DUP2 MSTORE PUSH1 0x20 PUSH1 0x4 DUP3 ADD MSTORE PUSH1 0x1C PUSH1 0x24 DUP3 ADD MSTORE PUSH32 0x47656D426F74733A20616C726561647920696E697469616C697A656400000000 PUSH1 0x44 DUP3 ADD MSTORE PUSH1 0x64 SWAP1 REVERT JUMPDEST CALLVALUE PUSH2 0x45D JUMPI PUSH1 0x0 CALLDATASIZE PUSH1 0x3 NOT ADD SLT PUSH2 0x45D JUMPI PUSH1 0x20 PUSH1 0x40 MLOAD PUSH2 0x7D0 DUP2 MSTORE RETURN JUMPDEST CALLVALUE PUSH2 0x45D JUMPI PUSH1 0x20 CALLDATASIZE PUSH1 0x3 NOT ADD SLT PUSH2 0x45D JUMPI PUSH1 0x4 CALLDATALOAD PUSH2 0x5ED PUSH1 0x1 DUP1 PUSH1 0xA0 SHL SUB PUSH1 0x1 SLOAD AND CALLER EQ PUSH2 0x2046 JUMP JUMPDEST PUSH2 0x5FE PUSH1 0xFF PUSH1 0x2 SLOAD PUSH1 0xB0 SHR AND PUSH2 0x2087 JUMP JUMPDEST DUP1 PUSH1 0x0 MSTORE PUSH1 0x3 PUSH1 0x20 MSTORE PUSH1 0x6 PUSH1 0x40 PUSH1 0x0 KECCAK256 PUSH2 0x621 PUSH1 0xFF PUSH1 0x9 DUP4 ADD SLOAD PUSH1 0x8 SHR AND PUSH2 0x20F4 JUMP JUMPDEST ADD DUP1 SLOAD PUSH1 0xFF DUP2 PUSH1 0x20 SHR AND PUSH1 0x4 DUP2 LT ISZERO PUSH2 0x447 JUMPI DUP1 ISZERO SWAP1 DUP2 ISZERO PUSH2 0x6BA JUMPI JUMPDEST POP ISZERO PUSH2 0x67C JUMPI PUSH5 0xFF00000000 NOT AND PUSH5 0x300000000 OR SWAP1 SSTORE PUSH32 0xA4FC39C342EF62CEAC7BD5B9918BDA82E75923C013F016D15AEB028DAD999BE PUSH1 0x0 DUP1 LOG2 STOP JUMPDEST PUSH1 0x40 MLOAD PUSH3 0x461BCD PUSH1 0xE5 SHL DUP2 MSTORE PUSH1 0x20 PUSH1 0x4 DUP3 ADD MSTORE PUSH1 0x16 PUSH1 0x24 DUP3 ADD MSTORE PUSH22 0x11D95B509BDD1CCE8818D85B9B9BDD0818D85B98D95B PUSH1 0x52 SHL PUSH1 0x44 DUP3 ADD MSTORE PUSH1 0x64 SWAP1 REVERT JUMPDEST PUSH1 0x1 SWAP2 POP EQ DUP5 PUSH2 0x63E JUMP JUMPDEST CALLVALUE PUSH2 0x45D JUMPI PUSH1 0x20 DUP1 PUSH1 0x3 NOT CALLDATASIZE ADD SLT PUSH2 0x45D JUMPI PUSH1 0x4 CALLDATALOAD PUSH2 0x6E2 PUSH2 0x226D JUMP JUMPDEST PUSH1 0xFF SWAP2 PUSH2 0x6F5 DUP4 PUSH1 0x2 SLOAD PUSH1 0xB0 SHR AND PUSH2 0x2087 JUMP JUMPDEST DUP2 PUSH1 0x0 MSTORE PUSH1 0x3 DUP2 MSTORE PUSH1 0x40 PUSH1 0x0 KECCAK256 SWAP3 PUSH2 0x715 DUP2 PUSH1 0x9 DUP7 ADD SLOAD PUSH1 0x8 SHR AND PUSH2 0x20F4 JUMP JUMPDEST PUSH1 0x6 DUP5 ADD SLOAD SWAP4 DUP2 DUP6 DUP5 SHR AND PUSH1 0x4 DUP2 LT ISZERO PUSH2 0x447 JUMPI PUSH1 0x2 PUSH2 0x735 SWAP2 EQ PUSH2 0x2192 JUMP JUMPDEST DUP2 DUP6 PUSH1 0x30 SHR AND ISZERO PUSH2 0x956 JUMPI DUP4 PUSH1 0x0 MSTORE PUSH1 0x4 DUP4 MSTORE PUSH1 0x40 PUSH1 0x0 KECCAK256 CALLER PUSH1 0x0 MSTORE DUP4 MSTORE PUSH1 0x40 PUSH1 0x0 KECCAK256 PUSH2 0x767 DUP4 PUSH1 0x5 DUP4 ADD SLOAD AND PUSH2 0x21D6 JUMP JUMPDEST PUSH1 0x2 DUP2 ADD DUP1 SLOAD SWAP4 DUP1 DUP6 AND PUSH2 0x911 JUMPI DUP1 DUP4 SLOAD AND SWAP1 DUP9 PUSH1 0x28 SHR AND SWAP1 PUSH1 0x2 DUP3 LT ISZERO PUSH2 0x447 JUMPI PUSH1 0x2 DUP2 LT ISZERO PUSH2 0x447 JUMPI DUP2 SUB PUSH2 0x8D4 JUMPI PUSH2 0x8C3 JUMPI PUSH2 0x7C3 PUSH2 0x7B9 PUSH1 0x4 DUP6 ADD SLOAD SWAP5 JUMPDEST PUSH1 0x5 PUSH1 0x4 DUP3 ADD SLOAD SWAP2 ADD SLOAD SWAP1 PUSH2 0x2185 JUMP JUMPDEST PUSH1 0x1 DUP5 ADD SLOAD PUSH2 0x221A JUMP JUMPDEST PUSH2 0xFFFF PUSH2 0x2710 SWAP9 PUSH1 0x38 SHR AND DUP9 SUB DUP9 DUP2 GT PUSH2 0x8AD JUMPI PUSH2 0x7E0 SWAP2 PUSH2 0x221A JUMP JUMPDEST SWAP3 DUP8 DUP2 MUL SWAP8 DUP2 DUP10 DIV EQ SWAP1 ISZERO OR ISZERO PUSH2 0x8AD JUMPI DUP7 ISZERO PUSH2 0x897 JUMPI PUSH1 0x1 SWAP7 PUSH1 0x3 SWAP4 DIV SWAP7 DUP8 SWAP5 PUSH1 0xFF NOT AND OR SWAP1 SSTORE ADD SSTORE PUSH1 0x0 DUP1 DUP1 DUP1 DUP7 CALLER GAS CALL PUSH2 0x81B PUSH2 0x222D JUMP JUMPDEST POP ISZERO PUSH2 0x853 JUMPI PUSH32 0x508A8B4117D9A7B3D8F5895F6413E61B4F9A2DF35AFBFB41E78D0ECFFF1843F SWAP1 PUSH1 0x40 MLOAD SWAP4 DUP5 MSTORE CALLER SWAP4 LOG3 PUSH1 0x1 PUSH1 0x0 SSTORE STOP JUMPDEST PUSH1 0x64 SWAP1 PUSH1 0x40 MLOAD SWAP1 PUSH3 0x461BCD PUSH1 0xE5 SHL DUP3 MSTORE PUSH1 0x4 DUP3 ADD MSTORE PUSH1 0x18 PUSH1 0x24 DUP3 ADD MSTORE PUSH32 0x47656D426F74733A207472616E73666572206661696C65640000000000000000 PUSH1 0x44 DUP3 ADD MSTORE REVERT JUMPDEST PUSH4 0x4E487B71 PUSH1 0xE0 SHL PUSH1 0x0 MSTORE PUSH1 0x12 PUSH1 0x4 MSTORE PUSH1 0x24 PUSH1 0x0 REVERT JUMPDEST PUSH4 0x4E487B71 PUSH1 0xE0 SHL PUSH1 0x0 MSTORE PUSH1 0x11 PUSH1 0x4 MSTORE PUSH1 0x24 PUSH1 0x0 REVERT JUMPDEST PUSH2 0x7C3 PUSH2 0x7B9 PUSH1 0x5 DUP6 ADD SLOAD SWAP5 PUSH2 0x7A9 JUMP JUMPDEST PUSH1 0x40 MLOAD PUSH3 0x461BCD PUSH1 0xE5 SHL DUP2 MSTORE PUSH1 0x4 DUP2 ADD DUP8 SWAP1 MSTORE PUSH1 0x15 PUSH1 0x24 DUP3 ADD MSTORE PUSH21 0x23B2B6A137BA399D103737BA1030903BB4B73732B9 PUSH1 0x59 SHL PUSH1 0x44 DUP3 ADD MSTORE PUSH1 0x64 SWAP1 REVERT JUMPDEST PUSH1 0x40 MLOAD PUSH3 0x461BCD PUSH1 0xE5 SHL DUP2 MSTORE PUSH1 0x4 DUP2 ADD DUP8 SWAP1 MSTORE PUSH1 0x18 PUSH1 0x24 DUP3 ADD MSTORE PUSH32 0x47656D426F74733A20616C726561647920636C61696D65640000000000000000 PUSH1 0x44 DUP3 ADD MSTORE PUSH1 0x64 SWAP1 REVERT JUMPDEST PUSH1 0x40 MLOAD PUSH3 0x461BCD PUSH1 0xE5 SHL DUP2 MSTORE PUSH1 0x4 DUP2 ADD DUP5 SWAP1 MSTORE PUSH1 0x16 PUSH1 0x24 DUP3 ADD MSTORE PUSH22 0x11D95B509BDD1CCE881B9BC81DDA5B9B995C881CD95D PUSH1 0x52 SHL PUSH1 0x44 DUP3 ADD MSTORE PUSH1 0x64 SWAP1 REVERT JUMPDEST CALLVALUE PUSH2 0x45D JUMPI PUSH1 0x0 CALLDATASIZE PUSH1 0x3 NOT ADD SLT PUSH2 0x45D JUMPI PUSH1 0x20 PUSH2 0xFFFF PUSH1 0x2 SLOAD PUSH1 0xA0 SHR AND PUSH1 0x40 MLOAD SWAP1 DUP2 MSTORE RETURN JUMPDEST CALLVALUE PUSH2 0x45D JUMPI PUSH1 0x20 CALLDATASIZE PUSH1 0x3 NOT ADD SLT PUSH2 0x45D JUMPI PUSH1 0x4 CALLDATALOAD PUSH2 0x9E2 PUSH1 0x1 DUP1 PUSH1 0xA0 SHL SUB PUSH1 0x1 SLOAD AND CALLER EQ PUSH2 0x2046 JUMP JUMPDEST PUSH2 0x9F3 PUSH1 0xFF PUSH1 0x2 SLOAD PUSH1 0xB0 SHR AND PUSH2 0x2087 JUMP JUMPDEST DUP1 PUSH1 0x0 MSTORE PUSH1 0x3 PUSH1 0x20 MSTORE PUSH1 0x6 PUSH1 0x40 PUSH1 0x0 KECCAK256 PUSH2 0xA16 PUSH1 0xFF PUSH1 0x9 DUP4 ADD SLOAD PUSH1 0x8 SHR AND PUSH2 0x20F4 JUMP JUMPDEST ADD DUP1 SLOAD PUSH1 0xFF DUP2 PUSH1 0x20 SHR AND SWAP1 PUSH1 0x4 DUP3 LT ISZERO PUSH2 0x447 JUMPI PUSH2 0xA3A PUSH5 0x100000000 SWAP3 ISZERO PUSH2 0x2140 JUMP JUMPDEST PUSH5 0xFF00000000 NOT AND OR SWAP1 SSTORE PUSH32 0x1FC99C0F9E224FAA85566966AF8CE488343D61C0C27230CF66ACA62940308532 PUSH1 0x0 DUP1 LOG2 STOP JUMPDEST CALLVALUE PUSH2 0x45D JUMPI PUSH1 0x20 CALLDATASIZE PUSH1 0x3 NOT ADD SLT PUSH2 0x45D JUMPI PUSH1 0x4 CALLDATALOAD PUSH1 0x0 SWAP1 DUP2 MSTORE PUSH1 0x3 PUSH1 0x20 MSTORE PUSH1 0x40 SWAP1 KECCAK256 DUP1 SLOAD PUSH1 0x1 PUSH1 0x1 PUSH1 0xA0 SHL SUB AND PUSH2 0xAA5 PUSH1 0x1 DUP4 ADD PUSH2 0x1F0F JUMP JUMPDEST SWAP2 PUSH1 0xFF PUSH2 0xAB4 PUSH1 0x2 DUP4 ADD PUSH2 0x1F0F JUMP JUMPDEST PUSH2 0xAC0 PUSH1 0x3 DUP5 ADD PUSH2 0x1F0F JUMP JUMPDEST SWAP3 PUSH1 0x4 DUP2 ADD SLOAD SWAP4 PUSH2 0xFFFF PUSH1 0x5 DUP4 ADD SLOAD PUSH1 0x6 DUP5 ADD SLOAD SWAP1 PUSH2 0xB26 PUSH1 0x7 DUP7 ADD SLOAD SWAP5 PUSH2 0xB18 PUSH1 0x9 PUSH1 0x8 DUP10 ADD SLOAD SWAP9 ADD SLOAD SWAP9 PUSH2 0xB0A PUSH1 0x40 MLOAD SWAP15 DUP16 SWAP15 DUP16 SWAP1 DUP2 MSTORE PUSH2 0x1E0 SWAP1 DUP2 PUSH1 0x20 DUP3 ADD MSTORE ADD SWAP1 PUSH2 0x1FB5 JUMP JUMPDEST DUP14 DUP2 SUB PUSH1 0x40 DUP16 ADD MSTORE SWAP1 PUSH2 0x1FB5 JUMP JUMPDEST SWAP1 DUP12 DUP3 SUB PUSH1 0x60 DUP14 ADD MSTORE PUSH2 0x1FB5 JUMP JUMPDEST SWAP8 PUSH1 0x80 DUP11 ADD MSTORE PUSH1 0xA0 DUP10 ADD MSTORE PUSH4 0xFFFFFFFF DUP2 AND PUSH1 0xC0 DUP10 ADD MSTORE PUSH2 0xB4F PUSH1 0xE0 DUP10 ADD DUP8 DUP4 PUSH1 0x20 SHR AND PUSH2 0x1FF5 JUMP JUMPDEST PUSH2 0xB62 PUSH2 0x100 DUP10 ADD DUP8 DUP4 PUSH1 0x28 SHR AND PUSH2 0x1DC2 JUMP JUMPDEST DUP6 DUP2 PUSH1 0x30 SHR AND ISZERO ISZERO PUSH2 0x120 DUP10 ADD MSTORE PUSH1 0x38 SHR AND PUSH2 0x140 DUP8 ADD MSTORE PUSH2 0x160 DUP7 ADD MSTORE PUSH2 0x180 DUP6 ADD MSTORE DUP2 DUP2 AND ISZERO ISZERO PUSH2 0x1A0 DUP6 ADD MSTORE PUSH1 0x8 SHR AND ISZERO ISZERO PUSH2 0x1C0 DUP4 ADD MSTORE SUB SWAP1 RETURN JUMPDEST CALLVALUE PUSH2 0x45D JUMPI PUSH1 0x40 CALLDATASIZE PUSH1 0x3 NOT ADD SLT PUSH2 0x45D JUMPI PUSH2 0xBBA PUSH2 0x1D96 JUMP JUMPDEST PUSH1 0x4 CALLDATALOAD PUSH1 0x0 MSTORE PUSH1 0x4 PUSH1 0x20 MSTORE PUSH1 0x40 PUSH1 0x0 KECCAK256 SWAP1 PUSH1 0x1 DUP1 PUSH1 0xA0 SHL SUB AND PUSH1 0x0 MSTORE PUSH1 0x20 MSTORE PUSH1 0xC0 PUSH1 0x40 PUSH1 0x0 KECCAK256 PUSH1 0xFF DUP2 SLOAD AND SWAP1 PUSH1 0x1 DUP2 ADD SLOAD SWAP1 PUSH1 0xFF PUSH1 0x2 DUP3 ADD SLOAD AND PUSH1 0x3 DUP3 ADD SLOAD SWAP1 PUSH1 0xFF PUSH1 0x5 PUSH1 0x4 DUP6 ADD SLOAD SWAP5 ADD SLOAD AND SWAP4 PUSH2 0xC15 PUSH1 0x40 MLOAD DUP1 SWAP8 PUSH2 0x1DC2 JUMP JUMPDEST PUSH1 0x20 DUP7 ADD MSTORE ISZERO ISZERO PUSH1 0x40 DUP6 ADD MSTORE PUSH1 0x60 DUP5 ADD MSTORE PUSH1 0x80 DUP4 ADD MSTORE ISZERO ISZERO PUSH1 0xA0 DUP3 ADD MSTORE RETURN JUMPDEST CALLVALUE PUSH2 0x45D JUMPI PUSH1 0x0 CALLDATASIZE PUSH1 0x3 NOT ADD SLT PUSH2 0x45D JUMPI PUSH1 0x20 PUSH1 0x5 SLOAD PUSH1 0x40 MLOAD SWAP1 DUP2 MSTORE RETURN JUMPDEST CALLVALUE PUSH2 0x45D JUMPI PUSH1 0x0 CALLDATASIZE PUSH1 0x3 NOT ADD SLT PUSH2 0x45D JUMPI PUSH1 0x1 SLOAD PUSH1 0x40 MLOAD PUSH1 0x1 PUSH1 0x1 PUSH1 0xA0 SHL SUB SWAP1 SWAP2 AND DUP2 MSTORE PUSH1 0x20 SWAP1 RETURN JUMPDEST CALLVALUE PUSH2 0x45D JUMPI PUSH1 0x20 DUP1 PUSH1 0x3 NOT CALLDATASIZE ADD SLT PUSH2 0x45D JUMPI PUSH1 0x1 SLOAD PUSH1 0x1 PUSH1 0x1 PUSH1 0xA0 SHL SUB SWAP2 PUSH1 0x4 CALLDATALOAD SWAP2 PUSH2 0xCAA SWAP1 DUP5 AND CALLER EQ PUSH2 0x2046 JUMP JUMPDEST PUSH2 0xCB2 PUSH2 0x226D JUMP JUMPDEST PUSH2 0xCC3 PUSH1 0xFF PUSH1 0x2 SLOAD PUSH1 0xB0 SHR AND PUSH2 0x2087 JUMP JUMPDEST DUP2 PUSH1 0x0 MSTORE PUSH1 0x3 DUP2 MSTORE PUSH1 0x40 PUSH1 0x0 KECCAK256 SWAP3 PUSH1 0x9 DUP5 ADD DUP1 SLOAD SWAP5 PUSH2 0xCE7 PUSH1 0xFF DUP8 PUSH1 0x8 SHR AND PUSH2 0x20F4 JUMP JUMPDEST PUSH1 0x6 DUP2 ADD SLOAD SWAP1 PUSH1 0xFF DUP3 DUP7 SHR AND PUSH1 0x4 DUP2 LT ISZERO PUSH2 0x447 JUMPI PUSH1 0x2 PUSH2 0xD08 SWAP2 EQ PUSH2 0x2192 JUMP JUMPDEST PUSH1 0xFF DUP8 AND PUSH2 0xE07 JUMPI PUSH1 0xFF DUP3 PUSH1 0x28 SHR AND PUSH1 0x2 DUP2 LT ISZERO PUSH2 0x447 JUMPI PUSH2 0xDF9 JUMPI PUSH1 0x4 DUP2 ADD SLOAD PUSH1 0x5 SWAP1 SWAP2 ADD SLOAD PUSH2 0xD39 SWAP1 DUP3 PUSH2 0x2185 JUMP JUMPDEST SWAP1 DUP2 SUB SWAP1 DUP2 GT PUSH2 0x8AD JUMPI PUSH2 0xD5A PUSH2 0x2710 SWAP2 PUSH2 0xFFFF PUSH1 0x1 SWAP5 PUSH1 0x38 SHR AND SWAP1 PUSH2 0x221A JUMP JUMPDEST DIV SWAP6 PUSH1 0xFF NOT AND OR SWAP1 SSTORE PUSH1 0x0 DUP1 DUP1 DUP1 DUP8 DUP6 PUSH1 0x2 SLOAD AND GAS CALL PUSH2 0xD78 PUSH2 0x222D JUMP JUMPDEST POP ISZERO PUSH2 0xDB4 JUMPI SWAP1 PUSH32 0x27026D0900E26DBC73BA4EBC57706D881408D599BA0F4C021620CDD3371C90DC SWAP2 PUSH1 0x2 SLOAD AND SWAP4 PUSH1 0x40 MLOAD SWAP1 DUP2 MSTORE LOG3 PUSH1 0x1 PUSH1 0x0 SSTORE STOP JUMPDEST PUSH1 0x40 MLOAD PUSH3 0x461BCD PUSH1 0xE5 SHL DUP2 MSTORE PUSH1 0x4 DUP2 ADD DUP4 SWAP1 MSTORE PUSH1 0x1C PUSH1 0x24 DUP3 ADD MSTORE PUSH32 0x47656D426F74733A20666565207472616E73666572206661696C656400000000 PUSH1 0x44 DUP3 ADD MSTORE PUSH1 0x64 SWAP1 REVERT JUMPDEST PUSH2 0xD39 PUSH1 0x5 DUP3 ADD SLOAD SWAP2 PUSH2 0x7A9 JUMP JUMPDEST PUSH1 0x40 MLOAD PUSH3 0x461BCD PUSH1 0xE5 SHL DUP2 MSTORE PUSH1 0x4 DUP2 ADD DUP7 SWAP1 MSTORE PUSH1 0x1F PUSH1 0x24 DUP3 ADD MSTORE PUSH32 0x47656D426F74733A206665657320616C726561647920636F6C6C656374656400 PUSH1 0x44 DUP3 ADD MSTORE PUSH1 0x64 SWAP1 REVERT JUMPDEST CALLVALUE PUSH2 0x45D JUMPI PUSH1 0x0 CALLDATASIZE PUSH1 0x3 NOT ADD SLT PUSH2 0x45D JUMPI PUSH1 0x20 PUSH1 0x40 MLOAD PUSH8 0x8AC7230489E80000 DUP2 MSTORE RETURN JUMPDEST CALLVALUE PUSH2 0x45D JUMPI PUSH1 0x60 CALLDATASIZE PUSH1 0x3 NOT ADD SLT PUSH2 0x45D JUMPI PUSH2 0xE88 PUSH2 0x1DAC JUMP JUMPDEST PUSH2 0xE90 PUSH2 0x1E1C JUMP JUMPDEST SWAP1 PUSH1 0x1 PUSH1 0x1 PUSH1 0xA0 SHL SUB SWAP1 PUSH1 0x44 CALLDATALOAD DUP3 DUP2 AND SWAP2 SWAP1 DUP3 SWAP1 SUB PUSH2 0x45D JUMPI PUSH1 0x1 SLOAD SWAP1 PUSH2 0xEBA DUP5 DUP4 AND CALLER EQ PUSH2 0x2046 JUMP JUMPDEST DUP4 PUSH1 0x2 SLOAD SWAP2 PUSH2 0xECE PUSH1 0xFF DUP5 PUSH1 0xB0 SHR AND PUSH2 0x2087 JUMP JUMPDEST AND SWAP1 DUP2 PUSH2 0xF74 JUMPI JUMPDEST POP POP PUSH2 0xFFFF SWAP4 DUP5 DUP2 AND DUP1 PUSH2 0xF40 JUMPI JUMPDEST POP POP DUP2 PUSH2 0xF2B JUMPI JUMPDEST POP POP PUSH32 0x33CDD005B44BD3802BE8E931D784BE91EA629FD0B06C39309319BA7CA5982D41 PUSH1 0x20 DUP3 PUSH1 0x1 SLOAD AND SWAP3 PUSH1 0x2 SLOAD PUSH1 0x40 MLOAD SWAP6 DUP2 PUSH1 0xA0 SHR AND DUP7 MSTORE AND SWAP4 LOG3 STOP JUMPDEST PUSH1 0x1 PUSH1 0x1 PUSH1 0xA0 SHL SUB NOT AND OR PUSH1 0x1 SSTORE DUP3 DUP1 PUSH2 0xEED JUMP JUMPDEST PUSH2 0x7D0 PUSH2 0xF4E SWAP2 GT ISZERO PUSH2 0x2002 JUMP JUMPDEST PUSH1 0x2 DUP1 SLOAD PUSH2 0xFFFF PUSH1 0xA0 SHL NOT AND PUSH1 0xA0 SWAP3 SWAP1 SWAP3 SHL PUSH2 0xFFFF PUSH1 0xA0 SHL AND SWAP2 SWAP1 SWAP2 OR SWAP1 SSTORE DUP5 DUP1 PUSH2 0xEE5 JUMP JUMPDEST PUSH1 0x1 PUSH1 0x1 PUSH1 0xA0 SHL SUB NOT AND OR PUSH1 0x2 SSTORE DUP5 DUP1 PUSH2 0xED6 JUMP JUMPDEST CALLVALUE PUSH2 0x45D JUMPI PUSH1 0x20 DUP1 PUSH1 0x3 NOT CALLDATASIZE ADD SLT PUSH2 0x45D JUMPI PUSH1 0x4 CALLDATALOAD PUSH2 0xFA6 PUSH2 0x226D JUMP JUMPDEST PUSH2 0xFB7 PUSH1 0xFF PUSH1 0x2 SLOAD PUSH1 0xB0 SHR AND PUSH2 0x2087 JUMP JUMPDEST DUP1 PUSH1 0x0 MSTORE PUSH1 0x3 DUP3 MSTORE PUSH1 0xFF PUSH1 0x6 PUSH1 0x40 PUSH1 0x0 KECCAK256 PUSH2 0xFDA DUP4 PUSH1 0x9 DUP4 ADD SLOAD PUSH1 0x8 SHR AND PUSH2 0x20F4 JUMP JUMPDEST ADD SLOAD DUP4 SHR AND PUSH1 0x4 DUP2 LT ISZERO PUSH2 0x447 JUMPI PUSH1 0x3 SUB PUSH2 0x1109 JUMPI DUP1 PUSH1 0x0 MSTORE PUSH1 0x4 DUP3 MSTORE PUSH1 0x40 PUSH1 0x0 KECCAK256 CALLER PUSH1 0x0 MSTORE DUP3 MSTORE PUSH1 0x40 PUSH1 0x0 KECCAK256 SWAP2 PUSH2 0x1018 PUSH1 0xFF PUSH1 0x5 DUP6 ADD SLOAD AND PUSH2 0x21D6 JUMP JUMPDEST PUSH1 0x2 DUP4 ADD SWAP3 DUP4 SLOAD SWAP4 PUSH1 0xFF DUP6 AND PUSH2 0x10C4 JUMPI DUP2 PUSH1 0x3 SWAP2 PUSH1 0x1 DUP1 PUSH1 0x0 SWAP6 ADD SLOAD SWAP8 PUSH1 0xFF NOT AND OR SWAP1 SSTORE ADD SSTORE PUSH1 0x0 DUP1 DUP1 DUP1 DUP7 CALLER GAS CALL PUSH2 0x104F PUSH2 0x222D JUMP JUMPDEST POP ISZERO PUSH2 0x1087 JUMPI PUSH32 0xE950D47BCC1A745A8EF1D8B86486B400A99681910425D126EB1A006D61F341B2 SWAP1 PUSH1 0x40 MLOAD SWAP4 DUP5 MSTORE CALLER SWAP4 LOG3 PUSH1 0x1 PUSH1 0x0 SSTORE STOP JUMPDEST PUSH1 0x64 SWAP1 PUSH1 0x40 MLOAD SWAP1 PUSH3 0x461BCD PUSH1 0xE5 SHL DUP3 MSTORE PUSH1 0x4 DUP3 ADD MSTORE PUSH1 0x16 PUSH1 0x24 DUP3 ADD MSTORE PUSH22 0x11D95B509BDD1CCE881C99599D5B990819985A5B1959 PUSH1 0x52 SHL PUSH1 0x44 DUP3 ADD MSTORE REVERT JUMPDEST PUSH1 0x40 MLOAD PUSH3 0x461BCD PUSH1 0xE5 SHL DUP2 MSTORE PUSH1 0x4 DUP2 ADD DUP5 SWAP1 MSTORE PUSH1 0x19 PUSH1 0x24 DUP3 ADD MSTORE PUSH32 0x47656D426F74733A20616C726561647920726566756E64656400000000000000 PUSH1 0x44 DUP3 ADD MSTORE PUSH1 0x64 SWAP1 REVERT JUMPDEST PUSH1 0x40 MLOAD PUSH3 0x461BCD PUSH1 0xE5 SHL DUP2 MSTORE PUSH1 0x4 DUP2 ADD DUP4 SWAP1 MSTORE PUSH1 0x16 PUSH1 0x24 DUP3 ADD MSTORE PUSH22 0x11D95B509BDD1CCE881B9BDD0818D85B98D95B1B1959 PUSH1 0x52 SHL PUSH1 0x44 DUP3 ADD MSTORE PUSH1 0x64 SWAP1 REVERT JUMPDEST CALLVALUE PUSH2 0x45D JUMPI PUSH1 0x20 CALLDATASIZE PUSH1 0x3 NOT ADD SLT PUSH2 0x45D JUMPI PUSH1 0x4 CALLDATALOAD PUSH1 0x5 SLOAD DUP2 LT ISZERO PUSH2 0x45D JUMPI PUSH2 0x1170 PUSH1 0x20 SWAP2 PUSH2 0x1E2D JUMP JUMPDEST SWAP1 SLOAD PUSH1 0x40 MLOAD SWAP2 PUSH1 0x3 SHL SHR DUP2 MSTORE RETURN JUMPDEST CALLVALUE PUSH2 0x45D JUMPI PUSH1 0x0 CALLDATASIZE PUSH1 0x3 NOT ADD SLT PUSH2 0x45D JUMPI PUSH1 0x20 PUSH1 0x40 MLOAD PUSH7 0x38D7EA4C68000 DUP2 MSTORE RETURN JUMPDEST CALLVALUE PUSH2 0x45D JUMPI PUSH1 0x0 CALLDATASIZE PUSH1 0x3 NOT ADD SLT PUSH2 0x45D JUMPI PUSH1 0x2 SLOAD PUSH1 0x40 MLOAD PUSH1 0x1 PUSH1 0x1 PUSH1 0xA0 SHL SUB SWAP1 SWAP2 AND DUP2 MSTORE PUSH1 0x20 SWAP1 RETURN JUMPDEST CALLVALUE PUSH2 0x45D JUMPI PUSH1 0x80 CALLDATASIZE PUSH1 0x3 NOT ADD SLT PUSH2 0x45D JUMPI PUSH1 0x4 CALLDATALOAD PUSH8 0xFFFFFFFFFFFFFFFF DUP2 GT PUSH2 0x45D JUMPI PUSH2 0x11FA SWAP1 CALLDATASIZE SWAP1 PUSH1 0x4 ADD PUSH2 0x1DEE JUMP JUMPDEST PUSH1 0x24 CALLDATALOAD PUSH8 0xFFFFFFFFFFFFFFFF DUP2 GT PUSH2 0x45D JUMPI PUSH2 0x121A SWAP1 CALLDATASIZE SWAP1 PUSH1 0x4 ADD PUSH2 0x1DEE JUMP JUMPDEST SWAP3 SWAP1 SWAP2 PUSH1 0x44 CALLDATALOAD PUSH8 0xFFFFFFFFFFFFFFFF DUP2 GT PUSH2 0x45D JUMPI PUSH2 0x123D SWAP1 CALLDATASIZE SWAP1 PUSH1 0x4 ADD PUSH2 0x1DEE JUMP JUMPDEST SWAP5 PUSH2 0xFFFF SWAP1 PUSH1 0x64 CALLDATALOAD DUP3 DUP2 AND DUP1 DUP3 SUB PUSH2 0x45D JUMPI PUSH2 0x1264 PUSH1 0x1 DUP1 PUSH1 0xA0 SHL SUB PUSH1 0x1 SLOAD AND CALLER EQ PUSH2 0x2046 JUMP JUMPDEST PUSH1 0x2 SLOAD PUSH2 0x1276 PUSH1 0xFF DUP3 PUSH1 0xB0 SHR AND PUSH2 0x2087 JUMP JUMPDEST DUP7 ISZERO PUSH2 0x1817 JUMPI DUP4 ISZERO PUSH2 0x17D2 JUMPI DUP10 ISZERO PUSH2 0x178D JUMPI DUP5 SWAP2 ISZERO PUSH2 0x1781 JUMPI POP POP SWAP3 JUMPDEST PUSH2 0x12A3 PUSH2 0x7D0 DUP5 DUP7 AND GT ISZERO PUSH2 0x2002 JUMP JUMPDEST PUSH1 0x40 MLOAD PUSH1 0x20 DUP2 ADD SWAP1 DUP7 DUP9 DUP4 CALLDATACOPY PUSH2 0x12C9 PUSH1 0x20 DUP3 DUP10 DUP2 ADD PUSH1 0x0 DUP4 DUP3 ADD MSTORE SUB DUP1 DUP5 MSTORE ADD DUP3 PUSH2 0x1EED JUMP JUMPDEST MLOAD SWAP1 KECCAK256 SWAP8 DUP9 PUSH1 0x0 MSTORE PUSH1 0x3 PUSH1 0x20 MSTORE PUSH1 0xFF PUSH1 0x9 PUSH1 0x40 PUSH1 0x0 KECCAK256 ADD SLOAD PUSH1 0x8 SHR AND PUSH2 0x173C JUMPI PUSH1 0x0 DUP10 DUP2 MSTORE PUSH1 0x3 PUSH1 0x20 MSTORE PUSH1 0x40 SWAP1 KECCAK256 DUP1 SLOAD PUSH1 0x1 PUSH1 0x1 PUSH1 0xA0 SHL SUB NOT AND CALLER OR DUP2 SSTORE PUSH8 0xFFFFFFFFFFFFFFFF DUP8 GT PUSH2 0x14E0 JUMPI PUSH2 0x1323 PUSH1 0x1 DUP3 ADD SLOAD PUSH2 0x1E7A JUMP JUMPDEST PUSH1 0x1F DUP2 GT PUSH2 0x16F5 JUMPI JUMPDEST POP DUP7 PUSH1 0x0 PUSH1 0x1F DUP3 GT PUSH1 0x1 EQ PUSH2 0x1685 JUMPI PUSH1 0x0 SWAP2 PUSH2 0x167A JUMPI JUMPDEST POP DUP8 PUSH1 0x1 SHL SWAP1 PUSH1 0x0 NOT DUP10 PUSH1 0x3 SHL SHR NOT AND OR PUSH1 0x1 DUP3 ADD SSTORE JUMPDEST PUSH8 0xFFFFFFFFFFFFFFFF DUP5 GT PUSH2 0x14E0 JUMPI PUSH2 0x1376 PUSH1 0x2 DUP3 ADD SLOAD PUSH2 0x1E7A JUMP JUMPDEST PUSH1 0x1F DUP2 GT PUSH2 0x1633 JUMPI JUMPDEST POP DUP4 PUSH1 0x0 PUSH1 0x1F DUP3 GT PUSH1 0x1 EQ PUSH2 0x15C3 JUMPI PUSH1 0x0 SWAP2 PUSH2 0x15B8 JUMPI JUMPDEST POP DUP5 PUSH1 0x1 SHL SWAP1 PUSH1 0x0 NOT DUP7 PUSH1 0x3 SHL SHR NOT AND OR PUSH1 0x2 DUP3 ADD SSTORE JUMPDEST PUSH8 0xFFFFFFFFFFFFFFFF DUP3 GT PUSH2 0x14E0 JUMPI PUSH2 0x13C9 PUSH1 0x3 DUP3 ADD SLOAD PUSH2 0x1E7A JUMP JUMPDEST PUSH1 0x1F DUP2 GT PUSH2 0x1571 JUMPI JUMPDEST POP PUSH1 0x0 SWAP1 DUP3 PUSH1 0x1F DUP2 GT PUSH1 0x1 EQ PUSH2 0x1501 JUMPI PUSH1 0x9 SWAP3 PUSH1 0x0 SWAP2 PUSH2 0x14F6 JUMPI JUMPDEST POP DUP4 PUSH1 0x1 SHL SWAP1 PUSH1 0x0 NOT DUP6 PUSH1 0x3 SHL SHR NOT AND OR PUSH1 0x3 DUP3 ADD SSTORE JUMPDEST PUSH1 0x6 DUP2 ADD DUP1 SLOAD PUSH9 0xFFFF0000FF00000000 NOT AND PUSH1 0x38 DUP10 SWAP1 SHL PUSH9 0xFFFF00000000000000 AND OR SWAP1 SSTORE TIMESTAMP PUSH1 0x7 DUP3 ADD SSTORE ADD DUP1 SLOAD PUSH2 0xFF00 NOT AND PUSH2 0x100 OR SWAP1 SSTORE PUSH1 0x5 SLOAD PUSH9 0x10000000000000000 DUP2 LT ISZERO PUSH2 0x14E0 JUMPI PUSH32 0x32414ABB1AD5A7DA84A5F42BFA71F92E5F9473F3358D0A4CB2C5D4C8F0674557 SWAP9 PUSH2 0x14D4 SWAP5 DUP12 PUSH2 0x148B DUP5 PUSH1 0x1 PUSH2 0x14C6 SWAP7 ADD PUSH1 0x5 SSTORE PUSH2 0x1E2D JUMP JUMPDEST DUP2 SWAP3 SWAP2 SLOAD SWAP1 PUSH1 0x3 SHL SWAP2 DUP3 SHL SWAP2 PUSH1 0x0 NOT SWAP1 SHL NOT AND OR SWAP1 SSTORE PUSH2 0x14B8 PUSH1 0x40 MLOAD SWAP11 DUP12 SWAP11 PUSH1 0x80 DUP13 MSTORE PUSH1 0x80 DUP13 ADD SWAP2 PUSH2 0x20D3 JUMP JUMPDEST SWAP2 DUP10 DUP4 SUB PUSH1 0x20 DUP12 ADD MSTORE PUSH2 0x20D3 JUMP JUMPDEST SWAP2 DUP7 DUP4 SUB PUSH1 0x40 DUP9 ADD MSTORE PUSH2 0x20D3 JUMP JUMPDEST SWAP2 AND PUSH1 0x60 DUP4 ADD MSTORE SUB SWAP1 LOG2 STOP JUMPDEST PUSH4 0x4E487B71 PUSH1 0xE0 SHL PUSH1 0x0 MSTORE PUSH1 0x41 PUSH1 0x4 MSTORE PUSH1 0x24 PUSH1 0x0 REVERT JUMPDEST SWAP1 POP DUP5 ADD CALLDATALOAD DUP13 PUSH2 0x13ED JUMP JUMPDEST POP PUSH1 0x3 DUP2 ADD PUSH1 0x0 MSTORE PUSH1 0x20 PUSH1 0x0 KECCAK256 PUSH1 0x0 SWAP3 JUMPDEST PUSH1 0x1F NOT DUP6 AND DUP5 LT PUSH2 0x1559 JUMPI PUSH1 0x9 SWAP4 POP DUP5 PUSH1 0x1F NOT DUP2 AND LT PUSH2 0x153F JUMPI JUMPDEST POP POP PUSH1 0x1 DUP4 DUP2 SHL ADD PUSH1 0x3 DUP3 ADD SSTORE PUSH2 0x1404 JUMP JUMPDEST DUP6 ADD CALLDATALOAD PUSH1 0x0 NOT PUSH1 0x3 DUP7 SWAP1 SHL PUSH1 0xF8 AND SHR NOT AND SWAP1 SSTORE DUP12 DUP1 PUSH2 0x152D JUMP JUMPDEST DUP6 DUP2 ADD CALLDATALOAD DUP3 SSTORE PUSH1 0x20 SWAP4 DUP5 ADD SWAP4 PUSH1 0x1 SWAP1 SWAP3 ADD SWAP2 ADD PUSH2 0x1512 JUMP JUMPDEST PUSH1 0x3 DUP3 ADD PUSH1 0x0 MSTORE PUSH1 0x20 PUSH1 0x0 KECCAK256 PUSH1 0x1F DUP5 ADD PUSH1 0x5 SHR DUP2 ADD PUSH1 0x20 DUP6 LT PUSH2 0x15B1 JUMPI JUMPDEST PUSH1 0x1F DUP4 ADD PUSH1 0x5 SHR DUP3 ADD DUP2 LT PUSH2 0x15A5 JUMPI POP POP PUSH2 0x13D2 JUMP JUMPDEST PUSH1 0x0 DUP2 SSTORE PUSH1 0x1 ADD PUSH2 0x158F JUMP JUMPDEST POP DUP1 PUSH2 0x158F JUMP JUMPDEST SWAP1 POP DUP10 ADD CALLDATALOAD DUP12 PUSH2 0x1396 JUMP JUMPDEST SWAP1 POP PUSH1 0x2 DUP3 ADD PUSH1 0x0 MSTORE PUSH1 0x20 PUSH1 0x0 KECCAK256 SWAP1 PUSH1 0x0 JUMPDEST DUP12 PUSH1 0x1F NOT DUP9 AND DUP3 LT PUSH2 0x161B JUMPI POP POP DUP6 PUSH1 0x1F NOT DUP2 AND LT PUSH2 0x1601 JUMPI JUMPDEST POP POP PUSH1 0x1 DUP5 DUP2 SHL ADD PUSH1 0x2 DUP3 ADD SSTORE PUSH2 0x13AD JUMP JUMPDEST DUP11 ADD CALLDATALOAD PUSH1 0x0 NOT PUSH1 0x3 DUP8 SWAP1 SHL PUSH1 0xF8 AND SHR NOT AND SWAP1 SSTORE DUP11 DUP1 PUSH2 0x15EF JUMP JUMPDEST PUSH1 0x1 DUP4 SWAP5 PUSH1 0x20 SWAP4 SWAP5 DUP5 SWAP4 ADD CALLDATALOAD DUP2 SSTORE ADD SWAP4 ADD SWAP2 ADD PUSH2 0x15D5 JUMP JUMPDEST PUSH1 0x2 DUP3 ADD PUSH1 0x0 MSTORE PUSH1 0x20 PUSH1 0x0 KECCAK256 PUSH1 0x1F DUP7 ADD PUSH1 0x5 SHR DUP2 ADD PUSH1 0x20 DUP8 LT PUSH2 0x1673 JUMPI JUMPDEST PUSH1 0x1F DUP4 ADD PUSH1 0x5 SHR DUP3 ADD DUP2 LT PUSH2 0x1667 JUMPI POP POP PUSH2 0x137F JUMP JUMPDEST PUSH1 0x0 DUP2 SSTORE PUSH1 0x1 ADD PUSH2 0x1651 JUMP JUMPDEST POP DUP1 PUSH2 0x1651 JUMP JUMPDEST SWAP1 POP DUP9 ADD CALLDATALOAD DUP12 PUSH2 0x1343 JUMP JUMPDEST SWAP1 POP PUSH1 0x1 DUP3 ADD PUSH1 0x0 MSTORE PUSH1 0x20 PUSH1 0x0 KECCAK256 SWAP1 PUSH1 0x0 JUMPDEST DUP11 PUSH1 0x1F NOT DUP12 AND DUP3 LT PUSH2 0x16DD JUMPI POP POP DUP9 PUSH1 0x1F NOT DUP2 AND LT PUSH2 0x16C3 JUMPI JUMPDEST POP POP PUSH1 0x1 DUP8 DUP2 SHL ADD PUSH1 0x1 DUP3 ADD SSTORE PUSH2 0x135A JUMP JUMPDEST DUP10 ADD CALLDATALOAD PUSH1 0x0 NOT PUSH1 0x3 DUP11 SWAP1 SHL PUSH1 0xF8 AND SHR NOT AND SWAP1 SSTORE DUP11 DUP1 PUSH2 0x16B1 JUMP JUMPDEST PUSH1 0x1 DUP4 SWAP5 PUSH1 0x20 SWAP4 SWAP5 DUP5 SWAP4 ADD CALLDATALOAD DUP2 SSTORE ADD SWAP4 ADD SWAP2 ADD PUSH2 0x1697 JUMP JUMPDEST PUSH1 0x1 DUP3 ADD PUSH1 0x0 MSTORE PUSH1 0x20 PUSH1 0x0 KECCAK256 PUSH1 0x1F DUP10 ADD PUSH1 0x5 SHR DUP2 ADD PUSH1 0x20 DUP11 LT PUSH2 0x1735 JUMPI JUMPDEST PUSH1 0x1F DUP4 ADD PUSH1 0x5 SHR DUP3 ADD DUP2 LT PUSH2 0x1729 JUMPI POP POP PUSH2 0x132C JUMP JUMPDEST PUSH1 0x0 DUP2 SSTORE PUSH1 0x1 ADD PUSH2 0x1713 JUMP JUMPDEST POP DUP1 PUSH2 0x1713 JUMP JUMPDEST PUSH1 0x40 MLOAD PUSH3 0x461BCD PUSH1 0xE5 SHL DUP2 MSTORE PUSH1 0x20 PUSH1 0x4 DUP3 ADD MSTORE PUSH1 0x1C PUSH1 0x24 DUP3 ADD MSTORE PUSH32 0x47656D426F74733A20706F6F6C20616C72656164792065786973747300000000 PUSH1 0x44 DUP3 ADD MSTORE PUSH1 0x64 SWAP1 REVERT JUMPDEST PUSH1 0xA0 SHR AND SWAP4 SWAP1 POP PUSH2 0x1293 JUMP JUMPDEST PUSH1 0x40 MLOAD PUSH3 0x461BCD PUSH1 0xE5 SHL DUP2 MSTORE PUSH1 0x20 PUSH1 0x4 DUP3 ADD MSTORE PUSH1 0x17 PUSH1 0x24 DUP3 ADD MSTORE PUSH32 0x47656D426F74733A20656D70747920626F74424E616D65000000000000000000 PUSH1 0x44 DUP3 ADD MSTORE PUSH1 0x64 SWAP1 REVERT JUMPDEST PUSH1 0x40 MLOAD PUSH3 0x461BCD PUSH1 0xE5 SHL DUP2 MSTORE PUSH1 0x20 PUSH1 0x4 DUP3 ADD MSTORE PUSH1 0x17 PUSH1 0x24 DUP3 ADD MSTORE PUSH32 0x47656D426F74733A20656D70747920626F74414E616D65000000000000000000 PUSH1 0x44 DUP3 ADD MSTORE PUSH1 0x64 SWAP1 REVERT JUMPDEST PUSH1 0x40 MLOAD PUSH3 0x461BCD PUSH1 0xE5 SHL DUP2 MSTORE PUSH1 0x20 PUSH1 0x4 DUP3 ADD MSTORE PUSH1 0x16 PUSH1 0x24 DUP3 ADD MSTORE PUSH22 0x11D95B509BDD1CCE88195B5C1D1E481B585D18DA1259 PUSH1 0x52 SHL PUSH1 0x44 DUP3 ADD MSTORE PUSH1 0x64 SWAP1 REVERT JUMPDEST CALLVALUE PUSH2 0x45D JUMPI PUSH1 0x20 CALLDATASIZE PUSH1 0x3 NOT ADD SLT PUSH2 0x45D JUMPI PUSH1 0x4 CALLDATALOAD PUSH8 0xFFFFFFFFFFFFFFFF DUP2 GT PUSH2 0x45D JUMPI PUSH2 0x1888 PUSH1 0x20 SWAP2 CALLDATASIZE SWAP1 PUSH1 0x4 ADD PUSH2 0x1DEE JUMP JUMPDEST PUSH2 0x18AB DUP4 PUSH1 0x40 MLOAD DUP4 DUP2 SWAP5 DUP4 DUP4 ADD SWAP7 DUP8 CALLDATACOPY DUP2 ADD PUSH1 0x0 DUP4 DUP3 ADD MSTORE SUB DUP1 DUP5 MSTORE ADD DUP3 PUSH2 0x1EED JUMP JUMPDEST MLOAD SWAP1 KECCAK256 PUSH1 0x40 MLOAD SWAP1 DUP2 MSTORE RETURN JUMPDEST CALLVALUE PUSH2 0x45D JUMPI PUSH2 0x18C4 CALLDATASIZE PUSH2 0x1DCF JUMP JUMPDEST PUSH2 0x18D9 PUSH1 0x1 DUP1 PUSH1 0xA0 SHL SUB PUSH1 0x1 SLOAD AND CALLER EQ PUSH2 0x2046 JUMP JUMPDEST PUSH2 0x18EA PUSH1 0xFF PUSH1 0x2 SLOAD PUSH1 0xB0 SHR AND PUSH2 0x2087 JUMP JUMPDEST DUP2 PUSH1 0x0 MSTORE PUSH1 0x3 PUSH1 0x20 MSTORE PUSH1 0x40 PUSH1 0x0 KECCAK256 PUSH2 0x190B PUSH1 0xFF PUSH1 0x9 DUP4 ADD SLOAD PUSH1 0x8 SHR AND PUSH2 0x20F4 JUMP JUMPDEST PUSH1 0x6 DUP2 ADD SWAP2 DUP3 SLOAD SWAP2 PUSH1 0xFF DUP4 PUSH1 0x20 SHR AND PUSH1 0x4 DUP2 LT ISZERO PUSH2 0x447 JUMPI DUP1 ISZERO SWAP1 DUP2 ISZERO PUSH2 0x19F4 JUMPI JUMPDEST POP ISZERO PUSH2 0x19AF JUMPI PUSH1 0x2 DUP3 LT ISZERO PUSH2 0x447 JUMPI PUSH32 0xDCD28E1ACAB90525F060FA9869923C2FF4C46997A980A68FD161F8B690283981 SWAP4 PUSH7 0x1000200000000 PUSH1 0x60 SWAP5 PUSH6 0xFF0000000000 DUP6 PUSH1 0x28 SHL AND SWAP1 PUSH7 0xFFFFFF00000000 NOT AND OR OR SWAP1 SSTORE TIMESTAMP PUSH1 0x8 DUP3 ADD SSTORE PUSH1 0x5 PUSH1 0x4 DUP3 ADD SLOAD SWAP2 ADD SLOAD SWAP1 PUSH2 0x19A2 PUSH1 0x40 MLOAD DUP1 SWAP5 PUSH2 0x1DC2 JUMP JUMPDEST PUSH1 0x20 DUP4 ADD MSTORE PUSH1 0x40 DUP3 ADD MSTORE LOG2 STOP JUMPDEST PUSH1 0x40 MLOAD PUSH3 0x461BCD PUSH1 0xE5 SHL DUP2 MSTORE PUSH1 0x20 PUSH1 0x4 DUP3 ADD MSTORE PUSH1 0x17 PUSH1 0x24 DUP3 ADD MSTORE PUSH32 0x47656D426F74733A2063616E6E6F74207265736F6C7665000000000000000000 PUSH1 0x44 DUP3 ADD MSTORE PUSH1 0x64 SWAP1 REVERT JUMPDEST PUSH1 0x1 SWAP2 POP EQ DUP7 PUSH2 0x192D JUMP JUMPDEST CALLVALUE PUSH2 0x45D JUMPI PUSH1 0x0 CALLDATASIZE PUSH1 0x3 NOT ADD SLT PUSH2 0x45D JUMPI PUSH1 0x20 PUSH1 0xFF PUSH1 0x2 SLOAD PUSH1 0xB0 SHR AND PUSH1 0x40 MLOAD SWAP1 ISZERO ISZERO DUP2 MSTORE RETURN JUMPDEST PUSH2 0x1A2E CALLDATASIZE PUSH2 0x1DCF JUMP JUMPDEST SWAP1 PUSH2 0x1A40 PUSH1 0xFF PUSH1 0x2 SLOAD PUSH1 0xB0 SHR AND PUSH2 0x2087 JUMP JUMPDEST PUSH7 0x38D7EA4C68000 CALLVALUE LT PUSH2 0x1BF3 JUMPI PUSH8 0x8AC7230489E80000 CALLVALUE GT PUSH2 0x1BB5 JUMPI DUP1 PUSH1 0x0 MSTORE PUSH1 0x20 PUSH1 0x3 DUP2 MSTORE PUSH1 0x40 PUSH1 0x0 KECCAK256 PUSH2 0x1A7F PUSH1 0xFF PUSH1 0x9 DUP4 ADD SLOAD PUSH1 0x8 SHR AND PUSH2 0x20F4 JUMP JUMPDEST PUSH1 0x6 DUP2 ADD SWAP1 PUSH1 0xFF DUP3 SLOAD DUP5 SHR AND PUSH1 0x4 DUP2 LT ISZERO PUSH2 0x447 JUMPI PUSH2 0x1A9E SWAP1 ISZERO PUSH2 0x2140 JUMP JUMPDEST DUP4 PUSH1 0x0 MSTORE PUSH1 0x4 DUP4 MSTORE PUSH1 0x40 PUSH1 0x0 KECCAK256 CALLER PUSH1 0x0 MSTORE DUP4 MSTORE PUSH1 0x40 PUSH1 0x0 KECCAK256 PUSH1 0x5 DUP2 ADD SWAP1 DUP2 SLOAD SWAP1 PUSH1 0xFF DUP3 AND PUSH2 0x1B79 JUMPI PUSH1 0x2 DUP9 LT ISZERO PUSH2 0x447 JUMPI PUSH1 0x1 SWAP2 PUSH1 0xFF NOT SWAP2 DUP3 DUP2 SLOAD AND PUSH1 0xFF DUP12 AND OR DUP2 SSTORE CALLVALUE DUP5 DUP3 ADD SSTORE PUSH1 0x4 TIMESTAMP SWAP2 ADD SSTORE AND OR SWAP1 SSTORE DUP5 ISZERO PUSH1 0x0 EQ PUSH2 0x1B64 JUMPI PUSH1 0x4 ADD PUSH2 0x1B07 CALLVALUE DUP3 SLOAD PUSH2 0x2185 JUMP JUMPDEST SWAP1 SSTORE JUMPDEST DUP1 SLOAD PUSH4 0xFFFFFFFF PUSH1 0x1 DUP2 DUP4 AND ADD DUP2 DUP2 GT PUSH2 0x8AD JUMPI AND SWAP1 PUSH4 0xFFFFFFFF NOT AND OR SWAP1 SSTORE PUSH2 0x1B37 PUSH1 0x40 MLOAD DUP1 SWAP5 PUSH2 0x1DC2 JUMP JUMPDEST CALLVALUE SWAP1 DUP4 ADD MSTORE PUSH32 0x22F4C9BB73A93D9507392476FA412371D3D5E19E74D8951567B76A7483DCA1A0 PUSH1 0x40 CALLER SWAP4 LOG3 STOP JUMPDEST PUSH1 0x5 ADD PUSH2 0x1B72 CALLVALUE DUP3 SLOAD PUSH2 0x2185 JUMP JUMPDEST SWAP1 SSTORE PUSH2 0x1B0A JUMP JUMPDEST PUSH1 0x40 MLOAD PUSH3 0x461BCD PUSH1 0xE5 SHL DUP2 MSTORE PUSH1 0x4 DUP2 ADD DUP8 SWAP1 MSTORE PUSH1 0x14 PUSH1 0x24 DUP3 ADD MSTORE PUSH20 0x11D95B509BDD1CCE88185B1C9958591E4818995D PUSH1 0x62 SHL PUSH1 0x44 DUP3 ADD MSTORE PUSH1 0x64 SWAP1 REVERT JUMPDEST PUSH1 0x40 MLOAD PUSH3 0x461BCD PUSH1 0xE5 SHL DUP2 MSTORE PUSH1 0x20 PUSH1 0x4 DUP3 ADD MSTORE PUSH1 0x16 PUSH1 0x24 DUP3 ADD MSTORE PUSH22 0x11D95B509BDD1CCE8818589BDD99481B585E0818995D PUSH1 0x52 SHL PUSH1 0x44 DUP3 ADD MSTORE PUSH1 0x64 SWAP1 REVERT JUMPDEST PUSH1 0x40 MLOAD PUSH3 0x461BCD PUSH1 0xE5 SHL DUP2 MSTORE PUSH1 0x20 PUSH1 0x4 DUP3 ADD MSTORE PUSH1 0x16 PUSH1 0x24 DUP3 ADD MSTORE PUSH22 0x11D95B509BDD1CCE8818995B1BDDC81B5A5B8818995D PUSH1 0x52 SHL PUSH1 0x44 DUP3 ADD MSTORE PUSH1 0x64 SWAP1 REVERT JUMPDEST CALLVALUE PUSH2 0x45D JUMPI PUSH1 0x40 CALLDATASIZE PUSH1 0x3 NOT ADD SLT PUSH2 0x45D JUMPI PUSH1 0x4 CALLDATALOAD SWAP1 PUSH2 0x1C4E PUSH2 0x1D96 JUMP JUMPDEST PUSH2 0x1C57 DUP3 PUSH2 0x1EB4 JUMP JUMPDEST PUSH1 0x0 DUP3 MSTORE PUSH1 0x0 PUSH1 0xA0 PUSH1 0x20 SWAP4 DUP3 DUP6 DUP3 ADD MSTORE DUP3 PUSH1 0x40 DUP3 ADD MSTORE DUP3 PUSH1 0x60 DUP3 ADD MSTORE DUP3 PUSH1 0x80 DUP3 ADD MSTORE ADD MSTORE DUP3 PUSH1 0x0 MSTORE PUSH1 0x4 DUP3 MSTORE PUSH1 0x40 PUSH1 0x0 KECCAK256 SWAP1 PUSH1 0x1 DUP1 PUSH1 0xA0 SHL SUB AND SWAP1 DUP2 PUSH1 0x0 MSTORE DUP3 MSTORE PUSH1 0xFF PUSH1 0x5 PUSH1 0x40 PUSH1 0x0 KECCAK256 ADD SLOAD AND ISZERO PUSH2 0x1D58 JUMPI PUSH1 0xC0 SWAP3 PUSH1 0x0 MSTORE PUSH1 0x4 DUP3 MSTORE PUSH1 0x40 PUSH1 0x0 KECCAK256 SWAP1 PUSH1 0x0 MSTORE DUP2 MSTORE PUSH1 0x40 PUSH1 0x0 KECCAK256 SWAP1 PUSH1 0x40 MLOAD SWAP2 PUSH2 0x1CD1 DUP4 PUSH2 0x1EB4 JUMP JUMPDEST PUSH2 0x1CDF PUSH1 0xFF DUP3 SLOAD AND DUP5 PUSH2 0x2290 JUMP JUMPDEST PUSH1 0x1 DUP2 ADD SLOAD SWAP2 DUP1 DUP5 ADD SWAP3 DUP4 MSTORE PUSH1 0xFF PUSH1 0x2 DUP4 ADD SLOAD AND PUSH1 0x40 DUP6 ADD SWAP1 ISZERO ISZERO DUP2 MSTORE PUSH1 0x3 DUP4 ADD SLOAD SWAP2 PUSH1 0x60 DUP7 ADD SWAP3 DUP4 MSTORE PUSH1 0xFF PUSH1 0x5 PUSH1 0x4 DUP7 ADD SLOAD SWAP6 PUSH1 0x80 DUP10 ADD SWAP7 DUP8 MSTORE ADD SLOAD AND SWAP5 PUSH1 0xA0 DUP8 ADD SWAP6 ISZERO ISZERO DUP7 MSTORE PUSH2 0x1D35 PUSH1 0x40 MLOAD DUP1 SWAP9 MLOAD PUSH2 0x1DC2 JUMP JUMPDEST MLOAD SWAP1 DUP7 ADD MSTORE MLOAD ISZERO ISZERO PUSH1 0x40 DUP6 ADD MSTORE MLOAD PUSH1 0x60 DUP5 ADD MSTORE MLOAD PUSH1 0x80 DUP4 ADD MSTORE MLOAD ISZERO ISZERO PUSH1 0xA0 DUP3 ADD MSTORE RETURN JUMPDEST PUSH1 0x40 MLOAD PUSH3 0x461BCD PUSH1 0xE5 SHL DUP2 MSTORE PUSH1 0x4 DUP2 ADD DUP4 SWAP1 MSTORE PUSH1 0x16 PUSH1 0x24 DUP3 ADD MSTORE PUSH22 0x11D95B509BDD1CCE8818995D081B9BDD08199BDD5B99 PUSH1 0x52 SHL PUSH1 0x44 DUP3 ADD MSTORE PUSH1 0x64 SWAP1 REVERT JUMPDEST PUSH1 0x24 CALLDATALOAD SWAP1 PUSH1 0x1 PUSH1 0x1 PUSH1 0xA0 SHL SUB DUP3 AND DUP3 SUB PUSH2 0x45D JUMPI JUMP JUMPDEST PUSH1 0x4 CALLDATALOAD SWAP1 PUSH1 0x1 PUSH1 0x1 PUSH1 0xA0 SHL SUB DUP3 AND DUP3 SUB PUSH2 0x45D JUMPI JUMP JUMPDEST SWAP1 PUSH1 0x2 DUP3 LT ISZERO PUSH2 0x447 JUMPI MSTORE JUMP JUMPDEST PUSH1 0x40 SWAP1 PUSH1 0x3 NOT ADD SLT PUSH2 0x45D JUMPI PUSH1 0x4 CALLDATALOAD SWAP1 PUSH1 0x24 CALLDATALOAD PUSH1 0x2 DUP2 LT ISZERO PUSH2 0x45D JUMPI SWAP1 JUMP JUMPDEST SWAP2 DUP2 PUSH1 0x1F DUP5 ADD SLT ISZERO PUSH2 0x45D JUMPI DUP3 CALLDATALOAD SWAP2 PUSH8 0xFFFFFFFFFFFFFFFF DUP4 GT PUSH2 0x45D JUMPI PUSH1 0x20 DUP4 DUP2 DUP7 ADD SWAP6 ADD ADD GT PUSH2 0x45D JUMPI JUMP JUMPDEST PUSH1 0x24 CALLDATALOAD SWAP1 PUSH2 0xFFFF DUP3 AND DUP3 SUB PUSH2 0x45D JUMPI JUMP JUMPDEST PUSH1 0x5 SLOAD DUP2 LT ISZERO PUSH2 0x1E64 JUMPI PUSH1 0x5 PUSH1 0x0 MSTORE PUSH32 0x36B6384B5ECA791C62761152D0C79BB0604C104A5FB6F4EB0703F3154BB3DB0 ADD SWAP1 PUSH1 0x0 SWAP1 JUMP JUMPDEST PUSH4 0x4E487B71 PUSH1 0xE0 SHL PUSH1 0x0 MSTORE PUSH1 0x32 PUSH1 0x4 MSTORE PUSH1 0x24 PUSH1 0x0 REVERT JUMPDEST SWAP1 PUSH1 0x1 DUP3 DUP2 SHR SWAP3 AND DUP1 ISZERO PUSH2 0x1EAA JUMPI JUMPDEST PUSH1 0x20 DUP4 LT EQ PUSH2 0x1E94 JUMPI JUMP JUMPDEST PUSH4 0x4E487B71 PUSH1 0xE0 SHL PUSH1 0x0 MSTORE PUSH1 0x22 PUSH1 0x4 MSTORE PUSH1 0x24 PUSH1 0x0 REVERT JUMPDEST SWAP2 PUSH1 0x7F AND SWAP2 PUSH2 0x1E89 JUMP JUMPDEST PUSH1 0xC0 DUP2 ADD SWAP1 DUP2 LT PUSH8 0xFFFFFFFFFFFFFFFF DUP3 GT OR PUSH2 0x14E0 JUMPI PUSH1 0x40 MSTORE JUMP JUMPDEST PUSH2 0x1E0 DUP2 ADD SWAP1 DUP2 LT PUSH8 0xFFFFFFFFFFFFFFFF DUP3 GT OR PUSH2 0x14E0 JUMPI PUSH1 0x40 MSTORE JUMP JUMPDEST SWAP1 PUSH1 0x1F DUP1 NOT SWAP2 ADD AND DUP2 ADD SWAP1 DUP2 LT PUSH8 0xFFFFFFFFFFFFFFFF DUP3 GT OR PUSH2 0x14E0 JUMPI PUSH1 0x40 MSTORE JUMP JUMPDEST SWAP1 PUSH1 0x40 MLOAD SWAP2 DUP3 PUSH1 0x0 DUP3 SLOAD SWAP3 PUSH2 0x1F23 DUP5 PUSH2 0x1E7A JUMP JUMPDEST SWAP1 DUP2 DUP5 MSTORE PUSH1 0x1 SWAP5 DUP6 DUP2 AND SWAP1 DUP2 PUSH1 0x0 EQ PUSH2 0x1F92 JUMPI POP PUSH1 0x1 EQ PUSH2 0x1F4F JUMPI JUMPDEST POP POP PUSH2 0x1F4D SWAP3 POP SUB DUP4 PUSH2 0x1EED JUMP JUMPDEST JUMP JUMPDEST SWAP1 SWAP4 SWAP2 POP PUSH1 0x0 MSTORE PUSH1 0x20 SWAP1 DUP2 PUSH1 0x0 KECCAK256 SWAP4 PUSH1 0x0 SWAP2 JUMPDEST DUP2 DUP4 LT PUSH2 0x1F7A JUMPI POP POP PUSH2 0x1F4D SWAP4 POP DUP3 ADD ADD CODESIZE DUP1 PUSH2 0x1F3F JUMP JUMPDEST DUP6 SLOAD DUP9 DUP5 ADD DUP6 ADD MSTORE SWAP5 DUP6 ADD SWAP5 DUP8 SWAP5 POP SWAP2 DUP4 ADD SWAP2 PUSH2 0x1F62 JUMP JUMPDEST SWAP2 POP POP PUSH2 0x1F4D SWAP5 POP PUSH1 0x20 SWAP3 POP PUSH1 0xFF NOT AND DUP3 DUP5 ADD MSTORE ISZERO ISZERO PUSH1 0x5 SHL DUP3 ADD ADD CODESIZE DUP1 PUSH2 0x1F3F JUMP JUMPDEST SWAP2 SWAP1 DUP3 MLOAD SWAP3 DUP4 DUP3 MSTORE PUSH1 0x0 JUMPDEST DUP5 DUP2 LT PUSH2 0x1FE1 JUMPI POP POP DUP3 PUSH1 0x0 PUSH1 0x20 DUP1 SWAP5 SWAP6 DUP5 ADD ADD MSTORE PUSH1 0x1F DUP1 NOT SWAP2 ADD AND ADD ADD SWAP1 JUMP JUMPDEST PUSH1 0x20 DUP2 DUP4 ADD DUP2 ADD MLOAD DUP5 DUP4 ADD DUP3 ADD MSTORE ADD PUSH2 0x1FC0 JUMP JUMPDEST SWAP1 PUSH1 0x4 DUP3 LT ISZERO PUSH2 0x447 JUMPI MSTORE JUMP JUMPDEST ISZERO PUSH2 0x2009 JUMPI JUMP JUMPDEST PUSH1 0x40 MLOAD PUSH3 0x461BCD PUSH1 0xE5 SHL DUP2 MSTORE PUSH1 0x20 PUSH1 0x4 DUP3 ADD MSTORE PUSH1 0x15 PUSH1 0x24 DUP3 ADD MSTORE PUSH21 0x8ECADA84DEE8E67440CCCACA40E8DEDE40D0D2CED PUSH1 0x5B SHL PUSH1 0x44 DUP3 ADD MSTORE PUSH1 0x64 SWAP1 REVERT JUMPDEST ISZERO PUSH2 0x204D JUMPI JUMP JUMPDEST PUSH1 0x40 MLOAD PUSH3 0x461BCD PUSH1 0xE5 SHL DUP2 MSTORE PUSH1 0x20 PUSH1 0x4 DUP3 ADD MSTORE PUSH1 0x12 PUSH1 0x24 DUP3 ADD MSTORE PUSH18 0x23B2B6A137BA399D103737BA1037BBB732B9 PUSH1 0x71 SHL PUSH1 0x44 DUP3 ADD MSTORE PUSH1 0x64 SWAP1 REVERT JUMPDEST ISZERO PUSH2 0x208E JUMPI JUMP JUMPDEST PUSH1 0x40 MLOAD PUSH3 0x461BCD PUSH1 0xE5 SHL DUP2 MSTORE PUSH1 0x20 PUSH1 0x4 DUP3 ADD MSTORE PUSH1 0x18 PUSH1 0x24 DUP3 ADD MSTORE PUSH32 0x47656D426F74733A206E6F7420696E697469616C697A65640000000000000000 PUSH1 0x44 DUP3 ADD MSTORE PUSH1 0x64 SWAP1 REVERT JUMPDEST SWAP1 DUP1 PUSH1 0x20 SWAP4 SWAP3 DUP2 DUP5 MSTORE DUP5 DUP5 ADD CALLDATACOPY PUSH1 0x0 DUP3 DUP3 ADD DUP5 ADD MSTORE PUSH1 0x1F ADD PUSH1 0x1F NOT AND ADD ADD SWAP1 JUMP JUMPDEST ISZERO PUSH2 0x20FB JUMPI JUMP JUMPDEST PUSH1 0x40 MLOAD PUSH3 0x461BCD PUSH1 0xE5 SHL DUP2 MSTORE PUSH1 0x20 PUSH1 0x4 DUP3 ADD MSTORE PUSH1 0x17 PUSH1 0x24 DUP3 ADD MSTORE PUSH32 0x47656D426F74733A20706F6F6C206E6F7420666F756E64000000000000000000 PUSH1 0x44 DUP3 ADD MSTORE PUSH1 0x64 SWAP1 REVERT JUMPDEST ISZERO PUSH2 0x2147 JUMPI JUMP JUMPDEST PUSH1 0x40 MLOAD PUSH3 0x461BCD PUSH1 0xE5 SHL DUP2 MSTORE PUSH1 0x20 PUSH1 0x4 DUP3 ADD MSTORE PUSH1 0x16 PUSH1 0x24 DUP3 ADD MSTORE PUSH22 0x23B2B6A137BA399D103837B7B6103737BA1037B832B7 PUSH1 0x51 SHL PUSH1 0x44 DUP3 ADD MSTORE PUSH1 0x64 SWAP1 REVERT JUMPDEST SWAP2 SWAP1 DUP3 ADD DUP1 SWAP3 GT PUSH2 0x8AD JUMPI JUMP JUMPDEST ISZERO PUSH2 0x2199 JUMPI JUMP JUMPDEST PUSH1 0x40 MLOAD PUSH3 0x461BCD PUSH1 0xE5 SHL DUP2 MSTORE PUSH1 0x20 PUSH1 0x4 DUP3 ADD MSTORE PUSH1 0x15 PUSH1 0x24 DUP3 ADD MSTORE PUSH21 0x11D95B509BDD1CCE881B9BDD081C995CDBDB1D9959 PUSH1 0x5A SHL PUSH1 0x44 DUP3 ADD MSTORE PUSH1 0x64 SWAP1 REVERT JUMPDEST ISZERO PUSH2 0x21DD JUMPI JUMP JUMPDEST PUSH1 0x40 MLOAD PUSH3 0x461BCD PUSH1 0xE5 SHL DUP2 MSTORE PUSH1 0x20 PUSH1 0x4 DUP3 ADD MSTORE PUSH1 0x15 PUSH1 0x24 DUP3 ADD MSTORE PUSH21 0x11D95B509BDD1CCE881B9BC818995D08199BDD5B99 PUSH1 0x5A SHL PUSH1 0x44 DUP3 ADD MSTORE PUSH1 0x64 SWAP1 REVERT JUMPDEST DUP2 DUP2 MUL SWAP3 SWAP2 DUP2 ISZERO SWAP2 DUP5 DIV EQ OR ISZERO PUSH2 0x8AD JUMPI JUMP JUMPDEST RETURNDATASIZE ISZERO PUSH2 0x2268 JUMPI RETURNDATASIZE SWAP1 PUSH8 0xFFFFFFFFFFFFFFFF DUP3 GT PUSH2 0x14E0 JUMPI PUSH1 0x40 MLOAD SWAP2 PUSH2 0x225C PUSH1 0x1F DUP3 ADD PUSH1 0x1F NOT AND PUSH1 0x20 ADD DUP5 PUSH2 0x1EED JUMP JUMPDEST DUP3 MSTORE RETURNDATASIZE PUSH1 0x0 PUSH1 0x20 DUP5 ADD RETURNDATACOPY JUMP JUMPDEST PUSH1 0x60 SWAP1 JUMP JUMPDEST PUSH1 0x2 PUSH1 0x0 SLOAD EQ PUSH2 0x227E JUMPI PUSH1 0x2 PUSH1 0x0 SSTORE JUMP JUMPDEST PUSH1 0x40 MLOAD PUSH4 0x3EE5AEB5 PUSH1 0xE0 SHL DUP2 MSTORE PUSH1 0x4 SWAP1 REVERT JUMPDEST PUSH1 0x2 DUP3 LT ISZERO PUSH2 0x447 JUMPI MSTORE JUMP INVALID LOG2 PUSH5 0x6970667358 0x22 SLT KECCAK256 PUSH22 0x9745228DE31D9BE13BDCEA511E4012463327BA5A2CF7 0x4D 0x4F EXTCODEHASH 0xD2 0xDF 0xE9 PUSH13 0xA7B764736F6C63430008140033 "},"methodIdentifiers":{"MAX_BET()":"7e95b523","MAX_FEE_BPS()":"d55be8c6","MIN_BET()":"6540742f","bets(bytes32,address)":"8f6e689b","cancel(bytes32)":"c4d252f5","claim(bytes32)":"bd66528a","claimRefund(bytes32)":"71de2ffc","collectFees(bytes32)":"817db73b","createPool(string,string,string,uint16)":"56233993","defaultFeeBps()":"bcae25a4","getBet(bytes32,address)":"084c3c57","getPool(bytes32)":"f6c00927","getPoolCount()":"8eec5d70","getPoolId(string)":"448c72f6","initialize(address,uint16)":"f39e69a4","initialized()":"158ef93e","lockPool(bytes32)":"bbca6c24","owner()":"8da5cb5b","placeBet(bytes32,uint8)":"0e52bb49","poolIds(uint256)":"69883b4e","pools(bytes32)":"b5217bb4","resolve(bytes32,uint8)":"28ee2936","treasury()":"61d027b3","updateConfig(address,uint16,address)":"7dd4de9f"}}}}}