{"contracts/GemBotsNFAv5.sol":{"GemBotsNFAv5":{"abi":[{"inputs":[{"internalType":"address","name":"_treasury","type":"address"},{"internalType":"address","name":"_battleResolver","type":"address"}],"stateMutability":"nonpayable","type":"constructor"},{"inputs":[],"name":"AlreadyAtMaxTier","type":"error"},{"inputs":[{"internalType":"address","name":"sender","type":"address"},{"internalType":"uint256","name":"tokenId","type":"uint256"},{"internalType":"address","name":"owner","type":"address"}],"name":"ERC721IncorrectOwner","type":"error"},{"inputs":[{"internalType":"address","name":"operator","type":"address"},{"internalType":"uint256","name":"tokenId","type":"uint256"}],"name":"ERC721InsufficientApproval","type":"error"},{"inputs":[{"internalType":"address","name":"approver","type":"address"}],"name":"ERC721InvalidApprover","type":"error"},{"inputs":[{"internalType":"address","name":"operator","type":"address"}],"name":"ERC721InvalidOperator","type":"error"},{"inputs":[{"internalType":"address","name":"owner","type":"address"}],"name":"ERC721InvalidOwner","type":"error"},{"inputs":[{"internalType":"address","name":"receiver","type":"address"}],"name":"ERC721InvalidReceiver","type":"error"},{"inputs":[{"internalType":"address","name":"sender","type":"address"}],"name":"ERC721InvalidSender","type":"error"},{"inputs":[{"internalType":"uint256","name":"tokenId","type":"uint256"}],"name":"ERC721NonexistentToken","type":"error"},{"inputs":[],"name":"EnforcedPause","type":"error"},{"inputs":[],"name":"ExpectedPause","type":"error"},{"inputs":[],"name":"InsufficientPayment","type":"error"},{"inputs":[],"name":"InvalidPrice","type":"error"},{"inputs":[],"name":"NFAAlreadyListed","type":"error"},{"inputs":[],"name":"NFANotListed","type":"error"},{"inputs":[],"name":"NotBattleResolver","type":"error"},{"inputs":[],"name":"NotEligibleForEvolution","type":"error"},{"inputs":[],"name":"NotMinter","type":"error"},{"inputs":[],"name":"NotOwnerOfNFA","type":"error"},{"inputs":[{"internalType":"address","name":"owner","type":"address"}],"name":"OwnableInvalidOwner","type":"error"},{"inputs":[{"internalType":"address","name":"account","type":"address"}],"name":"OwnableUnauthorizedAccount","type":"error"},{"inputs":[],"name":"ReentrancyGuardReentrantCall","type":"error"},{"inputs":[],"name":"TransferFailed","type":"error"},{"inputs":[],"name":"ZeroAddress","type":"error"},{"anonymous":false,"inputs":[{"indexed":true,"internalType":"address","name":"owner","type":"address"},{"indexed":true,"internalType":"address","name":"approved","type":"address"},{"indexed":true,"internalType":"uint256","name":"tokenId","type":"uint256"}],"name":"Approval","type":"event"},{"anonymous":false,"inputs":[{"indexed":true,"internalType":"address","name":"owner","type":"address"},{"indexed":true,"internalType":"address","name":"operator","type":"address"},{"indexed":false,"internalType":"bool","name":"approved","type":"bool"}],"name":"ApprovalForAll","type":"event"},{"anonymous":false,"inputs":[{"indexed":false,"internalType":"uint256","name":"_fromTokenId","type":"uint256"},{"indexed":false,"internalType":"uint256","name":"_toTokenId","type":"uint256"}],"name":"BatchMetadataUpdate","type":"event"},{"anonymous":false,"inputs":[{"indexed":true,"internalType":"uint256","name":"nfaId","type":"uint256"},{"indexed":false,"internalType":"uint256","name":"opponentNfaId","type":"uint256"},{"indexed":false,"internalType":"bool","name":"won","type":"bool"},{"indexed":false,"internalType":"string","name":"battleId","type":"string"}],"name":"BattleRecorded","type":"event"},{"anonymous":false,"inputs":[{"indexed":true,"internalType":"uint256","name":"nfaId","type":"uint256"},{"indexed":false,"internalType":"uint8","name":"newTier","type":"uint8"}],"name":"Evolved","type":"event"},{"anonymous":false,"inputs":[{"indexed":true,"internalType":"uint256","name":"nfaId","type":"uint256"},{"indexed":false,"internalType":"uint256","name":"price","type":"uint256"}],"name":"Listed","type":"event"},{"anonymous":false,"inputs":[{"indexed":true,"internalType":"uint256","name":"nfaId","type":"uint256"}],"name":"ListingCancelled","type":"event"},{"anonymous":false,"inputs":[{"indexed":false,"internalType":"uint256","name":"_tokenId","type":"uint256"}],"name":"MetadataUpdate","type":"event"},{"anonymous":false,"inputs":[{"indexed":true,"internalType":"uint256","name":"nfaId","type":"uint256"},{"indexed":true,"internalType":"uint256","name":"agentId","type":"uint256"},{"indexed":true,"internalType":"address","name":"owner","type":"address"},{"indexed":false,"internalType":"bytes32","name":"configHash","type":"bytes32"}],"name":"NFAMinted","type":"event"},{"anonymous":false,"inputs":[{"indexed":true,"internalType":"address","name":"previousOwner","type":"address"},{"indexed":true,"internalType":"address","name":"newOwner","type":"address"}],"name":"OwnershipTransferred","type":"event"},{"anonymous":false,"inputs":[{"indexed":false,"internalType":"address","name":"account","type":"address"}],"name":"Paused","type":"event"},{"anonymous":false,"inputs":[{"indexed":true,"internalType":"uint256","name":"nfaId","type":"uint256"},{"indexed":false,"internalType":"address","name":"from","type":"address"},{"indexed":false,"internalType":"address","name":"to","type":"address"},{"indexed":false,"internalType":"uint256","name":"price","type":"uint256"}],"name":"Sold","type":"event"},{"anonymous":false,"inputs":[{"indexed":true,"internalType":"uint256","name":"nfaId","type":"uint256"},{"indexed":false,"internalType":"string","name":"modelId","type":"string"},{"indexed":false,"internalType":"bytes32","name":"strategyHash","type":"bytes32"}],"name":"StrategyRegistered","type":"event"},{"anonymous":false,"inputs":[{"indexed":true,"internalType":"address","name":"from","type":"address"},{"indexed":true,"internalType":"address","name":"to","type":"address"},{"indexed":true,"internalType":"uint256","name":"tokenId","type":"uint256"}],"name":"Transfer","type":"event"},{"anonymous":false,"inputs":[{"indexed":false,"internalType":"address","name":"account","type":"address"}],"name":"Unpaused","type":"event"},{"inputs":[],"name":"GENESIS_LIMIT","outputs":[{"internalType":"uint256","name":"","type":"uint256"}],"stateMutability":"view","type":"function"},{"inputs":[{"internalType":"address","name":"to","type":"address"},{"internalType":"uint256","name":"tokenId","type":"uint256"}],"name":"approve","outputs":[],"stateMutability":"nonpayable","type":"function"},{"inputs":[{"internalType":"address","name":"owner","type":"address"}],"name":"balanceOf","outputs":[{"internalType":"uint256","name":"","type":"uint256"}],"stateMutability":"view","type":"function"},{"inputs":[{"internalType":"uint256","name":"count","type":"uint256"}],"name":"batchMintGenesis","outputs":[],"stateMutability":"nonpayable","type":"function"},{"inputs":[{"internalType":"uint256[]","name":"tokenIds","type":"uint256[]"},{"internalType":"string[]","name":"uris","type":"string[]"}],"name":"batchSetTokenURI","outputs":[],"stateMutability":"nonpayable","type":"function"},{"inputs":[],"name":"battleResolver","outputs":[{"internalType":"address","name":"","type":"address"}],"stateMutability":"view","type":"function"},{"inputs":[{"internalType":"uint256","name":"nfaId","type":"uint256"}],"name":"buyNFA","outputs":[],"stateMutability":"payable","type":"function"},{"inputs":[{"internalType":"uint256","name":"nfaId","type":"uint256"}],"name":"cancelListing","outputs":[],"stateMutability":"nonpayable","type":"function"},{"inputs":[],"name":"contractURI","outputs":[{"internalType":"string","name":"","type":"string"}],"stateMutability":"view","type":"function"},{"inputs":[],"name":"creatorRoyaltyBps","outputs":[{"internalType":"uint256","name":"","type":"uint256"}],"stateMutability":"view","type":"function"},{"inputs":[{"internalType":"uint256","name":"nfaId","type":"uint256"}],"name":"evolve","outputs":[],"stateMutability":"nonpayable","type":"function"},{"inputs":[],"name":"genesisCount","outputs":[{"internalType":"uint256","name":"","type":"uint256"}],"stateMutability":"view","type":"function"},{"inputs":[{"internalType":"uint256","name":"tokenId","type":"uint256"}],"name":"getApproved","outputs":[{"internalType":"address","name":"","type":"address"}],"stateMutability":"view","type":"function"},{"inputs":[{"internalType":"uint256","name":"nfaId","type":"uint256"}],"name":"getBattleStats","outputs":[{"components":[{"internalType":"uint256","name":"wins","type":"uint256"},{"internalType":"uint256","name":"losses","type":"uint256"},{"internalType":"uint256","name":"totalBattles","type":"uint256"},{"internalType":"uint256","name":"currentStreak","type":"uint256"},{"internalType":"uint256","name":"bestStreak","type":"uint256"}],"internalType":"struct GemBotsNFAv5.BattleStats","name":"","type":"tuple"}],"stateMutability":"view","type":"function"},{"inputs":[{"internalType":"uint256","name":"nfaId","type":"uint256"}],"name":"getListing","outputs":[{"components":[{"internalType":"uint256","name":"price","type":"uint256"},{"internalType":"address","name":"seller","type":"address"},{"internalType":"bool","name":"active","type":"bool"}],"internalType":"struct GemBotsNFAv5.Listing","name":"","type":"tuple"}],"stateMutability":"view","type":"function"},{"inputs":[{"internalType":"uint256","name":"nfaId","type":"uint256"}],"name":"getNFA","outputs":[{"internalType":"uint256","name":"agentId","type":"uint256"},{"internalType":"bytes32","name":"configHash","type":"bytes32"},{"internalType":"string","name":"configURI","type":"string"},{"internalType":"address","name":"originalCreator","type":"address"},{"internalType":"enum GemBotsNFAv5.Tier","name":"tier","type":"uint8"},{"internalType":"uint256","name":"wins","type":"uint256"},{"internalType":"uint256","name":"losses","type":"uint256"},{"internalType":"uint256","name":"totalBattles","type":"uint256"},{"internalType":"uint256","name":"currentStreak","type":"uint256"},{"internalType":"uint256","name":"bestStreak","type":"uint256"},{"internalType":"string","name":"modelId","type":"string"},{"internalType":"bytes32","name":"strategyHash","type":"bytes32"},{"internalType":"string","name":"strategyURI","type":"string"}],"stateMutability":"view","type":"function"},{"inputs":[{"internalType":"bytes32","name":"strategyHash","type":"bytes32"}],"name":"getNFAsByStrategy","outputs":[{"internalType":"uint256[]","name":"","type":"uint256[]"}],"stateMutability":"view","type":"function"},{"inputs":[{"internalType":"uint256","name":"nfaId","type":"uint256"}],"name":"getStrategy","outputs":[{"internalType":"string","name":"modelId","type":"string"},{"internalType":"bytes32","name":"strategyHash","type":"bytes32"},{"internalType":"string","name":"strategyURI","type":"string"}],"stateMutability":"view","type":"function"},{"inputs":[{"internalType":"address","name":"owner","type":"address"},{"internalType":"address","name":"operator","type":"address"}],"name":"isApprovedForAll","outputs":[{"internalType":"bool","name":"","type":"bool"}],"stateMutability":"view","type":"function"},{"inputs":[{"internalType":"uint256","name":"nfaId","type":"uint256"},{"internalType":"uint256","name":"price","type":"uint256"}],"name":"listForSale","outputs":[],"stateMutability":"nonpayable","type":"function"},{"inputs":[{"internalType":"uint256","name":"","type":"uint256"}],"name":"listings","outputs":[{"internalType":"uint256","name":"price","type":"uint256"},{"internalType":"address","name":"seller","type":"address"},{"internalType":"bool","name":"active","type":"bool"}],"stateMutability":"view","type":"function"},{"inputs":[{"internalType":"uint256","name":"agentId","type":"uint256"},{"internalType":"bytes32","name":"configHash","type":"bytes32"},{"internalType":"string","name":"configURI","type":"string"},{"internalType":"string","name":"modelId","type":"string"},{"internalType":"bytes32","name":"strategyHash","type":"bytes32"},{"internalType":"string","name":"strategyURI","type":"string"},{"internalType":"enum GemBotsNFAv5.Tier","name":"requestedTier","type":"uint8"}],"name":"mint","outputs":[{"internalType":"uint256","name":"tokenId","type":"uint256"}],"stateMutability":"payable","type":"function"},{"inputs":[{"internalType":"address","name":"","type":"address"}],"name":"minters","outputs":[{"internalType":"bool","name":"","type":"bool"}],"stateMutability":"view","type":"function"},{"inputs":[],"name":"name","outputs":[{"internalType":"string","name":"","type":"string"}],"stateMutability":"view","type":"function"},{"inputs":[{"internalType":"uint256","name":"","type":"uint256"}],"name":"nfas","outputs":[{"internalType":"uint256","name":"agentId","type":"uint256"},{"internalType":"bytes32","name":"configHash","type":"bytes32"},{"internalType":"string","name":"configURI","type":"string"},{"internalType":"address","name":"originalCreator","type":"address"},{"internalType":"enum GemBotsNFAv5.Tier","name":"tier","type":"uint8"},{"components":[{"internalType":"uint256","name":"wins","type":"uint256"},{"internalType":"uint256","name":"losses","type":"uint256"},{"internalType":"uint256","name":"totalBattles","type":"uint256"},{"internalType":"uint256","name":"currentStreak","type":"uint256"},{"internalType":"uint256","name":"bestStreak","type":"uint256"}],"internalType":"struct GemBotsNFAv5.BattleStats","name":"stats","type":"tuple"},{"internalType":"string","name":"modelId","type":"string"},{"internalType":"bytes32","name":"strategyHash","type":"bytes32"},{"internalType":"string","name":"strategyURI","type":"string"}],"stateMutability":"view","type":"function"},{"inputs":[],"name":"openMinting","outputs":[{"internalType":"bool","name":"","type":"bool"}],"stateMutability":"view","type":"function"},{"inputs":[],"name":"owner","outputs":[{"internalType":"address","name":"","type":"address"}],"stateMutability":"view","type":"function"},{"inputs":[{"internalType":"uint256","name":"tokenId","type":"uint256"}],"name":"ownerOf","outputs":[{"internalType":"address","name":"","type":"address"}],"stateMutability":"view","type":"function"},{"inputs":[],"name":"pause","outputs":[],"stateMutability":"nonpayable","type":"function"},{"inputs":[],"name":"paused","outputs":[{"internalType":"bool","name":"","type":"bool"}],"stateMutability":"view","type":"function"},{"inputs":[],"name":"platformFeeBps","outputs":[{"internalType":"uint256","name":"","type":"uint256"}],"stateMutability":"view","type":"function"},{"inputs":[{"internalType":"uint256","name":"nfaId","type":"uint256"},{"internalType":"uint256","name":"opponentNfaId","type":"uint256"},{"internalType":"bool","name":"won","type":"bool"},{"internalType":"string","name":"battleId","type":"string"}],"name":"recordBattle","outputs":[],"stateMutability":"nonpayable","type":"function"},{"inputs":[],"name":"renounceOwnership","outputs":[],"stateMutability":"nonpayable","type":"function"},{"inputs":[{"internalType":"address","name":"from","type":"address"},{"internalType":"address","name":"to","type":"address"},{"internalType":"uint256","name":"tokenId","type":"uint256"}],"name":"safeTransferFrom","outputs":[],"stateMutability":"nonpayable","type":"function"},{"inputs":[{"internalType":"address","name":"from","type":"address"},{"internalType":"address","name":"to","type":"address"},{"internalType":"uint256","name":"tokenId","type":"uint256"},{"internalType":"bytes","name":"data","type":"bytes"}],"name":"safeTransferFrom","outputs":[],"stateMutability":"nonpayable","type":"function"},{"inputs":[{"internalType":"address","name":"operator","type":"address"},{"internalType":"bool","name":"approved","type":"bool"}],"name":"setApprovalForAll","outputs":[],"stateMutability":"nonpayable","type":"function"},{"inputs":[{"internalType":"address","name":"_battleResolver","type":"address"}],"name":"setBattleResolver","outputs":[],"stateMutability":"nonpayable","type":"function"},{"inputs":[{"internalType":"string","name":"_uri","type":"string"}],"name":"setContractURI","outputs":[],"stateMutability":"nonpayable","type":"function"},{"inputs":[{"internalType":"uint256","name":"_royaltyBps","type":"uint256"}],"name":"setCreatorRoyaltyBps","outputs":[],"stateMutability":"nonpayable","type":"function"},{"inputs":[{"internalType":"address","name":"_minter","type":"address"},{"internalType":"bool","name":"_authorized","type":"bool"}],"name":"setMinter","outputs":[],"stateMutability":"nonpayable","type":"function"},{"inputs":[{"internalType":"bool","name":"_open","type":"bool"}],"name":"setOpenMinting","outputs":[],"stateMutability":"nonpayable","type":"function"},{"inputs":[{"internalType":"uint256","name":"_feeBps","type":"uint256"}],"name":"setPlatformFeeBps","outputs":[],"stateMutability":"nonpayable","type":"function"},{"inputs":[{"internalType":"enum GemBotsNFAv5.Tier","name":"_tier","type":"uint8"},{"internalType":"string","name":"_baseURI","type":"string"}],"name":"setTierBaseURI","outputs":[],"stateMutability":"nonpayable","type":"function"},{"inputs":[{"internalType":"enum GemBotsNFAv5.Tier","name":"_tier","type":"uint8"},{"internalType":"uint256","name":"_fee","type":"uint256"}],"name":"setTierMintFee","outputs":[],"stateMutability":"nonpayable","type":"function"},{"inputs":[{"internalType":"uint256","name":"_index","type":"uint256"},{"internalType":"uint256","name":"_threshold","type":"uint256"}],"name":"setTierThreshold","outputs":[],"stateMutability":"nonpayable","type":"function"},{"inputs":[{"internalType":"address","name":"_treasury","type":"address"}],"name":"setTreasury","outputs":[],"stateMutability":"nonpayable","type":"function"},{"inputs":[{"internalType":"bytes32","name":"","type":"bytes32"},{"internalType":"uint256","name":"","type":"uint256"}],"name":"strategyNFAs","outputs":[{"internalType":"uint256","name":"","type":"uint256"}],"stateMutability":"view","type":"function"},{"inputs":[{"internalType":"bytes4","name":"interfaceId","type":"bytes4"}],"name":"supportsInterface","outputs":[{"internalType":"bool","name":"","type":"bool"}],"stateMutability":"view","type":"function"},{"inputs":[],"name":"symbol","outputs":[{"internalType":"string","name":"","type":"string"}],"stateMutability":"view","type":"function"},{"inputs":[{"internalType":"enum GemBotsNFAv5.Tier","name":"","type":"uint8"}],"name":"tierBaseURIs","outputs":[{"internalType":"string","name":"","type":"string"}],"stateMutability":"view","type":"function"},{"inputs":[{"internalType":"enum GemBotsNFAv5.Tier","name":"","type":"uint8"}],"name":"tierMintFees","outputs":[{"internalType":"uint256","name":"","type":"uint256"}],"stateMutability":"view","type":"function"},{"inputs":[{"internalType":"uint256","name":"","type":"uint256"}],"name":"tierThresholds","outputs":[{"internalType":"uint256","name":"","type":"uint256"}],"stateMutability":"view","type":"function"},{"inputs":[{"internalType":"uint256","name":"tokenId","type":"uint256"}],"name":"tokenURI","outputs":[{"internalType":"string","name":"","type":"string"}],"stateMutability":"view","type":"function"},{"inputs":[],"name":"totalSupply","outputs":[{"internalType":"uint256","name":"","type":"uint256"}],"stateMutability":"view","type":"function"},{"inputs":[{"internalType":"address","name":"from","type":"address"},{"internalType":"address","name":"to","type":"address"},{"internalType":"uint256","name":"tokenId","type":"uint256"}],"name":"transferFrom","outputs":[],"stateMutability":"nonpayable","type":"function"},{"inputs":[{"internalType":"address","name":"newOwner","type":"address"}],"name":"transferOwnership","outputs":[],"stateMutability":"nonpayable","type":"function"},{"inputs":[],"name":"treasury","outputs":[{"internalType":"address","name":"","type":"address"}],"stateMutability":"view","type":"function"},{"inputs":[],"name":"unpause","outputs":[],"stateMutability":"nonpayable","type":"function"},{"inputs":[{"internalType":"uint256","name":"nfaId","type":"uint256"},{"internalType":"string","name":"fullConfig","type":"string"}],"name":"verifyPrompt","outputs":[{"internalType":"bool","name":"","type":"bool"}],"stateMutability":"view","type":"function"},{"inputs":[{"internalType":"uint256","name":"nfaId","type":"uint256"},{"internalType":"string","name":"fullStrategyJSON","type":"string"}],"name":"verifyStrategy","outputs":[{"internalType":"bool","name":"","type":"bool"}],"stateMutability":"view","type":"function"}],"evm":{"bytecode":{"linkReferences":{},"object":"608034620004a057620037a790601f1990601f906001600160401b03388590038381018516830190828211848310176200048a5780849160409889948552833981010312620004a0576200005382620004c5565b92620000636020809401620004c5565b6200006d620004a5565b94600b86526a47656d426f7473204e464160a81b858701526200008f620004a5565b966005938489526447424e464160d81b878a0152875198868a116200048a576000998a549960019a8b81811c911680156200047f575b8b8210146200046b57908c8b83878087961162000430575b505050508a908d868411600114620003c55792620003b9575b5050600019600383901b1c1916908a1b178a555b805192878411620003a55789548a81811c911680156200039a575b8a8210146200038657908b8a83868e818a999897116200034b575b505050505089928411600114620002ea57508a92620002de575b5050600019600383901b1c191690871b1786555b3315620002c657600780546001600160a01b031980821633908117909355956001600160a01b039592909186167f8be0079c531659141344cd1fd0a4f28419497f9722a3daafe3b4186f6b6457e08b80a3876008556101f460105560fa60115589519060a082019082821090821117620002b2578a52888152600a8782015260328a8201526064606082015260fa608082015284929190888a5b83811062000298575050505016801580156200028d575b6200027c5792600c9267016345785d8a000097959289979583600e541617600e551690600f541617600f5583805252662386f26fc10000838320558152666a94d74f43000082822055600281522055516132b39081620004f48239f35b875163d92e233d60e01b8152600490fd5b50828216156200021f565b825160ff166018820155879550918901918a910162000208565b634e487b7160e01b8a52604160045260248afd5b8751631e4fbdf760e01b815260048101889052602490fd5b0151905038806200015a565b8a8c52898c208b9590939291168c5b8b8282106200033457505084116200031a575b505050811b0186556200016e565b015160001960f88460031b161c191690553880806200030c565b8385015186558d97909501949384019301620002f9565b84849162000371965220918189018d1c83019389106200037c575b018b1c0190620004da565b8b8a38858e62000140565b9250819262000366565b634e487b7160e01b8c52602260045260248cfd5b90607f169062000125565b634e487b7160e01b8b52604160045260248bfd5b015190503880620000f6565b9190878e95168380528d80852094905b8282106200040f5750508411620003f5575b505050811b018a556200010a565b015160001960f88460031b161c19169055388080620003e7565b91929395968291958786015181550195019301908e95949392918e620003d5565b82848062000457965220918d828801901c830193871062000461575b018c1c0190620004da565b8c8b3887620000dd565b925081926200044c565b634e487b7160e01b8d52602260045260248dfd5b90607f1690620000c5565b634e487b7160e01b600052604160045260246000fd5b600080fd5b60408051919082016001600160401b038111838210176200048a57604052565b51906001600160a01b0382168203620004a057565b818110620004e6575050565b60008155600101620004da56fe608080604052600436101561001357600080fd5b60003560e01c90816301ffc9a7146125905750806303a9ebf41461252e57806306c8c5251461250257806306fdde031461245f578063081812fc14612421578063095ea7b31461233a5780630ccba3e9146123015780630f96fd79146122a6578063107a274a1461221c57806318160ddd146121fe57806318841ccd146121cd57806322dcd13e146121af57806323b872dd146121985780632f6f343a14612102578063305a67a81461206957806338446e5f14611f605780633f4ba83a14611ef657806342842e0e14611ec85780634346339414611eac57806348d34dc314611e5257806357302cd414611e295780635c975abb14611e0657806361d027b314611ddd5780636352211e14611dad57806364cb04ac14611c625780636706467b14611b335780636963aca814611a2d5780636ba9fd3814611a0a57806370a08231146119b1578063715018a61461195457806380866d831461190d5780638456cb59146118b35780638a45664e146118595780638da5cb5b14611830578063938e3d7b146116c057806395d89b411461161d578063a100d69d146115f1578063a22cb46514611546578063b88d4fde146114db578063c580c9421461147d578063c87b56dd14611424578063ca21866a14611317578063cf456ae7146112c2578063cfc0cc341461124d578063d0d7d9c514611205578063de74e57b146111b8578063e6b02ed61461108e578063e80d7fec14610f82578063e8a3d48514610e9c578063e96c661714610e7e578063e985e9c514610e28578063f0f4426014610dce578063f119f56714610c91578063f14d1a82146106e3578063f22f96af1461063d578063f2fde38b146105b4578063f46eccc414610575578063f5befa9b14610541578063fa3ec78d146102d65763fffad312146102b357600080fd5b346102d15760003660031901126102d1576020600b54604051908152f35b600080fd5b60203660031901126102d15760043560026008541461052f5760026008556102fc613116565b806000526015602052604060002060018101805460ff8160a01c161561051d5782549182341061050b5760018060a01b0391600083821695556001600160581b0360a81b1690556127108061035360105485613187565b049061036160115485613187565b049085600052601460205282600360406000200154169085821490816000146104f25761038e818761319a565b945b33156104d9576103a08933612b7c565b808216806103c157604051637e27328960e01b8152600481018c9052602490fd5b89036104a7575060008080938193600e54165af16103dd612c73565b501561046e57158061049e575b610480575b5050600080808093865af1610402612c73565b501561046e5780341161044e575b7f23f50d55776d8003622a982ade45a6c7f083116c8dbbcd980f59942f440badb1916060916040519182523360208301526040820152a26001600855005b600080808061045d853461319a565b335af1610468612c73565b50610410575b6040516312171d8360e31b8152600490fd5b600080809381935af1610491612c73565b501561046e5784806103ef565b508115156103ea565b6040516364283d7b60e01b81526001600160a01b038a81166004830152602482018c9052919091166044820152606490fd5b604051633250574960e11b815260006004820152602490fd5b61050584610500838961319a565b61319a565b94610390565b60405163cd1c886760e01b8152600490fd5b604051630f971cbd60e41b8152600490fd5b604051633ee5aeb560e01b8152600490fd5b346102d15760403660031901126102d15760043560058110156102d1576105666129c0565b6105726024359161262e565b55005b346102d15760203660031901126102d1576001600160a01b036105966127e1565b166000526013602052602060ff604060002054166040519015158152f35b346102d15760203660031901126102d1576105cd6127e1565b6105d56129c0565b6001600160a01b0390811690811561062457600754826001600160601b0360a01b821617600755167f8be0079c531659141344cd1fd0a4f28419497f9722a3daafe3b4186f6b6457e0600080a3005b604051631e4fbdf760e01b815260006004820152602490fd5b346102d1576020806003193601126102d15760043560005260168152604060002060405190818382549182815201908192600052846000209060005b868282106106cf57868661068f828803836126d2565b604051928392818401908285525180915260408401929160005b8281106106b857505050500390f35b8351855286955093810193928101926001016106a9565b835485529093019260019283019201610679565b60e03660031901126102d1576044356001600160401b0381116102d15761070e9036906004016128b0565b6064356001600160401b0381116102d15761072d9036906004016128b0565b9260a4356001600160401b0381116102d15761074d9036906004016128b0565b939060c4359460058610156102d15760ff601254161580610c78575b80610c63575b610c515761077b613116565b6007546001600160a01b03163303610b76575b600a549561079b87612dc6565b600a556107a88733612e6e565b866000526014602052604060002090600435825560243560018301556001600160401b0385116109f95760028201906107eb866107e58454612647565b84612dd5565b60009186601f8111600114610b095761083393600091610afe575b508760011b906000198960031b1c19161790555b6003830180546001600160a01b03191633178155612e29565b6001600160401b0388116109f95761085b886108526009840154612647565b60098401612dd5565b876000601f8211600114610a9057600091610a85575b508860011b906000198a60031b1c19161760098201555b608435600a8201556001600160401b0382116109f957600b829101926108b8826108b28654612647565b86612dd5565b600090601f8311600114610a1a57600092610a0f575b50508160011b916000199060031b1c19161790555b6084356000526016602052604060002091825491680100000000000000008310156109f95761091e8361094095600161093a96018155612940565b81549060031b9088821b91600019901b19161790553691612989565b83612fe4565b346109c7575b7fe94ebda66cc86267dbc220471b245eb48bf72f9861949e412199792eb5e8aeb0829160209460405160243581523390857f185852973b7140be2b3183c0cbf9f05be2bdf3d4cd9379625deb18590b65f5388960043593a46109b5604051928392604084526040840191612e4d565b608435878301520390a2604051908152f35b60008080803460018060a01b03600e54165af16109e2612c73565b50610946576040516312171d8360e31b8152600490fd5b634e487b7160e01b600052604160045260246000fd5b0135905088806108ce565b909150601f198316918460005260206000209260005b818110610a6d5750908460019594939210610a53575b505050811b0190556108e3565b0135600019600384901b60f8161c19169055888080610a46565b91936020600181928787013581550195019201610a30565b905086013589610871565b90506009820160005260206000209060005b601f198b168110610ae6575089601f19811610610acc575b5050600188811b016009820155610888565b87013560001960038b901b60f8161c191690558880610aba565b9091602060018192858c013581550193019101610aa2565b90508801358c610806565b50600081815260208120909388601f1981165b8b818810610b595750610833965010610b3f575b5050600187811b01905561081a565b89013560001960038a901b60f8161c191690558b80610b30565b8301358455602096870196600190940193909201918a9150610b1c565b610b7f8661262e565b543410610c1457851560008115610c07575b8115610be1575b5061078e57606460405162461bcd60e51b815260206004820152602060248201527f43616e206f6e6c79206d696e742042726f6e7a652f53696c7665722f476f6c646044820152fd5b9050610bf1576002861488610b98565b634e487b7160e01b600052602160045260246000fd5b5050600186146000610b91565b60405162461bcd60e51b8152602060048201526015602482015274496e73756666696369656e74206d696e742066656560581b6044820152606490fd5b604051633e34a41b60e21b8152600490fd5b506007546001600160a01b031633141561076f565b5033600052601360205260ff6040600020541615610769565b346102d1576020806003193601126102d15760043590610caf613116565b610cb882612c38565b508160005260148152604060002090600382019160ff835460a01c16906005821015610bf15760048214610dbc576004610cf3910154613144565b906005821015610bf157811115610daa57610d2f817fa10b529cca5bc10c80df76c1e97548758a642268270584ae612a37eb0a390c5f94612e29565b610d40610d3b82612615565b6126f3565b8051610d54575b5060ff60405191168152a2005b610da490610d9e84610d65886131a7565b926040519381610d7e8693518092868087019101612799565b8201610d9282518093868085019101612799565b010380845201826126d2565b85612fe4565b84610d47565b6040516361c0b9e960e11b8152600490fd5b604051632726a67f60e11b8152600490fd5b346102d15760203660031901126102d157610de76127e1565b610def6129c0565b6001600160a01b03168015610e16576001600160601b0360a01b600e541617600e55600080f35b60405163d92e233d60e01b8152600490fd5b346102d15760403660031901126102d157610e416127e1565b610e496127f7565b9060018060a01b03809116600052600560205260406000209116600052602052602060ff604060002054166040519015158152f35b346102d15760003660031901126102d1576020601154604051908152f35b346102d15760003660031901126102d1576040516000600d54610ebe81612647565b80845290600190818116908115610f5b5750600114610f00575b610efc84610ee8818603826126d2565b6040519182916020835260208301906127bc565b0390f35b600d600090815292507fd7b6990105719101dabeb77144f2a3385c8033acd3af97e9423a695e81ad1eb55b828410610f43575050508101602001610ee882610ed8565b80546020858701810191909152909301928101610f2b565b60ff191660208087019190915292151560051b85019092019250610ee89150839050610ed8565b346102d157610f903661281c565b610f9982612c38565b6001600160a01b0390339082160361107c57610fb3613116565b811561106b5782600052601560205260ff60016040600020015460a01c16611059577f1ea45e30b31292f9d7c5d37d275b2feca555f13f47dce0fdea2f47e8852ecd789160209160405161100681612681565b828152838101913383526001604083019281845288600052601587526040600020905181550192511682549160ff60a01b9051151560a01b16916001600160581b0360a81b1617179055604051908152a2005b60405163e391255160e01b8152600490fd5b60405162bfc92160e01b8152600490fd5b604051637a50e05760e01b8152600490fd5b346102d1576020806003193601126102d157600435906110ac6129c0565b6110b4613116565b600b9081548381018091116111a257606410611166573360ff60a01b19169183919060005b8381106110e257005b61116190600a8054906110f482612dc6565b90556111008133612e6e565b80600052601485526003604060002001876001600160581b0360a81b82541617905561112c8454612dc6565b84556000604051918183527f185852973b7140be2b3183c0cbf9f05be2bdf3d4cd9379625deb18590b65f538873394a4612dc6565b6110d9565b6064906040519062461bcd60e51b825260048201526015602482015274115e18d959591cc819d95b995cda5cc81b1a5b5a5d605a1b6044820152fd5b634e487b7160e01b600052601160045260246000fd5b346102d15760203660031901126102d15760043560005260156020526060604060002060ff6001825492015460405192835260018060a01b038116602084015260a01c1615156040820152f35b346102d15760203660031901126102d15761121e6127e1565b6112266129c0565b6001600160a01b03168015610e16576001600160601b0360a01b600f541617600f55600080f35b346102d15760203660031901126102d15760043561126a81612c38565b5060005260146020526112af6040600020610efc600a82015461129b600b611294600986016126f3565b94016126f3565b6040519485946060865260608601906127bc565b91602085015283820360408501526127bc565b346102d15760403660031901126102d1576113156112de6127e1565b6112e661280d565b906112ef6129c0565b60018060a01b0316600052601360205260406000209060ff801983541691151516179055565b005b346102d15760203660031901126102d15760043561133481612c38565b50600052601460205260406000208054600182015491600381015460048201549160058101549160068201546007830154600884015491600a850154956002860161137e906126f3565b9761138b600988016126f3565b96600b01611398906126f3565b986040519b8c9b8c5260208c01526101a08060408d01528b016113ba916127bc565b6001600160a01b03871660608c0152956113de9060808c019060a01c60ff166128a3565b60a08a015260c089015260e088015261010087015261012086015284810361014086015261140b916127bc565b90610160840152828103610180840152610efc916127bc565b346102d15760203660031901126102d15760043561144181612c38565b506000526006602052610efc61145a60406000206126f3565b6000604051611468816126b7565b526040519182916020835260208301906127bc565b346102d15760203660031901126102d1576004356114996129c0565b6103e881116114a757601055005b60405162461bcd60e51b815260206004820152600c60248201526b08ccaca40e8dede40d0d2ced60a31b6044820152606490fd5b346102d15760803660031901126102d1576114f46127e1565b6114fc6127f7565b90604435606435926001600160401b0384116102d157366023850112156102d157611534611315943690602481600401359101612989565b926115408383836129ec565b33612ca3565b346102d15760403660031901126102d15761155f6127e1565b61156761280d565b6001600160a01b039091169081156115d8573360005260056020526040600020826000526020526115a88160406000209060ff801983541691151516179055565b60405190151581527f17307eab39ab6107e8899845ad3d59bd9653f200f220920489ca2b5937696c3160203392a3005b604051630b61174360e31b815260048101839052602490fd5b346102d15760203660031901126102d15760043560058110156102d15760209060180154604051908152f35b346102d15760003660031901126102d1576040516000600180549061164182612647565b80855291818116908115610f5b575060011461166757610efc84610ee8818603826126d2565b600081815292507fb10e2d527612073b26eecdfd717e6a320cf44b4afac2b0732d9fcbe2b7fa0cf65b8284106116a8575050508101602001610ee882610ed8565b80546020858701810191909152909301928101611690565b346102d1576020806003193601126102d1576001600160401b036004358181116102d1576116f29036906004016128b0565b916116fb6129c0565b82116109f95761170c600d54612647565b601f81116117d1575b50600092601f83116001146117545750918192600092611749575b5050600019600383901b1c191660019190911b17600d55005b013590508280611730565b601f198316937fd7b6990105719101dabeb77144f2a3385c8033acd3af97e9423a695e81ad1eb592916000905b8682106117b9575050836001951061179f575b505050811b01600d55005b0135600019600384901b60f8161c19169055828080611794565b80600184968294958701358155019501920190611781565b7fd7b6990105719101dabeb77144f2a3385c8033acd3af97e9423a695e81ad1eb5601f840160051c810191858510611826575b601f0160051c01905b81811061181a5750611715565b6000815560010161180d565b9091508190611804565b346102d15760003660031901126102d1576007546040516001600160a01b039091168152602090f35b346102d1576020611869366128dd565b61187283612c38565b506118968460405183819483830196873781016000838201520380845201826126d2565b519020906000526014825260016040600020015414604051908152f35b346102d15760003660031901126102d1576118cc6129c0565b6118d4613116565b600160ff1960095416176009557f62e78cea01bee320cd4e420270b5ea74000d11b0c9f74754ebdbfc544b05a2586020604051338152a1005b346102d15760403660031901126102d1576024356004356000526016602052604060002080548210156102d15760209161194691612940565b90546040519160031b1c8152f35b346102d15760003660031901126102d15761196d6129c0565b600780546001600160a01b031981169091556000906001600160a01b03167f8be0079c531659141344cd1fd0a4f28419497f9722a3daafe3b4186f6b6457e08280a3005b346102d15760203660031901126102d1576001600160a01b036119d26127e1565b1680156119f15760005260036020526020604060002054604051908152f35b6040516322718ad960e21b815260006004820152602490fd5b346102d15760003660031901126102d157602060ff601254166040519015158152f35b346102d15760403660031901126102d15760043560058110156102d1576001600160401b036024358181116102d157611a6d611a7d9136906004016128b0565b919093611a786129c0565b612615565b9181116109f957611a92816107e58454612647565b6000601f8211600114611acd57819293600092611ac2575b5050600019600383901b1c191660019190911b179055005b013590508380611aaa565b601f198216938360005260209182600020926000905b878210611b1b575050836001959610611b01575b505050811b019055005b0135600019600384901b60f8161c19169055838080611af7565b80600184968294958701358155019501920190611ae3565b346102d15760403660031901126102d1576001600160401b036004358181116102d157611b64903690600401612910565b60249081358481116102d157611b7e903690600401612910565b929091611b896129c0565b838103611c2c5760005b818110611b9c57005b611bb0611baa828489613134565b35612c38565b50611bbc818388613134565b359085811015611c17578060051b850135601e19863603018112156102d1578501918235928984116102d1576020019083360382136102d157611c07611c0d92611c12953691612989565b90612fe4565b612dc6565b611b93565b83634e487b7160e01b60005260326004526000fd5b60405162461bcd60e51b815260206004820152600f818401526e098cadccee8d040dad2e6dac2e8c6d608b1b6044820152606490fd5b346102d15760803660031901126102d1576004356044358015156024358183036102d1576064356001600160401b0381116102d157611ca59036906004016128b0565b600f54909491906001600160a01b03163303611d9b577fee6088724bcecc2617103f0482e6237c070827162ab05c426ea5b173785dec9894611d7192611ce9613116565b611cf288612c38565b50611cfc85612c38565b50876000526014602052604060002090600482019060068301611d1f8154612dc6565b905515611d7e57611d308154612dc6565b905560086007820191611d438354612dc6565b8093550180548211611d76575b50505b60405194859485526020850152606060408501526060840191612e4d565b0390a2005b558780611d50565b50600781600560009301611d928154612dc6565b90550155611d53565b604051631d9d6ea960e31b8152600490fd5b346102d15760203660031901126102d1576020611dcb600435612c38565b6040516001600160a01b039091168152f35b346102d15760003660031901126102d157600e546040516001600160a01b039091168152602090f35b346102d15760003660031901126102d157602060ff600954166040519015158152f35b346102d15760003660031901126102d157600f546040516001600160a01b039091168152602090f35b346102d1576020611e62366128dd565b611e6b83612c38565b50611e8f8460405183819483830196873781016000838201520380845201826126d2565b5190209060005260148252600a6040600020015414604051908152f35b346102d15760003660031901126102d157602060405160648152f35b346102d157611315611ed936612832565b9060405192611ee7846126b7565b600084526115408383836129ec565b346102d15760003660031901126102d157611f0f6129c0565b60095460ff811615611f4e5760ff19166009557f5db9ee0a495bf2e6ff9c91a7834c1ba4fdd244a5e8aa4e537bd38aeae4b073aa6020604051338152a1005b604051638dfc202b60e01b8152600490fd5b346102d15760203660031901126102d157600435600052601460205260406000208054610efc600183015492611f98600282016126f3565b6120546003830154611fac60048501612867565b612046611fbb600987016126f3565b91612014611ff4611fd3600b600a8b01549a016126f3565b976040519c8d9c8d5260208d015260408c6101a091829101528c01906127bc565b6001600160a01b03861660608c01529460808b019060a01c60ff166128a3565b805160a08a0152602081015160c08a0152604081015160e08a015260608101516101008a015260800151610120890152565b8682036101408801526127bc565b916101608501528382036101808501526127bc565b346102d15760203660031901126102d15760043561208681612c38565b336001600160a01b039091160361107c5780600052601560205260ff60016040600020015460a01c161561051d57806000526015602052604060002060018101906000825491556001600160581b0360a81b1690557f411aee90354c51b1b04cd563fcab2617142a9d50da19232d888547c8a1b7fd8a600080a2005b346102d15760203660031901126102d157600435600060806040516121268161269c565b828152826020820152826040820152826060820152015261214681612c38565b50600052601460205260a06121616004604060002001612867565b612196604051809260808091805184526020810151602085015260408101516040850152606081015160608501520151910152565bf35b346102d1576113156121a936612832565b916129ec565b346102d15760003660031901126102d1576020601054604051908152f35b346102d15760203660031901126102d15760043560058110156102d1576121f560209161262e565b54604051908152f35b346102d15760003660031901126102d1576020600a54604051908152f35b346102d15760203660031901126102d15760006040805161223c81612681565b828152826020820152015260043560005260156020526060604060002060405161226581612681565b60018254928383520154906020810160ff604060018060a01b03938486168452019360a01c1615158352604051938452511660208301525115156040820152f35b346102d1576122b43661281c565b906122bd6129c0565b60058110156122cc5760180155005b60405162461bcd60e51b815260206004820152600d60248201526c092dcecc2d8d2c840d2dcc8caf609b1b6044820152606490fd5b346102d15760203660031901126102d1576004358015158091036102d1576123276129c0565b60ff801960125416911617601255600080f35b346102d15760403660031901126102d1576123536127e1565b60243561235f81612c38565b3315158061240e575b806123e1575b6123c9576001600160a01b039283169282918491167f8c5be1e5ebec7d5bd14f71427d1e84f3dd0314c0f7b2291e5b200ac8c7c3b925600080a4600090815260046020526040902080546001600160a01b0319169091179055005b60405163a9fbf51f60e01b8152336004820152602490fd5b5060018060a01b038116600052600560205260406000203360005260205260ff604060002054161561236e565b506001600160a01b038116331415612368565b346102d15760203660031901126102d15760043561243e81612c38565b506000526004602052602060018060a01b0360406000205416604051908152f35b346102d15760003660031901126102d1576040516000805461248081612647565b80845290600190818116908115610f5b57506001146124a957610efc84610ee8818603826126d2565b600080805292507f290decd9548b62a8d60345a988386fc84ba6bc95484008f6362f93160ef3e5635b8284106124ea575050508101602001610ee882610ed8565b805460208587018101919091529093019281016124d2565b346102d15760203660031901126102d15760043560058110156102d157610ee8610d3b610efc92612615565b346102d15760203660031901126102d15760043561254a6129c0565b6103e8811161255857601155005b60405162461bcd60e51b815260206004820152601060248201526f0a4def2c2d8e8f240e8dede40d0d2ced60831b6044820152606490fd5b346102d15760203660031901126102d1576004359063ffffffff60e01b82168092036102d157602091632483248360e11b81149081156125d2575b5015158152f35b6380ac58cd60e01b811491508115612604575b81156125f3575b50836125cb565b6301ffc9a760e01b149050836125ec565b635b5e139f60e01b811491506125e5565b6005811015610bf1576000526017602052604060002090565b6005811015610bf157600052600c602052604060002090565b90600182811c92168015612677575b602083101461266157565b634e487b7160e01b600052602260045260246000fd5b91607f1691612656565b606081019081106001600160401b038211176109f957604052565b60a081019081106001600160401b038211176109f957604052565b602081019081106001600160401b038211176109f957604052565b90601f801991011681019081106001600160401b038211176109f957604052565b906040519182600082549261270784612647565b9081845260019485811690816000146127765750600114612733575b5050612731925003836126d2565b565b9093915060005260209081600020936000915b81831061275e57505061273193508201013880612723565b85548884018501529485019487945091830191612746565b91505061273194506020925060ff191682840152151560051b8201013880612723565b60005b8381106127ac5750506000910152565b818101518382015260200161279c565b906020916127d581518092818552858086019101612799565b601f01601f1916010190565b600435906001600160a01b03821682036102d157565b602435906001600160a01b03821682036102d157565b6024359081151582036102d157565b60409060031901126102d1576004359060243590565b60609060031901126102d1576001600160a01b039060043582811681036102d1579160243590811681036102d1579060443590565b906040516128748161269c565b608060048294805484526001810154602085015260028101546040850152600381015460608501520154910152565b906005821015610bf15752565b9181601f840112156102d1578235916001600160401b0383116102d157602083818601950101116102d157565b9060406003198301126102d15760043591602435906001600160401b0382116102d15761290c916004016128b0565b9091565b9181601f840112156102d1578235916001600160401b0383116102d1576020808501948460051b0101116102d157565b80548210156129585760005260206000200190600090565b634e487b7160e01b600052603260045260246000fd5b6001600160401b0381116109f957601f01601f191660200190565b9291926129958261296e565b916129a360405193846126d2565b8294818452818301116102d1578281602093846000960137010152565b6007546001600160a01b031633036129d457565b60405163118cdaa760e01b8152336004820152602490fd5b906001600160a01b0390811680156104d957600091848352846020926002845260409383858720541695869133151580612ae6575b509060027fddf252ad1be2c89b69c2b068fc378daa952ba7f163c4a11628f55a4df523b3ef9284612ab3575b85835260038152888320805460010190558683525286812080546001600160a01b0319168517905580a483168203612a855750505050565b516364283d7b60e01b81526001600160a01b0392831660048201526024810193909352166044820152606490fd5b600087815260046020526040902080546001600160a01b0319169055848352600381528883208054600019019055612a4d565b91939450915080612b3b575b15612b0257879291869138612a21565b848887612b1f576024915190637e27328960e01b82526004820152fd5b604491519063177e802f60e01b82523360048301526024820152fd5b503386148015612b60575b80612af25750878252600481523384868420541614612af2565b5085825260058152848220338352815260ff8583205416612b46565b6000828152600260205260408120546001600160a01b03908116939284917fddf252ad1be2c89b69c2b068fc378daa952ba7f163c4a11628f55a4df523b3ef9183612c03575b169283612beb575b84815260026020526040812080546001600160a01b0319168517905580a490565b83815260036020526040812060018154019055612bca565b600086815260046020526040902080546001600160a01b03191690558385526003602052604085208054600019019055612bc2565b6000818152600260205260409020546001600160a01b0316908115612c5b575090565b60249060405190637e27328960e01b82526004820152fd5b3d15612c9e573d90612c848261296e565b91612c9260405193846126d2565b82523d6000602084013e565b606090565b9293823b612cb3575b5050505050565b612cf79060018060a01b038094169560405194859481630a85bd0160e11b9889885216600487015216602485015260448401526080606484015260848301906127bc565b03906020816000938185885af190829082612d77575b5050612d455782612d1c612c73565b8051919082612d3e57604051633250574960e11b815260048101839052602490fd5b6020915001fd5b6001600160e01b03191603612d5f57503880808080612cac565b60249060405190633250574960e11b82526004820152fd5b909192506020813d8211612dbe575b81612d93602093836126d2565b81010312612dba5751906001600160e01b031982168203612db75750903880612d0d565b80fd5b5080fd5b3d9150612d86565b60001981146111a25760010190565b90601f8111612de357505050565b600091825260208220906020601f850160051c83019410612e1f575b601f0160051c01915b828110612e1457505050565b818155600101612e08565b9092508290612dff565b906005811015610bf157815460ff60a01b191660a09190911b60ff60a01b16179055565b908060209392818452848401376000828201840152601f01601f1916010190565b6040918251612e7c816126b7565b60008082526001600160a01b0384811694919291908515612fcc57612ea18583612b7c565b16612fb4573b612eb2575050505050565b6020612eef91869795965180938192630a85bd0160e11b9788845233600485015287602485015260448401526080606484015260848301906127bc565b038185895af190829082612f6c575b5050612f3757505050612f0f612c73565b8051929083612f30578151633250574960e11b815260048101849052602490fd5b6020849101fd5b9193916001600160e01b03191603612f555750503880808080612cac565b602492505190633250574960e11b82526004820152fd5b909192506020813d8211612fac575b81612f88602093836126d2565b81010312612dba5751906001600160e01b031982168203612db75750903880612efe565b3d9150612f7b565b85516339e3563760e11b815260048101849052602490fd5b8651633250574960e11b815260048101859052602490fd5b9190916000908082526020916006835260408120908551906001600160401b0382116131025761301e826130188554612647565b85612dd5565b8490601f831160011461307e57907ff8e1a15aba9398e019f0b49df1a4fde98ee17ae345cb5f6b5e2c27f5033e8ce7969783613073575b50508160011b916000199060031b1c19161790555b604051908152a1565b015190503880613055565b9196601f198816848452868420935b8181106130eb57509160019391897ff8e1a15aba9398e019f0b49df1a4fde98ee17ae345cb5f6b5e2c27f5033e8ce7999a94106130d2575b505050811b01905561306a565b015160001960f88460031b161c191690553880806130c5565b92938760018192878601518155019501930161308d565b634e487b7160e01b81526041600452602490fd5b60ff6009541661312257565b60405163d93c066560e01b8152600490fd5b91908110156129585760051b0190565b601c5481101561318157601b5481101561317b57601a5481101561317557601954111561317057600090565b600190565b50600290565b50600390565b50600490565b818102929181159184041417156111a257565b919082039182116111a257565b801561324f5780816000925b61323957506131c18261296e565b916131cf60405193846126d2565b80835281601f196131df8361296e565b013660208601375b6131f057505090565b906000198201908282116111a2578192600a9260309084840682018092116111a257865111156129585760f81b6001600160f81b03191660001a908501601f01530490816131e7565b9091613246600a91612dc6565b929104806131b3565b50604051604081018181106001600160401b038211176109f95760405260018152600360fc1b60208201529056fea26469706673582212200123b6381e94f964b64323587935134172d45cdc371d28062060990a27916c9464736f6c63430008140033","opcodes":"PUSH1 0x80 CALLVALUE PUSH3 0x4A0 JUMPI PUSH3 0x37A7 SWAP1 PUSH1 0x1F NOT SWAP1 PUSH1 0x1F SWAP1 PUSH1 0x1 PUSH1 0x1 PUSH1 0x40 SHL SUB CODESIZE DUP6 SWAP1 SUB DUP4 DUP2 ADD DUP6 AND DUP4 ADD SWAP1 DUP3 DUP3 GT DUP5 DUP4 LT OR PUSH3 0x48A JUMPI DUP1 DUP5 SWAP2 PUSH1 0x40 SWAP9 DUP10 SWAP5 DUP6 MSTORE DUP4 CODECOPY DUP2 ADD SUB SLT PUSH3 0x4A0 JUMPI PUSH3 0x53 DUP3 PUSH3 0x4C5 JUMP JUMPDEST SWAP3 PUSH3 0x63 PUSH1 0x20 DUP1 SWAP5 ADD PUSH3 0x4C5 JUMP JUMPDEST PUSH3 0x6D PUSH3 0x4A5 JUMP JUMPDEST SWAP5 PUSH1 0xB DUP7 MSTORE PUSH11 0x47656D426F7473204E4641 PUSH1 0xA8 SHL DUP6 DUP8 ADD MSTORE PUSH3 0x8F PUSH3 0x4A5 JUMP JUMPDEST SWAP7 PUSH1 0x5 SWAP4 DUP5 DUP10 MSTORE PUSH5 0x47424E4641 PUSH1 0xD8 SHL DUP8 DUP11 ADD MSTORE DUP8 MLOAD SWAP9 DUP7 DUP11 GT PUSH3 0x48A JUMPI PUSH1 0x0 SWAP10 DUP11 SLOAD SWAP10 PUSH1 0x1 SWAP11 DUP12 DUP2 DUP2 SHR SWAP2 AND DUP1 ISZERO PUSH3 0x47F JUMPI JUMPDEST DUP12 DUP3 LT EQ PUSH3 0x46B JUMPI SWAP1 DUP13 DUP12 DUP4 DUP8 DUP1 DUP8 SWAP7 GT PUSH3 0x430 JUMPI JUMPDEST POP POP POP POP DUP11 SWAP1 DUP14 DUP7 DUP5 GT PUSH1 0x1 EQ PUSH3 0x3C5 JUMPI SWAP3 PUSH3 0x3B9 JUMPI JUMPDEST POP POP PUSH1 0x0 NOT PUSH1 0x3 DUP4 SWAP1 SHL SHR NOT AND SWAP1 DUP11 SHL OR DUP11 SSTORE JUMPDEST DUP1 MLOAD SWAP3 DUP8 DUP5 GT PUSH3 0x3A5 JUMPI DUP10 SLOAD DUP11 DUP2 DUP2 SHR SWAP2 AND DUP1 ISZERO PUSH3 0x39A JUMPI JUMPDEST DUP11 DUP3 LT EQ PUSH3 0x386 JUMPI SWAP1 DUP12 DUP11 DUP4 DUP7 DUP15 DUP2 DUP11 SWAP10 SWAP9 SWAP8 GT PUSH3 0x34B JUMPI JUMPDEST POP POP POP POP POP DUP10 SWAP3 DUP5 GT PUSH1 0x1 EQ PUSH3 0x2EA JUMPI POP DUP11 SWAP3 PUSH3 0x2DE JUMPI JUMPDEST POP POP PUSH1 0x0 NOT PUSH1 0x3 DUP4 SWAP1 SHL SHR NOT AND SWAP1 DUP8 SHL OR DUP7 SSTORE JUMPDEST CALLER ISZERO PUSH3 0x2C6 JUMPI PUSH1 0x7 DUP1 SLOAD PUSH1 0x1 PUSH1 0x1 PUSH1 0xA0 SHL SUB NOT DUP1 DUP3 AND CALLER SWAP1 DUP2 OR SWAP1 SWAP4 SSTORE SWAP6 PUSH1 0x1 PUSH1 0x1 PUSH1 0xA0 SHL SUB SWAP6 SWAP3 SWAP1 SWAP2 DUP7 AND PUSH32 0x8BE0079C531659141344CD1FD0A4F28419497F9722A3DAAFE3B4186F6B6457E0 DUP12 DUP1 LOG3 DUP8 PUSH1 0x8 SSTORE PUSH2 0x1F4 PUSH1 0x10 SSTORE PUSH1 0xFA PUSH1 0x11 SSTORE DUP10 MLOAD SWAP1 PUSH1 0xA0 DUP3 ADD SWAP1 DUP3 DUP3 LT SWAP1 DUP3 GT OR PUSH3 0x2B2 JUMPI DUP11 MSTORE DUP9 DUP2 MSTORE PUSH1 0xA DUP8 DUP3 ADD MSTORE PUSH1 0x32 DUP11 DUP3 ADD MSTORE PUSH1 0x64 PUSH1 0x60 DUP3 ADD MSTORE PUSH1 0xFA PUSH1 0x80 DUP3 ADD MSTORE DUP5 SWAP3 SWAP2 SWAP1 DUP9 DUP11 JUMPDEST DUP4 DUP2 LT PUSH3 0x298 JUMPI POP POP POP POP AND DUP1 ISZERO DUP1 ISZERO PUSH3 0x28D JUMPI JUMPDEST PUSH3 0x27C JUMPI SWAP3 PUSH1 0xC SWAP3 PUSH8 0x16345785D8A0000 SWAP8 SWAP6 SWAP3 DUP10 SWAP8 SWAP6 DUP4 PUSH1 0xE SLOAD AND OR PUSH1 0xE SSTORE AND SWAP1 PUSH1 0xF SLOAD AND OR PUSH1 0xF SSTORE DUP4 DUP1 MSTORE MSTORE PUSH7 0x2386F26FC10000 DUP4 DUP4 KECCAK256 SSTORE DUP2 MSTORE PUSH7 0x6A94D74F430000 DUP3 DUP3 KECCAK256 SSTORE PUSH1 0x2 DUP2 MSTORE KECCAK256 SSTORE MLOAD PUSH2 0x32B3 SWAP1 DUP2 PUSH3 0x4F4 DUP3 CODECOPY RETURN JUMPDEST DUP8 MLOAD PUSH4 0xD92E233D PUSH1 0xE0 SHL DUP2 MSTORE PUSH1 0x4 SWAP1 REVERT JUMPDEST POP DUP3 DUP3 AND ISZERO PUSH3 0x21F JUMP JUMPDEST DUP3 MLOAD PUSH1 0xFF AND PUSH1 0x18 DUP3 ADD SSTORE DUP8 SWAP6 POP SWAP2 DUP10 ADD SWAP2 DUP11 SWAP2 ADD PUSH3 0x208 JUMP JUMPDEST PUSH4 0x4E487B71 PUSH1 0xE0 SHL DUP11 MSTORE PUSH1 0x41 PUSH1 0x4 MSTORE PUSH1 0x24 DUP11 REVERT JUMPDEST DUP8 MLOAD PUSH4 0x1E4FBDF7 PUSH1 0xE0 SHL DUP2 MSTORE PUSH1 0x4 DUP2 ADD DUP9 SWAP1 MSTORE PUSH1 0x24 SWAP1 REVERT JUMPDEST ADD MLOAD SWAP1 POP CODESIZE DUP1 PUSH3 0x15A JUMP JUMPDEST DUP11 DUP13 MSTORE DUP10 DUP13 KECCAK256 DUP12 SWAP6 SWAP1 SWAP4 SWAP3 SWAP2 AND DUP13 JUMPDEST DUP12 DUP3 DUP3 LT PUSH3 0x334 JUMPI POP POP DUP5 GT PUSH3 0x31A JUMPI JUMPDEST POP POP POP DUP2 SHL ADD DUP7 SSTORE PUSH3 0x16E JUMP JUMPDEST ADD MLOAD PUSH1 0x0 NOT PUSH1 0xF8 DUP5 PUSH1 0x3 SHL AND SHR NOT AND SWAP1 SSTORE CODESIZE DUP1 DUP1 PUSH3 0x30C JUMP JUMPDEST DUP4 DUP6 ADD MLOAD DUP7 SSTORE DUP14 SWAP8 SWAP1 SWAP6 ADD SWAP5 SWAP4 DUP5 ADD SWAP4 ADD PUSH3 0x2F9 JUMP JUMPDEST DUP5 DUP5 SWAP2 PUSH3 0x371 SWAP7 MSTORE KECCAK256 SWAP2 DUP2 DUP10 ADD DUP14 SHR DUP4 ADD SWAP4 DUP10 LT PUSH3 0x37C JUMPI JUMPDEST ADD DUP12 SHR ADD SWAP1 PUSH3 0x4DA JUMP JUMPDEST DUP12 DUP11 CODESIZE DUP6 DUP15 PUSH3 0x140 JUMP JUMPDEST SWAP3 POP DUP2 SWAP3 PUSH3 0x366 JUMP JUMPDEST PUSH4 0x4E487B71 PUSH1 0xE0 SHL DUP13 MSTORE PUSH1 0x22 PUSH1 0x4 MSTORE PUSH1 0x24 DUP13 REVERT JUMPDEST SWAP1 PUSH1 0x7F AND SWAP1 PUSH3 0x125 JUMP JUMPDEST PUSH4 0x4E487B71 PUSH1 0xE0 SHL DUP12 MSTORE PUSH1 0x41 PUSH1 0x4 MSTORE PUSH1 0x24 DUP12 REVERT JUMPDEST ADD MLOAD SWAP1 POP CODESIZE DUP1 PUSH3 0xF6 JUMP JUMPDEST SWAP2 SWAP1 DUP8 DUP15 SWAP6 AND DUP4 DUP1 MSTORE DUP14 DUP1 DUP6 KECCAK256 SWAP5 SWAP1 JUMPDEST DUP3 DUP3 LT PUSH3 0x40F JUMPI POP POP DUP5 GT PUSH3 0x3F5 JUMPI JUMPDEST POP POP POP DUP2 SHL ADD DUP11 SSTORE PUSH3 0x10A JUMP JUMPDEST ADD MLOAD PUSH1 0x0 NOT PUSH1 0xF8 DUP5 PUSH1 0x3 SHL AND SHR NOT AND SWAP1 SSTORE CODESIZE DUP1 DUP1 PUSH3 0x3E7 JUMP JUMPDEST SWAP2 SWAP3 SWAP4 SWAP6 SWAP7 DUP3 SWAP2 SWAP6 DUP8 DUP7 ADD MLOAD DUP2 SSTORE ADD SWAP6 ADD SWAP4 ADD SWAP1 DUP15 SWAP6 SWAP5 SWAP4 SWAP3 SWAP2 DUP15 PUSH3 0x3D5 JUMP JUMPDEST DUP3 DUP5 DUP1 PUSH3 0x457 SWAP7 MSTORE KECCAK256 SWAP2 DUP14 DUP3 DUP9 ADD SWAP1 SHR DUP4 ADD SWAP4 DUP8 LT PUSH3 0x461 JUMPI JUMPDEST ADD DUP13 SHR ADD SWAP1 PUSH3 0x4DA JUMP JUMPDEST DUP13 DUP12 CODESIZE DUP8 PUSH3 0xDD JUMP JUMPDEST SWAP3 POP DUP2 SWAP3 PUSH3 0x44C JUMP JUMPDEST PUSH4 0x4E487B71 PUSH1 0xE0 SHL DUP14 MSTORE PUSH1 0x22 PUSH1 0x4 MSTORE PUSH1 0x24 DUP14 REVERT JUMPDEST SWAP1 PUSH1 0x7F AND SWAP1 PUSH3 0xC5 JUMP JUMPDEST PUSH4 0x4E487B71 PUSH1 0xE0 SHL PUSH1 0x0 MSTORE PUSH1 0x41 PUSH1 0x4 MSTORE PUSH1 0x24 PUSH1 0x0 REVERT JUMPDEST PUSH1 0x0 DUP1 REVERT JUMPDEST PUSH1 0x40 DUP1 MLOAD SWAP2 SWAP1 DUP3 ADD PUSH1 0x1 PUSH1 0x1 PUSH1 0x40 SHL SUB DUP2 GT DUP4 DUP3 LT OR PUSH3 0x48A JUMPI PUSH1 0x40 MSTORE JUMP JUMPDEST MLOAD SWAP1 PUSH1 0x1 PUSH1 0x1 PUSH1 0xA0 SHL SUB DUP3 AND DUP3 SUB PUSH3 0x4A0 JUMPI JUMP JUMPDEST DUP2 DUP2 LT PUSH3 0x4E6 JUMPI POP POP JUMP JUMPDEST PUSH1 0x0 DUP2 SSTORE PUSH1 0x1 ADD PUSH3 0x4DA JUMP INVALID PUSH1 0x80 DUP1 PUSH1 0x40 MSTORE PUSH1 0x4 CALLDATASIZE LT ISZERO PUSH2 0x13 JUMPI PUSH1 0x0 DUP1 REVERT JUMPDEST PUSH1 0x0 CALLDATALOAD PUSH1 0xE0 SHR SWAP1 DUP2 PUSH4 0x1FFC9A7 EQ PUSH2 0x2590 JUMPI POP DUP1 PUSH4 0x3A9EBF4 EQ PUSH2 0x252E JUMPI DUP1 PUSH4 0x6C8C525 EQ PUSH2 0x2502 JUMPI DUP1 PUSH4 0x6FDDE03 EQ PUSH2 0x245F JUMPI DUP1 PUSH4 0x81812FC EQ PUSH2 0x2421 JUMPI DUP1 PUSH4 0x95EA7B3 EQ PUSH2 0x233A JUMPI DUP1 PUSH4 0xCCBA3E9 EQ PUSH2 0x2301 JUMPI DUP1 PUSH4 0xF96FD79 EQ PUSH2 0x22A6 JUMPI DUP1 PUSH4 0x107A274A EQ PUSH2 0x221C JUMPI DUP1 PUSH4 0x18160DDD EQ PUSH2 0x21FE JUMPI DUP1 PUSH4 0x18841CCD EQ PUSH2 0x21CD JUMPI DUP1 PUSH4 0x22DCD13E EQ PUSH2 0x21AF JUMPI DUP1 PUSH4 0x23B872DD EQ PUSH2 0x2198 JUMPI DUP1 PUSH4 0x2F6F343A EQ PUSH2 0x2102 JUMPI DUP1 PUSH4 0x305A67A8 EQ PUSH2 0x2069 JUMPI DUP1 PUSH4 0x38446E5F EQ PUSH2 0x1F60 JUMPI DUP1 PUSH4 0x3F4BA83A EQ PUSH2 0x1EF6 JUMPI DUP1 PUSH4 0x42842E0E EQ PUSH2 0x1EC8 JUMPI DUP1 PUSH4 0x43463394 EQ PUSH2 0x1EAC JUMPI DUP1 PUSH4 0x48D34DC3 EQ PUSH2 0x1E52 JUMPI DUP1 PUSH4 0x57302CD4 EQ PUSH2 0x1E29 JUMPI DUP1 PUSH4 0x5C975ABB EQ PUSH2 0x1E06 JUMPI DUP1 PUSH4 0x61D027B3 EQ PUSH2 0x1DDD JUMPI DUP1 PUSH4 0x6352211E EQ PUSH2 0x1DAD JUMPI DUP1 PUSH4 0x64CB04AC EQ PUSH2 0x1C62 JUMPI DUP1 PUSH4 0x6706467B EQ PUSH2 0x1B33 JUMPI DUP1 PUSH4 0x6963ACA8 EQ PUSH2 0x1A2D JUMPI DUP1 PUSH4 0x6BA9FD38 EQ PUSH2 0x1A0A JUMPI DUP1 PUSH4 0x70A08231 EQ PUSH2 0x19B1 JUMPI DUP1 PUSH4 0x715018A6 EQ PUSH2 0x1954 JUMPI DUP1 PUSH4 0x80866D83 EQ PUSH2 0x190D JUMPI DUP1 PUSH4 0x8456CB59 EQ PUSH2 0x18B3 JUMPI DUP1 PUSH4 0x8A45664E EQ PUSH2 0x1859 JUMPI DUP1 PUSH4 0x8DA5CB5B EQ PUSH2 0x1830 JUMPI DUP1 PUSH4 0x938E3D7B EQ PUSH2 0x16C0 JUMPI DUP1 PUSH4 0x95D89B41 EQ PUSH2 0x161D JUMPI DUP1 PUSH4 0xA100D69D EQ PUSH2 0x15F1 JUMPI DUP1 PUSH4 0xA22CB465 EQ PUSH2 0x1546 JUMPI DUP1 PUSH4 0xB88D4FDE EQ PUSH2 0x14DB JUMPI DUP1 PUSH4 0xC580C942 EQ PUSH2 0x147D JUMPI DUP1 PUSH4 0xC87B56DD EQ PUSH2 0x1424 JUMPI DUP1 PUSH4 0xCA21866A EQ PUSH2 0x1317 JUMPI DUP1 PUSH4 0xCF456AE7 EQ PUSH2 0x12C2 JUMPI DUP1 PUSH4 0xCFC0CC34 EQ PUSH2 0x124D JUMPI DUP1 PUSH4 0xD0D7D9C5 EQ PUSH2 0x1205 JUMPI DUP1 PUSH4 0xDE74E57B EQ PUSH2 0x11B8 JUMPI DUP1 PUSH4 0xE6B02ED6 EQ PUSH2 0x108E JUMPI DUP1 PUSH4 0xE80D7FEC EQ PUSH2 0xF82 JUMPI DUP1 PUSH4 0xE8A3D485 EQ PUSH2 0xE9C JUMPI DUP1 PUSH4 0xE96C6617 EQ PUSH2 0xE7E JUMPI DUP1 PUSH4 0xE985E9C5 EQ PUSH2 0xE28 JUMPI DUP1 PUSH4 0xF0F44260 EQ PUSH2 0xDCE JUMPI DUP1 PUSH4 0xF119F567 EQ PUSH2 0xC91 JUMPI DUP1 PUSH4 0xF14D1A82 EQ PUSH2 0x6E3 JUMPI DUP1 PUSH4 0xF22F96AF EQ PUSH2 0x63D JUMPI DUP1 PUSH4 0xF2FDE38B EQ PUSH2 0x5B4 JUMPI DUP1 PUSH4 0xF46ECCC4 EQ PUSH2 0x575 JUMPI DUP1 PUSH4 0xF5BEFA9B EQ PUSH2 0x541 JUMPI DUP1 PUSH4 0xFA3EC78D EQ PUSH2 0x2D6 JUMPI PUSH4 0xFFFAD312 EQ PUSH2 0x2B3 JUMPI PUSH1 0x0 DUP1 REVERT JUMPDEST CALLVALUE PUSH2 0x2D1 JUMPI PUSH1 0x0 CALLDATASIZE PUSH1 0x3 NOT ADD SLT PUSH2 0x2D1 JUMPI PUSH1 0x20 PUSH1 0xB SLOAD PUSH1 0x40 MLOAD SWAP1 DUP2 MSTORE RETURN JUMPDEST PUSH1 0x0 DUP1 REVERT JUMPDEST PUSH1 0x20 CALLDATASIZE PUSH1 0x3 NOT ADD SLT PUSH2 0x2D1 JUMPI PUSH1 0x4 CALLDATALOAD PUSH1 0x2 PUSH1 0x8 SLOAD EQ PUSH2 0x52F JUMPI PUSH1 0x2 PUSH1 0x8 SSTORE PUSH2 0x2FC PUSH2 0x3116 JUMP JUMPDEST DUP1 PUSH1 0x0 MSTORE PUSH1 0x15 PUSH1 0x20 MSTORE PUSH1 0x40 PUSH1 0x0 KECCAK256 PUSH1 0x1 DUP2 ADD DUP1 SLOAD PUSH1 0xFF DUP2 PUSH1 0xA0 SHR AND ISZERO PUSH2 0x51D JUMPI DUP3 SLOAD SWAP2 DUP3 CALLVALUE LT PUSH2 0x50B JUMPI PUSH1 0x1 DUP1 PUSH1 0xA0 SHL SUB SWAP2 PUSH1 0x0 DUP4 DUP3 AND SWAP6 SSTORE PUSH1 0x1 PUSH1 0x1 PUSH1 0x58 SHL SUB PUSH1 0xA8 SHL AND SWAP1 SSTORE PUSH2 0x2710 DUP1 PUSH2 0x353 PUSH1 0x10 SLOAD DUP6 PUSH2 0x3187 JUMP JUMPDEST DIV SWAP1 PUSH2 0x361 PUSH1 0x11 SLOAD DUP6 PUSH2 0x3187 JUMP JUMPDEST DIV SWAP1 DUP6 PUSH1 0x0 MSTORE PUSH1 0x14 PUSH1 0x20 MSTORE DUP3 PUSH1 0x3 PUSH1 0x40 PUSH1 0x0 KECCAK256 ADD SLOAD AND SWAP1 DUP6 DUP3 EQ SWAP1 DUP2 PUSH1 0x0 EQ PUSH2 0x4F2 JUMPI PUSH2 0x38E DUP2 DUP8 PUSH2 0x319A JUMP JUMPDEST SWAP5 JUMPDEST CALLER ISZERO PUSH2 0x4D9 JUMPI PUSH2 0x3A0 DUP10 CALLER PUSH2 0x2B7C JUMP JUMPDEST DUP1 DUP3 AND DUP1 PUSH2 0x3C1 JUMPI PUSH1 0x40 MLOAD PUSH4 0x7E273289 PUSH1 0xE0 SHL DUP2 MSTORE PUSH1 0x4 DUP2 ADD DUP13 SWAP1 MSTORE PUSH1 0x24 SWAP1 REVERT JUMPDEST DUP10 SUB PUSH2 0x4A7 JUMPI POP PUSH1 0x0 DUP1 DUP1 SWAP4 DUP2 SWAP4 PUSH1 0xE SLOAD AND GAS CALL PUSH2 0x3DD PUSH2 0x2C73 JUMP JUMPDEST POP ISZERO PUSH2 0x46E JUMPI ISZERO DUP1 PUSH2 0x49E JUMPI JUMPDEST PUSH2 0x480 JUMPI JUMPDEST POP POP PUSH1 0x0 DUP1 DUP1 DUP1 SWAP4 DUP7 GAS CALL PUSH2 0x402 PUSH2 0x2C73 JUMP JUMPDEST POP ISZERO PUSH2 0x46E JUMPI DUP1 CALLVALUE GT PUSH2 0x44E JUMPI JUMPDEST PUSH32 0x23F50D55776D8003622A982ADE45A6C7F083116C8DBBCD980F59942F440BADB1 SWAP2 PUSH1 0x60 SWAP2 PUSH1 0x40 MLOAD SWAP2 DUP3 MSTORE CALLER PUSH1 0x20 DUP4 ADD MSTORE PUSH1 0x40 DUP3 ADD MSTORE LOG2 PUSH1 0x1 PUSH1 0x8 SSTORE STOP JUMPDEST PUSH1 0x0 DUP1 DUP1 DUP1 PUSH2 0x45D DUP6 CALLVALUE PUSH2 0x319A JUMP JUMPDEST CALLER GAS CALL PUSH2 0x468 PUSH2 0x2C73 JUMP JUMPDEST POP PUSH2 0x410 JUMPI JUMPDEST PUSH1 0x40 MLOAD PUSH4 0x12171D83 PUSH1 0xE3 SHL DUP2 MSTORE PUSH1 0x4 SWAP1 REVERT JUMPDEST PUSH1 0x0 DUP1 DUP1 SWAP4 DUP2 SWAP4 GAS CALL PUSH2 0x491 PUSH2 0x2C73 JUMP JUMPDEST POP ISZERO PUSH2 0x46E JUMPI DUP5 DUP1 PUSH2 0x3EF JUMP JUMPDEST POP DUP2 ISZERO ISZERO PUSH2 0x3EA JUMP JUMPDEST PUSH1 0x40 MLOAD PUSH4 0x64283D7B PUSH1 0xE0 SHL DUP2 MSTORE PUSH1 0x1 PUSH1 0x1 PUSH1 0xA0 SHL SUB DUP11 DUP2 AND PUSH1 0x4 DUP4 ADD MSTORE PUSH1 0x24 DUP3 ADD DUP13 SWAP1 MSTORE SWAP2 SWAP1 SWAP2 AND PUSH1 0x44 DUP3 ADD MSTORE PUSH1 0x64 SWAP1 REVERT JUMPDEST PUSH1 0x40 MLOAD PUSH4 0x32505749 PUSH1 0xE1 SHL DUP2 MSTORE PUSH1 0x0 PUSH1 0x4 DUP3 ADD MSTORE PUSH1 0x24 SWAP1 REVERT JUMPDEST PUSH2 0x505 DUP5 PUSH2 0x500 DUP4 DUP10 PUSH2 0x319A JUMP JUMPDEST PUSH2 0x319A JUMP JUMPDEST SWAP5 PUSH2 0x390 JUMP JUMPDEST PUSH1 0x40 MLOAD PUSH4 0xCD1C8867 PUSH1 0xE0 SHL DUP2 MSTORE PUSH1 0x4 SWAP1 REVERT JUMPDEST PUSH1 0x40 MLOAD PUSH4 0xF971CBD PUSH1 0xE4 SHL DUP2 MSTORE PUSH1 0x4 SWAP1 REVERT JUMPDEST PUSH1 0x40 MLOAD PUSH4 0x3EE5AEB5 PUSH1 0xE0 SHL DUP2 MSTORE PUSH1 0x4 SWAP1 REVERT JUMPDEST CALLVALUE PUSH2 0x2D1 JUMPI PUSH1 0x40 CALLDATASIZE PUSH1 0x3 NOT ADD SLT PUSH2 0x2D1 JUMPI PUSH1 0x4 CALLDATALOAD PUSH1 0x5 DUP2 LT ISZERO PUSH2 0x2D1 JUMPI PUSH2 0x566 PUSH2 0x29C0 JUMP JUMPDEST PUSH2 0x572 PUSH1 0x24 CALLDATALOAD SWAP2 PUSH2 0x262E JUMP JUMPDEST SSTORE STOP JUMPDEST CALLVALUE PUSH2 0x2D1 JUMPI PUSH1 0x20 CALLDATASIZE PUSH1 0x3 NOT ADD SLT PUSH2 0x2D1 JUMPI PUSH1 0x1 PUSH1 0x1 PUSH1 0xA0 SHL SUB PUSH2 0x596 PUSH2 0x27E1 JUMP JUMPDEST AND PUSH1 0x0 MSTORE PUSH1 0x13 PUSH1 0x20 MSTORE PUSH1 0x20 PUSH1 0xFF PUSH1 0x40 PUSH1 0x0 KECCAK256 SLOAD AND PUSH1 0x40 MLOAD SWAP1 ISZERO ISZERO DUP2 MSTORE RETURN JUMPDEST CALLVALUE PUSH2 0x2D1 JUMPI PUSH1 0x20 CALLDATASIZE PUSH1 0x3 NOT ADD SLT PUSH2 0x2D1 JUMPI PUSH2 0x5CD PUSH2 0x27E1 JUMP JUMPDEST PUSH2 0x5D5 PUSH2 0x29C0 JUMP JUMPDEST PUSH1 0x1 PUSH1 0x1 PUSH1 0xA0 SHL SUB SWAP1 DUP2 AND SWAP1 DUP2 ISZERO PUSH2 0x624 JUMPI PUSH1 0x7 SLOAD DUP3 PUSH1 0x1 PUSH1 0x1 PUSH1 0x60 SHL SUB PUSH1 0xA0 SHL DUP3 AND OR PUSH1 0x7 SSTORE AND PUSH32 0x8BE0079C531659141344CD1FD0A4F28419497F9722A3DAAFE3B4186F6B6457E0 PUSH1 0x0 DUP1 LOG3 STOP JUMPDEST PUSH1 0x40 MLOAD PUSH4 0x1E4FBDF7 PUSH1 0xE0 SHL DUP2 MSTORE PUSH1 0x0 PUSH1 0x4 DUP3 ADD MSTORE PUSH1 0x24 SWAP1 REVERT JUMPDEST CALLVALUE PUSH2 0x2D1 JUMPI PUSH1 0x20 DUP1 PUSH1 0x3 NOT CALLDATASIZE ADD SLT PUSH2 0x2D1 JUMPI PUSH1 0x4 CALLDATALOAD PUSH1 0x0 MSTORE PUSH1 0x16 DUP2 MSTORE PUSH1 0x40 PUSH1 0x0 KECCAK256 PUSH1 0x40 MLOAD SWAP1 DUP2 DUP4 DUP3 SLOAD SWAP2 DUP3 DUP2 MSTORE ADD SWAP1 DUP2 SWAP3 PUSH1 0x0 MSTORE DUP5 PUSH1 0x0 KECCAK256 SWAP1 PUSH1 0x0 JUMPDEST DUP7 DUP3 DUP3 LT PUSH2 0x6CF JUMPI DUP7 DUP7 PUSH2 0x68F DUP3 DUP9 SUB DUP4 PUSH2 0x26D2 JUMP JUMPDEST PUSH1 0x40 MLOAD SWAP3 DUP4 SWAP3 DUP2 DUP5 ADD SWAP1 DUP3 DUP6 MSTORE MLOAD DUP1 SWAP2 MSTORE PUSH1 0x40 DUP5 ADD SWAP3 SWAP2 PUSH1 0x0 JUMPDEST DUP3 DUP2 LT PUSH2 0x6B8 JUMPI POP POP POP POP SUB SWAP1 RETURN JUMPDEST DUP4 MLOAD DUP6 MSTORE DUP7 SWAP6 POP SWAP4 DUP2 ADD SWAP4 SWAP3 DUP2 ADD SWAP3 PUSH1 0x1 ADD PUSH2 0x6A9 JUMP JUMPDEST DUP4 SLOAD DUP6 MSTORE SWAP1 SWAP4 ADD SWAP3 PUSH1 0x1 SWAP3 DUP4 ADD SWAP3 ADD PUSH2 0x679 JUMP JUMPDEST PUSH1 0xE0 CALLDATASIZE PUSH1 0x3 NOT ADD SLT PUSH2 0x2D1 JUMPI PUSH1 0x44 CALLDATALOAD PUSH1 0x1 PUSH1 0x1 PUSH1 0x40 SHL SUB DUP2 GT PUSH2 0x2D1 JUMPI PUSH2 0x70E SWAP1 CALLDATASIZE SWAP1 PUSH1 0x4 ADD PUSH2 0x28B0 JUMP JUMPDEST PUSH1 0x64 CALLDATALOAD PUSH1 0x1 PUSH1 0x1 PUSH1 0x40 SHL SUB DUP2 GT PUSH2 0x2D1 JUMPI PUSH2 0x72D SWAP1 CALLDATASIZE SWAP1 PUSH1 0x4 ADD PUSH2 0x28B0 JUMP JUMPDEST SWAP3 PUSH1 0xA4 CALLDATALOAD PUSH1 0x1 PUSH1 0x1 PUSH1 0x40 SHL SUB DUP2 GT PUSH2 0x2D1 JUMPI PUSH2 0x74D SWAP1 CALLDATASIZE SWAP1 PUSH1 0x4 ADD PUSH2 0x28B0 JUMP JUMPDEST SWAP4 SWAP1 PUSH1 0xC4 CALLDATALOAD SWAP5 PUSH1 0x5 DUP7 LT ISZERO PUSH2 0x2D1 JUMPI PUSH1 0xFF PUSH1 0x12 SLOAD AND ISZERO DUP1 PUSH2 0xC78 JUMPI JUMPDEST DUP1 PUSH2 0xC63 JUMPI JUMPDEST PUSH2 0xC51 JUMPI PUSH2 0x77B PUSH2 0x3116 JUMP JUMPDEST PUSH1 0x7 SLOAD PUSH1 0x1 PUSH1 0x1 PUSH1 0xA0 SHL SUB AND CALLER SUB PUSH2 0xB76 JUMPI JUMPDEST PUSH1 0xA SLOAD SWAP6 PUSH2 0x79B DUP8 PUSH2 0x2DC6 JUMP JUMPDEST PUSH1 0xA SSTORE PUSH2 0x7A8 DUP8 CALLER PUSH2 0x2E6E JUMP JUMPDEST DUP7 PUSH1 0x0 MSTORE PUSH1 0x14 PUSH1 0x20 MSTORE PUSH1 0x40 PUSH1 0x0 KECCAK256 SWAP1 PUSH1 0x4 CALLDATALOAD DUP3 SSTORE PUSH1 0x24 CALLDATALOAD PUSH1 0x1 DUP4 ADD SSTORE PUSH1 0x1 PUSH1 0x1 PUSH1 0x40 SHL SUB DUP6 GT PUSH2 0x9F9 JUMPI PUSH1 0x2 DUP3 ADD SWAP1 PUSH2 0x7EB DUP7 PUSH2 0x7E5 DUP5 SLOAD PUSH2 0x2647 JUMP JUMPDEST DUP5 PUSH2 0x2DD5 JUMP JUMPDEST PUSH1 0x0 SWAP2 DUP7 PUSH1 0x1F DUP2 GT PUSH1 0x1 EQ PUSH2 0xB09 JUMPI PUSH2 0x833 SWAP4 PUSH1 0x0 SWAP2 PUSH2 0xAFE JUMPI JUMPDEST POP DUP8 PUSH1 0x1 SHL SWAP1 PUSH1 0x0 NOT DUP10 PUSH1 0x3 SHL SHR NOT AND OR SWAP1 SSTORE JUMPDEST PUSH1 0x3 DUP4 ADD DUP1 SLOAD PUSH1 0x1 PUSH1 0x1 PUSH1 0xA0 SHL SUB NOT AND CALLER OR DUP2 SSTORE PUSH2 0x2E29 JUMP JUMPDEST PUSH1 0x1 PUSH1 0x1 PUSH1 0x40 SHL SUB DUP9 GT PUSH2 0x9F9 JUMPI PUSH2 0x85B DUP9 PUSH2 0x852 PUSH1 0x9 DUP5 ADD SLOAD PUSH2 0x2647 JUMP JUMPDEST PUSH1 0x9 DUP5 ADD PUSH2 0x2DD5 JUMP JUMPDEST DUP8 PUSH1 0x0 PUSH1 0x1F DUP3 GT PUSH1 0x1 EQ PUSH2 0xA90 JUMPI PUSH1 0x0 SWAP2 PUSH2 0xA85 JUMPI JUMPDEST POP DUP9 PUSH1 0x1 SHL SWAP1 PUSH1 0x0 NOT DUP11 PUSH1 0x3 SHL SHR NOT AND OR PUSH1 0x9 DUP3 ADD SSTORE JUMPDEST PUSH1 0x84 CALLDATALOAD PUSH1 0xA DUP3 ADD SSTORE PUSH1 0x1 PUSH1 0x1 PUSH1 0x40 SHL SUB DUP3 GT PUSH2 0x9F9 JUMPI PUSH1 0xB DUP3 SWAP2 ADD SWAP3 PUSH2 0x8B8 DUP3 PUSH2 0x8B2 DUP7 SLOAD PUSH2 0x2647 JUMP JUMPDEST DUP7 PUSH2 0x2DD5 JUMP JUMPDEST PUSH1 0x0 SWAP1 PUSH1 0x1F DUP4 GT PUSH1 0x1 EQ PUSH2 0xA1A JUMPI PUSH1 0x0 SWAP3 PUSH2 0xA0F JUMPI JUMPDEST POP POP DUP2 PUSH1 0x1 SHL SWAP2 PUSH1 0x0 NOT SWAP1 PUSH1 0x3 SHL SHR NOT AND OR SWAP1 SSTORE JUMPDEST PUSH1 0x84 CALLDATALOAD PUSH1 0x0 MSTORE PUSH1 0x16 PUSH1 0x20 MSTORE PUSH1 0x40 PUSH1 0x0 KECCAK256 SWAP2 DUP3 SLOAD SWAP2 PUSH9 0x10000000000000000 DUP4 LT ISZERO PUSH2 0x9F9 JUMPI PUSH2 0x91E DUP4 PUSH2 0x940 SWAP6 PUSH1 0x1 PUSH2 0x93A SWAP7 ADD DUP2 SSTORE PUSH2 0x2940 JUMP JUMPDEST DUP2 SLOAD SWAP1 PUSH1 0x3 SHL SWAP1 DUP9 DUP3 SHL SWAP2 PUSH1 0x0 NOT SWAP1 SHL NOT AND OR SWAP1 SSTORE CALLDATASIZE SWAP2 PUSH2 0x2989 JUMP JUMPDEST DUP4 PUSH2 0x2FE4 JUMP JUMPDEST CALLVALUE PUSH2 0x9C7 JUMPI JUMPDEST PUSH32 0xE94EBDA66CC86267DBC220471B245EB48BF72F9861949E412199792EB5E8AEB0 DUP3 SWAP2 PUSH1 0x20 SWAP5 PUSH1 0x40 MLOAD PUSH1 0x24 CALLDATALOAD DUP2 MSTORE CALLER SWAP1 DUP6 PUSH32 0x185852973B7140BE2B3183C0CBF9F05BE2BDF3D4CD9379625DEB18590B65F538 DUP10 PUSH1 0x4 CALLDATALOAD SWAP4 LOG4 PUSH2 0x9B5 PUSH1 0x40 MLOAD SWAP3 DUP4 SWAP3 PUSH1 0x40 DUP5 MSTORE PUSH1 0x40 DUP5 ADD SWAP2 PUSH2 0x2E4D JUMP JUMPDEST PUSH1 0x84 CALLDATALOAD DUP8 DUP4 ADD MSTORE SUB SWAP1 LOG2 PUSH1 0x40 MLOAD SWAP1 DUP2 MSTORE RETURN JUMPDEST PUSH1 0x0 DUP1 DUP1 DUP1 CALLVALUE PUSH1 0x1 DUP1 PUSH1 0xA0 SHL SUB PUSH1 0xE SLOAD AND GAS CALL PUSH2 0x9E2 PUSH2 0x2C73 JUMP JUMPDEST POP PUSH2 0x946 JUMPI PUSH1 0x40 MLOAD PUSH4 0x12171D83 PUSH1 0xE3 SHL DUP2 MSTORE PUSH1 0x4 SWAP1 REVERT JUMPDEST PUSH4 0x4E487B71 PUSH1 0xE0 SHL PUSH1 0x0 MSTORE PUSH1 0x41 PUSH1 0x4 MSTORE PUSH1 0x24 PUSH1 0x0 REVERT JUMPDEST ADD CALLDATALOAD SWAP1 POP DUP9 DUP1 PUSH2 0x8CE JUMP JUMPDEST SWAP1 SWAP2 POP PUSH1 0x1F NOT DUP4 AND SWAP2 DUP5 PUSH1 0x0 MSTORE PUSH1 0x20 PUSH1 0x0 KECCAK256 SWAP3 PUSH1 0x0 JUMPDEST DUP2 DUP2 LT PUSH2 0xA6D JUMPI POP SWAP1 DUP5 PUSH1 0x1 SWAP6 SWAP5 SWAP4 SWAP3 LT PUSH2 0xA53 JUMPI JUMPDEST POP POP POP DUP2 SHL ADD SWAP1 SSTORE PUSH2 0x8E3 JUMP JUMPDEST ADD CALLDATALOAD PUSH1 0x0 NOT PUSH1 0x3 DUP5 SWAP1 SHL PUSH1 0xF8 AND SHR NOT AND SWAP1 SSTORE DUP9 DUP1 DUP1 PUSH2 0xA46 JUMP JUMPDEST SWAP2 SWAP4 PUSH1 0x20 PUSH1 0x1 DUP2 SWAP3 DUP8 DUP8 ADD CALLDATALOAD DUP2 SSTORE ADD SWAP6 ADD SWAP3 ADD PUSH2 0xA30 JUMP JUMPDEST SWAP1 POP DUP7 ADD CALLDATALOAD DUP10 PUSH2 0x871 JUMP JUMPDEST SWAP1 POP PUSH1 0x9 DUP3 ADD PUSH1 0x0 MSTORE PUSH1 0x20 PUSH1 0x0 KECCAK256 SWAP1 PUSH1 0x0 JUMPDEST PUSH1 0x1F NOT DUP12 AND DUP2 LT PUSH2 0xAE6 JUMPI POP DUP10 PUSH1 0x1F NOT DUP2 AND LT PUSH2 0xACC JUMPI JUMPDEST POP POP PUSH1 0x1 DUP9 DUP2 SHL ADD PUSH1 0x9 DUP3 ADD SSTORE PUSH2 0x888 JUMP JUMPDEST DUP8 ADD CALLDATALOAD PUSH1 0x0 NOT PUSH1 0x3 DUP12 SWAP1 SHL PUSH1 0xF8 AND SHR NOT AND SWAP1 SSTORE DUP9 DUP1 PUSH2 0xABA JUMP JUMPDEST SWAP1 SWAP2 PUSH1 0x20 PUSH1 0x1 DUP2 SWAP3 DUP6 DUP13 ADD CALLDATALOAD DUP2 SSTORE ADD SWAP4 ADD SWAP2 ADD PUSH2 0xAA2 JUMP JUMPDEST SWAP1 POP DUP9 ADD CALLDATALOAD DUP13 PUSH2 0x806 JUMP JUMPDEST POP PUSH1 0x0 DUP2 DUP2 MSTORE PUSH1 0x20 DUP2 KECCAK256 SWAP1 SWAP4 DUP9 PUSH1 0x1F NOT DUP2 AND JUMPDEST DUP12 DUP2 DUP9 LT PUSH2 0xB59 JUMPI POP PUSH2 0x833 SWAP7 POP LT PUSH2 0xB3F JUMPI JUMPDEST POP POP PUSH1 0x1 DUP8 DUP2 SHL ADD SWAP1 SSTORE PUSH2 0x81A JUMP JUMPDEST DUP10 ADD CALLDATALOAD PUSH1 0x0 NOT PUSH1 0x3 DUP11 SWAP1 SHL PUSH1 0xF8 AND SHR NOT AND SWAP1 SSTORE DUP12 DUP1 PUSH2 0xB30 JUMP JUMPDEST DUP4 ADD CALLDATALOAD DUP5 SSTORE PUSH1 0x20 SWAP7 DUP8 ADD SWAP7 PUSH1 0x1 SWAP1 SWAP5 ADD SWAP4 SWAP1 SWAP3 ADD SWAP2 DUP11 SWAP2 POP PUSH2 0xB1C JUMP JUMPDEST PUSH2 0xB7F DUP7 PUSH2 0x262E JUMP JUMPDEST SLOAD CALLVALUE LT PUSH2 0xC14 JUMPI DUP6 ISZERO PUSH1 0x0 DUP2 ISZERO PUSH2 0xC07 JUMPI JUMPDEST DUP2 ISZERO PUSH2 0xBE1 JUMPI JUMPDEST POP PUSH2 0x78E JUMPI PUSH1 0x64 PUSH1 0x40 MLOAD PUSH3 0x461BCD PUSH1 0xE5 SHL DUP2 MSTORE PUSH1 0x20 PUSH1 0x4 DUP3 ADD MSTORE PUSH1 0x20 PUSH1 0x24 DUP3 ADD MSTORE PUSH32 0x43616E206F6E6C79206D696E742042726F6E7A652F53696C7665722F476F6C64 PUSH1 0x44 DUP3 ADD MSTORE REVERT JUMPDEST SWAP1 POP PUSH2 0xBF1 JUMPI PUSH1 0x2 DUP7 EQ DUP9 PUSH2 0xB98 JUMP JUMPDEST PUSH4 0x4E487B71 PUSH1 0xE0 SHL PUSH1 0x0 MSTORE PUSH1 0x21 PUSH1 0x4 MSTORE PUSH1 0x24 PUSH1 0x0 REVERT JUMPDEST POP POP PUSH1 0x1 DUP7 EQ PUSH1 0x0 PUSH2 0xB91 JUMP JUMPDEST PUSH1 0x40 MLOAD PUSH3 0x461BCD PUSH1 0xE5 SHL DUP2 MSTORE PUSH1 0x20 PUSH1 0x4 DUP3 ADD MSTORE PUSH1 0x15 PUSH1 0x24 DUP3 ADD MSTORE PUSH21 0x496E73756666696369656E74206D696E7420666565 PUSH1 0x58 SHL PUSH1 0x44 DUP3 ADD MSTORE PUSH1 0x64 SWAP1 REVERT JUMPDEST PUSH1 0x40 MLOAD PUSH4 0x3E34A41B PUSH1 0xE2 SHL DUP2 MSTORE PUSH1 0x4 SWAP1 REVERT JUMPDEST POP PUSH1 0x7 SLOAD PUSH1 0x1 PUSH1 0x1 PUSH1 0xA0 SHL SUB AND CALLER EQ ISZERO PUSH2 0x76F JUMP JUMPDEST POP CALLER PUSH1 0x0 MSTORE PUSH1 0x13 PUSH1 0x20 MSTORE PUSH1 0xFF PUSH1 0x40 PUSH1 0x0 KECCAK256 SLOAD AND ISZERO PUSH2 0x769 JUMP JUMPDEST CALLVALUE PUSH2 0x2D1 JUMPI PUSH1 0x20 DUP1 PUSH1 0x3 NOT CALLDATASIZE ADD SLT PUSH2 0x2D1 JUMPI PUSH1 0x4 CALLDATALOAD SWAP1 PUSH2 0xCAF PUSH2 0x3116 JUMP JUMPDEST PUSH2 0xCB8 DUP3 PUSH2 0x2C38 JUMP JUMPDEST POP DUP2 PUSH1 0x0 MSTORE PUSH1 0x14 DUP2 MSTORE PUSH1 0x40 PUSH1 0x0 KECCAK256 SWAP1 PUSH1 0x3 DUP3 ADD SWAP2 PUSH1 0xFF DUP4 SLOAD PUSH1 0xA0 SHR AND SWAP1 PUSH1 0x5 DUP3 LT ISZERO PUSH2 0xBF1 JUMPI PUSH1 0x4 DUP3 EQ PUSH2 0xDBC JUMPI PUSH1 0x4 PUSH2 0xCF3 SWAP2 ADD SLOAD PUSH2 0x3144 JUMP JUMPDEST SWAP1 PUSH1 0x5 DUP3 LT ISZERO PUSH2 0xBF1 JUMPI DUP2 GT ISZERO PUSH2 0xDAA JUMPI PUSH2 0xD2F DUP2 PUSH32 0xA10B529CCA5BC10C80DF76C1E97548758A642268270584AE612A37EB0A390C5F SWAP5 PUSH2 0x2E29 JUMP JUMPDEST PUSH2 0xD40 PUSH2 0xD3B DUP3 PUSH2 0x2615 JUMP JUMPDEST PUSH2 0x26F3 JUMP JUMPDEST DUP1 MLOAD PUSH2 0xD54 JUMPI JUMPDEST POP PUSH1 0xFF PUSH1 0x40 MLOAD SWAP2 AND DUP2 MSTORE LOG2 STOP JUMPDEST PUSH2 0xDA4 SWAP1 PUSH2 0xD9E DUP5 PUSH2 0xD65 DUP9 PUSH2 0x31A7 JUMP JUMPDEST SWAP3 PUSH1 0x40 MLOAD SWAP4 DUP2 PUSH2 0xD7E DUP7 SWAP4 MLOAD DUP1 SWAP3 DUP7 DUP1 DUP8 ADD SWAP2 ADD PUSH2 0x2799 JUMP JUMPDEST DUP3 ADD PUSH2 0xD92 DUP3 MLOAD DUP1 SWAP4 DUP7 DUP1 DUP6 ADD SWAP2 ADD PUSH2 0x2799 JUMP JUMPDEST ADD SUB DUP1 DUP5 MSTORE ADD DUP3 PUSH2 0x26D2 JUMP JUMPDEST DUP6 PUSH2 0x2FE4 JUMP JUMPDEST DUP5 PUSH2 0xD47 JUMP JUMPDEST PUSH1 0x40 MLOAD PUSH4 0x61C0B9E9 PUSH1 0xE1 SHL DUP2 MSTORE PUSH1 0x4 SWAP1 REVERT JUMPDEST PUSH1 0x40 MLOAD PUSH4 0x2726A67F PUSH1 0xE1 SHL DUP2 MSTORE PUSH1 0x4 SWAP1 REVERT JUMPDEST CALLVALUE PUSH2 0x2D1 JUMPI PUSH1 0x20 CALLDATASIZE PUSH1 0x3 NOT ADD SLT PUSH2 0x2D1 JUMPI PUSH2 0xDE7 PUSH2 0x27E1 JUMP JUMPDEST PUSH2 0xDEF PUSH2 0x29C0 JUMP JUMPDEST PUSH1 0x1 PUSH1 0x1 PUSH1 0xA0 SHL SUB AND DUP1 ISZERO PUSH2 0xE16 JUMPI PUSH1 0x1 PUSH1 0x1 PUSH1 0x60 SHL SUB PUSH1 0xA0 SHL PUSH1 0xE SLOAD AND OR PUSH1 0xE SSTORE PUSH1 0x0 DUP1 RETURN JUMPDEST PUSH1 0x40 MLOAD PUSH4 0xD92E233D PUSH1 0xE0 SHL DUP2 MSTORE PUSH1 0x4 SWAP1 REVERT JUMPDEST CALLVALUE PUSH2 0x2D1 JUMPI PUSH1 0x40 CALLDATASIZE PUSH1 0x3 NOT ADD SLT PUSH2 0x2D1 JUMPI PUSH2 0xE41 PUSH2 0x27E1 JUMP JUMPDEST PUSH2 0xE49 PUSH2 0x27F7 JUMP JUMPDEST SWAP1 PUSH1 0x1 DUP1 PUSH1 0xA0 SHL SUB DUP1 SWAP2 AND PUSH1 0x0 MSTORE PUSH1 0x5 PUSH1 0x20 MSTORE PUSH1 0x40 PUSH1 0x0 KECCAK256 SWAP2 AND PUSH1 0x0 MSTORE PUSH1 0x20 MSTORE PUSH1 0x20 PUSH1 0xFF PUSH1 0x40 PUSH1 0x0 KECCAK256 SLOAD AND PUSH1 0x40 MLOAD SWAP1 ISZERO ISZERO DUP2 MSTORE RETURN JUMPDEST CALLVALUE PUSH2 0x2D1 JUMPI PUSH1 0x0 CALLDATASIZE PUSH1 0x3 NOT ADD SLT PUSH2 0x2D1 JUMPI PUSH1 0x20 PUSH1 0x11 SLOAD PUSH1 0x40 MLOAD SWAP1 DUP2 MSTORE RETURN JUMPDEST CALLVALUE PUSH2 0x2D1 JUMPI PUSH1 0x0 CALLDATASIZE PUSH1 0x3 NOT ADD SLT PUSH2 0x2D1 JUMPI PUSH1 0x40 MLOAD PUSH1 0x0 PUSH1 0xD SLOAD PUSH2 0xEBE DUP2 PUSH2 0x2647 JUMP JUMPDEST DUP1 DUP5 MSTORE SWAP1 PUSH1 0x1 SWAP1 DUP2 DUP2 AND SWAP1 DUP2 ISZERO PUSH2 0xF5B JUMPI POP PUSH1 0x1 EQ PUSH2 0xF00 JUMPI JUMPDEST PUSH2 0xEFC DUP5 PUSH2 0xEE8 DUP2 DUP7 SUB DUP3 PUSH2 0x26D2 JUMP JUMPDEST PUSH1 0x40 MLOAD SWAP2 DUP3 SWAP2 PUSH1 0x20 DUP4 MSTORE PUSH1 0x20 DUP4 ADD SWAP1 PUSH2 0x27BC JUMP JUMPDEST SUB SWAP1 RETURN JUMPDEST PUSH1 0xD PUSH1 0x0 SWAP1 DUP2 MSTORE SWAP3 POP PUSH32 0xD7B6990105719101DABEB77144F2A3385C8033ACD3AF97E9423A695E81AD1EB5 JUMPDEST DUP3 DUP5 LT PUSH2 0xF43 JUMPI POP POP POP DUP2 ADD PUSH1 0x20 ADD PUSH2 0xEE8 DUP3 PUSH2 0xED8 JUMP JUMPDEST DUP1 SLOAD PUSH1 0x20 DUP6 DUP8 ADD DUP2 ADD SWAP2 SWAP1 SWAP2 MSTORE SWAP1 SWAP4 ADD SWAP3 DUP2 ADD PUSH2 0xF2B JUMP JUMPDEST PUSH1 0xFF NOT AND PUSH1 0x20 DUP1 DUP8 ADD SWAP2 SWAP1 SWAP2 MSTORE SWAP3 ISZERO ISZERO PUSH1 0x5 SHL DUP6 ADD SWAP1 SWAP3 ADD SWAP3 POP PUSH2 0xEE8 SWAP2 POP DUP4 SWAP1 POP PUSH2 0xED8 JUMP JUMPDEST CALLVALUE PUSH2 0x2D1 JUMPI PUSH2 0xF90 CALLDATASIZE PUSH2 0x281C JUMP JUMPDEST PUSH2 0xF99 DUP3 PUSH2 0x2C38 JUMP JUMPDEST PUSH1 0x1 PUSH1 0x1 PUSH1 0xA0 SHL SUB SWAP1 CALLER SWAP1 DUP3 AND SUB PUSH2 0x107C JUMPI PUSH2 0xFB3 PUSH2 0x3116 JUMP JUMPDEST DUP2 ISZERO PUSH2 0x106B JUMPI DUP3 PUSH1 0x0 MSTORE PUSH1 0x15 PUSH1 0x20 MSTORE PUSH1 0xFF PUSH1 0x1 PUSH1 0x40 PUSH1 0x0 KECCAK256 ADD SLOAD PUSH1 0xA0 SHR AND PUSH2 0x1059 JUMPI PUSH32 0x1EA45E30B31292F9D7C5D37D275B2FECA555F13F47DCE0FDEA2F47E8852ECD78 SWAP2 PUSH1 0x20 SWAP2 PUSH1 0x40 MLOAD PUSH2 0x1006 DUP2 PUSH2 0x2681 JUMP JUMPDEST DUP3 DUP2 MSTORE DUP4 DUP2 ADD SWAP2 CALLER DUP4 MSTORE PUSH1 0x1 PUSH1 0x40 DUP4 ADD SWAP3 DUP2 DUP5 MSTORE DUP9 PUSH1 0x0 MSTORE PUSH1 0x15 DUP8 MSTORE PUSH1 0x40 PUSH1 0x0 KECCAK256 SWAP1 MLOAD DUP2 SSTORE ADD SWAP3 MLOAD AND DUP3 SLOAD SWAP2 PUSH1 0xFF PUSH1 0xA0 SHL SWAP1 MLOAD ISZERO ISZERO PUSH1 0xA0 SHL AND SWAP2 PUSH1 0x1 PUSH1 0x1 PUSH1 0x58 SHL SUB PUSH1 0xA8 SHL AND OR OR SWAP1 SSTORE PUSH1 0x40 MLOAD SWAP1 DUP2 MSTORE LOG2 STOP JUMPDEST PUSH1 0x40 MLOAD PUSH4 0xE3912551 PUSH1 0xE0 SHL DUP2 MSTORE PUSH1 0x4 SWAP1 REVERT JUMPDEST PUSH1 0x40 MLOAD PUSH3 0xBFC921 PUSH1 0xE0 SHL DUP2 MSTORE PUSH1 0x4 SWAP1 REVERT JUMPDEST PUSH1 0x40 MLOAD PUSH4 0x7A50E057 PUSH1 0xE0 SHL DUP2 MSTORE PUSH1 0x4 SWAP1 REVERT JUMPDEST CALLVALUE PUSH2 0x2D1 JUMPI PUSH1 0x20 DUP1 PUSH1 0x3 NOT CALLDATASIZE ADD SLT PUSH2 0x2D1 JUMPI PUSH1 0x4 CALLDATALOAD SWAP1 PUSH2 0x10AC PUSH2 0x29C0 JUMP JUMPDEST PUSH2 0x10B4 PUSH2 0x3116 JUMP JUMPDEST PUSH1 0xB SWAP1 DUP2 SLOAD DUP4 DUP2 ADD DUP1 SWAP2 GT PUSH2 0x11A2 JUMPI PUSH1 0x64 LT PUSH2 0x1166 JUMPI CALLER PUSH1 0xFF PUSH1 0xA0 SHL NOT AND SWAP2 DUP4 SWAP2 SWAP1 PUSH1 0x0 JUMPDEST DUP4 DUP2 LT PUSH2 0x10E2 JUMPI STOP JUMPDEST PUSH2 0x1161 SWAP1 PUSH1 0xA DUP1 SLOAD SWAP1 PUSH2 0x10F4 DUP3 PUSH2 0x2DC6 JUMP JUMPDEST SWAP1 SSTORE PUSH2 0x1100 DUP2 CALLER PUSH2 0x2E6E JUMP JUMPDEST DUP1 PUSH1 0x0 MSTORE PUSH1 0x14 DUP6 MSTORE PUSH1 0x3 PUSH1 0x40 PUSH1 0x0 KECCAK256 ADD DUP8 PUSH1 0x1 PUSH1 0x1 PUSH1 0x58 SHL SUB PUSH1 0xA8 SHL DUP3 SLOAD AND OR SWAP1 SSTORE PUSH2 0x112C DUP5 SLOAD PUSH2 0x2DC6 JUMP JUMPDEST DUP5 SSTORE PUSH1 0x0 PUSH1 0x40 MLOAD SWAP2 DUP2 DUP4 MSTORE PUSH32 0x185852973B7140BE2B3183C0CBF9F05BE2BDF3D4CD9379625DEB18590B65F538 DUP8 CALLER SWAP5 LOG4 PUSH2 0x2DC6 JUMP JUMPDEST PUSH2 0x10D9 JUMP JUMPDEST PUSH1 0x64 SWAP1 PUSH1 0x40 MLOAD SWAP1 PUSH3 0x461BCD PUSH1 0xE5 SHL DUP3 MSTORE PUSH1 0x4 DUP3 ADD MSTORE PUSH1 0x15 PUSH1 0x24 DUP3 ADD MSTORE PUSH21 0x115E18D959591CC819D95B995CDA5CC81B1A5B5A5D PUSH1 0x5A SHL PUSH1 0x44 DUP3 ADD MSTORE REVERT JUMPDEST PUSH4 0x4E487B71 PUSH1 0xE0 SHL PUSH1 0x0 MSTORE PUSH1 0x11 PUSH1 0x4 MSTORE PUSH1 0x24 PUSH1 0x0 REVERT JUMPDEST CALLVALUE PUSH2 0x2D1 JUMPI PUSH1 0x20 CALLDATASIZE PUSH1 0x3 NOT ADD SLT PUSH2 0x2D1 JUMPI PUSH1 0x4 CALLDATALOAD PUSH1 0x0 MSTORE PUSH1 0x15 PUSH1 0x20 MSTORE PUSH1 0x60 PUSH1 0x40 PUSH1 0x0 KECCAK256 PUSH1 0xFF PUSH1 0x1 DUP3 SLOAD SWAP3 ADD SLOAD PUSH1 0x40 MLOAD SWAP3 DUP4 MSTORE PUSH1 0x1 DUP1 PUSH1 0xA0 SHL SUB DUP2 AND PUSH1 0x20 DUP5 ADD MSTORE PUSH1 0xA0 SHR AND ISZERO ISZERO PUSH1 0x40 DUP3 ADD MSTORE RETURN JUMPDEST CALLVALUE PUSH2 0x2D1 JUMPI PUSH1 0x20 CALLDATASIZE PUSH1 0x3 NOT ADD SLT PUSH2 0x2D1 JUMPI PUSH2 0x121E PUSH2 0x27E1 JUMP JUMPDEST PUSH2 0x1226 PUSH2 0x29C0 JUMP JUMPDEST PUSH1 0x1 PUSH1 0x1 PUSH1 0xA0 SHL SUB AND DUP1 ISZERO PUSH2 0xE16 JUMPI PUSH1 0x1 PUSH1 0x1 PUSH1 0x60 SHL SUB PUSH1 0xA0 SHL PUSH1 0xF SLOAD AND OR PUSH1 0xF SSTORE PUSH1 0x0 DUP1 RETURN JUMPDEST CALLVALUE PUSH2 0x2D1 JUMPI PUSH1 0x20 CALLDATASIZE PUSH1 0x3 NOT ADD SLT PUSH2 0x2D1 JUMPI PUSH1 0x4 CALLDATALOAD PUSH2 0x126A DUP2 PUSH2 0x2C38 JUMP JUMPDEST POP PUSH1 0x0 MSTORE PUSH1 0x14 PUSH1 0x20 MSTORE PUSH2 0x12AF PUSH1 0x40 PUSH1 0x0 KECCAK256 PUSH2 0xEFC PUSH1 0xA DUP3 ADD SLOAD PUSH2 0x129B PUSH1 0xB PUSH2 0x1294 PUSH1 0x9 DUP7 ADD PUSH2 0x26F3 JUMP JUMPDEST SWAP5 ADD PUSH2 0x26F3 JUMP JUMPDEST PUSH1 0x40 MLOAD SWAP5 DUP6 SWAP5 PUSH1 0x60 DUP7 MSTORE PUSH1 0x60 DUP7 ADD SWAP1 PUSH2 0x27BC JUMP JUMPDEST SWAP2 PUSH1 0x20 DUP6 ADD MSTORE DUP4 DUP3 SUB PUSH1 0x40 DUP6 ADD MSTORE PUSH2 0x27BC JUMP JUMPDEST CALLVALUE PUSH2 0x2D1 JUMPI PUSH1 0x40 CALLDATASIZE PUSH1 0x3 NOT ADD SLT PUSH2 0x2D1 JUMPI PUSH2 0x1315 PUSH2 0x12DE PUSH2 0x27E1 JUMP JUMPDEST PUSH2 0x12E6 PUSH2 0x280D JUMP JUMPDEST SWAP1 PUSH2 0x12EF PUSH2 0x29C0 JUMP JUMPDEST PUSH1 0x1 DUP1 PUSH1 0xA0 SHL SUB AND PUSH1 0x0 MSTORE PUSH1 0x13 PUSH1 0x20 MSTORE PUSH1 0x40 PUSH1 0x0 KECCAK256 SWAP1 PUSH1 0xFF DUP1 NOT DUP4 SLOAD AND SWAP2 ISZERO ISZERO AND OR SWAP1 SSTORE JUMP JUMPDEST STOP JUMPDEST CALLVALUE PUSH2 0x2D1 JUMPI PUSH1 0x20 CALLDATASIZE PUSH1 0x3 NOT ADD SLT PUSH2 0x2D1 JUMPI PUSH1 0x4 CALLDATALOAD PUSH2 0x1334 DUP2 PUSH2 0x2C38 JUMP JUMPDEST POP PUSH1 0x0 MSTORE PUSH1 0x14 PUSH1 0x20 MSTORE PUSH1 0x40 PUSH1 0x0 KECCAK256 DUP1 SLOAD PUSH1 0x1 DUP3 ADD SLOAD SWAP2 PUSH1 0x3 DUP2 ADD SLOAD PUSH1 0x4 DUP3 ADD SLOAD SWAP2 PUSH1 0x5 DUP2 ADD SLOAD SWAP2 PUSH1 0x6 DUP3 ADD SLOAD PUSH1 0x7 DUP4 ADD SLOAD PUSH1 0x8 DUP5 ADD SLOAD SWAP2 PUSH1 0xA DUP6 ADD SLOAD SWAP6 PUSH1 0x2 DUP7 ADD PUSH2 0x137E SWAP1 PUSH2 0x26F3 JUMP JUMPDEST SWAP8 PUSH2 0x138B PUSH1 0x9 DUP9 ADD PUSH2 0x26F3 JUMP JUMPDEST SWAP7 PUSH1 0xB ADD PUSH2 0x1398 SWAP1 PUSH2 0x26F3 JUMP JUMPDEST SWAP9 PUSH1 0x40 MLOAD SWAP12 DUP13 SWAP12 DUP13 MSTORE PUSH1 0x20 DUP13 ADD MSTORE PUSH2 0x1A0 DUP1 PUSH1 0x40 DUP14 ADD MSTORE DUP12 ADD PUSH2 0x13BA SWAP2 PUSH2 0x27BC JUMP JUMPDEST PUSH1 0x1 PUSH1 0x1 PUSH1 0xA0 SHL SUB DUP8 AND PUSH1 0x60 DUP13 ADD MSTORE SWAP6 PUSH2 0x13DE SWAP1 PUSH1 0x80 DUP13 ADD SWAP1 PUSH1 0xA0 SHR PUSH1 0xFF AND PUSH2 0x28A3 JUMP JUMPDEST PUSH1 0xA0 DUP11 ADD MSTORE PUSH1 0xC0 DUP10 ADD MSTORE PUSH1 0xE0 DUP9 ADD MSTORE PUSH2 0x100 DUP8 ADD MSTORE PUSH2 0x120 DUP7 ADD MSTORE DUP5 DUP2 SUB PUSH2 0x140 DUP7 ADD MSTORE PUSH2 0x140B SWAP2 PUSH2 0x27BC JUMP JUMPDEST SWAP1 PUSH2 0x160 DUP5 ADD MSTORE DUP3 DUP2 SUB PUSH2 0x180 DUP5 ADD MSTORE PUSH2 0xEFC SWAP2 PUSH2 0x27BC JUMP JUMPDEST CALLVALUE PUSH2 0x2D1 JUMPI PUSH1 0x20 CALLDATASIZE PUSH1 0x3 NOT ADD SLT PUSH2 0x2D1 JUMPI PUSH1 0x4 CALLDATALOAD PUSH2 0x1441 DUP2 PUSH2 0x2C38 JUMP JUMPDEST POP PUSH1 0x0 MSTORE PUSH1 0x6 PUSH1 0x20 MSTORE PUSH2 0xEFC PUSH2 0x145A PUSH1 0x40 PUSH1 0x0 KECCAK256 PUSH2 0x26F3 JUMP JUMPDEST PUSH1 0x0 PUSH1 0x40 MLOAD PUSH2 0x1468 DUP2 PUSH2 0x26B7 JUMP JUMPDEST MSTORE PUSH1 0x40 MLOAD SWAP2 DUP3 SWAP2 PUSH1 0x20 DUP4 MSTORE PUSH1 0x20 DUP4 ADD SWAP1 PUSH2 0x27BC JUMP JUMPDEST CALLVALUE PUSH2 0x2D1 JUMPI PUSH1 0x20 CALLDATASIZE PUSH1 0x3 NOT ADD SLT PUSH2 0x2D1 JUMPI PUSH1 0x4 CALLDATALOAD PUSH2 0x1499 PUSH2 0x29C0 JUMP JUMPDEST PUSH2 0x3E8 DUP2 GT PUSH2 0x14A7 JUMPI PUSH1 0x10 SSTORE STOP JUMPDEST PUSH1 0x40 MLOAD PUSH3 0x461BCD PUSH1 0xE5 SHL DUP2 MSTORE PUSH1 0x20 PUSH1 0x4 DUP3 ADD MSTORE PUSH1 0xC PUSH1 0x24 DUP3 ADD MSTORE PUSH12 0x8CCACA40E8DEDE40D0D2CED PUSH1 0xA3 SHL PUSH1 0x44 DUP3 ADD MSTORE PUSH1 0x64 SWAP1 REVERT JUMPDEST CALLVALUE PUSH2 0x2D1 JUMPI PUSH1 0x80 CALLDATASIZE PUSH1 0x3 NOT ADD SLT PUSH2 0x2D1 JUMPI PUSH2 0x14F4 PUSH2 0x27E1 JUMP JUMPDEST PUSH2 0x14FC PUSH2 0x27F7 JUMP JUMPDEST SWAP1 PUSH1 0x44 CALLDATALOAD PUSH1 0x64 CALLDATALOAD SWAP3 PUSH1 0x1 PUSH1 0x1 PUSH1 0x40 SHL SUB DUP5 GT PUSH2 0x2D1 JUMPI CALLDATASIZE PUSH1 0x23 DUP6 ADD SLT ISZERO PUSH2 0x2D1 JUMPI PUSH2 0x1534 PUSH2 0x1315 SWAP5 CALLDATASIZE SWAP1 PUSH1 0x24 DUP2 PUSH1 0x4 ADD CALLDATALOAD SWAP2 ADD PUSH2 0x2989 JUMP JUMPDEST SWAP3 PUSH2 0x1540 DUP4 DUP4 DUP4 PUSH2 0x29EC JUMP JUMPDEST CALLER PUSH2 0x2CA3 JUMP JUMPDEST CALLVALUE PUSH2 0x2D1 JUMPI PUSH1 0x40 CALLDATASIZE PUSH1 0x3 NOT ADD SLT PUSH2 0x2D1 JUMPI PUSH2 0x155F PUSH2 0x27E1 JUMP JUMPDEST PUSH2 0x1567 PUSH2 0x280D JUMP JUMPDEST PUSH1 0x1 PUSH1 0x1 PUSH1 0xA0 SHL SUB SWAP1 SWAP2 AND SWAP1 DUP2 ISZERO PUSH2 0x15D8 JUMPI CALLER PUSH1 0x0 MSTORE PUSH1 0x5 PUSH1 0x20 MSTORE PUSH1 0x40 PUSH1 0x0 KECCAK256 DUP3 PUSH1 0x0 MSTORE PUSH1 0x20 MSTORE PUSH2 0x15A8 DUP2 PUSH1 0x40 PUSH1 0x0 KECCAK256 SWAP1 PUSH1 0xFF DUP1 NOT DUP4 SLOAD AND SWAP2 ISZERO ISZERO AND OR SWAP1 SSTORE JUMP JUMPDEST PUSH1 0x40 MLOAD SWAP1 ISZERO ISZERO DUP2 MSTORE PUSH32 0x17307EAB39AB6107E8899845AD3D59BD9653F200F220920489CA2B5937696C31 PUSH1 0x20 CALLER SWAP3 LOG3 STOP JUMPDEST PUSH1 0x40 MLOAD PUSH4 0xB611743 PUSH1 0xE3 SHL DUP2 MSTORE PUSH1 0x4 DUP2 ADD DUP4 SWAP1 MSTORE PUSH1 0x24 SWAP1 REVERT JUMPDEST CALLVALUE PUSH2 0x2D1 JUMPI PUSH1 0x20 CALLDATASIZE PUSH1 0x3 NOT ADD SLT PUSH2 0x2D1 JUMPI PUSH1 0x4 CALLDATALOAD PUSH1 0x5 DUP2 LT ISZERO PUSH2 0x2D1 JUMPI PUSH1 0x20 SWAP1 PUSH1 0x18 ADD SLOAD PUSH1 0x40 MLOAD SWAP1 DUP2 MSTORE RETURN JUMPDEST CALLVALUE PUSH2 0x2D1 JUMPI PUSH1 0x0 CALLDATASIZE PUSH1 0x3 NOT ADD SLT PUSH2 0x2D1 JUMPI PUSH1 0x40 MLOAD PUSH1 0x0 PUSH1 0x1 DUP1 SLOAD SWAP1 PUSH2 0x1641 DUP3 PUSH2 0x2647 JUMP JUMPDEST DUP1 DUP6 MSTORE SWAP2 DUP2 DUP2 AND SWAP1 DUP2 ISZERO PUSH2 0xF5B JUMPI POP PUSH1 0x1 EQ PUSH2 0x1667 JUMPI PUSH2 0xEFC DUP5 PUSH2 0xEE8 DUP2 DUP7 SUB DUP3 PUSH2 0x26D2 JUMP JUMPDEST PUSH1 0x0 DUP2 DUP2 MSTORE SWAP3 POP PUSH32 0xB10E2D527612073B26EECDFD717E6A320CF44B4AFAC2B0732D9FCBE2B7FA0CF6 JUMPDEST DUP3 DUP5 LT PUSH2 0x16A8 JUMPI POP POP POP DUP2 ADD PUSH1 0x20 ADD PUSH2 0xEE8 DUP3 PUSH2 0xED8 JUMP JUMPDEST DUP1 SLOAD PUSH1 0x20 DUP6 DUP8 ADD DUP2 ADD SWAP2 SWAP1 SWAP2 MSTORE SWAP1 SWAP4 ADD SWAP3 DUP2 ADD PUSH2 0x1690 JUMP JUMPDEST CALLVALUE PUSH2 0x2D1 JUMPI PUSH1 0x20 DUP1 PUSH1 0x3 NOT CALLDATASIZE ADD SLT PUSH2 0x2D1 JUMPI PUSH1 0x1 PUSH1 0x1 PUSH1 0x40 SHL SUB PUSH1 0x4 CALLDATALOAD DUP2 DUP2 GT PUSH2 0x2D1 JUMPI PUSH2 0x16F2 SWAP1 CALLDATASIZE SWAP1 PUSH1 0x4 ADD PUSH2 0x28B0 JUMP JUMPDEST SWAP2 PUSH2 0x16FB PUSH2 0x29C0 JUMP JUMPDEST DUP3 GT PUSH2 0x9F9 JUMPI PUSH2 0x170C PUSH1 0xD SLOAD PUSH2 0x2647 JUMP JUMPDEST PUSH1 0x1F DUP2 GT PUSH2 0x17D1 JUMPI JUMPDEST POP PUSH1 0x0 SWAP3 PUSH1 0x1F DUP4 GT PUSH1 0x1 EQ PUSH2 0x1754 JUMPI POP SWAP2 DUP2 SWAP3 PUSH1 0x0 SWAP3 PUSH2 0x1749 JUMPI JUMPDEST POP POP PUSH1 0x0 NOT PUSH1 0x3 DUP4 SWAP1 SHL SHR NOT AND PUSH1 0x1 SWAP2 SWAP1 SWAP2 SHL OR PUSH1 0xD SSTORE STOP JUMPDEST ADD CALLDATALOAD SWAP1 POP DUP3 DUP1 PUSH2 0x1730 JUMP JUMPDEST PUSH1 0x1F NOT DUP4 AND SWAP4 PUSH32 0xD7B6990105719101DABEB77144F2A3385C8033ACD3AF97E9423A695E81AD1EB5 SWAP3 SWAP2 PUSH1 0x0 SWAP1 JUMPDEST DUP7 DUP3 LT PUSH2 0x17B9 JUMPI POP POP DUP4 PUSH1 0x1 SWAP6 LT PUSH2 0x179F JUMPI JUMPDEST POP POP POP DUP2 SHL ADD PUSH1 0xD SSTORE STOP JUMPDEST ADD CALLDATALOAD PUSH1 0x0 NOT PUSH1 0x3 DUP5 SWAP1 SHL PUSH1 0xF8 AND SHR NOT AND SWAP1 SSTORE DUP3 DUP1 DUP1 PUSH2 0x1794 JUMP JUMPDEST DUP1 PUSH1 0x1 DUP5 SWAP7 DUP3 SWAP5 SWAP6 DUP8 ADD CALLDATALOAD DUP2 SSTORE ADD SWAP6 ADD SWAP3 ADD SWAP1 PUSH2 0x1781 JUMP JUMPDEST PUSH32 0xD7B6990105719101DABEB77144F2A3385C8033ACD3AF97E9423A695E81AD1EB5 PUSH1 0x1F DUP5 ADD PUSH1 0x5 SHR DUP2 ADD SWAP2 DUP6 DUP6 LT PUSH2 0x1826 JUMPI JUMPDEST PUSH1 0x1F ADD PUSH1 0x5 SHR ADD SWAP1 JUMPDEST DUP2 DUP2 LT PUSH2 0x181A JUMPI POP PUSH2 0x1715 JUMP JUMPDEST PUSH1 0x0 DUP2 SSTORE PUSH1 0x1 ADD PUSH2 0x180D JUMP JUMPDEST SWAP1 SWAP2 POP DUP2 SWAP1 PUSH2 0x1804 JUMP JUMPDEST CALLVALUE PUSH2 0x2D1 JUMPI PUSH1 0x0 CALLDATASIZE PUSH1 0x3 NOT ADD SLT PUSH2 0x2D1 JUMPI PUSH1 0x7 SLOAD PUSH1 0x40 MLOAD PUSH1 0x1 PUSH1 0x1 PUSH1 0xA0 SHL SUB SWAP1 SWAP2 AND DUP2 MSTORE PUSH1 0x20 SWAP1 RETURN JUMPDEST CALLVALUE PUSH2 0x2D1 JUMPI PUSH1 0x20 PUSH2 0x1869 CALLDATASIZE PUSH2 0x28DD JUMP JUMPDEST PUSH2 0x1872 DUP4 PUSH2 0x2C38 JUMP JUMPDEST POP PUSH2 0x1896 DUP5 PUSH1 0x40 MLOAD DUP4 DUP2 SWAP5 DUP4 DUP4 ADD SWAP7 DUP8 CALLDATACOPY DUP2 ADD PUSH1 0x0 DUP4 DUP3 ADD MSTORE SUB DUP1 DUP5 MSTORE ADD DUP3 PUSH2 0x26D2 JUMP JUMPDEST MLOAD SWAP1 KECCAK256 SWAP1 PUSH1 0x0 MSTORE PUSH1 0x14 DUP3 MSTORE PUSH1 0x1 PUSH1 0x40 PUSH1 0x0 KECCAK256 ADD SLOAD EQ PUSH1 0x40 MLOAD SWAP1 DUP2 MSTORE RETURN JUMPDEST CALLVALUE PUSH2 0x2D1 JUMPI PUSH1 0x0 CALLDATASIZE PUSH1 0x3 NOT ADD SLT PUSH2 0x2D1 JUMPI PUSH2 0x18CC PUSH2 0x29C0 JUMP JUMPDEST PUSH2 0x18D4 PUSH2 0x3116 JUMP JUMPDEST PUSH1 0x1 PUSH1 0xFF NOT PUSH1 0x9 SLOAD AND OR PUSH1 0x9 SSTORE PUSH32 0x62E78CEA01BEE320CD4E420270B5EA74000D11B0C9F74754EBDBFC544B05A258 PUSH1 0x20 PUSH1 0x40 MLOAD CALLER DUP2 MSTORE LOG1 STOP JUMPDEST CALLVALUE PUSH2 0x2D1 JUMPI PUSH1 0x40 CALLDATASIZE PUSH1 0x3 NOT ADD SLT PUSH2 0x2D1 JUMPI PUSH1 0x24 CALLDATALOAD PUSH1 0x4 CALLDATALOAD PUSH1 0x0 MSTORE PUSH1 0x16 PUSH1 0x20 MSTORE PUSH1 0x40 PUSH1 0x0 KECCAK256 DUP1 SLOAD DUP3 LT ISZERO PUSH2 0x2D1 JUMPI PUSH1 0x20 SWAP2 PUSH2 0x1946 SWAP2 PUSH2 0x2940 JUMP JUMPDEST SWAP1 SLOAD PUSH1 0x40 MLOAD SWAP2 PUSH1 0x3 SHL SHR DUP2 MSTORE RETURN JUMPDEST CALLVALUE PUSH2 0x2D1 JUMPI PUSH1 0x0 CALLDATASIZE PUSH1 0x3 NOT ADD SLT PUSH2 0x2D1 JUMPI PUSH2 0x196D PUSH2 0x29C0 JUMP JUMPDEST PUSH1 0x7 DUP1 SLOAD PUSH1 0x1 PUSH1 0x1 PUSH1 0xA0 SHL SUB NOT DUP2 AND SWAP1 SWAP2 SSTORE PUSH1 0x0 SWAP1 PUSH1 0x1 PUSH1 0x1 PUSH1 0xA0 SHL SUB AND PUSH32 0x8BE0079C531659141344CD1FD0A4F28419497F9722A3DAAFE3B4186F6B6457E0 DUP3 DUP1 LOG3 STOP JUMPDEST CALLVALUE PUSH2 0x2D1 JUMPI PUSH1 0x20 CALLDATASIZE PUSH1 0x3 NOT ADD SLT PUSH2 0x2D1 JUMPI PUSH1 0x1 PUSH1 0x1 PUSH1 0xA0 SHL SUB PUSH2 0x19D2 PUSH2 0x27E1 JUMP JUMPDEST AND DUP1 ISZERO PUSH2 0x19F1 JUMPI PUSH1 0x0 MSTORE PUSH1 0x3 PUSH1 0x20 MSTORE PUSH1 0x20 PUSH1 0x40 PUSH1 0x0 KECCAK256 SLOAD PUSH1 0x40 MLOAD SWAP1 DUP2 MSTORE RETURN JUMPDEST PUSH1 0x40 MLOAD PUSH4 0x22718AD9 PUSH1 0xE2 SHL DUP2 MSTORE PUSH1 0x0 PUSH1 0x4 DUP3 ADD MSTORE PUSH1 0x24 SWAP1 REVERT JUMPDEST CALLVALUE PUSH2 0x2D1 JUMPI PUSH1 0x0 CALLDATASIZE PUSH1 0x3 NOT ADD SLT PUSH2 0x2D1 JUMPI PUSH1 0x20 PUSH1 0xFF PUSH1 0x12 SLOAD AND PUSH1 0x40 MLOAD SWAP1 ISZERO ISZERO DUP2 MSTORE RETURN JUMPDEST CALLVALUE PUSH2 0x2D1 JUMPI PUSH1 0x40 CALLDATASIZE PUSH1 0x3 NOT ADD SLT PUSH2 0x2D1 JUMPI PUSH1 0x4 CALLDATALOAD PUSH1 0x5 DUP2 LT ISZERO PUSH2 0x2D1 JUMPI PUSH1 0x1 PUSH1 0x1 PUSH1 0x40 SHL SUB PUSH1 0x24 CALLDATALOAD DUP2 DUP2 GT PUSH2 0x2D1 JUMPI PUSH2 0x1A6D PUSH2 0x1A7D SWAP2 CALLDATASIZE SWAP1 PUSH1 0x4 ADD PUSH2 0x28B0 JUMP JUMPDEST SWAP2 SWAP1 SWAP4 PUSH2 0x1A78 PUSH2 0x29C0 JUMP JUMPDEST PUSH2 0x2615 JUMP JUMPDEST SWAP2 DUP2 GT PUSH2 0x9F9 JUMPI PUSH2 0x1A92 DUP2 PUSH2 0x7E5 DUP5 SLOAD PUSH2 0x2647 JUMP JUMPDEST PUSH1 0x0 PUSH1 0x1F DUP3 GT PUSH1 0x1 EQ PUSH2 0x1ACD JUMPI DUP2 SWAP3 SWAP4 PUSH1 0x0 SWAP3 PUSH2 0x1AC2 JUMPI JUMPDEST POP POP PUSH1 0x0 NOT PUSH1 0x3 DUP4 SWAP1 SHL SHR NOT AND PUSH1 0x1 SWAP2 SWAP1 SWAP2 SHL OR SWAP1 SSTORE STOP JUMPDEST ADD CALLDATALOAD SWAP1 POP DUP4 DUP1 PUSH2 0x1AAA JUMP JUMPDEST PUSH1 0x1F NOT DUP3 AND SWAP4 DUP4 PUSH1 0x0 MSTORE PUSH1 0x20 SWAP2 DUP3 PUSH1 0x0 KECCAK256 SWAP3 PUSH1 0x0 SWAP1 JUMPDEST DUP8 DUP3 LT PUSH2 0x1B1B JUMPI POP POP DUP4 PUSH1 0x1 SWAP6 SWAP7 LT PUSH2 0x1B01 JUMPI JUMPDEST POP POP POP DUP2 SHL ADD SWAP1 SSTORE STOP JUMPDEST ADD CALLDATALOAD PUSH1 0x0 NOT PUSH1 0x3 DUP5 SWAP1 SHL PUSH1 0xF8 AND SHR NOT AND SWAP1 SSTORE DUP4 DUP1 DUP1 PUSH2 0x1AF7 JUMP JUMPDEST DUP1 PUSH1 0x1 DUP5 SWAP7 DUP3 SWAP5 SWAP6 DUP8 ADD CALLDATALOAD DUP2 SSTORE ADD SWAP6 ADD SWAP3 ADD SWAP1 PUSH2 0x1AE3 JUMP JUMPDEST CALLVALUE PUSH2 0x2D1 JUMPI PUSH1 0x40 CALLDATASIZE PUSH1 0x3 NOT ADD SLT PUSH2 0x2D1 JUMPI PUSH1 0x1 PUSH1 0x1 PUSH1 0x40 SHL SUB PUSH1 0x4 CALLDATALOAD DUP2 DUP2 GT PUSH2 0x2D1 JUMPI PUSH2 0x1B64 SWAP1 CALLDATASIZE SWAP1 PUSH1 0x4 ADD PUSH2 0x2910 JUMP JUMPDEST PUSH1 0x24 SWAP1 DUP2 CALLDATALOAD DUP5 DUP2 GT PUSH2 0x2D1 JUMPI PUSH2 0x1B7E SWAP1 CALLDATASIZE SWAP1 PUSH1 0x4 ADD PUSH2 0x2910 JUMP JUMPDEST SWAP3 SWAP1 SWAP2 PUSH2 0x1B89 PUSH2 0x29C0 JUMP JUMPDEST DUP4 DUP2 SUB PUSH2 0x1C2C JUMPI PUSH1 0x0 JUMPDEST DUP2 DUP2 LT PUSH2 0x1B9C JUMPI STOP JUMPDEST PUSH2 0x1BB0 PUSH2 0x1BAA DUP3 DUP5 DUP10 PUSH2 0x3134 JUMP JUMPDEST CALLDATALOAD PUSH2 0x2C38 JUMP JUMPDEST POP PUSH2 0x1BBC DUP2 DUP4 DUP9 PUSH2 0x3134 JUMP JUMPDEST CALLDATALOAD SWAP1 DUP6 DUP2 LT ISZERO PUSH2 0x1C17 JUMPI DUP1 PUSH1 0x5 SHL DUP6 ADD CALLDATALOAD PUSH1 0x1E NOT DUP7 CALLDATASIZE SUB ADD DUP2 SLT ISZERO PUSH2 0x2D1 JUMPI DUP6 ADD SWAP2 DUP3 CALLDATALOAD SWAP3 DUP10 DUP5 GT PUSH2 0x2D1 JUMPI PUSH1 0x20 ADD SWAP1 DUP4 CALLDATASIZE SUB DUP3 SGT PUSH2 0x2D1 JUMPI PUSH2 0x1C07 PUSH2 0x1C0D SWAP3 PUSH2 0x1C12 SWAP6 CALLDATASIZE SWAP2 PUSH2 0x2989 JUMP JUMPDEST SWAP1 PUSH2 0x2FE4 JUMP JUMPDEST PUSH2 0x2DC6 JUMP JUMPDEST PUSH2 0x1B93 JUMP JUMPDEST DUP4 PUSH4 0x4E487B71 PUSH1 0xE0 SHL PUSH1 0x0 MSTORE PUSH1 0x32 PUSH1 0x4 MSTORE PUSH1 0x0 REVERT JUMPDEST PUSH1 0x40 MLOAD PUSH3 0x461BCD PUSH1 0xE5 SHL DUP2 MSTORE PUSH1 0x20 PUSH1 0x4 DUP3 ADD MSTORE PUSH1 0xF DUP2 DUP5 ADD MSTORE PUSH15 0x98CADCCEE8D040DAD2E6DAC2E8C6D PUSH1 0x8B SHL PUSH1 0x44 DUP3 ADD MSTORE PUSH1 0x64 SWAP1 REVERT JUMPDEST CALLVALUE PUSH2 0x2D1 JUMPI PUSH1 0x80 CALLDATASIZE PUSH1 0x3 NOT ADD SLT PUSH2 0x2D1 JUMPI PUSH1 0x4 CALLDATALOAD PUSH1 0x44 CALLDATALOAD DUP1 ISZERO ISZERO PUSH1 0x24 CALLDATALOAD DUP2 DUP4 SUB PUSH2 0x2D1 JUMPI PUSH1 0x64 CALLDATALOAD PUSH1 0x1 PUSH1 0x1 PUSH1 0x40 SHL SUB DUP2 GT PUSH2 0x2D1 JUMPI PUSH2 0x1CA5 SWAP1 CALLDATASIZE SWAP1 PUSH1 0x4 ADD PUSH2 0x28B0 JUMP JUMPDEST PUSH1 0xF SLOAD SWAP1 SWAP5 SWAP2 SWAP1 PUSH1 0x1 PUSH1 0x1 PUSH1 0xA0 SHL SUB AND CALLER SUB PUSH2 0x1D9B JUMPI PUSH32 0xEE6088724BCECC2617103F0482E6237C070827162AB05C426EA5B173785DEC98 SWAP5 PUSH2 0x1D71 SWAP3 PUSH2 0x1CE9 PUSH2 0x3116 JUMP JUMPDEST PUSH2 0x1CF2 DUP9 PUSH2 0x2C38 JUMP JUMPDEST POP PUSH2 0x1CFC DUP6 PUSH2 0x2C38 JUMP JUMPDEST POP DUP8 PUSH1 0x0 MSTORE PUSH1 0x14 PUSH1 0x20 MSTORE PUSH1 0x40 PUSH1 0x0 KECCAK256 SWAP1 PUSH1 0x4 DUP3 ADD SWAP1 PUSH1 0x6 DUP4 ADD PUSH2 0x1D1F DUP2 SLOAD PUSH2 0x2DC6 JUMP JUMPDEST SWAP1 SSTORE ISZERO PUSH2 0x1D7E JUMPI PUSH2 0x1D30 DUP2 SLOAD PUSH2 0x2DC6 JUMP JUMPDEST SWAP1 SSTORE PUSH1 0x8 PUSH1 0x7 DUP3 ADD SWAP2 PUSH2 0x1D43 DUP4 SLOAD PUSH2 0x2DC6 JUMP JUMPDEST DUP1 SWAP4 SSTORE ADD DUP1 SLOAD DUP3 GT PUSH2 0x1D76 JUMPI JUMPDEST POP POP JUMPDEST PUSH1 0x40 MLOAD SWAP5 DUP6 SWAP5 DUP6 MSTORE PUSH1 0x20 DUP6 ADD MSTORE PUSH1 0x60 PUSH1 0x40 DUP6 ADD MSTORE PUSH1 0x60 DUP5 ADD SWAP2 PUSH2 0x2E4D JUMP JUMPDEST SUB SWAP1 LOG2 STOP JUMPDEST SSTORE DUP8 DUP1 PUSH2 0x1D50 JUMP JUMPDEST POP PUSH1 0x7 DUP2 PUSH1 0x5 PUSH1 0x0 SWAP4 ADD PUSH2 0x1D92 DUP2 SLOAD PUSH2 0x2DC6 JUMP JUMPDEST SWAP1 SSTORE ADD SSTORE PUSH2 0x1D53 JUMP JUMPDEST PUSH1 0x40 MLOAD PUSH4 0x1D9D6EA9 PUSH1 0xE3 SHL DUP2 MSTORE PUSH1 0x4 SWAP1 REVERT JUMPDEST CALLVALUE PUSH2 0x2D1 JUMPI PUSH1 0x20 CALLDATASIZE PUSH1 0x3 NOT ADD SLT PUSH2 0x2D1 JUMPI PUSH1 0x20 PUSH2 0x1DCB PUSH1 0x4 CALLDATALOAD PUSH2 0x2C38 JUMP JUMPDEST PUSH1 0x40 MLOAD PUSH1 0x1 PUSH1 0x1 PUSH1 0xA0 SHL SUB SWAP1 SWAP2 AND DUP2 MSTORE RETURN JUMPDEST CALLVALUE PUSH2 0x2D1 JUMPI PUSH1 0x0 CALLDATASIZE PUSH1 0x3 NOT ADD SLT PUSH2 0x2D1 JUMPI PUSH1 0xE SLOAD PUSH1 0x40 MLOAD PUSH1 0x1 PUSH1 0x1 PUSH1 0xA0 SHL SUB SWAP1 SWAP2 AND DUP2 MSTORE PUSH1 0x20 SWAP1 RETURN JUMPDEST CALLVALUE PUSH2 0x2D1 JUMPI PUSH1 0x0 CALLDATASIZE PUSH1 0x3 NOT ADD SLT PUSH2 0x2D1 JUMPI PUSH1 0x20 PUSH1 0xFF PUSH1 0x9 SLOAD AND PUSH1 0x40 MLOAD SWAP1 ISZERO ISZERO DUP2 MSTORE RETURN JUMPDEST CALLVALUE PUSH2 0x2D1 JUMPI PUSH1 0x0 CALLDATASIZE PUSH1 0x3 NOT ADD SLT PUSH2 0x2D1 JUMPI PUSH1 0xF SLOAD PUSH1 0x40 MLOAD PUSH1 0x1 PUSH1 0x1 PUSH1 0xA0 SHL SUB SWAP1 SWAP2 AND DUP2 MSTORE PUSH1 0x20 SWAP1 RETURN JUMPDEST CALLVALUE PUSH2 0x2D1 JUMPI PUSH1 0x20 PUSH2 0x1E62 CALLDATASIZE PUSH2 0x28DD JUMP JUMPDEST PUSH2 0x1E6B DUP4 PUSH2 0x2C38 JUMP JUMPDEST POP PUSH2 0x1E8F DUP5 PUSH1 0x40 MLOAD DUP4 DUP2 SWAP5 DUP4 DUP4 ADD SWAP7 DUP8 CALLDATACOPY DUP2 ADD PUSH1 0x0 DUP4 DUP3 ADD MSTORE SUB DUP1 DUP5 MSTORE ADD DUP3 PUSH2 0x26D2 JUMP JUMPDEST MLOAD SWAP1 KECCAK256 SWAP1 PUSH1 0x0 MSTORE PUSH1 0x14 DUP3 MSTORE PUSH1 0xA PUSH1 0x40 PUSH1 0x0 KECCAK256 ADD SLOAD EQ PUSH1 0x40 MLOAD SWAP1 DUP2 MSTORE RETURN JUMPDEST CALLVALUE PUSH2 0x2D1 JUMPI PUSH1 0x0 CALLDATASIZE PUSH1 0x3 NOT ADD SLT PUSH2 0x2D1 JUMPI PUSH1 0x20 PUSH1 0x40 MLOAD PUSH1 0x64 DUP2 MSTORE RETURN JUMPDEST CALLVALUE PUSH2 0x2D1 JUMPI PUSH2 0x1315 PUSH2 0x1ED9 CALLDATASIZE PUSH2 0x2832 JUMP JUMPDEST SWAP1 PUSH1 0x40 MLOAD SWAP3 PUSH2 0x1EE7 DUP5 PUSH2 0x26B7 JUMP JUMPDEST PUSH1 0x0 DUP5 MSTORE PUSH2 0x1540 DUP4 DUP4 DUP4 PUSH2 0x29EC JUMP JUMPDEST CALLVALUE PUSH2 0x2D1 JUMPI PUSH1 0x0 CALLDATASIZE PUSH1 0x3 NOT ADD SLT PUSH2 0x2D1 JUMPI PUSH2 0x1F0F PUSH2 0x29C0 JUMP JUMPDEST PUSH1 0x9 SLOAD PUSH1 0xFF DUP2 AND ISZERO PUSH2 0x1F4E JUMPI PUSH1 0xFF NOT AND PUSH1 0x9 SSTORE PUSH32 0x5DB9EE0A495BF2E6FF9C91A7834C1BA4FDD244A5E8AA4E537BD38AEAE4B073AA PUSH1 0x20 PUSH1 0x40 MLOAD CALLER DUP2 MSTORE LOG1 STOP JUMPDEST PUSH1 0x40 MLOAD PUSH4 0x8DFC202B PUSH1 0xE0 SHL DUP2 MSTORE PUSH1 0x4 SWAP1 REVERT JUMPDEST CALLVALUE PUSH2 0x2D1 JUMPI PUSH1 0x20 CALLDATASIZE PUSH1 0x3 NOT ADD SLT PUSH2 0x2D1 JUMPI PUSH1 0x4 CALLDATALOAD PUSH1 0x0 MSTORE PUSH1 0x14 PUSH1 0x20 MSTORE PUSH1 0x40 PUSH1 0x0 KECCAK256 DUP1 SLOAD PUSH2 0xEFC PUSH1 0x1 DUP4 ADD SLOAD SWAP3 PUSH2 0x1F98 PUSH1 0x2 DUP3 ADD PUSH2 0x26F3 JUMP JUMPDEST PUSH2 0x2054 PUSH1 0x3 DUP4 ADD SLOAD PUSH2 0x1FAC PUSH1 0x4 DUP6 ADD PUSH2 0x2867 JUMP JUMPDEST PUSH2 0x2046 PUSH2 0x1FBB PUSH1 0x9 DUP8 ADD PUSH2 0x26F3 JUMP JUMPDEST SWAP2 PUSH2 0x2014 PUSH2 0x1FF4 PUSH2 0x1FD3 PUSH1 0xB PUSH1 0xA DUP12 ADD SLOAD SWAP11 ADD PUSH2 0x26F3 JUMP JUMPDEST SWAP8 PUSH1 0x40 MLOAD SWAP13 DUP14 SWAP13 DUP14 MSTORE PUSH1 0x20 DUP14 ADD MSTORE PUSH1 0x40 DUP13 PUSH2 0x1A0 SWAP2 DUP3 SWAP2 ADD MSTORE DUP13 ADD SWAP1 PUSH2 0x27BC JUMP JUMPDEST PUSH1 0x1 PUSH1 0x1 PUSH1 0xA0 SHL SUB DUP7 AND PUSH1 0x60 DUP13 ADD MSTORE SWAP5 PUSH1 0x80 DUP12 ADD SWAP1 PUSH1 0xA0 SHR PUSH1 0xFF AND PUSH2 0x28A3 JUMP JUMPDEST DUP1 MLOAD PUSH1 0xA0 DUP11 ADD MSTORE PUSH1 0x20 DUP2 ADD MLOAD PUSH1 0xC0 DUP11 ADD MSTORE PUSH1 0x40 DUP2 ADD MLOAD PUSH1 0xE0 DUP11 ADD MSTORE PUSH1 0x60 DUP2 ADD MLOAD PUSH2 0x100 DUP11 ADD MSTORE PUSH1 0x80 ADD MLOAD PUSH2 0x120 DUP10 ADD MSTORE JUMP JUMPDEST DUP7 DUP3 SUB PUSH2 0x140 DUP9 ADD MSTORE PUSH2 0x27BC JUMP JUMPDEST SWAP2 PUSH2 0x160 DUP6 ADD MSTORE DUP4 DUP3 SUB PUSH2 0x180 DUP6 ADD MSTORE PUSH2 0x27BC JUMP JUMPDEST CALLVALUE PUSH2 0x2D1 JUMPI PUSH1 0x20 CALLDATASIZE PUSH1 0x3 NOT ADD SLT PUSH2 0x2D1 JUMPI PUSH1 0x4 CALLDATALOAD PUSH2 0x2086 DUP2 PUSH2 0x2C38 JUMP JUMPDEST CALLER PUSH1 0x1 PUSH1 0x1 PUSH1 0xA0 SHL SUB SWAP1 SWAP2 AND SUB PUSH2 0x107C JUMPI DUP1 PUSH1 0x0 MSTORE PUSH1 0x15 PUSH1 0x20 MSTORE PUSH1 0xFF PUSH1 0x1 PUSH1 0x40 PUSH1 0x0 KECCAK256 ADD SLOAD PUSH1 0xA0 SHR AND ISZERO PUSH2 0x51D JUMPI DUP1 PUSH1 0x0 MSTORE PUSH1 0x15 PUSH1 0x20 MSTORE PUSH1 0x40 PUSH1 0x0 KECCAK256 PUSH1 0x1 DUP2 ADD SWAP1 PUSH1 0x0 DUP3 SLOAD SWAP2 SSTORE PUSH1 0x1 PUSH1 0x1 PUSH1 0x58 SHL SUB PUSH1 0xA8 SHL AND SWAP1 SSTORE PUSH32 0x411AEE90354C51B1B04CD563FCAB2617142A9D50DA19232D888547C8A1B7FD8A PUSH1 0x0 DUP1 LOG2 STOP JUMPDEST CALLVALUE PUSH2 0x2D1 JUMPI PUSH1 0x20 CALLDATASIZE PUSH1 0x3 NOT ADD SLT PUSH2 0x2D1 JUMPI PUSH1 0x4 CALLDATALOAD PUSH1 0x0 PUSH1 0x80 PUSH1 0x40 MLOAD PUSH2 0x2126 DUP2 PUSH2 0x269C JUMP JUMPDEST DUP3 DUP2 MSTORE DUP3 PUSH1 0x20 DUP3 ADD MSTORE DUP3 PUSH1 0x40 DUP3 ADD MSTORE DUP3 PUSH1 0x60 DUP3 ADD MSTORE ADD MSTORE PUSH2 0x2146 DUP2 PUSH2 0x2C38 JUMP JUMPDEST POP PUSH1 0x0 MSTORE PUSH1 0x14 PUSH1 0x20 MSTORE PUSH1 0xA0 PUSH2 0x2161 PUSH1 0x4 PUSH1 0x40 PUSH1 0x0 KECCAK256 ADD PUSH2 0x2867 JUMP JUMPDEST PUSH2 0x2196 PUSH1 0x40 MLOAD DUP1 SWAP3 PUSH1 0x80 DUP1 SWAP2 DUP1 MLOAD DUP5 MSTORE PUSH1 0x20 DUP2 ADD MLOAD PUSH1 0x20 DUP6 ADD MSTORE PUSH1 0x40 DUP2 ADD MLOAD PUSH1 0x40 DUP6 ADD MSTORE PUSH1 0x60 DUP2 ADD MLOAD PUSH1 0x60 DUP6 ADD MSTORE ADD MLOAD SWAP2 ADD MSTORE JUMP JUMPDEST RETURN JUMPDEST CALLVALUE PUSH2 0x2D1 JUMPI PUSH2 0x1315 PUSH2 0x21A9 CALLDATASIZE PUSH2 0x2832 JUMP JUMPDEST SWAP2 PUSH2 0x29EC JUMP JUMPDEST CALLVALUE PUSH2 0x2D1 JUMPI PUSH1 0x0 CALLDATASIZE PUSH1 0x3 NOT ADD SLT PUSH2 0x2D1 JUMPI PUSH1 0x20 PUSH1 0x10 SLOAD PUSH1 0x40 MLOAD SWAP1 DUP2 MSTORE RETURN JUMPDEST CALLVALUE PUSH2 0x2D1 JUMPI PUSH1 0x20 CALLDATASIZE PUSH1 0x3 NOT ADD SLT PUSH2 0x2D1 JUMPI PUSH1 0x4 CALLDATALOAD PUSH1 0x5 DUP2 LT ISZERO PUSH2 0x2D1 JUMPI PUSH2 0x21F5 PUSH1 0x20 SWAP2 PUSH2 0x262E JUMP JUMPDEST SLOAD PUSH1 0x40 MLOAD SWAP1 DUP2 MSTORE RETURN JUMPDEST CALLVALUE PUSH2 0x2D1 JUMPI PUSH1 0x0 CALLDATASIZE PUSH1 0x3 NOT ADD SLT PUSH2 0x2D1 JUMPI PUSH1 0x20 PUSH1 0xA SLOAD PUSH1 0x40 MLOAD SWAP1 DUP2 MSTORE RETURN JUMPDEST CALLVALUE PUSH2 0x2D1 JUMPI PUSH1 0x20 CALLDATASIZE PUSH1 0x3 NOT ADD SLT PUSH2 0x2D1 JUMPI PUSH1 0x0 PUSH1 0x40 DUP1 MLOAD PUSH2 0x223C DUP2 PUSH2 0x2681 JUMP JUMPDEST DUP3 DUP2 MSTORE DUP3 PUSH1 0x20 DUP3 ADD MSTORE ADD MSTORE PUSH1 0x4 CALLDATALOAD PUSH1 0x0 MSTORE PUSH1 0x15 PUSH1 0x20 MSTORE PUSH1 0x60 PUSH1 0x40 PUSH1 0x0 KECCAK256 PUSH1 0x40 MLOAD PUSH2 0x2265 DUP2 PUSH2 0x2681 JUMP JUMPDEST PUSH1 0x1 DUP3 SLOAD SWAP3 DUP4 DUP4 MSTORE ADD SLOAD SWAP1 PUSH1 0x20 DUP2 ADD PUSH1 0xFF PUSH1 0x40 PUSH1 0x1 DUP1 PUSH1 0xA0 SHL SUB SWAP4 DUP5 DUP7 AND DUP5 MSTORE ADD SWAP4 PUSH1 0xA0 SHR AND ISZERO ISZERO DUP4 MSTORE PUSH1 0x40 MLOAD SWAP4 DUP5 MSTORE MLOAD AND PUSH1 0x20 DUP4 ADD MSTORE MLOAD ISZERO ISZERO PUSH1 0x40 DUP3 ADD MSTORE RETURN JUMPDEST CALLVALUE PUSH2 0x2D1 JUMPI PUSH2 0x22B4 CALLDATASIZE PUSH2 0x281C JUMP JUMPDEST SWAP1 PUSH2 0x22BD PUSH2 0x29C0 JUMP JUMPDEST PUSH1 0x5 DUP2 LT ISZERO PUSH2 0x22CC JUMPI PUSH1 0x18 ADD SSTORE STOP JUMPDEST PUSH1 0x40 MLOAD PUSH3 0x461BCD PUSH1 0xE5 SHL DUP2 MSTORE PUSH1 0x20 PUSH1 0x4 DUP3 ADD MSTORE PUSH1 0xD PUSH1 0x24 DUP3 ADD MSTORE PUSH13 0x92DCECC2D8D2C840D2DCC8CAF PUSH1 0x9B SHL PUSH1 0x44 DUP3 ADD MSTORE PUSH1 0x64 SWAP1 REVERT JUMPDEST CALLVALUE PUSH2 0x2D1 JUMPI PUSH1 0x20 CALLDATASIZE PUSH1 0x3 NOT ADD SLT PUSH2 0x2D1 JUMPI PUSH1 0x4 CALLDATALOAD DUP1 ISZERO ISZERO DUP1 SWAP2 SUB PUSH2 0x2D1 JUMPI PUSH2 0x2327 PUSH2 0x29C0 JUMP JUMPDEST PUSH1 0xFF DUP1 NOT PUSH1 0x12 SLOAD AND SWAP2 AND OR PUSH1 0x12 SSTORE PUSH1 0x0 DUP1 RETURN JUMPDEST CALLVALUE PUSH2 0x2D1 JUMPI PUSH1 0x40 CALLDATASIZE PUSH1 0x3 NOT ADD SLT PUSH2 0x2D1 JUMPI PUSH2 0x2353 PUSH2 0x27E1 JUMP JUMPDEST PUSH1 0x24 CALLDATALOAD PUSH2 0x235F DUP2 PUSH2 0x2C38 JUMP JUMPDEST CALLER ISZERO ISZERO DUP1 PUSH2 0x240E JUMPI JUMPDEST DUP1 PUSH2 0x23E1 JUMPI JUMPDEST PUSH2 0x23C9 JUMPI PUSH1 0x1 PUSH1 0x1 PUSH1 0xA0 SHL SUB SWAP3 DUP4 AND SWAP3 DUP3 SWAP2 DUP5 SWAP2 AND PUSH32 0x8C5BE1E5EBEC7D5BD14F71427D1E84F3DD0314C0F7B2291E5B200AC8C7C3B925 PUSH1 0x0 DUP1 LOG4 PUSH1 0x0 SWAP1 DUP2 MSTORE PUSH1 0x4 PUSH1 0x20 MSTORE PUSH1 0x40 SWAP1 KECCAK256 DUP1 SLOAD PUSH1 0x1 PUSH1 0x1 PUSH1 0xA0 SHL SUB NOT AND SWAP1 SWAP2 OR SWAP1 SSTORE STOP JUMPDEST PUSH1 0x40 MLOAD PUSH4 0xA9FBF51F PUSH1 0xE0 SHL DUP2 MSTORE CALLER PUSH1 0x4 DUP3 ADD MSTORE PUSH1 0x24 SWAP1 REVERT JUMPDEST POP PUSH1 0x1 DUP1 PUSH1 0xA0 SHL SUB DUP2 AND PUSH1 0x0 MSTORE PUSH1 0x5 PUSH1 0x20 MSTORE PUSH1 0x40 PUSH1 0x0 KECCAK256 CALLER PUSH1 0x0 MSTORE PUSH1 0x20 MSTORE PUSH1 0xFF PUSH1 0x40 PUSH1 0x0 KECCAK256 SLOAD AND ISZERO PUSH2 0x236E JUMP JUMPDEST POP PUSH1 0x1 PUSH1 0x1 PUSH1 0xA0 SHL SUB DUP2 AND CALLER EQ ISZERO PUSH2 0x2368 JUMP JUMPDEST CALLVALUE PUSH2 0x2D1 JUMPI PUSH1 0x20 CALLDATASIZE PUSH1 0x3 NOT ADD SLT PUSH2 0x2D1 JUMPI PUSH1 0x4 CALLDATALOAD PUSH2 0x243E DUP2 PUSH2 0x2C38 JUMP JUMPDEST POP PUSH1 0x0 MSTORE PUSH1 0x4 PUSH1 0x20 MSTORE PUSH1 0x20 PUSH1 0x1 DUP1 PUSH1 0xA0 SHL SUB PUSH1 0x40 PUSH1 0x0 KECCAK256 SLOAD AND PUSH1 0x40 MLOAD SWAP1 DUP2 MSTORE RETURN JUMPDEST CALLVALUE PUSH2 0x2D1 JUMPI PUSH1 0x0 CALLDATASIZE PUSH1 0x3 NOT ADD SLT PUSH2 0x2D1 JUMPI PUSH1 0x40 MLOAD PUSH1 0x0 DUP1 SLOAD PUSH2 0x2480 DUP2 PUSH2 0x2647 JUMP JUMPDEST DUP1 DUP5 MSTORE SWAP1 PUSH1 0x1 SWAP1 DUP2 DUP2 AND SWAP1 DUP2 ISZERO PUSH2 0xF5B JUMPI POP PUSH1 0x1 EQ PUSH2 0x24A9 JUMPI PUSH2 0xEFC DUP5 PUSH2 0xEE8 DUP2 DUP7 SUB DUP3 PUSH2 0x26D2 JUMP JUMPDEST PUSH1 0x0 DUP1 DUP1 MSTORE SWAP3 POP PUSH32 0x290DECD9548B62A8D60345A988386FC84BA6BC95484008F6362F93160EF3E563 JUMPDEST DUP3 DUP5 LT PUSH2 0x24EA JUMPI POP POP POP DUP2 ADD PUSH1 0x20 ADD PUSH2 0xEE8 DUP3 PUSH2 0xED8 JUMP JUMPDEST DUP1 SLOAD PUSH1 0x20 DUP6 DUP8 ADD DUP2 ADD SWAP2 SWAP1 SWAP2 MSTORE SWAP1 SWAP4 ADD SWAP3 DUP2 ADD PUSH2 0x24D2 JUMP JUMPDEST CALLVALUE PUSH2 0x2D1 JUMPI PUSH1 0x20 CALLDATASIZE PUSH1 0x3 NOT ADD SLT PUSH2 0x2D1 JUMPI PUSH1 0x4 CALLDATALOAD PUSH1 0x5 DUP2 LT ISZERO PUSH2 0x2D1 JUMPI PUSH2 0xEE8 PUSH2 0xD3B PUSH2 0xEFC SWAP3 PUSH2 0x2615 JUMP JUMPDEST CALLVALUE PUSH2 0x2D1 JUMPI PUSH1 0x20 CALLDATASIZE PUSH1 0x3 NOT ADD SLT PUSH2 0x2D1 JUMPI PUSH1 0x4 CALLDATALOAD PUSH2 0x254A PUSH2 0x29C0 JUMP JUMPDEST PUSH2 0x3E8 DUP2 GT PUSH2 0x2558 JUMPI PUSH1 0x11 SSTORE STOP JUMPDEST PUSH1 0x40 MLOAD PUSH3 0x461BCD PUSH1 0xE5 SHL DUP2 MSTORE PUSH1 0x20 PUSH1 0x4 DUP3 ADD MSTORE PUSH1 0x10 PUSH1 0x24 DUP3 ADD MSTORE PUSH16 0xA4DEF2C2D8E8F240E8DEDE40D0D2CED PUSH1 0x83 SHL PUSH1 0x44 DUP3 ADD MSTORE PUSH1 0x64 SWAP1 REVERT JUMPDEST CALLVALUE PUSH2 0x2D1 JUMPI PUSH1 0x20 CALLDATASIZE PUSH1 0x3 NOT ADD SLT PUSH2 0x2D1 JUMPI PUSH1 0x4 CALLDATALOAD SWAP1 PUSH4 0xFFFFFFFF PUSH1 0xE0 SHL DUP3 AND DUP1 SWAP3 SUB PUSH2 0x2D1 JUMPI PUSH1 0x20 SWAP2 PUSH4 0x24832483 PUSH1 0xE1 SHL DUP2 EQ SWAP1 DUP2 ISZERO PUSH2 0x25D2 JUMPI JUMPDEST POP ISZERO ISZERO DUP2 MSTORE RETURN JUMPDEST PUSH4 0x80AC58CD PUSH1 0xE0 SHL DUP2 EQ SWAP2 POP DUP2 ISZERO PUSH2 0x2604 JUMPI JUMPDEST DUP2 ISZERO PUSH2 0x25F3 JUMPI JUMPDEST POP DUP4 PUSH2 0x25CB JUMP JUMPDEST PUSH4 0x1FFC9A7 PUSH1 0xE0 SHL EQ SWAP1 POP DUP4 PUSH2 0x25EC JUMP JUMPDEST PUSH4 0x5B5E139F PUSH1 0xE0 SHL DUP2 EQ SWAP2 POP PUSH2 0x25E5 JUMP JUMPDEST PUSH1 0x5 DUP2 LT ISZERO PUSH2 0xBF1 JUMPI PUSH1 0x0 MSTORE PUSH1 0x17 PUSH1 0x20 MSTORE PUSH1 0x40 PUSH1 0x0 KECCAK256 SWAP1 JUMP JUMPDEST PUSH1 0x5 DUP2 LT ISZERO PUSH2 0xBF1 JUMPI PUSH1 0x0 MSTORE PUSH1 0xC PUSH1 0x20 MSTORE PUSH1 0x40 PUSH1 0x0 KECCAK256 SWAP1 JUMP JUMPDEST SWAP1 PUSH1 0x1 DUP3 DUP2 SHR SWAP3 AND DUP1 ISZERO PUSH2 0x2677 JUMPI JUMPDEST PUSH1 0x20 DUP4 LT EQ PUSH2 0x2661 JUMPI JUMP JUMPDEST PUSH4 0x4E487B71 PUSH1 0xE0 SHL PUSH1 0x0 MSTORE PUSH1 0x22 PUSH1 0x4 MSTORE PUSH1 0x24 PUSH1 0x0 REVERT JUMPDEST SWAP2 PUSH1 0x7F AND SWAP2 PUSH2 0x2656 JUMP JUMPDEST PUSH1 0x60 DUP2 ADD SWAP1 DUP2 LT PUSH1 0x1 PUSH1 0x1 PUSH1 0x40 SHL SUB DUP3 GT OR PUSH2 0x9F9 JUMPI PUSH1 0x40 MSTORE JUMP JUMPDEST PUSH1 0xA0 DUP2 ADD SWAP1 DUP2 LT PUSH1 0x1 PUSH1 0x1 PUSH1 0x40 SHL SUB DUP3 GT OR PUSH2 0x9F9 JUMPI PUSH1 0x40 MSTORE JUMP JUMPDEST PUSH1 0x20 DUP2 ADD SWAP1 DUP2 LT PUSH1 0x1 PUSH1 0x1 PUSH1 0x40 SHL SUB DUP3 GT OR PUSH2 0x9F9 JUMPI PUSH1 0x40 MSTORE JUMP JUMPDEST SWAP1 PUSH1 0x1F DUP1 NOT SWAP2 ADD AND DUP2 ADD SWAP1 DUP2 LT PUSH1 0x1 PUSH1 0x1 PUSH1 0x40 SHL SUB DUP3 GT OR PUSH2 0x9F9 JUMPI PUSH1 0x40 MSTORE JUMP JUMPDEST SWAP1 PUSH1 0x40 MLOAD SWAP2 DUP3 PUSH1 0x0 DUP3 SLOAD SWAP3 PUSH2 0x2707 DUP5 PUSH2 0x2647 JUMP JUMPDEST SWAP1 DUP2 DUP5 MSTORE PUSH1 0x1 SWAP5 DUP6 DUP2 AND SWAP1 DUP2 PUSH1 0x0 EQ PUSH2 0x2776 JUMPI POP PUSH1 0x1 EQ PUSH2 0x2733 JUMPI JUMPDEST POP POP PUSH2 0x2731 SWAP3 POP SUB DUP4 PUSH2 0x26D2 JUMP JUMPDEST JUMP JUMPDEST SWAP1 SWAP4 SWAP2 POP PUSH1 0x0 MSTORE PUSH1 0x20 SWAP1 DUP2 PUSH1 0x0 KECCAK256 SWAP4 PUSH1 0x0 SWAP2 JUMPDEST DUP2 DUP4 LT PUSH2 0x275E JUMPI POP POP PUSH2 0x2731 SWAP4 POP DUP3 ADD ADD CODESIZE DUP1 PUSH2 0x2723 JUMP JUMPDEST DUP6 SLOAD DUP9 DUP5 ADD DUP6 ADD MSTORE SWAP5 DUP6 ADD SWAP5 DUP8 SWAP5 POP SWAP2 DUP4 ADD SWAP2 PUSH2 0x2746 JUMP JUMPDEST SWAP2 POP POP PUSH2 0x2731 SWAP5 POP PUSH1 0x20 SWAP3 POP PUSH1 0xFF NOT AND DUP3 DUP5 ADD MSTORE ISZERO ISZERO PUSH1 0x5 SHL DUP3 ADD ADD CODESIZE DUP1 PUSH2 0x2723 JUMP JUMPDEST PUSH1 0x0 JUMPDEST DUP4 DUP2 LT PUSH2 0x27AC JUMPI POP POP PUSH1 0x0 SWAP2 ADD MSTORE JUMP JUMPDEST DUP2 DUP2 ADD MLOAD DUP4 DUP3 ADD MSTORE PUSH1 0x20 ADD PUSH2 0x279C JUMP JUMPDEST SWAP1 PUSH1 0x20 SWAP2 PUSH2 0x27D5 DUP2 MLOAD DUP1 SWAP3 DUP2 DUP6 MSTORE DUP6 DUP1 DUP7 ADD SWAP2 ADD PUSH2 0x2799 JUMP JUMPDEST PUSH1 0x1F ADD PUSH1 0x1F NOT AND ADD ADD SWAP1 JUMP JUMPDEST PUSH1 0x4 CALLDATALOAD SWAP1 PUSH1 0x1 PUSH1 0x1 PUSH1 0xA0 SHL SUB DUP3 AND DUP3 SUB PUSH2 0x2D1 JUMPI JUMP JUMPDEST PUSH1 0x24 CALLDATALOAD SWAP1 PUSH1 0x1 PUSH1 0x1 PUSH1 0xA0 SHL SUB DUP3 AND DUP3 SUB PUSH2 0x2D1 JUMPI JUMP JUMPDEST PUSH1 0x24 CALLDATALOAD SWAP1 DUP2 ISZERO ISZERO DUP3 SUB PUSH2 0x2D1 JUMPI JUMP JUMPDEST PUSH1 0x40 SWAP1 PUSH1 0x3 NOT ADD SLT PUSH2 0x2D1 JUMPI PUSH1 0x4 CALLDATALOAD SWAP1 PUSH1 0x24 CALLDATALOAD SWAP1 JUMP JUMPDEST PUSH1 0x60 SWAP1 PUSH1 0x3 NOT ADD SLT PUSH2 0x2D1 JUMPI PUSH1 0x1 PUSH1 0x1 PUSH1 0xA0 SHL SUB SWAP1 PUSH1 0x4 CALLDATALOAD DUP3 DUP2 AND DUP2 SUB PUSH2 0x2D1 JUMPI SWAP2 PUSH1 0x24 CALLDATALOAD SWAP1 DUP2 AND DUP2 SUB PUSH2 0x2D1 JUMPI SWAP1 PUSH1 0x44 CALLDATALOAD SWAP1 JUMP JUMPDEST SWAP1 PUSH1 0x40 MLOAD PUSH2 0x2874 DUP2 PUSH2 0x269C JUMP JUMPDEST PUSH1 0x80 PUSH1 0x4 DUP3 SWAP5 DUP1 SLOAD DUP5 MSTORE PUSH1 0x1 DUP2 ADD SLOAD PUSH1 0x20 DUP6 ADD MSTORE PUSH1 0x2 DUP2 ADD SLOAD PUSH1 0x40 DUP6 ADD MSTORE PUSH1 0x3 DUP2 ADD SLOAD PUSH1 0x60 DUP6 ADD MSTORE ADD SLOAD SWAP2 ADD MSTORE JUMP JUMPDEST SWAP1 PUSH1 0x5 DUP3 LT ISZERO PUSH2 0xBF1 JUMPI MSTORE JUMP JUMPDEST SWAP2 DUP2 PUSH1 0x1F DUP5 ADD SLT ISZERO PUSH2 0x2D1 JUMPI DUP3 CALLDATALOAD SWAP2 PUSH1 0x1 PUSH1 0x1 PUSH1 0x40 SHL SUB DUP4 GT PUSH2 0x2D1 JUMPI PUSH1 0x20 DUP4 DUP2 DUP7 ADD SWAP6 ADD ADD GT PUSH2 0x2D1 JUMPI JUMP JUMPDEST SWAP1 PUSH1 0x40 PUSH1 0x3 NOT DUP4 ADD SLT PUSH2 0x2D1 JUMPI PUSH1 0x4 CALLDATALOAD SWAP2 PUSH1 0x24 CALLDATALOAD SWAP1 PUSH1 0x1 PUSH1 0x1 PUSH1 0x40 SHL SUB DUP3 GT PUSH2 0x2D1 JUMPI PUSH2 0x290C SWAP2 PUSH1 0x4 ADD PUSH2 0x28B0 JUMP JUMPDEST SWAP1 SWAP2 JUMP JUMPDEST SWAP2 DUP2 PUSH1 0x1F DUP5 ADD SLT ISZERO PUSH2 0x2D1 JUMPI DUP3 CALLDATALOAD SWAP2 PUSH1 0x1 PUSH1 0x1 PUSH1 0x40 SHL SUB DUP4 GT PUSH2 0x2D1 JUMPI PUSH1 0x20 DUP1 DUP6 ADD SWAP5 DUP5 PUSH1 0x5 SHL ADD ADD GT PUSH2 0x2D1 JUMPI JUMP JUMPDEST DUP1 SLOAD DUP3 LT ISZERO PUSH2 0x2958 JUMPI PUSH1 0x0 MSTORE PUSH1 0x20 PUSH1 0x0 KECCAK256 ADD SWAP1 PUSH1 0x0 SWAP1 JUMP JUMPDEST PUSH4 0x4E487B71 PUSH1 0xE0 SHL PUSH1 0x0 MSTORE PUSH1 0x32 PUSH1 0x4 MSTORE PUSH1 0x24 PUSH1 0x0 REVERT JUMPDEST PUSH1 0x1 PUSH1 0x1 PUSH1 0x40 SHL SUB DUP2 GT PUSH2 0x9F9 JUMPI PUSH1 0x1F ADD PUSH1 0x1F NOT AND PUSH1 0x20 ADD SWAP1 JUMP JUMPDEST SWAP3 SWAP2 SWAP3 PUSH2 0x2995 DUP3 PUSH2 0x296E JUMP JUMPDEST SWAP2 PUSH2 0x29A3 PUSH1 0x40 MLOAD SWAP4 DUP5 PUSH2 0x26D2 JUMP JUMPDEST DUP3 SWAP5 DUP2 DUP5 MSTORE DUP2 DUP4 ADD GT PUSH2 0x2D1 JUMPI DUP3 DUP2 PUSH1 0x20 SWAP4 DUP5 PUSH1 0x0 SWAP7 ADD CALLDATACOPY ADD ADD MSTORE JUMP JUMPDEST PUSH1 0x7 SLOAD PUSH1 0x1 PUSH1 0x1 PUSH1 0xA0 SHL SUB AND CALLER SUB PUSH2 0x29D4 JUMPI JUMP JUMPDEST PUSH1 0x40 MLOAD PUSH4 0x118CDAA7 PUSH1 0xE0 SHL DUP2 MSTORE CALLER PUSH1 0x4 DUP3 ADD MSTORE PUSH1 0x24 SWAP1 REVERT JUMPDEST SWAP1 PUSH1 0x1 PUSH1 0x1 PUSH1 0xA0 SHL SUB SWAP1 DUP2 AND DUP1 ISZERO PUSH2 0x4D9 JUMPI PUSH1 0x0 SWAP2 DUP5 DUP4 MSTORE DUP5 PUSH1 0x20 SWAP3 PUSH1 0x2 DUP5 MSTORE PUSH1 0x40 SWAP4 DUP4 DUP6 DUP8 KECCAK256 SLOAD AND SWAP6 DUP7 SWAP2 CALLER ISZERO ISZERO DUP1 PUSH2 0x2AE6 JUMPI JUMPDEST POP SWAP1 PUSH1 0x2 PUSH32 0xDDF252AD1BE2C89B69C2B068FC378DAA952BA7F163C4A11628F55A4DF523B3EF SWAP3 DUP5 PUSH2 0x2AB3 JUMPI JUMPDEST DUP6 DUP4 MSTORE PUSH1 0x3 DUP2 MSTORE DUP9 DUP4 KECCAK256 DUP1 SLOAD PUSH1 0x1 ADD SWAP1 SSTORE DUP7 DUP4 MSTORE MSTORE DUP7 DUP2 KECCAK256 DUP1 SLOAD PUSH1 0x1 PUSH1 0x1 PUSH1 0xA0 SHL SUB NOT AND DUP6 OR SWAP1 SSTORE DUP1 LOG4 DUP4 AND DUP3 SUB PUSH2 0x2A85 JUMPI POP POP POP POP JUMP JUMPDEST MLOAD PUSH4 0x64283D7B PUSH1 0xE0 SHL DUP2 MSTORE PUSH1 0x1 PUSH1 0x1 PUSH1 0xA0 SHL SUB SWAP3 DUP4 AND PUSH1 0x4 DUP3 ADD MSTORE PUSH1 0x24 DUP2 ADD SWAP4 SWAP1 SWAP4 MSTORE AND PUSH1 0x44 DUP3 ADD MSTORE PUSH1 0x64 SWAP1 REVERT JUMPDEST PUSH1 0x0 DUP8 DUP2 MSTORE PUSH1 0x4 PUSH1 0x20 MSTORE PUSH1 0x40 SWAP1 KECCAK256 DUP1 SLOAD PUSH1 0x1 PUSH1 0x1 PUSH1 0xA0 SHL SUB NOT AND SWAP1 SSTORE DUP5 DUP4 MSTORE PUSH1 0x3 DUP2 MSTORE DUP9 DUP4 KECCAK256 DUP1 SLOAD PUSH1 0x0 NOT ADD SWAP1 SSTORE PUSH2 0x2A4D JUMP JUMPDEST SWAP2 SWAP4 SWAP5 POP SWAP2 POP DUP1 PUSH2 0x2B3B JUMPI JUMPDEST ISZERO PUSH2 0x2B02 JUMPI DUP8 SWAP3 SWAP2 DUP7 SWAP2 CODESIZE PUSH2 0x2A21 JUMP JUMPDEST DUP5 DUP9 DUP8 PUSH2 0x2B1F JUMPI PUSH1 0x24 SWAP2 MLOAD SWAP1 PUSH4 0x7E273289 PUSH1 0xE0 SHL DUP3 MSTORE PUSH1 0x4 DUP3 ADD MSTORE REVERT JUMPDEST PUSH1 0x44 SWAP2 MLOAD SWAP1 PUSH4 0x177E802F PUSH1 0xE0 SHL DUP3 MSTORE CALLER PUSH1 0x4 DUP4 ADD MSTORE PUSH1 0x24 DUP3 ADD MSTORE REVERT JUMPDEST POP CALLER DUP7 EQ DUP1 ISZERO PUSH2 0x2B60 JUMPI JUMPDEST DUP1 PUSH2 0x2AF2 JUMPI POP DUP8 DUP3 MSTORE PUSH1 0x4 DUP2 MSTORE CALLER DUP5 DUP7 DUP5 KECCAK256 SLOAD AND EQ PUSH2 0x2AF2 JUMP JUMPDEST POP DUP6 DUP3 MSTORE PUSH1 0x5 DUP2 MSTORE DUP5 DUP3 KECCAK256 CALLER DUP4 MSTORE DUP2 MSTORE PUSH1 0xFF DUP6 DUP4 KECCAK256 SLOAD AND PUSH2 0x2B46 JUMP JUMPDEST PUSH1 0x0 DUP3 DUP2 MSTORE PUSH1 0x2 PUSH1 0x20 MSTORE PUSH1 0x40 DUP2 KECCAK256 SLOAD PUSH1 0x1 PUSH1 0x1 PUSH1 0xA0 SHL SUB SWAP1 DUP2 AND SWAP4 SWAP3 DUP5 SWAP2 PUSH32 0xDDF252AD1BE2C89B69C2B068FC378DAA952BA7F163C4A11628F55A4DF523B3EF SWAP2 DUP4 PUSH2 0x2C03 JUMPI JUMPDEST AND SWAP3 DUP4 PUSH2 0x2BEB JUMPI JUMPDEST DUP5 DUP2 MSTORE PUSH1 0x2 PUSH1 0x20 MSTORE PUSH1 0x40 DUP2 KECCAK256 DUP1 SLOAD PUSH1 0x1 PUSH1 0x1 PUSH1 0xA0 SHL SUB NOT AND DUP6 OR SWAP1 SSTORE DUP1 LOG4 SWAP1 JUMP JUMPDEST DUP4 DUP2 MSTORE PUSH1 0x3 PUSH1 0x20 MSTORE PUSH1 0x40 DUP2 KECCAK256 PUSH1 0x1 DUP2 SLOAD ADD SWAP1 SSTORE PUSH2 0x2BCA JUMP JUMPDEST PUSH1 0x0 DUP7 DUP2 MSTORE PUSH1 0x4 PUSH1 0x20 MSTORE PUSH1 0x40 SWAP1 KECCAK256 DUP1 SLOAD PUSH1 0x1 PUSH1 0x1 PUSH1 0xA0 SHL SUB NOT AND SWAP1 SSTORE DUP4 DUP6 MSTORE PUSH1 0x3 PUSH1 0x20 MSTORE PUSH1 0x40 DUP6 KECCAK256 DUP1 SLOAD PUSH1 0x0 NOT ADD SWAP1 SSTORE PUSH2 0x2BC2 JUMP JUMPDEST PUSH1 0x0 DUP2 DUP2 MSTORE PUSH1 0x2 PUSH1 0x20 MSTORE PUSH1 0x40 SWAP1 KECCAK256 SLOAD PUSH1 0x1 PUSH1 0x1 PUSH1 0xA0 SHL SUB AND SWAP1 DUP2 ISZERO PUSH2 0x2C5B JUMPI POP SWAP1 JUMP JUMPDEST PUSH1 0x24 SWAP1 PUSH1 0x40 MLOAD SWAP1 PUSH4 0x7E273289 PUSH1 0xE0 SHL DUP3 MSTORE PUSH1 0x4 DUP3 ADD MSTORE REVERT JUMPDEST RETURNDATASIZE ISZERO PUSH2 0x2C9E JUMPI RETURNDATASIZE SWAP1 PUSH2 0x2C84 DUP3 PUSH2 0x296E JUMP JUMPDEST SWAP2 PUSH2 0x2C92 PUSH1 0x40 MLOAD SWAP4 DUP5 PUSH2 0x26D2 JUMP JUMPDEST DUP3 MSTORE RETURNDATASIZE PUSH1 0x0 PUSH1 0x20 DUP5 ADD RETURNDATACOPY JUMP JUMPDEST PUSH1 0x60 SWAP1 JUMP JUMPDEST SWAP3 SWAP4 DUP3 EXTCODESIZE PUSH2 0x2CB3 JUMPI JUMPDEST POP POP POP POP POP JUMP JUMPDEST PUSH2 0x2CF7 SWAP1 PUSH1 0x1 DUP1 PUSH1 0xA0 SHL SUB DUP1 SWAP5 AND SWAP6 PUSH1 0x40 MLOAD SWAP5 DUP6 SWAP5 DUP2 PUSH4 0xA85BD01 PUSH1 0xE1 SHL SWAP9 DUP10 DUP9 MSTORE AND PUSH1 0x4 DUP8 ADD MSTORE AND PUSH1 0x24 DUP6 ADD MSTORE PUSH1 0x44 DUP5 ADD MSTORE PUSH1 0x80 PUSH1 0x64 DUP5 ADD MSTORE PUSH1 0x84 DUP4 ADD SWAP1 PUSH2 0x27BC JUMP JUMPDEST SUB SWAP1 PUSH1 0x20 DUP2 PUSH1 0x0 SWAP4 DUP2 DUP6 DUP9 GAS CALL SWAP1 DUP3 SWAP1 DUP3 PUSH2 0x2D77 JUMPI JUMPDEST POP POP PUSH2 0x2D45 JUMPI DUP3 PUSH2 0x2D1C PUSH2 0x2C73 JUMP JUMPDEST DUP1 MLOAD SWAP2 SWAP1 DUP3 PUSH2 0x2D3E JUMPI PUSH1 0x40 MLOAD PUSH4 0x32505749 PUSH1 0xE1 SHL DUP2 MSTORE PUSH1 0x4 DUP2 ADD DUP4 SWAP1 MSTORE PUSH1 0x24 SWAP1 REVERT JUMPDEST PUSH1 0x20 SWAP2 POP ADD REVERT JUMPDEST PUSH1 0x1 PUSH1 0x1 PUSH1 0xE0 SHL SUB NOT AND SUB PUSH2 0x2D5F JUMPI POP CODESIZE DUP1 DUP1 DUP1 DUP1 PUSH2 0x2CAC JUMP JUMPDEST PUSH1 0x24 SWAP1 PUSH1 0x40 MLOAD SWAP1 PUSH4 0x32505749 PUSH1 0xE1 SHL DUP3 MSTORE PUSH1 0x4 DUP3 ADD MSTORE REVERT JUMPDEST SWAP1 SWAP2 SWAP3 POP PUSH1 0x20 DUP2 RETURNDATASIZE DUP3 GT PUSH2 0x2DBE JUMPI JUMPDEST DUP2 PUSH2 0x2D93 PUSH1 0x20 SWAP4 DUP4 PUSH2 0x26D2 JUMP JUMPDEST DUP2 ADD SUB SLT PUSH2 0x2DBA JUMPI MLOAD SWAP1 PUSH1 0x1 PUSH1 0x1 PUSH1 0xE0 SHL SUB NOT DUP3 AND DUP3 SUB PUSH2 0x2DB7 JUMPI POP SWAP1 CODESIZE DUP1 PUSH2 0x2D0D JUMP JUMPDEST DUP1 REVERT JUMPDEST POP DUP1 REVERT JUMPDEST RETURNDATASIZE SWAP2 POP PUSH2 0x2D86 JUMP JUMPDEST PUSH1 0x0 NOT DUP2 EQ PUSH2 0x11A2 JUMPI PUSH1 0x1 ADD SWAP1 JUMP JUMPDEST SWAP1 PUSH1 0x1F DUP2 GT PUSH2 0x2DE3 JUMPI POP POP POP JUMP JUMPDEST PUSH1 0x0 SWAP2 DUP3 MSTORE PUSH1 0x20 DUP3 KECCAK256 SWAP1 PUSH1 0x20 PUSH1 0x1F DUP6 ADD PUSH1 0x5 SHR DUP4 ADD SWAP5 LT PUSH2 0x2E1F JUMPI JUMPDEST PUSH1 0x1F ADD PUSH1 0x5 SHR ADD SWAP2 JUMPDEST DUP3 DUP2 LT PUSH2 0x2E14 JUMPI POP POP POP JUMP JUMPDEST DUP2 DUP2 SSTORE PUSH1 0x1 ADD PUSH2 0x2E08 JUMP JUMPDEST SWAP1 SWAP3 POP DUP3 SWAP1 PUSH2 0x2DFF JUMP JUMPDEST SWAP1 PUSH1 0x5 DUP2 LT ISZERO PUSH2 0xBF1 JUMPI DUP2 SLOAD PUSH1 0xFF PUSH1 0xA0 SHL NOT AND PUSH1 0xA0 SWAP2 SWAP1 SWAP2 SHL PUSH1 0xFF PUSH1 0xA0 SHL AND OR SWAP1 SSTORE JUMP JUMPDEST SWAP1 DUP1 PUSH1 0x20 SWAP4 SWAP3 DUP2 DUP5 MSTORE DUP5 DUP5 ADD CALLDATACOPY PUSH1 0x0 DUP3 DUP3 ADD DUP5 ADD MSTORE PUSH1 0x1F ADD PUSH1 0x1F NOT AND ADD ADD SWAP1 JUMP JUMPDEST PUSH1 0x40 SWAP2 DUP3 MLOAD PUSH2 0x2E7C DUP2 PUSH2 0x26B7 JUMP JUMPDEST PUSH1 0x0 DUP1 DUP3 MSTORE PUSH1 0x1 PUSH1 0x1 PUSH1 0xA0 SHL SUB DUP5 DUP2 AND SWAP5 SWAP2 SWAP3 SWAP2 SWAP1 DUP6 ISZERO PUSH2 0x2FCC JUMPI PUSH2 0x2EA1 DUP6 DUP4 PUSH2 0x2B7C JUMP JUMPDEST AND PUSH2 0x2FB4 JUMPI EXTCODESIZE PUSH2 0x2EB2 JUMPI POP POP POP POP POP JUMP JUMPDEST PUSH1 0x20 PUSH2 0x2EEF SWAP2 DUP7 SWAP8 SWAP6 SWAP7 MLOAD DUP1 SWAP4 DUP2 SWAP3 PUSH4 0xA85BD01 PUSH1 0xE1 SHL SWAP8 DUP9 DUP5 MSTORE CALLER PUSH1 0x4 DUP6 ADD MSTORE DUP8 PUSH1 0x24 DUP6 ADD MSTORE PUSH1 0x44 DUP5 ADD MSTORE PUSH1 0x80 PUSH1 0x64 DUP5 ADD MSTORE PUSH1 0x84 DUP4 ADD SWAP1 PUSH2 0x27BC JUMP JUMPDEST SUB DUP2 DUP6 DUP10 GAS CALL SWAP1 DUP3 SWAP1 DUP3 PUSH2 0x2F6C JUMPI JUMPDEST POP POP PUSH2 0x2F37 JUMPI POP POP POP PUSH2 0x2F0F PUSH2 0x2C73 JUMP JUMPDEST DUP1 MLOAD SWAP3 SWAP1 DUP4 PUSH2 0x2F30 JUMPI DUP2 MLOAD PUSH4 0x32505749 PUSH1 0xE1 SHL DUP2 MSTORE PUSH1 0x4 DUP2 ADD DUP5 SWAP1 MSTORE PUSH1 0x24 SWAP1 REVERT JUMPDEST PUSH1 0x20 DUP5 SWAP2 ADD REVERT JUMPDEST SWAP2 SWAP4 SWAP2 PUSH1 0x1 PUSH1 0x1 PUSH1 0xE0 SHL SUB NOT AND SUB PUSH2 0x2F55 JUMPI POP POP CODESIZE DUP1 DUP1 DUP1 DUP1 PUSH2 0x2CAC JUMP JUMPDEST PUSH1 0x24 SWAP3 POP MLOAD SWAP1 PUSH4 0x32505749 PUSH1 0xE1 SHL DUP3 MSTORE PUSH1 0x4 DUP3 ADD MSTORE REVERT JUMPDEST SWAP1 SWAP2 SWAP3 POP PUSH1 0x20 DUP2 RETURNDATASIZE DUP3 GT PUSH2 0x2FAC JUMPI JUMPDEST DUP2 PUSH2 0x2F88 PUSH1 0x20 SWAP4 DUP4 PUSH2 0x26D2 JUMP JUMPDEST DUP2 ADD SUB SLT PUSH2 0x2DBA JUMPI MLOAD SWAP1 PUSH1 0x1 PUSH1 0x1 PUSH1 0xE0 SHL SUB NOT DUP3 AND DUP3 SUB PUSH2 0x2DB7 JUMPI POP SWAP1 CODESIZE DUP1 PUSH2 0x2EFE JUMP JUMPDEST RETURNDATASIZE SWAP2 POP PUSH2 0x2F7B JUMP JUMPDEST DUP6 MLOAD PUSH4 0x39E35637 PUSH1 0xE1 SHL DUP2 MSTORE PUSH1 0x4 DUP2 ADD DUP5 SWAP1 MSTORE PUSH1 0x24 SWAP1 REVERT JUMPDEST DUP7 MLOAD PUSH4 0x32505749 PUSH1 0xE1 SHL DUP2 MSTORE PUSH1 0x4 DUP2 ADD DUP6 SWAP1 MSTORE PUSH1 0x24 SWAP1 REVERT JUMPDEST SWAP2 SWAP1 SWAP2 PUSH1 0x0 SWAP1 DUP1 DUP3 MSTORE PUSH1 0x20 SWAP2 PUSH1 0x6 DUP4 MSTORE PUSH1 0x40 DUP2 KECCAK256 SWAP1 DUP6 MLOAD SWAP1 PUSH1 0x1 PUSH1 0x1 PUSH1 0x40 SHL SUB DUP3 GT PUSH2 0x3102 JUMPI PUSH2 0x301E DUP3 PUSH2 0x3018 DUP6 SLOAD PUSH2 0x2647 JUMP JUMPDEST DUP6 PUSH2 0x2DD5 JUMP JUMPDEST DUP5 SWAP1 PUSH1 0x1F DUP4 GT PUSH1 0x1 EQ PUSH2 0x307E JUMPI SWAP1 PUSH32 0xF8E1A15ABA9398E019F0B49DF1A4FDE98EE17AE345CB5F6B5E2C27F5033E8CE7 SWAP7 SWAP8 DUP4 PUSH2 0x3073 JUMPI JUMPDEST POP POP DUP2 PUSH1 0x1 SHL SWAP2 PUSH1 0x0 NOT SWAP1 PUSH1 0x3 SHL SHR NOT AND OR SWAP1 SSTORE JUMPDEST PUSH1 0x40 MLOAD SWAP1 DUP2 MSTORE LOG1 JUMP JUMPDEST ADD MLOAD SWAP1 POP CODESIZE DUP1 PUSH2 0x3055 JUMP JUMPDEST SWAP2 SWAP7 PUSH1 0x1F NOT DUP9 AND DUP5 DUP5 MSTORE DUP7 DUP5 KECCAK256 SWAP4 JUMPDEST DUP2 DUP2 LT PUSH2 0x30EB JUMPI POP SWAP2 PUSH1 0x1 SWAP4 SWAP2 DUP10 PUSH32 0xF8E1A15ABA9398E019F0B49DF1A4FDE98EE17AE345CB5F6B5E2C27F5033E8CE7 SWAP10 SWAP11 SWAP5 LT PUSH2 0x30D2 JUMPI JUMPDEST POP POP POP DUP2 SHL ADD SWAP1 SSTORE PUSH2 0x306A JUMP JUMPDEST ADD MLOAD PUSH1 0x0 NOT PUSH1 0xF8 DUP5 PUSH1 0x3 SHL AND SHR NOT AND SWAP1 SSTORE CODESIZE DUP1 DUP1 PUSH2 0x30C5 JUMP JUMPDEST SWAP3 SWAP4 DUP8 PUSH1 0x1 DUP2 SWAP3 DUP8 DUP7 ADD MLOAD DUP2 SSTORE ADD SWAP6 ADD SWAP4 ADD PUSH2 0x308D JUMP JUMPDEST PUSH4 0x4E487B71 PUSH1 0xE0 SHL DUP2 MSTORE PUSH1 0x41 PUSH1 0x4 MSTORE PUSH1 0x24 SWAP1 REVERT JUMPDEST PUSH1 0xFF PUSH1 0x9 SLOAD AND PUSH2 0x3122 JUMPI JUMP JUMPDEST PUSH1 0x40 MLOAD PUSH4 0xD93C0665 PUSH1 0xE0 SHL DUP2 MSTORE PUSH1 0x4 SWAP1 REVERT JUMPDEST SWAP2 SWAP1 DUP2 LT ISZERO PUSH2 0x2958 JUMPI PUSH1 0x5 SHL ADD SWAP1 JUMP JUMPDEST PUSH1 0x1C SLOAD DUP2 LT ISZERO PUSH2 0x3181 JUMPI PUSH1 0x1B SLOAD DUP2 LT ISZERO PUSH2 0x317B JUMPI PUSH1 0x1A SLOAD DUP2 LT ISZERO PUSH2 0x3175 JUMPI PUSH1 0x19 SLOAD GT ISZERO PUSH2 0x3170 JUMPI PUSH1 0x0 SWAP1 JUMP JUMPDEST PUSH1 0x1 SWAP1 JUMP JUMPDEST POP PUSH1 0x2 SWAP1 JUMP JUMPDEST POP PUSH1 0x3 SWAP1 JUMP JUMPDEST POP PUSH1 0x4 SWAP1 JUMP JUMPDEST DUP2 DUP2 MUL SWAP3 SWAP2 DUP2 ISZERO SWAP2 DUP5 DIV EQ OR ISZERO PUSH2 0x11A2 JUMPI JUMP JUMPDEST SWAP2 SWAP1 DUP3 SUB SWAP2 DUP3 GT PUSH2 0x11A2 JUMPI JUMP JUMPDEST DUP1 ISZERO PUSH2 0x324F JUMPI DUP1 DUP2 PUSH1 0x0 SWAP3 JUMPDEST PUSH2 0x3239 JUMPI POP PUSH2 0x31C1 DUP3 PUSH2 0x296E JUMP JUMPDEST SWAP2 PUSH2 0x31CF PUSH1 0x40 MLOAD SWAP4 DUP5 PUSH2 0x26D2 JUMP JUMPDEST DUP1 DUP4 MSTORE DUP2 PUSH1 0x1F NOT PUSH2 0x31DF DUP4 PUSH2 0x296E JUMP JUMPDEST ADD CALLDATASIZE PUSH1 0x20 DUP7 ADD CALLDATACOPY JUMPDEST PUSH2 0x31F0 JUMPI POP POP SWAP1 JUMP JUMPDEST SWAP1 PUSH1 0x0 NOT DUP3 ADD SWAP1 DUP3 DUP3 GT PUSH2 0x11A2 JUMPI DUP2 SWAP3 PUSH1 0xA SWAP3 PUSH1 0x30 SWAP1 DUP5 DUP5 MOD DUP3 ADD DUP1 SWAP3 GT PUSH2 0x11A2 JUMPI DUP7 MLOAD GT ISZERO PUSH2 0x2958 JUMPI PUSH1 0xF8 SHL PUSH1 0x1 PUSH1 0x1 PUSH1 0xF8 SHL SUB NOT AND PUSH1 0x0 BYTE SWAP1 DUP6 ADD PUSH1 0x1F ADD MSTORE8 DIV SWAP1 DUP2 PUSH2 0x31E7 JUMP JUMPDEST SWAP1 SWAP2 PUSH2 0x3246 PUSH1 0xA SWAP2 PUSH2 0x2DC6 JUMP JUMPDEST SWAP3 SWAP2 DIV DUP1 PUSH2 0x31B3 JUMP JUMPDEST POP PUSH1 0x40 MLOAD PUSH1 0x40 DUP2 ADD DUP2 DUP2 LT PUSH1 0x1 PUSH1 0x1 PUSH1 0x40 SHL SUB DUP3 GT OR PUSH2 0x9F9 JUMPI PUSH1 0x40 MSTORE PUSH1 0x1 DUP2 MSTORE PUSH1 0x3 PUSH1 0xFC SHL PUSH1 0x20 DUP3 ADD MSTORE SWAP1 JUMP INVALID LOG2 PUSH5 0x6970667358 0x22 SLT KECCAK256 ADD 0x23 0xB6 CODESIZE 0x1E SWAP5 0xF9 PUSH5 0xB643235879 CALLDATALOAD SGT COINBASE PUSH19 0xD45CDC371D28062060990A27916C9464736F6C PUSH4 0x43000814 STOP CALLER "},"methodIdentifiers":{"GENESIS_LIMIT()":"43463394","approve(address,uint256)":"095ea7b3","balanceOf(address)":"70a08231","batchMintGenesis(uint256)":"e6b02ed6","batchSetTokenURI(uint256[],string[])":"6706467b","battleResolver()":"57302cd4","buyNFA(uint256)":"fa3ec78d","cancelListing(uint256)":"305a67a8","contractURI()":"e8a3d485","creatorRoyaltyBps()":"e96c6617","evolve(uint256)":"f119f567","genesisCount()":"fffad312","getApproved(uint256)":"081812fc","getBattleStats(uint256)":"2f6f343a","getListing(uint256)":"107a274a","getNFA(uint256)":"ca21866a","getNFAsByStrategy(bytes32)":"f22f96af","getStrategy(uint256)":"cfc0cc34","isApprovedForAll(address,address)":"e985e9c5","listForSale(uint256,uint256)":"e80d7fec","listings(uint256)":"de74e57b","mint(uint256,bytes32,string,string,bytes32,string,uint8)":"f14d1a82","minters(address)":"f46eccc4","name()":"06fdde03","nfas(uint256)":"38446e5f","openMinting()":"6ba9fd38","owner()":"8da5cb5b","ownerOf(uint256)":"6352211e","pause()":"8456cb59","paused()":"5c975abb","platformFeeBps()":"22dcd13e","recordBattle(uint256,uint256,bool,string)":"64cb04ac","renounceOwnership()":"715018a6","safeTransferFrom(address,address,uint256)":"42842e0e","safeTransferFrom(address,address,uint256,bytes)":"b88d4fde","setApprovalForAll(address,bool)":"a22cb465","setBattleResolver(address)":"d0d7d9c5","setContractURI(string)":"938e3d7b","setCreatorRoyaltyBps(uint256)":"03a9ebf4","setMinter(address,bool)":"cf456ae7","setOpenMinting(bool)":"0ccba3e9","setPlatformFeeBps(uint256)":"c580c942","setTierBaseURI(uint8,string)":"6963aca8","setTierMintFee(uint8,uint256)":"f5befa9b","setTierThreshold(uint256,uint256)":"0f96fd79","setTreasury(address)":"f0f44260","strategyNFAs(bytes32,uint256)":"80866d83","supportsInterface(bytes4)":"01ffc9a7","symbol()":"95d89b41","tierBaseURIs(uint8)":"06c8c525","tierMintFees(uint8)":"18841ccd","tierThresholds(uint256)":"a100d69d","tokenURI(uint256)":"c87b56dd","totalSupply()":"18160ddd","transferFrom(address,address,uint256)":"23b872dd","transferOwnership(address)":"f2fde38b","treasury()":"61d027b3","unpause()":"3f4ba83a","verifyPrompt(uint256,string)":"8a45664e","verifyStrategy(uint256,string)":"48d34dc3"}}}}}