{
  "_format": "hh-sol-artifact-1",
  "contractName": "GemBotsNFAv2",
  "sourceName": "contracts/GemBotsNFAv2.sol",
  "abi": [
    {
      "inputs": [],
      "stateMutability": "nonpayable",
      "type": "constructor"
    },
    {
      "inputs": [
        {
          "internalType": "address",
          "name": "sender",
          "type": "address"
        },
        {
          "internalType": "uint256",
          "name": "tokenId",
          "type": "uint256"
        },
        {
          "internalType": "address",
          "name": "owner",
          "type": "address"
        }
      ],
      "name": "ERC721IncorrectOwner",
      "type": "error"
    },
    {
      "inputs": [
        {
          "internalType": "address",
          "name": "operator",
          "type": "address"
        },
        {
          "internalType": "uint256",
          "name": "tokenId",
          "type": "uint256"
        }
      ],
      "name": "ERC721InsufficientApproval",
      "type": "error"
    },
    {
      "inputs": [
        {
          "internalType": "address",
          "name": "approver",
          "type": "address"
        }
      ],
      "name": "ERC721InvalidApprover",
      "type": "error"
    },
    {
      "inputs": [
        {
          "internalType": "address",
          "name": "operator",
          "type": "address"
        }
      ],
      "name": "ERC721InvalidOperator",
      "type": "error"
    },
    {
      "inputs": [
        {
          "internalType": "address",
          "name": "owner",
          "type": "address"
        }
      ],
      "name": "ERC721InvalidOwner",
      "type": "error"
    },
    {
      "inputs": [
        {
          "internalType": "address",
          "name": "receiver",
          "type": "address"
        }
      ],
      "name": "ERC721InvalidReceiver",
      "type": "error"
    },
    {
      "inputs": [
        {
          "internalType": "address",
          "name": "sender",
          "type": "address"
        }
      ],
      "name": "ERC721InvalidSender",
      "type": "error"
    },
    {
      "inputs": [
        {
          "internalType": "uint256",
          "name": "tokenId",
          "type": "uint256"
        }
      ],
      "name": "ERC721NonexistentToken",
      "type": "error"
    },
    {
      "inputs": [
        {
          "internalType": "address",
          "name": "owner",
          "type": "address"
        }
      ],
      "name": "OwnableInvalidOwner",
      "type": "error"
    },
    {
      "inputs": [
        {
          "internalType": "address",
          "name": "account",
          "type": "address"
        }
      ],
      "name": "OwnableUnauthorizedAccount",
      "type": "error"
    },
    {
      "anonymous": false,
      "inputs": [
        {
          "indexed": true,
          "internalType": "address",
          "name": "owner",
          "type": "address"
        },
        {
          "indexed": true,
          "internalType": "address",
          "name": "approved",
          "type": "address"
        },
        {
          "indexed": true,
          "internalType": "uint256",
          "name": "tokenId",
          "type": "uint256"
        }
      ],
      "name": "Approval",
      "type": "event"
    },
    {
      "anonymous": false,
      "inputs": [
        {
          "indexed": true,
          "internalType": "address",
          "name": "owner",
          "type": "address"
        },
        {
          "indexed": true,
          "internalType": "address",
          "name": "operator",
          "type": "address"
        },
        {
          "indexed": false,
          "internalType": "bool",
          "name": "approved",
          "type": "bool"
        }
      ],
      "name": "ApprovalForAll",
      "type": "event"
    },
    {
      "anonymous": false,
      "inputs": [
        {
          "indexed": false,
          "internalType": "uint256",
          "name": "_fromTokenId",
          "type": "uint256"
        },
        {
          "indexed": false,
          "internalType": "uint256",
          "name": "_toTokenId",
          "type": "uint256"
        }
      ],
      "name": "BatchMetadataUpdate",
      "type": "event"
    },
    {
      "anonymous": false,
      "inputs": [
        {
          "indexed": false,
          "internalType": "uint256",
          "name": "_tokenId",
          "type": "uint256"
        }
      ],
      "name": "MetadataUpdate",
      "type": "event"
    },
    {
      "anonymous": false,
      "inputs": [
        {
          "indexed": false,
          "internalType": "uint256",
          "name": "oldFee",
          "type": "uint256"
        },
        {
          "indexed": false,
          "internalType": "uint256",
          "name": "newFee",
          "type": "uint256"
        }
      ],
      "name": "MintFeeUpdated",
      "type": "event"
    },
    {
      "anonymous": false,
      "inputs": [
        {
          "indexed": true,
          "internalType": "address",
          "name": "owner",
          "type": "address"
        },
        {
          "indexed": true,
          "internalType": "uint256",
          "name": "tokenId",
          "type": "uint256"
        },
        {
          "indexed": false,
          "internalType": "bool",
          "name": "genesis",
          "type": "bool"
        }
      ],
      "name": "Minted",
      "type": "event"
    },
    {
      "anonymous": false,
      "inputs": [
        {
          "indexed": true,
          "internalType": "address",
          "name": "previousOwner",
          "type": "address"
        },
        {
          "indexed": true,
          "internalType": "address",
          "name": "newOwner",
          "type": "address"
        }
      ],
      "name": "OwnershipTransferred",
      "type": "event"
    },
    {
      "anonymous": false,
      "inputs": [
        {
          "indexed": true,
          "internalType": "address",
          "name": "from",
          "type": "address"
        },
        {
          "indexed": true,
          "internalType": "address",
          "name": "to",
          "type": "address"
        },
        {
          "indexed": true,
          "internalType": "uint256",
          "name": "tokenId",
          "type": "uint256"
        }
      ],
      "name": "Transfer",
      "type": "event"
    },
    {
      "inputs": [],
      "name": "GENESIS_MAX",
      "outputs": [
        {
          "internalType": "uint256",
          "name": "",
          "type": "uint256"
        }
      ],
      "stateMutability": "view",
      "type": "function"
    },
    {
      "inputs": [
        {
          "internalType": "address",
          "name": "to",
          "type": "address"
        },
        {
          "internalType": "uint256",
          "name": "tokenId",
          "type": "uint256"
        }
      ],
      "name": "approve",
      "outputs": [],
      "stateMutability": "nonpayable",
      "type": "function"
    },
    {
      "inputs": [
        {
          "internalType": "address",
          "name": "owner",
          "type": "address"
        }
      ],
      "name": "balanceOf",
      "outputs": [
        {
          "internalType": "uint256",
          "name": "",
          "type": "uint256"
        }
      ],
      "stateMutability": "view",
      "type": "function"
    },
    {
      "inputs": [
        {
          "internalType": "address",
          "name": "to",
          "type": "address"
        },
        {
          "internalType": "string[]",
          "name": "uris",
          "type": "string[]"
        },
        {
          "internalType": "string[]",
          "name": "strategies",
          "type": "string[]"
        }
      ],
      "name": "batchMintGenesis",
      "outputs": [
        {
          "internalType": "uint256[]",
          "name": "",
          "type": "uint256[]"
        }
      ],
      "stateMutability": "nonpayable",
      "type": "function"
    },
    {
      "inputs": [
        {
          "internalType": "uint256",
          "name": "",
          "type": "uint256"
        }
      ],
      "name": "botStrategy",
      "outputs": [
        {
          "internalType": "string",
          "name": "",
          "type": "string"
        }
      ],
      "stateMutability": "view",
      "type": "function"
    },
    {
      "inputs": [],
      "name": "genesisCount",
      "outputs": [
        {
          "internalType": "uint256",
          "name": "",
          "type": "uint256"
        }
      ],
      "stateMutability": "view",
      "type": "function"
    },
    {
      "inputs": [
        {
          "internalType": "uint256",
          "name": "tokenId",
          "type": "uint256"
        }
      ],
      "name": "getApproved",
      "outputs": [
        {
          "internalType": "address",
          "name": "",
          "type": "address"
        }
      ],
      "stateMutability": "view",
      "type": "function"
    },
    {
      "inputs": [
        {
          "internalType": "address",
          "name": "owner",
          "type": "address"
        },
        {
          "internalType": "address",
          "name": "operator",
          "type": "address"
        }
      ],
      "name": "isApprovedForAll",
      "outputs": [
        {
          "internalType": "bool",
          "name": "",
          "type": "bool"
        }
      ],
      "stateMutability": "view",
      "type": "function"
    },
    {
      "inputs": [
        {
          "internalType": "uint256",
          "name": "",
          "type": "uint256"
        }
      ],
      "name": "isGenesis",
      "outputs": [
        {
          "internalType": "bool",
          "name": "",
          "type": "bool"
        }
      ],
      "stateMutability": "view",
      "type": "function"
    },
    {
      "inputs": [
        {
          "internalType": "string",
          "name": "uri",
          "type": "string"
        },
        {
          "internalType": "string",
          "name": "strategy",
          "type": "string"
        }
      ],
      "name": "mint",
      "outputs": [
        {
          "internalType": "uint256",
          "name": "",
          "type": "uint256"
        }
      ],
      "stateMutability": "payable",
      "type": "function"
    },
    {
      "inputs": [],
      "name": "mintFee",
      "outputs": [
        {
          "internalType": "uint256",
          "name": "",
          "type": "uint256"
        }
      ],
      "stateMutability": "view",
      "type": "function"
    },
    {
      "inputs": [
        {
          "internalType": "address",
          "name": "to",
          "type": "address"
        },
        {
          "internalType": "string",
          "name": "uri",
          "type": "string"
        },
        {
          "internalType": "string",
          "name": "strategy",
          "type": "string"
        }
      ],
      "name": "mintGenesis",
      "outputs": [
        {
          "internalType": "uint256",
          "name": "",
          "type": "uint256"
        }
      ],
      "stateMutability": "nonpayable",
      "type": "function"
    },
    {
      "inputs": [],
      "name": "name",
      "outputs": [
        {
          "internalType": "string",
          "name": "",
          "type": "string"
        }
      ],
      "stateMutability": "view",
      "type": "function"
    },
    {
      "inputs": [],
      "name": "owner",
      "outputs": [
        {
          "internalType": "address",
          "name": "",
          "type": "address"
        }
      ],
      "stateMutability": "view",
      "type": "function"
    },
    {
      "inputs": [
        {
          "internalType": "uint256",
          "name": "tokenId",
          "type": "uint256"
        }
      ],
      "name": "ownerOf",
      "outputs": [
        {
          "internalType": "address",
          "name": "",
          "type": "address"
        }
      ],
      "stateMutability": "view",
      "type": "function"
    },
    {
      "inputs": [],
      "name": "renounceOwnership",
      "outputs": [],
      "stateMutability": "nonpayable",
      "type": "function"
    },
    {
      "inputs": [
        {
          "internalType": "address",
          "name": "from",
          "type": "address"
        },
        {
          "internalType": "address",
          "name": "to",
          "type": "address"
        },
        {
          "internalType": "uint256",
          "name": "tokenId",
          "type": "uint256"
        }
      ],
      "name": "safeTransferFrom",
      "outputs": [],
      "stateMutability": "nonpayable",
      "type": "function"
    },
    {
      "inputs": [
        {
          "internalType": "address",
          "name": "from",
          "type": "address"
        },
        {
          "internalType": "address",
          "name": "to",
          "type": "address"
        },
        {
          "internalType": "uint256",
          "name": "tokenId",
          "type": "uint256"
        },
        {
          "internalType": "bytes",
          "name": "data",
          "type": "bytes"
        }
      ],
      "name": "safeTransferFrom",
      "outputs": [],
      "stateMutability": "nonpayable",
      "type": "function"
    },
    {
      "inputs": [
        {
          "internalType": "address",
          "name": "operator",
          "type": "address"
        },
        {
          "internalType": "bool",
          "name": "approved",
          "type": "bool"
        }
      ],
      "name": "setApprovalForAll",
      "outputs": [],
      "stateMutability": "nonpayable",
      "type": "function"
    },
    {
      "inputs": [
        {
          "internalType": "uint256",
          "name": "newFee",
          "type": "uint256"
        }
      ],
      "name": "setMintFee",
      "outputs": [],
      "stateMutability": "nonpayable",
      "type": "function"
    },
    {
      "inputs": [
        {
          "internalType": "bytes4",
          "name": "interfaceId",
          "type": "bytes4"
        }
      ],
      "name": "supportsInterface",
      "outputs": [
        {
          "internalType": "bool",
          "name": "",
          "type": "bool"
        }
      ],
      "stateMutability": "view",
      "type": "function"
    },
    {
      "inputs": [],
      "name": "symbol",
      "outputs": [
        {
          "internalType": "string",
          "name": "",
          "type": "string"
        }
      ],
      "stateMutability": "view",
      "type": "function"
    },
    {
      "inputs": [
        {
          "internalType": "uint256",
          "name": "tokenId",
          "type": "uint256"
        }
      ],
      "name": "tokenURI",
      "outputs": [
        {
          "internalType": "string",
          "name": "",
          "type": "string"
        }
      ],
      "stateMutability": "view",
      "type": "function"
    },
    {
      "inputs": [],
      "name": "totalSupply",
      "outputs": [
        {
          "internalType": "uint256",
          "name": "",
          "type": "uint256"
        }
      ],
      "stateMutability": "view",
      "type": "function"
    },
    {
      "inputs": [
        {
          "internalType": "address",
          "name": "from",
          "type": "address"
        },
        {
          "internalType": "address",
          "name": "to",
          "type": "address"
        },
        {
          "internalType": "uint256",
          "name": "tokenId",
          "type": "uint256"
        }
      ],
      "name": "transferFrom",
      "outputs": [],
      "stateMutability": "nonpayable",
      "type": "function"
    },
    {
      "inputs": [
        {
          "internalType": "address",
          "name": "newOwner",
          "type": "address"
        }
      ],
      "name": "transferOwnership",
      "outputs": [],
      "stateMutability": "nonpayable",
      "type": "function"
    },
    {
      "inputs": [],
      "name": "withdraw",
      "outputs": [],
      "stateMutability": "nonpayable",
      "type": "function"
    },
    {
      "stateMutability": "payable",
      "type": "receive"
    }
  ],
  "bytecode": "0x60803462000385576001600160401b03906040818101838111838210176200036f578152600b82526020916a47656d426f7473204e464160a81b83820152815193828501858110828211176200036f578352600585526447424e464160d81b8486015281518181116200036f576000948554916001948584811c9416801562000364575b8385101462000350578190601f94858111620002fd575b508390858311600114620002995789926200028d575b5050600019600383901b1c191690851b1786555b8651928311620002795783548481811c911680156200026e575b828210146200025a5782811162000212575b5080918311600114620001ab5750849582939495926200019f575b5050600019600383901b1c191690821b1790555b3315620001875760078054336001600160a01b03198216811790925591519290916001600160a01b0316907f8be0079c531659141344cd1fd0a4f28419497f9722a3daafe3b4186f6b6457e09080a367016345785d8a0000600955611bd790816200038b8239f35b51631e4fbdf760e01b81526004810191909152602490fd5b0151905038806200010b565b90601f198316968487528287209287905b898210620001fa575050838596979810620001e0575b505050811b0190556200011f565b015160001960f88460031b161c19169055388080620001d2565b808785968294968601518155019501930190620001bc565b8487528187208380860160051c82019284871062000250575b0160051c019085905b82811062000244575050620000f0565b88815501859062000234565b925081926200022b565b634e487b7160e01b87526022600452602487fd5b90607f1690620000de565b634e487b7160e01b86526041600452602486fd5b015190503880620000b0565b898052848a208894509190601f1984168b5b87828210620002e65750508411620002cc575b505050811b018655620000c4565b015160001960f88460031b161c19169055388080620002be565b8385015186558b97909501949384019301620002ab565b9091508880528389208580850160051c82019286861062000346575b918991869594930160051c01915b828110620003375750506200009a565b8b815585945089910162000327565b9250819262000319565b634e487b7160e01b88526022600452602488fd5b93607f169362000083565b634e487b7160e01b600052604160045260246000fd5b600080fdfe608080604052600436101561001d575b50361561001b57600080fd5b005b60003560e01c90816301ffc9a7146111465750806306fdde03146110a3578063081812fc14611065578063095ea7b314610f7e57806313966db514610f6057806318160ddd14610f4257806323b872dd14610f2b5780633ccfd60b14610e7357806342842e0e14610e455780636352211e14610e1557806370a0823114610dbc578063715018a614610d5f5780638aa0fdad14610b615780638da5cb5b14610b38578063925d886b14610b1c57806395d89b4114610a51578063a22cb465146109ac578063b88d4fde14610940578063c87b56dd146108e7578063cc08d9651461057a578063dee8636c14610536578063e985e9c5146104e0578063eddd0d9c1461048d578063f1e25ea81461045c578063f259692314610204578063f2fde38b146101765763fffad31214610153573861000f565b34610171576000366003190112610171576020600a54604051908152f35b600080fd5b346101715760203660031901126101715761018f61120b565b610197611494565b6001600160a01b039081169081156101eb57600754826bffffffffffffffffffffffff60a01b821617600755167f8be0079c531659141344cd1fd0a4f28419497f9722a3daafe3b4186f6b6457e0600080a3005b604051631e4fbdf760e01b815260006004820152602490fd5b346101715760603660031901126101715761021d61120b565b67ffffffffffffffff6024358181116101715761023e9036906004016112fd565b604435828111610171576102569036906004016112fd565b9261025f611494565b6064600a54101561041f5761028d6008549261027a846117ed565b60085561028784846117fc565b83611a01565b81600052602093600c85526040600020908051948511610409576102b182546113b4565b601f81116103c3575b508590601f861160011461035b579480918596600092610350575b50508160011b916000199060031b1c19161790555b81600052600b84526040600020600160ff1982541617905561030d600a546117ed565b600a55604051600181526001600160a01b03909116907f53ad8893610de0fa6656f026deb942f5cde3d84f4c68f80c8b376f70c1a0f389908590a3604051908152f35b0151905087806102d5565b90601f1986169183600052876000209260005b898282106103ad57505091600193918888999410610394575b505050811b0190556102ea565b015160001960f88460031b161c19169055878080610387565b600185968293968601518155019501930161036e565b8260005286600020601f870160051c8101918888106103ff575b601f0160051c01905b8181106103f357506102ba565b600081556001016103e6565b90915081906103dd565b634e487b7160e01b600052604160045260246000fd5b60405162461bcd60e51b815260206004820152601560248201527411d95b995cda5cc81b1a5b5a5d081c995858da1959605a1b6044820152606490fd5b3461017157602036600319011261017157600435600052600b602052602060ff604060002054166040519015158152f35b34610171576020366003190112610171576004356104a9611494565b7f7864bf708cae822050e5f50960a0de31bd6fe7620a8f67a48582fb95f29c114a60406009548151908152836020820152a1600955005b34610171576040366003190112610171576104f961120b565b610501611221565b9060018060a01b03809116600052600560205260406000209116600052602052602060ff604060002054166040519015158152f35b3461017157602036600319011261017157600435600052600c60205261057661056260406000206113ee565b6040519182916020835260208301906111cb565b0390f35b346101715760603660031901126101715761059361120b565b60243567ffffffffffffffff8111610171576105b3903690600401611333565b60443567ffffffffffffffff8111610171576105d3903690600401611333565b906105dc611494565b80518251036108a957600a54815181018091116108935760641061085657805161061e6106088261131b565b916106166040519384611288565b80835261131b565b602082019390601f190136853760005b8351811015610811576008805490610645826117ed565b905561065181886117fc565b61066561065e8387611b77565b5182611a01565b61066f8284611b77565b5181600052600c60205260406000209080519067ffffffffffffffff82116104095761069b83546113b4565b601f81116107cd575b50602090601f831160011461075a5761074a95949392916000918361074f575b50508160011b916000199060031b1c19161790555b80600052600b60205260406000206001908160ff198254161790556106ff600a546117ed565b600a558161070d8488611b77565b526040519081526001600160a01b038916907f53ad8893610de0fa6656f026deb942f5cde3d84f4c68f80c8b376f70c1a0f38990602090a36117ed565b61062e565b015190508b806106c4565b9493929190826000526020600020906000965b601f19841688106107b25761074a975083601f19811610610799575b505050600190811b0190556106d9565b015160001960f88460031b161c191690558a8080610789565b8181015183556020978801976001909301929091019061076d565b836000526020600020601f840160051c81016020851061080a575b601f830160051c820181106107fe5750506106a4565b600081556001016107e8565b50806107e8565b84836040519182916020830190602084525180915260408301919060005b81811061083d575050500390f35b825184528594506020938401939092019160010161082f565b60405162461bcd60e51b8152602060048201526015602482015274115e18d959591cc811d95b995cda5cc81b1a5b5a5d605a1b6044820152606490fd5b634e487b7160e01b600052601160045260246000fd5b60405162461bcd60e51b8152602060048201526016602482015275082e4e4c2f2e640d8cadccee8d040dad2e6dac2e8c6d60531b6044820152606490fd5b34610171576020366003190112610171576004356109048161165f565b50600052600660205261057661091d60406000206113ee565b600060405161092b8161126c565b526040519182916020835260208301906111cb565b346101715760803660031901126101715761095961120b565b610961611221565b906044356064359267ffffffffffffffff841161017157366023850112156101715761099a61001b9436906024816004013591016112c6565b926109a68383836114c0565b336116ca565b34610171576040366003190112610171576109c561120b565b60243590811515809203610171576001600160a01b0316908115610a3857336000526005602052604060002082600052602052604060002060ff1981541660ff83161790556040519081527f17307eab39ab6107e8899845ad3d59bd9653f200f220920489ca2b5937696c3160203392a3005b604051630b61174360e31b815260048101839052602490fd5b346101715760003660031901126101715760405160006001805490610a75826113b4565b80855291818116908115610af55750600114610a9c575b6105768461056281860382611288565b600081815292507fb10e2d527612073b26eecdfd717e6a320cf44b4afac2b0732d9fcbe2b7fa0cf65b828410610add57505050810160200161056282610a8c565b80546020858701810191909152909301928101610ac5565b60ff191660208087019190915292151560051b850190920192506105629150839050610a8c565b3461017157600036600319011261017157602060405160648152f35b34610171576000366003190112610171576007546040516001600160a01b039091168152602090f35b60403660031901126101715767ffffffffffffffff60043581811161017157610b8e9036906004016112fd565b60243582811161017157610ba69036906004016112fd565b906009543410610d1a57610bd360085491610bc0836117ed565b600855610bcd83336117fc565b82611a01565b80600052602092600c8452604060002090835190811161040957610bf782546113b4565b601f8111610cd4575b508493601f8211600114610c70579381929394600092610c65575b50508160011b916000199060031b1c19161790555b80604051600081527f53ad8893610de0fa6656f026deb942f5cde3d84f4c68f80c8b376f70c1a0f389843392a3604051908152f35b015190508580610c1b565b601f1982169483600052866000209160005b88888210610cbe57505083600195969710610ca5575b505050811b019055610c30565b015160001960f88460031b161c19169055858080610c98565b6001849582939585015181550194019201610c82565b8260005285600020601f830160051c810191878410610d10575b601f0160051c01905b818110610d045750610c00565b60008155600101610cf7565b9091508190610cee565b60405162461bcd60e51b815260206004820152601960248201527f496e73756666696369656e7420424e4220666f72206d696e74000000000000006044820152606490fd5b3461017157600036600319011261017157610d78611494565b600780546001600160a01b031981169091556000906001600160a01b03167f8be0079c531659141344cd1fd0a4f28419497f9722a3daafe3b4186f6b6457e08280a3005b34610171576020366003190112610171576001600160a01b03610ddd61120b565b168015610dfc5760005260036020526020604060002054604051908152f35b6040516322718ad960e21b815260006004820152602490fd5b34610171576020366003190112610171576020610e3360043561165f565b6040516001600160a01b039091168152f35b346101715761001b610e5636611237565b9060405192610e648461126c565b600084526109a68383836114c0565b3461017157600036600319011261017157610e8c611494565b478015610ef1576007546000918291829182916001600160a01b03165af1610eb261169a565b5015610eba57005b60405162461bcd60e51b815260206004820152600f60248201526e15da5d1a191c985dc819985a5b1959608a1b6044820152606490fd5b60405162461bcd60e51b81526020600482015260126024820152714e6f20424e4220746f20776974686472617760701b6044820152606490fd5b346101715761001b610f3c36611237565b916114c0565b34610171576000366003190112610171576020600854604051908152f35b34610171576000366003190112610171576020600954604051908152f35b3461017157604036600319011261017157610f9761120b565b602435610fa38161165f565b33151580611052575b80611025575b61100d576001600160a01b039283169282918491167f8c5be1e5ebec7d5bd14f71427d1e84f3dd0314c0f7b2291e5b200ac8c7c3b925600080a4600090815260046020526040902080546001600160a01b0319169091179055005b60405163a9fbf51f60e01b8152336004820152602490fd5b5060018060a01b038116600052600560205260406000203360005260205260ff6040600020541615610fb2565b506001600160a01b038116331415610fac565b34610171576020366003190112610171576004356110828161165f565b506000526004602052602060018060a01b0360406000205416604051908152f35b3461017157600036600319011261017157604051600080546110c4816113b4565b80845290600190818116908115610af557506001146110ed576105768461056281860382611288565b600080805292507f290decd9548b62a8d60345a988386fc84ba6bc95484008f6362f93160ef3e5635b82841061112e57505050810160200161056282610a8c565b80546020858701810191909152909301928101611116565b34610171576020366003190112610171576004359063ffffffff60e01b821680920361017157602091632483248360e11b8114908115611188575b5015158152f35b6380ac58cd60e01b8114915081156111ba575b81156111a9575b5083611181565b6301ffc9a760e01b149050836111a2565b635b5e139f60e01b8114915061119b565b919082519283825260005b8481106111f7575050826000602080949584010152601f8019910116010190565b6020818301810151848301820152016111d6565b600435906001600160a01b038216820361017157565b602435906001600160a01b038216820361017157565b6060906003190112610171576001600160a01b0390600435828116810361017157916024359081168103610171579060443590565b6020810190811067ffffffffffffffff82111761040957604052565b90601f8019910116810190811067ffffffffffffffff82111761040957604052565b67ffffffffffffffff811161040957601f01601f191660200190565b9291926112d2826112aa565b916112e06040519384611288565b829481845281830111610171578281602093846000960137010152565b9080601f8301121561017157816020611318933591016112c6565b90565b67ffffffffffffffff81116104095760051b60200190565b9080601f830112156101715781359061134b8261131b565b926113596040519485611288565b828452602092838086019160051b8301019280841161017157848301915b8483106113875750505050505090565b823567ffffffffffffffff81116101715786916113a9848480948901016112fd565b815201920191611377565b90600182811c921680156113e4575b60208310146113ce57565b634e487b7160e01b600052602260045260246000fd5b91607f16916113c3565b9060405191826000825492611402846113b4565b908184526001948581169081600014611471575060011461142e575b505061142c92500383611288565b565b9093915060005260209081600020936000915b81831061145957505061142c9350820101388061141e565b85548884018501529485019487945091830191611441565b91505061142c94506020925060ff191682840152151560051b820101388061141e565b6007546001600160a01b031633036114a857565b60405163118cdaa760e01b8152336004820152602490fd5b6001600160a01b039182169290918315611646576000928284528260209560028752604096848888205416968791331515806115b0575b509060027fddf252ad1be2c89b69c2b068fc378daa952ba7f163c4a11628f55a4df523b3ef928461157d575b858352600381528b8320805460010190558683525289812080546001600160a01b0319168517905580a4169283830361155c5750505050565b6064945051926364283d7b60e01b8452600484015260248301526044820152fd5b600087815260046020526040902080546001600160a01b0319169055848352600381528b83208054600019019055611523565b91939450915080611605575b156115cc578592918791386114f7565b8786886115e9576024915190637e27328960e01b82526004820152fd5b604491519063177e802f60e01b82523360048301526024820152fd5b50338714801561162a575b806115bc57508582526004815233858984205416146115bc565b5086825260058152878220338352815260ff8883205416611610565b604051633250574960e11b815260006004820152602490fd5b6000818152600260205260409020546001600160a01b0316908115611682575090565b60249060405190637e27328960e01b82526004820152fd5b3d156116c5573d906116ab826112aa565b916116b96040519384611288565b82523d6000602084013e565b606090565b9293823b6116da575b5050505050565b61171e9060018060a01b038094169560405194859481630a85bd0160e11b9889885216600487015216602485015260448401526080606484015260848301906111cb565b03906020816000938185885af19082908261179e575b505061176c578261174361169a565b805191908261176557604051633250574960e11b815260048101839052602490fd5b6020915001fd5b6001600160e01b03191603611786575038808080806116d3565b60249060405190633250574960e11b82526004820152fd5b909192506020813d82116117e5575b816117ba60209383611288565b810103126117e15751906001600160e01b0319821682036117de5750903880611734565b80fd5b5080fd5b3d91506117ad565b60001981146108935760010190565b604080519261180a8461126c565b60008085526001600160a01b03948486169485156119e957838352602096600288528584205416848782151592836119b6575b81875260038b528887208054600101905582875260028b5288872080546001600160a01b031916831790557fddf252ad1be2c89b69c2b068fc378daa952ba7f163c4a11628f55a4df523b3ef8780a461199e573b61189e575b505050505050565b856118db9185969798955180938192630a85bd0160e11b9788845233600485015287602485015260448401526080606484015260848301906111cb565b0381858a5af19082908261195a575b5050611922575050506118fb61169a565b805193908461191c578251633250574960e11b815260048101859052602490fd5b84925001fd5b9194506001600160e01b031990911603611943575050388080808080611896565b602492505190633250574960e11b82526004820152fd5b909192508781813d8311611997575b6119738183611288565b810103126117e15751906001600160e01b0319821682036117de57509038806118ea565b503d611969565b84516339e3563760e11b815260048101849052602490fd5b600083815260046020526040902080546001600160a01b031916905580875260038b52888720805460001901905561183d565b8451633250574960e11b815260048101849052602490fd5b91909160009080825260209160068352604081209085519067ffffffffffffffff8211611b6357611a3283546113b4565b601f8111611b20575b508490601f8311600114611a9c57907ff8e1a15aba9398e019f0b49df1a4fde98ee17ae345cb5f6b5e2c27f5033e8ce7969783611a91575b50508160011b916000199060031b1c19161790555b604051908152a1565b015190503880611a73565b9196601f198816848452868420935b818110611b0957509160019391897ff8e1a15aba9398e019f0b49df1a4fde98ee17ae345cb5f6b5e2c27f5033e8ce7999a9410611af0575b505050811b019055611a88565b015160001960f88460031b161c19169055388080611ae3565b929387600181928786015181550195019301611aab565b838252858220601f840160051c810191878510611b59575b601f0160051c01905b818110611b4e5750611a3b565b828155600101611b41565b9091508190611b38565b634e487b7160e01b81526041600452602490fd5b8051821015611b8b5760209160051b010190565b634e487b7160e01b600052603260045260246000fdfea2646970667358221220db8a73f2080adc9cb6cf2a486347c1f52dc641d0ab58903c44169c9c9aed634b64736f6c63430008140033",
  "linkReferences": {},
  "deployedLinkReferences": {}
}