{
  "_format": "hh-sol-artifact-1",
  "contractName": "GemBotsBetting",
  "sourceName": "contracts/GemBotsBetting.sol",
  "abi": [
    {
      "inputs": [
        {
          "internalType": "address",
          "name": "_oracle",
          "type": "address"
        }
      ],
      "stateMutability": "nonpayable",
      "type": "constructor"
    },
    {
      "inputs": [
        {
          "internalType": "address",
          "name": "owner",
          "type": "address"
        }
      ],
      "name": "OwnableInvalidOwner",
      "type": "error"
    },
    {
      "inputs": [
        {
          "internalType": "address",
          "name": "account",
          "type": "address"
        }
      ],
      "name": "OwnableUnauthorizedAccount",
      "type": "error"
    },
    {
      "inputs": [],
      "name": "ReentrancyGuardReentrantCall",
      "type": "error"
    },
    {
      "anonymous": false,
      "inputs": [
        {
          "indexed": true,
          "internalType": "uint256",
          "name": "battleId",
          "type": "uint256"
        },
        {
          "indexed": true,
          "internalType": "address",
          "name": "creator",
          "type": "address"
        },
        {
          "indexed": false,
          "internalType": "uint256",
          "name": "refundAmount",
          "type": "uint256"
        }
      ],
      "name": "BattleCancelled",
      "type": "event"
    },
    {
      "anonymous": false,
      "inputs": [
        {
          "indexed": true,
          "internalType": "uint256",
          "name": "battleId",
          "type": "uint256"
        },
        {
          "indexed": true,
          "internalType": "address",
          "name": "creator",
          "type": "address"
        },
        {
          "indexed": false,
          "internalType": "uint256",
          "name": "entryFee",
          "type": "uint256"
        }
      ],
      "name": "BattleCreated",
      "type": "event"
    },
    {
      "anonymous": false,
      "inputs": [
        {
          "indexed": true,
          "internalType": "uint256",
          "name": "battleId",
          "type": "uint256"
        },
        {
          "indexed": true,
          "internalType": "address",
          "name": "joiner",
          "type": "address"
        }
      ],
      "name": "BattleJoined",
      "type": "event"
    },
    {
      "anonymous": false,
      "inputs": [
        {
          "indexed": true,
          "internalType": "uint256",
          "name": "battleId",
          "type": "uint256"
        },
        {
          "indexed": true,
          "internalType": "address",
          "name": "winner",
          "type": "address"
        },
        {
          "indexed": false,
          "internalType": "uint256",
          "name": "payout",
          "type": "uint256"
        },
        {
          "indexed": false,
          "internalType": "uint256",
          "name": "platformFee",
          "type": "uint256"
        }
      ],
      "name": "BattleResolved",
      "type": "event"
    },
    {
      "anonymous": false,
      "inputs": [
        {
          "indexed": true,
          "internalType": "address",
          "name": "to",
          "type": "address"
        },
        {
          "indexed": false,
          "internalType": "uint256",
          "name": "amount",
          "type": "uint256"
        }
      ],
      "name": "EmergencyWithdraw",
      "type": "event"
    },
    {
      "anonymous": false,
      "inputs": [
        {
          "indexed": true,
          "internalType": "address",
          "name": "oldOracle",
          "type": "address"
        },
        {
          "indexed": true,
          "internalType": "address",
          "name": "newOracle",
          "type": "address"
        }
      ],
      "name": "OracleUpdated",
      "type": "event"
    },
    {
      "anonymous": false,
      "inputs": [
        {
          "indexed": true,
          "internalType": "address",
          "name": "previousOwner",
          "type": "address"
        },
        {
          "indexed": true,
          "internalType": "address",
          "name": "newOwner",
          "type": "address"
        }
      ],
      "name": "OwnershipTransferred",
      "type": "event"
    },
    {
      "anonymous": false,
      "inputs": [
        {
          "indexed": false,
          "internalType": "uint256",
          "name": "oldFee",
          "type": "uint256"
        },
        {
          "indexed": false,
          "internalType": "uint256",
          "name": "newFee",
          "type": "uint256"
        }
      ],
      "name": "PlatformFeeUpdated",
      "type": "event"
    },
    {
      "stateMutability": "payable",
      "type": "fallback"
    },
    {
      "inputs": [],
      "name": "MAX_ENTRY_FEE",
      "outputs": [
        {
          "internalType": "uint256",
          "name": "",
          "type": "uint256"
        }
      ],
      "stateMutability": "view",
      "type": "function"
    },
    {
      "inputs": [],
      "name": "MAX_PLATFORM_FEE",
      "outputs": [
        {
          "internalType": "uint256",
          "name": "",
          "type": "uint256"
        }
      ],
      "stateMutability": "view",
      "type": "function"
    },
    {
      "inputs": [],
      "name": "MIN_ENTRY_FEE",
      "outputs": [
        {
          "internalType": "uint256",
          "name": "",
          "type": "uint256"
        }
      ],
      "stateMutability": "view",
      "type": "function"
    },
    {
      "inputs": [
        {
          "internalType": "uint256",
          "name": "",
          "type": "uint256"
        }
      ],
      "name": "battles",
      "outputs": [
        {
          "internalType": "uint256",
          "name": "id",
          "type": "uint256"
        },
        {
          "internalType": "address",
          "name": "creator",
          "type": "address"
        },
        {
          "internalType": "address",
          "name": "joiner",
          "type": "address"
        },
        {
          "internalType": "uint256",
          "name": "entryFee",
          "type": "uint256"
        },
        {
          "internalType": "enum GemBotsBetting.BattleStatus",
          "name": "status",
          "type": "uint8"
        },
        {
          "internalType": "address",
          "name": "winner",
          "type": "address"
        },
        {
          "internalType": "uint256",
          "name": "createdAt",
          "type": "uint256"
        },
        {
          "internalType": "uint256",
          "name": "resolvedAt",
          "type": "uint256"
        }
      ],
      "stateMutability": "view",
      "type": "function"
    },
    {
      "inputs": [
        {
          "internalType": "uint256",
          "name": "_battleId",
          "type": "uint256"
        }
      ],
      "name": "cancelBattle",
      "outputs": [],
      "stateMutability": "nonpayable",
      "type": "function"
    },
    {
      "inputs": [],
      "name": "createBattle",
      "outputs": [
        {
          "internalType": "uint256",
          "name": "battleId",
          "type": "uint256"
        }
      ],
      "stateMutability": "payable",
      "type": "function"
    },
    {
      "inputs": [],
      "name": "emergencyWithdraw",
      "outputs": [],
      "stateMutability": "nonpayable",
      "type": "function"
    },
    {
      "inputs": [
        {
          "internalType": "uint256",
          "name": "_battleId",
          "type": "uint256"
        }
      ],
      "name": "getBattle",
      "outputs": [
        {
          "components": [
            {
              "internalType": "uint256",
              "name": "id",
              "type": "uint256"
            },
            {
              "internalType": "address",
              "name": "creator",
              "type": "address"
            },
            {
              "internalType": "address",
              "name": "joiner",
              "type": "address"
            },
            {
              "internalType": "uint256",
              "name": "entryFee",
              "type": "uint256"
            },
            {
              "internalType": "enum GemBotsBetting.BattleStatus",
              "name": "status",
              "type": "uint8"
            },
            {
              "internalType": "address",
              "name": "winner",
              "type": "address"
            },
            {
              "internalType": "uint256",
              "name": "createdAt",
              "type": "uint256"
            },
            {
              "internalType": "uint256",
              "name": "resolvedAt",
              "type": "uint256"
            }
          ],
          "internalType": "struct GemBotsBetting.Battle",
          "name": "",
          "type": "tuple"
        }
      ],
      "stateMutability": "view",
      "type": "function"
    },
    {
      "inputs": [],
      "name": "getBattleCount",
      "outputs": [
        {
          "internalType": "uint256",
          "name": "",
          "type": "uint256"
        }
      ],
      "stateMutability": "view",
      "type": "function"
    },
    {
      "inputs": [],
      "name": "getPlatformBalance",
      "outputs": [
        {
          "internalType": "uint256",
          "name": "",
          "type": "uint256"
        }
      ],
      "stateMutability": "view",
      "type": "function"
    },
    {
      "inputs": [
        {
          "internalType": "uint256",
          "name": "_battleId",
          "type": "uint256"
        }
      ],
      "name": "joinBattle",
      "outputs": [],
      "stateMutability": "payable",
      "type": "function"
    },
    {
      "inputs": [],
      "name": "nextBattleId",
      "outputs": [
        {
          "internalType": "uint256",
          "name": "",
          "type": "uint256"
        }
      ],
      "stateMutability": "view",
      "type": "function"
    },
    {
      "inputs": [],
      "name": "oracle",
      "outputs": [
        {
          "internalType": "address",
          "name": "",
          "type": "address"
        }
      ],
      "stateMutability": "view",
      "type": "function"
    },
    {
      "inputs": [],
      "name": "owner",
      "outputs": [
        {
          "internalType": "address",
          "name": "",
          "type": "address"
        }
      ],
      "stateMutability": "view",
      "type": "function"
    },
    {
      "inputs": [],
      "name": "platformBalance",
      "outputs": [
        {
          "internalType": "uint256",
          "name": "",
          "type": "uint256"
        }
      ],
      "stateMutability": "view",
      "type": "function"
    },
    {
      "inputs": [],
      "name": "platformFeeBps",
      "outputs": [
        {
          "internalType": "uint256",
          "name": "",
          "type": "uint256"
        }
      ],
      "stateMutability": "view",
      "type": "function"
    },
    {
      "inputs": [],
      "name": "renounceOwnership",
      "outputs": [],
      "stateMutability": "nonpayable",
      "type": "function"
    },
    {
      "inputs": [
        {
          "internalType": "uint256",
          "name": "_battleId",
          "type": "uint256"
        },
        {
          "internalType": "address",
          "name": "_winner",
          "type": "address"
        }
      ],
      "name": "resolveBattle",
      "outputs": [],
      "stateMutability": "nonpayable",
      "type": "function"
    },
    {
      "inputs": [
        {
          "internalType": "address",
          "name": "_oracle",
          "type": "address"
        }
      ],
      "name": "setOracle",
      "outputs": [],
      "stateMutability": "nonpayable",
      "type": "function"
    },
    {
      "inputs": [
        {
          "internalType": "uint256",
          "name": "_feeBps",
          "type": "uint256"
        }
      ],
      "name": "setPlatformFee",
      "outputs": [],
      "stateMutability": "nonpayable",
      "type": "function"
    },
    {
      "inputs": [
        {
          "internalType": "address",
          "name": "newOwner",
          "type": "address"
        }
      ],
      "name": "transferOwnership",
      "outputs": [],
      "stateMutability": "nonpayable",
      "type": "function"
    },
    {
      "inputs": [],
      "name": "withdrawPlatformFees",
      "outputs": [],
      "stateMutability": "nonpayable",
      "type": "function"
    },
    {
      "stateMutability": "payable",
      "type": "receive"
    }
  ],
  "bytecode": "0x60803461011b57601f6113cc38819003918201601f19168301916001600160401b038311848410176101205780849260209460405283398101031261011b57516001600160a01b038082169182900361011b573315610102576000549060018060a01b0319913383821617600055604051913391167f8be0079c531659141344cd1fd0a4f28419497f9722a3daafe3b4186f6b6457e0600080a36001805560fa60035582156100c05750600254161760025560405161129590816101378239f35b62461bcd60e51b815260206004820152601f60248201527f47656d426f74733a206f7261636c65206973207a65726f2061646472657373006044820152606490fd5b604051631e4fbdf760e01b815260006004820152602490fd5b600080fd5b634e487b7160e01b600052604160045260246000fdfe6040608081526004803610156100a2575b3615610050576020606492519162461bcd60e51b8352820152601560248201527411d95b509bdd1cce881a5b9d985b1a590818d85b1b605a1b6044820152fd5b6020608492519162461bcd60e51b8352820152602760248201527f47656d426f74733a2075736520637265617465426174746c65206f72206a6f696044820152666e426174746c6560c81b6064820152fd5b600060e08135811c90816312e8e2c31461101357816322dcd13e14610ff457816331a6ff6614610fd55781633998a68114610fb85781634a042f0d14610e635781634c4c447e14610d01578163606d2e9614610c7557816361cb121214610a7c57816362a5dbbc14610a5d5781636dd0ce7a146108d457508063715018a6146108775780637adbf973146107be5780637dc0d1d01461079557806381883759146107735780638da5cb5b1461074b578063ba9bf7571461072c578063d0b7830b1461064e578063db2e21bc1461053a578063e0e7c8c514610275578063f2fde38b146101e9578063f470d5ec146101ca5763f50ab0de146101a35750610010565b82346101c657816003193601126101c6576020905168056bc75e2d631000008152f35b5080fd5b5082346101c657816003193601126101c6576020906005549051908152f35b50919034610271576020366003190112610271576102056110db565b9061020e611210565b6001600160a01b0391821692831561025b57505082546001600160a01b0319811683178455167f8be0079c531659141344cd1fd0a4f28419497f9722a3daafe3b4186f6b6457e08380a380f35b51631e4fbdf760e01b8152908101849052602490fd5b8280fd5b5091346102715780600319360112610271576001600160a01b036024803582811694803594939286830361053657836002541633036104ea576102b661123c565b858852600660205284882084600182015416936102d48515156110f6565b8382019586549560ff8716868110156104d857600103610496578a14908115610486575b5015610436576003820154958660011b96808804600214901517156104245760035480880290888204148815171561041257612710900495868803978811610412576001600160a81b03191660089290921b610100600160a81b0316919091176002179055600642910155815483810180911161040057825587808080878b5af16103816111c5565b50156103be575050825191825260208201527f2688807c04698f616c747ee1209f4045f778e1079296e801b37686ab81e709109190a36001805580f35b90601f606492602087519362461bcd60e51b85528401528201527f47656d426f74733a207061796f7574207472616e73666572206661696c6564006044820152fd5b50634e487b7160e01b88526011825287fd5b634e487b7160e01b8c5260118652848cfd5b634e487b7160e01b8b5260118552838bfd5b865162461bcd60e51b81526020818601526025818501527f47656d426f74733a2077696e6e6572206d7573742062652061207061727469636044820152641a5c185b9d60da1b6064820152608490fd5b90506002830154168914386102f8565b885162461bcd60e51b8152602081880152601d818701527f47656d426f74733a20626174746c65206973206e6f74206163746976650000006044820152606490fd5b634e487b7160e01b8d5260218752858dfd5b906021608492602087519362461bcd60e51b85528401528201527f47656d426f74733a2063616c6c6572206973206e6f7420746865206f7261636c6044820152606560f81b6064820152fd5b8780fd5b50919034610271578260031936011261027157610555611210565b61055d61123c565b4790811561060b5760018060a01b03908480808086868254165af16105806111c5565b50156105bc57507f5fafa99d0643513820be26656b45130b01e1c03062e1266bf36f88cbd3bd9695916020918554169351908152a26001805580f35b608490602085519162461bcd60e51b83528201526024808201527f47656d426f74733a20656d657267656e6379207769746864726177616c2066616044820152631a5b195960e21b6064820152fd5b606490602084519162461bcd60e51b8352820152601c60248201527f47656d426f74733a206e6f7468696e6720746f207769746864726177000000006044820152fd5b509134610271578260031936011261027157610668611210565b61067061123c565b815480156106e957838355835484918291829182916001600160a01b03165af16106986111c5565b50156106a657826001805580f35b906020606492519162461bcd60e51b8352820152601a60248201527f47656d426f74733a207769746864726177616c206661696c65640000000000006044820152fd5b815162461bcd60e51b8152602081850152601c60248201527f47656d426f74733a206e6f206665657320746f207769746864726177000000006044820152606490fd5b5091903461027157826003193601126102715760209250549051908152f35b5082346101c657816003193601126101c657905490516001600160a01b039091168152602090f35b5082346101c657816003193601126101c6576020905166038d7ea4c680008152f35b5082346101c657816003193601126101c65760025490516001600160a01b039091168152602090f35b50919034610271576020366003190112610271576107da6110db565b906107e3611210565b6001600160a01b03918216928315610834575050600254826001600160601b0360a01b821617600255167f078c3b417dadf69374a59793b829c52001247130433427049317bde56607b1b78380a380f35b906020606492519162461bcd60e51b8352820152601f60248201527f47656d426f74733a206f7261636c65206973207a65726f2061646472657373006044820152fd5b50346108d157806003193601126108d157610890611210565b80546001600160a01b03198116825581906001600160a01b03167f8be0079c531659141344cd1fd0a4f28419497f9722a3daafe3b4186f6b6457e08280a380f35b80fd5b90508391346108d1576020806003193601126101c65784359180846108f761118e565b828152828582015282888201528260608201528260808201528260a08201528260c082015201528281526006825260018060a01b039283600187842001541615610a1a578152600682528481209161094d61118e565b95835487528460018501541691808801928352856002860154169082890191825260038601549360608a019485528a8701549660ff881660808c01978d821015610a0757506109f388610100988e988d8f998b998f978b9a8d6006869c878f60a09082978e52019d60081c168d5260c060058201549f019e8f5201549d019c8d5285519e8f905190525116908d01525116908a01525160608901525160808801906110b8565b511660a08501525160c08401525190820152f35b634e487b7160e01b815260218e52602490fd5b855162461bcd60e51b8152808801849052601960248201527f47656d426f74733a20626174746c65206e6f7420666f756e64000000000000006044820152606490fd5b8285853461027157826003193601126102715760209250549051908152f35b8491508260031936011261027157610a9261123c565b66038d7ea4c680003410610c325768056bc75e2d631000003411610bef57600554926000198414610bdc5760018401600555610acc61118e565b9184835260208301913383528484019281845260608501348152608086019280845260a087019181835260c08801954287528801968288528a83526006602052898320985189556001890160018060a01b0380965116906001600160601b0360a01b91828254161790558560028b01925116908254161790555160038801558987019351908a821015610bc95750835491516001600160a81b031990921660ff90911617911660081b610100600160a81b03161790556020955060069190516005840155519101558051348152827fcd51df591e2f9319b98d783b63c675c8ab2e63d44101da9e5a12af2b1fcab479853393a36001805551908152f35b634e487b7160e01b815260218b52602490fd5b634e487b7160e01b815260118552602490fd5b815162461bcd60e51b8152602081860152601b60248201527f47656d426f74733a20656e7472792066656520746f6f206869676800000000006044820152606490fd5b815162461bcd60e51b8152602081860152601a60248201527f47656d426f74733a20656e7472792066656520746f6f206c6f770000000000006044820152606490fd5b8484849234610cfd576020366003190112610cfd5782610100948335815260066020522080549360018060a01b03908160018401541694826002850154166003850154918501549260066005870154960154978151998a5260208a01528801526060870152610cea6080870160ff83166110b8565b60081c1660a085015260c0840152820152f35b8380fd5b8285853461027157602080600319360112610cfd57813591610d2161123c565b828552600682528385206001810180546001600160a01b03939192908416610d4a8115156110f6565b82820180549260ff841685811015610e5057610d669015611142565b823303610e0f578a600397969594819482948a849501549a8b9360ff19161790555af1610d916111c5565b5015610dcc5750907f571a3cd76f8ff2ceae1c97dc5831982b1eea4bdee67ec984a201323729595a3393929154169451908152a36001805580f35b865162461bcd60e51b8152908101859052601f60248201527f47656d426f74733a20726566756e64207472616e73666572206661696c6564006044820152606490fd5b60648589808d519262461bcd60e51b845283015260248201527f47656d426f74733a206f6e6c792063726561746f722063616e2063616e63656c6044820152fd5b634e487b7160e01b8c526021865260248cfd5b505091602060031936011261027157813591610e7d61123c565b828452600660205281842060018101546001600160a01b031691610ea28315156110f6565b8082019384549360ff851683811015610fa557610ebf9015611142565b3314610f625760038301543403610f1f57505090600260019201336001600160601b0360a01b82541617905560ff191617905533907f8c6accc40f0b31b2b4fa26bce8f25592cedbe9e9a6a9323b56188d02eceed53d8380a36001805580f35b906020606492519162461bcd60e51b8352820152601b60248201527f47656d426f74733a20656e74727920666565206d69736d6174636800000000006044820152fd5b906020606492519162461bcd60e51b8352820152601f60248201527f47656d426f74733a2063616e6e6f74206a6f696e206f776e20626174746c65006044820152fd5b634e487b7160e01b895260218452602489fd5b8285346101c657816003193601126101c657602090516103e88152f35b8285346101c657816003193601126101c6576020906005549051908152f35b8285346101c657816003193601126101c6576020906003549051908152f35b8285853461027157602036600319011261027157803590611032611210565b6103e882116110755750907fd347e206f25a89b917fc9482f1a2d294d749baa4dc9bde7fb495ee11fe49164391600354908060035582519182526020820152a180f35b606490602084519162461bcd60e51b8352820152601860248201527f47656d426f74733a2066656520657863656564732031302500000000000000006044820152fd5b9060048210156110c55752565b634e487b7160e01b600052602160045260246000fd5b600435906001600160a01b03821682036110f157565b600080fd5b156110fd57565b60405162461bcd60e51b815260206004820152601e60248201527f47656d426f74733a20626174746c6520646f6573206e6f7420657869737400006044820152606490fd5b1561114957565b60405162461bcd60e51b815260206004820152601b60248201527f47656d426f74733a20626174746c65206973206e6f74206f70656e00000000006044820152606490fd5b60405190610100820182811067ffffffffffffffff8211176111af57604052565b634e487b7160e01b600052604160045260246000fd5b3d1561120b5767ffffffffffffffff903d8281116111af5760405192601f8201601f19908116603f01168401908111848210176111af5760405282523d6000602084013e565b606090565b6000546001600160a01b0316330361122457565b60405163118cdaa760e01b8152336004820152602490fd5b60026001541461124d576002600155565b604051633ee5aeb560e01b8152600490fdfea2646970667358221220f6d3209798fd83354df137c97a60ed67c03deea8cff01b9a98db7be79469d8e464736f6c63430008180033",
  "linkReferences": {},
  "deployedLinkReferences": {}
}